:020000040800F2
:10000000000002207D460008A9430008B143000813
:10001000B9430008C1430008C943000800000000BC
:10002000000000000000000000000000D1430008B4
:10003000DF43000800000000ED430008FB43000818
:10004000CD460008CD460008CD460008CD46000844
:10005000CD460008CD460008CD460008CD46000834
:10006000CD460008CD460008CD46000809440008EA
:100070001D44000831440008454400085944000864
:10008000CD460008CD460008CD460008CD46000804
:100090006D440008CD460008CD460008CD46000856
:1000A00081440008CD460008CD460008CD46000832
:1000B000CD460008CD460008CD460008CD460008D4
:1000C000CD460008CD460008CD460008CD460008C4
:1000D000CD460008CD460008CD460008CD460008B4
:1000E000CD460008CD460008CD4600089D440008D6
:1000F000CD460008CD460008CD460008CD46000894
:10010000CD460008CD460008CD460008CD46000883
:10011000CD460008CD460008B1440008CD46000891
:10012000CD460008CD460008CD460008CD46000863
:10013000CD460008CD460008CD460008CD46000853
:10014000CD460008CD460008CD460008CD46000843
:10015000CD460008CD460008CD460008CD46000833
:10016000CD460008CD460008CD460008CD46000823
:10017000CD460008CD460008CD460008CD46000813
:10018000CD460008CD460008CD460008CD46000803
:10019000CD46000800000000CD460008CD4600080E
:1001A000CD460008CD460008CD460008CD460008E3
:1001B000CD460008CD460008CD460008CD460008D3
:1001C000CD460008CD460008CD460008CD460008C3
:0801D000CD460008CD460008F1
:1001E00010B5054C237833B9044B13B10448AFF371
:1001F00000800123237010BDC80300200000000010
:10020000746D010808B5034B1BB103490348AFF3F4
:10021000008008BD00000000CC030020746D0108C0
:1002200001F0FF01102A2BDB10F0070F08D010F8A7
:10023000013B013A8B422DD010F0070F42B3F6D1AB
:10024000F0B441EA012141EA014122F007047FF0C4
:1002500000070023F0E80256083C85EA010586EA1B
:10026000010685FA47F5A3FA87F586FA47F6A5FA57
:1002700087F68EB9EED1F0BC01F0FF0102F0070263
:1002800032B110F8013B013A83EA010313B1F8D10E
:100290000020704701387047002D06BF35460338EF
:1002A000073815F0010F07D1013015F4807F02BF28
:1002B000013015F4C03F0130F0BC0138704700BF79
:1002C000034613F8012B002AFBD1181A0138704796
:1002D00081F0004102E000BF83F0004330B54FEAF7
:1002E00041044FEA430594EA050F08BF90EA020F64
:1002F0001FBF54EA000C55EA020C7FEA645C7FEAF7
:10030000655C00F0E2804FEA5454D4EB5555B8BF19
:100310006D420CDD2C4480EA020281EA030382EA8A
:10032000000083EA010180EA020281EA0303362D1C
:1003300088BF30BD11F0004F4FEA01314FF4801CEF
:100340004CEA113102D0404261EB410113F0004F01
:100350004FEA03334CEA133302D0524263EB4303B8
:1003600094EA050F00F0A780A4F10104D5F1200E56
:100370000DDB02FA0EFC22FA05F2801841F10001B1
:1003800003FA0EF2801843FA05F359410EE0A5F185
:1003900020050EF1200E012A03FA0EFC28BF4CF0B6
:1003A000020C43FA05F3C01851EBE37101F000456C
:1003B00007D54FF0000EDCF1000C7EEB00006EEB79
:1003C0000101B1F5801F1BD3B1F5001F0CD3490803
:1003D0005FEA30004FEA3C0C04F101044FEA44525A
:1003E00012F5800F80F09A80BCF1004F08BF5FEAE1
:1003F000500C50F1000041EB045141EA050130BDC1
:100400005FEA4C0C404141EB0101013C28BFB1F5D2
:10041000801FE9D291F0000F04BF01460020B1FA1D
:1004200081F308BF2033A3F10B03B3F120020CDAF0
:100430000C3208DD02F1140CC2F10C0201FA0CF0CE
:1004400021FA02F10CE002F11402D8BFC2F1200C33
:1004500001FA02F120FA0CFCDCBF41EA0C019040E9
:10046000E41AA2BF01EB0451294330BD6FEA040432
:100470001F3C1CDA0C340EDC04F11404C4F120021D
:1004800020FA04F001FA02F340EA030021FA04F32F
:1004900045EA030130BDC4F10C04C4F1200220FA86
:1004A00002F001FA04F340EA0300294630BD21FAC4
:1004B00004F0294630BD94F0000F83F4801306BF8A
:1004C00081F480110134013D4EE77FEA645C18BF7E
:1004D0007FEA655C29D094EA050F08BF90EA020F15
:1004E00005D054EA000C04BF1946104630BD91EA0D
:1004F000030F1EBF0021002030BD5FEA545C05D110
:100500004000494128BF41F0004130BD14F580044E
:100510003CBF01F5801130BD01F0004545F0FE41C2
:1005200041F470014FF0000030BD7FEA645C1ABFF7
:10053000194610467FEA655C1CBF0B46024650EA2E
:10054000013406BF52EA033591EA030F41F400215A
:1005500030BD00BF90F0000F04BF0021704730B5E0
:100560004FF4806404F132044FF000054FF00001B5
:1005700050E700BF90F0000F04BF0021704730B576
:100580004FF4806404F1320410F0004548BF40424B
:100590004FF000013EE700BF42004FEAE2014FEAA0
:1005A00031014FEA02701FBF12F07F4393F07F4F7B
:1005B00081F06051704732F07F4208BF704793F07E
:1005C0007F4F04BF41F40021704730B54FF4607491
:1005D00001F0004521F000411CE700BF50EA010294
:1005E00008BF704730B54FF000050AE050EA01023D
:1005F00008BF704730B511F0004502D5404261EBAD
:1006000041014FF4806404F132045FEA915C3FF4ED
:10061000D8AE4FF003025FEADC0C18BF03325FEA8A
:10062000DC0C18BF033202EBDC02C2F1200300FA3B
:1006300003FC20FA02F001FA03FE40EA0E0021FA60
:1006400002F11444BDE600BF70B54FF0FF0C4CF44E
:10065000E06C1CEA11541DBF1CEA135594EA0C0F00
:1006600095EA0C0F00F0DEF82C4481EA030621EA3B
:100670004C5123EA4C5350EA013518BF52EA033576
:1006800041F4801143F4801338D0A0FB02CE4FF028
:100690000005E1FB02E506F00042E0FB03E54FF058
:1006A0000006E1FB03569CF0000F18BF4EF0010E50
:1006B000A4F1FF04B6F5007F64F5407404D25FEA4C
:1006C0004E0E6D4146EB060642EAC62141EA5551FF
:1006D0004FEAC52040EA5E504FEACE2EB4F1FD0C41
:1006E00088BFBCF5E06F1ED8BEF1004F08BF5FEABF
:1006F000500E50F1000041EB045170BD06F0004671
:1007000046EA010140EA020081EA0301B4EB5C041D
:10071000C2BFD4EB0C0541EA045170BD41F4801115
:100720004FF0000E013C00F3AB8014F1360FDEBF3A
:10073000002001F0004170BDC4F10004203C35DA16
:100740000C341BDC04F11404C4F1200500FA05F399
:1007500020FA04F001FA05F240EA020001F000423A
:1007600021F0004110EBD37021FA04F642EB0601B0
:100770005EEA430E08BF20EAD37070BDC4F10C04DA
:10078000C4F1200500FA04F320FA05F001FA04F29E
:1007900040EA020001F0004110EBD37041F100018A
:1007A0005EEA430E08BF20EAD37070BDC4F1200595
:1007B00000FA05F24EEA020E20FA04F301FA05F2FD
:1007C00043EA020321FA04F001F0004121FA04F2A5
:1007D00020EA020000EBD3705EEA430E08BF20EA75
:1007E000D37070BD94F0000F0FD101F000464000AF
:1007F00041EB010111F4801F08BF013CF7D041EA31
:10080000060195F0000F18BF704703F00046520034
:1008100043EB030313F4801F08BF013DF7D043EA05
:100820000603704794EA0C0F0CEA135518BF95EABB
:100830000C0F0CD050EA410618BF52EA4306D1D142
:1008400081EA030101F000414FF0000070BD50EA61
:10085000410606BF1046194652EA430619D094EAEB
:100860000C0F02D150EA013613D195EA0C0F05D1D5
:1008700052EA03361CBF104619460AD181EA030129
:1008800001F0004141F0FE4141F470014FF00000E1
:1008900070BD41F0FE4141F4780170BD70B54FF07C
:1008A000FF0C4CF4E06C1CEA11541DBF1CEA1355FC
:1008B00094EA0C0F95EA0C0F00F0A7F8A4EB0504DE
:1008C00081EA030E52EA03354FEA013100F08880D5
:1008D0004FEA03334FF0805545EA131343EA12639E
:1008E0004FEA022245EA111545EA10654FEA002653
:1008F0000EF000419D4208BF964244F1FD0404F50C
:10090000407402D25B084FEA3202B61A65EB030567
:100910005B084FEA32024FF480104FF4002CB6EB24
:10092000020E75EB030E22BFB61A754640EA0C00A4
:100930005B084FEA3202B6EB020E75EB030E22BFE4
:10094000B61A754640EA5C005B084FEA3202B6EB25
:10095000020E75EB030E22BFB61A754640EA9C00E4
:100960005B084FEA3202B6EB020E75EB030E22BFB4
:10097000B61A754640EADC0055EA060E18D04FEA72
:10098000051545EA16754FEA06164FEAC30343EA12
:1009900052734FEAC2025FEA1C1CC0D111F4801FDF
:1009A0000BD141EA00014FF000004FF0004CB6E7D8
:1009B00011F4801F04BF01430020B4F1FD0C88BF77
:1009C000BCF5E06F3FF6AFAEB5EB030C04BFB6EB82
:1009D000020C5FEA500C50F1000041EB045170BD75
:1009E0000EF0004E4EEA113114EB5C04C2BFD4EBA2
:1009F0000C0541EA045170BD41F480114FF0000E26
:100A0000013C90E645EA060E8DE60CEA135594EAA1
:100A10000C0F08BF95EA0C0F3FF43BAF94EA0C0FA4
:100A20000AD150EA01347FF434AF95EA0C0F7FF419
:100A300025AF104619462CE795EA0C0F06D152EA6D
:100A400003353FF4FDAE1046194622E750EA410651
:100A500018BF52EA43067FF4C5AE50EA41047FF462
:100A60000DAF52EA43057FF4EBAE12E74FF0FF3CC7
:100A700006E000BF4FF0010C02E000BF4FF0010C98
:100A80004DF804CD4FEA410C7FEA6C5C4FEA430C11
:100A900018BF7FEA6C5C1BD001B050EA410C0CBF60
:100AA00052EA430C91EA030F02BF90EA020F0020C2
:100AB000704710F1000F91EA030F58BF994208BF29
:100AC00090422CBFD8176FEAE37040F001007047E6
:100AD0004FEA410C7FEA6C5C02D150EA013C07D13D
:100AE0004FEA430C7FEA6C5CD6D152EA033CD3D088
:100AF0005DF8040B704700BF8446104662468C4682
:100B00001946634600E000BF01B5FFF7B7FF0028B4
:100B100048BF10F1000F01BD4DF808EDFFF7F4FFDD
:100B20000CBF012000205DF808FB00BF4DF808ED68
:100B3000FFF7EAFF34BF012000205DF808FB00BF8B
:100B40004DF808EDFFF7E0FF94BF012000205DF8AD
:100B500008FB00BF4DF808EDFFF7CEFF94BF012062
:100B600000205DF808FB00BF4DF808EDFFF7C4FF5B
:100B700034BF012000205DF808FB00BF4FEA410CA4
:100B80007FEA6C5C02D150EA013C0AD14FEA430C87
:100B90007FEA6C5C02D152EA033C02D14FF00000C4
:100BA00070474FF0010070474FEA410212F5001202
:100BB00015D211D56FF47873B3EB625212D94FEAA4
:100BC000C12343F0004343EA505311F0004F23FA8E
:100BD00002F018BF404270474FF00000704750EAE3
:100BE000013005D111F0004008BF6FF000407047A0
:100BF0004FF00000704700BF4A0011D212F50012FA
:100C000011D20DD56FF47873B3EB62520ED44FEA64
:100C1000C12343F0004343EA505323FA02F07047E4
:100C20004FF00000704750EA013002D14FF0FF3022
:100C300070474FF0000070474FEA4102B2F1E043C5
:100C400024BFB3F5001CDCF1FE5C0DD901F0004CB3
:100C50004FEAC0024CEA5070B2F1004F40EB830003
:100C600008BF20F00100704711F0804F21D113F12F
:100C70003872BCBF01F00040704741F480114FEA68
:100C80005252C2F11802C2F1200C10FA0CF320FAF1
:100C900002F018BF40F001004FEAC1234FEAD3230E
:100CA00003FA0CFC40EA0C0023FA02F34FEA430378
:100CB000CCE77FEA625307D150EA01331EBF4FF001
:100CC000FE4040F44000704701F0004040F0FE401C
:100CD00040F40000704700BF53B94AB9002908BF6B
:100CE00000281CBF4FF0FF314FF0FF3000F0A0B9DB
:100CF000ADF1080C6DE904CE00F03CF8DDF804E03D
:100D0000DDE9022304B0704738B500220023044611
:100D10000D46FFF70BFF28B920462946BDE83840AD
:100D200000F00AB8204605F1004100F005F8404205
:100D300061EB410138BD00BFD0B50C4B0022064627
:100D40000F46FFF781FCFFF757FF0446FFF702FC51
:100D5000074B0022FFF778FC02460B463046394627
:100D6000FFF7BAFAFFF748FF2146D0BD0000F03D7B
:100D70000000F0412DE9F047089D0C46002B4ED1B4
:100D800094468C458646B2FA82F262D94AB1C2F1E3
:100D90002003914020FA03F30CFA02FC194300FAF5
:100DA00002FE4FEA1C471FFA8CF6B1FBF7F44FEA3C
:100DB0001E4307FB141143EA014304FB06F1994269
:100DC0000AD91CEB030304F1FF3080F01281994231
:100DD00040F20F81023C6344591A1FFA8EF3B1FBB3
:100DE000F7F007FB101143EA014300FB06F69E42B1
:100DF0000AD91CEB030300F1FF3180F0FC809E4216
:100E000040F2F980634402389B1B40EA0440002111
:100E10001DB1D3400022C5E90032BDE8F0878B4206
:100E200005D90DB1C5E9000100210846F5E7B3FA7F
:100E300083F1002946D1A34202D39042C0F0F08052
:100E4000861A64EB03030120002DE6D0C5E9006398
:100E5000E3E7002A40F09080A1EB0C044FEA1C4825
:100E60001FFA8CF70121B4FBF8F64FEA1E4308FB8A
:100E7000164443EA044307FB06F0984208D91CEBEA
:100E8000030306F1FF3402D2984200F2CD802646D9
:100E90001C1A1FFA8EF3B4FBF8F008FB104443EA67
:100EA000044300FB07F79F4208D91CEB030300F142
:100EB000FF3402D29F4200F2B0802046DB1B40EAA2
:100EC0000640A5E7C1F120068B4022FA06F71F4332
:100ED00020FA06FC04FA01F343EA0C03F44000FA9A
:100EE00001F8380C4FEA1349B4FBF0FE1FFA87FCF7
:100EF00000FB1E4449EA04440EFB0CF9A14502FA2A
:100F000001F20AD93C190EF1FF3A80F08480A14524
:100F100040F28180AEF1020E3C44A4EB09041FFABA
:100F200083F9B4FBF0F300FB134449EA044403FBE8
:100F30000CFCA44507D93C1903F1FF3067D2A44546
:100F400065D9023B3C4443EA0E40A0FB0293A4EB6C
:100F50000C049C42CE469C4651D34ED055B1B8EBC2
:100F60000E0364EB0C0404FA06F6CB401E43CC409F
:100F7000C5E90064002150E7C2F1200320FA03F123
:100F80000CFA02FC24FA03F394400C434FEA1C4889
:100F900000FA02FE1FFA8CF7B3FBF8F008FB1031E1
:100FA000230C43EA014300FB07F1994208D91CEBEB
:100FB000030300F1FF362CD299422AD90238634448
:100FC0005B1AA4B2B3FBF8F108FB113344EA034403
:100FD00001FB07F3A34208D91CEB040401F1FF361F
:100FE00013D2A34211D902396444E41A41EA004100
:100FF00039E70446F0E6084606E7C845AED2B9EB45
:10100000020E63EB070C0138A8E73146EDE7034613
:1010100099E73046D4E7D6467FE7634402384DE788
:101020000646234608460FE7023E634430E700BF0A
:10103000704700BF0000000090B583B002AF03F01E
:1010400046FB00F0F9FC01F02BFB01F0DFFA00F0A9
:10105000B9FD00F083FE00F0E7FE00F06BFF00F04A
:10106000B5FF00F0EDFF01F073F901F083FA00F035
:1010700031FD01F07FF80FF049FA01F003FA01F0B9
:1010800053FA01F02FF901F0EDF800F03FFF854B26
:1010900009221A60834B60229A61824B00225A60B7
:1010A000804B00221A617F4B00225A617D4B002247
:1010B0009A607C4B0022DA607A497B4805F03AF866
:1010C0000346002B01D002F0EBFC01F091FD03463A
:1010D0001A46764B1A70764B1B78DBB2002B04D085
:1010E00002F0DCF8724B00221A700421714806F0FD
:1010F0000BF903461A46704B1A706F4B1B78002B86
:101100000ED06E4B1B78002B0AD0684B1B78002B3F
:1011100006D16B4B00221A70684B00221A7019E03E
:10112000654B1B78002B0ED0664B1B78002B0AD02A
:101130005E4B1B78002B06D1614B03221A70614B6A
:1011400000221A7006E0604B1B78002B02D05C4B2B
:1011500002221A70584B1B78002B03D0534B1B787C
:10116000002B02D0564B01221A70584B1B78544A60
:1011700012781146184601F0DFFB03461A46534B1E
:101180001A70524B1B78042B00F20D8401A252F806
:1011900023F000BFA911000867120008151300080A
:1011A0007D180008F118000801220421484806F0C3
:1011B000C3F8002220213F4806F0BEF8012220217A
:1011C000444806F0B9F84FF47A7003F0F1FA0022BF
:1011D0002021404806F0B0F800213F4809F00AF805
:1011E00004213E4809F006F800213D4805F0DCF9ED
:1011F00010213B4805F0D8F900213A4805F0D4F910
:101200000021394808F0F6FF384808F0F5FE7F2144
:10121000374804F0F3FD7F21364804F0EFFD7F21CD
:10122000354804F0EBFD05223449314803F0E2FE75
:10123000022233492F4803F0DDFE0A2231492E48AD
:1012400003F0D8FE142001F0D1FB2C4B1B889AB27E
:101250002D4B1A80294B5B889AB22C4B1A801B4B62
:1012600001221A70A6E301F0FDFC03461A46284B42
:101270001A70124B1B78002B00F098830E4B1B78D2
:10128000002B00F09383094B1B78002B40F08E83DA
:101290001F4B1B78002B00F089830C4B02221A7025
:1012A00084E300BFA00B0020B4060020940B0020B4
:1012B000800B0020000800489C0B0020900B0020B1
:1012C00038000020910B0020920B0020930B00208F
:1012D0000014004800100048C4070020F408002053
:1012E000DC060020F0060020100800205C0800202A
:1012F00050040020BC04002028050020880A00209B
:10130000940A0020A80A00206C0A00206E0A00201F
:10131000950B0020824B1B68002B0FD1002204216B
:10132000804806F009F8804808F066FE00217F48F2
:1013300008F060FF04217E4808F05CFF7D4B1B78BD
:10134000002B00F036837C4B1B6807EE903AF8EEDA
:10135000677A7A4B1B6807EE103AB8EE477A784BFB
:101360001B6806EE903AF8EE666A764B1B6806EE4E
:10137000103AB8EE466AF0EE461AB0EE661AF0EE93
:10138000470AB0EE670A01F08BFEF0EE407AFDEE00
:10139000E77A17EE902A694B1A606B4B1B6807EED1
:1013A000903AF8EEE77A694B1B6807EE103AB8EE10
:1013B000477A674B1B6806EE903AF8EE666A654B13
:1013C0001B6806EE103AB8EE466AF0EE461AB0EE2A
:1013D000661AF0EE470AB0EE670A01F061FEF0EE21
:1013E000407AFDEEE77A17EE902A584B1A60574B79
:1013F0001B6807EE903AF8EE676A504B1B6807EEE1
:10140000903AB8EE677AC6EE877A534BC3ED007A0E
:10141000514BD3ED007AB0EE007AF4EEC77AF1EEDC
:1014200010FA40F1A9804C4BD3ED007AB7EE007A68
:1014300077EE677AB0EE670A02F0EAF910EE103A3A
:101440001846FFF7A9F832A3D3E90023FFF7FCF809
:1014500002460B4610461946FFF7EEFB03463F4A8D
:1014600013603D4BD3ED007AB0EE007A37EE677A29
:10147000394BD3ED007AC7EE276A20216420B0EE05
:10148000660A02F0C7F80346354A136064230093E6
:101490000123344A3249344804F088FE314B18683D
:1014A000202301220A2102F03BF9F0EE407A2F4B73
:1014B000C3ED007A254B1B6807EE903AB8EE677AC9
:1014C0002B4BD3ED007A27EE277A284BD3ED007A09
:1014D00067EE277A17EE900AFFF75EF80EA3D3E9BE
:1014E0000023FFF7B1F802460B4610461946FFF7F6
:1014F0005BFB03461A461F4B1A601E4B1B68B3F575
:101500007A6F73D91B4B4FF47A621A606EE000BF9A
:101510003A950BDB2F94A53E3956A30304067C3F76
:10152000980B00200014004840090020C407002048
:10153000F40800209D0B00207C0A002044000020BD
:101540004C00002050000020040000204800002033
:101550005400002058000020280000201000002027
:10156000640000205C000020B40600206000002021
:1015700040000020780A00209F4BD3ED007AB0EEA7
:10158000007AF4EEC77AF1EE10FA2FDB9A4BD3ED26
:10159000007AB7EE007A77EEC77AF7EE006A86EE49
:1015A000A77AB0EE470A02F033F910EE103A184667
:1015B000FEF7F2FF02460B4689A1D1E90001FEF7D2
:1015C0008BFE02460B461046194687A3D3E900233B
:1015D000FFF73AF802460B4610461946FFF72CFB78
:1015E0000346864A1360864B00221A60834B1B68B1
:1015F0001846FEF7D1FF7EA3D3E90023FFF796FA42
:101600000346002B3ED07D4B93ED007AF7EE006A47
:10161000C6EE877AFDEEE77A17EE902A794B1A60CC
:10162000784B1B68784A934202DD764B764A1A6003
:10163000764B93ED007A734B1B6807EE903AF8EE09
:10164000E77A77EE677AFDEEE77A17EE903A002BAD
:10165000B8BF5B4244F61F62934213DD6C4B1B78AC
:10166000002B06D1674B1B681A460021694801F020
:101670004FFA644B1B6807EE903AF8EEE77A634B3B
:10168000C3ED007A644B1B68002B63DD634B1B6862
:1016900007EE903AF8EE677A9FED617A27EE877A47
:1016A0005D4B1B6807EE903AF8EEE76AB7EE006A0A
:1016B000C6EE267A67EE277A5A4BC3ED007A594B6D
:1016C00093ED007AF7EE006AC6EE877AFDEEE77AD0
:1016D00017EE902A544B1A60534B1B684A4A9342A8
:1016E00002DD514B484A1A60504B93ED007A4E4B45
:1016F0001B6807EE903AF8EEE77A77EE677AFDEE30
:10170000E77A17EE903A002BB8BF5B42484A934203
:1017100020DD484B9B681A46474B1A60424B1B68BA
:101720001A460421454801F0F3F9424B9B681A46DA
:10173000434B1A60404B1A68414B1B68D31A414A0D
:101740001360394B1B6807EE903AF8EEE77A374B97
:10175000C3ED007A2E4B1B78002B0CD13A4B1B6843
:101760003A4A11689FED3A0A3A4A184601F0CAFB14
:101770000346354A1360344B1B68002B1CDD274B96
:101780001B681C46304B1968334B1B68334A126880
:101790003348D0ED007A334890ED007A01920093FF
:1017A0009FED2B1AF0EE470AB0EE670A0B46224671
:1017B0002D49194801F0F8FB174B1B682B4A1360A1
:1017C0002B4B1B68002B07D101222021294805F053
:1017D000B3FD274B01221A60274B00221A70E8E064
:1017E000182D4454FB2109403A950BDB2F94A53E5C
:1017F000FCA9F1D24D62503F2800002010000020CB
:10180000780A002018000020002D3101200000205F
:10181000980A0020C4070020700A00204800002019
:10182000CF2E9731140000201C000020240000203F
:101830009F86010010E000E0BC0B0020F4080020AF
:10184000C00B0020C40B00200C0000200000002072
:1018500017B751380071020034000020840B0020BB
:101860002C00002030000020880B0020740A00208B
:10187000980B0020000800489D0B0020002220212A
:101880004D4805F059FD4D4808F02EFC00228021FE
:101890004B4805F051FD00224FF48071494805F096
:1018A0004BFD00220121484805F046FD0022402161
:1018B000414805F041FD00220221424805F03CFD6F
:1018C00000224FF40071414805F036FD012220212D
:1018D0003C4805F031FD3E4808F01EFB3D4B002220
:1018E0001A603D4B00221A703C4B04221A7061E0D2
:1018F00000222021304805F01FFD01220421334839
:1019000005F01AFD2D4808F0EFFB354B00221A7048
:10191000304B00221A60334B01221A60324B0122F5
:101920001A60324B01221A80314B01221A60314B6E
:1019300001221A60304B4FF07E521A602F4B4FF04D
:101940007E521A602E4B4FF07E521A602D4B0122B0
:101950001A602D4B01221A602C4B01221A602C4B6D
:1019600001221A602B4B01221A602B4B01221A60B4
:101970002A4B01221A602A4B01221A60294B0122AC
:101980001A60294B01221A60284B01221A60042197
:10199000274808F041FD0021264808F03DFD0F4B87
:1019A00001221A7006E000BFFFF78FBB00BFFFF7F0
:1019B0008CBB00BFFFF789BB00080048400900202E
:1019C0000004004800100048000C004800140048C3
:1019D000A8080020980B0020900B0020930B0020FB
:1019E000980A0020700A0020740A0020A40A00202F
:1019F000080000200C00002010000020140000202F
:101A000028000020880B00208C0B002044000020C0
:101A10007C0A002048000020040000204C00002028
:101A2000500000205400002058000020780A0020B8
:101A3000F4080020C407002080B594B000AF07F17F
:101A4000180338220021184610F03DFA3B1D0022F1
:101A50001A605A609A60DA601A614FF4007007F0F9
:101A6000D3F92223BB614FF480737B624023BB62B6
:101A700001233B6302237B630223BB630423FB63D9
:101A80004B233B6402237B640223BB640223FB647D
:101A900007F11803184607F06BFA0346002B01D034
:101AA00001F0FEFF0F237B600323BB600023FB607C
:101AB00000233B6100237B613B1D0421184607F096
:101AC00069FD0346002B01D001F0EAFF00BF50374B
:101AD000BD4680BD80B58CB000AF07F12403002265
:101AE0001A605A609A603B1D20220021184610F0AF
:101AF000EAF9324B4FF0A0421A60304B4FF44032BB
:101B00005A602E4B00229A602C4B0022DA602B4B3D
:101B100000221A61294B00225A61284B04229A6143
:101B2000264B00221A77254B00225A77234B01229D
:101B30001A62224B002283F82420204B0022DA6212
:101B40001E4B00221A631D4B002283F838201B4BCA
:101B50000022DA63194B002283F84020174803F073
:101B60008DF80346002B01D001F09AFF00237B6221
:101B700007F124031946114804F0A2F90346002B8B
:101B800001D001F08DFF0E4B7B600623BB60072365
:101B9000FB607F233B6104237B610023BB613B1D12
:101BA0001946064803F00EFB0346002B01D001F056
:101BB00077FF00BF3037BD4680BD00BFE403002083
:101BC000000084CB80B58CB000AF07F12403002265
:101BD0001A605A609A603B1D20220021184610F0BE
:101BE00072F9574B574A1A60554B4FF4A0125A607E
:101BF000534B00229A60524B0022DA60504B002275
:101C00001A614F4B01225A614D4B04229A614C4B91
:101C100000221A774A4B01225A77494B05221A6251
:101C2000474B002283F82420454B0022DA62444BC4
:101C300000221A63424B012283F83820404B4FF4B4
:101C40008052DA633E4B002283F840203C4803F088
:101C500015F80346002B01D001F022FF00237B6220
:101C600007F124031946364804F02AF90346002BED
:101C700001D001F015FF344B7B600623BB600023CD
:101C8000FB607F233B6100237B612623BB614FF018
:101C90008073FB61002387F820303B1D19462848DC
:101CA00003F090FA0346002B01D001F0F9FE274B18
:101CB0007B600C23BB6001237B612523BB613B1D43
:101CC00019461F4803F07EFA0346002B01D001F0AD
:101CD000E7FE1F4B7B601223BB6002237B6108235E
:101CE000BB613B1D1946164803F06CFA0346002BF6
:101CF00001D001F0D5FE174B7B601823BB60042395
:101D00007B610023BB613B1D19460D4803F05AFA65
:101D10000346002B01D001F0C3FE0F4B7B604FF454
:101D20008073BB603B1D1946054803F04BFA034620
:101D3000002B01D001F0B4FE00BF3037BD4680BD9E
:101D40005004002000040050020030040400600829
:101D50000800900C1000C0102000F01480B588B06E
:101D600000AF3B4620220021184610F0ACF82B4B68
:101D70002B4A1A60294B4FF4A0125A60274B0022BD
:101D80009A60264B0022DA60244B00221A61234B12
:101D900000225A61214B04229A61204B00221A77BB
:101DA0001E4B01225A771D4B01221A621B4B002247
:101DB00083F82420194B0022DA62184B00221A63A0
:101DC000164B012283F83820144B4FF48052DA630B
:101DD000124B002283F84020104802F04FFF0346C8
:101DE000002B01D001F05CFE0E4B3B6006237B60B4
:101DF0000723BB607F23FB6004233B6100237B61DF
:101E00003B461946054803F0DDF90346002B01D097
:101E100001F046FE00BF2037BD4680BDBC04002057
:101E2000000500500200300480B588B000AF3B468A
:101E300020220021184610F046F8314B314A1A6032
:101E40002F4B4FF4A0125A602D4B00229A602C4B5E
:101E50000022DA602A4B00221A61294B00225A61C3
:101E6000274B04229A61264B00221A77244B012229
:101E70005A77234B01221A62214B002283F8242037
:101E80001F4B0022DA621E4B00221A631C4B0122F8
:101E900083F838201A4B0022DA63194B012283F8A9
:101EA0004020174B1C225A64154B4FF480729A64E1
:101EB000134B0022DA64124B01221A65104802F01B
:101EC000DDFE0346002B01D001F0EAFD0E4B3B6026
:101ED00006237B600023BB607F23FB6004233B6100
:101EE00000237B613B461946054803F06BF9034626
:101EF000002B01D001F0D4FD00BF2037BD4680BDCE
:101F000028050020000600500200300480B500AF14
:101F1000064B074A1A60054804F0DAF80346002B1E
:101F200001D001F0BDFD00BF80BD00BFB4060020A0
:101F3000000C024080B58CB000AF3B46302200213F
:101F400018460FF0C0FF1E4B1E4A1A601C4804F0D2
:101F500008FB0346002B01D001F0A2FD02233B60E9
:101F600000233B7100237B710023BB600023FB60D7
:101F700000233B6100237B610123BB610023FB61E4
:101F80003B46002219460E4804F008FC0346002B8D
:101F900001D001F085FD3B4610221946084804F0A7
:101FA000FDFB0346002B01D001F07AFD044B064AED
:101FB0009A60054B024A9A6200BF3037BD4680BD29
:101FC000DC060020000800500407002080B58CB01B
:101FD00000AF3B463022002118460FF074FF164B2D
:101FE000164A1A60144804F0BCFA0346002B01D0CC
:101FF00001F056FD02233B6000233B7100237B71FF
:102000000023BB600023FB6000233B6100237B6156
:102010000123BB610023FB613B46002219460648B1
:1020200004F0BCFB0346002B01D001F039FD00BFDA
:102030003037BD4680BD00BFF0060020000C0050C8
:1020400080B598B000AF07F1540300221A605A60BF
:102050009A6007F1380300221A605A609A60DA60C9
:102060001A615A619A613B1D3422002118460FF013
:102070002AFF3E4B3E4A1A603C4B00225A603B4BC3
:1020800000229A60394BD222DA60384B00221A6162
:10209000364B00225A61354B00229A61334808F0D2
:1020A00052F80346002B01D001F0FAFC00237B65B7
:1020B0000023BB650023FB6507F1540319462B4839
:1020C00009F088FA0346002B01D001F0E9FC6023F7
:1020D000BB630023FB6300233B6400237B6400237A
:1020E000BB640023FB6400233B6507F13803002237
:1020F00019461E4808F07CFB0346002B01D001F076
:10210000CFFC1A4B1B689A69184B1B6822F0080217
:102110009A6100237B600023BB600023FB600023E7
:102120003B6100237B614FF40053BB610023FB61E3
:1021300000233B6200237B624FF00073BB620023ED
:10214000FB6200233B6300237B633B1D194607486A
:1021500009F0D6FA0346002B01D001F0A1FC034898
:1021600002F046F800BF6037BD4680BDC4070020BE
:10217000002C014080B58EB000AF07F1280300228B
:102180001A605A609A60DA6007F11C0300221A6034
:102190005A609A603B4600221A605A609A60DA6080
:1021A0001A615A619A612D4B2D4A1A602B4B0022FD
:1021B0005A602A4B00229A60284B40F2A722DA602C
:1021C000264B00221A61254B00229A61234807F012
:1021D0004BFE0346002B01D001F062FC4FF480530C
:1021E000BB6207F1280319461C4808F015FC03469A
:1021F000002B01D001F054FC184807F0A4FF03465F
:10220000002B01D001F04CFC0023FB6100237B621A
:1022100007F11C031946114809F0DCF90346002BAD
:1022200001D001F03DFC60233B6000237B60002374
:10223000BB6000233B613B4600221946074808F07B
:10224000D7FA0346002B01D001F02AFC034801F025
:10225000CFFF00BF3837BD4680BD00BF100800204B
:102260000008004080B584B000AF3B1D00221A601A
:102270005A609A60194B1A4A1A60184B42F61D525E
:102280005A60164B00229A60144B4FF6A652DA6041
:10229000124B00229A61114807F0E6FD0346002B1D
:1022A00001D001F0FDFB00237B600023FB603B1DA0
:1022B00019460A4809F08EF90346002B01D001F0B7
:1022C000EFFB00220021362004F017F9362004F03D
:1022D0002EF900BF1037BD4680BD00BF5C0800204E
:1022E0000010004080B584B000AF3B1D00221A6092
:1022F0005A609A60144B154A1A60134B43F69722A2
:102300005A60114B00229A600F4B0922DA600E4B83
:1023100000229A610C4807F0A7FD0346002B01D06C
:1023200001F0BEFB00237B600023FB603B1D1946D0
:10233000054809F04FF90346002B01D001F0B0FB2E
:1023400000BF1037BD4680BDA80800200014004023
:1023500080B598B000AF07F1540300221A605A60AC
:102360009A6007F1380300221A605A609A60DA60B6
:102370001A615A619A613B1D3422002118460FF000
:10238000A2FD3E4B3E4A1A603C4B00225A603B4B3A
:1023900000229A60394BD222DA60384B00221A614F
:1023A000364B00225A61354B00229A61334807F0C0
:1023B000CAFE0346002B01D001F072FB00237B65AF
:1023C0000023BB650023FB6507F1540319462B4826
:1023D00009F000F90346002B01D001F061FB6023F6
:1023E000BB630023FB6300233B6400237B64002367
:1023F000BB640023FB6400233B6507F13803042220
:1024000019461E4808F0F4F90346002B01D001F0EC
:1024100047FB1A4B1B689A69184B1B6822F4006231
:102420009A6100237B600023BB600023FB600023D4
:102430003B6100237B614FF40053BB610023FB61D0
:1024400000233B6200237B624FF00073BB620023DA
:10245000FB6200233B6300237B633B1D1946074857
:1024600009F04EF90346002B01D001F019FB034897
:1024700001F0BEFE00BF6037BD4680BDF4080020FD
:102480000034014080B588B000AF07F1100300228E
:102490001A605A609A60DA603B1D00221A605A6026
:1024A0009A601F4B1F4A1A601D4B40F2DB525A6064
:1024B0001B4B00229A601A4B0422DA60184B002250
:1024C0001A61174B00225A61154B00229A61144879
:1024D00007F0CAFC0346002B01D001F0E1FA4FF4EB
:1024E00080533B6107F1100319460D4808F094FA38
:1024F0000346002B01D001F0D3FA00237B600023B8
:10250000FB603B1D1946064809F064F80346002BA2
:1025100001D001F0C5FA00BF2037BD4680BD00BF25
:10252000400900200040014080B500AF0F4B104A29
:102530001A600E4B43F697225A600C4B00229A60A9
:102540000A4B0922DA60094B00221A61074B00226C
:102550005A61064B00229A61044807F085FC034645
:10256000002B01D001F09CFA00BF80BD8C09002037
:102570000044014080B500AF224B234A1A60214B32
:102580004FF4E1325A601F4B00229A601D4B00222B
:10259000DA601C4B00221A611A4B0C225A61194B4B
:1025A00000229A61174B0022DA61164B00221A6250
:1025B000144B00225A62134B00229A62114809F010
:1025C00079F90346002B01D001F06AFA00210D4889
:1025D00009F014FF0346002B01D001F061FA00213D
:1025E000084809F049FF0346002B01D001F058FAD2
:1025F000044809F0CAFE0346002B01D001F050FA4E
:1026000000BF80BDD8090020004C004080B582B0DA
:1026100000AF224B9B6C214A43F0040393641F4B91
:102620009B6C03F004037B607B681C4B9B6C1B4A18
:1026300043F001039364194B9B6C03F001033B606F
:102640003B68002200210B2003F057FF0B2003F012
:102650006EFF002200210C2003F04FFF0C2003F03E
:1026600066FF002200210D2003F047FF0D2003F03C
:102670005EFF002200210E2003F03FFF0E2003F03A
:1026800056FF002200210F2003F037FF0F2003F038
:102690004EFF00BF0837BD4680BD00BF001002409E
:1026A00080B58CB000AF07F11C0300221A605A609D
:1026B0009A60DA601A619A4BDB6C994A43F0100316
:1026C000D364974BDB6C03F01003BB61BB69944B85
:1026D000DB6C934A43F00403D364914BDB6C03F04F
:1026E00004037B617B698E4BDB6C8D4A43F02003D6
:1026F000D3648B4BDB6C03F020033B613B69884B5D
:10270000DB6C874A43F00103D364854BDB6C03F039
:102710000103FB60FB68824BDB6C814A43F00203E0
:10272000D3647F4BDB6C03F00203BB60BB687C4B64
:10273000DB6C7B4A43F00803D364794BDB6C03F01A
:1027400008037B607B6800222021764804F0F4FDBA
:1027500001224FF40071744804F0EEFD00220421C0
:10276000714804F0E9FD00222021704804F0E4FDE6
:1027700001224FF481716B4804F0DEFD01224021FB
:102780006A4804F0D9FD01220121694804F0D4FD12
:1027900001228021674804F0CFFD40F61503FB615C
:1027A00000233B6200237B6207F11C0319465D484E
:1027B00004F028FC2023FB6101233B6200237B62A1
:1027C0000023BB6207F11C031946564804F01AFCAB
:1027D0004FF40073FB6111233B6200237B620023F3
:1027E000BB6207F11C0319464F4804F00BFC4FF481
:1027F0008063FB6100233B6200237B6207F11C03C3
:102800001946494804F0FEFB4FF40173FB610023B5
:102810003B6200237B6207F11C031946434804F026
:10282000F1FB0423FB6101233B6200237B62002355
:10283000BB6207F11C0319463B4804F0E3FB20236D
:10284000FB6101233B6200237B620023BB6207F133
:102850001C031946354804F0D5FB0123FB61002316
:102860003B6200237B6207F11C031946314804F0E8
:10287000C9FB4FF48173FB6111233B6200237B6230
:102880000023BB6207F11C031946264804F0BAFB7B
:102890004023FB6111233B6200237B620023BB6268
:1028A00007F11C031946214804F0ACFB4FF4806388
:1028B000FB6100233B6200237B6207F11C03194686
:1028C0004FF0904004F09EFB0123FB6111233B621B
:1028D00000237B620023BB6207F11C0319461448E6
:1028E00004F090FB7023FB6100233B6200237B62BA
:1028F00007F11C0319460E4804F084FB8023FB619A
:1029000011233B6200237B620023BB6207F11C039F
:102910001946084804F076FB00BF3037BD4680BD3D
:102920000010024000100048001400480008004851
:10293000000C00480004004880B483B000AF034698
:102940000A46FB711346BB71FB79042B39D801A2EF
:1029500052F823F069290008772900088529000822
:10296000A1290008AF290008BB79002B2BD1012336
:10297000FB71012331E0BB79002B26D10223FB71CF
:1029800002232AE0BB79012B03D10323FB7103232C
:1029900023E0BB79032B1AD10423FB7104231CE031
:1029A000BB79022B15D10123FB71012315E0BB7903
:1029B000002B10D10C4B00221A600223FB71022362
:1029C0000BE000BF08E000BF06E000BF04E000BF6E
:1029D00002E000BF00E000BFFB7918460C37BD469F
:1029E0005DF8047B704700BF980B002080B485B071
:1029F00000AF78607B68642B01D964237B600B4B4C
:102A0000DB6801337A6802FB03F3094AA2FB032364
:102A10005B09013BFB60054B1B68FA685A6300BF0A
:102A20001437BD465DF8047B704700BF10080020D6
:102A30001F85EB510000000080B584B000AF7860C6
:102A40007B681B682C4A93424ED12C4B1B78002B81
:102A50004AD00023FB600023BB600BE0284ABB6820
:102A600032F813309BB21A46FB681344FB60BB6814
:102A70000133BB60BB68092BF0DDFB68214AA2FB78
:102A80000323DB0840F6E44202FB03F31B0B9AB27C
:102A90001D4B1A801C4B1B88A3F2AA531846FDF746
:102AA00069FD13A3D3E90023FDF7CEFD02460B46D3
:102AB00010461946FEF778F803461AB2134B1A80EF
:102AC000124BB3F9003013F57A7F03DA0F4B4FF650
:102AD00018421A800D4BB3F90030B3F57A7F03DD4D
:102AE0000A4B4FF47A721A8000BF1037BD4680BD82
:102AF000FA7E6ABC7493D83F000600509D0B0020FC
:102B0000A80A0020CDCCCCCCBC0A0020A40A00200E
:102B100080B489B000AFF860B9607A60334BBB61B4
:102B2000FB685B6801337B617B697A6802FB03F3B6
:102B3000BA69B2FBF3F3013BFB61FB69B3F5803F7C
:102B400014D3FB691B0C7A6902FB03F301337B612D
:102B50007B697A6802FB03F3BA69B2FBF3F3013BCA
:102B6000FB61FB681B687A69013A9A62FB681B6823
:102B7000FA69DA62FB68FA69DA60FB695B083B6153
:102B8000BB68002B04D1FB681B683A695A6323E0D9
:102B9000BB68042B04D1FB681A683B6993631BE094
:102BA000BB68082B04D1FB681A683B69D36313E048
:102BB000BB680C2B04D1FB681A683B6913640BE0FB
:102BC000BB68102B04D1FB681A683B69936403E06F
:102BD000FB681A683B69D364FB681B6801225A6171
:102BE00000BF2437BD465DF8047B704780D1F008F4
:102BF00080B500AF0121184804F086FB0346002B86
:102C000026D01021144804F07FFB0346002B1FD070
:102C10000421114804F078FB0346002B18D04FF430
:102C200000610D4804F070FB0346002B10D04021DA
:102C30000A4804F069FB0346002B09D04FF40071E9
:102C4000074804F061FB0346002B01D0002300E09D
:102C50000123184680BD00BF00100048000C00484A
:102C60000008004880B500AF1021114804F04CFB6B
:102C70000346002B19D001210E4804F045FB034602
:102C8000002B12D04FF480610B4804F03DFB03464B
:102C9000002B0AD04FF480614FF0904004F034FBD9
:102CA0000346002B01D0012300E00023184680BD1D
:102CB000000C004800040048001400480000000018
:102CC000B0B582B000AF78607B681B68784A9342E9
:102CD00040F0BE80774B1B78022B40F0B680764BDD
:102CE0009B889BB21846FDF745FC6BA3D3E90023F4
:102CF000FDF7AAFC02460B46104619464FF00002AB
:102D00006E4BFDF7E9FA02460B461046194664A3DE
:102D1000D3E90023FDF798FC02460B4610461946FE
:102D2000FDF742FF03461A46654B1A60654B5B8808
:102D30009BB21846FDF71EFC57A3D3E90023FDF70D
:102D400083FC02460B46104619464FF000025B4BCF
:102D5000FDF7C2FA02460B461046194650A3D3E9C6
:102D60000023FDF771FC02460B4610461946FDF79D
:102D70001BFF0346544A1360544B1B881846FDF74B
:102D8000F9FB04460D46524B1B681846FDF7F2FB53
:102D900045A3D3E90023FDF757FC02460B46204626
:102DA0002946FDF79BFA02460B4610461946FDF7E9
:102DB00023FF034600220021464803F0B7FC464BA0
:102DC0001B881846FDF7D6FB04460D46434B1B688F
:102DD0001846FDF7CFFB34A3D3E90023FDF734FCFD
:102DE00002460B4620462946FDF778FA02460B4676
:102DF00010461946FDF700FF034600221021354812
:102E000003F094FC314B1B881846FDF7B3FB0446D6
:102E10000D46334B1B681846FDF7ACFB4FF0000224
:102E2000304BFDF711FC02460B4620462946FDF7C4
:102E300053FA02460B4610461946FDF7DDFE0346DF
:102E400000220021284803F071FC284B01221A704F
:102E50007B681B68264A934201D100F05DF97B68CC
:102E60001B68244A934210D10221234804F07CFAC3
:102E70004FF40071214804F077FA002220211E4807
:102E800004F05AFA1E4807F02FF900BF0837BD4674
:102E9000B0BD00BFAFF300800F0BB5A679C7E93F07
:102EA0008FC2F5285CCF32409A9999999999993FA8
:102EB00000400140930B0020880A00200000694078
:102EC0007C0A0020940A0020040000206C0A0020E4
:102ED000700A0020DC0600206E0A0020740A002020
:102EE000780A00200000D03FF00600209D0B002053
:102EF000001000400014004000100048001400487A
:102F0000A808002080B485B000AFF860B9607A608E
:102F100087ED000ABA68FB68D31A0A2B15DDFB6837
:102F200007EE903AB8EEE77A7B6807EE903AF8EE53
:102F3000E76AD7ED007A66EEA77A77EE277AFDEE9C
:102F4000E77A17EE903AFB601AE0BA68FB68D31A8A
:102F500013F10A0F14DAFB6807EE903AB8EEE77A3D
:102F60007B6807EE903AF8EEE76AD7ED007A66EEF6
:102F7000A77A77EE677AFDEEE77A17EE903AFB6074
:102F8000BB68323BFA689A4204DBBB68FB60054BC6
:102F900001221A70FB6818461437BD465DF8047BA1
:102FA000704700BF980A002080B489B000AFF86174
:102FB000B9617A613B6187ED030AC7ED020A87EDCB
:102FC000011A3A697B69D31A324A1360BB691B68DC
:102FD000304A1168304A12680A4407EE902AB8EE67
:102FE000E77A97ED036AD7ED027AC6EE276AD7ED46
:102FF000017A66EEA77AF6EE006A67EEA67A67EEC9
:10300000277AFDEEE77A17EE902A1A44BB691A6018
:10301000204B1B68204A1360FB691B681F4A136022
:10302000BB691B68BA6A9A4202DCBB69BA6A1A6059
:10303000BB691B68FA6A9A4202DBBB69FA6A1A60CA
:10304000144B1B6807EE903AB8EEE77AD7ED037A97
:1030500067EE277AFDEEE77A17EE902ABB691B68C8
:103060001A44FB691A60FB691B68BA6A9A4202DC5F
:10307000FB69BA6A1A60FB691B68FA6A9A4202DB4A
:10308000FB69FA6A1A6000BF2437BD465DF8047B0D
:10309000704700BFA00A00208C0B00209C0A002073
:1030A000B0B584B000AF87ED030AC7ED020A87ED23
:1030B000011AC7ED001AB868FDF76EFA12A3D3E93A
:1030C0000023FDF7C1FA02460B4614461D46F86878
:1030D000FDF762FA0EA3D3E90023FDF7B5FA024625
:1030E0000B4620462946FDF7F9F802460B461046E6
:1030F0001946FDF7A1FD034607EE903AB0EE670AC8
:103100001037BD46B0BD00BFCDCCCCCCCCCCEC3F55
:103110009A9999999999B93F80B582B000AF444B7B
:10312000DB889BB21A4640F6E44302FB03F3002B14
:1031300001DA03F6FF731B131A463E4B1A603C4B31
:103140001B899BB21A4640F6E44302FB03F3002BB3
:1031500001DA03F6FF731B131A46374B1A60142368
:103160003B60344B1B68A3F5C873344AA2FB0323AE
:103170001B09304A1360304B1B68A3F5FA732F4AC2
:10318000A2FB0323DB082C4A13602B4B1A68294B44
:103190001B68934238BF13463B603B68642202FBC6
:1031A00003F3A3F5FA63254AA2FB03239B097B6083
:1031B0007B68642B01D964237B607868FDF7CAF9CA
:1031C00002460B469FED161B43EC102B12F054FEEB
:1031D00051EC100B14A3D3E90023FDF735FA024696
:1031E0000B4610461946FDF7DFFC0346144A82FBE6
:1031F00003129214DB17D31A1433124A13603B687C
:10320000132B03D80F4B14221A6005E03B68642B84
:1032100002D90C4B63221A6000BF0837BD4680BD3F
:1032200000000000000008400000000000C0534003
:10323000880A0020800A0020840A0020CDCCCCCC53
:1032400083DE1B433C00002080B584B000AF786073
:103250007868FDF735F80346FB81FB897F2B01D9A0
:103260007F23FB81FB891A4679680B480EF0BDFE6F
:10327000FB89094A0021D154FB89194678680DF071
:1032800019FA03467B737B7B012BF5D000BF00BF8F
:103290001037BD4680BD00BF000B002080B500AFD9
:1032A000A74B1B78DBB2002B00F047810622A54913
:1032B000A5480EF010FE0346002B08D1A34AA449EE
:1032C000A1480EF091FDA348FFF7BEFF2DE10622B5
:1032D000A1499D480EF0FFFD0346002B08D19F4AEF
:1032E0009F4999480EF080FD9E48FFF7ADFF1CE115
:1032F00008229D4994480EF0EEFD0346002B08D1AC
:103300009A4A9B4990480EF06FFD9A48FFF79CFF40
:103310000BE10C2298498C480EF0DDFD0346002B92
:1033200008D1964A964988480EF05EFD9548FFF709
:103330008BFFFAE00C22944983480EF0CCFD034643
:10334000002B08D1914A92497F480EF04DFD9148DB
:10335000FFF77AFFE9E00D228F497B480EF0BBFDB5
:103360000346002B08D18D4A8D4977480EF03CFD6D
:103370008C48FFF769FFD8E00C228B4972480EF0A9
:10338000AAFD0346002B08D1884A89496E480EF0F1
:103390002BFD8848FFF758FFC7E00C2286496A4892
:1033A0000EF099FD0346002B08D1844A84496648F3
:1033B0000EF01AFD8348FFF747FFB6E00622824968
:1033C00061480EF088FD0346002B0ED15F4B1B6851
:1033D0001846FDF7E1F802460B467C497C480EF0A2
:1033E000E3FC7B48FFF730FF9FE00622794956480F
:1033F0000EF071FD0346002B0ED1584B1B6818468A
:10340000FDF7CAF802460B46734971480EF0CCFC32
:103410006F48FFF719FF88E0082270494A480EF00C
:103420005AFD0346002B0AD1504B1B681A466C49C3
:1034300067480EF0B9FC6648FFF706FF75E00C22FE
:10344000684941480EF047FD0346002B0AD14B4B1B
:103450001B881A4664495E480EF0A6FC5C48FFF7DC
:10346000F3FE62E00C22614937480EF034FD03465A
:10347000002B0AD1454B1B881A465D4954480EF073
:1034800093FC5348FFF7E0FE4FE00D2259492E48C8
:103490000EF021FD0346002B0BD1404BB3F9003059
:1034A0001A4655494A480EF07FFC4948FFF7CCFEC2
:1034B0003BE00C22514924480EF00DFD0346002B41
:1034C0000ED13A4B1B681846FDF766F802460B46CC
:1034D0004B493F480EF068FC3D48FFF7B5FE24E03D
:1034E0000C22484918480EF0F6FC0346002B0ED17A
:1034F000324B1B681846FDF74FF802460B4642490F
:1035000033480EF051FC3248FFF79EFE0DE00B22CF
:103510003E490D480EF0DFFC0346002B02D100F0BF
:10352000C3F902E03A48FFF78FFE40220021064827
:103530000EF0C9FC024B00221A7000BF80BD00BF14
:10354000800B0020906D0108C00A00202C00002094
:10355000986D0108A46D0108B06D010830000020CD
:10356000B86D0108C46D0108D06D0108000000208D
:10357000DC6D0108EC6D0108FC6D01086C0A00208F
:103580000C6E01081C6E01083C6E01086E0A0020DA
:103590004C6E01085C6E01087C6E0108A40A0020D4
:1035A0008C6E0108A06E0108B46E010810000020A6
:1035B000C46E0108D46E0108E86E010814000020F2
:1035C000F86E0108086F01081C6F0108246F0108DC
:1035D000000B0020306F0108386F0108446F0108AC
:1035E000506F01085C6F01086C6F0108886F01085B
:1035F000986F0108B46F0108C46F0108D46F010807
:10360000E46F0108F46F01080470010814700108E8
:103610002070010880B487B000AF87ED030AB8605E
:103620000B46FB71FB79202B35D1D7ED037AB7EE32
:10363000007AF4EEC77AF1EE10FA11D8BB6807EE03
:10364000903AB8EEE77AD7ED037A67EE277A9FEDE6
:10365000327A67EE877AFCEEE77A17EE903A7B6172
:10366000D7ED037AB7EE007AF4EEC77AF1EE10FAEE
:1036700011DDBB6807EE903AB8EEE77AD7ED036A42
:10368000C6EE877A9FED247A67EE877AFCEEE77ABA
:1036900017EE903A7B61FB79102B35D1D7ED037A89
:1036A000B7EE007AF4EEC77AF1EE10FA11D8BB68E3
:1036B00007EE903AB8EEE77AD7ED037A67EE277A0D
:1036C0009FED167A67EE877AFCEEE77A17EE903A6E
:1036D0007B61D7ED037AB7EE007AF4EEC77AF1EEAC
:1036E00010FA11DDBB6807EE903AB8EEE77AD7ED35
:1036F000036AC6EE877A9FED097A67EE877AFCEE59
:10370000E77A17EE903A7B617B6918461C37BD4615
:103710005DF8047B704700BF0000004F00FEFF46CD
:1037200080B487B000AFF860B96011461A460B4606
:10373000FB711346BB71BB79202B2BD197F9073056
:10374000002B11D0FB6807EE903AF8EEE77A9FED78
:103750002E7AC7EE876ABB6807EE903AB8EEE77A32
:10376000C6EE877AC7ED057A97F90730002B11D19D
:10377000FB6807EE903AF8EEE77ADFED236A87EE12
:10378000A67ABB6807EE903AF8EEE77A67EE277AFA
:10379000C7ED057ABB79102B2BD197F90730002B99
:1037A00011D0FB6807EE903AF8EEE77A9FED177AB2
:1037B000C7EE876ABB6807EE903AB8EEE77AC6EEC6
:1037C000877AC7ED057A97F90730002B11D1FB688E
:1037D00007EE903AF8EEE77ADFED0C6A87EEA67A0C
:1037E000BB6807EE903AF8EEE77A67EE277AC7ED06
:1037F000057A7B6907EE903AB0EE670A1C37BD4642
:103800005DF8047B704700BF0000004F00FEFF46DC
:1038100080B584B000AF87ED010AD7ED017ABFEE25
:10382000007AF4EEC77AF1EE10FA02D51A4B7B60FB
:103830000BE0D7ED017AB7EE007AF4EEC77AF1EE3D
:1038400010FA02DD4FF07E537B60B7EE007AD7EDC1
:10385000017A77EE677AB0EE670A12F07DFB87EDAA
:10386000030AD7ED017A9FED0D7A67EE877A9FED17
:103870000C7A37EEC77AD7ED017A67EE277A9FED9B
:10388000097A37EE877AD7ED037A67EE277AB0EEBA
:10389000670A1037BD4680BD000080BF9E3AB63D26
:1038A000CABF5B3EDA0FC93F80B5A0B000AF5E4B28
:1038B0001B681846FCF770FE02460B4638465B490B
:1038C0000EF072FA3B461846FFF7BEFC584B1B68D9
:1038D0001846FCF761FE02460B46384655490EF085
:1038E00063FA3B461846FFF7AFFC534B1A683B465A
:1038F000524918460EF058FA3B461846FFF7A4FC0A
:103900004F4B1A683B464F4918460EF04DFA3B465E
:103910001846FFF799FC4C4B1A683B464B49184632
:103920000EF042FA3B461846FFF78EFC484B1A68E9
:103930003B46484918460EF037FA3B461846FFF713
:1039400083FC454B1A683B46444918460EF02CFA56
:103950003B461846FFF778FC414B1A683B46414905
:1039600018460EF021FA3B461846FFF76DFC3E4B19
:103970001A683B463D4918460EF016FA3B46184673
:10398000FFF762FC3A4B1A683B463A4918460EF07C
:103990000BFA3B461846FFF757FC374B1B881A4675
:1039A0003B46364918460EF0FFF93B461846FFF7EE
:1039B0004BFC334B1B881A463B46324918460EF0E7
:1039C000F3F93B461846FFF73FFC2F4BB3F90030A5
:1039D0001A463B462D4918460EF0E6F93B46184676
:1039E000FFF732FC2A4B1B681846FCF7D5FD024650
:1039F0000B46384627490EF0D7F93B461846FFF7E5
:103A000023FC254B1B681846FCF7C6FD02460B46F7
:103A1000384622490EF0C8F93B461846FFF714FC19
:103A200000BF8037BD4680BD2C000020246F0108F8
:103A300030000020386F010800000020506F01089E
:103A4000700A002034700108740A002040700108D8
:103A5000780A00204C7001087C0A00205870010888
:103A6000040000206C700108800A002084700108A6
:103A7000840A0020947001086C0A00206C6F010811
:103A80006E0A0020986F0108A40A0020C46F010884
:103A900010000020E46F01081400002004700108E9
:103AA00080B400AF72B600BF00BFFDE780B582B042
:103AB00000AF0F4B1B6E0E4A43F0010313660C4B15
:103AC0001B6E03F001037B607B68094B9B6D084A0A
:103AD00043F080539365064B9B6D03F080533B602E
:103AE0003B6805F035FA00BF0837BD4680BD00BF12
:103AF0000010024080B5A4B000AF786007F17C03ED
:103B000000221A605A609A60DA601A6107F128038D
:103B10005422002118460EF0D6F97B681B68B3F1D9
:103B2000A04F1CD14FF40043BB624FF00053FB6623
:103B300007F12803184605F049FF0346002B01D082
:103B4000FFF7AEFF864BDB6C854A43F40053D3642A
:103B5000834BDB6C03F400537B627B6A85E17B68FB
:103B60001B68804A934240F087804FF48033BB62E9
:103B70004FF080433B6707F12803184605F026FF06
:103B80000346002B01D0FFF78BFF774B1B680133F7
:103B9000754A1360744B1B68012B0BD1704BDB6CA7
:103BA0006F4A43F48043D3646D4BDB6C03F4804372
:103BB0003B623B6A6A4BDB6C694A43F00203D364A5
:103BC000674BDB6C03F00203FB61FB69644BDB6C4E
:103BD000634A43F01003D364614BDB6C03F01003C2
:103BE000BB61BB6942F20203FB670323C7F8803065
:103BF0000023C7F8843007F17C0319465B4803F0C3
:103C000001FA4FF40A53FB670323C7F880300023FF
:103C1000C7F8843007F17C031946554803F0F2F9E0
:103C2000544B554A1A60534B25225A60514B00227F
:103C30009A60504B0022DA604E4B80221A614D4B45
:103C40004FF480725A614B4B4FF480629A61494B3A
:103C50002022DA61474B00221A62464802F060FFD8
:103C60000346002B01D0FFF71BFF7B68414A5A65D2
:103C7000404A7B689362F8E07B681B683F4A934246
:103C800040F082804FF48033BB624FF080433B674B
:103C900007F12803184605F099FE0346002B01D0D2
:103CA000FFF7FEFE304B1B6801332F4A13602E4B8B
:103CB0001B68012B0BD12A4BDB6C294A43F4804350
:103CC000D364274BDB6C03F480437B617B69244B1B
:103CD000DB6C234A43F01003D364214BDB6C03F00D
:103CE00010033B613B694FF48043FB670323C7F834
:103CF00080300023C7F8843007F17C0319461C4844
:103D000003F080F91E4B1F4A1A601D4B26225A6091
:103D10001B4B00229A601A4B0022DA60184B80225B
:103D20001A61174B4FF480725A61154B4FF4806241
:103D30009A61134B2022DA61114B4FF440521A6200
:103D40000F4802F0EDFE0346002B01D0FFF7A8FE5E
:103D50007B680B4A5A650A4A7B68936285E000BF1C
:103D60000010024000040050C80B0020000400486E
:103D70000010004894050020080002400005005093
:103D8000F40500201C0002407B681B68394A9342FE
:103D90006BD14FF48033BB624FF080433B6707F138
:103DA0002803184605F012FE0346002B01D0FFF74A
:103DB00077FE314B1B6801332F4A13602E4B1B6873
:103DC000012B0BD12D4BDB6C2C4A43F48043D36485
:103DD0002A4BDB6C03F48043FB60FB68274BDB6CF6
:103DE000264A43F00103D364244BDB6C03F0010348
:103DF000BB60BB684FF48073FB670323C7F8803058
:103E00000023C7F8843007F17C0319464FF0904037
:103E100003F0F8F81A4B1B4A1A60194B27225A6014
:103E2000174B00229A60164B0022DA60144B802256
:103E30001A61134B4FF480725A61114B4FF4806238
:103E40009A610F4B2022DA610D4B00221A620C4856
:103E500002F066FE0346002B01D0FFF721FE7B68CF
:103E6000074A5A65064A7B68936200BF9037BD4691
:103E700080BD00BF00060050C80B002000100240AB
:103E8000540600203000024080B485B000AF786056
:103E90007B681B680A4A93420BD10A4B9B6C094A08
:103EA00043F008039364074B9B6C03F00803FB602B
:103EB000FB6800BF1437BD465DF8047B704700BF48
:103EC000000C02400010024080B58CB000AF78605A
:103ED00007F11C0300221A605A609A60DA601A61C6
:103EE0007B681B685B4A934259D15B4BDB6C5A4A37
:103EF00043F48033D364584BDB6C03F48033BB61F1
:103F0000BB69554BDB6C544A43F00103D364524BFD
:103F1000DB6C03F001037B617B693023FB610323CE
:103F20003B6200237B6207F11C0319464FF090406F
:103F300003F068F8494B4A4A1A60484B06225A6017
:103F4000464B10229A60454B0022DA60434B802298
:103F50001A61424B4FF400725A61404B4FF40062B9
:103F60009A613E4B2022DA613C4B4FF400521A62B8
:103F70003A4802F0D5FD0346002B01D0FFF790FD33
:103F80007B68364A9A60354A7B689362002200213A
:103F9000362002F0B2FA362002F0C9FA55E07B680A
:103FA0001B68304A934250D12B4BDB6C2A4A43F4B6
:103FB0000033D364284BDB6C03F400333B613B6973
:103FC000254BDB6C244A43F00103D364224BDB6CAA
:103FD00003F00103FB60FB684023FB6103233B62AA
:103FE00000237B6207F11C0319464FF0904003F059
:103FF00009F81D4B1D4A1A601B4B29225A601A4BA7
:1040000010229A60184B0022DA60174B80221A6146
:10401000154B4FF400725A61134B4FF400629A61D2
:10402000114B2022DA61104B4FF400521A620E48F5
:1040300002F076FD0346002B01D0FFF731FD7B68CF
:10404000094A9A60084A7B68936200BF3037BD46D0
:1040500080BD00BF0008005000100240040700208F
:1040600044000240000C0050640700205800024049
:1040700080B584B000AF78607B681B681A4A9342B1
:1040800014D11A4B1B6E194A43F400631366174B85
:104090001B6E03F40063FB60FB6800220021182004
:1040A00002F02BFA182002F042FA18E07B681B6835
:1040B0000F4A934213D10D4B1B6E0C4A43F400532D
:1040C00013660A4B1B6E03F40053BB60BB680022EF
:1040D00000212B2002F011FA2B2002F028FA00BF59
:1040E0001037BD4680BD00BF002C014000100240CB
:1040F0000034014080B588B000AF78607B681B68F1
:10410000354A93420CD1354B9B6D344A43F004033E
:104110009365324B9B6D03F00403FB61FB6956E032
:104120007B681B682E4A934214D12C4B9B6D2B4A03
:1041300043F010039365294B9B6D03F01003BB61A3
:10414000BB6900220021362002F0D7F9362002F0A8
:10415000EEF93CE07B681B68224A93420CD11F4B6E
:104160009B6D1E4A43F0200393651C4B9B6D03F02F
:1041700020037B617B692AE07B681B681A4A9342B3
:1041800014D1164B1B6E154A43F480331366134B40
:104190001B6E03F480333B613B6900220021182031
:1041A00002F0ABF9182002F0C2F910E07B681B683E
:1041B0000E4A93420BD1094B1B6E084A43F400335D
:1041C0001366064B1B6E03F40033FB60FB6800BFF5
:1041D0002037BD4680BD00BF0008004000100240EF
:1041E0000010004000140040004001400044014025
:1041F00080B58AB000AF786007F1140300221A601E
:104200005A609A60DA601A617B681B68334A93428D
:104210001CD1334BDB6C324A43F00403D364304B84
:10422000DB6C03F004033B613B6901237B610223E8
:10423000BB610023FB6102233B6202237B6207F127
:1042400014031946274802F0DDFE43E07B681B6833
:10425000254A93421DD1224BDB6C214A43F00803CF
:10426000D3641F4BDB6C03F00803FB60FB684FF467
:1042700080537B610223BB610023FB6100233B620F
:1042800002237B6207F114031946184802F0BAFEB4
:1042900020E07B681B68164A93421BD1104BDB6CF5
:1042A0000F4A43F00403D3640D4BDB6C03F00403AB
:1042B000BB60BB6880237B610223BB610023FB6181
:1042C00002233B6204237B6207F11403194605486D
:1042D00002F098FE00BF2837BD4680BD002C01408B
:1042E000001002400008004800080040000C004890
:1042F0000034014080B59EB000AF786007F16403E0
:1043000000221A605A609A60DA601A6107F110039D
:104310005422002118460DF0D6FD7B681B681F4A09
:10432000934236D108233B6180233B6207F110039F
:10433000184605F04BFB0346002B01D0FFF7B0FBFE
:10434000174B9B6D164A43F400239365144B9B6DEA
:1043500003F40023FB60FB68114BDB6C104A43F055
:104360000403D3640E4BDB6C03F00403BB60BB6837
:104370004FF440637B660223BB660023FB66002389
:104380003B6705237B6707F164031946054802F084
:1043900039FE00BF7837BD4680BD00BF004C0040ED
:1043A000001002400008004880B400AF00BFFDE7E5
:1043B00080B400AF00BFFDE780B400AF00BFFDE7F1
:1043C00080B400AF00BFFDE780B400AF00BFFDE7E1
:1043D00080B400AF00BFBD465DF8047B704780B479
:1043E00000AF00BFBD465DF8047B704780B400AFEE
:1043F00000BFBD465DF8047B704780B500AF00F09C
:10440000B9F900BF80BD000080B500AF024802F0DE
:10441000AAFC00BF80BD00BF9405002080B500AF9E
:10442000024802F0A0FC00BF80BD00BFF4050020E0
:1044300080B500AF024802F096FC00BF80BD00BF0F
:104440005406002080B500AF024802F08CFC00BF8B
:1044500080BD00BF0407002080B500AF024802F015
:1044600082FC00BF80BD00BF6407002080B500AFA4
:10447000024803F083F800BF80BD00BFA8200020E1
:1044800080B500AF034806F063F8034806F060F813
:1044900000BF80BDC40700204009002080B500AFE8
:1044A000024806F055F800BF80BD00BFF4080020A8
:1044B00080B500AF034806F04BF8034802F0E0F87F
:1044C00000BF80BD5C080020DC06002080B400AF87
:1044D00001231846BD465DF8047B704780B582B065
:1044E00000AF786039600DF053FD034616221A6064
:1044F0004FF0FF3318460837BD4680BD80B582B007
:1045000000AF78604FF0FF317868FFF7E7FF00BF3A
:10451000FDE780B586B000AFF860B9607A6000232F
:104520007B610AE0AFF300800146BB685A1CBA60A9
:10453000CAB21A707B6901337B617A697B689A42DF
:10454000F0DB7B6818461837BD4680BD80B586B065
:1045500000AFF860B9607A6000237B6109E0BB6856
:104560005A1CBA601B781846AFF300807B69013390
:104570007B617A697B689A42F1DB7B681846183761
:10458000BD4680BD80B483B000AF78604FF0FF338C
:1045900018460C37BD465DF8047B704780B483B085
:1045A00000AF786039603B684FF400525A600023D6
:1045B00018460C37BD465DF8047B704780B483B065
:1045C00000AF7860012318460C37BD465DF8047BC8
:1045D000704780B485B000AFF860B9607A6000239E
:1045E00018461437BD465DF8047B704780B586B029
:1045F00000AF7860144A154BD31A7B617B693B612D
:10460000134B1B68002B02D1114B124A1A60104B3E
:104610001A687B6813443A699A4207D20DF0B8FCD5
:1046200003460C221A604FF0FF3309E0084B1B6869
:10463000FB60074B1A687B681344054A1360FB68EC
:1046400018461837BD4680BD000002200004000057
:10465000CC0B0020F026002080B400AF064BD3F82E
:104660008830054A43F47003C2F8883000BFBD4665
:104670005DF8047B704700BF00ED00E00D48854603
:10468000FFF7EAFF0C480D490D4A002302E0D45819
:10469000C4500433C4188C42F9D30A4A0A4C00238C
:1046A00001E013600432A242FBD30DF077FCFCF76B
:1046B000C3FCFEE70000022000000020C803002029
:1046C000D0750108C8030020F0260020FEE780B561
:1046D00082B000AF0023FB71032001F003FF002034
:1046E00000F00EF80346002B02D00123FB7101E01D
:1046F000FFF7DCF9FB7918460837BD4680BD00009E
:1047000080B584B000AF78600023FB73164B1B6844
:10471000002B22D0154B1A68134B1B684FF47A718B
:10472000B1FBF3F3B2FBF3F3184601F00EFF0346BF
:10473000002B0FD17B680F2B09D8002279684FF02E
:10474000FF3001F0DAFE0A4A7B68136007E00123BC
:10475000FB7304E00123FB7301E00123FB73FB7B8C
:1047600018461037BD4680BD70000020680000204C
:104770006C00002080B400AF054B1A68054B1B6825
:104780001344034A136000BFBD465DF8047B7047C5
:10479000D00B00207000002080B400AF034B1B68DA
:1047A0001846BD465DF8047B704700BFD00B002063
:1047B00080B584B000AF7860FFF7EEFFB8607B682B
:1047C000FB60FB68B3F1FF3F04D0094B1B68FA683C
:1047D0001344FB6000BFFFF7DFFF0246BB68D31A3C
:1047E000FA689A42F7D800BF00BF1037BD4680BDB7
:1047F0007000002080B483B000AF786039607B68BF
:104800009B6823F47C123B681A437B689A6000BF64
:104810000C37BD465DF8047B704780B483B000AFB1
:10482000786039607B689B6823F0E0723B681A43CC
:104830007B689A6000BF0C37BD465DF8047B70470B
:1048400080B483B000AF78607B689B6803F0E0734E
:1048500018460C37BD465DF8047B704780B487B0BE
:1048600000AFF860B9607A603B60FB6860331A465D
:10487000BB689B0013447B617B691A68084B13403B
:104880007A6802F0F8413A680A43134343F0004261
:104890007B691A6000BF1C37BD465DF8047B70471A
:1048A00000F0FF0380B485B000AF786039607B68AA
:1048B00060331A463B689B001344FB60FB681B682F
:1048C00003F0F84318461437BD465DF8047B704783
:1048D00080B487B000AFF860B9607A60FB6860337D
:1048E0001A46BB689B0013447B617B691B6823F0FD
:1048F00000427B681A437B691A6000BF1C37BD46C3
:104900005DF8047B704780B487B000AFF860B96091
:104910007A60FB6860331A46BB689B0013447B6176
:104920007B691B6823F080727B681A437B691A607D
:1049300000BF1C37BD465DF8047B704780B487B06C
:1049400000AFF860B9607A60FB6860331A46BB68F4
:104950009B0013447B617B691B6823F000727B68BA
:104960001A437B691A6000BF1C37BD465DF8047BA3
:10497000704780B483B000AF786039607B685B6952
:1049800023F000423B681A437B685A6100BF0C3732
:10499000BD465DF8047B704780B483B000AF78609B
:1049A0007B68DB6803F44063002B01D1012300E046
:1049B000002318460C37BD465DF8047B704780B471
:1049C00087B000AFF860B9607A60FB6830331A4690
:1049D000BB681B0A9B0003F00C0313447B617B69DB
:1049E0001A68BB6803F01F031F2101FA03F3DB43BE
:1049F0001A407B689B0E03F01F01BB6803F01F0386
:104A000001FA03F31A437B691A6000BF1C37BD46E5
:104A10005DF8047B704780B487B000AFF860B96080
:104A20007A60FB6814331A46BB685B0E9B0003F088
:104A3000040313447B617B691A68BB681B0D03F098
:104A40001F03072101FA03F3DB431A40BB681B0D68
:104A500003F01F03796801FA03F31A437B691A60B4
:104A600000BF1C37BD465DF8047B704780B485B03D
:104A700000AFF860B9607A60FB68D3F8B020BB681B
:104A8000C3F31203DB431A407B6803F018030849A1
:104A9000D940BB680B40C3F312031A43FB68C3F849
:104AA000B02000BF1437BD465DF8047B704700BFDF
:104AB000FFFF070080B483B000AF78607B689B681D
:104AC00003F01F0318460C37BD465DF8047B7047A2
:104AD00080B483B000AF78607B689B6823F020438C
:104AE00023F03F037A68936000BF0C37BD465DF842
:104AF000047B704780B483B000AF78607B689B68AC
:104B000003F00053B3F1005F01D1012300E0002363
:104B100018460C37BD465DF8047B704780B483B0FF
:104B200000AF78607B689B6823F0104323F03F035D
:104B300043F080527B689A6000BF0C37BD465DF839
:104B4000047B704780B483B000AF78607B689B685B
:104B500003F08053B3F1805F01D1012300E0002313
:104B600018460C37BD465DF8047B704780B483B0AF
:104B700000AF78607B689B6823F0004323F03F031D
:104B800043F001027B689A6000BF0C37BD465DF8B8
:104B9000047B704780B483B000AF78607B689B680B
:104BA00023F0004323F03F0343F002027B689A6046
:104BB00000BF0C37BD465DF8047B704780B483B0FE
:104BC00000AF78607B689B6803F00103012B01D183
:104BD000012300E0002318460C37BD465DF8047B36
:104BE000704780B483B000AF78607B689B6803F047
:104BF0000203022B01D1012300E0002318460C37E9
:104C0000BD465DF8047B704780B483B000AF786028
:104C10007B689B6823F0004323F03F0343F00402CA
:104C20007B689A6000BF0C37BD465DF8047B704717
:104C300080B483B000AF78607B689B6803F00403A6
:104C4000042B01D1012300E0002318460C37BD4698
:104C50005DF8047B704780B483B000AF78607B68F8
:104C60009B6803F00803082B01D1012300E0002317
:104C700018460C37BD465DF8047B704790B589B087
:104C800000AF78600023FB770023FB607B68002B7C
:104C900001D10123A9E17B685B69002B7B68DB6D97
:104CA000002B09D17868FEF725FF7B6800221A6681
:104CB0007B68002283F858207B681B681846FFF742
:104CC00019FF0346002B04D07B681B681846FFF7CA
:104CD000FFFE7B681B681846FFF734FF0346002B76
:104CE00015D17B681B681846FFF718FF9C4B1B68A3
:104CF0009B099C4AA2FB03239B0901335B00FB60D9
:104D000002E0FB68013BFB60FB68002BF9D17B688C
:104D10001B681846FFF716FF0346002B0DD17B6872
:104D2000DB6D43F010027B68DA657B681B6E43F035
:104D300001027B681A660123FB777B681B681846B3
:104D4000FFF776FF78617B68DB6D03F01003002BC3
:104D500040F042817B69002B40F03E817B68DB6D37
:104D600023F4817343F002027B68DA657B681B6879
:104D70001846FFF723FF0346002B41D17B681B68D1
:104D8000B3F1A04F04D07B681B68774A93420FD1E0
:104D90004FF0A040FFF712FF04467348FFF70EFFE5
:104DA00003462343002B0CBF01230023DBB212E098
:104DB0006E48FFF703FF04466D48FFF7FFFE03460A
:104DC0001C436C48FFF7FAFE03462343002B0CBF3D
:104DD00001230023DBB2002B12D07B681B68B3F1E8
:104DE000A04F04D07B681B685F4A934201D1624A9E
:104DF00000E0624A7B685B6819461046FFF7FAFCE0
:104E00007B685B7F5A037B68DB6B1A437B68DB68DC
:104E10001A437B689B681A437B6893F824301B0411
:104E20001343BB617B6893F82430012B06D17B6868
:104E30009B6A013B5B04BA691343BB617B68DB6A15
:104E4000002B09D07B68DB6A03F478727B681B6BEC
:104E50001343BA691343BB617B681B68DA68484B2C
:104E600013407A681268B9690B43D3607B681B688A
:104E70001B6923F040617B685A6B7B681B680A439F
:104E80001A617B681B681846FFF7E5FE38617B698D
:104E9000002B7FD13B69002B7CD17B681B7F9A0361
:104EA0007B6893F838305B001343BB617B681B68F9
:104EB000DB6823F4804323F002037A681268B9693F
:104EC0000B43D3607B681B69002B17D07B681B6882
:104ED0001A697B681B6842F480321A617B681B6820
:104EE000D3F8C03023F47F5323F03F037A6811696D
:104EF0007A6812680B43C2F8C03013E07B681B6805
:104F00001A697B681B6822F480321A617B681B680F
:104F1000D3F8C0307A68126823F47F5323F03F033C
:104F2000C2F8C0307B6893F84030012B2AD17B68EF
:104F30001B681B6923F4FF6323F004037A68516C38
:104F40007A68926C11437A68D26C11437A68126D58
:104F50000A431A437B681B6842F001021A6119E098
:104F600068000020632D3E05000100500004005041
:104F700000050050000600500003005000070050DC
:104F80000740F0FF7B681B681A697B681B6822F08A
:104F900001021A617B685B69012B0CD17B681B687D
:104FA0001B6B23F00F017B681B6A5A1E7B681B6812
:104FB0000A431A6307E07B681B681A6B7B681B68EF
:104FC00022F00F021A637B68DB6D23F0030343F0CA
:104FD00001027B68DA6507E07B68DB6D43F0100255
:104FE0007B68DA650123FB77FB7F18462437BD46D3
:104FF00090BD00BF80B586B000AFF860B9607A6040
:10500000FB681B68B3F1A04F04D0FB681B685A4AC9
:10501000934201D1594B00E0594B1846FFF74AFD26
:105020003861FB681B681846FFF702FE0346002B39
:1050300040F09B80FB6893F85830012B01D102238C
:1050400096E0FB68012283F85820FB681B684D4AF4
:10505000934208D03B69002B05D03B69052B02D059
:105060003B69092B7AD1F86800F0ECFC0346FB752C
:10507000FB7D002B6DD1FB68DB6D23F4706323F0A7
:10508000010343F48072FB68DA65FB681B683A4AE7
:10509000934209D0FB681B683B4A934202D0FB68ED
:1050A0001B6803E0394B01E04FF0A043FA68126837
:1050B000934202D03B69002B05D1FB68DB6D23F4E2
:1050C0008012FB68DA65FB68DB6D03F48053002B0C
:1050D00006D0FB681B6E23F00602FB681A6602E02E
:1050E000FB6800221A66FB685B6D294ADA62FB687E
:1050F0005B6D284A1A63FB685B6D274A5A63FB683D
:105100001B681C221A60FB68002283F85820FB6889
:105110001B685A68FB681B6842F010025A60FB6803
:105120001B68DA68FB681B6842F00102DA60FB6802
:10513000586DFB681B6840331946BA687B6801F0FC
:1051400097FD0346FB75FB681B681846FFF75CFD7F
:105150000DE0FB68002283F8582008E00123FB756E
:10516000FB68002283F8582001E00223FB75FB7DD9
:1051700018461837BD4680BD00010050000300509E
:1051800000070050000600500005005000040050C9
:105190002F5C0008075D0008235D000880B483B021
:1051A00000AF786000BF0C37BD465DF8047B7047E8
:1051B00080B483B000AF786000BF0C37BD465DF8A7
:1051C000047B704780B5B6B000AF786039600023CB
:1051D00087F8D7300023FB607B6893F85830012BA9
:1051E00002D1022300F013BC7B68012283F858200F
:1051F0007B681B681846FFF71BFD0346002B40F039
:10520000F3837B6818683B6859683B681B681A46DB
:10521000FFF7D5FB7B681B681846FFF709FDC7F849
:10522000D0007B681B681846FFF715FDC7F8CC0057
:10523000D7F8D030002B40F0D981D7F8CC30002BF4
:1052400040F0D4813B689B68B3F1004F0FD17B687D
:1052500018683B681B6800221946FFF7DCFB7B6877
:105260001B684FF000411846FFF783FB0EE07B6898
:1052700018683B6819683B689B681A46FFF7CBFBC8
:105280007B681B6800211846FFF773FB3B685A696F
:105290007B681B68DB68DB0803F003035B0002FA32
:1052A00003F3C7F8C8303B681B69042B22D07B6826
:1052B00018683B6819693B681A68D7F8C830FFF767
:1052C000CDFA7B6818683B6819693B689B691A4688
:1052D000FFF719FB7B6818683B6819693B681B7FFF
:1052E000012B02D14FF0007300E000231A46FFF7B4
:1052F00025FB7BE17B681B6800211846FFF7D2FA8B
:105300000346C3F31203002B0AD17B681B680021FC
:105310001846FFF7C7FA03469B0E03F01F021EE074
:105320007B681B6800211846FFF7BCFA0346C7F8E4
:10533000BC30D7F8BC3093FAA3F3C7F8B830D7F82D
:10534000B830C7F8C030D7F8C030002B01D12023C7
:1053500004E0D7F8C030B3FA83F3DBB21A463B68F7
:105360001B68C3F31203002B05D13B681B689B0E1F
:1053700003F01F0318E03B681B68C7F8B030D7F88C
:10538000B03093FAA3F3C7F8AC30D7F8AC30C7F815
:10539000B430D7F8B430002B01D1202304E0D7F883
:1053A000B430B3FA83F3DBB29A4206D17B681B6850
:1053B000002200211846FFF78BFA7B681B68012149
:1053C0001846FFF76FFA0346C3F31203002B0AD106
:1053D0007B681B6801211846FFF764FA03469B0EA1
:1053E00003F01F021EE07B681B6801211846FFF7CF
:1053F00059FA0346C7F8A430D7F8A43093FAA3F3B8
:10540000C7F8A030D7F8A030C7F8A830D7F8A83030
:10541000002B01D1202304E0D7F8A830B3FA83F39E
:10542000DBB21A463B681B68C3F31203002B05D19D
:105430003B681B689B0E03F01F0318E03B681B686A
:10544000C7F89830D7F8983093FAA3F3C7F8943098
:10545000D7F89430C7F89C30D7F89C30002B01D196
:10546000202304E0D7F89C30B3FA83F3DBB29A42EE
:1054700006D17B681B68002201211846FFF728FA35
:105480007B681B6802211846FFF70CFA0346C3F33A
:105490001203002B0AD17B681B6802211846FFF714
:1054A00001FA03469B0E03F01F021EE07B681B6897
:1054B00002211846FFF7F6F90346C7F88C30D7F8F3
:1054C0008C3093FAA3F3C7F88830D7F88830C7F840
:1054D0009030D7F89030002B01D1202304E0D7F88A
:1054E0009030B3FA83F3DBB21A463B681B68C3F310
:1054F0001203002B05D13B681B689B0E03F01F03B2
:1055000016E03B681B68C7F88030D7F8803093FA04
:10551000A3F3FB67FB6FC7F88430D7F88430002B08
:1055200001D1202304E0D7F88430B3FA83F3DBB24F
:105530009A4206D17B681B68002202211846FFF7B9
:10554000C7F97B681B6803211846FFF7ABF90346D0
:10555000C3F31203002B0AD17B681B680321184692
:10556000FFF7A0F903469B0E03F01F0217E07B68CC
:105570001B6803211846FFF795F903467B677B6F8D
:1055800093FAA3F33B673B6FBB67BB6F002B01D163
:10559000202303E0BB6FB3FA83F3DBB21A463B6808
:1055A0001B68C3F31203002B05D13B681B689B0EDD
:1055B00003F01F0311E03B681B68BB66BB6E93FAE8
:1055C000A3F37B667B6EFB66FB6E002B01D1202371
:1055D00003E0FB6EB3FA83F3DBB29A4206D17B6839
:1055E0001B68002203211846FFF772F97B681B68CD
:1055F0001846FFF7E3FA0346002B40F03D817B6835
:1056000018683B6819683B68DB681A46FFF72EFA92
:105610003B68DB68A24A934240F02E817B681868A1
:105620003B681B68C3F31203002B0BD13B681B685C
:105630009B0E013303F01F03092B94BF01230023AA
:10564000DBB219E03B681B68FB65FB6D93FAA3F3C3
:10565000BB65BB6D3B663B6E002B01D1202303E095
:105660003B6EB3FA83F3DBB2013303F01F03092B64
:1056700094BF01230023DBB2002B79D03B681B6869
:10568000C3F31203002B07D13B681B689B0E013349
:105690009B0603F0F84215E03B681B683B653B6DD9
:1056A00093FAA3F3FB64FB6C7B657B6D002B01D14C
:1056B000202303E07B6DB3FA83F3DBB201339B0657
:1056C00003F0F8423B681B68C3F31203002B09D1B7
:1056D0003B681B689B0E013303F01F03012101FA95
:1056E00003F317E03B681B687B647B6C93FAA3F3BE
:1056F0003B643B6CBB64BB6C002B01D1202303E0FB
:10570000BB6CB3FA83F3DBB2013303F01F03012157
:1057100001FA03F342EA03013B681B68C3F3120377
:10572000002B0AD13B681B689B0E013303F01F025C
:1057300013465B0013441B0518E03B681B68BB6302
:10574000BB6B93FAA3F37B637B6BFB63FB6B002B5D
:1057500001D1202303E0FB6BB3FA83F3DBB2013307
:1057600003F01F0213465B0013441B050B437EE04E
:105770003B681B68C3F31203002B07D13B681B680F
:105780009B0E01339B0603F0F84215E03B681B6853
:10579000FB62FB6A93FAA3F3BB62BB6A3B633B6B9E
:1057A000002B01D1202303E03B6BB3FA83F3DBB280
:1057B00001339B0603F0F8423B681B68C3F31203F6
:1057C000002B09D13B681B689B0E013303F01F03BC
:1057D000012101FA03F317E03B681B683B623B6A57
:1057E00093FAA3F3FB61FB697B627B6A002B01D117
:1057F000202303E07B6AB3FA83F3DBB2013303F0C7
:105800001F03012101FA03F342EA03013B681B680D
:10581000C3F31203002B0DD13B681B689B0E0133B1
:1058200003F01F0213465B0013441E3B1B0543F0AD
:1058300000731BE03B681B687B617B6993FAA3F3F1
:105840003B613B69BB61BB69002B01D1202303E0B5
:10585000BB69B3FA83F3DBB2013303F01F021346D3
:105860005B0013441E3B1B0543F000730B433A6877
:1058700092681946FFF7CFF83B681A68094B134046
:10588000002B00F0BE807B681B68B3F1A04F04D0F2
:105890007B681B68044A93420AD1044B09E000BFAD
:1058A00000007F400000088000010050000300500D
:1058B000594B1846FEF7C4FFC7F8C4003B681B6885
:1058C000564A934204D03B681B68554A93423AD1EA
:1058D000D7F8C43003F40003002B34D17B681B6875
:1058E000B3F1A04F05D07B681B684E4A934240F04D
:1058F00085807B681B68B3F1A04F04D07B681B6870
:10590000494A934201D1494A00E0434AD7F8C4309A
:1059100043F4000319461046FEF77FFF444B1B6813
:105920009B09444AA2FB03239B095A1C13465B00B4
:1059300013449B00FB6002E0FB68013BFB60FB68DB
:10594000002BF9D15AE03B681B683B4A934225D1B2
:10595000D7F8C43003F08073002B1FD17B681B681D
:10596000314A934204D17B681B68344A934247D042
:105970007B681B68B3F1A04F04D07B681B682A4A80
:10598000934201D1294A00E0234AD7F8C43043F0BA
:10599000807319461046FEF740FF31E03B681B68F4
:1059A000274A93422DD1D7F8C43003F48003002B4B
:1059B00027D17B681B681C4A934222D07B681B68F6
:1059C000B3F1A04F04D07B681B68174A934201D102
:1059D000164A00E0104AD7F8C43043F48003194651
:1059E0001046FEF71AFF0CE07B68DB6D43F02002E7
:1059F0007B68DA65012387F8D73002E000BF00E05A
:105A000000BF7B68002283F8582097F8D7301846EB
:105A1000D837BD4680BD00BF00070050000021C33D
:105A20001000C0900006005000010050000300501C
:105A300068000020632D3E05000052C7000500509D
:105A4000000084CB80B584B000AF78600023BB60D9
:105A50007B681B681846FFF7B1F80346002B76D128
:105A60007B681B689A683C4B1340002B0DD07B6809
:105A7000DB6D43F010027B68DA657B681B6E43F0D8
:105A800001027B681A66012362E07B681B68184686
:105A9000FFF76CF87B681B68B3F1A04F04D07B68FC
:105AA0001B682E4A934201D12D4B00E02D4B184626
:105AB000FEF7C6FE034603F40003002B13D02A4B67
:105AC0001B689B09294AA2FB03239B095A1C134606
:105AD0005B0013449B00BB6002E0BB68013BBB6002
