:020000040800F2
:1000000000000220B5460008E1430008E94300086B
:10001000F1430008F9430008014400080000000013
:10002000000000000000000000000000094400087B
:10003000174400080000000025440008334400086D
:100040000547000805470008054700080547000860
:100050000547000805470008054700080547000850
:100060000547000805470008054700084144000807
:1000700055440008694400087D4400089144000884
:100080000547000805470008054700080547000820
:10009000A544000805470008054700080547000873
:1000A000B94400080547000805470008054700084F
:1000B00005470008054700080547000805470008F0
:1000C00005470008054700080547000805470008E0
:1000D00005470008054700080547000805470008D0
:1000E000054700080547000805470008D5440008F3
:1000F00005470008054700080547000805470008B0
:10010000054700080547000805470008054700089F
:100110000547000805470008E944000805470008AE
:10012000054700080547000805470008054700087F
:10013000054700080547000805470008054700086F
:10014000054700080547000805470008054700085F
:10015000054700080547000805470008054700084F
:10016000054700080547000805470008054700083F
:10017000054700080547000805470008054700082F
:10018000054700080547000805470008054700081F
:100190000547000800000000054700080547000863
:1001A00005470008054700080547000805470008FF
:1001B00005470008054700080547000805470008EF
:1001C00005470008054700080547000805470008DF
:0801D00005470008054700087F
:1001E00010B5054C237833B9044B13B10448AFF371
:1001F00000800123237010BDB00300200000000028
:10020000BC6D010808B5034B1BB103490348AFF3AC
:10021000008008BD00000000B4030020BC6D010890
:1002200001F0FF01102A2BDB10F0070F08D010F8A7
:10023000013B013A8B422DD010F0070F42B3F6D1AB
:10024000F0B441EA012141EA014122F007047FF0C4
:1002500000070023F0E80256083C85EA010586EA1B
:10026000010685FA47F5A3FA87F586FA47F6A5FA57
:1002700087F68EB9EED1F0BC01F0FF0102F0070263
:1002800032B110F8013B013A83EA010313B1F8D10E
:100290000020704701387047002D06BF35460338EF
:1002A000073815F0010F07D1013015F4807F02BF28
:1002B000013015F4C03F0130F0BC0138704700BF79
:1002C000034613F8012B002AFBD1181A0138704796
:1002D00081F0004102E000BF83F0004330B54FEAF7
:1002E00041044FEA430594EA050F08BF90EA020F64
:1002F0001FBF54EA000C55EA020C7FEA645C7FEAF7
:10030000655C00F0E2804FEA5454D4EB5555B8BF19
:100310006D420CDD2C4480EA020281EA030382EA8A
:10032000000083EA010180EA020281EA0303362D1C
:1003300088BF30BD11F0004F4FEA01314FF4801CEF
:100340004CEA113102D0404261EB410113F0004F01
:100350004FEA03334CEA133302D0524263EB4303B8
:1003600094EA050F00F0A780A4F10104D5F1200E56
:100370000DDB02FA0EFC22FA05F2801841F10001B1
:1003800003FA0EF2801843FA05F359410EE0A5F185
:1003900020050EF1200E012A03FA0EFC28BF4CF0B6
:1003A000020C43FA05F3C01851EBE37101F000456C
:1003B00007D54FF0000EDCF1000C7EEB00006EEB79
:1003C0000101B1F5801F1BD3B1F5001F0CD3490803
:1003D0005FEA30004FEA3C0C04F101044FEA44525A
:1003E00012F5800F80F09A80BCF1004F08BF5FEAE1
:1003F000500C50F1000041EB045141EA050130BDC1
:100400005FEA4C0C404141EB0101013C28BFB1F5D2
:10041000801FE9D291F0000F04BF01460020B1FA1D
:1004200081F308BF2033A3F10B03B3F120020CDAF0
:100430000C3208DD02F1140CC2F10C0201FA0CF0CE
:1004400021FA02F10CE002F11402D8BFC2F1200C33
:1004500001FA02F120FA0CFCDCBF41EA0C019040E9
:10046000E41AA2BF01EB0451294330BD6FEA040432
:100470001F3C1CDA0C340EDC04F11404C4F120021D
:1004800020FA04F001FA02F340EA030021FA04F32F
:1004900045EA030130BDC4F10C04C4F1200220FA86
:1004A00002F001FA04F340EA0300294630BD21FAC4
:1004B00004F0294630BD94F0000F83F4801306BF8A
:1004C00081F480110134013D4EE77FEA645C18BF7E
:1004D0007FEA655C29D094EA050F08BF90EA020F15
:1004E00005D054EA000C04BF1946104630BD91EA0D
:1004F000030F1EBF0021002030BD5FEA545C05D110
:100500004000494128BF41F0004130BD14F580044E
:100510003CBF01F5801130BD01F0004545F0FE41C2
:1005200041F470014FF0000030BD7FEA645C1ABFF7
:10053000194610467FEA655C1CBF0B46024650EA2E
:10054000013406BF52EA033591EA030F41F400215A
:1005500030BD00BF90F0000F04BF0021704730B5E0
:100560004FF4806404F132044FF000054FF00001B5
:1005700050E700BF90F0000F04BF0021704730B576
:100580004FF4806404F1320410F0004548BF40424B
:100590004FF000013EE700BF42004FEAE2014FEAA0
:1005A00031014FEA02701FBF12F07F4393F07F4F7B
:1005B00081F06051704732F07F4208BF704793F07E
:1005C0007F4F04BF41F40021704730B54FF4607491
:1005D00001F0004521F000411CE700BF50EA010294
:1005E00008BF704730B54FF000050AE050EA01023D
:1005F00008BF704730B511F0004502D5404261EBAD
:1006000041014FF4806404F132045FEA915C3FF4ED
:10061000D8AE4FF003025FEADC0C18BF03325FEA8A
:10062000DC0C18BF033202EBDC02C2F1200300FA3B
:1006300003FC20FA02F001FA03FE40EA0E0021FA60
:1006400002F11444BDE600BF70B54FF0FF0C4CF44E
:10065000E06C1CEA11541DBF1CEA135594EA0C0F00
:1006600095EA0C0F00F0DEF82C4481EA030621EA3B
:100670004C5123EA4C5350EA013518BF52EA033576
:1006800041F4801143F4801338D0A0FB02CE4FF028
:100690000005E1FB02E506F00042E0FB03E54FF058
:1006A0000006E1FB03569CF0000F18BF4EF0010E50
:1006B000A4F1FF04B6F5007F64F5407404D25FEA4C
:1006C0004E0E6D4146EB060642EAC62141EA5551FF
:1006D0004FEAC52040EA5E504FEACE2EB4F1FD0C41
:1006E00088BFBCF5E06F1ED8BEF1004F08BF5FEABF
:1006F000500E50F1000041EB045170BD06F0004671
:1007000046EA010140EA020081EA0301B4EB5C041D
:10071000C2BFD4EB0C0541EA045170BD41F4801115
:100720004FF0000E013C00F3AB8014F1360FDEBF3A
:10073000002001F0004170BDC4F10004203C35DA16
:100740000C341BDC04F11404C4F1200500FA05F399
:1007500020FA04F001FA05F240EA020001F000423A
:1007600021F0004110EBD37021FA04F642EB0601B0
:100770005EEA430E08BF20EAD37070BDC4F10C04DA
:10078000C4F1200500FA04F320FA05F001FA04F29E
:1007900040EA020001F0004110EBD37041F100018A
:1007A0005EEA430E08BF20EAD37070BDC4F1200595
:1007B00000FA05F24EEA020E20FA04F301FA05F2FD
:1007C00043EA020321FA04F001F0004121FA04F2A5
:1007D00020EA020000EBD3705EEA430E08BF20EA75
:1007E000D37070BD94F0000F0FD101F000464000AF
:1007F00041EB010111F4801F08BF013CF7D041EA31
:10080000060195F0000F18BF704703F00046520034
:1008100043EB030313F4801F08BF013DF7D043EA05
:100820000603704794EA0C0F0CEA135518BF95EABB
:100830000C0F0CD050EA410618BF52EA4306D1D142
:1008400081EA030101F000414FF0000070BD50EA61
:10085000410606BF1046194652EA430619D094EAEB
:100860000C0F02D150EA013613D195EA0C0F05D1D5
:1008700052EA03361CBF104619460AD181EA030129
:1008800001F0004141F0FE4141F470014FF00000E1
:1008900070BD41F0FE4141F4780170BD70B54FF07C
:1008A000FF0C4CF4E06C1CEA11541DBF1CEA1355FC
:1008B00094EA0C0F95EA0C0F00F0A7F8A4EB0504DE
:1008C00081EA030E52EA03354FEA013100F08880D5
:1008D0004FEA03334FF0805545EA131343EA12639E
:1008E0004FEA022245EA111545EA10654FEA002653
:1008F0000EF000419D4208BF964244F1FD0404F50C
:10090000407402D25B084FEA3202B61A65EB030567
:100910005B084FEA32024FF480104FF4002CB6EB24
:10092000020E75EB030E22BFB61A754640EA0C00A4
:100930005B084FEA3202B6EB020E75EB030E22BFE4
:10094000B61A754640EA5C005B084FEA3202B6EB25
:10095000020E75EB030E22BFB61A754640EA9C00E4
:100960005B084FEA3202B6EB020E75EB030E22BFB4
:10097000B61A754640EADC0055EA060E18D04FEA72
:10098000051545EA16754FEA06164FEAC30343EA12
:1009900052734FEAC2025FEA1C1CC0D111F4801FDF
:1009A0000BD141EA00014FF000004FF0004CB6E7D8
:1009B00011F4801F04BF01430020B4F1FD0C88BF77
:1009C000BCF5E06F3FF6AFAEB5EB030C04BFB6EB82
:1009D000020C5FEA500C50F1000041EB045170BD75
:1009E0000EF0004E4EEA113114EB5C04C2BFD4EBA2
:1009F0000C0541EA045170BD41F480114FF0000E26
:100A0000013C90E645EA060E8DE60CEA135594EAA1
:100A10000C0F08BF95EA0C0F3FF43BAF94EA0C0FA4
:100A20000AD150EA01347FF434AF95EA0C0F7FF419
:100A300025AF104619462CE795EA0C0F06D152EA6D
:100A400003353FF4FDAE1046194622E750EA410651
:100A500018BF52EA43067FF4C5AE50EA41047FF462
:100A60000DAF52EA43057FF4EBAE12E74FF0FF3CC7
:100A700006E000BF4FF0010C02E000BF4FF0010C98
:100A80004DF804CD4FEA410C7FEA6C5C4FEA430C11
:100A900018BF7FEA6C5C1BD001B050EA410C0CBF60
:100AA00052EA430C91EA030F02BF90EA020F0020C2
:100AB000704710F1000F91EA030F58BF994208BF29
:100AC00090422CBFD8176FEAE37040F001007047E6
:100AD0004FEA410C7FEA6C5C02D150EA013C07D13D
:100AE0004FEA430C7FEA6C5CD6D152EA033CD3D088
:100AF0005DF8040B704700BF8446104662468C4682
:100B00001946634600E000BF01B5FFF7B7FF0028B4
:100B100048BF10F1000F01BD4DF808EDFFF7F4FFDD
:100B20000CBF012000205DF808FB00BF4DF808ED68
:100B3000FFF7EAFF34BF012000205DF808FB00BF8B
:100B40004DF808EDFFF7E0FF94BF012000205DF8AD
:100B500008FB00BF4DF808EDFFF7CEFF94BF012062
:100B600000205DF808FB00BF4DF808EDFFF7C4FF5B
:100B700034BF012000205DF808FB00BF4FEA410CA4
:100B80007FEA6C5C02D150EA013C0AD14FEA430C87
:100B90007FEA6C5C02D152EA033C02D14FF00000C4
:100BA00070474FF0010070474FEA410212F5001202
:100BB00015D211D56FF47873B3EB625212D94FEAA4
:100BC000C12343F0004343EA505311F0004F23FA8E
:100BD00002F018BF404270474FF00000704750EAE3
:100BE000013005D111F0004008BF6FF000407047A0
:100BF0004FF00000704700BF4A0011D212F50012FA
:100C000011D20DD56FF47873B3EB62520ED44FEA64
:100C1000C12343F0004343EA505323FA02F07047E4
:100C20004FF00000704750EA013002D14FF0FF3022
:100C300070474FF0000070474FEA4102B2F1E043C5
:100C400024BFB3F5001CDCF1FE5C0DD901F0004CB3
:100C50004FEAC0024CEA5070B2F1004F40EB830003
:100C600008BF20F00100704711F0804F21D113F12F
:100C70003872BCBF01F00040704741F480114FEA68
:100C80005252C2F11802C2F1200C10FA0CF320FAF1
:100C900002F018BF40F001004FEAC1234FEAD3230E
:100CA00003FA0CFC40EA0C0023FA02F34FEA430378
:100CB000CCE77FEA625307D150EA01331EBF4FF001
:100CC000FE4040F44000704701F0004040F0FE401C
:100CD00040F40000704700BF53B94AB9002908BF6B
:100CE00000281CBF4FF0FF314FF0FF3000F0BEB9BD
:100CF000ADF1080C6DE904CE00F03CF8DDF804E03D
:100D0000DDE9022304B0704738B500220023044611
:100D10000D46FFF70BFF28B920462946BDE83840AD
:100D200000F00AB8204605F1004100F005F8404205
:100D300061EB410138BD00BFD0B50C4B0022064627
:100D40000F46FFF781FCFFF757FF0446FFF702FC51
:100D5000074B0022FFF778FC02460B463046394627
:100D6000FFF7BAFAFFF748FF2146D0BD0000F03D7B
:100D70000000F0412DE9F047089D8E460446884664
:100D8000002B4AD18A42174662D9B2FA82F64EB196
:100D9000C6F1200301FA06F820FA03F3B74043EA4C
:100DA0000808B4404FEA174E1FFA87FCB8FBFEF163
:100DB000230C0EFB118843EA084301FB0CF29A4214
:100DC00009D9FB1801F1FF3080F0EA809A4240F225
:100DD000E78002393B449A1AA3B2B2FBFEF00EFB45
:100DE000102243EA024300FB0CFC9C4509D9FB1886
:100DF00000F1FF3280F0D6809C4540F2D3803B4426
:100E0000023840EA0140A3EB0C0300211DB1F3407E
:100E10000022C5E90032BDE8F0878B4205D90DB14B
:100E2000C5E9000100210846F5E7B3FA83F100297E
:100E300046D1734502D3824200F20581841A6EEBDB
:100E4000030201209046002DE5D0C5E90048E2E705
:100E5000002A00F09080B2FA82F6002E40F0A480C2
:100E60008A1A030C4FEA174E80B2BCB20121B2FBC2
:100E7000FEFC0EFB1C2243EA024304FB0CF29A42E6
:100E800007D9FB180CF1FF3802D29A4200F2E08039
:100E9000C4469B1AB3FBFEF20EFB123340EA034337
:100EA00002FB04F49C4207D9FB1802F1FF3002D286
:100EB0009C4200F2CA8002461B1B42EA0C40A5E796
:100EC000C1F120068B4022FA06F71F430EFA01F407
:100ED00020FA06F32EFA06FE4FEA1749234300FADA
:100EE00001F81FFA87FCBEFBF9F01C0C09FB10EEA1
:100EF00044EA0E4400FB0CFEA64502FA01F209D9B1
:100F00003C1900F1FF3A80F09C80A64540F29980A0
:100F100002383C44A4EB0E041FFA83FEB4FBF9F341
:100F200009FB13444EEA044403FB0CFCA44508D916
:100F30003C1903F1FF3E80F08280A4457FD9023B3B
:100F40003C4443EA0040A4EB0C04A0FB02EC6445E3
:100F50007346E14662D35FD05DB1B8EB030264EB48
:100F6000090404FA06F622FA01F31E43CC40C5E94F
:100F7000006400214FE7B1FBF2FC010C41EA0E4195
:100F800080B240EA01423B4638463C46B846BE463F
:100F90002026B1FBF7F1A2EB080241EA0C4166E71B
:100FA000014618E710462CE7C6F120022EFA02F39C
:100FB000B740B14020FA02F24FEA174E0A43B3FBA2
:100FC000FEF8BCB20EFB1833110C41EA034108FBDA
:100FD00004F9B04089454FEA104380B23ED97918F0
:100FE00008F1FF3C01D289451FD8A1EB0901B1FBF3
:100FF000FEF909FB04F80EFB191192B242EA014214
:10100000424529D2BA1809F1FF31C4D24245C2D2B1
:10101000A9F102013A44BEE7F0459DD2BEEB0203BE
:101020006CEB070C0138E14696E7A7EB0909494448
:10103000A8F1020CB1FBFEF909FB04F8DBE77346EB
:101040007FE7504666E70846FDE63B44023A33E751
:10105000ACF1020C3B441CE749469CE7A1EB0901BB
:10106000C446B1FBFEF909FB04F8C4E7704700BFB2
:10107000B0B584B002AF03F046FB00F00DFD01F007
:101080003FFB01F0F3FA00F0CDFD00F097FE00F019
:10109000FBFE00F07FFF00F0C9FF01F001F801F056
:1010A00087F901F097FA00F045FD01F093F80FF091
:1010B0004DFA01F017FA01F067FA01F043F901F077
:1010C00001F900F053FF864B09221A60844B60221D
:1010D0009A61834B00225A60814B00221A61804B37
:1010E00000225A617E4B00229A607D4B0022DA601A
:1010F0007B497C4805F03AF80346002B01D002F00A
:10110000EBFC01F0A9FD03461A46774B1A70774BAA
:101110001B78DBB2002B04D002F0DCF8734B00220A
:101120001A700421724806F00BF903461A46714BF7
:101130001A70704B1B78002B0ED06F4B1B78002B56
:101140000AD0694B1B78002B06D16C4B00221A7019
:10115000694B00221A7019E0664B1B78002B0ED0E9
:10116000674B1B78002B0AD05F4B1B78002B06D1F6
:10117000624B03221A70624B00221A7006E0614B28
:101180001B78002B02D05D4B02221A70594B1B7842
:10119000002B03D0544B1B78002B02D0574B01225D
:1011A0001A70594B1B78554A12781146184601F0AF
:1011B000F3FB03461A46544B1A70534B1B78042B0F
:1011C00000F2328401A252F823F000BFE1110008BE
:1011D000A51200085113000835190008A9190008C4
:1011E00001220421494806F0C3F80022202140488A
:1011F00006F0BEF801222021454806F0B9F84FF468
:101200007A7003F0F1FA00222021414806F0B0F88C
:101210000021404809F00AF804213F4809F006F887
:1012200000213E4805F0DCF910213C4805F0D8F9D2
:1012300000213B4805F0D4F900213A4808F0F6FFB8
:10124000394808F0F5FE7F21384804F0F3FD7F218E
:10125000374804F0EFFD7F21364804F0EBFD05220E
:101260003549324803F0E2FE02223449304803F0A7
:10127000DDFE0A2232492F4803F0D8FE142001F087
:10128000E5FB322003F0B0FA2B4B1B889AB22D4BB2
:101290001A80294B5B889AB22B4B1A801A4B012279
:1012A0001A70C8E301F012FD03461A46274B1A7064
:1012B000114B1B78002B00F0BA830E4B1B78002BD0
:1012C00000F0B583084B1B78002B40F0B0831F4B18
:1012D0001B78002B00F0AB830B4B02221A70A6E3A5
:1012E000840B00209C060020780B0020640B00205B
:1012F00000080048800B0020740B002044000020F0
:10130000750B0020760B0020770B0020001400489E
:1013100000100048AC070020DC080020C4060020B4
:10132000D8060020F80700204408002038040020D8
:10133000A404002010050020700A00207C0A002070
:101340008C0A0020540A0020560A0020790B002045
:10135000974B1B68002B1DD1964B1B681A46964B6A
:101360001A60964B00221A70954B00221A60954B1A
:1013700000221A6000220421934805F0F9FF9348E7
:1013800008F056FE0021924808F050FF04219148D1
:1013900008F04CFF904B1B78DBB2002B00F04A8327
:1013A0008D4B00221A708D4B1B6807EE903AF8EEB9
:1013B000677A8B4B1B6807EE103AB8EE477AF0EE6F
:1013C000470AB0EE670A01F08BFEF0EE407AFDEEC0
:1013D000E77A17EE902A824B1A60764B1B6807EE6D
:1013E000903AF8EE677A7F4B1B6807EE103AB8EE3A
:1013F000477AF0EE470AB0EE670A01F071FEF0EEB0
:10140000407AFDEEE77A17EE902A764B1A60754B1C
:101410001A68754B1B68D31A07EE903AF8EE676AA4
:10142000714B1B6807EE903AB8EE677AC6EE877A82
:10143000C7ED017A7868FFF7AFF857A3D3E9002327
:10144000FFF792FB0346002B05D15C4B1B78DBB208
:10145000002B40F01A82634B1B6807EE903AF8EEBF
:10146000676A5F4B1B6807EE903AB8EE677AC6EE84
:10147000877A5E4BC3ED007A5C4BD3ED007AB0EE19
:10148000007AF4EEC77AF1EE10FA40F1C180574BC2
:10149000D3ED007AB7EE007A77EE677AB0EE670A9E
:1014A00002F0D2F910EE103A1846FFF775F83CA397
:1014B000D3E90023FFF7C8F802460B4614461D4641
:1014C0004B4B1B681846FFF767F802460B46204651
:1014D0002946FFF7B9F802460B4610461946FFF7B2
:1014E000ABFB0346434A1360404BD3ED007AB0EEAA
:1014F000007A37EE677A3D4BD3ED007AC7EE276A64
:1015000020216420B0EE660A02F0A0F803463A4AB1
:101510001360642300930123384A3749384804F0A4
:1015200061FE364B1868202301220A2102F014F9CB
:10153000F0EE407A334BC3ED007A2A4B1B6807EE7E
:10154000903AB8EE677A304BD3ED007A27EE277ADF
:101550002C4BD3ED007A67EE277A17EE900AFFF74F
:101560001BF811A3D3E90023FFF76EF802460B46E0
:1015700010461946FFF718FB03461A46234B1A601C
:10158000224B1B68B3F57A6F40F28B801F4B4FF4F0
:101590007A621A6085E000BF7B14AE47E17A943F1F
:1015A0003A950BDB2F94A53E3956A30304067C3FE6
:1015B0007C0B00200400002008000020800A00208E
:1015C0006C0B0020700B002000140048280900203C
:1015D000AC070020DC080020810B0020640A0020FA
:1015E0005000002054000020000000202C000020AB
:1015F0000C00002014000020600000205800002093
:101600009C0600205C0000204C000020600A0020A6
:10161000A74BD3ED007AB0EE007AF4EEC77AF1EE84
:1016200010FA3EDBA24BD3ED007AB7EE007A77EEEC
:10163000C77AF7EE006A86EEA77AB0EE470A02F0A4
:1016400003F910EE103A1846FEF7A6FF02460B46C5
:1016500091A1D1E90001FEF73FFE02460B4610467C
:1016600019468FA3D3E90023FEF7EEFF02460B468F
:1016700014461D468F4B1B681846FEF78DFF024629
:101680000B4620462946FEF7DFFF02460B46104672
:101690001946FFF7D1FA0346874A1360874B0022A9
:1016A0001A60854B1B681846FEF776FF7EA3D3E9C8
:1016B0000023FFF73BFA0346002B3AD07E4B93ED15
:1016C000007AF7EE006AC6EE877AFDEEE77A17EE4B
:1016D000902A7B4B1A607A4B1B687A4A934202DD50
:1016E000774B784A1A60784B93ED007A744B1B68FD
:1016F00007EE903AF8EEE77A77EE677AFDEEE77A52
:1017000017EE903A002BB8BF5B4244F61F6293423B
:101710000FDD6B4B1B681A4600216C4801F02CFA58
:10172000674B1B6807EE903AF8EEE77A664BC3ED1D
:10173000007A674B1B68002B5CDD664B1B6807EE6D
:10174000903AF8EE677A9FED647A27EE877A604BDD
:101750001B6807EE903AF8EEE76AB7EE006AC6EE4D
:10176000267A27EE277A5D4BD3ED007A67EE277A4B
:101770005B4BC3ED007A5A4B93ED007AF7EE006AAB
:10178000C6EE877AFDEEE77A17EE902A554B1A607F
:10179000544B1B684B4A934202DD524B494A1A6034
:1017A000514B93ED007A4F4B1B6807EE903AF8EEE1
:1017B000E77A77EE677AFDEEE77A17EE903A002B3C
:1017C000B8BF5B42494A934214DD494B9B681A46B5
:1017D000484B1A60434B1B681A460421464801F0E7
:1017E000CBF9404B1B6807EE903AF8EEE77A3E4B98
:1017F000C3ED007A414B1B78DBB2002B13D1404B79
:101800001B68404A126811469FED3F0A49F6404264
:10181000184601F099FB0346394A13603B4B1B689D
:101820003B4A136003E03B4B1B68394A1360344B5F
:101830001B68002B1CDD274B1B681C46304B1968AE
:10184000334B1B68344A12683448D0ED007A344870
:1018500090ED007A019200939FED2B1AF0EE470A6B
:10186000B0EE670A0B4622462E49194801F0BEFB2E
:101870002D4B1B68002B0CD1012220212B4805F099
:1018800077FD294B01221A6003E0294B00221A70D0
:10189000D0E0CFE0AFF30080182D4454FB21094085
:1018A0003A950BDB2F94A53EFCA9F1D24D62503F37
:1018B0002C0000200C00002014000020600A0020F2
:1018C0001C000020002D310124000020AC07002066
:1018D000580A002054000020CF2E9731100000201D
:1018E0001800002020000020280000209F86010012
:1018F00010E000E0A00B0020DC080020800A00209F
:10190000080000200000002017B7513838000020E0
:10191000400000203C000020680B00203000002028
:10192000340000206C0B00207C0B002000080048D5
:10193000810B002000222021404805F019FD40487D
:1019400008F0EEFB002280213E4805F011FD002248
:101950004FF480713C4805F00BFD002201213B480B
:1019600005F006FD00224021344805F001FD00226B
:101970000221354805F0FCFC00224FF40071344888
:1019800005F0F6FC012220212F4805F0F1FC31483A
:1019900008F0DEFA304B00221A60304B00221A7039
:1019A0002F4B04221A7046E000222021234805F024
:1019B000DFFC01220421264805F0DAFC204808F06B
:1019C000AFFB284B00221A70274B00221A70224BC3
:1019D00000221A60254B01221A60254B01221A6051
:1019E000244B01221A80244B4FF07E521A60234B65
:1019F0004FF07E521A60224B4FF07E521A60214BFC
:101A000000221A60204B00221A60204B01221A602B
:101A100004211F4808F01CFD00211E4808F018FD95
:101A20000F4B01221A7006E000BFFFF76ABB00BF30
:101A3000FFF767BB00BFFFF764BB00BF00080048AB
:101A4000280900200004004800100048000C00484D
:101A500000140048900800207C0B0020740B00202C
:101A6000770B0020810B0020800A0020580A0020FC
:101A70005C0A0020880A00201400002018000020C2
:101A80002C0000206C0B0020700B0020600A00204E
:101A9000DC080020AC07002080B594B000AF07F14F
:101AA000180338220021184610F029FA3B1D0022A5
:101AB0001A605A609A60DA601A614FF4007007F099
:101AC000BFF92223BB614FF480737B624023BB626A
:101AD00001233B6302237B630223BB630423FB6379
:101AE0004B233B6402237B640223BB640223FB641D
:101AF00007F11803184607F057FA0346002B01D0E8
:101B000001F0EAFF0F237B600323BB600023FB602F
:101B100000233B6100237B613B1D0421184607F035
:101B200055FD0346002B01D001F0D6FF00BF503712
:101B3000BD4680BD80B58CB000AF07F12403002204
:101B40001A605A609A603B1D20220021184610F04E
:101B5000D6F9324B4FF0A0421A60304B4FF440326E
:101B60005A602E4B00229A602C4B0022DA602B4BDD
:101B700000221A61294B00225A61284B04229A61E3
:101B8000264B00221A77254B00225A77234B01223D
:101B90001A62224B002283F82420204B0022DA62B2
:101BA0001E4B00221A631D4B002283F838201B4B6A
:101BB0000022DA63194B002283F84020174803F013
:101BC00079F80346002B01D001F086FF00237B62E9
:101BD00007F124031946114804F08EF90346002B3F
:101BE00001D001F079FF0E4B7B600623BB60072319
:101BF000FB607F233B6104237B610023BB613B1DB2
:101C00001946064803F0FAFA0346002B01D001F00A
:101C100063FF00BF3037BD4680BD00BFCC0300204E
:101C2000000084CB80B58CB000AF07F12403002204
:101C30001A605A609A603B1D20220021184610F05D
:101C40005EF9574B574A1A60554B4FF4A0125A6031
:101C5000534B00229A60524B0022DA60504B002214
:101C60001A614F4B01225A614D4B04229A614C4B31
:101C700000221A774A4B01225A77494B05221A62F1
:101C8000474B002283F82420454B0022DA62444B64
:101C900000221A63424B012283F83820404B4FF454
:101CA0008052DA633E4B002283F840203C4803F028
:101CB00001F80346002B01D001F00EFF00237B62E8
:101CC00007F124031946364804F016F90346002BA1
:101CD00001D001F001FF344B7B600623BB60002381
:101CE000FB607F233B6100237B612623BB614FF0B8
:101CF0008073FB61002387F820303B1D194628487C
:101D000003F07CFA0346002B01D001F0E5FE274BDF
:101D10007B600C23BB6001237B612523BB613B1DE2
:101D200019461F4803F06AFA0346002B01D001F060
:101D3000D3FE1F4B7B601223BB6002237B61082311
:101D4000BB613B1D1946164803F058FA0346002BA9
:101D500001D001F0C1FE174B7B601823BB60042348
:101D60007B610023BB613B1D19460D4803F046FA19
:101D70000346002B01D001F0AFFE0F4B7B604FF408
:101D80008073BB603B1D1946054803F037FA0346D4
:101D9000002B01D001F0A0FE00BF3037BD4680BD52
:101DA00038040020000400500200300404006008E1
:101DB0000800900C1000C0102000F01480B588B00E
:101DC00000AF3B4620220021184610F098F82B4B1C
:101DD0002B4A1A60294B4FF4A0125A60274B00225D
:101DE0009A60264B0022DA60244B00221A61234BB2
:101DF00000225A61214B04229A61204B00221A775B
:101E00001E4B01225A771D4B01221A621B4B0022E6
:101E100083F82420194B0022DA62184B00221A633F
:101E2000164B012283F83820144B4FF48052DA63AA
:101E3000124B002283F84020104802F03BFF03467B
:101E4000002B01D001F048FE0E4B3B6006237B6067
:101E50000723BB607F23FB6004233B6100237B617E
:101E60003B461946054803F0C9F90346002B01D04B
:101E700001F032FE00BF2037BD4680BDA404002023
:101E8000000500500200300480B588B000AF3B462A
:101E900020220021184610F032F8314B314A1A60E6
:101EA0002F4B4FF4A0125A602D4B00229A602C4BFE
:101EB0000022DA602A4B00221A61294B00225A6163
:101EC000274B04229A61264B00221A77244B0122C9
:101ED0005A77234B01221A62214B002283F82420D7
:101EE0001F4B0022DA621E4B00221A631C4B012298
:101EF00083F838201A4B0022DA63194B012283F849
:101F00004020174B1C225A64154B4FF480729A6480
:101F1000134B0022DA64124B01221A65104802F0BA
:101F2000C9FE0346002B01D001F0D6FD0E4B3B60ED
:101F300006237B600023BB607F23FB6004233B619F
:101F400000237B613B461946054803F057F90346D9
:101F5000002B01D001F0C0FD00BF2037BD4680BD81
:101F600010050020000600500200300480B500AFCC
:101F7000064B074A1A60054804F0C6F80346002BD2
:101F800001D001F0A9FD00BF80BD00BF9C0600206C
:101F9000000C024080B58CB000AF3B4630220021DF
:101FA00018460FF0ACFF1E4B1E4A1A601C4804F086
:101FB000F4FA0346002B01D001F08EFD02233B60B2
:101FC00000233B7100237B710023BB600023FB6077
:101FD00000233B6100237B610123BB610023FB6184
:101FE0003B46002219460E4804F0F4FB0346002B42
:101FF00001D001F071FD3B4610221946084804F05B
:10200000E9FB0346002B01D001F066FD044B064AB4
:102010009A60054B024A9A6200BF3037BD4680BDC8
:10202000C406002000080050EC06002080B58CB0EB
:1020300000AF3B463022002118460FF060FF164BE0
:10204000164A1A60144804F0A8FA0346002B01D07F
:1020500001F042FD02233B6000233B7100237B71B2
:102060000023BB600023FB6000233B6100237B61F6
:102070000123BB610023FB613B4600221946064851
:1020800004F0A8FB0346002B01D001F025FD00BFA2
:102090003037BD4680BD00BFD8060020000C005080
:1020A00080B598B000AF07F1540300221A605A605F
:1020B0009A6007F1380300221A605A609A60DA6069
:1020C0001A615A619A613B1D3422002118460FF0B3
:1020D00016FF3E4B3E4A1A603C4B00225A603B4B77
:1020E00000229A60394BD222DA60384B00221A6102
:1020F000364B00225A61354B00229A61334808F072
:102100003EF80346002B01D001F0E6FC00237B657E
:102110000023BB650023FB6507F1540319462B48D8
:1021200009F074FA0346002B01D001F0D5FC6023BE
:10213000BB630023FB6300233B6400237B64002319
:10214000BB640023FB6400233B6507F138030022D6
:1021500019461E4808F068FB0346002B01D001F029
:10216000BBFC1A4B1B689A69184B1B6822F00802CB
:102170009A6100237B600023BB600023FB60002387
:102180003B6100237B614FF40053BB610023FB6183
:1021900000233B6200237B624FF00073BB6200238D
:1021A000FB6200233B6300237B633B1D194607480A
:1021B00009F0C2FA0346002B01D001F08DFC034860
:1021C00002F032F800BF6037BD4680BDAC0700208A
:1021D000002C014080B58EB000AF07F1280300222B
:1021E0001A605A609A60DA6007F11C0300221A60D4
:1021F0005A609A603B4600221A605A609A60DA6020
:102200001A615A619A612D4B2D4A1A602B4B00229C
:102210005A602A4B00229A60284B40F2A722DA60CB
:10222000264B00221A61254B00229A61234807F0B1
:1022300037FE0346002B01D001F04EFC4FF48053D3
:10224000BB6207F1280319461C4808F001FC03464D
:10225000002B01D001F040FC184807F090FF034626
:10226000002B01D001F038FC0023FB6100237B62CE
:1022700007F11C031946114809F0C8F90346002B61
:1022800001D001F029FC60233B6000237B60002328
:10229000BB6000233B613B4600221946074808F01B
:1022A000C3FA0346002B01D001F016FC034801F0ED
:1022B000BBFF00BF3837BD4680BD00BFF807002018
:1022C0000008004080B584B000AF3B1D00221A60BA
:1022D0005A609A60194B1A4A1A60184B42F61D52FE
:1022E0005A60164B00229A60144B4FF6A652DA60E1
:1022F000124B00229A61114807F0D2FD0346002BD1
:1023000001D001F0E9FB00237B600023FB603B1D53
:1023100019460A4809F07AF90346002B01D001F06A
:10232000DBFB00220021362004F003F9362004F004
:102330001AF900BF1037BD4680BD00BF4408002019
:102340000010004080B584B000AF3B1D00221A6031
:102350005A609A60144B154A1A60134B43F6972241
:102360005A60114B00229A600F4B0922DA600E4B23
:1023700000229A610C4807F093FD0346002B01D020
:1023800001F0AAFB00237B600023FB603B1D194684
:10239000054809F03BF90346002B01D001F09CFBF6
:1023A00000BF1037BD4680BD9008002000140040DB
:1023B00080B598B000AF07F1540300221A605A604C
:1023C0009A6007F1380300221A605A609A60DA6056
:1023D0001A615A619A613B1D3422002118460FF0A0
:1023E0008EFD3E4B3E4A1A603C4B00225A603B4BEE
:1023F00000229A60394BD222DA60384B00221A61EF
:10240000364B00225A61354B00229A61334807F05F
:10241000B6FE0346002B01D001F05EFB00237B6576
:102420000023BB650023FB6507F1540319462B48C5
:1024300009F0ECF80346002B01D001F04DFB6023BE
:10244000BB630023FB6300233B6400237B64002306
:10245000BB640023FB6400233B6507F138030422BF
:1024600019461E4808F0E0F90346002B01D001F0A0
:1024700033FB1A4B1B689A69184B1B6822F40062E5
:102480009A6100237B600023BB600023FB60002374
:102490003B6100237B614FF40053BB610023FB6170
:1024A00000233B6200237B624FF00073BB6200237A
:1024B000FB6200233B6300237B633B1D19460748F7
:1024C00009F03AF90346002B01D001F005FB03485F
:1024D00001F0AAFE00BF6037BD4680BDDC080020C9
:1024E0000034014080B588B000AF07F1100300222E
:1024F0001A605A609A60DA603B1D00221A605A60C6
:102500009A601F4B1F4A1A601D4B40F2DB525A6003
:102510001B4B00229A601A4B0422DA60184B0022EF
:102520001A61174B00225A61154B00229A61144818
:1025300007F0B6FC0346002B01D001F0CDFA4FF4B2
:1025400080533B6107F1100319460D4808F080FAEB
:102550000346002B01D001F0BFFA00237B6000236B
:10256000FB603B1D1946064809F050F80346002B56
:1025700001D001F0B1FA00BF2037BD4680BD00BFD9
:10258000280900200040014080B500AF0F4B104AE1
:102590001A600E4B43F697225A600C4B00229A6049
:1025A0000A4B0922DA60094B00221A61074B00220C
:1025B0005A61064B00229A61044807F071FC0346F9
:1025C000002B01D001F088FA00BF80BD7409002003
:1025D0000044014080B500AF224B234A1A60214BD2
:1025E0004FF4E1325A601F4B00229A601D4B0022CB
:1025F000DA601C4B00221A611A4B0C225A61194BEB
:1026000000229A61174B0022DA61164B00221A62EF
:10261000144B00225A62134B00229A62114809F0AF
:1026200065F90346002B01D001F056FA00210D4850
:1026300009F000FF0346002B01D001F04DFA002104
:10264000084809F035FF0346002B01D001F044FA99
:10265000044809F0B6FE0346002B01D001F03CFA15
:1026600000BF80BDC0090020004C004080B582B092
:1026700000AF224B9B6C214A43F0040393641F4B31
:102680009B6C03F004037B607B681C4B9B6C1B4AB8
:1026900043F001039364194B9B6C03F001033B600F
:1026A0003B68002200210B2003F043FF0B2003F0C6
:1026B0005AFF002200210C2003F03BFF0C2003F006
:1026C00052FF002200210D2003F033FF0D2003F004
:1026D0004AFF002200210E2003F02BFF0E2003F002
:1026E00042FF002200210F2003F023FF0F2003F000
:1026F0003AFF00BF0837BD4680BD00BF0010024052
:1027000080B58CB000AF07F11C0300221A605A603C
:102710009A60DA601A619A4BDB6C994A43F01003B5
:10272000D364974BDB6C03F01003BB61BB69944B24
:10273000DB6C934A43F00403D364914BDB6C03F0EE
:1027400004037B617B698E4BDB6C8D4A43F0200375
:10275000D3648B4BDB6C03F020033B613B69884BFC
:10276000DB6C874A43F00103D364854BDB6C03F0D9
:102770000103FB60FB68824BDB6C814A43F0020380
:10278000D3647F4BDB6C03F00203BB60BB687C4B04
:10279000DB6C7B4A43F00803D364794BDB6C03F0BA
:1027A00008037B607B6800222021764804F0E0FD6E
:1027B00001224FF40071744804F0DAFD0022282150
:1027C000724804F0D5FD002204216F4804F0D0FDCA
:1027D00001224FF481716B4804F0CAFD01224021AF
:1027E0006A4804F0C5FD01220121694804F0C0FDDA
:1027F00001228021674804F0BBFD40F61503FB6110
:1028000000233B6200237B6207F11C0319465D48ED
:1028100004F014FC2023FB6101233B6200237B6254
:102820000023BB6207F11C031946564804F006FC5E
:102830004FF40073FB6111233B6200237B62002392
:10284000BB6207F11C0319464F4804F0F7FB4FF435
:102850008063FB6100233B6200237B6207F11C0362
:102860001946494804F0EAFB4FF40173FB61002369
:102870003B6200237B6207F11C031946434804F0C6
:10288000DDFB2823FB6101233B6200237B620023E5
:10289000BB6207F11C0319463C4804F0CFFB04233C
:1028A000FB6101233B6200237B620023BB6207F1D3
:1028B0001C031946344804F0C1FB0123FB610023CB
:1028C0003B6200237B6207F11C031946314804F088
:1028D000B5FB4FF48173FB6111233B6200237B62E4
:1028E0000023BB6207F11C031946264804F0A6FB2F
:1028F0004023FB6111233B6200237B620023BB6208
:1029000007F11C031946214804F098FB4FF480633B
:10291000FB6100233B6200237B6207F11C03194625
:102920004FF0904004F08AFB0123FB6111233B62CE
:1029300000237B620023BB6207F11C031946144885
:1029400004F07CFB7023FB6100233B6200237B626D
:1029500007F11C0319460E4804F070FB8023FB614D
:1029600011233B6200237B620023BB6207F11C033F
:102970001946084804F062FB00BF3037BD4680BDF1
:1029800000100240001000480014004800080048F1
:10299000000C00480004004880B483B000AF034638
:1029A0000A46FB711346BB71FB79042B39D801A28F
:1029B00052F823F0C9290008D7290008E5290008A2
:1029C000012A00080F2A0008BB79002B2BD1012314
:1029D000FB71012331E0BB79002B26D10223FB716F
:1029E00002232AE0BB79012B03D10323FB710323CC
:1029F00023E0BB79032B1AD10423FB7104231CE0D1
:102A0000BB79022B15D10123FB71012315E0BB79A2
:102A1000002B10D10C4B00221A600223FB71022301
:102A20000BE000BF08E000BF06E000BF04E000BF0D
:102A300002E000BF00E000BFFB7918460C37BD463E
:102A40005DF8047B704700BF7C0B002080B485B02C
:102A500000AF78607B68642B01D964237B600B4BEB
:102A6000DB6801337A6802FB03F3094AA2FB032304
:102A70005B09013BFB60054B1B68FA685A6300BFAA
:102A80001437BD465DF8047B704700BFF80700208F
:102A90001F85EB510000000080B584B000AF786066
:102AA0007B681B682E4A93424FD12E4B1B78DBB2BA
:102AB000002B4AD00023FB600023BB600BE02A4AB6
:102AC000BB6832F813309BB21A46FB681344FB60B4
:102AD000BB680133BB60BB68092BF0DDFB68234A90
:102AE000A2FB0323DB0840F6E44202FB03F31B0BCB
:102AF0009AB21F4B1A801E4B1B88A3F2AA5318468A
:102B0000FDF738FD14A3D3E90023FDF79DFD024630
:102B10000B4610461946FEF747F803461AB2154B06
:102B20001A80144BB3F9003013F57A7F03DA114B96
:102B30004FF618421A800F4BB3F90030B3F57A7F85
:102B400003DD0C4B4FF47A721A8000BF1037BD467C
:102B500080BD00BFAFF30080FA7E6ABC7493D83F9B
:102B600000060050810B00208C0A0020CDCCCCCC7C
:102B7000A00A0020880A002080B489B000AFF86065
:102B8000B9607A60334BBB61FB685B6801337B6182
:102B90007B697A6802FB03F3BA69B2FBF3F3013B8A
:102BA000FB61FB69B3F5803F14D3FB691B0C7A69A9
:102BB00002FB03F301337B617B697A6802FB03F359
:102BC000BA69B2FBF3F3013BFB61FB681B687A69EE
:102BD000013A9A62FB681B68FA69DA62FB68FA6973
:102BE000DA60FB695B083B61BB68002B04D1FB68C2
:102BF0001B683A695A6323E0BB68042B04D1FB6865
:102C00001A683B6993631BE0BB68082B04D1FB681F
:102C10001A683B69D36313E0BB680C2B04D1FB68D3
:102C20001A683B6913640BE0BB68102B04D1FB6886
:102C30001A683B69936403E0FB681A683B69D364D4
:102C4000FB681B6801225A6100BF2437BD465DF84E
:102C5000047B704780D1F00880B500AF012118488F
:102C600004F06EFB0346002B26D01021144804F01C
:102C700067FB0346002B1FD00421114804F060FBC2
:102C80000346002B18D04FF400610D4804F058FBA8
:102C90000346002B10D040210A4804F051FB0346A4
:102CA000002B09D04FF40071074804F049FB03469C
:102CB000002B01D0002300E00123184680BD00BF97
:102CC00000100048000C00480008004880B500AF24
:102CD0001021114804F034FB0346002B19D00121C8
:102CE0000E4804F02DFB0346002B12D04FF48061F8
:102CF0000B4804F025FB0346002B0AD04FF48061FB
:102D00004FF0904004F01CFB0346002B01D0012340
:102D100000E00023184680BD000C00480004004875
:102D20000014004800000000B0B582B000AF786029
:102D30007B681B68704A934240F0B1806F4B1B78F0
:102D4000022B40F0A5806E4B9B889BB2F03B18464F
:102D5000FDF710FC62A3D3E90023FDF775FC0246E2
:102D60000B461046194660A3D3E90023FDF76CFC1F
:102D700002460B4610461946FDF73EFF0346614AE0
:102D80001360614B5B889BB2EE3B1846FDF7F2FB8C
:102D900053A3D3E90023FDF757FC02460B46104628
:102DA000194651A3D3E90023FDF74EFC02460B461A
:102DB00010461946FDF720FF0346544A1360544B52
:102DC0001B881846FDF7D6FB04460D46514B1B6881
:102DD0001846FDF7CFFB46A3D3E90023FDF734FCEB
:102DE00002460B4620462946FDF778FA02460B4676
:102DF00010461946FDF700FF034600220021464811
:102E000003F0B0FC454B1B881846FDF7B3FB0446A6
:102E10000D46404B1B681846FDF7ACFB34A3D3E9C5
:102E20000023FDF711FC02460B4620462946FDF71C
:102E300055FA02460B4610461946FDF7DDFE0346DD
:102E400000221021344803F08DFC314B1B881846BA
:102E5000FDF790FB04460D46314B1B681846FDF705
:102E600089FB4FF000022F4BFDF7EEFB02460B46AD
:102E700020462946FDF730FA02460B461046194611
:102E8000FDF7BAFE034600220021274803F06AFC42
:102E90000821264804F084FA254B01221A707B6829
:102EA0001B68244A934201D100F052F97B681B68E9
:102EB000214A934210D10221204804F071FA4FF4C4
:102EC00000711F4804F06CFA002220211B4804F016
:102ED0004FFA1C4807F024F900BF0837BD46B0BDC3
:102EE000D3BCE3141DC9E93F0000000000A07740F7
:102EF0009A9999999999993F00400140770B002040
:102F0000700A0020640A00207C0A002004000020CF
:102F1000540A0020580A0020C4060020560A002047
:102F2000600A00200000D03FD806002000080048BA
:102F3000810B0020001000400014004000100048E9
:102F4000001400489008002080B485B000AFF860FD
:102F5000B9607A6087ED000ABA68FB68D31A0A2B59
:102F600015DDFB6807EE903AB8EEE77A7B6807EE6E
:102F7000903AF8EEE76AD7ED007A66EEA77A77EE38
:102F8000277AFDEEE77A17EE903AFB601AE0BA680E
:102F9000FB68D31A13F10A0F14DAFB6807EE903AB4
:102FA000B8EEE77A7B6807EE903AF8EEE76AD7ED7D
:102FB000007A66EEA77A77EE677AFDEEE77A17EE8B
:102FC000903AFB60BB68323BFA689A4204DBBB680C
:102FD000FB60054B01221A70FB6818461437BD468A
:102FE0005DF8047B704700BF800A002080B489B080
:102FF00000AFF861B9617A613B6187ED030AC7ED03
:10300000020A87ED011A3A697B69D31A324A1360C2
:10301000BB691B68304A1168304A12680A4407EEDF
:10302000902AB8EEE77A97ED036AD7ED027AC6EEFA
:10303000276AD7ED017A66EEA77AF6EE006A67EEA8
:10304000A67A67EE277AFDEEE77A17EE902A1A4401
:10305000BB691A60204B1B68204A1360BB691B6860
:10306000BA6A9A4202DCBB69BA6A1A60BB691B6819
:10307000FA6A9A4202DBBB69FA6A1A60164B1B684D
:1030800007EE903AB8EEE77AD7ED037A27EE277A83
:10309000BB691B6807EE903AF8EEE77A77EE277A7D
:1030A000FDEEE77A17EE902AFB691A60FB691B6850
:1030B000BA6A9A4202DCFB69BA6A1A60FB691B6849
:1030C000FA6A9A4202DBFB69FA6A1A6000BF243787
:1030D000BD465DF8047B7047840A0020700B002019
:1030E000B0B582B000AF87ED010AC7ED000A3868BD
:1030F000FDF752FA12A3D3E90023FDF7A5FA024621
:103100000B4614461D467868FDF746FA0EA3D3E930
:103110000023FDF799FA02460B4620462946FDF7A3
:10312000DDF802460B4610461946FDF785FD0346BD
:1031300007EE903AB0EE670A0837BD46B0BD00BF53
:10314000CDCCCCCCCCCCEC3F9A9999999999B93FFC
:1031500080B582B000AF444BDB889BB21A4640F684
:10316000E44302FB03F3002B01DA03F6FF731B13A6
:103170001A463E4B1A603C4B1B899BB21A4640F6DE
:10318000E44302FB03F3002B01DA03F6FF731B1386
:103190001A46374B1A6014233B60344B1B68A3F567
:1031A000C873344AA2FB03231B09304A1360304B17
:1031B0001B68A3F5FA732F4AA2FB0323DB082C4AF2
:1031C00013602B4B1A68294B1B68934238BF134678
:1031D0003B603B68642202FB03F3A3F5FA63254AD4
:1031E000A2FB03239B097B607B68642B01D96423CA
:1031F0007B607868FDF7AEF902460B469FED161B23
:1032000043EC102B12F05CFE51EC100B14A3D3E92D
:103210000023FDF719FA02460B4610461946FDF742
:10322000C3FC0346144A82FB03129214DB17D31A21
:103230001433124A13603B68132B03D80F4B14222C
:103240001A6005E03B68642B02D90C4B63221A60BC
:1032500000BF0837BD4680BD0000000000000840E8
:103260000000000000C05340700A0020680A0020DF
:103270006C0A0020CDCCCCCC83DE1B434800002060
:1032800080B584B000AF78607868FDF719F8034620
:10329000FB81FB897F2B01D97F23FB81FB891A46A8
:1032A00079680B480EF0BDFEFB89094A0021D15414
:1032B000FB89194678680DF01DFA03467B737B7B0A
:1032C000012BF5D000BF00BF1037BD4680BD00BF49
:1032D000E40A002080B500AFA74B1B78DBB2002BBF
:1032E00000F047810622A549A5480EF010FE0346CE
:1032F000002B08D1A34AA449A1480EF08FFDA34892
:10330000FFF7BEFF2DE10622A1499D480EF0FFFD0B
:103310000346002B08D19F4A9F4999480EF07EFD35
:103320009E48FFF7ADFF1CE108229D4994480EF02E
:10333000EEFD0346002B08D19A4A9B4990480EF0B7
:103340006DFD9A48FFF79CFF0BE10C2298498C48D1
:103350000EF0DDFD0346002B08D1964A96498848B9
:103360000EF05CFD9548FFF78BFFFAE00C229449C4
:1033700083480EF0CCFD0346002B08D1914A9249B8
:103380007F480EF04BFD9148FFF77AFFE9E00D22F0
:103390008F497B480EF0BBFD0346002B08D18D4AB8
:1033A0008D4977480EF03AFD8C48FFF769FFD8E069
:1033B0000C228B4972480EF0AAFD0346002B08D15F
:1033C000884A89496E480EF029FD8848FFF758FF62
:1033D000C7E00C2286496A480EF099FD0346002B8F
:1033E00008D1844A844966480EF018FD8348FFF7E7
:1033F00047FFB6E00622824961480EF088FD034689
:10340000002B0ED15F4B1B681846FDF7C5F802462E
:103410000B467C497C480EF0DFFC7B48FFF730FF11
:103420009FE00622794956480EF071FD0346002BB5
:103430000ED1584B1B681846FDF7AEF802460B46F6
:10344000734971480EF0C8FC6F48FFF719FF88E018
:10345000082270494A480EF05AFD0346002B0AD153
:10346000504B1B681A466C4967480EF0B5FC66481D
:10347000FFF706FF75E00C22684941480EF047FD52
:103480000346002B0AD14B4B1B881A4664495E4801
:103490000EF0A2FC5C48FFF7F3FE62E00C226149EB
:1034A00037480EF034FD0346002B0AD1454B1B88EC
:1034B0001A465D4954480EF08FFC5348FFF7E0FE72
:1034C0004FE00D2259492E480EF021FD0346002BF6
:1034D0000BD1404BB3F900301A4655494A480EF01B
:1034E0007BFC4948FFF7CCFE3BE00C2251492448C5
:1034F0000EF00DFD0346002B0ED13A4B1B6818460B
:10350000FDF74AF802460B464B493F480EF064FC73
:103510003D48FFF7B5FE24E00C22484918480EF05C
:10352000F6FC0346002B0ED1324B1B681846FDF704
:1035300033F802460B46424933480EF04DFC324800
:10354000FFF79EFE0DE00B223E490D480EF0DFFC1A
:103550000346002B02D100F0C3F902E03A48FFF71E
:103560008FFE4022002106480EF0C9FC024B0022CB
:103570001A7000BF80BD00BF640B0020D86D010829
:10358000A40A002030000020E06D0108EC6D010865
:10359000F86D010834000020006E01080C6E01086F
:1035A000186E010800000020246E0108346E010826
:1035B000446E0108540A0020546E0108646E01082C
:1035C000846E0108560A0020946E0108A46E01085A
:1035D000C46E0108880A0020D46E0108E86E010854
:1035E000FC6E0108140000200C6F01081C6F01081C
:1035F000306F010818000020406F0108506F01086B
:10360000646F01086C6F0108E40A0020786F0108FC
:10361000806F01088C6F0108986F0108A46F010882
:10362000B46F0108D06F0108E06F0108FC6F01085A
:103630000C7001081C7001082C7001083C70010816
:103640004C7001085C7001086870010880B487B094
:1036500000AF87ED030AB8600B46FB71FB79202BA6
:1036600035D1D7ED037AB7EE007AF4EEC77AF1EEF2
:1036700010FA11D8BB6807EE903AB8EEE77AD7EDAA
:10368000037A67EE277A9FED327A67EE877AFCEE4F
:10369000E77A17EE903A7B61D7ED037AB7EE007ABE
:1036A000F4EEC77AF1EE10FA11DDBB6807EE903A3E
:1036B000B8EEE77AD7ED036AC6EE877A9FED247AF3
:1036C00067EE877AFCEEE77A17EE903A7B61FB793A
:1036D000102B35D1D7ED037AB7EE007AF4EEC77A26
:1036E000F1EE10FA11D8BB6807EE903AB8EEE77A1F
:1036F000D7ED037A67EE277A9FED167A67EE877A21
:10370000FCEEE77A17EE903A7B61D7ED037AB7EEDD
:10371000007AF4EEC77AF1EE10FA11DDBB6807EE1D
:10372000903AB8EEE77AD7ED036AC6EE877A9FED56
:10373000097A67EE877AFCEEE77A17EE903A7B61BA
:103740007B6918461C37BD465DF8047B704700BF97
:103750000000004F00FEFF4680B487B000AFF86065
:10376000B96011461A460B46FB711346BB71BB7913
:10377000202B2BD197F90730002B11D0FB6807EED7
:10378000903AF8EEE77A9FED2E7AC7EE876ABB682B
:1037900007EE903AB8EEE77AC6EE877AC7ED057A7B
:1037A00097F90730002B11D1FB6807EE903AF8EE3D
:1037B000E77ADFED236A87EEA67ABB6807EE903AD8
:1037C000F8EEE77A67EE277AC7ED057ABB79102B1A
:1037D0002BD197F90730002B11D0FB6807EE903AF8
:1037E000F8EEE77A9FED177AC7EE876ABB6807EEB7
:1037F000903AB8EEE77AC6EE877AC7ED057A97F980
:103800000730002B11D1FB6807EE903AF8EEE77A0B
:10381000DFED0C6A87EEA67ABB6807EE903AF8EE09
:10382000E77A67EE277AC7ED057A7B6907EE903A6B
:10383000B0EE670A1C37BD465DF8047B704700BFD9
:103840000000004F00FEFF4680B584B000AF87ED5A
:10385000010AD7ED017ABFEE007AF4EEC77AF1EEF5
:1038600010FA02D51A4B7B600BE0D7ED017AB7EE68
:10387000007AF4EEC77AF1EE10FA02DD4FF07E53D3
:103880007B60B7EE007AD7ED017A77EE677AB0EE1B
:10389000670A12F085FB87ED030AD7ED017A9FEDE9
:1038A0000D7A67EE877A9FED0C7A37EEC77AD7EDFF
:1038B000017A67EE277A9FED097A37EE877AD7ED9E
:1038C000037A67EE277AB0EE670A1037BD4680BDEF
:1038D000000080BF9E3AB63DCABF5B3EDA0FC93FCB
:1038E00080B5A0B000AF5E4B1B681846FCF754FED5
:1038F00002460B4638465B490EF06EFA3B461846C8
:10390000FFF7BEFC584B1B681846FCF745FE024605
:103910000B46384655490EF05FFA3B461846FFF70E
:10392000AFFC534B1A683B46524918460EF054FA06
:103930003B461846FFF7A4FC4F4B1A683B464F49DD
:1039400018460EF049FA3B461846FFF799FC4C4BD7
:103950001A683B464B4918460EF03EFA3B4618465D
:10396000FFF78EFC484B1A683B46484918460EF054
:1039700033FA3B461846FFF783FC454B1A683B4633
:10398000444918460EF028FA3B461846FFF778FCE3
:10399000414B1A683B46414918460EF01DFA3B461A
:1039A0001846FFF76DFC3E4B1A683B463D491846EA
:1039B0000EF012FA3B461846FFF762FC3A4B1A68C3
:1039C0003B463A4918460EF007FA3B461846FFF7C1
:1039D00057FC374B1B881A463B46364918460EF0B3
:1039E000FBF93B461846FFF74BFC334B1B881A4646
:1039F0003B46324918460EF0EFF93B461846FFF7B2
:103A00003FFC2F4BB3F900301A463B462D49184670
:103A10000EF0E2F93B461846FFF732FC2A4B1B68D2
:103A20001846FCF7B9FD02460B46384627490EF00A
:103A3000D3F93B461846FFF723FC254B1B68184675
:103A4000FCF7AAFD02460B46384622490EF0C4F99F
:103A50003B461846FFF714FC00BF8037BD4680BDCB
:103A6000300000206C6F010834000020806F0108D6
:103A700000000020986F0108580A00207C7001089F
:103A80005C0A002088700108600A00209470010818
:103A9000640A0020A070010804000020B47001082E
:103AA000680A0020CC7001086C0A0020DC70010854
:103AB000540A0020B46F0108560A0020E06F010884
:103AC000880A00200C700108140000202C700108E6
:103AD000180000204C70010880B400AF72B600BF1F
:103AE00000BFFDE780B582B000AF0F4B1B6E0E4AE2
:103AF00043F0010313660C4B1B6E03F001037B6064
:103B00007B68094B9B6D084A43F080539365064BD5
:103B10009B6D03F080533B603B6805F035FA00BFB6
:103B20000837BD4680BD00BF0010024080B5A4B07C
:103B300000AF786007F17C0300221A605A609A6037
:103B4000DA601A6107F128035422002118460EF0AA
:103B5000D6F97B681B68B3F1A04F1CD14FF400432A
:103B6000BB624FF00053FB6607F12803184605F0CF
:103B700049FF0346002B01D0FFF7AEFF864BDB6CFD
:103B8000854A43F40053D364834BDB6C03F4005346
:103B90007B627B6A85E17B681B68804A934240F0C8
:103BA00087804FF48033BB624FF080433B6707F15F
:103BB0002803184605F026FF0346002B01D0FFF727
:103BC0008BFF774B1B680133754A1360744B1B687E
:103BD000012B0BD1704BDB6C6F4A43F48043D364F1
:103BE0006D4BDB6C03F480433B623B6A6A4BDB6CDE
:103BF000694A43F00203D364674BDB6C03F00203B2
:103C0000FB61FB69644BDB6C634A43F01003D364D4
:103C1000614BDB6C03F01003BB61BB6942F2020332
:103C2000FB670323C7F880300023C7F8843007F10F
:103C30007C0319465B4803F001FA4FF40A53FB6713
:103C40000323C7F880300023C7F8843007F17C03D2
:103C50001946554803F0F2F9544B554A1A60534B34
:103C600025225A60514B00229A60504B0022DA60A4
:103C70004E4B80221A614D4B4FF480725A614B4B70
:103C80004FF480629A61494B2022DA61474B00224F
:103C90001A62464802F060FF0346002B01D0FFF78E
:103CA0001BFF7B68414A5A65404A7B689362F8E093
:103CB0007B681B683F4A934240F082804FF4803318
:103CC000BB624FF080433B6707F12803184605F0BD
:103CD00099FE0346002B01D0FFF7FEFE304B1B6818
:103CE00001332F4A13602E4B1B68012B0BD12A4B3B
:103CF000DB6C294A43F48043D364274BDB6C03F429
:103D000080437B617B69244BDB6C234A43F01003C7
:103D1000D364214BDB6C03F010033B613B694FF430
:103D20008043FB670323C7F880300023C7F8843043
:103D300007F17C0319461C4803F080F91E4B1F4A0B
:103D40001A601D4B26225A601B4B00229A601A4BA8
:103D50000022DA60184B80221A61174B4FF48072F0
:103D60005A61154B4FF480629A61134B2022DA613D
:103D7000114B4FF440521A620F4802F0EDFE034619
:103D8000002B01D0FFF7A8FE7B680B4A5A650A4A50
:103D90007B68936285E000BF001002400004005081
:103DA000A40B002000040048001000487C050020FF
:103DB0000800024000050050DC0500201C00024005
:103DC0007B681B68394A93426BD14FF48033BB62E6
:103DD0004FF080433B6707F12803184605F012FEB9
:103DE0000346002B01D0FFF777FE314B1B680133F0
:103DF0002F4A13602E4B1B68012B0BD12D4BDB6C14
:103E00002C4A43F48043D3642A4BDB6C03F4804395
:103E1000FB60FB68274BDB6C264A43F00103D3644D
:103E2000244BDB6C03F00103BB60BB684FF4807371
:103E3000FB670323C7F880300023C7F8843007F1FD
:103E40007C0319464FF0904003F0F8F81A4B1B4AD8
:103E50001A60194B27225A60174B00229A60164BA2
:103E60000022DA60144B80221A61134B4FF48072E7
:103E70005A61114B4FF480629A610F4B2022DA6134
:103E80000D4B00221A620C4802F066FE0346002B1E
:103E900001D0FFF721FE7B68074A5A65064A7B6816
:103EA000936200BF9037BD4680BD00BF0006005042
:103EB000A40B0020001002403C060020300002400D
:103EC00080B485B000AF78607B681B680A4A934273
:103ED0000BD10A4B9B6C094A43F008039364074BD0
:103EE0009B6C03F00803FB60FB6800BF1437BD4602
:103EF0005DF8047B704700BF000C024000100240D8
:103F000080B58CB000AF786007F11C0300221A6006
:103F10005A609A60DA601A617B681B685B4A934258
:103F200059D15B4BDB6C5A4A43F48033D364584B12
:103F3000DB6C03F48033BB61BB69554BDB6C544ACB
:103F400043F00103D364524BDB6C03F001037B614C
:103F50007B693023FB6103233B6200237B6207F113
:103F60001C0319464FF0904003F068F8494B4A4A49
:103F70001A60484B06225A60464B10229A60454B05
:103F80000022DA60434B80221A61424B4FF40072E8
:103F90005A61404B4FF400629A613E4B2022DA6135
:103FA0003C4B4FF400521A623A4802F0D5FD0346EA
:103FB000002B01D0FFF790FD7B68364A9A60354AA6
:103FC0007B68936200220021362002F0B2FA36208C
:103FD00002F0C9FA55E07B681B68304A934250D121
:103FE0002B4BDB6C2A4A43F40033D364284BDB6C45
:103FF00003F400333B613B69254BDB6C244A43F0FF
:104000000103D364224BDB6C03F00103FB60FB680C
:104010004023FB6103233B6200237B6207F11C0307
:1040200019464FF0904003F009F81D4B1D4A1A60E5
:104030001B4B29225A601A4B10229A60184B0022FF
:10404000DA60174B80221A61154B4FF400725A61E7
:10405000134B4FF400629A61114B2022DA61104B2E
:104060004FF400521A620E4802F076FD0346002B10
:1040700001D0FFF731FD7B68094A9A60084A7B68E6
:10408000936200BF3037BD4680BD00BF00080050BE
:1040900000100240EC06002044000240000C0050DA
:1040A0004C0700205800024080B584B000AF786013
:1040B0007B681B681A4A934214D11A4B1B6E194A2B
:1040C00043F400631366174B1B6E03F40063FB603D
:1040D000FB6800220021182002F02BFA182002F0C1
:1040E00042FA18E07B681B680F4A934213D10D4BCC
:1040F0001B6E0C4A43F4005313660A4B1B6E03F409
:104100000053BB60BB68002200212B2002F011FA93
:104110002B2002F028FA00BF1037BD4680BD00BF3B
:10412000002C0140001002400034014080B588B0EE
:1041300000AF78607B681B68354A93420CD1354BE1
:104140009B6D344A43F004039365324B9B6D03F03F
:104150000403FB61FB6956E07B681B682E4A9342AF
:1041600014D12C4B9B6D2B4A43F010039365294BC4
:104170009B6D03F01003BB61BB6900220021362058
:1041800002F0D7F9362002F0EEF93CE07B681B68BC
:10419000224A93420CD11F4B9B6D1E4A43F02003D1
:1041A00093651C4B9B6D03F020037B617B692AE0C8
:1041B0007B681B681A4A934214D1164B1B6E154A32
:1041C00043F480331366134B1B6E03F480333B615F
:1041D0003B6900220021182002F0ABF9182002F000
:1041E000C2F910E07B681B680E4A93420BD1094B61
:1041F0001B6E084A43F400331366064B1B6E03F430
:104200000033FB60FB6800BF2037BD4680BD00BFA8
:104210000008004000100240001000400014004060
:10422000004001400044014080B58AB000AF786092
:1042300007F1140300221A605A609A60DA601A616A
:104240007B681B68334A93421CD1334BDB6C324A88
:1042500043F00403D364304BDB6C03F004033B6195
:104260003B6901237B610223BB610023FB610223C5
:104270003B6202237B6207F114031946274802F0D0
:10428000DDFE43E07B681B68254A93421DD1224B2B
:10429000DB6C214A43F00803D3641F4BDB6C03F053
:1042A0000803FB60FB684FF480537B610223BB6112
:1042B0000023FB6100233B6202237B6207F11403AE
:1042C0001946184802F0BAFE20E07B681B68164ABF
:1042D00093421BD1104BDB6C0F4A43F00403D364B1
:1042E0000D4BDB6C03F00403BB60BB6880237B6178
:1042F0000223BB610023FB6102233B6204237B6238
:1043000007F114031946054802F098FE00BF28374C
:10431000BD4680BD002C014000100240000800484E
:1043200000080040000C00480034014080B59EB0F9
:1043300000AF786007F1640300221A605A609A6047
:10434000DA601A6107F110035422002118460DF0BB
:10435000D6FD7B681B681F4A934236D108233B6118
:1043600080233B6207F11003184605F04BFB034620
:10437000002B01D0FFF7B0FB174B9B6D164A43F49F
:1043800000239365144B9B6D03F40023FB60FB68D3
:10439000114BDB6C104A43F00403D3640E4BDB6C0F
:1043A00003F00403BB60BB684FF440637B660223E9
:1043B000BB660023FB6600233B6705237B6707F191
:1043C00064031946054802F039FE00BF7837BD4640
:1043D00080BD00BF004C00400010024000080048B3
:1043E00080B400AF00BFFDE780B400AF00BFFDE7C1
:1043F00080B400AF00BFFDE780B400AF00BFFDE7B1
:1044000080B400AF00BFFDE780B400AF00BFBD4681
:104410005DF8047B704780B400AF00BFBD465DF817
:10442000047B704780B400AF00BFBD465DF8047BDD
:10443000704780B500AF00F0B9F900BF80BD000043
:1044400080B500AF024802F0AAFC00BF80BD00BFEB
:104450007C05002080B500AF024802F0A0FC00BF40
:1044600080BD00BFDC05002080B500AF024802F02F
:1044700096FC00BF80BD00BF3C06002080B500AFA9
:10448000024802F08CFC00BF80BD00BFEC0600209B
:1044900080B500AF024802F082FC00BF80BD00BFC3
:1044A0004C07002080B500AF024803F083F800BF3E
:1044B00080BD00BF8420002080B500AF034806F017
:1044C00063F8034806F060F800BF80BDAC07002029
:1044D0002809002080B500AF024806F055F800BF5B
:1044E00080BD00BFDC08002080B500AF034806F0A7
:1044F0004BF8034802F0E0F800BF80BD44080020FC
:10450000C406002080B400AF01231846BD465DF804
:10451000047B704780B582B000AF786039600DF0E1
:1045200053FD034616221A604FF0FF331846083732
:10453000BD4680BD80B582B000AF78604FF0FF31DE
:104540007868FFF7E7FF00BFFDE780B586B000AFF2
:10455000F860B9607A6000237B610AE0AFF3008005
:104560000146BB685A1CBA60CAB21A707B69013333
:104570007B617A697B689A42F0DB7B681846183762
:10458000BD4680BD80B586B000AFF860B9607A6086
:1045900000237B6109E0BB685A1CBA601B7818468F
:1045A000AFF300807B6901337B617A697B689A4253
:1045B000F1DB7B6818461837BD4680BD80B483B0F8
:1045C00000AF78604FF0FF3318460C37BD465DF8FA
:1045D000047B704780B483B000AF786039603B687B
:1045E0004FF400525A60002318460C37BD465DF860
:1045F000047B704780B483B000AF78600123184615
:104600000C37BD465DF8047B704780B485B000AFC1
:10461000F860B9607A60002318461437BD465DF82B
:10462000047B704780B586B000AF7860144A154BA4
:10463000D31A7B617B693B61134B1B68002B02D152
:10464000114B124A1A60104B1A687B6813443A697E
:104650009A4207D20DF0B8FC03460C221A604FF0C4
:10466000FF3309E0084B1B68FB60074B1A687B6847
:104670001344054A1360FB6818461837BD4680BDD1
:104680000000022000040000A80B0020D02600201B
:1046900080B400AF064BD3F88830054A43F470036A
:1046A000C2F8883000BFBD465DF8047B704700BF8C
:1046B00000ED00E00D488546FFF7EAFF0C480D4984
:1046C0000D4A002302E0D458C4500433C4188C426D
:1046D000F9D30A4A0A4C002301E013600432A242D3
:1046E000FBD30DF077FCFCF7C3FCFEE700000220D3
:1046F00000000020B003002020760108B003002055
:10470000CC260020FEE780B582B000AF0023FB710D
:10471000032001F003FF002000F00EF80346002BF9
:1047200002D00123FB7101E0FFF7DCF9FB791846A9
:104730000837BD4680BD000080B584B000AF78600A
:104740000023FB73164B1B68002B22D0154B1A68F5
:10475000134B1B684FF47A71B1FBF3F3B2FBF3F325
:10476000184601F00EFF0346002B0FD17B680F2B7C
:1047700009D8002279684FF0FF3001F0DAFE0A4ACA
:104780007B68136007E00123FB7304E00123FB73E4
:1047900001E00123FB73FB7B18461037BD4680BD4B
:1047A0006C000020640000206800002080B400AF8E
:1047B000054B1A68054B1B681344034A136000BF7E
:1047C000BD465DF8047B7047AC0B00206C000020F8
:1047D00080B400AF034B1B681846BD465DF8047BF0
:1047E000704700BFAC0B002080B584B000AF78608C
:1047F000FFF7EEFFB8607B68FB60FB68B3F1FF3F3B
:1048000004D0094B1B68FA681344FB6000BFFFF734
:10481000DFFF0246BB68D31AFA689A42F7D800BF96
:1048200000BF1037BD4680BD6C00002080B483B04F
:1048300000AF786039607B689B6823F47C123B682A
:104840001A437B689A6000BF0C37BD465DF8047B55
:10485000704780B483B000AF786039607B689B6834
:1048600023F0E0723B681A437B689A6000BF0C3704
:10487000BD465DF8047B704780B483B000AF7860BC
:104880007B689B6803F0E07318460C37BD465DF803
:10489000047B704780B487B000AFF860B9607A607D
:1048A0003B60FB6860331A46BB689B0013447B6126
:1048B0007B691A68084B13407A6802F0F8413A683D
:1048C0000A43134343F000427B691A6000BF1C3760
:1048D000BD465DF8047B704700F0FF0380B485B0EF
:1048E00000AF786039607B6860331A463B689B0094
:1048F0001344FB60FB681B6803F0F8431846143749
:10490000BD465DF8047B704780B487B000AFF860A7
:10491000B9607A60FB6860331A46BB689B00134439
:104920007B617B691B6823F000427B681A437B69CB
:104930001A6000BF1C37BD465DF8047B704780B429
:1049400087B000AFF860B9607A60FB6860331A46E0
:10495000BB689B0013447B617B691B6823F08072FA
:104960007B681A437B691A6000BF1C37BD465DF83F
:10497000047B704780B487B000AFF860B9607A609C
:10498000FB6860331A46BB689B0013447B617B69FC
:104990001B6823F000727B681A437B691A6000BFB2
:1049A0001C37BD465DF8047B704780B483B000AF10
:1049B000786039607B685B6923F000423B681A438A
:1049C0007B685A6100BF0C37BD465DF8047B7047B9
:1049D00080B483B000AF78607B68DB6803F4406329
:1049E000002B01D1012300E0002318460C37BD46FF
:1049F0005DF8047B704780B487B000AFF860B960A1
:104A00007A60FB6830331A46BB681B0A9B0003F0D0
:104A10000C0313447B617B691A68BB6803F01F03B6
:104A20001F2101FA03F3DB431A407B689B0E03F05E
:104A30001F01BB6803F01F0301FA03F31A437B69EC
:104A40001A6000BF1C37BD465DF8047B704780B418
:104A500087B000AFF860B9607A60FB6814331A461B
:104A6000BB685B0E9B0003F0040313447B617B690E
:104A70001A68BB681B0D03F01F03072101FA03F33B
:104A8000DB431A40BB681B0D03F01F03796801FA72
:104A900003F31A437B691A6000BF1C37BD465DF8FB
:104AA000047B704780B485B000AFF860B9607A606D
:104AB000FB68D3F8B020BB68C3F31203DB431A4092
:104AC0007B6803F018030849D940BB680B40C3F367
:104AD00012031A43FB68C3F8B02000BF1437BD4669
:104AE0005DF8047B704700BFFFFF070080B483B010
:104AF00000AF78607B689B6803F01F0318460C3793
:104B0000BD465DF8047B704780B483B000AF786029
:104B10007B689B6823F0204323F03F037A6893600F
:104B200000BF0C37BD465DF8047B704780B483B08E
:104B300000AF78607B689B6803F00053B3F1005FBF
:104B400001D1012300E0002318460C37BD465DF873
:104B5000047B704780B483B000AF78607B689B684B
:104B600023F0104323F03F0343F080527B689A60A8
:104B700000BF0C37BD465DF8047B704780B483B03E
:104B800000AF78607B689B6803F08053B3F1805F6F
:104B900001D1012300E0002318460C37BD465DF823
:104BA000047B704780B483B000AF78607B689B68FB
:104BB00023F0004323F03F0343F001027B689A6037
:104BC00000BF0C37BD465DF8047B704780B483B0EE
:104BD00000AF78607B689B6823F0004323F03F03BD
:104BE00043F002027B689A6000BF0C37BD465DF857
:104BF000047B704780B483B000AF78607B689B68AB
:104C000003F00103012B01D1012300E0002318462A
:104C10000C37BD465DF8047B704780B483B000AFAD
:104C200078607B689B6803F00203022B01D10123AB
:104C300000E0002318460C37BD465DF8047B704742
:104C400080B483B000AF78607B689B6823F000433A
:104C500023F03F0343F004027B689A6000BF0C37E7
:104C6000BD465DF8047B704780B483B000AF7860C8
:104C70007B689B6803F00403042B01D1012300E04F
:104C8000002318460C37BD465DF8047B704780B49E
:104C900083B000AF78607B689B6803F00803082B43
:104CA00001D1012300E0002318460C37BD465DF812
:104CB000047B704790B589B000AF78600023FB7724
:104CC0000023FB607B68002B01D10123A9E17B68F5
:104CD0005B69002B7B68DB6D002B09D17868FEF7E0
:104CE00025FF7B6800221A667B68002283F8582023
:104CF0007B681B681846FFF719FF0346002B04D09A
:104D00007B681B681846FFF7FFFE7B681B68184628
:104D1000FFF734FF0346002B15D17B681B6818464C
:104D2000FFF718FF9C4B1B689B099C4AA2FB0323BF
:104D30009B0901335B00FB6002E0FB68013BFB6009
:104D4000FB68002BF9D17B681B681846FFF716FF3C
:104D50000346002B0DD17B68DB6D43F010027B68AE
:104D6000DA657B681B6E43F001027B681A660123DB
:104D7000FB777B681B681846FFF776FF78617B68D6
:104D8000DB6D03F01003002B40F042817B69002BA8
:104D900040F03E817B68DB6D23F4817343F00202B7
:104DA0007B68DA657B681B681846FFF723FF0346BC
:104DB000002B41D17B681B68B3F1A04F04D07B6806
:104DC0001B68774A93420FD14FF0A040FFF712FFC4
:104DD00004467348FFF70EFF03462343002B0CBF26
:104DE00001230023DBB212E06E48FFF703FF044605
:104DF0006D48FFF7FFFE03461C436C48FFF7FAFEC1
:104E000003462343002B0CBF01230023DBB2002BFE
:104E100012D07B681B68B3F1A04F04D07B681B687D
:104E20005F4A934201D1624A00E0624A7B685B6854
:104E300019461046FFF7FAFC7B685B7F5A037B68D4
:104E4000DB6B1A437B68DB681A437B689B681A43F9
:104E50007B6893F824301B041343BB617B6893F891
:104E60002430012B06D17B689B6A013B5B04BA6945
:104E70001343BB617B68DB6A002B09D07B68DB6A6C
:104E800003F478727B681B6B1343BA691343BB61ED
:104E90007B681B68DA68484B13407A681268B96906
:104EA0000B43D3607B681B681B6923F040617B6800
:104EB0005A6B7B681B680A431A617B681B6818463B
:104EC000FFF7E5FE38617B69002B7FD13B69002B42
:104ED0007CD17B681B7F9A037B6893F838305B003A
:104EE0001343BB617B681B68DB6823F4804323F0BA
:104EF00002037A681268B9690B43D3607B681B6947
:104F0000002B17D07B681B681A697B681B6842F40A
:104F100080321A617B681B68D3F8C03023F47F535A
:104F200023F03F037A6811697A6812680B43C2F86C
:104F3000C03013E07B681B681A697B681B6822F429
:104F400080321A617B681B68D3F8C0307A681268B7
:104F500023F47F5323F03F03C2F8C0307B6893F8FB
:104F60004030012B2AD17B681B681B6923F4FF6347
:104F700023F004037A68516C7A68926C11437A6862
:104F8000D26C11437A68126D0A431A437B681B681E
:104F900042F001021A6119E064000020632D3E0511
:104FA00000010050000400500005005000060050B1
:104FB00000030050000700500740F0FF7B681B68AB
:104FC0001A697B681B6822F001021A617B685B69C1
:104FD000012B0CD17B681B681B6B23F00F017B68D6
:104FE0001B6A5A1E7B681B680A431A6307E07B68CA
:104FF0001B681A6B7B681B6822F00F021A637B68C0
:10500000DB6D23F0030343F001027B68DA6507E000
:105010007B68DB6D43F010027B68DA650123FB7768
:10502000FB7F18462437BD4690BD00BF80B586B0D3
:1050300000AFF860B9607A60FB681B68B3F1A04FFD
:1050400004D0FB681B685A4A934201D1594B00E0D7
:10505000594B1846FFF74AFD3861FB681B68184634
:10506000FFF702FE0346002B40F09B80FB6893F89D
:105070005830012B01D1022396E0FB68012283F80E
:105080005820FB681B684D4A934208D03B69002BAF
:1050900005D03B69052B02D03B69092B7AD1F86812
:1050A00000F0ECFC0346FB75FB7D002B6DD1FB682B
:1050B000DB6D23F4706323F0010343F48072FB681B
:1050C000DA65FB681B683A4A934209D0FB681B68A3
:1050D0003B4A934202D0FB681B6803E0394B01E076
:1050E0004FF0A043FA681268934202D03B69002B4C
:1050F00005D1FB68DB6D23F48012FB68DA65FB6881
:10510000DB6D03F48053002B06D0FB681B6E23F08D
:105110000602FB681A6602E0FB6800221A66FB685A
:105120005B6D294ADA62FB685B6D284A1A63FB688B
:105130005B6D274A5A63FB681B681C221A60FB6878
:10514000002283F85820FB681B685A68FB681B68BC
:1051500042F010025A60FB681B68DA68FB681B6843
:1051600042F00102DA60FB68586DFB681B6840334F
:105170001946BA687B6801F097FD0346FB75FB682A
:105180001B681846FFF75CFD0DE0FB68002283F802
:10519000582008E00123FB75FB68002283F85820A3
:1051A00001E00223FB75FB7D18461837BD4680BD24
:1051B000000100500003005000070050000600509E
:1051C0000005005000040050675C00083F5D0008C7
:1051D0005B5D000880B483B000AF786000BF0C371F
:1051E000BD465DF8047B704780B483B000AF786043
:1051F00000BF0C37BD465DF8047B704780B5B6B084
:1052000000AF78603960002387F8D7300023FB6057
:105210007B6893F85830012B02D1022300F013BCB5
:105220007B68012283F858207B681B681846FFF7CB
:105230001BFD0346002B40F0F3837B6818683B6836
:1052400059683B681B681A46FFF7D5FB7B681B68EB
:105250001846FFF709FDC7F8D0007B681B681846A1
:10526000FFF715FDC7F8CC00D7F8D030002B40F081
:10527000D981D7F8CC30002B40F0D4813B689B68B3
:10528000B3F1004F0FD17B6818683B681B680022A0
:105290001946FFF7DCFB7B681B684FF0004118469E
:1052A000FFF783FB0EE07B6818683B6819683B6872
:1052B0009B681A46FFF7CBFB7B681B6800211846EA
:1052C000FFF773FB3B685A697B681B68DB68DB0888
:1052D00003F003035B0002FA03F3C7F8C8303B682E
:1052E0001B69042B22D07B6818683B6819693B68EE
:1052F0001A68D7F8C830FFF7CDFA7B6818683B68A2
:1053000019693B689B691A46FFF719FB7B681868A7
:105310003B6819693B681B7F012B02D14FF000737A
:1053200000E000231A46FFF725FB7BE17B681B6842
:1053300000211846FFF7D2FA0346C3F31203002BED
:105340000AD17B681B6800211846FFF7C7FA03469D
:105350009B0E03F01F021EE07B681B6800211846AD
:10536000FFF7BCFA0346C7F8BC30D7F8BC3093FA55
:10537000A3F3C7F8C030D7F8C030C7F8B830D7F8B3
:10538000B830002B01D1202304E0D7F8B830B3FAAD
:1053900083F3DBB21A463B681B68C3F31203002B8E
:1053A00005D13B681B689B0E03F01F0318E03B68A8
:1053B0001B68C7F8B030D7F8B03093FAA3F3C7F83A
:1053C000AC30D7F8AC30C7F8B430D7F8B430002BD5
:1053D00001D1202304E0D7F8B430B3FA83F3DBB271
:1053E0009A4206D17B681B68002200211846FFF70D
:1053F0008BFA7B681B6801211846FFF76FFA03469A
:10540000C3F31203002B0AD17B681B6801211846E5
:10541000FFF764FA03469B0E03F01F021EE07B6851
:105420001B6801211846FFF759FA0346C7F8A43054
:10543000D7F8A43093FAA3F3C7F8A030D7F8A03078
:10544000C7F8A830D7F8A830002B01D1202304E0FA
:10545000D7F8A830B3FA83F3DBB21A463B681B686F
:10546000C3F31203002B05D13B681B689B0E03F0AE
:105470001F0318E03B681B68C7F89830D7F89830CE
:1054800093FAA3F3C7F89430D7F89430C7F89C3058
:10549000D7F89C30002B01D1202304E0D7F89C30B2
:1054A000B3FA83F3DBB29A4206D17B681B68002211
:1054B00001211846FFF728FA7B681B68022118466D
:1054C000FFF70CFA0346C3F31203002B0AD17B68E3
:1054D0001B6802211846FFF701FA03469B0E03F0F2
:1054E0001F021EE07B681B6802211846FFF7F6F9D1
:1054F0000346C7F88C30D7F88C3093FAA3F3C7F87B
:105500008830D7F88830C7F89030D7F89030002B23
:1055100001D1202304E0D7F89030B3FA83F3DBB253
:105520001A463B681B68C3F31203002B05D13B6886
:105530001B689B0E03F01F0316E03B681B68C7F84F
:105540008030D7F8803093FAA3F3FB67FB6FC7F87E
:105550008430D7F88430002B01D1202304E0D7F821
:105560008430B3FA83F3DBB29A4206D17B681B68BE
:10557000002202211846FFF7C7F97B681B68032148
:105580001846FFF7ABF90346C3F31203002B0AD109
:105590007B681B6803211846FFF7A0F903469B0EA2
:1055A00003F01F0217E07B681B6803211846FFF712
:1055B00095F903467B677B6F93FAA3F33B673B6FD9
:1055C000BB67BB6F002B01D1202303E0BB6FB3FA95
:1055D00083F3DBB21A463B681B68C3F31203002B4C
:1055E00005D13B681B689B0E03F01F0311E03B686D
:1055F0001B68BB66BB6E93FAA3F37B667B6EFB6690
:10560000FB6E002B01D1202303E0FB6EB3FA83F382
:10561000DBB29A4206D17B681B6800220321184640
:10562000FFF772F97B681B681846FFF7E3FA034639
:10563000002B40F03D817B6818683B6819683B6827
:10564000DB681A46FFF72EFA3B68DB68A24A9342F2
:1056500040F02E817B6818683B681B68C3F3120317
:10566000002B0BD13B681B689B0E013303F01F031B
:10567000092B94BF01230023DBB219E03B681B68B0
:10568000FB65FB6D93FAA3F3BB65BB6D3B663B6E9D
:10569000002B01D1202303E03B6EB3FA83F3DBB28E
:1056A000013303F01F03092B94BF01230023DBB256
:1056B000002B79D03B681B68C3F31203002B07D182
:1056C0003B681B689B0E01339B0603F0F84215E014
:1056D0003B681B683B653B6D93FAA3F3FB64FB6C73
:1056E0007B657B6D002B01D1202303E07B6DB3FA3A
:1056F00083F3DBB201339B0603F0F8423B681B687F
:10570000C3F31203002B09D13B681B689B0E0133C6
:1057100003F01F03012101FA03F317E03B681B6844
:105720007B647B6C93FAA3F33B643B6CBB64BB6C04
:10573000002B01D1202303E0BB6CB3FA83F3DBB26F
:10574000013303F01F03012101FA03F342EA0301CD
:105750003B681B68C3F31203002B0AD13B681B682C
:105760009B0E013303F01F0213465B0013441B051D
:1057700018E03B681B68BB63BB6B93FAA3F37B63C6
:105780007B6BFB63FB6B002B01D1202303E0FB6BE6
:10579000B3FA83F3DBB2013303F01F0213465B005D
:1057A00013441B050B437EE03B681B68C3F31203E5
:1057B000002B07D13B681B689B0E01339B0603F04F
:1057C000F84215E03B681B68FB62FB6A93FAA3F39F
:1057D000BB62BB6A3B633B6B002B01D1202303E020
:1057E0003B6BB3FA83F3DBB201339B0603F0F84261
:1057F0003B681B68C3F31203002B09D13B681B688D
:105800009B0E013303F01F03012101FA03F317E09C
:105810003B681B683B623B6A93FAA3F3FB61FB693D
:105820007B627B6A002B01D1202303E07B6AB3FA01
:1058300083F3DBB2013303F01F03012101FA03F309
:1058400042EA03013B681B68C3F31203002B0DD12E
:105850003B681B689B0E013303F01F0213465B007D
:1058600013441E3B1B0543F000731BE03B681B68A1
:105870007B617B6993FAA3F33B613B69BB61BB69C5
:10588000002B01D1202303E0BB69B3FA83F3DBB221
:10589000013303F01F0213465B0013441E3B1B053C
:1058A00043F000730B433A6892681946FFF7CFF84C
:1058B0003B681A68094B1340002B00F0BE807B68E0
:1058C0001B68B3F1A04F04D07B681B68044A934265
:1058D0000AD1044B09E000BF00007F4000000880AF
:1058E0000001005000030050594B1846FEF7C4FF5A
:1058F000C7F8C4003B681B68564A934204D03B6813
:105900001B68554A93423AD1D7F8C43003F40003D8
:10591000002B34D17B681B68B3F1A04F05D07B68A6
:105920001B684E4A934240F085807B681B68B3F148
:10593000A04F04D07B681B68494A934201D1494A71
:1059400000E0434AD7F8C43043F400031946104638
:10595000FEF77FFF444B1B689B09444AA2FB0323CD
:105960009B095A1C13465B0013449B00FB6002E03A
:10597000FB68013BFB60FB68002BF9D15AE03B68F8
:105980001B683B4A934225D1D7F8C43003F080739B
:10599000002B1FD17B681B68314A934204D17B687E
:1059A0001B68344A934247D07B681B68B3F1A04F11
:1059B00004D07B681B682A4A934201D1294A00E03F
:1059C000234AD7F8C43043F0807319461046FEF7D7
:1059D00040FF31E03B681B68274A93422DD1D7F83E
:1059E000C43003F48003002B27D17B681B681C4A5A
:1059F000934222D07B681B68B3F1A04F04D07B6830
:105A00001B68174A934201D1164A00E0104AD7F8A2
:105A1000C43043F4800319461046FEF71AFF0CE029
:105A20007B68DB6D43F020027B68DA65012387F831
:105A3000D73002E000BF00E000BF7B68002283F89F
:105A4000582097F8D7301846D837BD4680BD00BFDC
:105A500000070050000021C31000C0900006005055
:105A6000000100500003005064000020632D3E053B
:105A7000000052C700050050000084CB80B584B000
:105A800000AF78600023BB607B681B681846FFF797
:105A9000B1F80346002B76D17B681B689A683C4BB3
:105AA0001340002B0DD07B68DB6D43F010027B6848
:105AB000DA657B681B6E43F001027B681A6601237E
:105AC00062E07B681B681846FFF76CF87B681B6810
:105AD000B3F1A04F04D07B681B682E4A934201D1DA
