:020000040800F2
:1000000000000220ED3F0008193D0008213D0008D6
:10001000293D0008313D0008393D0008000000007E
:10002000000000000000000000000000413D00084A
:100030004F3D0008000000005D3D00086B3D0008DA
:100040003D4000083D4000083D4000083D4000089C
:100050003D4000083D4000083D4000083D4000088C
:100060003D4000083D4000083D400008793D000843
:100070008D3D0008A13D0008B53D0008C93D0008C0
:100080003D4000083D4000083D4000083D4000085C
:10009000DD3D00083D4000083D4000083D400008AF
:1000A000F13D00083D4000083D4000083D4000088B
:1000B0003D4000083D4000083D4000083D4000082C
:1000C0003D4000083D4000083D4000083D4000081C
:1000D0003D4000083D4000083D4000083D4000080C
:1000E0003D4000083D4000083D4000083D400008FC
:1000F0003D4000083D4000083D4000083D400008EC
:100100003D4000083D4000083D4000083D400008DB
:100110003D4000083D4000080D3E00083D400008FD
:100120003D4000083D4000083D4000083D400008BB
:100130003D4000083D4000083D4000083D400008AB
:100140003D4000083D4000083D4000083D4000089B
:100150003D4000083D4000083D4000083D4000088B
:100160003D4000083D4000083D4000083D4000087B
:100170003D4000083D4000083D4000083D4000086B
:100180003D4000083D4000083D4000083D4000085B
:100190003D400008000000003D4000083D400008D0
:1001A0003D4000083D4000083D4000083D4000083B
:1001B0003D4000083D4000083D4000083D4000082B
:1001C0003D4000083D4000083D4000083D4000081B
:0801D000293E00083D40000833
:1001E00010B5054C237833B9044B13B10448AFF371
:1001F00000800123237010BD800300200000000058
:10020000206A010808B5034B1BB103490348AFF34B
:10021000008008BD0000000084030020206A01085F
:1002200001F0FF01102A2BDB10F0070F08D010F8A7
:10023000013B013A8B422DD010F0070F42B3F6D1AB
:10024000F0B441EA012141EA014122F007047FF0C4
:1002500000070023F0E80256083C85EA010586EA1B
:10026000010685FA47F5A3FA87F586FA47F6A5FA57
:1002700087F68EB9EED1F0BC01F0FF0102F0070263
:1002800032B110F8013B013A83EA010313B1F8D10E
:100290000020704701387047002D06BF35460338EF
:1002A000073815F0010F07D1013015F4807F02BF28
:1002B000013015F4C03F0130F0BC0138704700BF79
:1002C000034613F8012B002AFBD1181A0138704796
:1002D00081F0004102E000BF83F0004330B54FEAF7
:1002E00041044FEA430594EA050F08BF90EA020F64
:1002F0001FBF54EA000C55EA020C7FEA645C7FEAF7
:10030000655C00F0E2804FEA5454D4EB5555B8BF19
:100310006D420CDD2C4480EA020281EA030382EA8A
:10032000000083EA010180EA020281EA0303362D1C
:1003300088BF30BD11F0004F4FEA01314FF4801CEF
:100340004CEA113102D0404261EB410113F0004F01
:100350004FEA03334CEA133302D0524263EB4303B8
:1003600094EA050F00F0A780A4F10104D5F1200E56
:100370000DDB02FA0EFC22FA05F2801841F10001B1
:1003800003FA0EF2801843FA05F359410EE0A5F185
:1003900020050EF1200E012A03FA0EFC28BF4CF0B6
:1003A000020C43FA05F3C01851EBE37101F000456C
:1003B00007D54FF0000EDCF1000C7EEB00006EEB79
:1003C0000101B1F5801F1BD3B1F5001F0CD3490803
:1003D0005FEA30004FEA3C0C04F101044FEA44525A
:1003E00012F5800F80F09A80BCF1004F08BF5FEAE1
:1003F000500C50F1000041EB045141EA050130BDC1
:100400005FEA4C0C404141EB0101013C28BFB1F5D2
:10041000801FE9D291F0000F04BF01460020B1FA1D
:1004200081F308BF2033A3F10B03B3F120020CDAF0
:100430000C3208DD02F1140CC2F10C0201FA0CF0CE
:1004400021FA02F10CE002F11402D8BFC2F1200C33
:1004500001FA02F120FA0CFCDCBF41EA0C019040E9
:10046000E41AA2BF01EB0451294330BD6FEA040432
:100470001F3C1CDA0C340EDC04F11404C4F120021D
:1004800020FA04F001FA02F340EA030021FA04F32F
:1004900045EA030130BDC4F10C04C4F1200220FA86
:1004A00002F001FA04F340EA0300294630BD21FAC4
:1004B00004F0294630BD94F0000F83F4801306BF8A
:1004C00081F480110134013D4EE77FEA645C18BF7E
:1004D0007FEA655C29D094EA050F08BF90EA020F15
:1004E00005D054EA000C04BF1946104630BD91EA0D
:1004F000030F1EBF0021002030BD5FEA545C05D110
:100500004000494128BF41F0004130BD14F580044E
:100510003CBF01F5801130BD01F0004545F0FE41C2
:1005200041F470014FF0000030BD7FEA645C1ABFF7
:10053000194610467FEA655C1CBF0B46024650EA2E
:10054000013406BF52EA033591EA030F41F400215A
:1005500030BD00BF90F0000F04BF0021704730B5E0
:100560004FF4806404F132044FF000054FF00001B5
:1005700050E700BF90F0000F04BF0021704730B576
:100580004FF4806404F1320410F0004548BF40424B
:100590004FF000013EE700BF42004FEAE2014FEAA0
:1005A00031014FEA02701FBF12F07F4393F07F4F7B
:1005B00081F06051704732F07F4208BF704793F07E
:1005C0007F4F04BF41F40021704730B54FF4607491
:1005D00001F0004521F000411CE700BF50EA010294
:1005E00008BF704730B54FF000050AE050EA01023D
:1005F00008BF704730B511F0004502D5404261EBAD
:1006000041014FF4806404F132045FEA915C3FF4ED
:10061000D8AE4FF003025FEADC0C18BF03325FEA8A
:10062000DC0C18BF033202EBDC02C2F1200300FA3B
:1006300003FC20FA02F001FA03FE40EA0E0021FA60
:1006400002F11444BDE600BF70B54FF0FF0C4CF44E
:10065000E06C1CEA11541DBF1CEA135594EA0C0F00
:1006600095EA0C0F00F0DEF82C4481EA030621EA3B
:100670004C5123EA4C5350EA013518BF52EA033576
:1006800041F4801143F4801338D0A0FB02CE4FF028
:100690000005E1FB02E506F00042E0FB03E54FF058
:1006A0000006E1FB03569CF0000F18BF4EF0010E50
:1006B000A4F1FF04B6F5007F64F5407404D25FEA4C
:1006C0004E0E6D4146EB060642EAC62141EA5551FF
:1006D0004FEAC52040EA5E504FEACE2EB4F1FD0C41
:1006E00088BFBCF5E06F1ED8BEF1004F08BF5FEABF
:1006F000500E50F1000041EB045170BD06F0004671
:1007000046EA010140EA020081EA0301B4EB5C041D
:10071000C2BFD4EB0C0541EA045170BD41F4801115
:100720004FF0000E013C00F3AB8014F1360FDEBF3A
:10073000002001F0004170BDC4F10004203C35DA16
:100740000C341BDC04F11404C4F1200500FA05F399
:1007500020FA04F001FA05F240EA020001F000423A
:1007600021F0004110EBD37021FA04F642EB0601B0
:100770005EEA430E08BF20EAD37070BDC4F10C04DA
:10078000C4F1200500FA04F320FA05F001FA04F29E
:1007900040EA020001F0004110EBD37041F100018A
:1007A0005EEA430E08BF20EAD37070BDC4F1200595
:1007B00000FA05F24EEA020E20FA04F301FA05F2FD
:1007C00043EA020321FA04F001F0004121FA04F2A5
:1007D00020EA020000EBD3705EEA430E08BF20EA75
:1007E000D37070BD94F0000F0FD101F000464000AF
:1007F00041EB010111F4801F08BF013CF7D041EA31
:10080000060195F0000F18BF704703F00046520034
:1008100043EB030313F4801F08BF013DF7D043EA05
:100820000603704794EA0C0F0CEA135518BF95EABB
:100830000C0F0CD050EA410618BF52EA4306D1D142
:1008400081EA030101F000414FF0000070BD50EA61
:10085000410606BF1046194652EA430619D094EAEB
:100860000C0F02D150EA013613D195EA0C0F05D1D5
:1008700052EA03361CBF104619460AD181EA030129
:1008800001F0004141F0FE4141F470014FF00000E1
:1008900070BD41F0FE4141F4780170BD70B54FF07C
:1008A000FF0C4CF4E06C1CEA11541DBF1CEA1355FC
:1008B00094EA0C0F95EA0C0F00F0A7F8A4EB0504DE
:1008C00081EA030E52EA03354FEA013100F08880D5
:1008D0004FEA03334FF0805545EA131343EA12639E
:1008E0004FEA022245EA111545EA10654FEA002653
:1008F0000EF000419D4208BF964244F1FD0404F50C
:10090000407402D25B084FEA3202B61A65EB030567
:100910005B084FEA32024FF480104FF4002CB6EB24
:10092000020E75EB030E22BFB61A754640EA0C00A4
:100930005B084FEA3202B6EB020E75EB030E22BFE4
:10094000B61A754640EA5C005B084FEA3202B6EB25
:10095000020E75EB030E22BFB61A754640EA9C00E4
:100960005B084FEA3202B6EB020E75EB030E22BFB4
:10097000B61A754640EADC0055EA060E18D04FEA72
:10098000051545EA16754FEA06164FEAC30343EA12
:1009900052734FEAC2025FEA1C1CC0D111F4801FDF
:1009A0000BD141EA00014FF000004FF0004CB6E7D8
:1009B00011F4801F04BF01430020B4F1FD0C88BF77
:1009C000BCF5E06F3FF6AFAEB5EB030C04BFB6EB82
:1009D000020C5FEA500C50F1000041EB045170BD75
:1009E0000EF0004E4EEA113114EB5C04C2BFD4EBA2
:1009F0000C0541EA045170BD41F480114FF0000E26
:100A0000013C90E645EA060E8DE60CEA135594EAA1
:100A10000C0F08BF95EA0C0F3FF43BAF94EA0C0FA4
:100A20000AD150EA01347FF434AF95EA0C0F7FF419
:100A300025AF104619462CE795EA0C0F06D152EA6D
:100A400003353FF4FDAE1046194622E750EA410651
:100A500018BF52EA43067FF4C5AE50EA41047FF462
:100A60000DAF52EA43057FF4EBAE12E74FF0FF3CC7
:100A700006E000BF4FF0010C02E000BF4FF0010C98
:100A80004DF804CD4FEA410C7FEA6C5C4FEA430C11
:100A900018BF7FEA6C5C1BD001B050EA410C0CBF60
:100AA00052EA430C91EA030F02BF90EA020F0020C2
:100AB000704710F1000F91EA030F58BF994208BF29
:100AC00090422CBFD8176FEAE37040F001007047E6
:100AD0004FEA410C7FEA6C5C02D150EA013C07D13D
:100AE0004FEA430C7FEA6C5CD6D152EA033CD3D088
:100AF0005DF8040B704700BF8446104662468C4682
:100B00001946634600E000BF01B5FFF7B7FF0028B4
:100B100048BF10F1000F01BD4DF808EDFFF7F4FFDD
:100B20000CBF012000205DF808FB00BF4DF808ED68
:100B3000FFF7EAFF34BF012000205DF808FB00BF8B
:100B40004DF808EDFFF7E0FF94BF012000205DF8AD
:100B500008FB00BF4DF808EDFFF7CEFF94BF012062
:100B600000205DF808FB00BF4DF808EDFFF7C4FF5B
:100B700034BF012000205DF808FB00BF4FEA410CA4
:100B80007FEA6C5C02D150EA013C0AD14FEA430C87
:100B90007FEA6C5C02D152EA033C02D14FF00000C4
:100BA00070474FF0010070474FEA410212F5001202
:100BB00015D211D56FF47873B3EB625212D94FEAA4
:100BC000C12343F0004343EA505311F0004F23FA8E
:100BD00002F018BF404270474FF00000704750EAE3
:100BE000013005D111F0004008BF6FF000407047A0
:100BF0004FF00000704700BF4A0011D212F50012FA
:100C000011D20DD56FF47873B3EB62520ED44FEA64
:100C1000C12343F0004343EA505323FA02F07047E4
:100C20004FF00000704750EA013002D14FF0FF3022
:100C300070474FF0000070474FEA4102B2F1E043C5
:100C400024BFB3F5001CDCF1FE5C0DD901F0004CB3
:100C50004FEAC0024CEA5070B2F1004F40EB830003
:100C600008BF20F00100704711F0804F21D113F12F
:100C70003872BCBF01F00040704741F480114FEA68
:100C80005252C2F11802C2F1200C10FA0CF320FAF1
:100C900002F018BF40F001004FEAC1234FEAD3230E
:100CA00003FA0CFC40EA0C0023FA02F34FEA430378
:100CB000CCE77FEA625307D150EA01331EBF4FF001
:100CC000FE4040F44000704701F0004040F0FE401C
:100CD00040F40000704700BF53B94AB9002908BF6B
:100CE00000281CBF4FF0FF314FF0FF3000F0A0B9DB
:100CF000ADF1080C6DE904CE00F03CF8DDF804E03D
:100D0000DDE9022304B0704738B500220023044611
:100D10000D46FFF70BFF28B920462946BDE83840AD
:100D200000F00AB8204605F1004100F005F8404205
:100D300061EB410138BD00BFD0B50C4B0022064627
:100D40000F46FFF781FCFFF757FF0446FFF702FC51
:100D5000074B0022FFF778FC02460B463046394627
:100D6000FFF7BAFAFFF748FF2146D0BD0000F03D7B
:100D70000000F0412DE9F047089D0C46002B4ED1B4
:100D800094468C458646B2FA82F262D94AB1C2F1E3
:100D90002003914020FA03F30CFA02FC194300FAF5
:100DA00002FE4FEA1C471FFA8CF6B1FBF7F44FEA3C
:100DB0001E4307FB141143EA014304FB06F1994269
:100DC0000AD91CEB030304F1FF3080F01281994231
:100DD00040F20F81023C6344591A1FFA8EF3B1FBB3
:100DE000F7F007FB101143EA014300FB06F69E42B1
:100DF0000AD91CEB030300F1FF3180F0FC809E4216
:100E000040F2F980634402389B1B40EA0440002111
:100E10001DB1D3400022C5E90032BDE8F0878B4206
:100E200005D90DB1C5E9000100210846F5E7B3FA7F
:100E300083F1002946D1A34202D39042C0F0F08052
:100E4000861A64EB03030120002DE6D0C5E9006398
:100E5000E3E7002A40F09080A1EB0C044FEA1C4825
:100E60001FFA8CF70121B4FBF8F64FEA1E4308FB8A
:100E7000164443EA044307FB06F0984208D91CEBEA
:100E8000030306F1FF3402D2984200F2CD802646D9
:100E90001C1A1FFA8EF3B4FBF8F008FB104443EA67
:100EA000044300FB07F79F4208D91CEB030300F142
:100EB000FF3402D29F4200F2B0802046DB1B40EAA2
:100EC0000640A5E7C1F120068B4022FA06F71F4332
:100ED00020FA06FC04FA01F343EA0C03F44000FA9A
:100EE00001F8380C4FEA1349B4FBF0FE1FFA87FCF7
:100EF00000FB1E4449EA04440EFB0CF9A14502FA2A
:100F000001F20AD93C190EF1FF3A80F08480A14524
:100F100040F28180AEF1020E3C44A4EB09041FFABA
:100F200083F9B4FBF0F300FB134449EA044403FBE8
:100F30000CFCA44507D93C1903F1FF3067D2A44546
:100F400065D9023B3C4443EA0E40A0FB0293A4EB6C
:100F50000C049C42CE469C4651D34ED055B1B8EBC2
:100F60000E0364EB0C0404FA06F6CB401E43CC409F
:100F7000C5E90064002150E7C2F1200320FA03F123
:100F80000CFA02FC24FA03F394400C434FEA1C4889
:100F900000FA02FE1FFA8CF7B3FBF8F008FB1031E1
:100FA000230C43EA014300FB07F1994208D91CEBEB
:100FB000030300F1FF362CD299422AD90238634448
:100FC0005B1AA4B2B3FBF8F108FB113344EA034403
:100FD00001FB07F3A34208D91CEB040401F1FF361F
:100FE00013D2A34211D902396444E41A41EA004100
:100FF00039E70446F0E6084606E7C845AED2B9EB45
:10100000020E63EB070C0138A8E73146EDE7034613
:1010100099E73046D4E7D6467FE7634402384DE788
:101020000646234608460FE7023E634430E700BF0A
:10103000704700BF80B582B000AF00237B6002F034
:10104000FEFF00F087F900F0A9FF00F05DFF00F05F
:1010500047FA00F011FB00F075FB00F0F9FB00F01F
:1010600043FC00F07BFC00F0F9FD00F001FF00F014
:10107000BFF900F005FD0EF001FE00F081FE00F06A
:10108000D1FE00F0B5FD00F073FD00F0CDFB01F0E6
:10109000F1F903461A46934B1A7001F025FA0346FC
:1010A0001A46914B1A70914B1B78DBB2002B04D07F
:1010B00001F0FCFE8D4B00221A7004218C4805F0D3
:1010C00077FD0346FB70FB78002B11D0894B1B7812
:1010D000002B0DD001F0CEF90346002B08D101F012
:1010E00003FA0346002B03D0834B00221A700FE053
:1010F00001F0C0F90346002B03D07F4B01221A7088
:1011000006E07E4B1B78002B02D07B4B02221A702C
:101110007B4B1B78784A12781146184601F08AF802
:1011200003461A46764B1A70754B1B78052B00F256
:10113000D28001A252F823F0511100080F120008CA
:1011400033120008D71200085F120008D7120008F7
:10115000012204216B4805F043FD00222021644850
:1011600005F03EFD01222021674805F039FD4FF4CE
:101170007A7002F0D5FF00222021634805F030FD8F
:101180000021624808F08AFC0421614808F086FCCE
:101190000021604804F05CFE10215E4804F058FE17
:1011A00000215D4804F054FE00215C4808F076FC04
:1011B0005B4808F075FB7F215A4804F0D7FA7F217D
:1011C000594804F0D3FA7F21584804F0CFFA052299
:1011D0005749544803F0C6FB02225649524803F0CF
:1011E000C1FB0A225449514803F0BCFB142001F012
:1011F00075F84F4B1B889AB2504B1A804C4B5B884A
:101200009AB24F4B1A803E4B01221A7068E0394B5C
:101210001B78002B61D001F02DF90346002B5CD127
:1012200001F062F90346002B57D0354B02221A70A9
:1012300053E07B68002B0CD100220421314805F0DB
:10124000CFFC012220212A4805F0CAFC3D4808F0C5
:1012500027FB7B68002B42D101237B603FE001220A
:101260000421284805F0BCFC00222021204805F07C
:10127000B7FC344808F08CFB00228021324805F08E
:10128000AFFC00224FF480711F4805F0A9FC00223A
:1012900001212E4805F0A4FC00224021144805F04D
:1012A0009FFC00220221184805F09AFC00224FF40E
:1012B0000071144805F094FC01222021124805F029
:1012C0008FFC234808F07CFA0A4B00221A700C4B62
:1012D00001221A7004E000BFD9E600BFD7E600BFC4
:1012E000D5E600BF530B0020540B0020400B00201C
:1012F00000080048500B002014000020510B002073
:10130000520B002000140048001000487C07002009
:10131000AC08002094060020A8060020C807002082
:10132000140800200804002074040020E0040020B9
:10133000400A0020540A0020680A0020240A0020E5
:10134000260A0020F808002000040048000C00488D
:101350006008002080B594B000AF07F11803382270
:101360000021184610F067F93B1D00221A605A60F0
:101370009A60DA601A614FF4007007F099F922233D
:10138000BB614FF480737B624023BB6201233B63EC
:1013900002237B630223BB630423FB634B233B6475
:1013A00002237B640223BB640223FB6407F118035E
:1013B000184607F031FA0346002B01D002F02CF852
:1013C0000F237B600323BB600023FB6000233B6192
:1013D00000237B613B1D0421184607F02FFD0346C7
:1013E000002B01D002F018F800BF5037BD4680BD79
:1013F00080B58CB000AF07F1240300221A605A6058
:101400009A603B1D20220021184610F014F9324B3F
:101410004FF0A0421A60304B4FF440325A602E4BCE
:1014200000229A602C4B0022DA602B4B00221A61BA
:10143000294B00225A61284B04229A61264B002234
:101440001A77254B00225A77234B01221A62224B2E
:10145000002283F82420204B0022DA621E4B002257
:101460001A631D4B002283F838201B4B0022DA63DD
:10147000194B002283F84020174803F0B7F80346C1
:10148000002B01D001F0C8FF00237B6207F1240389
:101490001946114804F0CCF90346002B01D001F0A5
:1014A000BBFF0E4B7B600623BB600723FB607F23E3
:1014B0003B6104237B610023BB613B1D1946064849
:1014C00003F038FB0346002B01D001F0A5FF00BF5D
:1014D0003037BD4680BD00BF9C030020000084CB98
:1014E00080B58CB000AF07F1240300221A605A6067
:1014F0009A603B1D20220021184610F09CF8574BA3
:10150000574A1A60554B4FF4A0125A60534B0022B1
:101510009A60524B0022DA60504B00221A614F4B06
:1015200001225A614D4B04229A614C4B00221A77DA
:101530004A4B01225A77494B05221A62474B002237
:1015400083F82420454B0022DA62444B00221A63C0
:10155000424B012283F83820404B4FF48052DA632B
:101560003E4B002283F840203C4803F03FF80346FE
:10157000002B01D001F050FF00237B6207F1240310
:101580001946364804F054F90346002B01D001F007
:1015900043FF344B7B600623BB600023FB607F234B
:1015A0003B6100237B612623BB614FF08073FB61AD
:1015B000002387F820303B1D1946284803F0BAFA6B
:1015C0000346002B01D001F027FF274B7B600C2343
:1015D000BB6001237B612523BB613B1D19461F486E
:1015E00003F0A8FA0346002B01D001F015FF1F4BB2
:1015F0007B601223BB6002237B610823BB613B1D20
:101600001946164803F096FA0346002B01D001F064
:1016100003FF174B7B601823BB6004237B6100230F
:10162000BB613B1D19460D4803F084FA0346002BAD
:1016300001D001F0F1FE0F4B7B604FF48073BB6073
:101640003B1D1946054803F075FA0346002B01D0EF
:1016500001F0E2FE00BF3037BD4680BD0804002027
:101660000004005002003004040060080800900CE0
:101670001000C0102000F01480B588B000AF3B46C9
:101680002022002118460FF0D6FF2B4B2B4A1A6060
:10169000294B4FF4A0125A60274B00229A60264B28
:1016A0000022DA60244B00221A61234B00225A6187
:1016B000214B04229A61204B00221A771E4B0122F3
:1016C0005A771D4B01221A621B4B002283F82420FB
:1016D000194B0022DA62184B00221A63164B0122C2
:1016E00083F83820144B4FF48052DA63124B0022F7
:1016F00083F84020104802F079FF0346002B01D008
:1017000001F08AFE0E4B3B6006237B600723BB6023
:101710007F23FB6004233B6100237B613B4619462A
:10172000054803F007FA0346002B01D001F074FED0
:1017300000BF2037BD4680BD740400200005005066
:101740000200300480B588B000AF3B462022002163
:1017500018460FF070FF314B314A1A602F4B4FF48F
:10176000A0125A602D4B00229A602C4B0022DA60A6
:101770002A4B00221A61294B00225A61274B04226E
:101780009A61264B00221A77244B01225A77234B69
:1017900001221A62214B002283F824201F4B0022D1
:1017A000DA621E4B00221A631C4B012283F8382098
:1017B0001A4B0022DA63194B012283F84020174BA1
:1017C0001C225A64154B4FF480729A64134B00220A
:1017D000DA64124B01221A65104802F007FF034633
:1017E000002B01D001F018FE0E4B3B6006237B60FE
:1017F0000023BB607F23FB6004233B6100237B61EC
:101800003B461946054803F095F90346002B01D0E5
:1018100001F002FE00BF2037BD4680BDE00400207D
:10182000000600500200300480B500AF064B074AA6
:101830001A60054804F004F90346002B01D001F0BA
:10184000EBFD00BF80BD00BF6C060020000C024015
:1018500080B58CB000AF3B463022002118460FF017
:10186000EAFE1E4B1E4A1A601C4804F0CEFA0346DC
:10187000002B01D001F0D0FD02233B6000233B711F
:1018800000237B710023BB600023FB6000233B61CE
:1018900000237B610123BB610023FB613B460022E7
:1018A00019460E4804F0CEFB0346002B01D001F090
:1018B000B3FD3B4610221946084804F0C3FB03461B
:1018C000002B01D001F0A8FD044B064A9A60054B9D
:1018D000024A9A6200BF3037BD4680BD94060020A0
:1018E00000080050BC06002080B58CB000AF3B461D
:1018F0003022002118460FF09EFE164B164A1A6041
:10190000144804F082FA0346002B01D001F084FD54
:1019100002233B6000233B7100237B710023BB60EB
:101920000023FB6000233B6100237B610123BB613B
:101930000023FB613B4600221946064804F082FB67
:101940000346002B01D001F067FD00BF3037BD46D4
:1019500080BD00BFA8060020000C005080B598B0E4
:1019600000AF07F1540300221A605A609A6007F131
:10197000380300221A605A609A60DA601A615A616C
:101980009A613B1D3422002118460FF054FE3A4B59
:101990003A4A1A60384B00225A60374B00229A604C
:1019A000354BD222DA60344B00221A61324B0022CE
:1019B0005A61314B00229A612F4808F018F803460B
:1019C000002B01D001F028FD00237B650023BB65BF
:1019D0000023FB6507F154031946274809F0B2F9C3
:1019E0000346002B01D001F017FD6023BB630023E9
:1019F000FB6300233B6400237B640023BB64002360
:101A0000FB6400233B6507F13803002219461A489E
:101A100008F0A6FA0346002B01D001F0FDFC0023DC
:101A20007B600023BB600023FB6000233B6100233D
:101A30007B614FF40053BB610023FB6100233B62D9
:101A400000237B624FF00073BB620023FB62002324
:101A50003B6300237B633B1D1946074809F008FAE6
:101A60000346002B01D001F0D7FC034802F078F8C0
:101A700000BF6037BD4680BD7C070020002C0140C0
:101A800080B58EB000AF07F1280300221A605A60BB
:101A90009A60DA6007F11C0300221A605A609A60AB
:101AA0003B4600221A605A609A60DA601A615A61F5
:101AB0009A612D4B2D4A1A602B4B00225A602A4BFB
:101AC00000229A60284B40F2A722DA60264B0022BF
:101AD0001A61254B00229A61234807F019FE03463C
:101AE000002B01D001F098FC4FF48053BB6207F14A
:101AF000280319461C4808F047FB0346002B01D079
:101B000001F08AFC184807F072FF0346002B01D051
:101B100001F082FC0023FB6100237B6207F11C03C0
:101B20001946114809F00EF90346002B01D001F0C7
:101B300073FC60233B6000237B600023BB600023B9
:101B40003B613B4600221946074808F009FA034664
:101B5000002B01D001F060FC034802F001F800BF47
:101B60003837BD4680BD00BFC807002000080040D0
:101B700080B584B000AF3B1D00221A605A609A60A5
:101B8000194B1A4A1A60184B42F61D525A60164BEE
:101B900000229A60144B4FF6A652DA60124B0022D4
:101BA0009A61114807F0B4FD0346002B01D001F003
:101BB00033FC00237B600023FB603B1D19460A4871
:101BC00009F0C0F80346002B01D001F025FC0022EB
:101BD0000021362004F0E5F8362004F0FCF800BFC0
:101BE0001037BD4680BD00BF140800200010004023
:101BF00080B584B000AF3B1D00221A605A609A6025
:101C0000144B154A1A60134B43F697225A60114B36
:101C100000229A600F4B0922DA600E4B00229A6173
:101C20000C4807F075FD0346002B01D001F0F4FBD2
:101C300000237B600023FB603B1D1946054809F02B
:101C400081F80346002B01D001F0E6FB00BF1037FE
:101C5000BD4680BD600800200014004080B598B0EB
:101C600000AF07F1540300221A605A609A6007F12E
:101C7000380300221A605A609A60DA601A615A6169
:101C80009A613B1D3422002118460FF0D4FC3A4BD8
:101C90003A4A1A60384B00225A60374B00229A6049
:101CA000354BD222DA60344B00221A61324B0022CB
:101CB0005A61314B00229A612F4807F098FE034683
:101CC000002B01D001F0A8FB00237B650023BB653E
:101CD0000023FB6507F154031946274809F032F841
:101CE0000346002B01D001F097FB6023BB63002368
:101CF000FB6300233B6400237B640023BB6400235D
:101D0000FB6400233B6507F13803042219461A4897
:101D100008F026F90346002B01D001F07DFB0023DB
:101D20007B600023BB600023FB6000233B6100233A
:101D30007B614FF40053BB610023FB6100233B62D6
:101D400000237B624FF00073BB620023FB62002321
:101D50003B6300237B633B1D1946074809F088F865
:101D60000346002B01D001F057FB034801F0F8FEB9
:101D700000BF6037BD4680BDAC0800200034014084
:101D800080B588B000AF07F1100300221A605A60D6
:101D90009A60DA603B1D00221A605A609A601F4BFD
:101DA0001F4A1A601D4B40F2DB525A601B4B002247
:101DB0009A601A4B0422DA60184B00221A61174B02
:101DC00000225A61154B00229A61144807F0A0FCCA
:101DD0000346002B01D001F01FFB4FF480533B6101
:101DE00007F1100319460D4808F0CEF90346002B01
:101DF00001D001F011FB00237B600023FB603B1D41
:101E00001946064808F09EFF0346002B01D001F05A
:101E100003FB00BF2037BD4680BD00BFF80800208F
:101E20000040014080B500AF0F4B104A1A600E4BC6
:101E300043F697225A600C4B00229A600A4B092203
:101E4000DA60094B00221A61074B00225A61064BE7
:101E500000229A61044807F05BFC0346002B01D086
:101E600001F0DAFA00BF80BD4409002000440140BF
:101E700080B500AF224B234A1A60214B4FF4E13268
:101E80005A601F4B00229A601D4B0022DA601C4BE7
:101E900000221A611A4B0C225A61194B00229A61D6
:101EA000174B0022DA61164B00221A62144B0022F3
:101EB0005A62134B00229A62114809F0B3F80346A4
:101EC000002B01D001F0A8FA00210D4809F04EFEC8
:101ED0000346002B01D001F09FFA0021084809F0C9
:101EE00083FE0346002B01D001F096FA044809F066
:101EF00004FE0346002B01D001F08EFA00BF80BD26
:101F000090090020004C004080B582B000AF224B09
:101F10009B6C214A43F0040393641F4B9B6C03F0BA
:101F200004037B607B681C4B9B6C1B4A43F00103E2
:101F30009364194B9B6C03F001033B603B680022E8
:101F400000210B2003F02DFF0B2003F044FF0022A3
:101F500000210C2003F025FF0C2003F03CFF0022A1
:101F600000210D2003F01DFF0D2003F034FF00229F
:101F700000210E2003F015FF0E2003F02CFF00229D
:101F800000210F2003F00DFF0F2003F024FF00BFFE
:101F90000837BD4680BD00BF0010024080B58CB040
:101FA00000AF07F11C0300221A605A609A60DA60E1
:101FB0001A619A4BDB6C994A43F01003D364974B38
:101FC000DB6C03F01003BB61BB69944BDB6C934A81
:101FD00043F00403D364914BDB6C03F004037B6197
:101FE0007B698E4BDB6C8D4A43F02003D3648B4BB3
:101FF000DB6C03F020033B613B69884BDB6C874A59
:1020000043F00103D364854BDB6C03F00103FB60F9
:10201000FB68824BDB6C814A43F00203D3647F4B45
:10202000DB6C03F00203BB60BB687C4BDB6C7B4A60
:1020300043F00803D364794BDB6C03F008037B6047
:102040007B6800222021764804F0CAFD01224FF46B
:102050000071744804F0C4FD00220421714804F0AA
:10206000BFFD00222021704804F0BAFD01224FF488
:1020700081716B4804F0B4FD012240216A4804F0EC
:10208000AFFD01220121694804F0AAFD012280214F
:10209000674804F0A5FD40F61503FB6100233B6291
:1020A00000237B6207F11C0319465D4804F0FEFB28
:1020B0002023FB6101233B6200237B620023BB6280
:1020C00007F11C031946564804F0F0FB4FF4007367
:1020D000FB6111233B6200237B620023BB6207F19B
:1020E0001C0319464F4804F0E1FB4FF48063FB6189
:1020F00000233B6200237B6207F11C031946494819
:1021000004F0D4FB4FF40173FB6100233B62002316
:102110007B6207F11C031946434804F0C7FB042304
:10212000FB6101233B6200237B620023BB6207F15A
:102130001C0319463B4804F0B9FB2023FB61012333
:102140003B6200237B620023BB6207F11C0319463C
:10215000354804F0ABFB0123FB6100233B62002305
:102160007B6207F11C031946314804F09FFB4FF4D2
:102170008173FB6111233B6200237B620023BB62FE
:1021800007F11C031946264804F090FB4023FB612D
:1021900011233B6200237B620023BB6207F11C0317
:1021A0001946214804F082FB4FF48063FB61002351
:1021B0003B6200237B6207F11C0319464FF09040FD
:1021C00004F074FB0123FB6111233B6200237B625B
:1021D0000023BB6207F11C031946144804F066FB98
:1021E0007023FB6100233B6200237B6207F11C0329
:1021F00019460E4804F05AFB8023FB6111233B6211
:1022000000237B620023BB6207F11C0319460848C8
:1022100004F04CFB00BF3037BD4680BD00100240CB
:10222000001000480014004800080048000C004856
:102230000004004880B483B000AF03460A46FB7137
:102240001346BB71FB79052B34D801A252F823F059
:1022500069220008732200087D22000893220008EA
:10226000A7220008B1220008BB79002B24D1022349
:102270002CE0BB79002B21D1022327E0BB79012B75
:1022800001D1042322E0144B1B78002B18D0032328
:102290001CE0BB79012B01D1042317E0BB79032B90
:1022A00010D1052312E0BB79022B0DD101230DE0E3
:1022B00001230BE000BF08E000BF06E000BF04E020
:1022C00000BF02E000BF00E000BFFB7918460C37FA
:1022D000BD465DF8047B7047580A002080B485B085
:1022E00000AF78607B68642B01D964237B600B4B63
:1022F000DB6801337A6802FB03F3094AA2FB03237C
:102300005B09013BFB60054B1B68FA685A6300BF21
:102310001437BD465DF8047B704700BFC807002036
:102320001F85EB5180B485B000AF78607B681B6877
:10233000144A934220D10023FB600023BB600BE0D2
:10234000114ABB6832F813309BB21A46FB6813443B
:10235000FB60BB680133BB60BB68092BF0DDFB6829
:102360000A4AA2FB0323DB0840F6E44202FB03F324
:102370001B0B9AB2064B1A8000BF1437BD465DF89E
:10238000047B704700060050680A0020CDCCCCCCFE
:102390007C0A002080B489B000AFF860B9607A6030
:1023A000334BBB61FB685B6801337B617B697A6897
:1023B00002FB03F3BA69B2FBF3F3013BFB61FB6978
:1023C000B3F5803F14D3FB691B0C7A6902FB03F35E
:1023D00001337B617B697A6802FB03F3BA69B2FB64
:1023E000F3F3013BFB61FB681B687A69013A9A626F
:1023F000FB681B68FA69DA62FB68FA69DA60FB69F4
:102400005B083B61BB68002B04D1FB681B683A6921
:102410005A6323E0BB68042B04D1FB681A683B694C
:1024200093631BE0BB68082B04D1FB681A683B6907
:10243000D36313E0BB680C2B04D1FB681A683B69BB
:1024400013640BE0BB68102B04D1FB681A683B696E
:10245000936403E0FB681A683B69D364FB681B68FC
:1024600001225A6100BF2437BD465DF8047B7047E6
:1024700080D1F00880B500AF0121184804F098FB26
:102480000346002B26D01021144804F091FB03468C
:10249000002B1FD00421114804F08AFB0346002BB7
:1024A00018D04FF400610D4804F082FB0346002B66
:1024B00010D040210A4804F07BFB0346002B09D0D2
:1024C0004FF40071074804F073FB0346002B01D062
:1024D000002300E00123184680BD00BF0010004823
:1024E000000C00480008004880B500AF10211148DA
:1024F00004F05EFB0346002B19D001210E4804F0C6
:1025000057FB0346002B12D04FF480610B4804F0B8
:102510004FFB0346002B0AD04FF480614FF09040F0
:1025200004F046FB0346002B01D0012300E000230A
:10253000184680BD000C0048000400480014004804
:10254000B0B584B000AF78607B681B687C4A93426A
:1025500040F054827B4B1B78022B04D0794B1B78C4
:10256000032B40F04B82784B9B889BB21A4640F677
:10257000E44302FB03F3002B01DA03F6FF731B13A2
:10258000C83B1846FDF7F6FF65A3D3E90023FEF725
:102590005BF802460B4610461946FEF705FB03465C
:1025A0001A466A4B1A606A4B5B889BB21A4640F621
:1025B000E44302FB03F3002B01DA03F6FF731B1362
:1025C000C83B1846FDF7D6FF55A3D3E90023FEF715
:1025D0003BF802460B4610461946FEF7E5FA03465D
:1025E0001A465C4B1A605C4B1B88A3F2AA53184630
:1025F000FDF7C0FF4CA3D3E90023FEF725F8024600
:102600000B4610461946FEF7F7FA0346534A136085
:10261000504B1B6807EE903AF8EE676A4B4B1B680D
:1026200007EE903AB8EE677AC6EE877A4C4BC3ED68
:10263000007A4B4BD3ED007AB0EE007AF4EEC77A15
:10264000F1EE10FA40F19480454BD3ED007AB7EEED
:10265000007A77EE677A17EE900AFDF79DFF024643
:102660000B4643EC102B12F0BFFF51EC100B30A3C4
:10267000D3E90023FEF712F902460B46104619462D
:10268000FEF7DAFA0346374A1360324B1B6807EE4F
:10269000903AB8EE677A344BD3ED007A67EE277A3A
:1026A00017EE900AFDF778FF04460D462C4BD3ED4C
:1026B000007AB0EE007A37EE677A294BD3ED007AD4
:1026C000C7EE276A16EE900AFDF766FF02460B4634
:1026D00043EC102B13F02CF853EC102B204629461A
:1026E000FDF7B2FF02460B461046194612A3D3E986
:1026F0000023FEF7D3F802460B4610461946FEF7B4
:1027000053FA03461A46194B1A60184B1B68B3F567
:10271000FA7F68D2154B4FF4FA721A6063E000BF7B
:102720008FC2F5285CCF3240FA7E6ABC7493D83FE2
:10273000000000782A9490416ABC74931844624067
:1027400000400140520B0020400A0020340A0020C3
:10275000540A00204C0A00207C0A0020640A002051
:10276000040000205C0A00201C000020300A002029
:10277000BD4BD3ED007AB0EE007AF4EEC77AF1EEFD
:1027800010FA30DBB84BD3ED007AB7EE007A77EE73
:10279000C77AB7EE007AC7EE276A16EE900AFDF701
:1027A000FBFE02460B4643EC102B12F01DFF53ECD0
:1027B000102BA3A1D1E90001FDF78EFD02460B46C7
:1027C00010461946A0A3D3E90023FEF767F8024696
:1027D0000B4610461946FEF72FFA0346A34A13602C
:1027E000A34B00221A60A14B1B681846FDF7D4FECC
:1027F00097A3D3E90023FEF799F90346002B17D0DE
:102800009A4B93ED007AF7EE006AC6EE877AFDEEFA
:10281000E77A17EE903AFB60FB68964A934201DD37
:10282000954BFB60FB681A4600219448FFF7B2FD08
:10283000934B1B78022B01D100F052F9914B1B688E
:1028400007EE903AF8EE677A8F4B1B8807EE103A46
:10285000B8EE477A8D4B1B6806EE903AF8EE666A42
:102860008B4B1B6806EE103AB8EE466A894BD3EDE7
:10287000005A894B93ED005A9FED883AF0EE452AB5
:10288000B0EE652AF0EE461AB0EE661AF0EE470A90
:10289000B0EE670A8249834800F07CF9794B1B68E7
:1028A00044F63822934239D9764B1B681846FDF717
:1028B00051FE69A3D3E90023FDF7C6FE02460B468D
:1028C00014461D46774B1B681846FDF743FE02462B
:1028D0000B4620462946FDF7E1FF02460B4610460F
:1028E0001946FEF7A9F903466F4A13606E4B93ED44
:1028F000007AF7EE006AC6EE877AFDEEE77A17EE09
:10290000903ABB60BB685B4A934201DD5A4BBB60A7
:10291000BB681A4604216548FFF73CFD614B1A6805
:10292000634B1B681344634A1360634B1B88184650
:10293000FDF720FE04460D465A4B1B681846FDF76E
:1029400019FE47A3D3E90023FDF77EFE02460B469E
:1029500020462946FDF7C2FC02460B4610461946A2
:10296000FEF74AF9034600220021544803F032FBE7
:10297000534B1B881846FDF7FDFD04460D464D4B95
:102980001B681846FDF7F6FD35A3D3E90023FDF7D4
:102990005BFE02460B4620462946FDF79FFC024699
:1029A0000B4610461946FEF727F903460022102170
:1029B000424803F00FFB404B1B881846FDF7DAFD39
:1029C00004460D462A4B1B681846FDF7D3FD4FF011
:1029D00000023C4BFDF738FE02460B4620462946D6
:1029E000FDF77AFC02460B4610461946FEF704F93D
:1029F000034600220021344803F0ECFA7B681B6890
:102A0000324A934201D100F08FF97B681B68304A4B
:102A1000934210D102212F4804F0FAF84FF40071CC
:102A20002D4804F0F5F8002220212A4804F0D8F8B7
:102A30002A4806F0ADFF00BF1037BD46B0BD00BF4D
:102A4000182D4454FB210940000000782A9490413D
:102A50007B14AE47E17A843F7052C4E5D9E5323E3B
:102A60009A9999999999993F040000205C0A00204D
:102A7000300A0020002D3101C0E1E4007C07002075
:102A8000520B00204C0A0020500A002010000020A9
:102A9000440B0020080000200C00002017B751381C
:102AA000480B0020280A0020600A0020AC08002003
:102AB000640A00202C0A0020240A0020940600202A
:102AC000260A00200000D03FA80600200010004089
:102AD0000014004000100048001400486008002066
:102AE00080B500AF264B1B881A46264B1B68D31AAD
:102AF000642B17D9234B1B681846FDF72BFD4FF0AD
:102B00000002214BFDF7EAFB02460B461046194630
:102B1000FEF772F803469AB21C4B1A801C4B002237
:102B20001A702AE0164B1B881A46164B1B68D31ADC
:102B300013F1650F14D8134B1B681846FDF70AFDF7
:102B40004FF00002104BFDF7C7FB02460B46104644
:102B50001946FEF751F803469AB20C4B1A800CE066
:102B60000A4B1B884BF68032934206D1074B4BF63B
:102B700080321A80064B01221A7000BF80BD00BF50
:102B8000000000204C0A002000006940500A00208C
:102B9000580A0020B0B58CB000AF7862396287ED7A
:102BA000070AC7ED060A87ED051AC7ED041A87ED77
:102BB000032AC7ED022A87ED013A97ED067AD7ED91
:102BC000077A77EE677AC7ED0B7A3B6A1B6818467F
:102BD000FDF7C0FC04460D46514B1B6807EE903ACA
:102BE000B8EE677AD7ED0B7A37EE277A97ED036A5E
:102BF000D7ED026AC6EE267A27EE277AD7ED017A5C
:102C000067EE277A17EE900AFDF7C6FC4FF0000238
:102C1000444BFDF719FD02460B4620462946FDF7B9
:102C20005DFB02460B4610461946FDF7E5FF0246DE
:102C30003B6A1A60D7ED0B7AFCEEE77A17EE902A22
:102C4000374B1A603B6A1B6807EE903AF8EE677ADA
:102C500097ED057AB4EEE77AF1EE10FA07D8D7EDE2
:102C6000057AFCEEE77A17EE902A3B6A1A603B6A17
:102C70001B6807EE903AF8EE677A97ED047AB4EEA7
:102C8000E77AF1EE10FA07DBD7ED047AFCEEE77A8B
:102C900017EE902A3B6A1A6097ED0B7AD7ED037A0C
:102CA00027EE277A3B6A1B6807EE903AF8EE677AC0
:102CB00077EE277AFCEEE77A17EE902A7B6A1A60A5
:102CC0007B6A1B6807EE903AF8EE677A97ED057A13
:102CD000B4EEE77AF1EE10FA07D8D7ED057AFCEEFC
:102CE000E77A17EE902A7B6A1A607B6A1B6807EE08
:102CF000903AF8EE677A97ED047AB4EEE77AF1EE5F
:102D000010FA00DA07E0D7ED047AFCEEE77A17EE66
:102D1000902A7B6A1A6000BF3037BD46B0BD00BF45
:102D20004C0B00200000E03F80B582B000AF444B68
:102D3000DB889BB21A4640F6E44302FB03F3002B08
:102D400001DA03F6FF731B131A463E4B1A603C4B25
:102D50001B899BB21A4640F6E44302FB03F3002BA7
:102D600001DA03F6FF731B131A46374B1A6014235C
:102D70003B60344B1B68A3F5C873344AA2FB0323A2
:102D80001B09304A1360304B1B68A3F5FA732F4AB6
:102D9000A2FB0323DB082C4A13602B4B1A68294B38
:102DA0001B68934238BF13463B603B68642202FBBA
:102DB00003F3A3F5FA63254AA2FB03239B097B6077
:102DC0007B68642B01D964237B607868FDF7C2FBC4
:102DD00002460B469FED161B43EC102B12F038FCFD
:102DE00051EC100B14A3D3E90023FDF72DFC024690
:102DF0000B4610461946FDF7D7FE0346144A82FBE0
:102E000003129214DB17D31A1433124A13603B686F
:102E1000132B03D80F4B14221A6005E03B68642B78
:102E200002D90C4B63221A6000BF0837BD4680BD33
:102E300000000000000008400000000000C05340F7
:102E4000400A0020380A00203C0A0020CDCCCCCC1F
:102E500083DE1B431800002080B584B000AF78608B
:102E60007868FDF72DFA0346FB81FB897F2B01D99A
:102E70007F23FB81FB891A4679680B480EF06DFCB5
:102E8000FB89094A0021D154FB89194678680CF066
:102E9000C9FF03467B737B7B012BF5D000BF00BFCE
:102EA0001037BD4680BD00BFC00A002080B500AF0E
:102EB000A64B1B78DBB2002B00F046810622A4490A
:102EC000A4480EF0C0FB0346002B08D1A24AA34938
:102ED000A0480EF041FBA248FFF7BEFF2CE10622FE
:102EE000A0499C480EF0AFFB0346002B08D19E4A38
:102EF0009E4998480EF030FB9D48FFF7ADFF1BE15F
:102F000008229C4993480EF09EFB0346002B08D1F3
:102F1000994A9A498F480EF01FFB9948FFF79CFF8A
:102F20000AE10C2297498B480EF08DFB0346002BDB
:102F300008D1954A954987480EF00EFB9448FFF753
:102F40008BFFF9E00C22934982480EF07CFB03468C
:102F5000002B08D1904A91497E480EF0FDFA904826
:102F6000FFF77AFFE8E00D228E497A480EF06BFBFE
:102F70000346002B08D18C4A8C4976480EF0ECFAB7
:102F80008B48FFF769FFD7E00C228A4971480EF0A1
:102F90005AFB0346002B08D1874A88496D480EF03A
:102FA000DBFA8748FFF758FFC6E00C2285496948DD
:102FB0000EF049FB0346002B08D1834A834965483C
:102FC0000EF0CAFA8248FFF747FFB5E006228149B2
:102FD00060480EF038FB0346002B0ED15E4B1B6899
:102FE0001846FDF7D9FA02460B467B497B480EF09E
:102FF00093FA7A48FFF730FF9EE006227849554859
:103000000EF021FB0346002B0ED1574B1B681846D0
:10301000FDF7C2FA02460B46724970480EF07CFA80
:103020006E48FFF719FF87E008226F4949480EF004
:103030000AFB0346002B0AD14F4B1B881A466B49EB
:1030400066480EF069FA6548FFF706FF74E00C2247
:10305000674940480EF0F7FA0346002B0AD14A4B65
:103060001B881A4663495D480EF056FA5B48FFF725
:10307000F3FE61E00C22604936480EF0E4FA0346A4
:10308000002B0AD1444B1B881A465C4953480EF06A
:1030900043FA5248FFF7E0FE4EE00D2258492D4812
:1030A0000EF0D1FA0346002B0AD13F4B1B681A469B
:1030B00054494A480EF030FA4848FFF7CDFE3BE04D
:1030C0000C22514923480EF0BEFA0346002B0ED1C4
:1030D000394B1B681846FDF75FFA02460B464B4911
:1030E0003E480EF019FA3D48FFF7B6FE24E00C22E8
:1030F000474918480EF0A7FA0346002B0ED1324B71
:103100001B681846FDF748FA02460B46414933480A
:103110000EF002FA3148FFF79FFE0DE00B223E4908
:103120000C480EF090FA0346002B02D100F078F81C
:1031300002E03A48FFF790FE4022002105480EF0D9
:103140007AFA024B00221A7000BF80BD400B0020AB
:10315000386A0108800A002008000020406A01083F
:103160004C6A0108586A01080C000020606A0108D6
:103170006C6A0108786A010800000020846A01086E
:10318000946A0108A46A0108240A0020B46A0108AC
:10319000C46A0108E46A0108260A0020F46A0108EA
:1031A000046B0108246B0108640A0020346B0108D9
:1031B000486B01085C6B01085C0A00206C6B01081D
:1031C0007C6B0108906B0108600A0020A06B01086D
:1031D000B06B0108C46B0108CC6B0108C00A002069
:1031E000D86B0108E06B0108EC6B0108F86B010873
:1031F000046C0108146C0108306C0108406C010873
:103200005C6C01086C6C01087C6C01088C6C01081A
:103210009C6C0108AC6C0108BC6C0108C86C01080E
:1032200080B5A0B000AF5E4B1B681846FDF7B4F93F
:1032300002460B4638465B490EF06EF93B4618468F
:10324000FFF70AFE584B1B681846FDF7A5F9024622
:103250000B46384655490EF05FF93B461846FFF7D6
:10326000FBFD534B1B881A463B46524918460EF04D
:1032700053F93B461846FFF7EFFD4F4B1A683B46A4
:103280004E4918460EF048F93B461846FFF7E4FD54
:103290004B4B1A683B464B4918460EF03DF93B46EE
:1032A0001846FFF7D9FD484B1A683B464749184670
:1032B0000EF032F93B461846FFF7CEFD444B1A6834
:1032C0003B46444918460EF027F93B461846FFF79F
:1032D000C3FD414B1A683B46404918460EF01CF9A5
:1032E0003B461846FFF7B8FD3D4B1A683B463D4943
:1032F00018460EF011F93B461846FFF7ADFD3A4B64
:103300001A683B46394918460EF006F93B461846FE
:10331000FFF7A2FD364B1B881A463B463549184637
:103320000EF0FAF83B461846FFF796FD324B1B8825
:103330001A463B46314918460EF0EEF83B46184611
:10334000FFF78AFD2E4B1A683B462E4918460EF0B1
:10335000E3F83B461846FFF77FFD2B4B1B681846EA
:10336000FDF71AF902460B46384628490EF0D4F804
:103370003B461846FFF770FD254B1B681846FDF7C6
:103380000BF902460B46384622490EF0C5F83B467B
:103390001846FFF761FD00BF8037BD4680BD00BF06
:1033A00008000020CC6B01080C000020E06B010835
:1033B00000000020F86B0108280A0020DC6C0108DE
:1033C0002C0A0020E86C0108300A0020F46C010887
:1033D000340A0020006D01084C0A0020146D010819
:1033E000380A00202C6D01083C0A00203C6D0108C1
:1033F000240A0020146C0108260A0020406C0108F1
:10340000640A00206C6C01085C0A00208C6C0108C6
:10341000600A0020AC6C010880B400AF72B600BF37
:1034200000BFFDE780B582B000AF0F4B1B6E0E4AA8
:1034300043F0010313660C4B1B6E03F001037B602A
:103440007B68094B9B6D084A43F080539365064B9C
:103450009B6D03F080533B603B6805F0CDF900BFE6
:103460000837BD4680BD00BF0010024080B5A4B043
:1034700000AF786007F17C0300221A605A609A60FE
:10348000DA601A6107F128035422002118460EF071
:10349000D2F87B681B68B3F1A04F1CD14FF40043F6
:1034A000BB624FF00053FB6607F12803184605F096
:1034B000E1FE0346002B01D0FFF7AEFF854BDB6C2E
:1034C000844A43F40053D364824BDB6C03F400530F
:1034D0007B627B6A83E17B681B687F4A934240F092
:1034E00087804FF48033BB624FF080433B6707F126
:1034F0002803184605F0BEFE0346002B01D0FFF757
:103500008BFF764B1B680133744A1360734B1B6847
:10351000012B0BD16F4BDB6C6E4A43F48043D364B9
:103520006C4BDB6C03F480433B623B6A694BDB6CA6
:10353000684A43F00203D364664BDB6C03F002037A
:10354000FB61FB69634BDB6C624A43F01003D3649D
:10355000604BDB6C03F01003BB61BB6942F20203FA
:10356000FB670323C7F880300023C7F8843007F1D6
:103570007C0319465A4803F099F94FF40A53FB6744
:103580000323C7F880300023C7F8843007F17C0399
:103590001946544803F08AF9534B544A1A60524B67
:1035A00025225A60504B00229A604F4B0022DA606D
:1035B0004D4B80221A614C4B4FF480725A614A4B3A
:1035C0004FF480629A61484B2022DA61464B002218
:1035D0001A62454802F0F8FE0346002B01D0FFF7BF
:1035E0001BFF7B68404A5A653F4A7B689362F6E05E
:1035F0007B681B683E4A934240F080804FF48033E2
:10360000BB624FF080433B6707F12803184605F083
:1036100031FE0346002B01D0FFF7FEFE2F4B1B6847
:1036200001332E4A13602D4B1B68012B0BD1294B04
:10363000DB6C284A43F48043D364264BDB6C03F4F1
:1036400080437B617B69234BDB6C224A43F0100390
:10365000D364204BDB6C03F010033B613B694FF4F8
:103660008043FB670323C7F880300023C7F884300A
:1036700007F17C0319461B4803F018F91D4B1E4A3D
:103680001A601C4B26225A601A4B00229A60194B72
:103690000022DA60174B80221A61164B4FF48072B9
:1036A0005A61144B4FF480629A61124B2022DA6106
:1036B000104B00221A620F4802F086FE0346002BD0
:1036C00001D0FFF7A9FE7B680A4A5A65094A7B6860
:1036D000936284E00010024000040050580B002068
:1036E00000040048001000484C050020080002407B
:1036F00000050050AC0500201C0002407B681B68E0
:10370000394A93426BD14FF48033BB624FF0804310
:103710003B6707F12803184605F0ACFD0346002B74
:1037200001D0FFF779FE314B1B6801332F4A13603C
:103730002E4B1B68012B0BD12D4BDB6C2C4A43F419
:103740008043D3642A4BDB6C03F48043FB60FB684B
:10375000274BDB6C264A43F00103D364244BDB6C1C
:1037600003F00103BB60BB684FF48073FB67032366
:10377000C7F880300023C7F8843007F17C0319466E
:103780004FF0904003F092F81A4B1B4A1A60194B05
:1037900027225A60174B00229A60164B0022DA60EB
:1037A000144B80221A61134B4FF480725A61114BF3
:1037B0004FF480629A610F4B2022DA610D4B002298
:1037C0001A620C4802F000FE0346002B01D0FFF7FE
:1037D00023FE7B68074A5A65064A7B68936200BFEE
:1037E0009037BD4680BD00BF00060050580B00203A
:1037F000001002400C0600203000024080B584B06A
:1038000000AF78607B681B680D4A934213D10D4B63
:103810009B6C0C4A43F0080393640A4B9B6C03F0C7
:103820000803FB60FB6800220021642002F0B9FA63
:10383000642002F0D0FA00BF1037BD4680BD00BF43
:10384000000C02400010024080B58CB000AF7860E0
:1038500007F11C0300221A605A609A60DA601A614C
:103860007B681B685B4A934259D15B4BDB6C5A4ABD
:1038700043F48033D364584BDB6C03F48033BB6177
:10388000BB69554BDB6C544A43F00103D364524B84
:10389000DB6C03F001037B617B693023FB61032355
:1038A0003B6200237B6207F11C0319464FF09040F6
:1038B00002F0FCFF494B4A4A1A60484B06225A6004
:1038C000464B10229A60454B0022DA60434B80221F
:1038D0001A61424B4FF400725A61404B4FF4006240
:1038E0009A613E4B2022DA613C4B4FF400521A623F
:1038F0003A4802F069FD0346002B01D0FFF78CFD2A
:103900007B68364A9A60354A7B68936200220021C0
:10391000362002F046FA362002F05DFA55E07B6868
:103920001B68304A934250D12B4BDB6C2A4A43F43C
:103930000033D364284BDB6C03F400333B613B69F9
:10394000254BDB6C244A43F00103D364224BDB6C30
:1039500003F00103FB60FB684023FB6103233B6230
:1039600000237B6207F11C0319464FF0904002F0E0
:103970009DFF1D4B1D4A1A601B4B29225A601A4B92
:1039800010229A60184B0022DA60174B80221A61CD
:10399000154B4FF400725A61134B4FF400629A6159
:1039A000114B2022DA61104B4FF400521A620E487C
:1039B00002F00AFD0346002B01D0FFF72DFD7B68C6
:1039C000094A9A60084A7B68936200BF3037BD4657
:1039D00080BD00BF0008005000100240BC0600205F
:1039E00044000240000C00501C0700205800024018
:1039F00080B584B000AF78607B681B68164A93423C
:103A000014D1164B1B6E154A43F400631366134B17
:103A10001B6E03F40063FB60FB680022002118208A
:103A200002F0BFF9182002F0D6F910E07B681B689D
:103A30000B4A93420BD1094B1B6E084A43F40053C7
:103A40001366064B1B6E03F40053BB60BB6800BFDC
:103A50001037BD4680BD00BF002C01400010024061
:103A60000034014080B588B000AF78607B681B6887
:103A7000354A93420CD1354B9B6D344A43F00403D5
:103A80009365324B9B6D03F00403FB61FB6956E0C9
:103A90007B681B682E4A934214D12C4B9B6D2B4A9A
:103AA00043F010039365294B9B6D03F01003BB613A
:103AB000BB6900220021362002F073F9362002F0A3
:103AC0008AF93CE07B681B68224A93420CD11F4B69
:103AD0009B6D1E4A43F0200393651C4B9B6D03F0C6
:103AE00020037B617B692AE07B681B681A4A93424A
:103AF00014D1164B1B6E154A43F480331366134BD7
:103B00001B6E03F480333B613B69002200211820C7
:103B100002F047F9182002F05EF910E07B681B689C
:103B20000E4A93420BD1094B1B6E084A43F40033F3
:103B30001366064B1B6E03F40033FB60FB6800BF8B
:103B40002037BD4680BD00BF000800400010024085
:103B500000100040001400400040014000440140BB
:103B600080B58AB000AF786007F1140300221A60B4
:103B70005A609A60DA601A617B681B68334A934224
:103B80001CD1334BDB6C324A43F00403D364304B1B
:103B9000DB6C03F004033B613B6901237B6102237F
:103BA000BB610023FB6100233B6202237B6207F1C0
:103BB00014031946274802F079FE43E07B681B682E
:103BC000254A93421DD1224BDB6C214A43F0080366
:103BD000D3641F4BDB6C03F00803FB60FB684FF4FE
:103BE00080537B610223BB610023FB6100233B62A6
:103BF00002237B6207F114031946184802F056FEAF
:103C000020E07B681B68164A93421BD1104BDB6C8B
:103C10000F4A43F00403D3640D4BDB6C03F0040341
:103C2000BB60BB6880237B610223BB610023FB6117
:103C300000233B6204237B6207F114031946054805
:103C400002F034FE00BF2837BD4680BD002C014085
:103C5000001002400008004800080040000C004826
:103C60000034014080B59EB000AF786007F1640376
:103C700000221A605A609A60DA601A6107F1100334
:103C80005422002118460DF0D6FC7B681B681F4AA1
:103C9000934236D108233B6180233B6207F1100336
:103CA000184605F0E7FA0346002B01D0FFF7B4FBF6
:103CB000174B9B6D164A43F400239365144B9B6D81
:103CC00003F40023FB60FB68114BDB6C104A43F0EC
:103CD0000403D3640E4BDB6C03F00403BB60BB68CE
:103CE0004FF440637B660223BB660023FB66002320
:103CF0003B6705237B6707F164031946054802F01B
:103D0000D5FD00BF7837BD4680BD00BF004C0040E8
:103D1000001002400008004880B400AF00BFFDE77B
:103D200080B400AF00BFFDE780B400AF00BFFDE787
:103D300080B400AF00BFFDE780B400AF00BFFDE777
:103D400080B400AF00BFBD465DF8047B704780B40F
:103D500000AF00BFBD465DF8047B704780B400AF84
:103D600000BFBD465DF8047B704780B500AF00F032
:103D7000B9F900BF80BD000080B500AF024802F075
:103D800046FC00BF80BD00BF4C05002080B500AFE1
:103D9000024802F03CFC00BF80BD00BFAC05002023
:103DA00080B500AF024802F032FC00BF80BD00BF0A
:103DB0000C06002080B500AF024802F028FC00BFCE
:103DC00080BD00BFBC06002080B500AF024802F0F5
:103DD0001EFC00BF80BD00BF1C07002080B500AFE7
:103DE000024803F01FF800BF80BD00BF382000204C
:103DF00080B500AF034805F063FF034805F060FF9E
:103E000000BF80BD7C070020F808002080B500AF0F
:103E1000034805F055FF034802F086F800BF80BD57
:103E2000140800209406002080B500AF024801F07D
:103E300042FE00BF80BD00BF6C06002080B400AF12
:103E400001231846BD465DF8047B704780B582B0FB
:103E500000AF786039600DF053FC034616221A60FB
:103E60004FF0FF3318460837BD4680BD80B582B09D
:103E700000AF78604FF0FF317868FFF7E7FF00BFD1
:103E8000FDE780B586B000AFF860B9607A600023C6
:103E90007B610AE0AFF300800146BB685A1CBA6040
:103EA000CAB21A707B6901337B617A697B689A4276
:103EB000F0DB7B6818461837BD4680BD80B586B0FC
:103EC00000AFF860B9607A6000237B6109E0BB68ED
:103ED0005A1CBA601B781846AFF300807B69013327
:103EE0007B617A697B689A42F1DB7B6818461837F8
:103EF000BD4680BD80B483B000AF78604FF0FF3323
:103F000018460C37BD465DF8047B704780B483B01B
:103F100000AF786039603B684FF400525A6000236C
:103F200018460C37BD465DF8047B704780B483B0FB
:103F300000AF7860012318460C37BD465DF8047B5E
:103F4000704780B485B000AFF860B9607A60002334
:103F500018461437BD465DF8047B704780B586B0BF
:103F600000AF7860144A154BD31A7B617B693B61C3
:103F7000134B1B68002B02D1114B124A1A60104BD5
:103F80001A687B6813443A699A4207D20DF0B8FB6D
:103F900003460C221A604FF0FF3309E0084B1B6800
:103FA000FB60074B1A687B681344054A1360FB6883
:103FB00018461837BD4680BD0000022000040000EE
:103FC0005C0B00208026002080B400AF064BD3F8A5
:103FD0008830054A43F47003C2F8883000BFBD46FC
:103FE0005DF8047B704700BF00ED00E00D4885469A
:103FF000FFF7EAFF0C480D490D4A002302E0D458B0
:10400000C4500433C4188C42F9D30A4A0A4C002322
:1040100001E013600432A242FBD30DF077FBFDF701
:1040200009F8FEE7000002200000002080030020C5
:10403000787201088003002080260020FEE780B50A
:1040400082B000AF0023FB71032001F09FFE0F2020
:1040500000F00EF80346002B02D00123FB7101E0B3
:10406000FFF7E0F9FB7918460837BD4680BD000030
:1040700080B584B000AF78600023FB73164B1B68DB
:10408000002B22D0154B1A68134B1B684FF47A7122
:10409000B1FBF3F3B2FBF3F3184601F0AAFE0346BB
:1040A000002B0FD17B680F2B09D8002279684FF0C5
:1040B000FF3001F076FE0A4A7B68136007E00123B7
:1040C000FB7304E00123FB7301E00123FB73FB7B23
:1040D00018461037BD4680BD280000202000002073
:1040E0002400002080B400AF054B1A68054B1B6804
:1040F0001344034A136000BFBD465DF8047B70475C
:10410000600B00202800002080B400AF034B1B6828
:104110001846BD465DF8047B704700BF600B002069
:1041200080B584B000AF7860FFF7EEFFB8607B68C1
:10413000FB60FB68B3F1FF3F04D0094B1B68FA68D2
:104140001344FB6000BFFFF7DFFF0246BB68D31AD2
:10415000FA689A42F7D800BF00BF1037BD4680BD4D
:104160002800002080B483B000AF786039607B689D
:104170009B6823F47C123B681A437B689A6000BFFB
:104180000C37BD465DF8047B704780B483B000AF48
:10419000786039607B689B6823F0E0723B681A4363
:1041A0007B689A6000BF0C37BD465DF8047B7047A2
:1041B00080B483B000AF78607B689B6803F0E073E5
:1041C00018460C37BD465DF8047B704780B487B055
:1041D00000AFF860B9607A603B60FB6860331A46F4
:1041E000BB689B0013447B617B691A68084B1340D2
:1041F0007A6802F0F8413A680A43134343F00042F8
:104200007B691A6000BF1C37BD465DF8047B7047B0
:1042100000F0FF0380B485B000AF786039607B6840
:1042200060331A463B689B001344FB60FB681B68C5
:1042300003F0F84318461437BD465DF8047B704719
:1042400080B487B000AFF860B9607A60FB68603313
:104250001A46BB689B0013447B617B691B6823F093
:1042600000427B681A437B691A6000BF1C37BD4659
:104270005DF8047B704780B487B000AFF860B96028
:104280007A60FB6860331A46BB689B0013447B610D
:104290007B691B6823F080727B681A437B691A6014
:1042A00000BF1C37BD465DF8047B704780B487B003
:1042B00000AFF860B9607A60FB6860331A46BB688B
:1042C0009B0013447B617B691B6823F000727B6851
:1042D0001A437B691A6000BF1C37BD465DF8047B3A
:1042E000704780B483B000AF786039607B685B69E9
:1042F00023F000423B681A437B685A6100BF0C37C9
:10430000BD465DF8047B704780B483B000AF786031
:104310007B68DB6803F44063002B01D1012300E0DC
:10432000002318460C37BD465DF8047B704780B407
:1043300087B000AFF860B9607A60FB6830331A4626
:10434000BB681B0A9B0003F00C0313447B617B6971
:104350001A68BB6803F01F031F2101FA03F3DB4354
:104360001A407B689B0E03F01F01BB6803F01F031C
:1043700001FA03F31A437B691A6000BF1C37BD467C
:104380005DF8047B704780B487B000AFF860B96017
:104390007A60FB6814331A46BB685B0E9B0003F01F
:1043A000040313447B617B691A68BB681B0D03F02F
:1043B0001F03072101FA03F3DB431A40BB681B0DFF
:1043C00003F01F03796801FA03F31A437B691A604B
:1043D00000BF1C37BD465DF8047B704780B485B0D4
:1043E00000AFF860B9607A60FB68D3F8B020BB68B2
:1043F000C3F31203DB431A407B6803F01803084938
:10440000D940BB680B40C3F312031A43FB68C3F8DF
:10441000B02000BF1437BD465DF8047B704700BF75
:10442000FFFF070080B483B000AF78607B689B68B3
:1044300003F01F0318460C37BD465DF8047B704738
:1044400080B483B000AF78607B689B6823F0204322
:1044500023F03F037A68936000BF0C37BD465DF8D8
:10446000047B704780B483B000AF78607B689B6842
:1044700003F00053B3F1005F01D1012300E00023FA
:1044800018460C37BD465DF8047B704780B483B096
:1044900000AF78607B689B6823F0104323F03F03F4
:1044A00043F080527B689A6000BF0C37BD465DF8D0
:1044B000047B704780B483B000AF78607B689B68F2
:1044C00003F08053B3F1805F01D1012300E00023AA
:1044D00018460C37BD465DF8047B704780B483B046
:1044E00000AF78607B689B6823F0004323F03F03B4
:1044F00043F001027B689A6000BF0C37BD465DF84F
:10450000047B704780B483B000AF78607B689B68A1
:1045100023F0004323F03F0343F002027B689A60DC
:1045200000BF0C37BD465DF8047B704780B483B094
:1045300000AF78607B689B6803F00103012B01D119
:10454000012300E0002318460C37BD465DF8047BCC
:10455000704780B483B000AF78607B689B6803F0DD
:104560000203022B01D1012300E0002318460C377F
:10457000BD465DF8047B704780B483B000AF7860BF
:104580007B689B6823F0004323F03F0343F0040261
:104590007B689A6000BF0C37BD465DF8047B7047AE
:1045A00080B483B000AF78607B689B6803F004033D
:1045B000042B01D1012300E0002318460C37BD462F
:1045C0005DF8047B704780B483B000AF78607B688F
:1045D0009B6803F00803082B01D1012300E00023AE
:1045E00018460C37BD465DF8047B704790B589B01E
:1045F00000AF78600023FB770023FB607B68002B13
:1046000001D10123A9E17B685B69002B7B68DB6D2D
:10461000002B09D17868FEF729FF7B6800221A6613
:104620007B68002283F858207B681B681846FFF7D8
:1046300019FF0346002B04D07B681B681846FFF760
:10464000FFFE7B681B681846FFF734FF0346002B0C
:1046500015D17B681B681846FFF718FF9C4B1B6839
:104660009B099C4AA2FB03239B0901335B00FB606F
:1046700002E0FB68013BFB60FB68002BF9D17B6823
:104680001B681846FFF716FF0346002B0DD17B6809
:10469000DB6D43F010027B68DA657B681B6E43F0CC
:1046A00001027B681A660123FB777B681B6818464A
:1046B000FFF776FF78617B68DB6D03F01003002B5A
:1046C00040F042817B69002B40F03E817B68DB6DCE
:1046D00023F4817343F002027B68DA657B681B6810
:1046E0001846FFF723FF0346002B41D17B681B6868
:1046F000B3F1A04F04D07B681B68774A93420FD177
:104700004FF0A040FFF712FF04467348FFF70EFF7B
:1047100003462343002B0CBF01230023DBB212E02E
:104720006E48FFF703FF04466D48FFF7FFFE0346A0
:104730001C436C48FFF7FAFE03462343002B0CBFD3
:1047400001230023DBB2002B12D07B681B68B3F17E
:10475000A04F04D07B681B685F4A934201D1624A34
:1047600000E0624A7B685B6819461046FFF7FAFC76
:104770007B685B7F5A037B68DB6B1A437B68DB6873
:104780001A437B689B681A437B6893F824301B04A8
:104790001343BB617B6893F82430012B06D17B68FF
:1047A0009B6A013B5B04BA691343BB617B68DB6AAC
:1047B000002B09D07B68DB6A03F478727B681B6B83
:1047C0001343BA691343BB617B681B68DA68484BC3
:1047D00013407A681268B9690B43D3607B681B6821
:1047E0001B6923F040617B685A6B7B681B680A4336
:1047F0001A617B681B681846FFF7E5FE38617B6924
:10480000002B7FD13B69002B7CD17B681B7F9A03F7
:104810007B6893F838305B001343BB617B681B688F
:10482000DB6823F4804323F002037A681268B969D5
:104830000B43D3607B681B69002B17D07B681B6818
:104840001A697B681B6842F480321A617B681B68B6
:10485000D3F8C03023F47F5323F03F037A68116903
:104860007A6812680B43C2F8C03013E07B681B689B
:104870001A697B681B6822F480321A617B681B68A6
:10488000D3F8C0307A68126823F47F5323F03F03D3
:10489000C2F8C0307B6893F84030012B2AD17B6886
:1048A0001B681B6923F4FF6323F004037A68516CCF
:1048B0007A68926C11437A68D26C11437A68126DEF
:1048C0000A431A437B681B6842F001021A6119E02F
:1048D00020000020632D3E05000100500004005020
:1048E0000005005000060050000300500007005073
:1048F0000740F0FF7B681B681A697B681B6822F021
:1049000001021A617B685B69012B0CD17B681B6813
:104910001B6B23F00F017B681B6A5A1E7B681B68A8
:104920000A431A6307E07B681B681A6B7B681B6885
:1049300022F00F021A637B68DB6D23F0030343F060
:1049400001027B68DA6507E07B68DB6D43F01002EB
:104950007B68DA650123FB77FB7F18462437BD4669
:1049600090BD00BF80B586B000AFF860B9607A60D6
:10497000FB681B68B3F1A04F04D0FB681B685A4A60
:10498000934201D1594B00E0594B1846FFF74AFDBD
:104990003861FB681B681846FFF702FE0346002BD0
:1049A00040F09B80FB6893F85830012B01D1022323
:1049B00096E0FB68012283F85820FB681B684D4A8B
:1049C000934208D03B69002B05D03B69052B02D0F0
:1049D0003B69092B7AD1F86800F0ECFC0346FB75C3
:1049E000FB7D002B6DD1FB68DB6D23F4706323F03E
:1049F000010343F48072FB68DA65FB681B683A4A7E
:104A0000934209D0FB681B683B4A934202D0FB6883
:104A10001B6803E0394B01E04FF0A043FA681268CD
:104A2000934202D03B69002B05D1FB68DB6D23F478
:104A30008012FB68DA65FB68DB6D03F48053002BA2
:104A400006D0FB681B6E23F00602FB681A6602E0C4
:104A5000FB6800221A66FB685B6D294ADA62FB6814
:104A60005B6D284A1A63FB685B6D274A5A63FB68D3
:104A70001B681C221A60FB68002283F85820FB6820
:104A80001B685A68FB681B6842F010025A60FB689A
:104A90001B68DA68FB681B6842F00102DA60FB6899
:104AA000586DFB681B6840331946BA687B6801F093
:104AB00033FD0346FB75FB681B681846FFF75CFD7A
:104AC0000DE0FB68002283F8582008E00123FB7505
:104AD000FB68002283F8582001E00223FB75FB7D70
:104AE00018461837BD4680BD000100500003005035
:104AF0000007005000060050000500500004005060
:104B00009F550008775600089356000880B483B07C
:104B100000AF786000BF0C37BD465DF8047B70477E
:104B200080B483B000AF786000BF0C37BD465DF83D
:104B3000047B704780B5B6B000AF78603960002361
:104B400087F8D7300023FB607B6893F85830012B3F
:104B500002D1022300F013BC7B68012283F85820A5
:104B60007B681B681846FFF71BFD0346002B40F0CF
:104B7000F3837B6818683B6859683B681B681A4672
:104B8000FFF7D5FB7B681B681846FFF709FDC7F8E0
:104B9000D0007B681B681846FFF715FDC7F8CC00EE
:104BA000D7F8D030002B40F0D981D7F8CC30002B8B
:104BB00040F0D4813B689B68B3F1004F0FD17B6814
:104BC00018683B681B6800221946FFF7DCFB7B680E
:104BD0001B684FF000411846FFF783FB0EE07B682F
:104BE00018683B6819683B689B681A46FFF7CBFB5F
:104BF0007B681B6800211846FFF773FB3B685A6906
:104C00007B681B68DB68DB0803F003035B0002FAC8
:104C100003F3C7F8C8303B681B69042B22D07B68BC
:104C200018683B6819693B681A68D7F8C830FFF7FD
:104C3000CDFA7B6818683B6819693B689B691A461E
:104C4000FFF719FB7B6818683B6819693B681B7F95
:104C5000012B02D14FF0007300E000231A46FFF74A
:104C600025FB7BE17B681B6800211846FFF7D2FA21
:104C70000346C3F31203002B0AD17B681B68002193
:104C80001846FFF7C7FA03469B0E03F01F021EE00B
:104C90007B681B6800211846FFF7BCFA0346C7F87B
:104CA000BC30D7F8BC3093FAA3F3C7F8B830D7F8C4
:104CB000B830C7F8C030D7F8C030002B01D120235E
:104CC00004E0D7F8C030B3FA83F3DBB21A463B688E
:104CD0001B68C3F31203002B05D13B681B689B0EB6
:104CE00003F01F0318E03B681B68C7F8B030D7F823
:104CF000B03093FAA3F3C7F8AC30D7F8AC30C7F8AC
:104D0000B430D7F8B430002B01D1202304E0D7F819
:104D1000B430B3FA83F3DBB29A4206D17B681B68E6
:104D2000002200211846FFF78BFA7B681B680121DF
:104D30001846FFF76FFA0346C3F31203002B0AD19C
:104D40007B681B6801211846FFF764FA03469B0E37
:104D500003F01F021EE07B681B6801211846FFF765
:104D600059FA0346C7F8A430D7F8A43093FAA3F34E
:104D7000C7F8A030D7F8A030C7F8A830D7F8A830C7
:104D8000002B01D1202304E0D7F8A830B3FA83F335
:104D9000DBB21A463B681B68C3F31203002B05D134
:104DA0003B681B689B0E03F01F0318E03B681B6801
:104DB000C7F89830D7F8983093FAA3F3C7F894302F
:104DC000D7F89430C7F89C30D7F89C30002B01D12D
:104DD000202304E0D7F89C30B3FA83F3DBB29A4285
:104DE00006D17B681B68002201211846FFF728FACC
:104DF0007B681B6802211846FFF70CFA0346C3F3D1
:104E00001203002B0AD17B681B6802211846FFF7AA
:104E100001FA03469B0E03F01F021EE07B681B682D
:104E200002211846FFF7F6F90346C7F88C30D7F889
:104E30008C3093FAA3F3C7F88830D7F88830C7F8D6
:104E40009030D7F89030002B01D1202304E0D7F820
:104E50009030B3FA83F3DBB21A463B681B68C3F3A6
:104E60001203002B05D13B681B689B0E03F01F0348
:104E700016E03B681B68C7F88030D7F8803093FA9B
:104E8000A3F3FB67FB6FC7F88430D7F88430002B9F
:104E900001D1202304E0D7F88430B3FA83F3DBB2E6
:104EA0009A4206D17B681B68002202211846FFF750
:104EB000C7F97B681B6803211846FFF7ABF9034667
:104EC000C3F31203002B0AD17B681B680321184629
:104ED000FFF7A0F903469B0E03F01F0217E07B6863
:104EE0001B6803211846FFF795F903467B677B6F24
:104EF00093FAA3F33B673B6FBB67BB6F002B01D1FA
:104F0000202303E0BB6FB3FA83F3DBB21A463B689E
:104F10001B68C3F31203002B05D13B681B689B0E73
:104F200003F01F0311E03B681B68BB66BB6E93FA7E
:104F3000A3F37B667B6EFB66FB6E002B01D1202307
:104F400003E0FB6EB3FA83F3DBB29A4206D17B68CF
:104F50001B68002203211846FFF772F97B681B6863
:104F60001846FFF7E3FA0346002B40F03D817B68CB
:104F700018683B6819683B68DB681A46FFF72EFA29
:104F80003B68DB68A24A934240F02E817B68186838
:104F90003B681B68C3F31203002B0BD13B681B68F3
:104FA0009B0E013303F01F03092B94BF0123002341
:104FB000DBB219E03B681B68FB65FB6D93FAA3F35A
:104FC000BB65BB6D3B663B6E002B01D1202303E02C
:104FD0003B6EB3FA83F3DBB2013303F01F03092BFB
:104FE00094BF01230023DBB2002B79D03B681B6800
:104FF000C3F31203002B07D13B681B689B0E0133E0
:105000009B0603F0F84215E03B681B683B653B6D6F
:1050100093FAA3F3FB64FB6C7B657B6D002B01D1E2
:10502000202303E07B6DB3FA83F3DBB201339B06ED
:1050300003F0F8423B681B68C3F31203002B09D14D
:105040003B681B689B0E013303F01F03012101FA2B
:1050500003F317E03B681B687B647B6C93FAA3F354
:105060003B643B6CBB64BB6C002B01D1202303E091
:10507000BB6CB3FA83F3DBB2013303F01F030121EE
:1050800001FA03F342EA03013B681B68C3F312030E
:10509000002B0AD13B681B689B0E013303F01F02F3
:1050A00013465B0013441B0518E03B681B68BB6399
:1050B000BB6B93FAA3F37B637B6BFB63FB6B002BF4
:1050C00001D1202303E0FB6BB3FA83F3DBB201339E
:1050D00003F01F0213465B0013441B050B437EE0E5
:1050E0003B681B68C3F31203002B07D13B681B68A6
:1050F0009B0E01339B0603F0F84215E03B681B68EA
:10510000FB62FB6A93FAA3F3BB62BB6A3B633B6B34
:10511000002B01D1202303E03B6BB3FA83F3DBB216
:1051200001339B0603F0F8423B681B68C3F312038C
:10513000002B09D13B681B689B0E013303F01F0352
:10514000012101FA03F317E03B681B683B623B6AED
:1051500093FAA3F3FB61FB697B627B6A002B01D1AD
:10516000202303E07B6AB3FA83F3DBB2013303F05D
:105170001F03012101FA03F342EA03013B681B68A4
:10518000C3F31203002B0DD13B681B689B0E013348
:1051900003F01F0213465B0013441E3B1B0543F044
:1051A00000731BE03B681B687B617B6993FAA3F388
:1051B0003B613B69BB61BB69002B01D1202303E04C
:1051C000BB69B3FA83F3DBB2013303F01F0213466A
:1051D0005B0013441E3B1B0543F000730B433A680E
:1051E00092681946FFF7CFF83B681A68094B1340DD
:1051F000002B00F0BE807B681B68B3F1A04F04D089
:105200007B681B68044A93420AD1044B09E000BF43
:1052100000007F40000008800001005000030050A3
:10522000594B1846FEF7C4FFC7F8C4003B681B681B
:10523000564A934204D03B681B68554A93423AD180
:10524000D7F8C43003F40003002B34D17B681B680B
:10525000B3F1A04F05D07B681B684E4A934240F0E3
:1052600085807B681B68B3F1A04F04D07B681B6806
:10527000494A934201D1494A00E0434AD7F8C43031
:1052800043F4000319461046FEF77FFF444B1B68AA
:105290009B09444AA2FB03239B095A1C13465B004B
:1052A00013449B00FB6002E0FB68013BFB60FB6872
:1052B000002BF9D15AE03B681B683B4A934225D149
:1052C000D7F8C43003F08073002B1FD17B681B68B4
:1052D000314A934204D17B681B68344A934247D0D9
:1052E0007B681B68B3F1A04F04D07B681B682A4A17
:1052F000934201D1294A00E0234AD7F8C43043F051
:10530000807319461046FEF740FF31E03B681B688A
:10531000274A93422DD1D7F8C43003F48003002BE1
:1053200027D17B681B681C4A934222D07B681B688C
:10533000B3F1A04F04D07B681B68174A934201D198
:10534000164A00E0104AD7F8C43043F480031946E7
:105350001046FEF71AFF0CE07B68DB6D43F020027D
:105360007B68DA65012387F8D73002E000BF00E0F0
:1053700000BF7B68002283F8582097F8D730184682
:10538000D837BD4680BD00BF00070050000021C3D4
:105390001000C090000600500001005000030050B3
:1053A00020000020632D3E05000052C7000500507C
:1053B000000084CB80B584B000AF78600023BB6070
:1053C0007B681B681846FFF7B1F80346002B76D1BF
:1053D0007B681B689A683C4B1340002B0DD07B68A0
:1053E000DB6D43F010027B68DA657B681B6E43F06F
:1053F00001027B681A66012362E07B681B6818461D
:10540000FFF76CF87B681B68B3F1A04F04D07B6892
:105410001B682E4A934201D12D4B00E02D4B1846BC
:10542000FEF7C6FE034603F40003002B13D02A4BFD
:105430001B689B09294AA2FB03239B095A1C13469C
:105440005B0013449B00BB6002E0BB68013BBB6098
:10545000BB68002BF9D1FEF757FEF86028E07B68A7
:105460001B681846FFF762F80346002B04D17B68DF
:105470001B681846FFF732F8FEF746FE0246FB6847
:10548000D31A022B14D97B681B681B6803F0010335
:10549000012B0DD07B68DB6D43F010027B68DA6571
:1054A0007B681B6E43F001027B681A66012307E0EC
:1054B0007B681B681B6803F00103012BCFD100231D
:1054C00018461037BD4680BD3F00008000010050E7
:1054D000000300500007005020000020632D3E050F
:1054E00080B584B000AF78607B681B681846FFF712
:1054F00030F8F8607B681B681846FFF717F803461A
:10550000002B47D0FB68002B44D17B681B689B684D
:1055100003F00D03012B0CD17B681B681846FEF7C6
:10552000F1FF7B681B6803221A60FEF7EDFDB8608F
:1055300029E07B68DB6D43F010027B68DA657B68ED
:105540001B6E43F001027B681A66012323E0FEF71D
:10555000DBFD0246BB68D31A022B14D97B681B689B
:105560009B6803F00103002B0DD07B68DB6D43F0DB
:1055700010027B68DA657B681B6E43F001027B6872
:105580001A66012307E07B681B689B6803F0010330
:10559000002BDCD1002318461037BD4680BD80B5F6
:1055A00084B000AF78607B689B6AFB60FB68DB6D52
:1055B00003F05003002B4BD1FB68DB6D43F400720A
:1055C000FB68DA65FB681B681B6803F00803002BA7
:1055D00021D0FB681B681846FEF796FE0346002B99
:1055E00032D0FB681B68DB6803F40053002B2BD11F
:1055F000FB68DB6D23F48072FB68DA65FB68DB6DAA
:1056000003F48053002B1FD1FB68DB6D43F00102D4
:10561000FB68DA6518E0FB681B68DB6803F00203CF
:10562000002B11D1FB68DB6D23F48072FB68DA6517
:10563000FB68DB6D03F48053002B05D1FB68DB6D49
:1056400043F00102FB68DA65F868FCF76BFE0EE0D8
:10565000FB68DB6D03F01003002B03D0F868FFF745
:105660005FFA04E0FB685B6D5B6B7868984700BF8E
:105670001037BD4680BD80B584B000AF78607B68D0
:105680009B6AFB60F868FFF741FA00BF1037BD4620
:1056900080BD80B584B000AF78607B689B6AFB609A
:1056A000FB68DB6D43F04002FB68DA65FB681B6E4C
:1056B00043F00402FB681A66F868FFF731FA00BF8E
:1056C0001037BD4680BD80B483B000AF78607B6882
:1056D0009B6803F00103012B01D1012300E00023AB
:1056E00018460C37BD465DF8047B704780B483B024
:1056F00000AF786039607B689B6823F0404323F0FB
:105700003F033A6802F08042134343F000427B6853
:105710009A6000BF0C37BD465DF8047B704780B4CB
:1057200083B000AF78607B689B6803F00043B3F1FF
:10573000004F01D1012300E0002318460C37BD467D
:105740005DF8047B704780B483B000AF78607B68FD
:105750009B6803F00403042B01D1012300E0002324
:1057600018460C37BD465DF8047B704780B584B0A1
:1057700000AF786039600023BB607B6893F85830D5
:10578000012B01D102234DE07B68012283F85820D0
:105790007868FFF7A5FE0346FB73FB7B002B36D131
:1057A0007B68DB6D23F4885323F0020343F002028D
:1057B0007B68DA657B681B6839681846FFF796FFD7
:1057C00014E0BB680133BB60BB68184A93420DD933
:1057D0007B68DB6D23F0120343F010027B68DA650F
:1057E0007B68002283F8582001231BE07B681B683C
:1057F0001846FFF794FF0346002BE2D17B68DB6D70
:1058000023F0030343F001027B68DA6505E07B685F
:10581000DB6D43F010027B68DA657B68002283F859
:105820005820FB7B18461037BD4680BD01DE0400C2
:1058300090B5A1B000AF78603960002387F87F3061
:105840007B6893F85830012B01D10223E7E07B6895
:10585000012283F8582000237B660023BB667B6807
:105860001B68B3F1A04F02D16F4BBB6009E07B68AE
:105870001B686E4A934202D16D4BBB6001E000236E
:10588000BB60BB68002B0BD17B68DB6D43F0200253
:105890007B68DA657B68002283F858200123BEE02C
:1058A000BB681846FFF74FFFB8677B681B68184650
:1058B000FFF749FF0346002B40F0A080BB6F002B91
:1058C00040F09C807B681B68B3F1A04F04D07B68DC
:1058D0001B68554A934201D1564B00E0564B7B67FB
:1058E0003B681B68002B4BD07B6F9B6823F46042A6
:1058F0003B6859687B6893F838305B030B431A4365
:105900007B6F9A607B681B68B3F1A04F04D07B6803
:105910001B68454A93420FD14FF0A040FFF7D3FEDA
:1059200004464148FFF7CFFE03462343002B0CBF3C
:1059300001230023DBB212E03C48FFF7C4FE04461B
:105940003B48FFF7C0FE03461C433C48FFF7BBFE45
:1059500003462343002B0CBF01230023DBB2002BA3
:1059600056D07B6F9B6823F4716323F00F033A6872
:1059700011683A6892680A431A437B6F9A6047E05D
:105980007B6F9B6823F460427B6F9A607B681B6827
:10599000B3F1A04F04D07B681B68234A93420FD118
:1059A0004FF0A040FFF78FFE04461F48FFF78BFE25
:1059B00003462343002B0CBF01230023DBB212E07C
:1059C0001A48FFF780FE04461948FFF77CFE03469D
:1059D0001C431A48FFF777FE03462343002B0CBFF6
:1059E00001230023DBB2002B12D07B6F9B6823F4D2
:1059F000716323F00F037A6F936009E07B68DB6DBE
:105A000043F020027B68DA65012387F87F3000E0ED
:105A100000BF7B68002283F8582097F87F30184633
:105A20008437BD4690BD00BF000100500004005007
:105A30000005005000030050000700500006005011
:105A400080B582B000AF78607B68002B01D1012364
:105A500023E07B6893F82130DBB2002B06D17B6812
:105A6000002283F820207868FDF7C8FE7B680022BA
:105A70005A627B6800225A607B6800229A607B68C9
:105A80000022DA607B6800221A617B6800225A617A
:105A90007B68012283F82120002318460837BD4681
:105AA00080BD80B483B000AF786000BF0C37BD46C6
:105AB0005DF8047B704780B582B000AF78607B688A
:105AC0001B681B6803F48033002B39D07B681B688C
:105AD0001B6803F00043B3F1004F01D1012300E044
