:020000040800F2
:1000000000000220B14C0008DD490008E549000865
:10001000ED490008F5490008FD490008000000000E
:10002000000000000000000000000000054A000879
:10003000134A000800000000214A00082F4A000867
:10004000014D0008014D0008014D0008014D000858
:10005000014D0008014D0008014D0008014D000848
:10006000014D0008014D0008014D00083D4A0008FF
:10007000514A0008654A0008794A00088D4A00087C
:10008000014D0008014D0008014D0008014D000818
:10009000A14A0008014D0008014D0008014D00086B
:1000A000B54A0008014D0008014D0008014D000847
:1000B000014D0008014D0008014D0008014D0008E8
:1000C000014D0008014D0008014D0008014D0008D8
:1000D000014D0008014D0008014D0008014D0008C8
:1000E000014D0008014D0008014D0008D14A0008EB
:1000F000014D0008014D0008014D0008014D0008A8
:10010000014D0008014D0008014D0008014D000897
:10011000014D0008014D0008E54A0008014D0008A6
:10012000014D0008014D0008014D0008014D000877
:10013000014D0008014D0008014D0008014D000867
:10014000014D0008014D0008014D0008014D000857
:10015000014D0008014D0008014D0008014D000847
:10016000014D0008014D0008014D0008014D000837
:10017000014D0008014D0008014D0008014D000827
:10018000014D0008014D0008014D0008014D000817
:10019000014D000800000000014D0008014D00085D
:1001A000014D0008014D0008014D0008014D0008F7
:1001B000014D0008014D0008014D0008014D0008E7
:1001C000014D0008014D0008014D0008014D0008D7
:0801D000014D0008014D00087B
:1001E00010B5054C237833B9044B13B10448AFF371
:1001F00000800123237010BDCC030020000000000C
:10020000B473010808B5034B1BB103490348AFF3AE
:10021000008008BD00000000D0030020B473010876
:1002200010F8012B11F8013B012A28BF9A42F7D0A0
:10023000D01A70470000000000000000000000001D
:1002400001F0FF01102A2BDB10F0070F08D010F887
:10025000013B013A8B422DD010F0070F42B3F6D18B
:10026000F0B441EA012141EA014122F007047FF0A4
:1002700000070023F0E80256083C85EA010586EAFB
:10028000010685FA47F5A3FA87F586FA47F6A5FA37
:1002900087F68EB9EED1F0BC01F0FF0102F0070243
:1002A00032B110F8013B013A83EA010313B1F8D1EE
:1002B0000020704701387047002D06BF35460338CF
:1002C000073815F0010F07D1013015F4807F02BF08
:1002D000013015F4C03F0130F0BC0138704700BF59
:1002E000034613F8012B002AFBD1181A0138704776
:1002F00081F0004102E000BF83F0004330B54FEAD7
:1003000041044FEA430594EA050F08BF90EA020F43
:100310001FBF54EA000C55EA020C7FEA645C7FEAD6
:10032000655C00F0E2804FEA5454D4EB5555B8BFF9
:100330006D420CDD2C4480EA020281EA030382EA6A
:10034000000083EA010180EA020281EA0303362DFC
:1003500088BF30BD11F0004F4FEA01314FF4801CCF
:100360004CEA113102D0404261EB410113F0004FE1
:100370004FEA03334CEA133302D0524263EB430398
:1003800094EA050F00F0A780A4F10104D5F1200E36
:100390000DDB02FA0EFC22FA05F2801841F1000191
:1003A00003FA0EF2801843FA05F359410EE0A5F165
:1003B00020050EF1200E012A03FA0EFC28BF4CF096
:1003C000020C43FA05F3C01851EBE37101F000454C
:1003D00007D54FF0000EDCF1000C7EEB00006EEB59
:1003E0000101B1F5801F1BD3B1F5001F0CD34908E3
:1003F0005FEA30004FEA3C0C04F101044FEA44523A
:1004000012F5800F80F09A80BCF1004F08BF5FEAC0
:10041000500C50F1000041EB045141EA050130BDA0
:100420005FEA4C0C404141EB0101013C28BFB1F5B2
:10043000801FE9D291F0000F04BF01460020B1FAFD
:1004400081F308BF2033A3F10B03B3F120020CDAD0
:100450000C3208DD02F1140CC2F10C0201FA0CF0AE
:1004600021FA02F10CE002F11402D8BFC2F1200C13
:1004700001FA02F120FA0CFCDCBF41EA0C019040C9
:10048000E41AA2BF01EB0451294330BD6FEA040412
:100490001F3C1CDA0C340EDC04F11404C4F12002FD
:1004A00020FA04F001FA02F340EA030021FA04F30F
:1004B00045EA030130BDC4F10C04C4F1200220FA66
:1004C00002F001FA04F340EA0300294630BD21FAA4
:1004D00004F0294630BD94F0000F83F4801306BF6A
:1004E00081F480110134013D4EE77FEA645C18BF5E
:1004F0007FEA655C29D094EA050F08BF90EA020FF5
:1005000005D054EA000C04BF1946104630BD91EAEC
:10051000030F1EBF0021002030BD5FEA545C05D1EF
:100520004000494128BF41F0004130BD14F580042E
:100530003CBF01F5801130BD01F0004545F0FE41A2
:1005400041F470014FF0000030BD7FEA645C1ABFD7
:10055000194610467FEA655C1CBF0B46024650EA0E
:10056000013406BF52EA033591EA030F41F400213A
:1005700030BD00BF90F0000F04BF0021704730B5C0
:100580004FF4806404F132044FF000054FF0000195
:1005900050E700BF90F0000F04BF0021704730B556
:1005A0004FF4806404F1320410F0004548BF40422B
:1005B0004FF000013EE700BF42004FEAE2014FEA80
:1005C00031014FEA02701FBF12F07F4393F07F4F5B
:1005D00081F06051704732F07F4208BF704793F05E
:1005E0007F4F04BF41F40021704730B54FF4607471
:1005F00001F0004521F000411CE700BF50EA010274
:1006000008BF704730B54FF000050AE050EA01021C
:1006100008BF704730B511F0004502D5404261EB8C
:1006200041014FF4806404F132045FEA915C3FF4CD
:10063000D8AE4FF003025FEADC0C18BF03325FEA6A
:10064000DC0C18BF033202EBDC02C2F1200300FA1B
:1006500003FC20FA02F001FA03FE40EA0E0021FA40
:1006600002F11444BDE600BF70B54FF0FF0C4CF42E
:10067000E06C1CEA11541DBF1CEA135594EA0C0FE0
:1006800095EA0C0F00F0DEF82C4481EA030621EA1B
:100690004C5123EA4C5350EA013518BF52EA033556
:1006A00041F4801143F4801338D0A0FB02CE4FF008
:1006B0000005E1FB02E506F00042E0FB03E54FF038
:1006C0000006E1FB03569CF0000F18BF4EF0010E30
:1006D000A4F1FF04B6F5007F64F5407404D25FEA2C
:1006E0004E0E6D4146EB060642EAC62141EA5551DF
:1006F0004FEAC52040EA5E504FEACE2EB4F1FD0C21
:1007000088BFBCF5E06F1ED8BEF1004F08BF5FEA9E
:10071000500E50F1000041EB045170BD06F0004650
:1007200046EA010140EA020081EA0301B4EB5C04FD
:10073000C2BFD4EB0C0541EA045170BD41F48011F5
:100740004FF0000E013C00F3AB8014F1360FDEBF1A
:10075000002001F0004170BDC4F10004203C35DAF6
:100760000C341BDC04F11404C4F1200500FA05F379
:1007700020FA04F001FA05F240EA020001F000421A
:1007800021F0004110EBD37021FA04F642EB060190
:100790005EEA430E08BF20EAD37070BDC4F10C04BA
:1007A000C4F1200500FA04F320FA05F001FA04F27E
:1007B00040EA020001F0004110EBD37041F100016A
:1007C0005EEA430E08BF20EAD37070BDC4F1200575
:1007D00000FA05F24EEA020E20FA04F301FA05F2DD
:1007E00043EA020321FA04F001F0004121FA04F285
:1007F00020EA020000EBD3705EEA430E08BF20EA55
:10080000D37070BD94F0000F0FD101F0004640008E
:1008100041EB010111F4801F08BF013CF7D041EA10
:10082000060195F0000F18BF704703F00046520014
:1008300043EB030313F4801F08BF013DF7D043EAE5
:100840000603704794EA0C0F0CEA135518BF95EA9B
:100850000C0F0CD050EA410618BF52EA4306D1D122
:1008600081EA030101F000414FF0000070BD50EA41
:10087000410606BF1046194652EA430619D094EACB
:100880000C0F02D150EA013613D195EA0C0F05D1B5
:1008900052EA03361CBF104619460AD181EA030109
:1008A00001F0004141F0FE4141F470014FF00000C1
:1008B00070BD41F0FE4141F4780170BD70B54FF05C
:1008C000FF0C4CF4E06C1CEA11541DBF1CEA1355DC
:1008D00094EA0C0F95EA0C0F00F0A7F8A4EB0504BE
:1008E00081EA030E52EA03354FEA013100F08880B5
:1008F0004FEA03334FF0805545EA131343EA12637E
:100900004FEA022245EA111545EA10654FEA002632
:100910000EF000419D4208BF964244F1FD0404F5EB
:10092000407402D25B084FEA3202B61A65EB030547
:100930005B084FEA32024FF480104FF4002CB6EB04
:10094000020E75EB030E22BFB61A754640EA0C0084
:100950005B084FEA3202B6EB020E75EB030E22BFC4
:10096000B61A754640EA5C005B084FEA3202B6EB05
:10097000020E75EB030E22BFB61A754640EA9C00C4
:100980005B084FEA3202B6EB020E75EB030E22BF94
:10099000B61A754640EADC0055EA060E18D04FEA52
:1009A000051545EA16754FEA06164FEAC30343EAF2
:1009B00052734FEAC2025FEA1C1CC0D111F4801FBF
:1009C0000BD141EA00014FF000004FF0004CB6E7B8
:1009D00011F4801F04BF01430020B4F1FD0C88BF57
:1009E000BCF5E06F3FF6AFAEB5EB030C04BFB6EB62
:1009F000020C5FEA500C50F1000041EB045170BD55
:100A00000EF0004E4EEA113114EB5C04C2BFD4EB81
:100A10000C0541EA045170BD41F480114FF0000E05
:100A2000013C90E645EA060E8DE60CEA135594EA81
:100A30000C0F08BF95EA0C0F3FF43BAF94EA0C0F84
:100A40000AD150EA01347FF434AF95EA0C0F7FF4F9
:100A500025AF104619462CE795EA0C0F06D152EA4D
:100A600003353FF4FDAE1046194622E750EA410631
:100A700018BF52EA43067FF4C5AE50EA41047FF442
:100A80000DAF52EA43057FF4EBAE12E74FF0FF3CA7
:100A900006E000BF4FF0010C02E000BF4FF0010C78
:100AA0004DF804CD4FEA410C7FEA6C5C4FEA430CF1
:100AB00018BF7FEA6C5C1BD001B050EA410C0CBF40
:100AC00052EA430C91EA030F02BF90EA020F0020A2
:100AD000704710F1000F91EA030F58BF994208BF09
:100AE00090422CBFD8176FEAE37040F001007047C6
:100AF0004FEA410C7FEA6C5C02D150EA013C07D11D
:100B00004FEA430C7FEA6C5CD6D152EA033CD3D067
:100B10005DF8040B704700BF8446104662468C4661
:100B20001946634600E000BF01B5FFF7B7FF002894
:100B300048BF10F1000F01BD4DF808EDFFF7F4FFBD
:100B40000CBF012000205DF808FB00BF4DF808ED48
:100B5000FFF7EAFF34BF012000205DF808FB00BF6B
:100B60004DF808EDFFF7E0FF94BF012000205DF88D
:100B700008FB00BF4DF808EDFFF7CEFF94BF012042
:100B800000205DF808FB00BF4DF808EDFFF7C4FF3B
:100B900034BF012000205DF808FB00BF4FEA410C84
:100BA0007FEA6C5C02D150EA013C0AD14FEA430C67
:100BB0007FEA6C5C02D152EA033C02D14FF00000A4
:100BC00070474FF0010070474FEA410212F50012E2
:100BD00015D211D56FF47873B3EB625212D94FEA84
:100BE000C12343F0004343EA505311F0004F23FA6E
:100BF00002F018BF404270474FF00000704750EAC3
:100C0000013005D111F0004008BF6FF0004070477F
:100C10004FF00000704700BF4A0011D212F50012D9
:100C200011D20DD56FF47873B3EB62520ED44FEA44
:100C3000C12343F0004343EA505323FA02F07047C4
:100C40004FF00000704750EA013002D14FF0FF3002
:100C500070474FF0000070474FEA4102B2F1E043A5
:100C600024BFB3F5001CDCF1FE5C0DD901F0004C93
:100C70004FEAC0024CEA5070B2F1004F40EB8300E3
:100C800008BF20F00100704711F0804F21D113F10F
:100C90003872BCBF01F00040704741F480114FEA48
:100CA0005252C2F11802C2F1200C10FA0CF320FAD1
:100CB00002F018BF40F001004FEAC1234FEAD323EE
:100CC00003FA0CFC40EA0C0023FA02F34FEA430358
:100CD000CCE77FEA625307D150EA01331EBF4FF0E1
:100CE000FE4040F44000704701F0004040F0FE40FC
:100CF00040F40000704700BF53B94AB9002908BF4B
:100D000000281CBF4FF0FF314FF0FF3000F0BEB99C
:100D1000ADF1080C6DE904CE00F03CF8DDF804E01C
:100D2000DDE9022304B0704738B5002200230446F1
:100D30000D46FFF70BFF28B920462946BDE838408D
:100D400000F00AB8204605F1004100F005F84042E5
:100D500061EB410138BD00BFD0B50C4B0022064607
:100D60000F46FFF781FCFFF757FF0446FFF702FC31
:100D7000074B0022FFF778FC02460B463046394607
:100D8000FFF7BAFAFFF748FF2146D0BD0000F03D5B
:100D90000000F0412DE9F047089D8E460446884644
:100DA000002B4AD18A42174662D9B2FA82F64EB176
:100DB000C6F1200301FA06F820FA03F3B74043EA2C
:100DC0000808B4404FEA174E1FFA87FCB8FBFEF143
:100DD000230C0EFB118843EA084301FB0CF29A42F4
:100DE00009D9FB1801F1FF3080F0EA809A4240F205
:100DF000E78002393B449A1AA3B2B2FBFEF00EFB25
:100E0000102243EA024300FB0CFC9C4509D9FB1865
:100E100000F1FF3280F0D6809C4540F2D3803B4405
:100E2000023840EA0140A3EB0C0300211DB1F3405E
:100E30000022C5E90032BDE8F0878B4205D90DB12B
:100E4000C5E9000100210846F5E7B3FA83F100295E
:100E500046D1734502D3824200F20581841A6EEBBB
:100E6000030201209046002DE5D0C5E90048E2E7E5
:100E7000002A00F09080B2FA82F6002E40F0A480A2
:100E80008A1A030C4FEA174E80B2BCB20121B2FBA2
:100E9000FEFC0EFB1C2243EA024304FB0CF29A42C6
:100EA00007D9FB180CF1FF3802D29A4200F2E08019
:100EB000C4469B1AB3FBFEF20EFB123340EA034317
:100EC00002FB04F49C4207D9FB1802F1FF3002D266
:100ED0009C4200F2CA8002461B1B42EA0C40A5E776
:100EE000C1F120068B4022FA06F71F430EFA01F4E7
:100EF00020FA06F32EFA06FE4FEA1749234300FABA
:100F000001F81FFA87FCBEFBF9F01C0C09FB10EE80
:100F100044EA0E4400FB0CFEA64502FA01F209D990
:100F20003C1900F1FF3A80F09C80A64540F2998080
:100F300002383C44A4EB0E041FFA83FEB4FBF9F321
:100F400009FB13444EEA044403FB0CFCA44508D9F6
:100F50003C1903F1FF3E80F08280A4457FD9023B1B
:100F60003C4443EA0040A4EB0C04A0FB02EC6445C3
:100F70007346E14662D35FD05DB1B8EB030264EB28
:100F8000090404FA06F622FA01F31E43CC40C5E92F
:100F9000006400214FE7B1FBF2FC010C41EA0E4175
:100FA00080B240EA01423B4638463C46B846BE461F
:100FB0002026B1FBF7F1A2EB080241EA0C4166E7FB
:100FC000014618E710462CE7C6F120022EFA02F37C
:100FD000B740B14020FA02F24FEA174E0A43B3FB82
:100FE000FEF8BCB20EFB1833110C41EA034108FBBA
:100FF00004F9B04089454FEA104380B23ED97918D0
:1010000008F1FF3C01D289451FD8A1EB0901B1FBD2
:10101000FEF909FB04F80EFB191192B242EA0142F3
:10102000424529D2BA1809F1FF31C4D24245C2D291
:10103000A9F102013A44BEE7F0459DD2BEEB02039E
:101040006CEB070C0138E14696E7A7EB0909494428
:10105000A8F1020CB1FBFEF909FB04F8DBE77346CB
:101060007FE7504666E70846FDE63B44023A33E731
:10107000ACF1020C3B441CE749469CE7A1EB09019B
:10108000C446B1FBFEF909FB04F8C4E7704700BF92
:10109000B0B586B004AF03F034FE00F05FFE01F09F
:1010A00091FC01F045FC00F01FFF00F0E9FF01F0AA
:1010B0004DF801F0D1F801F01BF901F053F901F0FE
:1010C000D9FA01F0E9FB00F097FE01F0E5F90FF025
:1010D0003BFD01F069FB01F0B9FB01F095FA01F06D
:1010E00053FA01F0A5F8874B09221A60854B60225C
:1010F0009A61844B00225A60824B00221A61814B14
:1011000000225A617F4B00229A607E4B0022DA60F7
:101110007C497D4805F028FB0346002B01D002F0F6
:10112000D9FF01F0F9FE03461A46784B1A70784B46
:101130001B78DBB2002B04D002F050FA744B002273
:101140001A700421734806F0F9FB03461A46724BE5
:101150001A70714B1B78002B0ED0704B1B78002B34
:101160000AD06A4B1B78002B06D16D4B00221A70F7
:101170006A4B00221A7019E0674B1B78002B0ED0C7
:10118000684B1B78002B0AD0604B1B78002B06D1D4
:10119000634B03221A70634B00221A7006E0624B05
:1011A0001B78002B02D05E4B02221A705A4B1B7820
:1011B000002B03D0554B1B78002B02D0584B01223B
:1011C0001A705A4B1B78564A12781146184601F08D
:1011D00045FD03461A46554B1A70544B1B78042B99
:1011E00000F24F8501A252F823F000BF011200085F
:1011F000C712000875130008611B0008D51B000802
:10120000012204214A4806F0B1FB00222021414876
:1012100006F0ACFB01222021464806F0A7FB4FF464
:101220007A7003F0DFFD00222021424806F09EFB89
:101230000021414809F0F8FA0421404809F0F4FA85
:1012400000213F4805F0CAFC10213D4805F0C6FCCE
:1012500000213C4805F0C2FC00213B4809F0E4FABB
:101260003A4809F0E3F97F21394805F0E1F87F2198
:10127000384805F0DDF87F21374805F0D9F8052218
:101280003649334804F0D0F902223549314804F098
:10129000CBF90A223349304804F0C6F9142001F092
:1012A00037FD322003F09EFD2C4B1B889AB22E4B4B
:1012B0001A802A4B5B889AB22C4B1A801B4B012256
:1012C0001A7000F0E5BC01F061FE03461A46284B97
:1012D0001A70124B1B78002B00F0D6840E4B1B7833
:1012E000002B00F0D184094B1B78002B40F0CC84FC
:1012F0001F4B1B78002B00F0C7840C4B02221A7086
:1013000000F0C2BCBC0B0020B8060020B00B0020CF
:10131000880B002000080048B80B0020AC0B002010
:1013200060000020AD0B0020AE0B0020AF0B0020B2
:101330000014004800100048C8070020F8080020EA
:10134000E0060020F40600201408002060080020B9
:1013500054040020C00400202C0500208C0A00202A
:10136000980A0020B00A0020700A0020720A0020AB
:10137000B10B0020724B1B68002B2DD1714B00224A
:101380001A70714B00221A60704B00221A60704B69
:1013900000221A606F4B00221A606F4B6F4A1A606E
:1013A0006F4B6E4A1A606F4B1B686F4A136003F0F5
:1013B0000DFD03466D4A1360002204216C4806F0BF
:1013C000D5FA6C4809F032F900216B4809F02CFA83
:1013D00004216A4809F028FA694B1B78DBB2002B1C
:1013E00000F05584664B00221A70664B1B6807EEAE
:1013F000903AF8EE677A644B1B6807EE103AB8EE45
:10140000477AF0EE470AB0EE670A01F0EDFFF0EE22
:10141000407AFDEEE77A17EE902A5B4B1A605B4B41
:101420001B6807EE903AF8EE677A594B1B6807EE97
:10143000103AB8EE477AF0EE470AB0EE670A01F0CC
:10144000D3FFF0EE407AFDEEE77A17EE902A504B8C
:101450001A60504B1B685A004D4B1B689A4204D3CC
:101460004B4B1B684C4A934202D94C4B03221A70D7
:10147000474B1A68474B1B68D31A07EE903AF8EEB1
:10148000676A444B1B6807EE903AB8EE677AC6EE7F
:10149000877AC7ED007A3868FFF78EF826A3D3E97C
:1014A0000023FFF771FB0346002B05D1254B1B786A
:1014B000DBB2002B40F05182354B1B6807EE903AAF
:1014C000F8EE676A304B1B6807EE903AB8EE677A21
:1014D000C6EE877A324BC3ED007A1A4B1B78DBB22B
:1014E000002B00F03A822F4B1B78002B62D12E4B41
:1014F000D3ED007AB0EE007A37EE877A284BD3ED41
:10150000007AB4EEE77AF1EE10FA53D803F05EFCFD
:101510000246264B1B68D21A254B1B689A4249D3B8
:10152000204B01221A7003F051FC03461F4A13603E
:1015300065E000BFAFF300807B14AE47E17A943FD3
:10154000B40B00209C0A0020940B0020980B002074
:10155000A00B0020A40B002018000020809698000B
:101560001C0000204000002048000020900B0020BC
:101570000014004844090020C8070020F808002093
:10158000B90B0020800A00206C000020040000201D
:10159000700000200000002040420F00AF0B002030
:1015A00028000020A40A00202C000020A80A002007
:1015B00034000020684B1B78002B20D0674BD3ED04
:1015C000007AB0EE007A37EE677A654BD3ED007A99
:1015D000B4EEE77AF1EE10FA11DD03F0F7FB024604
:1015E000604B1B68D21A604B1B689A4207D35A4B58
:1015F00000221A7003F0EAFB03465A4A1360564B66
:101600001B78002B40F0C680554BD3ED007AB7EE27
:10161000007A77EE677AB0EE670A02F085FB10EE8B
:10162000103A1846FEF7C8FF47A3D3E90023FFF797
:101630001BF802460B4614461D464C4B1B681846C9
:10164000FEF7BAFF02460B4620462946FFF70CF884
:1016500002460B4610461946FFF7FEFA0346444A77
:1016600013603F4BD3ED007AB0EE007A77EE676AF5
:101670003B4B93ED007AC6EE877AC7ED017AD7ED42
:10168000017AF5EEC07AF1EE10FA02D54FF00003C0
:101690007B602021642097ED010A02F047FA03469F
:1016A000344A1360642300930123334A3149334899
:1016B00005F096F8304B1868202301220A2102F029
:1016C000BBFAF0EE407A2E4BC3ED007A2D4B1B682F
:1016D00007EE903AB8EE677A2B4BD3ED007A27EEFF
:1016E000277A274BD3ED007A67EE277A17EE900A18
:1016F000FEF762FF16A3D3E90023FEF7B5FF02460B
:101700000B4610461946FFF75FFA03461A461F4B71
:101710001A60134B93ED007A1D4BD3ED007AB4EEB3
:10172000E77AF1EE10FA02DB184B00221A60174B31
:101730001B68B3F57A6F6CD9144B4FF47A621A6058
:1017400067E000BFAFF300803A950BDB2F94A53E16
:101750003956A30304067C3FA40A00202C00002075
:1017600028000020A80A00203400002008000020E3
:10177000100000207C00002074000020B80600202B
:101780007800002070000020680000207C0A002003
:1017900030000020924BD3ED007AB7EE007A77EE5E
:1017A000C77AF7EE006A86EEA77AB0EE470A02F033
:1017B000BBFA10EE103A1846FEF7FEFE02460B4644
:1017C00081A1D1E90001FEF797FD02460B461046C4
:1017D00019467FA3D3E90023FEF746FF02460B46D6
:1017E00014461D467F4B1B681846FEF7E5FE024671
:1017F0000B4620462946FEF737FF02460B461046A9
:101800001946FFF729FA0346774A1360774B0022FF
:101810001A60754B1B681846FEF7CEFE6EA3D3E91F
:101820000023FFF793F90346002B3AD06E4B93ED5C
:10183000007AF7EE006AC6EE877AFDEEE77A17EED9
:10184000902A6B4B1A606A4B1B686A4A934202DD0E
:10185000674B684A1A60684B93ED007A644B1B68CB
:1018600007EE903AF8EEE77A77EE677AFDEEE77AE0
:1018700017EE903A002BB8BF5B4244F61F629342CA
:101880000FDD5B4B1B681A4600215C4801F0D4FA5F
:10189000574B1B6807EE903AF8EEE77A564BC3EDCC
:1018A000007A574B1B68002B57DD564B1B6807EE21
:1018B000903AF8EE677A9FED547A27EE877A504B8C
:1018C0001B6807EE903AF8EEE76AB7EE006AC6EEDC
:1018D000267A27EE277A4D4BD3ED007A67EE277AEA
:1018E0004B4BC3ED007A4A4B93ED007AF7EE006A5A
:1018F000C6EE877AFDEEE77A17EE902A454B1A601E
:10190000444B1B683B4A934202DD424B394A1A6002
:10191000414B93ED007A3F4B1B6807EE903AF8EE8F
:10192000E77A77EE677AFDEEE77A17EE903A002BCA
:10193000B8BF5B42394A93420FDD364B1B681A46EB
:101940000421374801F078FA324B1B6807EE903AD1
:10195000F8EEE77A304BC3ED007A324B1B78DBB2FE
:10196000002B6DD1304B1B68002B06D1204B1B6820
:101970001A4604212A4801F05FFA2B4B1B68002B02
:1019800006D1244B1B681A4600211C4801F054FA6A
:10199000264B1B68264A1360264B1B68A3F13202B4
:1019A000184B1B689A4209D903F010FA0246224BE1
:1019B0001B68D21A214B1B689A4245D3194B01224E
:1019C0001A7041E0AFF30080182D4454FB21094008
:1019D0003A950BDB2F94A53EFCA9F1D24D62503F06
:1019E0002800002008000020100000207C0A0020B1
:1019F00018000020002D310120000020C807002021
:101A0000740A002070000020CF2E97310C000020B7
:101A1000140000201C000020240000209F860100EC
:101A2000F80800209C0A0020B40B00204000002091
:101A30004800002000000020900B00204C000020F7
:101A4000974B1B68974A1360974B1B681846974B38
:101A50001B681C46934B1B68954A12689549D1ED4B
:101A6000007A954991ED007A019200939FED931AC7
:101A7000F0EE470AB0EE670A2346024690499148C5
:101A800001F0C4FB904BB3F9003018468F4B1B6834
:101A90008F4A12688F49D1ED007A8F4991ED007A13
:101AA00002920193002300939FED841AF0EE470AFF
:101AB000B0EE670A0346894A89498A4801F020FC4A
:101AC000804B1A68874B1B681344874A1360874B07
:101AD0001B68002B40F0DB80854B1B68794A136044
:101AE000844B1B881C46774B1B681846FEF752FD3B
:101AF00069A3D3E90023FEF7B7FD02460B46104663
:101B00001946FFF761F803462344002200217A4872
:101B100005F026F9794B1B881C466A4B1B68184652
:101B2000FEF738FD5CA3D3E90023FEF79DFD0246D6
:101B30000B4610461946FFF747F803462344002298
:101B400010216D4805F00CF9322003F04BF9012209
:101B500020216B4805F00AFF644B01221A6096E0D1
:101B600000222021664805F001FF664808F0D6FDF6
:101B700000228021644805F0F9FE00224FF48071B4
:101B8000624805F0F3FE00220121614805F0EEFEF7
:101B9000002240215A4805F0E9FE002202215B485C
:101BA00005F0E4FE00224FF400715A4805F0DEFE15
:101BB00001222021554805F0D9FE574808F0C6FCFF
:101BC0004A4B00221A60554B00221A70544B0422D3
:101BD0001A705DE000222021494805F0C7FE01226D
:101BE00004214C4805F0C2FE464808F097FD4D4BD5
:101BF00000221A704C4B00221A703C4B00221A60D3
:101C0000304B01221A60384B01221A602E4B012200
:101C10001A80464B4FF07E521A60454B454A1A6077
:101C2000454B444A1A60454B4FF07E521A60244B94
:101C300000221A60424B00221A60294B00221A60CF
:101C4000264B00221A60274B00221A603D4B0122CE
:101C50001A603D4B01221A60134B01221A603B4B64
:101C600001221A603A4B01221A600421394808F017
:101C7000EDFE0021384808F0E9FE294B01221A70D8
:101C800006E000BFFFF74DBA00BFFFF74ABA00BF3A
:101C9000FFF747BAAFF300809A9999999999993FBC
:101CA00044000020480000207000002000000020B8
:101CB0008C0B0020380000203C00002017B7513862
:101CC000940B0020740A0020AC0A00205800002069
:101CD0005C0000205000002054000020A40B0020D5
:101CE000A00B0020A80B0020780A0020B40B0020D5
:101CF00040000020700A0020E0060020720A002048
:101D00000008004844090020000400480010004872
:101D1000000C004800140048AC080020AC0B002068
:101D2000AF0B0020B90B00209C0A00209C0B002068
:101D30001000002000247449140000202800002016
:101D4000980B00206C000020800A00200400002076
:101D50007C0A0020F8080020C807002080B594B055
:101D600000AF07F1180338220021184610F0C5FB18
:101D70003B1D00221A605A609A60DA601A614FF4C3
:101D8000007007F05BFB2223BB614FF480737B6222
:101D90004023BB6201233B6302237B630223BB63BB
:101DA0000423FB634B233B6402237B640223BB6459
:101DB0000223FB6407F11803184607F0F3FB034600
:101DC000002B01D002F086F90F237B600323BB6058
:101DD0000023FB6000233B6100237B613B1D04214A
:101DE000184607F0F1FE0346002B01D002F072F90D
:101DF00000BF5037BD4680BD80B58CB000AF07F145
:101E0000240300221A605A609A603B1D20220021A0
:101E1000184610F072FB324B4FF0A0421A60304B64
:101E20004FF440325A602E4B00229A602C4B002215
:101E3000DA602B4B00221A61294B00225A61284B91
:101E400004229A61264B00221A77254B00225A77EA
:101E5000234B01221A62224B002283F82420204BBC
:101E60000022DA621E4B00221A631D4B002283F807
:101E700038201B4B0022DA63194B002283F84020E4
:101E8000174803F015FA0346002B01D002F022F99F
:101E900000237B6207F124031946114804F02AFB52
:101EA0000346002B01D002F015F90E4B7B60062390
:101EB000BB600723FB607F233B6104237B6100231E
:101EC000BB613B1D1946064803F096FC0346002BF8
:101ED00001D002F0FFF800BF3037BD4680BD00BF23
:101EE000E8030020000084CB80B58CB000AF07F180
:101EF000240300221A605A609A603B1D20220021B0
:101F0000184610F0FAFA574B574A1A60554B4FF4DF
:101F1000A0125A60534B00229A60524B0022DA60A2
:101F2000504B00221A614F4B01225A614D4B042243
:101F30009A614C4B00221A774A4B01225A77494B3F
:101F400005221A62474B002283F82420454B0022C9
:101F5000DA62444B00221A63424B012283F8382094
:101F6000404B4FF48052DA633E4B002283F840200E
:101F70003C4803F09DF90346002B01D002F0AAF87B
:101F800000237B6207F124031946364804F0B2FAB5
:101F90000346002B01D002F09DF8344B7B600623F2
:101FA000BB600023FB607F233B6100237B61262312
:101FB000BB614FF08073FB61002387F820303B1D2D
:101FC0001946284803F018FC0346002B01D002F004
:101FD00081F8274B7B600C23BB6001237B612523A9
:101FE000BB613B1D19461F4803F006FC0346002B4E
:101FF00001D002F06FF81F4B7B601223BB600223FD
:102000007B610823BB613B1D1946164803F0F4FBB6
:102010000346002B01D002F05DF8174B7B601823BC
:10202000BB6004237B610023BB613B1D19460D4847
:1020300003F0E2FB0346002B01D002F04BF80F4BFC
:102040007B604FF48073BB603B1D1946054803F06D
:10205000D3FB0346002B01D002F03CF800BF303721
:10206000BD4680BD5404002000040050020030042E
:10207000040060080800900C1000C0102000F0144C
:1020800080B588B000AF3B4620220021184610F0F2
:1020900034FA2B4B2B4A1A60294B4FF4A0125A608A
:1020A000274B00229A60264B0022DA60244B002244
:1020B0001A61234B00225A61214B04229A61204B62
:1020C00000221A771E4B01225A771D4B01221A62F9
:1020D0001B4B002283F82420194B0022DA62184B94
:1020E00000221A63164B012283F83820144B4FF458
:1020F0008052DA63124B002283F84020104803F02C
:10210000D7F80346002B01D001F0E4FF0E4B3B60F3
:1021100006237B600723BB607F23FB6004233B61B6
:1021200000237B613B461946054803F065FB0346E7
:10213000002B01D001F0CEFF00BF2037BD4680BD8F
:10214000C0040020000500500200300480B588B0B3
:1021500000AF3B4620220021184610F0CEF9314B4B
:10216000314A1A602F4B4FF4A0125A602D4B0022B7
:102170009A602C4B0022DA602A4B00221A61294B0C
:1021800000225A61274B04229A61264B00221A77BB
:10219000244B01225A77234B01221A62214B002241
:1021A00083F824201F4B0022DA621E4B00221A63A0
:1021B0001C4B012283F838201A4B0022DA63194B9A
:1021C000012283F84020174B1C225A64154B4FF410
:1021D00080729A64134B0022DA64124B01221A6552
:1021E000104803F065F80346002B01D001F072FFA0
:1021F0000E4B3B6006237B600023BB607F23FB60AC
:1022000004233B6100237B613B461946054803F0EC
:10221000F3FA0346002B01D001F05CFF00BF20372A
:10222000BD4680BD2C050020000600500200300491
:1022300080B500AF064B074A1A60054804F062FA01
:102240000346002B01D001F045FF00BF80BD00BF59
:10225000B8060020000C024080B58CB000AF3B46B1
:1022600030220021184610F048F91E4B1E4A1A6011
:102270001C4804F090FC0346002B01D001F02AFF1B
:1022800002233B6000233B7100237B710023BB6072
:102290000023FB6000233B6100237B610123BB61C2
:1022A0000023FB613B46002219460E4804F090FDD6
:1022B0000346002B01D001F00DFF3B4610221946CA
:1022C000084804F085FD0346002B01D001F002FF11
:1022D000044B064A9A60054B024A9A6200BF3037A7
:1022E000BD4680BDE0060020000800500807002021
:1022F00080B58CB000AF3B4630220021184610F06C
:10230000FCF8164B164A1A60144804F044FC0346C5
:10231000002B01D001F0DEFE02233B6000233B7165
:1023200000237B710023BB600023FB6000233B6123
:1023300000237B610123BB610023FB613B4600223C
:102340001946064804F044FD0346002B01D001F075
:10235000C1FE00BF3037BD4680BD00BFF40600207F
:10236000000C005080B598B000AF07F15403002274
:102370001A605A609A6007F1380300221A605A60A6
:102380009A60DA601A615A619A613B1D3422002119
:10239000184610F0B2F83E4B3E4A1A603C4B002201
:1023A0005A603B4B00229A60394BD222DA60384B9C
:1023B00000221A61364B00225A61354B00229A6185
:1023C000334808F0DAF90346002B01D001F082FE11
:1023D00000237B650023BB650023FB6507F15403E5
:1023E00019462B4809F010FC0346002B01D001F0E0
:1023F00071FE6023BB630023FB6300233B64002367
:102400007B640023BB640023FB6400233B6507F16E
:102410003803002219461E4808F004FD0346002B2D
:1024200001D001F057FE1A4B1B689A69184B1B68C4
:1024300022F008029A6100237B600023BB60002326
:10244000FB6000233B6100237B614FF40053BB61C1
:102450000023FB6100233B6200237B624FF000738B
:10246000BB620023FB6200233B6300237B633B1DB5
:102470001946074809F05EFC0346002B01D001F025
:1024800029FE034802F0CEF900BF6037BD4680BD8B
:10249000C8070020002C014080B58EB000AF07F1C6
:1024A000280300221A605A609A60DA6007F11C0360
:1024B00000221A605A609A603B4600221A605A60F5
:1024C0009A60DA601A615A619A612D4B2D4A1A603E
:1024D0002B4B00225A602A4B00229A60284B40F274
:1024E000A722DA60264B00221A61254B00229A614E
:1024F000234807F0D3FF0346002B01D001F0EAFD8B
:102500004FF48053BB6207F1280319461C4808F0BA
:102510009DFD0346002B01D001F0DCFD184808F0BA
:102520002CF90346002B01D001F0D4FD0023FB6100
:1025300000237B6207F11C031946114809F064FB74
:102540000346002B01D001F0C5FD60233B60002352
:102550007B600023BB6000233B613B4600221946A1
:10256000074808F05FFC0346002B01D001F0B2FDE4
:10257000034802F057F900BF3837BD4680BD00BFA1
:10258000140800200008004080B584B000AF3B1D57
:1025900000221A605A609A60194B1A4A1A60184B46
:1025A00042F61D525A60164B00229A60144B4FF6A9
:1025B000A652DA60124B00229A61114807F06EFFB2
:1025C0000346002B01D001F085FD00237B60002332
:1025D000FB603B1D19460A4809F016FB0346002B19
:1025E00001D001F077FD00220021362004F09FFA8F
:1025F000362004F0B6FA00BF1037BD4680BD00BFDC
:10260000600800200010004080B584B000AF3B1D82
:1026100000221A605A609A60144B154A1A60134BD4
:1026200043F697225A60114B00229A600F4B092201
:10263000DA600E4B00229A610C4807F02FFF034628
:10264000002B01D001F046FD00237B600023FB60DE
:102650003B1D1946054809F0D7FA0346002B01D067
:1026600001F038FD00BF1037BD4680BDAC0800202A
:102670000014004080B598B000AF07F15403002269
:102680001A605A609A6007F1380300221A605A6093
:102690009A60DA601A615A619A613B1D3422002106
:1026A00018460FF02AFF3E4B3E4A1A603C4B002270
:1026B0005A603B4B00229A60394BD222DA60384B89
:1026C00000221A61364B00225A61354B00229A6172
:1026D000334808F052F80346002B01D001F0FAFC11
:1026E00000237B650023BB650023FB6507F15403D2
:1026F00019462B4809F088FA0346002B01D001F057
:10270000E9FC6023BB630023FB6300233B640023DD
:102710007B640023BB640023FB6400233B6507F15B
:102720003803042219461E4808F07CFB0346002BA0
:1027300001D001F0CFFC1A4B1B689A69184B1B683B
:1027400022F400629A6100237B600023BB600023B7
:10275000FB6000233B6100237B614FF40053BB61AE
:102760000023FB6100233B6200237B624FF0007378
:10277000BB620023FB6200233B6300237B633B1DA2
:102780001946074809F0D6FA0346002B01D001F09C
:10279000A1FC034802F046F800BF6037BD4680BD8B
:1027A000F80800200034014080B588B000AF07F180
:1027B000100300221A605A609A60DA603B1D002202
:1027C0001A605A609A601F4B1F4A1A601D4B40F2F4
:1027D000DB525A601B4B00229A601A4B0422DA60CB
:1027E000184B00221A61174B00225A61154B002228
:1027F0009A61144807F052FE0346002B01D001F005
:1028000069FC4FF480533B6107F1100319460D48F2
:1028100008F01CFC0346002B01D001F05BFC0023F8
:102820007B600023FB603B1D1946064809F0ECF96C
:102830000346002B01D001F04DFC00BF2037BD4600
:1028400080BD00BF440900200040014080B500AFBA
:102850000F4B104A1A600E4B43F697225A600C4BEE
:1028600000229A600A4B0922DA60094B00221A61A1
:10287000074B00225A61064B00229A61044807F078
:102880000DFE0346002B01D001F024FC00BF80BDEB
:10289000900900200044014080B500AF224B234A3C
:1028A0001A60214B4FF4E1325A601F4B00229A60AC
:1028B0001D4B0022DA601C4B00221A611A4B0C22BD
:1028C0005A61194B00229A61174B0022DA61164BAC
:1028D00000221A62144B00225A62134B00229A62A1
:1028E000114809F001FB0346002B01D001F0F2FB77
:1028F00000210D480AF09CF80346002B01D001F09E
:10290000E9FB002108480AF0D1F80346002B01D06A
:1029100001F0E0FB04480AF052F80346002B01D016
:1029200001F0D8FB00BF80BDDC090020004C004056
:1029300080B582B000AF224B9B6C214A43F0040368
:1029400093641F4B9B6C03F004037B607B681C4B00
:102950009B6C1B4A43F001039364194B9B6C03F07F
:1029600001033B603B68002200210B2004F0DFF8EC
:102970000B2004F0F6F8002200210C2004F0D7F818
:102980000C2004F0EEF8002200210D2004F0CFF816
:102990000D2004F0E6F8002200210E2004F0C7F814
:1029A0000E2004F0DEF8002200210F2004F0BFF812
:1029B0000F2004F0D6F800BF0837BD4680BD00BF29
:1029C0000010024080B58CB000AF07F11C0300225C
:1029D0001A605A609A60DA601A619A4BDB6C994A05
:1029E00043F01003D364974BDB6C03F01003BB611F
:1029F000BB69944BDB6C934A43F00403D364914B63
:102A0000DB6C03F004037B617B698E4BDB6C8D4ACE
:102A100043F02003D3648B4BDB6C03F020033B615A
:102A20003B69884BDB6C874A43F00103D364854BD9
:102A3000DB6C03F00103FB60FB68824BDB6C814ABB
:102A400043F00203D3647F4BDB6C03F00203BB60F3
:102A5000BB687C4BDB6C7B4A43F00803D364794B47
:102A6000DB6C03F008037B607B6800222021764842
:102A700004F07CFF01224FF40071744804F076FFEB
:102A800000222821724804F071FF002204216F48BF
:102A900004F06CFF01224FF481716B4804F066FF73
:102AA000012240216A4804F061FF012201216948A6
:102AB00004F05CFF01228021674804F057FF40F6D4
:102AC0001503FB6100233B6200237B6207F11C03BB
:102AD00019465D4804F0B0FD2023FB6101233B62F1
:102AE00000237B620023BB6207F11C031946564892
:102AF00004F0A2FD4FF40073FB6111233B6200233D
:102B00007B620023BB6207F11C0319464F4804F0A7
:102B100093FD4FF48063FB6100233B6200237B62E3
:102B200007F11C031946494804F086FD4FF4017370
:102B3000FB6100233B6200237B6207F11C03194603
:102B4000434804F079FD2823FB6101233B62002305
:102B50007B620023BB6207F11C0319463C4804F06A
:102B60006BFD0423FB6101233B6200237B62002396
:102B7000BB6207F11C031946344804F05DFD0123D4
:102B8000FB6100233B6200237B6207F11C031946B3
:102B9000314804F051FD4FF48173FB6111233B6216
:102BA00000237B620023BB6207F11C031946264801
:102BB00004F042FD4023FB6111233B6200237B6252
:102BC0000023BB6207F11C031946214804F034FDC1
:102BD0004FF48063FB6100233B6200237B6207F1BB
:102BE0001C0319464FF0904004F026FD0123FB61C1
:102BF00011233B6200237B620023BB6207F11C03AD
:102C00001946144804F018FD7023FB6100233B6251
:102C100000237B6207F11C0319460E4804F00CFDEB
:102C20008023FB6111233B6200237B620023BB6294
:102C300007F11C031946084804F0FEFC00BF3037BA
:102C4000BD4680BD0010024000100048001400483E
:102C500000080048000C00480004004880B483B01D
:102C600000AF03460A46FB711346BB71FB79042B88
:102C700039D801A252F823F08D2C00089B2C0008B3
:102C8000A92C0008C52C0008D32C0008BB79002B08
:102C90002BD10123FB71012331E0BB79002B26D11D
:102CA0000223FB7102232AE0BB79012B03D103230A
:102CB000FB71032323E0BB79032B1AD10423FB719F
:102CC00004231CE0BB79022B15D10123FB710123E6
:102CD00015E0BB79002B10D10C4B00221A600223A7
:102CE000FB7102230BE000BF08E000BF06E000BF5D
:102CF00004E000BF02E000BF00E000BFFB7918461F
:102D00000C37BD465DF8047B704700BFB40B002054
:102D100080B485B000AF78607B68642B01D96423F0
:102D20007B600B4BDB6801337A6802FB03F3094AD3
:102D3000A2FB03235B09013BFB60054B1B68FA68A0
:102D40005A6300BF1437BD465DF8047B704700BF6F
:102D5000140800201F85EB5180B584B000AF786067
:102D60007B681B682E4A93424FD12E4B1B78DBB2F7
:102D7000002B4AD00023FB600023BB600BE02A4AF3
:102D8000BB6832F813309BB21A46FB681344FB60F1
:102D9000BB680133BB60BB68092BF0DDFB68234ACD
:102DA000A2FB0323DB0840F6E44202FB03F31B0B08
:102DB0009AB21F4B1A801E4B1B88A3F2AA531846C7
:102DC000FDF7E8FB14A3D3E90023FDF74DFC024611
:102DD0000B4610461946FDF7F7FE03461AB2154B8F
:102DE0001A80144BB3F9003013F57A7F03DA114BD4
:102DF0004FF618421A800F4BB3F90030B3F57A7FC3
:102E000003DD0C4B4FF47A721A8000BF1037BD46B9
:102E100080BD00BFAFF30080FA7E6ABC7493D83FD8
:102E200000060050B90B0020B00A0020CDCCCCCC5D
:102E3000C40A0020AC0A002080B489B000AFF8605A
:102E4000B9607A60334BBB61FB685B6801337B61BF
:102E50007B697A6802FB03F3BA69B2FBF3F3013BC7
:102E6000FB61FB69B3F5803F14D3FB691B0C7A69E6
:102E700002FB03F301337B617B697A6802FB03F396
:102E8000BA69B2FBF3F3013BFB61FB681B687A692B
:102E9000013A9A62FB681B68FA69DA62FB68FA69B0
:102EA000DA60FB695B083B61BB68002B04D1FB68FF
:102EB0001B683A695A6323E0BB68042B04D1FB68A2
:102EC0001A683B6993631BE0BB68082B04D1FB685D
:102ED0001A683B69D36313E0BB680C2B04D1FB6811
:102EE0001A683B6913640BE0BB68102B04D1FB68C4
:102EF0001A683B69936403E0FB681A683B69D36412
:102F0000FB681B6801225A6100BF2437BD465DF88B
:102F1000047B704780D1F00880B500AF01211848CC
:102F200004F00CFD0346002B26D01021144804F0B9
:102F300005FD0346002B1FD00421114804F0FEFCC0
:102F40000346002B18D04FF400610D4804F0F6FC46
:102F50000346002B10D040210A4804F0EFFC034642
:102F6000002B09D04FF40071074804F0E7FC03463A
:102F7000002B01D0002300E00123184680BD00BFD4
:102F800000100048000C00480008004880B500AF61
:102F90001021114804F0D2FC0346002B19D0012166
:102FA0000E4804F0CBFC0346002B12D04FF4806196
:102FB0000B4804F0C3FC0346002B0AD04FF4806199
:102FC0004FF0904004F0BAFC0346002B01D00123DF
:102FD00000E00023184680BD000C004800040048B3
:102FE0000014004800000000B0B582B000AF786067
:102FF0007B681B68704A934240F0B1806F4B1B782E
:10300000022B40F0A5806E4B9B889BB2F03B18468C
:10301000FDF7C0FA62A3D3E90023FDF725FB0246C2
:103020000B461046194660A3D3E90023FDF71CFBAD
:1030300002460B4610461946FDF7EEFD0346614A6F
:103040001360614B5B889BB2EE3B1846FDF7A2FA1A
:1030500053A3D3E90023FDF707FB02460B461046B6
:10306000194651A3D3E90023FDF7FEFA02460B46A9
:1030700010461946FDF7D0FD0346544A1360544BE1
:103080001B881846FDF786FA04460D46514B1B680F
:103090001846FDF77FFA46A3D3E90023FDF7E4FACB
:1030A00002460B4620462946FDF728F902460B4604
:1030B00010461946FDF7B0FD0346002200214648A0
:1030C00003F04EFE454B1B881846FDF763FA044695
:1030D0000D46434B1B681846FDF75CFA34A3D3E951
:1030E0000023FDF7C1FA02460B4620462946FDF7AC
:1030F00005F902460B4610461946FDF78DFD0346BD
:1031000000221021344803F02BFE314B1B88184657
:10311000FDF740FA04460D46324B1B681846FDF792
:1031200039FA4FF00002304BFDF79EFA02460B468B
:1031300020462946FDF7E0F802460B4610461946A0
:10314000FDF76AFD034600220021284803F008FE2F
:103150000821274804F022FC264B01221A707B68C4
:103160001B68254A934201D100F076F97B681B6801
:10317000224A934210D10221214804F00FFC4FF45F
:103180000071204804F00AFC002220211C4804F0B1
:10319000EDFB1D4807F0C2FA00BF0837BD46B0BDC1
:1031A000D3BCE3141DC9E93F0000000000A0774034
:1031B0009A9999999999993F00400140AF0B002045
:1031C0008C0A0020800A0020980A002004000020B9
:1031D000700A0020740A0020E0060020720A002015
:1031E000780A00207C0A00200000D03FF40600206E
:1031F00000080048B90B00200010004000140040F7
:103200000010004800140048AC08002080B489B0C9
:1032100000AFF861B9617A613B6187ED030AC7EDE0
:10322000020A87ED011A3A697B69D31A324A1360A0
:10323000BB691B68304A1168304A12680A4407EEBD
:10324000902AB8EEE77A97ED036AD7ED027AC6EED8
:10325000276AD7ED017A66EEA77AF6EE006A67EE86
:10326000A67A67EE277AFDEEE77A17EE902A1A44DF
:10327000BB691A60204B1B68204A1360BB691B683E
:10328000BA6A9A4202DCBB69BA6A1A60BB691B68F7
:10329000FA6A9A4202DBBB69FA6A1A60164B1B682B
:1032A00007EE903AB8EEE77AD7ED037A27EE277A61
:1032B000BB691B6807EE903AF8EEE77A77EE277A5B
:1032C000FDEEE77A17EE902AFB691A60FB691B682E
:1032D000BA6A9A4202DCFB69BA6A1A60FB691B6827
:1032E000FA6A9A4202DBFB69FA6A1A6000BF243765
:1032F000BD465DF8047B7047A00A0020980B0020B3
:1033000080B48BB000AFF861B9617A613B6187ED41
:10331000030AC7ED020A87ED011A3A6B3B69D31A1B
:103320007B62BB691B687A6911687A6A0A4407EE96
:10333000902AB8EEE77A97ED036AD7ED027AC6EEE7
:10334000276AD7ED017A66EEA77AF6EE006A67EE95
:10335000A67A67EE277AFDEEE77A17EE902A1A44EE
:10336000BB691A607B697A6A1A60BB691B687A6BF1
:103370009A4202DCBB697A6B1A60BB691B68BA6B44
:103380009A4202DBBB69BA6B1A607B6A07EE903A1D
:10339000B8EEE77AD7ED037A27EE277ABB691B6888
:1033A00007EE903AF8EEE77A77EE277AFDEEE77AC5
:1033B00017EE902AFB691A60FB691B687A6B9A42C8
:1033C00002DCFB697A6B1A60FB691B68BA6B9A4274
:1033D00002DBFB69BA6B1A6000BF2C37BD465DF893
:1033E000047B704700000000B0B582B000AF87EDED
:1033F000010AC7ED000A3868FDF7DEF812A3D3E929
:103400000023FDF731F902460B4614461D46786845
:10341000FDF7D2F80EA3D3E90023FDF725F9024604
:103420000B4620462946FCF769FF02460B4610462C
:103430001946FDF711FC034607EE903AB0EE670A15
:103440000837BD46B0BD00BFCDCCCCCCCCCCEC3F1A
:103450009A9999999999B93F80B582B000AF444B38
:10346000DB889BB21A4640F6E44302FB03F3002BD1
:1034700001DA03F6FF731B131A463E4B1A603C4BEE
:103480001B899BB21A4640F6E44302FB03F3002B70
:1034900001DA03F6FF731B131A46374B1A60142325
:1034A0003B60344B1B68A3F5C873344AA2FB03236B
:1034B0001B09304A1360304B1B68A3F5FA732F4A7F
:1034C000A2FB0323DB082C4A13602B4B1A68294B01
:1034D0001B68934238BF13463B603B68642202FB83
:1034E00003F3A3F5FA63254AA2FB03239B097B6040
:1034F0007B68642B01D964237B607868FDF73AF818
:1035000002460B469FED161B43EC102B12F0D4FF26
:1035100051EC100B14A3D3E90023FDF7A5F80246E4
:103520000B4610461946FDF74FFB0346144A82FB33
:1035300003129214DB17D31A1433124A13603B6838
:10354000132B03D80F4B14221A6005E03B68642B41
:1035500002D90C4B63221A6000BF0837BD4680BDFC
:1035600000000000000008400000000000C05340C0
:103570008C0A0020840A0020880A0020CDCCCCCC04
:1035800083DE1B436400002080B584B000AF786008
:103590007868FCF7A5FE0346FB81FB897F2B01D9E8
:1035A0007F23FB81FB891A4679680B480FF037F8B7
:1035B000FB89094A0021D154FB89194678680DF02E
:1035C00097FB03467B737B7B012BF5D000BF00BFCD
:1035D0001037BD4680BD00BF080B002080B582B00B
:1035E00002AF9E4B1B78DBB2002B00F064820622F8
:1035F0009B499C480EF089FF0346002B08D19A4A4C
:103600009A4998480EF008FF9948FFF7BDFF4AE233
:103610000622984993480EF078FF0346002B08D104
:10362000954A96498F480EF0F7FE9548FFF7ACFF94
:1036300039E2082293498B480EF067FF0346002BBE
:1036400008D1914A914987480EF0E6FE9048FFF76D
:103650009BFF28E20C228F4982480EF056FF03465A
:10366000002B08D18C4A8D497E480EF0D5FE8C483F
:10367000FFF78AFF17E20C228A497A480EF045FFCD
:103680000346002B08D1884A884976480EF0C4FECC
:103690008748FFF779FF06E20D22864971480EF050
:1036A00034FF0346002B08D1834A84496D480EF04D
:1036B000B3FE8348FFF768FFF5E10C2281496948B2
:1036C0000EF023FF0346002B08D17F4A7F4965484F
:1036D0000EF0A2FE7E48FFF757FFE4E10C227D4981
:1036E00060480EF012FF0346002B08D17A4A7B494E
:1036F0005C480EF091FE7A48FFF746FFD3E10D22B9
:10370000784958480EF001FF0346002B0DD1764A48
:10371000764954480EF080FE734B1B685B42744A36
:1037200013607448FFF730FFBDE10C2272494D4829
:103730000EF0EBFE0346002B08D1704A7049494851
:103740000EF06AFE6F48FFF71FFFACE10C226E49D6
:1037500044480EF0DAFE0346002B08D16B4A6C4950
:1037600040480EF059FE6B48FFF70EFF9BE16A4997
:103770003C48FCF755FD0346002B08D1674A6849D1
:1037800038480EF049FE6748FFF7FEFE8BE16649B8
:103790003448FCF745FD0346002B0AD15F4B1B68FC
:1037A0001A46624962480EF015FE6148FFF7ECFECA
:1037B00079E106225F492B480EF0A7FE0346002B55
:1037C0000ED1294B1B681846FCF7F6FE02460B4645
:1037D000594957480EF0FEFD5548FFF7D5FE62E106
:1037E000062256491F480EF090FE0346002B0ED1CC
:1037F000214B1B681846FCF7DFFE02460B4650497A
:103800004B480EF0E7FD4A48FFF7BEFE4BE10822A9
:103810004C4914480EF079FE0346002B0AD11A4B8E
:103820001B681A46484942480EF0D4FD4048FFF74D
:10383000ABFE38E10C2245490A480EF066FE03460D
:10384000002B40F08780144B1B881A4640493848AB
:103850000EF0C0FD3648FFF797FE24E1880B0020EC
:10386000D0730108C80A002038000020D87301086E
:10387000E4730108F07301083C000020F8730108AC
:103880000474010810740108000000201C74010871
:103890002C7401083C740108700A00204C74010863
:1038A0005C7401087C740108720A00208C740108A1
:1038B0009C740108BC740108AC0A0020CC74010897
:1038C000E0740108F4740108500000200475010838
:1038D0001475010828750108540000203875010886
:1038E000487501085C750108580000206C750108D6
:1038F0005C0000208075010894750108100000200C
:10390000A4750108B4750108C875010814000020E9
:10391000D8750108E8750108FC7501084C00002005
:1039200010760108287601084476010858760108C7
:10393000080B0020747601087C760108887601085F
:10394000907601089C760108A8760108B4760108F3
:10395000C47601080C22594959480EF0D6FD034699
:10396000002B0AD1574B1B881A46574957480EF06F
:1039700031FD5648FFF708FE95E00D2254495048A6
:103980000EF0C3FD0346002B0BD1524BB3F90030B0
:103990001A4651494D480EF01DFD4C48FFF7F4FD05
:1039A00081E00C224D4946480EF0AFFD0346002B46
:1039B0000ED14B4B1B681846FCF7FEFD02460B462A
:1039C000484942480EF006FD4048FFF7DDFD6AE039
:1039D0000C2245493A480EF098FD0346002B0ED1C3
:1039E000424B1B681846FCF7E7FD02460B46404970
:1039F00036480EF0EFFC3548FFF7C6FD53E00E22C7
:103A00003C492F480EF081FD0346002B0FD13A4B65
:103A10001A683A4B19683A4B1B6800930B463949B0
:103A20002A480EF0D7FC2948FFF7AEFD3BE00C22F8
:103A3000354923480EF069FD0346002B0ED1334B68
:103A40001B681846FCF7B8FD02460B4630491F4874
:103A50000EF0C0FC1D48FFF797FD24E00C222D4915
:103A600017480EF052FD0346002B0ED12A4B1B685F
:103A70001846FCF7A1FD02460B46284913480EF0F4
:103A8000A9FC1248FFF780FD0DE00B2224490C48E9
:103A90000EF03BFD0346002B02D100F091F902E04D
:103AA0002048FFF771FD4022002105480EF025FD5A
:103AB0001D4B00221A7000BFBD4680BDE076010894
:103AC000C80A0020720A0020F0760108080B0020C6
:103AD0000C770108AC0A00201C7701082C7701083C
:103AE000500000203C7701084C770108540000206A
:103AF0005C7701086C770108A80B0020740A00208D
:103B0000780A00207C770108B077010810000020B7
:103B1000C0770108D077010814000020E077010881
:103B2000F0770108FC770108880B002080B487B08B
:103B300000AF87ED030AB8600B46FB71FB79202BC1
:103B400035D1D7ED037AB7EE007AF4EEC77AF1EE0D
:103B500010FA11D8BB6807EE903AB8EEE77AD7EDC5
:103B6000037A67EE277A9FED327A67EE877AFCEE6A
:103B7000E77A17EE903A7B61D7ED037AB7EE007AD9
:103B8000F4EEC77AF1EE10FA11DDBB6807EE903A59
:103B9000B8EEE77AD7ED036AC6EE877A9FED247A0E
:103BA00067EE877AFCEEE77A17EE903A7B61FB7955
:103BB000102B35D1D7ED037AB7EE007AF4EEC77A41
:103BC000F1EE10FA11D8BB6807EE903AB8EEE77A3A
:103BD000D7ED037A67EE277A9FED167A67EE877A3C
:103BE000FCEEE77A17EE903A7B61D7ED037AB7EEF9
:103BF000007AF4EEC77AF1EE10FA11DDBB6807EE39
:103C0000903AB8EEE77AD7ED036AC6EE877A9FED71
:103C1000097A67EE877AFCEEE77A17EE903A7B61D5
:103C20007B6918461C37BD465DF8047B704700BFB2
:103C30000000004F00FEFF4680B487B000AFF86080
:103C4000B96011461A460B46FB711346BB71BB792E
:103C5000202B2BD197F90730002B11D0FB6807EEF2
:103C6000903AF8EEE77A9FED2E7AC7EE876ABB6846
:103C700007EE903AB8EEE77AC6EE877AC7ED057A96
:103C800097F90730002B11D1FB6807EE903AF8EE58
:103C9000E77ADFED236A87EEA67ABB6807EE903AF3
:103CA000F8EEE77A67EE277AC7ED057ABB79102B35
:103CB0002BD197F90730002B11D0FB6807EE903A13
:103CC000F8EEE77A9FED177AC7EE876ABB6807EED2
:103CD000903AB8EEE77AC6EE877AC7ED057A97F99B
:103CE0000730002B11D1FB6807EE903AF8EEE77A27
:103CF000DFED0C6A87EEA67ABB6807EE903AF8EE25
:103D0000E77A67EE277AC7ED057A7B6907EE903A86
:103D1000B0EE670A1C37BD465DF8047B704700BFF4
:103D20000000004F00FEFF4680B584B000AF87ED75
:103D3000010AD7ED017ABFEE007AF4EEC77AF1EE10
:103D400010FA02D51A4B7B600BE0D7ED017AB7EE83
:103D5000007AF4EEC77AF1EE10FA02DD4FF07E53EE
:103D60007B60B7EE007AD7ED017A77EE677AB0EE36
:103D7000670A12F011FC87ED030AD7ED017A9FED77
:103D80000D7A67EE877A9FED0C7A37EEC77AD7ED1A
:103D9000017A67EE277A9FED097A37EE877AD7EDB9
:103DA000037A67EE277AB0EE670A1037BD4680BD0A
:103DB000000080BF9E3AB63DCABF5B3EDA0FC93FE6
:103DC00080B5A0B000AF934B1B681846FCF7F4FB1E
:103DD00002460B46384690490EF0FCFA3B46184620
:103DE000FFF7D2FB8D4B1B681846FCF7E5FB02463C
:103DF0000B4638468A490EF0EDFA3B461846FFF767
:103E0000C3FB884B1A683B46874918460EF0E2FA16
:103E10003B461846FFF7B8FB844B1A683B4684497B
:103E200018460EF0D7FA3B461846FFF7ADFB814B1C
:103E30001A683B46804918460EF0CCFA3B461846B5
:103E4000FFF7A2FB7D4B1A683B467D4918460EF0F2
:103E5000C1FA3B461846FFF797FB7A4B1A683B4678
:103E6000794918460EF0B6FA3B461846FFF78CFB28
:103E7000764B1A683B46764918460EF0ABFA3B463D
:103E80001846FFF781FB734B1A683B467249184688
:103E90000EF0A0FA3B461846FFF776FB6F4B1A6808
:103EA0003B466F4918460EF095FA3B461846FFF719
:103EB0006BFB6C4B1A683B466B4918460EF08AFA4E
:103EC0003B461846FFF760FB684B1A683B4668495B
:103ED00018460EF07FFA3B461846FFF755FB654B38
:103EE0001B881A463B46644918460EF073FA3B4657
:103EF0001846FFF749FB614B1B881A463B46604951
:103F000018460EF067FA3B461846FFF73DFB5D4B3F
:103F1000B3F900301A463B465B4918460EF05AFA90
:103F20003B461846FFF730FB584B1B681846FCF71A
:103F300043FB02460B46384655490EF04BFA3B46CA
:103F40001846FFF721FB534B1B681846FCF734FB60
:103F500002460B46384650490EF03CFA3B4618469E
:103F6000FFF712FB4D4B1A683B464D4918460EF0C1
:103F700031FA3B461846FFF707FB4A4B1A683B46A7
:103F8000494918460EF026FA3B461846FFF7FCFA58
:103F9000464B1B681846FCF70FFB02460B4638469B
:103FA00043490EF017FA3B461846FFF7EDFA414B2E
:103FB0001B78DBB21A463B463F4918460EF00AFA18
:103FC0003B461846FFF7E0FA3C4B1A683B463C4933
:103FD00018460EF0FFF93B461846FFF7D5FA394B65
:103FE0001A683B46384918460EF0F4F93B46184625
:103FF000FFF7CAFA354B1A683B46354918460EF0AA
:10400000E9F93B461846FFF7BFFA00BF8037BD46C7
:1040100080BD00BF380000207C7601083C000020F5
:10402000907601080000002010780108740A002032
:104030001C780108780A00202C7801087C0A0020EE
:104040003C780108800A002048780108040000201C
:10405000647801086C00002080780108700000205E
:104060009C780108840A0020B8780108880A00209A
:10407000C8780108700A0020E0780108720A002060
:10408000FC780108AC0A0020187901081000002013
:10409000C077010814000020E0770108940B00208D
:1040A00028790108A00A00203C7901082800002096
:1040B0005C7901089C0A00207C79010848000020F6
:1040C00090790108A00B0020A4790108A80B00201A
:1040D000BC79010880B400AF72B600BF00BFFDE735
:1040E00080B582B000AF0F4B1B6E0E4A43F0010348
:1040F00013660C4B1B6E03F001037B607B68094B5E
:104100009B6D084A43F080539365064B9B6D03F00B
:1041100080533B603B6805F035FA00BF0837BD4669
:1041200080BD00BF0010024080B5A4B000AF786031
:1041300007F17C0300221A605A609A60DA601A6103
:1041400007F128035422002118460EF0D6F97B68A7
:104150001B68B3F1A04F1CD14FF40043BB624FF07A
:104160000053FB6607F12803184605F049FF034694
:10417000002B01D0FFF7AEFF864BDB6C854A43F482
:104180000053D364834BDB6C03F400537B627B6A84
:1041900085E17B681B68804A934240F087804FF43A
:1041A0008033BB624FF080433B6707F1280318461A
:1041B00005F026FF0346002B01D0FFF78BFF774B5E
:1041C0001B680133754A1360744B1B68012B0BD1BC
:1041D000704BDB6C6F4A43F48043D3646D4BDB6CF4
:1041E00003F480433B623B6A6A4BDB6C694A43F0F1
:1041F0000203D364674BDB6C03F00203FB61FB69D2
:10420000644BDB6C634A43F01003D364614BDB6C9B
:1042100003F01003BB61BB6942F20203FB67032397
:10422000C7F880300023C7F8843007F17C031946B3
:104230005B4803F001FA4FF40A53FB670323C7F806
:1042400080300023C7F8843007F17C0319465548B5
:1042500003F0F2F9544B554A1A60534B25225A6029
:10426000514B00229A60504B0022DA604E4B802264
:104270001A614D4B4FF480725A614B4B4FF4806280
:104280009A61494B2022DA61474B00221A62464864
:1042900002F060FF0346002B01D0FFF71BFF7B6895
:1042A000414A5A65404A7B689362F8E07B681B6824
:1042B0003F4A934240F082804FF48033BB624FF01C
:1042C00080433B6707F12803184605F099FE034633
:1042D000002B01D0FFF7FEFE304B1B6801332F4A45
:1042E00013602E4B1B68012B0BD12A4BDB6C294A28
:1042F00043F48043D364274BDB6C03F480437B613E
:104300007B69244BDB6C234A43F01003D364214BBD
:10431000DB6C03F010033B613B694FF48043FB67A8
:104320000323C7F880300023C7F8843007F17C03EB
:1043300019461C4803F080F91E4B1F4A1A601D4B9A
:1043400026225A601B4B00229A601A4B0022DA6028
:10435000184B80221A61174B4FF480725A61154B2B
:104360004FF480629A61134B2022DA61114B4FF4B3
:1043700040521A620F4802F0EDFE0346002B01D0B6
:10438000FFF7A8FE7B680B4A5A650A4A7B6893626E
:1043900085E000BF0010024000040050D80B002050
:1043A0000004004800100048980500200800024062
:1043B00000050050F80500201C0002407B681B68C7
:1043C000394A93426BD14FF48033BB624FF0804344
:1043D0003B6707F12803184605F012FE0346002B41
:1043E00001D0FFF777FE314B1B6801332F4A136072
:1043F0002E4B1B68012B0BD12D4BDB6C2C4A43F44D
:104400008043D3642A4BDB6C03F48043FB60FB687E
:10441000274BDB6C264A43F00103D364244BDB6C4F
:1044200003F00103BB60BB684FF48073FB67032399
:10443000C7F880300023C7F8843007F17C031946A1
:104440004FF0904003F0F8F81A4B1B4A1A60194BD2
:1044500027225A60174B00229A60164B0022DA601E
:10446000144B80221A61134B4FF480725A61114B26
:104470004FF480629A610F4B2022DA610D4B0022CB
:104480001A620C4802F066FE0346002B01D0FFF7CB
:1044900021FE7B68074A5A65064A7B68936200BF23
:1044A0009037BD4680BD00BF00060050D80B0020ED
:1044B00000100240580600203000024080B485B051
:1044C00000AF78607B681B680A4A93420BD10A4BA5
:1044D0009B6C094A43F008039364074B9B6C03F001
:1044E0000803FB60FB6800BF1437BD465DF8047B22
:1044F000704700BF000C02400010024080B58CB035
:1045000000AF786007F11C0300221A605A609A60BD
:10451000DA601A617B681B685B4A934259D15B4B36
:10452000DB6C5A4A43F48033D364584BDB6C03F49E
:104530008033BB61BB69554BDB6C544A43F00103CC
:10454000D364524BDB6C03F001037B617B69302346
:10455000FB6103233B6200237B6207F11C031946C6
:104560004FF0904003F068F8494B4A4A1A60484BB4
:1045700006225A60464B10229A60454B0022DA60B0
:10458000434B80221A61424B4FF400725A61404BF8
:104590004FF400629A613E4B2022DA613C4B4FF4AB
:1045A00000521A623A4802F0D5FD0346002B01D0B2
:1045B000FFF790FD7B68364A9A60354A7B689362C4
:1045C00000220021362002F0B2FA362002F0C9FAA9
:1045D00055E07B681B68304A934250D12B4BDB6C13
:1045E0002A4A43F40033D364284BDB6C03F40033D2
:1045F0003B613B69254BDB6C244A43F00103D364E8
:10460000224BDB6C03F00103FB60FB684023FB6182
:1046100003233B6200237B6207F11C0319464FF022
:10462000904003F009F81D4B1D4A1A601B4B2922CC
:104630005A601A4B10229A60184B0022DA60174B0E
:1046400080221A61154B4FF400725A61134B4FF4DC
:1046500000629A61114B2022DA61104B4FF4005234
:104660001A620E4802F076FD0346002B01D0FFF7D8
:1046700031FD7B68094A9A60084A7B68936200BFF3
:104680003037BD4680BD00BF00080050001002401A
:104690000807002044000240000C0050680700207A
:1046A0005800024080B584B000AF78607B681B681A
:1046B0001A4A934214D11A4B1B6E194A43F40063F1
:1046C0001366174B1B6E03F40063FB60FB6800224C
:1046D0000021182002F02BFA182002F042FA18E00C
:1046E0007B681B680F4A934213D10D4B1B6E0C4A1B
:1046F00043F4005313660A4B1B6E03F40053BB6074
:10470000BB68002200212B2002F011FA2B2002F0BE
:1047100028FA00BF1037BD4680BD00BF002C014005
:10472000001002400034014080B588B000AF7860CE
:104730007B681B68354A93420CD1354B9B6D344ADC
:1047400043F004039365324B9B6D03F00403FB615C
:10475000FB6956E07B681B682E4A934214D12C4BB0
:104760009B6D2B4A43F010039365294B9B6D03F01F
:104770001003BB61BB6900220021362002F0D7F98B
:10478000362002F0EEF93CE07B681B68224A934237
:104790000CD11F4B9B6D1E4A43F0200393651C4BAD
:1047A0009B6D03F020037B617B692AE07B681B68BB
:1047B0001A4A934214D1164B1B6E154A43F48033A8
:1047C0001366134B1B6E03F480333B613B6900227D
:1047D0000021182002F0ABF9182002F0C2F910E015
:1047E0007B681B680E4A93420BD1094B1B6E084A2B
:1047F00043F400331366064B1B6E03F40033FB6077
:10480000FB6800BF2037BD4680BD00BF00080040E8
:104810000010024000100040001400400040014021
:104820000044014080B58AB000AF786007F11403FE
:1048300000221A605A609A60DA601A617B681B680D
:10484000334A93421CD1334BDB6C324A43F00403AE
:10485000D364304BDB6C03F004033B613B69012301
:104860007B610223BB610023FB6102233B620223C5
:104870007B6207F114031946274802F0DDFE43E08E
:104880007B681B68254A93421DD1224BDB6C214A71
:1048900043F00803D3641F4BDB6C03F00803FB6099
:1048A000FB684FF480537B610223BB610023FB61F3
:1048B00000233B6202237B6207F114031946184868
:1048C00002F0BAFE20E07B681B68164A93421BD1B7
:1048D000104BDB6C0F4A43F00403D3640D4BDB6CCD
:1048E00003F00403BB60BB6880237B610223BB61D0
:1048F0000023FB6102233B6204237B6207F1140364
:104900001946054802F098FE00BF2837BD4680BD15
:10491000002C014000100240000800480008004040
:10492000000C00480034014080B59EB000AF7860B4
:1049300007F1640300221A605A609A60DA601A6113
:1049400007F110035422002118460DF0D6FD7B68B4
:104950001B681F4A934236D108233B6180233B6288
:1049600007F11003184605F04BFB0346002B01D05E
:10497000FFF7B0FB174B9B6D164A43F4002393657A
:10498000144B9B6D03F40023FB60FB68114BDB6C45
:10499000104A43F00403D3640E4BDB6C03F00403B2
:1049A000BB60BB684FF440637B660223BB66002399
:1049B000FB6600233B6705237B6707F16403194609
:1049C000054802F039FE00BF7837BD4680BD00BF04
:1049D000004C0040001002400008004880B400AFC6
:1049E00000BFFDE780B400AF00BFFDE780B400AFBB
:1049F00000BFFDE780B400AF00BFFDE780B400AFAB
:104A000000BFFDE780B400AF00BFBD465DF8047B8A
:104A1000704780B400AF00BFBD465DF8047B7047AF
:104A200080B400AF00BFBD465DF8047B704780B521
:104A300000AF00F0B9F900BF80BD000080B500AF45
:104A4000024802F0AAFC00BF80BD00BF980500200C
:104A500080B500AF024802F0A0FC00BF80BD00BFDF
:104A6000F805002080B500AF024802F096FC00BFB8
:104A700080BD00BF5806002080B500AF024802F09C
:104A80008CFC00BF80BD00BF0807002080B500AFD0
:104A9000024802F082FC00BF80BD00BF6807002012
:104AA00080B500AF024803F083F800BF80BD00BFAF
:104AB000B820002080B500AF034806F063F8034833
:104AC00006F060F800BF80BDC80700204409002040
:104AD00080B500AF024806F055F800BF80BD00BFAA
:104AE000F808002080B500AF034806F04BF80348F3
:104AF00002F0E0F800BF80BD60080020E006002062
:104B000080B400AF01231846BD465DF8047B7047B2
:104B100080B582B000AF786039600DF053FD034678
:104B200016221A604FF0FF3318460837BD4680BD85
:104B300080B582B000AF78604FF0FF317868FFF742
:104B4000E7FF00BFFDE780B586B000AFF860B96051
:104B50007A6000237B610AE0AFF300800146BB6806
:104B60005A1CBA60CAB21A707B6901337B617A69D8
:104B70007B689A42F0DB7B6818461837BD4680BDDB
:104B800080B586B000AFF860B9607A6000237B61C1
:104B900009E0BB685A1CBA601B781846AFF3008066
:104BA0007B6901337B617A697B689A42F1DB7B68C0
:104BB00018461837BD4680BD80B483B000AF78601A
:104BC0004FF0FF3318460C37BD465DF8047B704745
:104BD00080B483B000AF786039603B684FF4005216
:104BE0005A60002318460C37BD465DF8047B7047B9
:104BF00080B483B000AF7860012318460C37BD46FF
:104C00005DF8047B704780B485B000AFF860B96090
:104C10007A60002318461437BD465DF8047B704760
:104C200080B586B000AF7860144A154BD31A7B610B
:104C30007B693B61134B1B68002B02D1114B124A5D
:104C40001A60104B1A687B6813443A699A4207D27B
:104C50000DF0B8FC03460C221A604FF0FF3309E058
:104C6000084B1B68FB60074B1A687B681344054AB6
:104C70001360FB6818461837BD4680BD000002204F
:104C800000040000DC0B00200027002080B400AFEF
:104C9000064BD3F88830054A43F47003C2F88830D5
:104CA00000BFBD465DF8047B704700BF00ED00E02B
:104CB0000D488546FFF7EAFF0C480D490D4A0023D1
:104CC00002E0D458C4500433C4188C42F9D30A4AC1
:104CD0000A4C002301E013600432A242FBD30DF022
:104CE00077FCFCF7D5F9FEE7000002200000002069
:104CF000CC030020007F0108CC0300200027002007
:104D0000FEE780B582B000AF0023FB71032001F005
:104D100003FF002000F00EF80346002B02D0012311
:104D2000FB7101E0FFF7DCF9FB7918460837BD4657
:104D300080BD000080B584B000AF78600023FB73B5
:104D4000164B1B68002B22D0154B1A68134B1B689F
:104D50004FF47A71B1FBF3F3B2FBF3F3184601F0B1
:104D60000EFF0346002B0FD17B680F2B09D80022C2
:104D700079684FF0FF3001F0DAFE0A4A7B68136071
:104D800007E00123FB7304E00123FB7301E001232F
:104D9000FB73FB7B18461037BD4680BD88000020A2
:104DA000800000208400002080B400AF054B1A680A
:104DB000054B1B681344034A136000BFBD465DF8F2
:104DC000047B7047E00B00208800002080B400AF17
:104DD000034B1B681846BD465DF8047B704700BF57
:104DE000E00B002080B584B000AF7860FFF7EEFFE5
:104DF000B8607B68FB60FB68B3F1FF3F04D0094BF0
:104E00001B68FA681344FB6000BFFFF7DFFF024630
:104E1000BB68D31AFA689A42F7D800BF00BF1037B0
:104E2000BD4680BD8800002080B483B000AF7860AC
:104E300039607B689B6823F47C123B681A437B686B
:104E40009A6000BF0C37BD465DF8047B704780B4A4
:104E500083B000AF786039607B689B6823F0E072B4
:104E60003B681A437B689A6000BF0C37BD465DF80B
:104E7000047B704780B483B000AF78607B689B6828
:104E800003F0E07318460C37BD465DF8047B7047AD
:104E900080B487B000AFF860B9607A603B60FB68AF
:104EA00060331A46BB689B0013447B617B691A68B8
:104EB000084B13407A6802F0F8413A680A431343FA
:104EC00043F000427B691A6000BF1C37BD465DF8A5
:104ED000047B704700F0FF0380B485B000AF7860BA
:104EE00039607B6860331A463B689B001344FB6063
:104EF000FB681B6803F0F84318461437BD465DF89D
:104F0000047B704780B487B000AFF860B9607A6006
:104F1000FB6860331A46BB689B0013447B617B6966
:104F20001B6823F000427B681A437B691A6000BF4C
:104F30001C37BD465DF8047B704780B487B000AF76
:104F4000F860B9607A60FB6860331A46BB689B0002
:104F500013447B617B691B6823F080727B681A4372
:104F60007B691A6000BF1C37BD465DF8047B704743
:104F700080B487B000AFF860B9607A60FB686033D6
:104F80001A46BB689B0013447B617B691B6823F056
:104F900000727B681A437B691A6000BF1C37BD46EC
:104FA0005DF8047B704780B483B000AF78603960EF
:104FB0007B685B6923F000423B681A437B685A6157
:104FC00000BF0C37BD465DF8047B704780B483B0EA
:104FD00000AF78607B68DB6803F44063002B01D18D
:104FE000012300E0002318460C37BD465DF8047B22
:104FF000704780B487B000AFF860B9607A60FB6832
:1050000030331A46BB681B0A9B0003F00C031344A1
:105010007B617B691A68BB6803F01F031F2101FADB
:1050200003F3DB431A407B689B0E03F01F01BB6850
:1050300003F01F0301FA03F31A437B691A6000BFF0
:105040001C37BD465DF8047B704780B487B000AF65
:10505000F860B9607A60FB6814331A46BB685B0E6F
:105060009B0003F0040313447B617B691A68BB68EF
:105070001B0D03F01F03072101FA03F3DB431A4062
:10508000BB681B0D03F01F03796801FA03F31A4391
:105090007B691A6000BF1C37BD465DF8047B704712
:1050A00080B485B000AFF860B9607A60FB68D3F86F
:1050B000B020BB68C3F31203DB431A407B6803F0E4
:1050C00018030849D940BB680B40C3F312031A43C5
:1050D000FB68C3F8B02000BF1437BD465DF8047B01
:1050E000704700BFFFFF070080B483B000AF786057
:1050F0007B689B6803F01F0318460C37BD465DF8BC
:10510000047B704780B483B000AF78607B689B6895
:1051100023F0204323F03F037A68936000BF0C37ED
:10512000BD465DF8047B704780B483B000AF786003
:105130007B689B6803F00053B3F1005F01D101234A
:1051400000E0002318460C37BD465DF8047B70472D
:1051500080B483B000AF78607B689B6823F0104315
:1051600023F03F0343F080527B689A6000BF0C3706
:10517000BD465DF8047B704780B483B000AF7860B3
:105180007B689B6803F08053B3F1805F01D10123FA
:1051900000E0002318460C37BD465DF8047B7047DD
:1051A00080B483B000AF78607B689B6823F00043D5
:1051B00023F03F0343F001027B689A6000BF0C3785
:1051C000BD465DF8047B704780B483B000AF786063
:1051D0007B689B6823F0004323F03F0343F0020207
:1051E0007B689A6000BF0C37BD465DF8047B704752
:1051F00080B483B000AF78607B689B6803F00103E4
:10520000012B01D1012300E0002318460C37BD46D5
:105210005DF8047B704780B483B000AF78607B6832
:105220009B6803F00203022B01D1012300E000235D
:1052300018460C37BD465DF8047B704780B483B0D8
:1052400000AF78607B689B6823F0004323F03F0346
:1052500043F004027B689A6000BF0C37BD465DF8DE
:10526000047B704780B483B000AF78607B689B6834
:1052700003F00403042B01D1012300E000231846AE
:105280000C37BD465DF8047B704780B483B000AF37
:1052900078607B689B6803F00803082B01D1012329
:1052A00000E0002318460C37BD465DF8047B7047CC
:1052B00090B589B000AF78600023FB770023FB60D6
:1052C0007B68002B01D10123A9E17B685B69002B7E
:1052D0007B68DB6D002B09D17868FEF725FF7B68C2
:1052E00000221A667B68002283F858207B681B68BE
:1052F0001846FFF719FF0346002B04D07B681B6894
:105300001846FFF7FFFE7B681B681846FFF734FF5F
:105310000346002B15D17B681B681846FFF718FF62
:105320009C4B1B689B099C4AA2FB03239B090133EE
:105330005B00FB6002E0FB68013BFB60FB68002B4D
:10534000F9D17B681B681846FFF716FF0346002B50
:105350000DD17B68DB6D43F010027B68DA657B68FA
:105360001B6E43F001027B681A660123FB777B68A2
:105370001B681846FFF776FF78617B68DB6D03F0EA
:105380001003002B40F042817B69002B40F03E81EE
:105390007B68DB6D23F4817343F002027B68DA657E
:1053A0007B681B681846FFF723FF0346002B41D19B
:1053B0007B681B68B3F1A04F04D07B681B68774AF9
:1053C00093420FD14FF0A040FFF712FF04467348FD
:1053D000FFF70EFF03462343002B0CBF01230023DE
:1053E000DBB212E06E48FFF703FF04466D48FFF79B
:1053F000FFFE03461C436C48FFF7FAFE03462343B7
:10540000002B0CBF01230023DBB2002B12D07B68E2
:105410001B68B3F1A04F04D07B681B685F4A9342BE
:1054200001D1624A00E0624A7B685B681946104617
:10543000FFF7FAFC7B685B7F5A037B68DB6B1A43E0
:105440007B68DB681A437B689B681A437B6893F828
:1054500024301B041343BB617B6893F82430012B79
:1054600006D17B689B6A013B5B04BA691343BB614D
:105470007B68DB6A002B09D07B68DB6A03F47872F7
:105480007B681B6B1343BA691343BB617B681B6862
:10549000DA68484B13407A681268B9690B43D360E5
:1054A0007B681B681B6923F040617B685A6B7B68D3
:1054B0001B680A431A617B681B681846FFF7E5FE04
:1054C00038617B69002B7FD13B69002B7CD17B68E5
:1054D0001B7F9A037B6893F838305B001343BB61F2
:1054E0007B681B68DB6823F4804323F002037A683F
:1054F0001268B9690B43D3607B681B69002B17D016
:105500007B681B681A697B681B6842F480321A61E9
:105510007B681B68D3F8C03023F47F5323F03F032C
:105520007A6811697A6812680B43C2F8C03013E0D8
:105530007B681B681A697B681B6822F480321A61D9
:105540007B681B68D3F8C0307A68126823F47F53F5
:1055500023F03F03C2F8C0307B6893F84030012B42
:105560002AD17B681B681B6923F4FF6323F00403C3
:105570007A68516C7A68926C11437A68D26C1143E4
:105580007A68126D0A431A437B681B6842F0010275
:105590001A6119E080000020632D3E0500010050D3
:1055A00000040050000500500006005000030050A9
:1055B000000700500740F0FF7B681B681A697B6892
:1055C0001B6822F001021A617B685B69012B0CD118
:1055D0007B681B681B6B23F00F017B681B6A5A1EDC
:1055E0007B681B680A431A6307E07B681B681A6BB9
:1055F0007B681B6822F00F021A637B68DB6D23F067
:10560000030343F001027B68DA6507E07B68DB6D2A
:1056100043F010027B68DA650123FB77FB7F1846B5
:105620002437BD4690BD00BF80B586B000AFF8609E
:10563000B9607A60FB681B68B3F1A04F04D0FB68C7
:105640001B685A4A934201D1594B00E0594B184606
:10565000FFF74AFD3861FB681B681846FFF702FE3A
:105660000346002B40F09B80FB6893F85830012BD9
:1056700001D1022396E0FB68012283F85820FB68E1
:105680001B684D4A934208D03B69002B05D03B690B
:10569000052B02D03B69092B7AD1F86800F0ECFCAD
:1056A0000346FB75FB7D002B6DD1FB68DB6D23F49E
:1056B000706323F0010343F48072FB68DA65FB68D2
:1056C0001B683A4A934209D0FB681B683B4A9342E5
:1056D00002D0FB681B6803E0394B01E04FF0A043A8
:1056E000FA681268934202D03B69002B05D1FB682F
:1056F000DB6D23F48012FB68DA65FB68DB6D03F475
:105700008053002B06D0FB681B6E23F00602FB685B
:105710001A6602E0FB6800221A66FB685B6D294A84
:10572000DA62FB685B6D284A1A63FB685B6D274A87
:105730005A63FB681B681C221A60FB68002283F80E
:105740005820FB681B685A68FB681B6842F010020F
:105750005A60FB681B68DA68FB681B6842F001024C
:10576000DA60FB68586DFB681B6840331946BA68FD
:105770007B6801F097FD0346FB75FB681B681846C4
:10578000FFF75CFD0DE0FB68002283F8582008E07D
:105790000123FB75FB68002283F8582001E00223F7
:1057A000FB75FB7D18461837BD4680BD00010050D3
:1057B0000003005000070050000600500005005094
:1057C00000040050636200083B6300085763000850
:1057D00080B483B000AF786000BF0C37BD465DF881
:1057E000047B704780B483B000AF786000BF0C3793
:1057F000BD465DF8047B704780B5B6B000AF7860F9
:105800003960002387F8D7300023FB607B6893F86A
:105810005830012B02D1022300F013BC7B68012217
:1058200083F858207B681B681846FFF71BFD03466A
:10583000002B40F0F3837B6818683B6859683B682D
:105840001B681A46FFF7D5FB7B681B681846FFF7F5
:1058500009FDC7F8D0007B681B681846FFF715FDE7
:10586000C7F8CC00D7F8D030002B40F0D981D7F85A
:10587000CC30002B40F0D4813B689B68B3F1004FE3
:105880000FD17B6818683B681B6800221946FFF738
:10589000DCFB7B681B684FF000411846FFF783FB79
:1058A0000EE07B6818683B6819683B689B681A467D
:1058B000FFF7CBFB7B681B6800211846FFF773FBE3
:1058C0003B685A697B681B68DB68DB0803F00303ED
:1058D0005B0002FA03F3C7F8C8303B681B69042B6E
:1058E00022D07B6818683B6819693B681A68D7F84A
:1058F000C830FFF7CDFA7B6818683B6819693B68C8
:105900009B691A46FFF719FB7B6818683B681969A1
:105910003B681B7F012B02D14FF0007300E0002396
:105920001A46FFF725FB7BE17B681B6800211846C0
:10593000FFF7D2FA0346C3F31203002B0AD17B68A8
:105940001B6800211846FFF7C7FA03469B0E03F0B9
:105950001F021EE07B681B6800211846FFF7BCFA97
:105960000346C7F8BC30D7F8BC3093FAA3F3C7F8A6
:10597000C030D7F8C030C7F8B830D7F8B830002BEF
:1059800001D1202304E0D7F8B830B3FA83F3DBB2B7
:105990001A463B681B68C3F31203002B05D13B6812
:1059A0001B689B0E03F01F0318E03B681B68C7F8D9
:1059B000B030D7F8B03093FAA3F3C7F8AC30D7F8CB
:1059C000AC30C7F8B430D7F8B430002B01D1202365
:1059D00004E0D7F8B430B3FA83F3DBB29A4206D1CD
:1059E0007B681B68002200211846FFF78BFA7B6852
:1059F0001B6801211846FFF76FFA0346C3F3120331
:105A0000002B0AD17B681B6801211846FFF764FA56
:105A100003469B0E03F01F021EE07B681B680121FA
:105A20001846FFF759FA0346C7F8A430D7F8A43050
:105A300093FAA3F3C7F8A030D7F8A030C7F8A8307E
:105A4000D7F8A830002B01D1202304E0D7F8A830E4
:105A5000B3FA83F3DBB21A463B681B68C3F3120345
:105A6000002B05D13B681B689B0E03F01F0318E059
:105A70003B681B68C7F89830D7F8983093FAA3F3BF
:105A8000C7F89430D7F89430C7F89C30D7F89C30DA
:105A9000002B01D1202304E0D7F89C30B3FA83F324
:105AA000DBB29A4206D17B681B68002201211846AE
:105AB000FFF728FA7B681B6802211846FFF70CFAEB
:105AC0000346C3F31203002B0AD17B681B68022133
:105AD0001846FFF701FA03469B0E03F01F021EE073
