:020000040800F2
:1000000000000220694D0008954A00089D4A00083A
:10001000A54A0008AD4A0008B54A000800000000E3
:10002000000000000000000000000000BD4A0008C1
:10003000CB4A000800000000D94A0008E74A00083F
:10004000B94D0008B94D0008B94D0008B94D000878
:10005000B94D0008B94D0008B94D0008B94D000868
:10006000B94D0008B94D0008B94D0008F54A00081F
:10007000094B00081D4B0008314B0008454B000898
:10008000B94D0008B94D0008B94D0008B94D000838
:10009000594B0008B94D0008B94D0008B94D00088A
:1000A0006D4B0008B94D0008B94D0008B94D000866
:1000B000B94D0008B94D0008B94D0008B94D000808
:1000C000B94D0008B94D0008B94D0008B94D0008F8
:1000D000B94D0008B94D0008B94D0008B94D0008E8
:1000E000B94D0008B94D0008B94D0008894B00080A
:1000F000B94D0008B94D0008B94D0008B94D0008C8
:10010000B94D0008B94D0008B94D0008B94D0008B7
:10011000B94D0008B94D00089D4B0008B94D0008C5
:10012000B94D0008B94D0008B94D0008B94D000897
:10013000B94D0008B94D0008B94D0008B94D000887
:10014000B94D0008B94D0008B94D0008B94D000877
:10015000B94D0008B94D0008B94D0008B94D000867
:10016000B94D0008B94D0008B94D0008B94D000857
:10017000B94D0008B94D0008B94D0008B94D000847
:10018000B94D0008B94D0008B94D0008B94D000837
:10019000B94D000800000000B94D0008B94D000835
:1001A000B94D0008B94D0008B94D0008B94D000817
:1001B000B94D0008B94D0008B94D0008B94D000807
:1001C000B94D0008B94D0008B94D0008B94D0008F7
:0801D000B94D0008B94D00080B
:1001E00010B5054C237833B9044B13B10448AFF371
:1001F00000800123237010BDD80300200000000000
:100200006C74010808B5034B1BB103490348AFF3F5
:10021000008008BD00000000DC0300206C740108B1
:1002200010F8012B11F8013B012A28BF9A42F7D0A0
:10023000D01A70470000000000000000000000001D
:1002400001F0FF01102A2BDB10F0070F08D010F887
:10025000013B013A8B422DD010F0070F42B3F6D18B
:10026000F0B441EA012141EA014122F007047FF0A4
:1002700000070023F0E80256083C85EA010586EAFB
:10028000010685FA47F5A3FA87F586FA47F6A5FA37
:1002900087F68EB9EED1F0BC01F0FF0102F0070243
:1002A00032B110F8013B013A83EA010313B1F8D1EE
:1002B0000020704701387047002D06BF35460338CF
:1002C000073815F0010F07D1013015F4807F02BF08
:1002D000013015F4C03F0130F0BC0138704700BF59
:1002E000034613F8012B002AFBD1181A0138704776
:1002F00081F0004102E000BF83F0004330B54FEAD7
:1003000041044FEA430594EA050F08BF90EA020F43
:100310001FBF54EA000C55EA020C7FEA645C7FEAD6
:10032000655C00F0E2804FEA5454D4EB5555B8BFF9
:100330006D420CDD2C4480EA020281EA030382EA6A
:10034000000083EA010180EA020281EA0303362DFC
:1003500088BF30BD11F0004F4FEA01314FF4801CCF
:100360004CEA113102D0404261EB410113F0004FE1
:100370004FEA03334CEA133302D0524263EB430398
:1003800094EA050F00F0A780A4F10104D5F1200E36
:100390000DDB02FA0EFC22FA05F2801841F1000191
:1003A00003FA0EF2801843FA05F359410EE0A5F165
:1003B00020050EF1200E012A03FA0EFC28BF4CF096
:1003C000020C43FA05F3C01851EBE37101F000454C
:1003D00007D54FF0000EDCF1000C7EEB00006EEB59
:1003E0000101B1F5801F1BD3B1F5001F0CD34908E3
:1003F0005FEA30004FEA3C0C04F101044FEA44523A
:1004000012F5800F80F09A80BCF1004F08BF5FEAC0
:10041000500C50F1000041EB045141EA050130BDA0
:100420005FEA4C0C404141EB0101013C28BFB1F5B2
:10043000801FE9D291F0000F04BF01460020B1FAFD
:1004400081F308BF2033A3F10B03B3F120020CDAD0
:100450000C3208DD02F1140CC2F10C0201FA0CF0AE
:1004600021FA02F10CE002F11402D8BFC2F1200C13
:1004700001FA02F120FA0CFCDCBF41EA0C019040C9
:10048000E41AA2BF01EB0451294330BD6FEA040412
:100490001F3C1CDA0C340EDC04F11404C4F12002FD
:1004A00020FA04F001FA02F340EA030021FA04F30F
:1004B00045EA030130BDC4F10C04C4F1200220FA66
:1004C00002F001FA04F340EA0300294630BD21FAA4
:1004D00004F0294630BD94F0000F83F4801306BF6A
:1004E00081F480110134013D4EE77FEA645C18BF5E
:1004F0007FEA655C29D094EA050F08BF90EA020FF5
:1005000005D054EA000C04BF1946104630BD91EAEC
:10051000030F1EBF0021002030BD5FEA545C05D1EF
:100520004000494128BF41F0004130BD14F580042E
:100530003CBF01F5801130BD01F0004545F0FE41A2
:1005400041F470014FF0000030BD7FEA645C1ABFD7
:10055000194610467FEA655C1CBF0B46024650EA0E
:10056000013406BF52EA033591EA030F41F400213A
:1005700030BD00BF90F0000F04BF0021704730B5C0
:100580004FF4806404F132044FF000054FF0000195
:1005900050E700BF90F0000F04BF0021704730B556
:1005A0004FF4806404F1320410F0004548BF40422B
:1005B0004FF000013EE700BF42004FEAE2014FEA80
:1005C00031014FEA02701FBF12F07F4393F07F4F5B
:1005D00081F06051704732F07F4208BF704793F05E
:1005E0007F4F04BF41F40021704730B54FF4607471
:1005F00001F0004521F000411CE700BF50EA010274
:1006000008BF704730B54FF000050AE050EA01021C
:1006100008BF704730B511F0004502D5404261EB8C
:1006200041014FF4806404F132045FEA915C3FF4CD
:10063000D8AE4FF003025FEADC0C18BF03325FEA6A
:10064000DC0C18BF033202EBDC02C2F1200300FA1B
:1006500003FC20FA02F001FA03FE40EA0E0021FA40
:1006600002F11444BDE600BF70B54FF0FF0C4CF42E
:10067000E06C1CEA11541DBF1CEA135594EA0C0FE0
:1006800095EA0C0F00F0DEF82C4481EA030621EA1B
:100690004C5123EA4C5350EA013518BF52EA033556
:1006A00041F4801143F4801338D0A0FB02CE4FF008
:1006B0000005E1FB02E506F00042E0FB03E54FF038
:1006C0000006E1FB03569CF0000F18BF4EF0010E30
:1006D000A4F1FF04B6F5007F64F5407404D25FEA2C
:1006E0004E0E6D4146EB060642EAC62141EA5551DF
:1006F0004FEAC52040EA5E504FEACE2EB4F1FD0C21
:1007000088BFBCF5E06F1ED8BEF1004F08BF5FEA9E
:10071000500E50F1000041EB045170BD06F0004650
:1007200046EA010140EA020081EA0301B4EB5C04FD
:10073000C2BFD4EB0C0541EA045170BD41F48011F5
:100740004FF0000E013C00F3AB8014F1360FDEBF1A
:10075000002001F0004170BDC4F10004203C35DAF6
:100760000C341BDC04F11404C4F1200500FA05F379
:1007700020FA04F001FA05F240EA020001F000421A
:1007800021F0004110EBD37021FA04F642EB060190
:100790005EEA430E08BF20EAD37070BDC4F10C04BA
:1007A000C4F1200500FA04F320FA05F001FA04F27E
:1007B00040EA020001F0004110EBD37041F100016A
:1007C0005EEA430E08BF20EAD37070BDC4F1200575
:1007D00000FA05F24EEA020E20FA04F301FA05F2DD
:1007E00043EA020321FA04F001F0004121FA04F285
:1007F00020EA020000EBD3705EEA430E08BF20EA55
:10080000D37070BD94F0000F0FD101F0004640008E
:1008100041EB010111F4801F08BF013CF7D041EA10
:10082000060195F0000F18BF704703F00046520014
:1008300043EB030313F4801F08BF013DF7D043EAE5
:100840000603704794EA0C0F0CEA135518BF95EA9B
:100850000C0F0CD050EA410618BF52EA4306D1D122
:1008600081EA030101F000414FF0000070BD50EA41
:10087000410606BF1046194652EA430619D094EACB
:100880000C0F02D150EA013613D195EA0C0F05D1B5
:1008900052EA03361CBF104619460AD181EA030109
:1008A00001F0004141F0FE4141F470014FF00000C1
:1008B00070BD41F0FE4141F4780170BD70B54FF05C
:1008C000FF0C4CF4E06C1CEA11541DBF1CEA1355DC
:1008D00094EA0C0F95EA0C0F00F0A7F8A4EB0504BE
:1008E00081EA030E52EA03354FEA013100F08880B5
:1008F0004FEA03334FF0805545EA131343EA12637E
:100900004FEA022245EA111545EA10654FEA002632
:100910000EF000419D4208BF964244F1FD0404F5EB
:10092000407402D25B084FEA3202B61A65EB030547
:100930005B084FEA32024FF480104FF4002CB6EB04
:10094000020E75EB030E22BFB61A754640EA0C0084
:100950005B084FEA3202B6EB020E75EB030E22BFC4
:10096000B61A754640EA5C005B084FEA3202B6EB05
:10097000020E75EB030E22BFB61A754640EA9C00C4
:100980005B084FEA3202B6EB020E75EB030E22BF94
:10099000B61A754640EADC0055EA060E18D04FEA52
:1009A000051545EA16754FEA06164FEAC30343EAF2
:1009B00052734FEAC2025FEA1C1CC0D111F4801FBF
:1009C0000BD141EA00014FF000004FF0004CB6E7B8
:1009D00011F4801F04BF01430020B4F1FD0C88BF57
:1009E000BCF5E06F3FF6AFAEB5EB030C04BFB6EB62
:1009F000020C5FEA500C50F1000041EB045170BD55
:100A00000EF0004E4EEA113114EB5C04C2BFD4EB81
:100A10000C0541EA045170BD41F480114FF0000E05
:100A2000013C90E645EA060E8DE60CEA135594EA81
:100A30000C0F08BF95EA0C0F3FF43BAF94EA0C0F84
:100A40000AD150EA01347FF434AF95EA0C0F7FF4F9
:100A500025AF104619462CE795EA0C0F06D152EA4D
:100A600003353FF4FDAE1046194622E750EA410631
:100A700018BF52EA43067FF4C5AE50EA41047FF442
:100A80000DAF52EA43057FF4EBAE12E74FF0FF3CA7
:100A900006E000BF4FF0010C02E000BF4FF0010C78
:100AA0004DF804CD4FEA410C7FEA6C5C4FEA430CF1
:100AB00018BF7FEA6C5C1BD001B050EA410C0CBF40
:100AC00052EA430C91EA030F02BF90EA020F0020A2
:100AD000704710F1000F91EA030F58BF994208BF09
:100AE00090422CBFD8176FEAE37040F001007047C6
:100AF0004FEA410C7FEA6C5C02D150EA013C07D11D
:100B00004FEA430C7FEA6C5CD6D152EA033CD3D067
:100B10005DF8040B704700BF8446104662468C4661
:100B20001946634600E000BF01B5FFF7B7FF002894
:100B300048BF10F1000F01BD4DF808EDFFF7F4FFBD
:100B40000CBF012000205DF808FB00BF4DF808ED48
:100B5000FFF7EAFF34BF012000205DF808FB00BF6B
:100B60004DF808EDFFF7E0FF94BF012000205DF88D
:100B700008FB00BF4DF808EDFFF7CEFF94BF012042
:100B800000205DF808FB00BF4DF808EDFFF7C4FF3B
:100B900034BF012000205DF808FB00BF4FEA410C84
:100BA0007FEA6C5C02D150EA013C0AD14FEA430C67
:100BB0007FEA6C5C02D152EA033C02D14FF00000A4
:100BC00070474FF0010070474FEA410212F50012E2
:100BD00015D211D56FF47873B3EB625212D94FEA84
:100BE000C12343F0004343EA505311F0004F23FA6E
:100BF00002F018BF404270474FF00000704750EAC3
:100C0000013005D111F0004008BF6FF0004070477F
:100C10004FF00000704700BF4A0011D212F50012D9
:100C200011D20DD56FF47873B3EB62520ED44FEA44
:100C3000C12343F0004343EA505323FA02F07047C4
:100C40004FF00000704750EA013002D14FF0FF3002
:100C500070474FF0000070474FEA4102B2F1E043A5
:100C600024BFB3F5001CDCF1FE5C0DD901F0004C93
:100C70004FEAC0024CEA5070B2F1004F40EB8300E3
:100C800008BF20F00100704711F0804F21D113F10F
:100C90003872BCBF01F00040704741F480114FEA48
:100CA0005252C2F11802C2F1200C10FA0CF320FAD1
:100CB00002F018BF40F001004FEAC1234FEAD323EE
:100CC00003FA0CFC40EA0C0023FA02F34FEA430358
:100CD000CCE77FEA625307D150EA01331EBF4FF0E1
:100CE000FE4040F44000704701F0004040F0FE40FC
:100CF00040F40000704700BF53B94AB9002908BF4B
:100D000000281CBF4FF0FF314FF0FF3000F0BEB99C
:100D1000ADF1080C6DE904CE00F03CF8DDF804E01C
:100D2000DDE9022304B0704738B5002200230446F1
:100D30000D46FFF70BFF28B920462946BDE838408D
:100D400000F00AB8204605F1004100F005F84042E5
:100D500061EB410138BD00BFD0B50C4B0022064607
:100D60000F46FFF781FCFFF757FF0446FFF702FC31
:100D7000074B0022FFF778FC02460B463046394607
:100D8000FFF7BAFAFFF748FF2146D0BD0000F03D5B
:100D90000000F0412DE9F047089D8E460446884644
:100DA000002B4AD18A42174662D9B2FA82F64EB176
:100DB000C6F1200301FA06F820FA03F3B74043EA2C
:100DC0000808B4404FEA174E1FFA87FCB8FBFEF143
:100DD000230C0EFB118843EA084301FB0CF29A42F4
:100DE00009D9FB1801F1FF3080F0EA809A4240F205
:100DF000E78002393B449A1AA3B2B2FBFEF00EFB25
:100E0000102243EA024300FB0CFC9C4509D9FB1865
:100E100000F1FF3280F0D6809C4540F2D3803B4405
:100E2000023840EA0140A3EB0C0300211DB1F3405E
:100E30000022C5E90032BDE8F0878B4205D90DB12B
:100E4000C5E9000100210846F5E7B3FA83F100295E
:100E500046D1734502D3824200F20581841A6EEBBB
:100E6000030201209046002DE5D0C5E90048E2E7E5
:100E7000002A00F09080B2FA82F6002E40F0A480A2
:100E80008A1A030C4FEA174E80B2BCB20121B2FBA2
:100E9000FEFC0EFB1C2243EA024304FB0CF29A42C6
:100EA00007D9FB180CF1FF3802D29A4200F2E08019
:100EB000C4469B1AB3FBFEF20EFB123340EA034317
:100EC00002FB04F49C4207D9FB1802F1FF3002D266
:100ED0009C4200F2CA8002461B1B42EA0C40A5E776
:100EE000C1F120068B4022FA06F71F430EFA01F4E7
:100EF00020FA06F32EFA06FE4FEA1749234300FABA
:100F000001F81FFA87FCBEFBF9F01C0C09FB10EE80
:100F100044EA0E4400FB0CFEA64502FA01F209D990
:100F20003C1900F1FF3A80F09C80A64540F2998080
:100F300002383C44A4EB0E041FFA83FEB4FBF9F321
:100F400009FB13444EEA044403FB0CFCA44508D9F6
:100F50003C1903F1FF3E80F08280A4457FD9023B1B
:100F60003C4443EA0040A4EB0C04A0FB02EC6445C3
:100F70007346E14662D35FD05DB1B8EB030264EB28
:100F8000090404FA06F622FA01F31E43CC40C5E92F
:100F9000006400214FE7B1FBF2FC010C41EA0E4175
:100FA00080B240EA01423B4638463C46B846BE461F
:100FB0002026B1FBF7F1A2EB080241EA0C4166E7FB
:100FC000014618E710462CE7C6F120022EFA02F37C
:100FD000B740B14020FA02F24FEA174E0A43B3FB82
:100FE000FEF8BCB20EFB1833110C41EA034108FBBA
:100FF00004F9B04089454FEA104380B23ED97918D0
:1010000008F1FF3C01D289451FD8A1EB0901B1FBD2
:10101000FEF909FB04F80EFB191192B242EA0142F3
:10102000424529D2BA1809F1FF31C4D24245C2D291
:10103000A9F102013A44BEE7F0459DD2BEEB02039E
:101040006CEB070C0138E14696E7A7EB0909494428
:10105000A8F1020CB1FBFEF909FB04F8DBE77346CB
:101060007FE7504666E70846FDE63B44023A33E731
:10107000ACF1020C3B441CE749469CE7A1EB09019B
:10108000C446B1FBFEF909FB04F8C4E7704700BF92
:10109000B0B586B004AF03F090FE00F057FE01F04B
:1010A00089FC01F03DFC00F017FF00F0E1FF01F0CA
:1010B00045F801F0C9F801F013F901F04BF901F01E
:1010C000D1FA01F0E1FB00F08FFE01F0DDF90FF045
:1010D00097FD01F061FB01F0B1FB01F08DFA01F029
:1010E0004BFA01F09DF8874B09221A60854B60226C
:1010F0009A61844B00225A60824B00221A61814B14
:1011000000225A617F4B00229A607E4B0022DA60F7
:101110007C497D4805F084FB0346002B01D003F099
:1011200035F801F0F1FE03461A46784B1A70784BF9
:101130001B78DBB2002B04D002F0ACFA744B002217
:101140001A700421734806F055FC03461A46724B88
:101150001A70714B1B78002B0ED0704B1B78002B34
:101160000AD06A4B1B78002B06D16D4B00221A70F7
:101170006A4B00221A7019E0674B1B78002B0ED0C7
:10118000684B1B78002B0AD0604B1B78002B06D1D4
:10119000634B03221A70634B00221A7006E0624B05
:1011A0001B78002B02D05E4B02221A705A4B1B7820
:1011B000002B03D0554B1B78002B02D0584B01223B
:1011C0001A705A4B1B78564A12781146184601F08D
:1011D0003DFD03461A46554B1A70544B1B78042BA1
:1011E00000F2548501A252F823F000BF011200085A
:1011F000C7120008751300086B1B0008DF1B0008EE
:10120000012204214A4806F00DFC00222021414819
:1012100006F008FC01222021464806F003FC4FF4AA
:101220007A7003F03BFE00222021424806F0FAFBD0
:101230000021414809F054FB0421404809F050FBCB
:1012400000213F4805F026FD10213D4805F022FD14
:1012500000213C4805F01EFD00213B4809F040FB01
:101260003A4809F03FFA7F21394805F03DF97F21DE
:10127000384805F039F97F21374805F035F905225E
:101280003649334804F02CFA02223549314804F03B
:1012900027FA0A223349304804F022FA142001F0D8
:1012A0002FFD322003F0FAFD2C4B1B889AB22E4BF7
:1012B0001A802A4B5B889AB22C4B1A801B4B012256
:1012C0001A7000F0EABC01F059FE03461A46284B9A
:1012D0001A70124B1B78002B00F0DB840E4B1B782E
:1012E000002B00F0D684094B1B78002B40F0D184F2
:1012F0001F4B1B78002B00F0CC840C4B02221A7081
:1013000000F0C7BCC80B0020C4060020BC0B0020A6
:10131000940B002000080048C40B0020B80B0020EC
:101320006C000020B90B0020BA0B0020BB0B002082
:101330000014004800100048D407002004090020D1
:10134000EC06002000070020200800206C08002088
:1013500060040020CC04002038050020980A0020FA
:10136000A40A0020BC0A00207C0A00207E0A00207B
:10137000BD0B0020864B1B68002B34D1854B00220F
:101380001A70854B00221A60844B00221A60844B2D
:1013900000221A60834B00221A60834B00221A60DD
:1013A000824B4FF000021A60814B824A1A60824BD6
:1013B000804A1A60814B1B68814A136003F062FD0A
:1013C0000346804A1360002204217F4806F02AFB6E
:1013D0007E4809F087F900217D4809F081FA04214F
:1013E0007C4809F07DFA7C4B1B78DBB2002B00F0C7
:1013F0005384794B00221A70784B1B6807EE903AA1
:10140000F8EE677A764B1B6807EE103AB8EE477A2B
:10141000F0EE470AB0EE670A02F042F8F0EE407ACA
:10142000FDEEE77A17EE902A6D4B1A606D4B1B6844
:1014300007EE903AF8EE677A6B4B1B6807EE103AAE
:10144000B8EE477AF0EE470AB0EE670A02F028F8E5
:10145000F0EE407AFDEEE77A17EE902A624B1A60C2
:101460004B4B1B68002B08D15E4B1B6807EE903A74
:10147000F8EE677A4D4BC3ED007A5C4B1B685A005F
:10148000594B1B689A4204D3574B1B68584A9342E6
:1014900002D9584B03221A70534B1A68534B1B68DE
:1014A000D31A07EE903AF8EE676A504B1B6807EEC6
:1014B000903AB8EE677AC6EE877AC7ED007A386858
:1014C000FFF77AF830A3D3E90023FFF75DFB03466B
:1014D000002B05D12F4B1B78DBB2002B40F069822B
:1014E000414B1B6807EE903AF8EE676A3C4B1B686D
:1014F00007EE903AB8EE677AC6EE877A3E4BC3EDB8
:10150000007A3D4BD3ED007AB0EE007A77EEC77AE1
:10151000B0EEE77A394BD3ED007AB4EEE77AF1EE2C
:1015200010FA03D8344B4FF080421A60194B1B78E5
:10153000DBB2002B00F03D82314B1B78002B67D1D2
:10154000304BD3ED007AB0EE007A37EE877A2A4B33
:10155000D3ED007AB4EEE77AF1EE10FA58D803F042
:1015600091FC0246284B1B68D21A284B1B689A42F2
:101570004ED3234B01221A7003F084FC0346224A07
:1015800013606AE0AFF300807B14AE47E17A943FCA
:10159000C00B0020A80A0020A00B0020A40B0020F4
:1015A000AC0B0020B00B002008000020A80B00208E
:1015B0002000002080969800240000204C0000208D
:1015C000540000209C0B002000140048500900200B
:1015D000D407002004090020C50B00208C0A00203D
:1015E00078000020040000207C0000200000002083
:1015F00040420F00BB0B0020300000203C000020C8
:10160000B00A002034000020B40A0020400000206E
:10161000674B1B78002B20D0664BD3ED007AB0EEE1
:10162000007A37EE677A644BD3ED007AB4EEE77A4E
:10163000F1EE10FA11DD03F025FC02465F4B1B684A
:10164000D21A5F4B1B689A4207D3594B00221A707B
:1016500003F018FC0346594A1360554B1B78002BC6
:1016600040F0C480544BD3ED007AB7EE007A77EEA9
:10167000677AB0EE670A02F0B3FB10EE103A184634
:10168000FEF79AFF46A3D3E90023FEF7EDFF0246DB
:101690000B4614461D464B4B1B681846FEF78CFF45
:1016A00002460B4620462946FEF7DEFF02460B4661
:1016B00010461946FFF7D0FA0346434A13603E4BE3
:1016C000D3ED007AB0EE007A77EE676A3A4B93ED8D
:1016D000007AC6EE877AC7ED017AD7ED017AF5EE8A
:1016E000C07AF1EE10FA02D54FF000037B602021A2
:1016F000642097ED010A02F075FA0346334A13603D
:10170000642300930123324A3049324805F0C4F87B
:101710002F4B1868202301220A2102F0E9FAF0EE8B
:10172000407A2D4BC3ED007A2C4B1B6807EE903AA4
:10173000B8EE677A2A4BD3ED007A27EE277A264B4C
:10174000D3ED007A67EE277A17EE900AFEF734FFA2
:1017500015A3D3E90023FEF787FF02460B46104688
:101760001946FFF731FA03461A461E4B1A60124B10
:1017700093ED007A1C4BD3ED007AB4EEE77AF1EEEC
:1017800010FA02DB174B00221A60164B1B68B3F5E8
:101790007A6F6AD9134B4FF47A621A6065E000BF22
:1017A0003A950BDB2F94A53E3956A30304067C3FE4
:1017B000B00A00203400002030000020B40A0020CD
:1017C00040000020100000201800002088000020A9
:1017D00080000020C4060020840000207C0000203F
:1017E00074000020880A002038000020984BD3EDB8
:1017F000007AB7EE007A77EEC77AF7EE006A86EEE7
:10180000A77AB0EE470A02F0EBFA10EE103A18464B
:10181000FEF7D2FE02460B4687A1D1E90001FEF792
:101820006BFD02460B461046194685A3D3E90023FB
:10183000FEF71AFF02460B4614461D46854B1B68F1
:101840001846FEF7B9FE02460B4620462946FEF72B
:101850000BFF02460B4610461946FFF7FDF90346FB
:101860007D4A13607D4B00221A607B4B1B68184633
:10187000FEF7A2FE74A3D3E90023FFF767F903463E
:10188000002B3AD0744B93ED007AF7EE006AC6EE67
:10189000877AFDEEE77A17EE902A714B1A60704B4B
:1018A0001B68704A934202DD6D4B6E4A1A606E4BA4
:1018B00093ED007A6A4B1B6807EE903AF8EEE77AF0
:1018C00077EE677AFDEEE77A17EE903A002BB8BF15
:1018D0005B4244F61F6293420FDD614B1B681A4660
:1018E0000021624801F0A0FA5D4B1B6807EE903AB8
:1018F000F8EEE77A5C4BC3ED007A5D4B1B68002B7A
:1019000057DD5C4B1B6807EE903AF8EE677A9FED67
:101910005A7A27EE877A564B1B6807EE903AF8EE14
:10192000E76AB7EE006AC6EE267A27EE277A534BAF
:10193000D3ED007A67EE277A514BC3ED007A504B16
:1019400093ED007AF7EE006AC6EE877AFDEEE77A4D
:1019500017EE902A4B4B1A604A4B1B68414A934240
:1019600002DD484B3F4A1A60474B93ED007A454BE6
:101970001B6807EE903AF8EEE77A77EE677AFDEEAD
:10198000E77A17EE903A002BB8BF5B423F4A93428A
:101990000FDD3C4B1B681A4604213D4801F044FA18
:1019A000384B1B6807EE903AF8EEE77A364BC3EDFA
:1019B000007A384B1B78DBB2002B7FD1364B1B688B
:1019C000002B06D1264B1B681A460421304801F033
:1019D0002BFA314B1B68002B06D12A4B1B681A4689
:1019E0000021224801F020FA2C4B1B682C4A13607E
:1019F000294B1B68012B0ED12A4B1B682A4A1268FF
:101A000011462A4A12689FED2A0A184601F0F6FB91
:101A10000346244A136003F035FA0246254B1B683F
:101A2000D21A254B1B689A424CD31A4B01221A70CA
:101A300048E000BFAFF30080182D4454FB2109405B
:101A40003A950BDB2F94A53EFCA9F1D24D62503F95
:101A5000300000201000002018000020880A00201C
:101A600020000020002D310128000020D407002094
:101A7000800A00207C000020CF2E97311400002027
:101A80001C000020240000202C0000209F86010064
:101A900004090020A80A0020C00B00204C000020F0
:101AA0005400002008000020000000200C0000204E
:101AB00017B751389C0B002058000020784B1B684A
:101AC000784A1360784B1B681C46784B1968754B35
:101AD0001B68774A12687748D0ED007A764890ED17
:101AE000007A019200939FED751AF0EE470AB0EE6E
:101AF000670A0B4622467249724801F0E3FB724BBB
:101B0000B3F900301846714B1B68714A126871496D
:101B1000D1ED007A704991ED007A02920193002391
:101B200000939FED661AF0EE470AB0EE670A03468F
:101B30006A4A6B496B4801F03FFC624B1A68694B7B
:101B40001B681344684A1360684B1B68002B40F005
:101B5000A380322003F0A2F901222021644805F07D
:101B600061FF624B01221A6096E00022202160484A
:101B700005F058FF5F4808F02DFE002280215E48E6
:101B800005F050FF00224FF480715C4805F04AFFD9
:101B9000002201215A4805F045FF00224021544807
:101BA00005F040FF00220221544805F03BFF0022CF
:101BB0004FF40071534805F035FF012220214F48B2
:101BC00005F030FF504808F01DFD484B00221A6018
:101BD0004E4B00221A704E4B04221A705DE0002218
:101BE0002021434805F01EFF01220421454805F04D
:101BF00019FF404808F0EEFD464B00221A70464B94
:101C000000221A70394B00221A602E4B01221A60F2
:101C1000354B01221A602C4B01221A803F4B4FF0AA
:101C20007E521A603E4B3F4A1A603F4B3D4A1A6053
:101C30003E4B4FF07E521A60214B00221A603C4B03
:101C400000221A60264B00221A60244B00221A60E0
:101C5000244B00221A60374B01221A60364B0122B6
:101C60001A60114B01221A60344B01221A60344B66
:101C700001221A600421334808F044FF0021324851
:101C800008F040FF224B01221A7006E000BFFFF768
:101C900048BA00BFFFF745BA00BFFFF742BA00BF1E
:101CA00050000020540000207C000020080000208C
:101CB000980B0020440000204800002017B751383E
:101CC000A00B0020800A0020B80A00206400002039
:101CD000680000205C00002060000020B00B0020A5
:101CE000AC0B0020B40B0020840A0020C00B0020A5
:101CF0000008004850090020000400480010004877
:101D0000000C004800140048B8080020B80B002060
:101D1000BB0B0020C50B0020A80A0020A80B002048
:101D200018000020002474491C000020300000200E
:101D3000A40B0020780000208C0A00200400002062
:101D4000880A002004090020D407002080B594B040
:101D500000AF07F1180338220021184610F029FCC3
:101D60003B1D00221A605A609A60DA601A614FF4D3
:101D7000007007F0BFFB2223BB614FF480737B62CE
:101D80004023BB6201233B6302237B630223BB63CB
:101D90000423FB634B233B6402237B640223BB6469
:101DA0000223FB6407F11803184607F057FC0346AB
:101DB000002B01D002F0EAF90F237B600323BB6004
:101DC0000023FB6000233B6100237B613B1D04215A
:101DD000184607F055FF0346002B01D002F0D6F954
:101DE00000BF5037BD4680BD80B58CB000AF07F155
:101DF000240300221A605A609A603B1D20220021B1
:101E0000184610F0D6FB324B4FF0A0421A60304B10
:101E10004FF440325A602E4B00229A602C4B002225
:101E2000DA602B4B00221A61294B00225A61284BA1
:101E300004229A61264B00221A77254B00225A77FA
:101E4000234B01221A62224B002283F82420204BCC
:101E50000022DA621E4B00221A631D4B002283F817
:101E600038201B4B0022DA63194B002283F84020F4
:101E7000174803F079FA0346002B01D002F086F9E7
:101E800000237B6207F124031946114804F08EFBFE
:101E90000346002B01D002F079F90E4B7B6006233C
:101EA000BB600723FB607F233B6104237B6100232E
:101EB000BB613B1D1946064803F0FAFC0346002BA4
:101EC00001D002F063F900BF3037BD4680BD00BFCE
:101ED000F4030020000084CB80B58CB000AF07F184
:101EE000240300221A605A609A603B1D20220021C0
:101EF000184610F05EFB574B574A1A60554B4FF48B
:101F0000A0125A60534B00229A60524B0022DA60B2
:101F1000504B00221A614F4B01225A614D4B042253
:101F20009A614C4B00221A774A4B01225A77494B4F
:101F300005221A62474B002283F82420454B0022D9
:101F4000DA62444B00221A63424B012283F83820A4
:101F5000404B4FF48052DA633E4B002283F840201E
:101F60003C4803F001FA0346002B01D002F00EF9C1
:101F700000237B6207F124031946364804F016FB60
:101F80000346002B01D002F001F9344B7B6006239D
:101F9000BB600023FB607F233B6100237B61262322
:101FA000BB614FF08073FB61002387F820303B1D3D
:101FB0001946284803F07CFC0346002B01D002F0B0
:101FC000E5F8274B7B600C23BB6001237B61252355
:101FD000BB613B1D19461F4803F06AFC0346002BFA
:101FE00001D002F0D3F81F4B7B601223BB600223A9
:101FF0007B610823BB613B1D1946164803F058FC62
:102000000346002B01D002F0C1F8174B7B60182368
:10201000BB6004237B610023BB613B1D19460D4857
:1020200003F046FC0346002B01D002F0AFF80F4B43
:102030007B604FF48073BB603B1D1946054803F07D
:1020400037FC0346002B01D002F0A0F800BF303768
:10205000BD4680BD60040020000400500200300432
:10206000040060080800900C1000C0102000F0145C
:1020700080B588B000AF3B4620220021184610F002
:1020800098FA2B4B2B4A1A60294B4FF4A0125A6036
:10209000274B00229A60264B0022DA60244B002254
:1020A0001A61234B00225A61214B04229A61204B72
:1020B00000221A771E4B01225A771D4B01221A6209
:1020C0001B4B002283F82420194B0022DA62184BA4
:1020D00000221A63164B012283F83820144B4FF468
:1020E0008052DA63124B002283F84020104803F03C
:1020F0003BF90346002B01D002F048F80E4B3B6041
:1021000006237B600723BB607F23FB6004233B61C6
:1021100000237B613B461946054803F0C9FB034693
:10212000002B01D002F032F800BF2037BD4680BD41
:10213000CC040020000500500200300480B588B0B7
:1021400000AF3B4620220021184610F032FA314BF6
:10215000314A1A602F4B4FF4A0125A602D4B0022C7
:102160009A602C4B0022DA602A4B00221A61294B1C
:1021700000225A61274B04229A61264B00221A77CB
:10218000244B01225A77234B01221A62214B002251
:1021900083F824201F4B0022DA621E4B00221A63B0
:1021A0001C4B012283F838201A4B0022DA63194BAA
:1021B000012283F84020174B1C225A64154B4FF420
:1021C00080729A64134B0022DA64124B01221A6562
:1021D000104803F0C9F80346002B01D001F0D6FFE8
:1021E0000E4B3B6006237B600023BB607F23FB60BC
:1021F00004233B6100237B613B461946054803F0FD
:1022000057FB0346002B01D001F0C0FF00BF203771
:10221000BD4680BD38050020000600500200300495
:1022200080B500AF064B074A1A60054804F0C6FAAD
:102230000346002B01D001F0A9FF00BF80BD00BF05
:10224000C4060020000C024080B58CB000AF3B46B5
:1022500030220021184610F0ACF91E4B1E4A1A60BD
:102260001C4804F0F4FC0346002B01D001F08EFF63
:1022700002233B6000233B7100237B710023BB6082
:102280000023FB6000233B6100237B610123BB61D2
:102290000023FB613B46002219460E4804F0F4FD82
:1022A0000346002B01D001F071FF3B461022194676
:1022B000084804F0E9FD0346002B01D001F066FF59
:1022C000044B064A9A60054B024A9A6200BF3037B7
:1022D000BD4680BDEC060020000800501407002019
:1022E00080B58CB000AF3B4630220021184610F07C
:1022F00060F9164B164A1A60144804F0A8FC03460D
:10230000002B01D001F042FF02233B6000233B7110
:1023100000237B710023BB600023FB6000233B6133
:1023200000237B610123BB610023FB613B4600224C
:102330001946064804F0A8FD0346002B01D001F021
:1023400025FF00BF3037BD4680BD00BF000700201D
:10235000000C005080B598B000AF07F15403002284
:102360001A605A609A6007F1380300221A605A60B6
:102370009A60DA601A615A619A613B1D3422002129
:10238000184610F016F93E4B3E4A1A603C4B0022AC
:102390005A603B4B00229A60394BD222DA60384BAC
:1023A00000221A61364B00225A61354B00229A6195
:1023B000334808F03EFA0346002B01D001F0E6FE58
:1023C00000237B650023BB650023FB6507F15403F5
:1023D00019462B4809F074FC0346002B01D001F08C
:1023E000D5FE6023BB630023FB6300233B64002313
:1023F0007B640023BB640023FB6400233B6507F17F
:102400003803002219461E4808F068FD0346002BD9
:1024100001D001F0BBFE1A4B1B689A69184B1B6870
:1024200022F008029A6100237B600023BB60002336
:10243000FB6000233B6100237B614FF40053BB61D1
:102440000023FB6100233B6200237B624FF000739B
:10245000BB620023FB6200233B6300237B633B1DC5
:102460001946074809F0C2FC0346002B01D001F0D1
:102470008DFE034802F032FA00BF6037BD4680BDD2
:10248000D4070020002C014080B58EB000AF07F1CA
:10249000280300221A605A609A60DA6007F11C0370
:1024A00000221A605A609A603B4600221A605A6005
:1024B0009A60DA601A615A619A612D4B2D4A1A604E
:1024C0002B4B00225A602A4B00229A60284B40F284
:1024D000A722DA60264B00221A61254B00229A615E
:1024E000234808F037F80346002B01D001F04EFED8
:1024F0004FF48053BB6207F1280319461C4808F0CB
:1025000001FE0346002B01D001F040FE184808F000
:1025100090F90346002B01D001F038FE0023FB6147
:1025200000237B6207F11C031946114809F0C8FB20
:102530000346002B01D001F029FE60233B600023FD
:102540007B600023BB6000233B613B4600221946B1
:10255000074808F0C3FC0346002B01D001F016FE2B
:10256000034802F0BBF900BF3837BD4680BD00BF4D
:10257000200800200008004080B584B000AF3B1D5B
:1025800000221A605A609A60194B1A4A1A60184B56
:1025900042F61D525A60164B00229A60144B4FF6B9
:1025A000A652DA60124B00229A61114807F0D2FF5E
:1025B0000346002B01D001F0E9FD00237B600023DE
:1025C000FB603B1D19460A4809F07AFB0346002BC5
:1025D00001D001F0DBFD00220021362004F003FBD6
:1025E000362004F01AFB00BF1037BD4680BD00BF87
:1025F0006C0800200010004080B584B000AF3B1D87
:1026000000221A605A609A60144B154A1A60134BE4
:1026100043F697225A60114B00229A600F4B092211
:10262000DA600E4B00229A610C4807F093FF0346D4
:10263000002B01D001F0AAFD00237B600023FB608A
:102640003B1D1946054809F03BFB0346002B01D012
:1026500001F09CFD00BF1037BD4680BDB8080020CA
:102660000014004080B598B000AF07F15403002279
:102670001A605A609A6007F1380300221A605A60A3
:102680009A60DA601A615A619A613B1D3422002116
:1026900018460FF08EFF3E4B3E4A1A603C4B00221C
:1026A0005A603B4B00229A60394BD222DA60384B99
:1026B00000221A61364B00225A61354B00229A6182
:1026C000334808F0B6F80346002B01D001F05EFD58
:1026D00000237B650023BB650023FB6507F15403E2
:1026E00019462B4809F0ECFA0346002B01D001F003
:1026F0004DFD6023BB630023FB6300233B64002389
:102700007B640023BB640023FB6400233B6507F16B
:102710003803042219461E4808F0E0FB0346002B4C
:1027200001D001F033FD1A4B1B689A69184B1B68E6
:1027300022F400629A6100237B600023BB600023C7
:10274000FB6000233B6100237B614FF40053BB61BE
:102750000023FB6100233B6200237B624FF0007388
:10276000BB620023FB6200233B6300237B633B1DB2
:102770001946074809F03AFB0346002B01D001F047
:1027800005FD034802F0AAF800BF6037BD4680BDD2
:10279000040900200034014080B588B000AF07F183
:1027A000100300221A605A609A60DA603B1D002212
:1027B0001A605A609A601F4B1F4A1A601D4B40F204
:1027C000DB525A601B4B00229A601A4B0422DA60DB
:1027D000184B00221A61174B00225A61154B002238
:1027E0009A61144807F0B6FE0346002B01D001F0B1
:1027F000CDFC4FF480533B6107F1100319460D489F
:1028000008F080FC0346002B01D001F0BFFC002340
:102810007B600023FB603B1D1946064809F050FA17
:102820000346002B01D001F0B1FC00BF2037BD46AC
:1028300080BD00BF500900200040014080B500AFBE
:102840000F4B104A1A600E4B43F697225A600C4BFE
:1028500000229A600A4B0922DA60094B00221A61B1
:10286000074B00225A61064B00229A61044807F088
:1028700071FE0346002B01D001F088FC00BF80BD33
:102880009C0900200044014080B500AF224B234A40
:102890001A60214B4FF4E1325A601F4B00229A60BC
:1028A0001D4B0022DA601C4B00221A611A4B0C22CD
:1028B0005A61194B00229A61174B0022DA61164BBC
:1028C00000221A62144B00225A62134B00229A62B1
:1028D000114809F065FB0346002B01D001F056FCBE
:1028E00000210D480AF000F90346002B01D001F049
:1028F0004DFC002108480AF035F90346002B01D0B1
:1029000001F044FC04480AF0B6F80346002B01D05D
:1029100001F03CFC00BF80BDE8090020004C0040F5
:1029200080B582B000AF224B9B6C214A43F0040378
:1029300093641F4B9B6C03F004037B607B681C4B10
:102940009B6C1B4A43F001039364194B9B6C03F08F
:1029500001033B603B68002200210B2004F043F997
:102960000B2004F05AF9002200210C2004F03BF95E
:102970000C2004F052F9002200210D2004F033F95C
:102980000D2004F04AF9002200210E2004F02BF95A
:102990000E2004F042F9002200210F2004F023F958
:1029A0000F2004F03AF900BF0837BD4680BD00BFD4
:1029B0000010024080B58CB000AF07F11C0300226C
:1029C0001A605A609A60DA601A619A4BDB6C994A15
:1029D00043F01003D364974BDB6C03F01003BB612F
:1029E000BB69944BDB6C934A43F00403D364914B73
:1029F000DB6C03F004037B617B698E4BDB6C8D4ADF
:102A000043F02003D3648B4BDB6C03F020033B616A
:102A10003B69884BDB6C874A43F00103D364854BE9
:102A2000DB6C03F00103FB60FB68824BDB6C814ACB
:102A300043F00203D3647F4BDB6C03F00203BB6003
:102A4000BB687C4BDB6C7B4A43F00803D364794B57
:102A5000DB6C03F008037B607B6800222021764852
:102A600004F0E0FF01224FF40071744804F0DAFF33
:102A700000222821724804F0D5FF002204216F486B
:102A800004F0D0FF01224FF481716B4804F0CAFFBB
:102A9000012240216A4804F0C5FF01220121694852
:102AA00004F0C0FF01228021674804F0BBFF40F61C
:102AB0001503FB6100233B6200237B6207F11C03CB
:102AC00019465D4804F014FE2023FB6101233B629C
:102AD00000237B620023BB6207F11C0319465648A2
:102AE00004F006FE4FF40073FB6111233B620023E8
:102AF0007B620023BB6207F11C0319464F4804F0B8
:102B0000F7FD4FF48063FB6100233B6200237B628F
:102B100007F11C031946494804F0EAFD4FF401731C
:102B2000FB6100233B6200237B6207F11C03194613
:102B3000434804F0DDFD2823FB6101233B620023B1
:102B40007B620023BB6207F11C0319463C4804F07A
:102B5000CFFD0423FB6101233B6200237B62002342
:102B6000BB6207F11C031946344804F0C1FD012380
:102B7000FB6100233B6200237B6207F11C031946C3
:102B8000314804F0B5FD4FF48173FB6111233B62C2
:102B900000237B620023BB6207F11C031946264811
:102BA00004F0A6FD4023FB6111233B6200237B62FE
:102BB0000023BB6207F11C031946214804F098FD6D
:102BC0004FF48063FB6100233B6200237B6207F1CB
:102BD0001C0319464FF0904004F08AFD0123FB616D
:102BE00011233B6200237B620023BB6207F11C03BD
:102BF0001946144804F07CFD7023FB6100233B62FE
:102C000000237B6207F11C0319460E4804F070FD97
:102C10008023FB6111233B6200237B620023BB62A4
:102C200007F11C031946084804F062FD00BF303765
:102C3000BD4680BD0010024000100048001400484E
:102C400000080048000C00480004004880B483B02D
:102C500000AF03460A46FB711346BB71FB79042B98
:102C600039D801A252F823F07D2C00088B2C0008E3
:102C7000992C0008B52C0008C32C0008BB79002B48
:102C80002BD10123FB71012331E0BB79002B26D12D
:102C90000223FB7102232AE0BB79012B03D103231A
:102CA000FB71032323E0BB79032B1AD10423FB71AF
:102CB00004231CE0BB79022B15D10123FB710123F6
:102CC00015E0BB79002B10D10C4B00221A600223B7
:102CD000FB7102230BE000BF08E000BF06E000BF6D
:102CE00004E000BF02E000BF00E000BFFB7918462F
:102CF0000C37BD465DF8047B704700BFC00B002059
:102D000080B485B000AF78607B68642B01D9642300
:102D10007B600B4BDB6801337A6802FB03F3094AE3
:102D2000A2FB03235B09013BFB60054B1B68FA68B0
:102D30005A6300BF1437BD465DF8047B704700BF7F
:102D4000200800201F85EB5180B584B000AF78606B
:102D50007B681B682E4A93424FD12E4B1B78DBB207
:102D6000002B4AD00023FB600023BB600BE02A4A03
:102D7000BB6832F813309BB21A46FB681344FB6001
:102D8000BB680133BB60BB68092BF0DDFB68234ADD
:102D9000A2FB0323DB0840F6E44202FB03F31B0B18
:102DA0009AB21F4B1A801E4B1B88A3F2AA531846D7
:102DB000FDF7F0FB14A3D3E90023FDF755FC024611
:102DC0000B4610461946FDF7FFFE03461AB2154B97
:102DD0001A80144BB3F9003013F57A7F03DA114BE4
:102DE0004FF618421A800F4BB3F90030B3F57A7FD3
:102DF00003DD0C4B4FF47A721A8000BF1037BD46CA
:102E000080BD00BFAFF30080FA7E6ABC7493D83FE8
:102E100000060050C50B0020BC0A0020CDCCCCCC55
:102E2000D00A0020B80A002080B489B000AFF86052
:102E3000B9607A60334BBB61FB685B6801337B61CF
:102E40007B697A6802FB03F3BA69B2FBF3F3013BD7
:102E5000FB61FB69B3F5803F14D3FB691B0C7A69F6
:102E600002FB03F301337B617B697A6802FB03F3A6
:102E7000BA69B2FBF3F3013BFB61FB681B687A693B
:102E8000013A9A62FB681B68FA69DA62FB68FA69C0
:102E9000DA60FB695B083B61BB68002B04D1FB680F
:102EA0001B683A695A6323E0BB68042B04D1FB68B2
:102EB0001A683B6993631BE0BB68082B04D1FB686D
:102EC0001A683B69D36313E0BB680C2B04D1FB6821
:102ED0001A683B6913640BE0BB68102B04D1FB68D4
:102EE0001A683B69936403E0FB681A683B69D36422
:102EF000FB681B6801225A6100BF2437BD465DF89C
:102F0000047B704780D1F00880B500AF01211848DC
:102F100004F070FD0346002B26D01021144804F065
:102F200069FD0346002B1FD00421114804F062FD07
:102F30000346002B18D04FF400610D4804F05AFDF1
:102F40000346002B10D040210A4804F053FD0346ED
:102F5000002B09D04FF40071074804F04BFD0346E5
:102F6000002B01D0002300E00123184680BD00BFE4
:102F700000100048000C00480008004880B500AF71
:102F80001021114804F036FD0346002B19D0012111
:102F90000E4804F02FFD0346002B12D04FF4806141
:102FA0000B4804F027FD0346002B0AD04FF4806144
:102FB0004FF0904004F01EFD0346002B01D001238A
:102FC00000E00023184680BD000C004800040048C3
:102FD0000014004800000000B0B582B000AF786077
:102FE0007B681B68704A934240F0B1806F4B1B783E
:102FF000022B40F0A5806E4B9B889BB2F03B18469D
:10300000FDF7C8FA62A3D3E90023FDF72DFB0246C2
:103010000B461046194660A3D3E90023FDF724FBB5
:1030200002460B4610461946FDF7F6FD0346614A77
:103030001360614B5B889BB2EE3B1846FDF7AAFA22
:1030400053A3D3E90023FDF70FFB02460B461046BE
:10305000194651A3D3E90023FDF706FB02460B46B0
:1030600010461946FDF7D8FD0346544A1360544BE9
:103070001B881846FDF78EFA04460D46514B1B6817
:103080001846FDF787FA46A3D3E90023FDF7ECFACB
:1030900002460B4620462946FDF730F902460B460C
:1030A00010461946FDF7B8FD0346002200214648A8
:1030B00003F0B2FE454B1B881846FDF76BFA044639
:1030C0000D46434B1B681846FDF764FA34A3D3E959
:1030D0000023FDF7C9FA02460B4620462946FDF7B4
:1030E0000DF902460B4610461946FDF795FD0346BD
:1030F00000221021344803F08FFE314B1B88184604
:10310000FDF748FA04460D46324B1B681846FDF79A
:1031100041FA4FF00002304BFDF7A6FA02460B468B
:1031200020462946FDF7E8F802460B4610461946A8
:10313000FDF772FD034600220021284803F06CFED3
:103140000821274804F086FC264B01221A707B6870
:103150001B68254A934201D100F0DAF97B681B68AD
:10316000224A934210D10221214804F073FC4FF40B
:103170000071204804F06EFC002220211C4804F05D
:1031800051FC1D4807F026FB00BF0837BD46B0BD07
:10319000D3BCE3141DC9E93F0000000000A0774044
:1031A0009A9999999999993F00400140BB0B002049
:1031B000980A00208C0A0020A40A002004000020A5
:1031C0007C0A0020800A0020EC0600207E0A0020F5
:1031D000840A0020880A00200000D03F0007002059
:1031E00000080048C50B00200010004000140040FB
:1031F0000010004800140048B808002080B485B0D2
:1032000000AFF860B9607A6087ED000ABA68FB68C1
:10321000D31A0A2B19DD7B6807EE903AB8EEE77AED
:10322000D7ED007A27EE277A244BD3ED007A77EE9C
:10323000277A224BC3ED007A204BD3ED007AFDEEC6
:10324000E77A17EE903AFB601EE0BA68FB68D31A83
:1032500013F10A0F18DA194B93ED007A7B6807EE29
:10326000903AF8EEE76AD7ED007A66EEA77A77EE45
:10327000677A124BC3ED007A104BD3ED007AFDEE66
:10328000E77A17EE903AFB60BB683133FA689A42EE
:103290000CDDBB68FB60BB6807EE903AF8EEE77A9E
:1032A000064BC3ED007A064B01221A70FB681846E4
:1032B0001437BD465DF8047B704700BFA80B0020A3
:1032C000A80A002080B489B000AFF861B9617A61C2
:1032D0003B6187ED030AC7ED020A87ED011A3A69DF
:1032E0007B69D31A324A1360BB691B68304A116884
:1032F000304A12680A4407EE902AB8EEE77A97ED52
:10330000036AD7ED027AC6EE276AD7ED017A66EE38
:10331000A77AF6EE006A67EEA67A67EE277AFDEEE8
:10332000E77A17EE902A1A44BB691A60204B1B6893
:10333000204A1360BB691B68BA6A9A4202DCBB6907
:10334000BA6A1A60BB691B68FA6A9A4202DBBB69F7
:10335000FA6A1A60164B1B6807EE903AB8EEE77AE5
:10336000D7ED037A27EE277ABB691B6807EE903A00
:10337000F8EEE77A77EE277AFDEEE77A17EE902AF5
:10338000FB691A60FB691B68BA6A9A4202DCFB6936
:10339000BA6A1A60FB691B68FA6A9A4202DBFB6927
:1033A000FA6A1A6000BF2437BD465DF8047B704797
:1033B000AC0A0020A40B002080B48BB000AFF861F1
:1033C000B9617A613B6187ED030AC7ED020A87EDB7
:1033D000011A3A6B3B69D31A7B62BB691B687A6935
:1033E00011687A6A0A4407EE902AB8EEE77A97EDF8
:1033F000036AD7ED027AC6EE276AD7ED017A66EE48
:10340000A77AF6EE006A67EEA67A67EE277AFDEEF7
:10341000E77A17EE902A1A44BB691A607B697A6AC8
:103420001A60BB691B687A6B9A4202DCBB697A6BD3
:103430001A60BB691B68BA6B9A4202DBBB69BA6B44
:103440001A607B6A07EE903AB8EEE77AD7ED037A16
:1034500027EE277ABB691B6807EE903AF8EEE77A09
:1034600077EE277AFDEEE77A17EE902AFB691A606D
:10347000FB691B687A6B9A4202DCFB697A6B1A6003
:10348000FB691B68BA6B9A4202DBFB69BA6B1A6074
:1034900000BF2C37BD465DF8047B7047000000007C
:1034A000B0B582B000AF87ED010AC7ED000A3868F9
:1034B000FDF782F812A3D3E90023FDF7D5F8024601
:1034C0000B4614461D467868FDF776F80EA3D3E93F
:1034D0000023FDF7C9F802460B4620462946FCF7B3
:1034E0000DFF02460B4610461946FDF7B5FB034695
:1034F00007EE903AB0EE670A0837BD46B0BD00BF90
:10350000CDCCCCCCCCCCEC3F9A9999999999B93F38
:1035100080B582B000AF444BDB889BB21A4640F6C0
:10352000E44302FB03F3002B01DA03F6FF731B13E2
:103530001A463E4B1A603C4B1B899BB21A4640F61A
:10354000E44302FB03F3002B01DA03F6FF731B13C2
:103550001A46374B1A6014233B60344B1B68A3F5A3
:10356000C873344AA2FB03231B09304A1360304B53
:103570001B68A3F5FA732F4AA2FB0323DB082C4A2E
:1035800013602B4B1A68294B1B68934238BF1346B4
:103590003B603B68642202FB03F3A3F5FA63254A10
:1035A000A2FB03239B097B607B68642B01D9642306
:1035B0007B607868FCF7DEFF02460B469FED161B2A
:1035C00043EC102B12F0D4FF51EC100B14A3D3E9F1
:1035D0000023FDF749F802460B4610461946FDF751
:1035E000F3FA0346144A82FB03129214DB17D31A30
:1035F0001433124A13603B68132B03D80F4B142269
:103600001A6005E03B68642B02D90C4B63221A60F8
:1036100000BF0837BD4680BD000000000000084024
:103620000000000000C05340980A0020900A0020CB
:10363000940A0020CDCCCCCC83DE1B43700000204C
:1036400080B584B000AF78607868FCF749FE034627
:10365000FB81FB897F2B01D97F23FB81FB891A46E4
:1036600079680B480FF037F8FB89094A0021D154DB
:10367000FB89194678680DF097FB03467B737B7BCB
:10368000012BF5D000BF00BF1037BD4680BD00BF85
:10369000140B002080B582B002AF9E4B1B78DBB2CA
:1036A000002B00F0648206229B499C480EF089FFA3
:1036B0000346002B08D19A4A9A4998480EF008FF11
:1036C0009948FFF7BDFF4AE20622984993480EF059
:1036D00078FF0346002B08D1954A96498F480EF093
:1036E000F7FE9548FFF7ACFF39E2082293498B4873
:1036F0000EF067FF0346002B08D1914A9149874895
:103700000EF0E6FE9048FFF79BFF28E20C228F495F
:1037100082480EF056FF0346002B08D18C4A8D4993
:103720007E480EF0D5FE8C48FFF78AFF17E20C2288
:103730008A497A480EF045FF0346002B08D1884A93
:10374000884976480EF0C4FE8748FFF779FF06E205
:103750000D22864971480EF034FF0346002B08D134
:10376000834A84496D480EF0B3FE8348FFF768FF33
:10377000F5E10C22814969480EF023FF0346002B36
:1037800008D17F4A7F4965480EF0A2FE7E48FFF7C8
:1037900057FFE4E10C227D4960480EF012FF03461A
:1037A000002B08D17A4A7B495C480EF091FE7A489A
:1037B000FFF746FFD3E10D22784958480EF001FF8C
:1037C0000346002B0DD1764A764954480EF080FE10
:1037D000734B1B685B42744A13607448FFF730FFF9
:1037E000BDE10C2272494D480EF0EBFE0346002B62
:1037F00008D1704A704949480EF06AFE6F48FFF7D9
:103800001FFFACE10C226E4944480EF0DAFE03467D
:10381000002B08D16B4A6C4940480EF059FE6B48AA
:10382000FFF70EFF9BE16A493C48FCF7F9FC0346B1
:10383000002B08D1674A684938480EF049FE6748AE
:10384000FFF7FEFE8BE166493448FCF7E9FC0346CE
:10385000002B0AD15F4B1B681A46624962480EF082
:1038600015FE6148FFF7ECFE79E106225F492B481F
:103870000EF0A7FE0346002B0ED1294B1B681846FD
:10388000FCF79AFE02460B46594957480EF0FEFDDA
:103890005548FFF7D5FE62E1062256491F480EF053
:1038A00090FE0346002B0ED1214B1B681846FCF7F7
:1038B00083FE02460B4650494B480EF0E7FD4A484E
:1038C000FFF7BEFE4BE108224C4914480EF079FE8A
:1038D0000346002B0AD11A4B1B681A464849424836
:1038E0000EF0D4FD4048FFF7ABFE38E10C2245490D
:1038F0000A480EF066FE0346002B40F08780144B0A
:103900001B881A46404938480EF0C0FD3648FFF77C
:1039100097FE24E1940B002088740108D40A00204B
:1039200044000020907401089C740108A8740108E8
:1039300048000020B0740108BC740108C874010874
:1039400000000020D4740108E4740108F474010834
:103950007C0A0020047501081475010834750108FB
:103960007E0A002044750108547501087475010829
:10397000B80A00208475010898750108AC75010823
:103980005C000020BC750108CC750108E0750108D9
:1039900060000020F0750108007601081476010827
:1039A00064000020247601086800002038760108B1
:1039B0004C760108180000205C7601086C7601083E
:1039C000807601081C00002090760108A07601088E
:1039D000B476010858000020C8760108E076010896
:1039E000FC76010810770108140B00202C770108E1
:1039F00034770108407701084877010854770108B7
:103A0000607701086C7701087C7701080C2259491E
:103A100059480EF0D6FD0346002B0AD1574B1B88A0
:103A20001A46574957480EF031FD5648FFF708FE31
:103A300095E00D22544950480EF0C3FD0346002B7B
:103A40000BD1524BB3F900301A4651494D480EF094
:103A50001DFD4C48FFF7F4FD81E00C224D4946481E
:103A60000EF0AFFD0346002B0ED14B4B1B681846E2
:103A7000FCF7A2FD02460B46484942480EF006FDFF
:103A80004048FFF7DDFD6AE00C2245493A480EF058
:103A900098FD0346002B0ED1424B1B681846FCF7DD
:103AA0008BFD02460B46404936480EF0EFFC354888
:103AB000FFF7C6FD53E00E223C492F480EF081FD72
:103AC0000346002B0FD13A4B1A683A4B19683A4B10
:103AD0001B6800930B4639492A480EF0D7FC294849
:103AE000FFF7AEFD3BE00C22354923480EF069FD9F
:103AF0000346002B0ED1334B1B681846FCF75CFDC8
:103B000002460B4630491F480EF0C0FC1D48FFF727
:103B100097FD24E00C222D4917480EF052FD034674
:103B2000002B0ED12A4B1B681846FCF745FD0246B8
:103B30000B46284913480EF0A9FC1248FFF780FDF8
:103B40000DE00B2224490C480EF03BFD0346002BF0
:103B500002D100F091F902E02048FFF771FD402208
:103B6000002105480EF025FD1D4B00221A7000BFF4
:103B7000BD4680BD98770108D40A00207E0A002047
:103B8000A8770108140B0020C4770108B80A0020A8
:103B9000D4770108E47701085C000020F47701087D
:103BA00004780108600000201478010824780108D6
:103BB000B40B0020800A0020840A00203478010819
:103BC00068780108180000207878010888780108D2
:103BD0001C00002098780108A8780108B478010832
:103BE000940B002080B487B000AF87ED030AB86063
:103BF0000B46FB71FB79202B35D1D7ED037AB7EE5D
:103C0000007AF4EEC77AF1EE10FA11D8BB6807EE2D
:103C1000903AB8EEE77AD7ED037A67EE277A9FED10
:103C2000327A67EE877AFCEEE77A17EE903A7B619C
:103C3000D7ED037AB7EE007AF4EEC77AF1EE10FA18
:103C400011DDBB6807EE903AB8EEE77AD7ED036A6C
:103C5000C6EE877A9FED247A67EE877AFCEEE77AE4
:103C600017EE903A7B61FB79102B35D1D7ED037AB3
:103C7000B7EE007AF4EEC77AF1EE10FA11D8BB680D
:103C800007EE903AB8EEE77AD7ED037A67EE277A37
:103C90009FED167A67EE877AFCEEE77A17EE903A98
:103CA0007B61D7ED037AB7EE007AF4EEC77AF1EED6
:103CB00010FA11DDBB6807EE903AB8EEE77AD7ED5F
:103CC000036AC6EE877A9FED097A67EE877AFCEE83
:103CD000E77A17EE903A7B617B6918461C37BD4640
:103CE0005DF8047B704700BF0000004F00FEFF46F8
:103CF00080B487B000AFF860B96011461A460B4631
:103D0000FB711346BB71BB79202B2BD197F9073080
:103D1000002B11D0FB6807EE903AF8EEE77A9FEDA2
:103D20002E7AC7EE876ABB6807EE903AB8EEE77A5C
:103D3000C6EE877AC7ED057A97F90730002B11D1C7
:103D4000FB6807EE903AF8EEE77ADFED236A87EE3C
:103D5000A67ABB6807EE903AF8EEE77A67EE277A24
:103D6000C7ED057ABB79102B2BD197F90730002BC3
:103D700011D0FB6807EE903AF8EEE77A9FED177ADC
:103D8000C7EE876ABB6807EE903AB8EEE77AC6EEF0
:103D9000877AC7ED057A97F90730002B11D1FB68B8
:103DA00007EE903AF8EEE77ADFED0C6A87EEA67A36
:103DB000BB6807EE903AF8EEE77A67EE277AC7ED30
:103DC000057A7B6907EE903AB0EE670A1C37BD466C
:103DD0005DF8047B704700BF0000004F00FEFF4607
:103DE00080B584B000AF87ED010AD7ED017ABFEE50
:103DF000007AF4EEC77AF1EE10FA02D51A4B7B6026
:103E00000BE0D7ED017AB7EE007AF4EEC77AF1EE67
:103E100010FA02DD4FF07E537B60B7EE007AD7EDEB
:103E2000017A77EE677AB0EE670A12F011FC87ED3F
:103E3000030AD7ED017A9FED0D7A67EE877A9FED41
:103E40000C7A37EEC77AD7ED017A67EE277A9FEDC5
:103E5000097A37EE877AD7ED037A67EE277AB0EEE4
:103E6000670A1037BD4680BD000080BF9E3AB63D50
:103E7000CABF5B3EDA0FC93F80B5A0B000AF934B1D
:103E80001B681846FCF798FB02460B4638469049DB
:103E90000EF0FCFA3B461846FFF7D2FB8D4B1B6831
:103EA0001846FCF789FB02460B4638468A490EF055
:103EB000EDFA3B461846FFF7C3FB884B1A683B46B2
:103EC000874918460EF0E2FA3B461846FFF7B8FB62
:103ED000844B1A683B46844918460EF0D7FA3B4695
:103EE0001846FFF7ADFB814B1A683B4680491846E0
:103EF0000EF0CCFA3B461846FFF7A2FB7D4B1A6842
:103F00003B467D4918460EF0C1FA3B461846FFF77E
:103F100097FB7A4B1A683B46794918460EF0B6FA79
:103F20003B461846FFF78CFB764B1A683B467649B2
:103F300018460EF0ABFA3B461846FFF781FB734B71
:103F40001A683B46724918460EF0A0FA3B461846DE
:103F5000FFF776FB6F4B1A683B466F4918460EF029
:103F600095FA3B461846FFF76BFB6C4B1A683B46CD
:103F70006B4918460EF08AFA3B461846FFF760FB7D
:103F8000684B1A683B46684918460EF07FFA3B4674
:103F90001846FFF755FB654B1B881A463B4664499C
:103FA00018460EF073FA3B461846FFF749FB614B83
:103FB0001B881A463B46604918460EF067FA3B4696
:103FC0001846FFF73DFB5D4BB3F900301A463B4600
:103FD0005B4918460EF05AFA3B461846FFF730FB8D
:103FE000584B1B681846FCF7E7FA02460B46384662
:103FF00055490EF04BFA3B461846FFF721FB534B51
:104000001B681846FCF7D8FA02460B46384650495A
:104010000EF03CFA3B461846FFF712FB4D4B1A6870
:104020003B464D4918460EF031FA3B461846FFF71D
:1040300007FB4A4B1A683B46494918460EF026FAD8
:104040003B461846FFF7FCFA464B1B681846FCF740
:10405000B3FA02460B46384643490EF017FA3B4680
:104060001846FFF7EDFA414B1B78DBB21A463B4688
:104070003F4918460EF00AFA3B461846FFF7E0FAA9
:104080003C4B1A683B463C4918460EF0FFF93B464C
:104090001846FFF7D5FA394B1A683B463849184697
:1040A0000EF0F4F93B461846FFF7CAFA354B1A688A
:1040B0003B46354918460EF0E9F93B461846FFF7EE
:1040C000BFFA00BF8037BD4680BD00BF440000205E
:1040D00034770108480000204877010800000020DC
:1040E000C8780108800A0020D4780108840A0020DA
:1040F000E4780108880A0020F47801088C0A00207E
:1041000000790108040000201C79010878000020D3
:10411000387901087C00002054790108900A0020B9
:1041200070790108940A0020807901087C0A002037
:10413000987901087E0A0020B4790108B80A0020A5
:10414000D079010818000020787801081C000020B0
:1041500098780108A00B0020E0790108AC0A002043
:10416000F479010830000020147A0108A80A002020
:10417000347A010854000020487A0108AC0B002072
:104180005C7A0108B40B0020747A010880B400AF97
:1041900072B600BF00BFFDE780B582B000AF0F4B25
:1041A0001B6E0E4A43F0010313660C4B1B6E03F0AB
:1041B00001037B607B68094B9B6D084A43F0805389
:1041C0009365064B9B6D03F080533B603B6805F0A5
:1041D00035FA00BF0837BD4680BD00BF0010024061
:1041E00080B5A4B000AF786007F17C0300221A60AC
:1041F0005A609A60DA601A6107F12803542200219C
:1042000018460EF0D6F97B681B68B3F1A04F1CD19D
:104210004FF40043BB624FF00053FB6607F12803E5
:10422000184605F049FF0346002B01D0FFF7AEFF0B
:10423000864BDB6C854A43F40053D364834BDB6CC1
:1042400003F400537B627B6A85E17B681B68804ACC
:10425000934240F087804FF48033BB624FF080433D
:104260003B6707F12803184605F026FF0346002B9D
:1042700001D0FFF78BFF774B1B680133754A136042
:10428000744B1B68012B0BD1704BDB6C6F4A43F4F2
:104290008043D3646D4BDB6C03F480433B623B6A29
:1042A0006A4BDB6C694A43F00203D364674BDB6CF7
:1042B00003F00203FB61FB69644BDB6C634A43F070
:1042C0001003D364614BDB6C03F01003BB61BB696B
:1042D00042F20203FB670323C7F880300023C7F8CC
:1042E000843007F17C0319465B4803F001FA4FF470
:1042F0000A53FB670323C7F880300023C7F88430D4
:1043000007F17C031946554803F0F2F9544B554A1E
:104310001A60534B25225A60514B00229A60504B31
:104320000022DA604E4B80221A614D4B4FF48072AE
:104330005A614B4B4FF480629A61494B2022DA61FB
:10434000474B00221A62464802F060FF0346002BEA
:1043500001D0FFF71BFF7B68414A5A65404A7B68E2
:104360009362F8E07B681B683F4A934240F082808A
:104370004FF48033BB624FF080433B6707F1280363
:10438000184605F099FE0346002B01D0FFF7FEFE0C
:10439000304B1B6801332F4A13602E4B1B68012BD7
:1043A0000BD12A4BDB6C294A43F48043D364274B5F
:1043B000DB6C03F480437B617B69244BDB6C234A19
:1043C00043F01003D364214BDB6C03F010033B611B
:1043D0003B694FF48043FB670323C7F88030002319
:1043E000C7F8843007F17C0319461C4803F080F9B4
:1043F0001E4B1F4A1A601D4B26225A601B4B00227F
:104400009A601A4B0022DA60184B80221A61174B0F
:104410004FF480725A61154B4FF480629A61134BCE
:104420002022DA61114B4FF440521A620F4802F019
:10443000EDFE0346002B01D0FFF7A8FE7B680B4A78
:104440005A650A4A7B68936285E000BF001002400B
:1044500000040050E40B0020000400480010004855
:10446000A4050020080002400005005004060020BA
:104470001C0002407B681B68394A93426BD14FF4A1
:104480008033BB624FF080433B6707F12803184637
:1044900005F012FE0346002B01D0FFF777FE314BEB
:1044A0001B6801332F4A13602E4B1B68012B0BD165
:1044B0002D4BDB6C2C4A43F48043D3642A4BDB6CDA
:1044C00003F48043FB60FB68274BDB6C264A43F018
:1044D0000103D364244BDB6C03F00103BB60BB68B6
:1044E0004FF48073FB670323C7F880300023C7F8BD
:1044F000843007F17C0319464FF0904003F0F8F840
:104500001A4B1B4A1A60194B27225A60174B00227C
:104510009A60164B0022DA60144B80221A61134B0A
:104520004FF480725A61114B4FF480629A610F4BC5
:104530002022DA610D4B00221A620C4802F066FE5E
:104540000346002B01D0FFF721FE7B68074A5A651E
:10455000064A7B68936200BF9037BD4680BD00BFAE
:1045600000060050E40B002000100240640600200A
:104570003000024080B485B000AF78607B681B6873
:104580000A4A93420BD10A4B9B6C094A43F0080339
:104590009364074B9B6C03F00803FB60FB6800BF50
:1045A0001437BD465DF8047B704700BF000C024025
:1045B0000010024080B58CB000AF786007F11C039A
:1045C00000221A605A609A60DA601A617B681B6880
:1045D0005B4A934259D15B4BDB6C5A4A43F48033BC
:1045E000D364584BDB6C03F48033BB61BB69554B20
:1045F000DB6C544A43F00103D364524BDB6C03F091
:1046000001037B617B693023FB6103233B62002351
:104610007B6207F11C0319464FF0904003F068F8E5
:10462000494B4A4A1A60484B06225A60464B1022B0
:104630009A60454B0022DA60434B80221A61424B5C
:104640004FF400725A61404B4FF400629A613E4B46
:104650002022DA613C4B4FF400521A623A4802F0D1
:10466000D5FD0346002B01D0FFF790FD7B68364A4D
:104670009A60354A7B68936200220021362002F05E
:10468000B2FA362002F0C9FA55E07B681B68304A5E
:10469000934250D12B4BDB6C2A4A43F40033D36452
:1046A000284BDB6C03F400333B613B69254BDB6C2F
:1046B000244A43F00103D364224BDB6C03F0010373
:1046C000FB60FB684023FB6103233B6200237B62AA
:1046D00007F11C0319464FF0904003F009F81D4BF9
:1046E0001D4A1A601B4B29225A601A4B10229A60ED
:1046F000184B0022DA60174B80221A61154B4FF4D9
:1047000000725A61134B4FF400629A61114B2022E0
:10471000DA61104B4FF400521A620E4802F076FD37
:104720000346002B01D0FFF731FD7B68094A9A60F0
:10473000084A7B68936200BF3037BD4680BD00BF2A
:1047400000080050001002401407002044000240FE
:10475000000C0050740700205800024080B584B05F
:1047600000AF78607B681B681A4A934214D11A4BD9
:104770001B6E194A43F400631366174B1B6E03F458
:104780000063FB60FB6800220021182002F02BFA76
:10479000182002F042FA18E07B681B680F4A934227
:1047A00013D10D4B1B6E0C4A43F4005313660A4B96
:1047B0001B6E03F40053BB60BB68002200212B205A
:1047C00002F011FA2B2002F028FA00BF1037BD4684
:1047D00080BD00BF002C01400010024000340140A9
:1047E00080B588B000AF78607B681B68354A93421B
:1047F0000CD1354B9B6D344A43F004039365324B27
:104800009B6D03F00403FB61FB6956E07B681B684A
:104810002E4A934214D12C4B9B6D2B4A43F010032C
:104820009365294B9B6D03F01003BB61BB690022AC
:104830000021362002F0D7F9362002F0EEF93CE0F4
:104840007B681B68224A93420CD11F4B9B6D1E4A0A
:1048500043F0200393651C4B9B6D03F020037B61A9
:104860007B692AE07B681B681A4A934214D1164B75
:104870001B6E154A43F480331366134B1B6E03F40F
:1048800080333B613B6900220021182002F0ABF924
:10489000182002F0C2F910E07B681B680E4A9342B0
:1048A0000BD1094B1B6E084A43F400331366064BC9
:1048B0001B6E03F40033FB60FB6800BF2037BD466E
:1048C00080BD00BF00080040001002400010004002
:1048D00000140040004001400044014080B58AB00F
:1048E00000AF786007F1140300221A605A609A60E2
:1048F000DA601A617B681B68334A93421CD1334BE0
:10490000DB6C324A43F00403D364304BDB6C03F0BE
:1049100004033B613B6901237B610223BB610023EC
:10492000FB6102233B6202237B6207F114031946F9
:10493000274802F0DDFE43E07B681B68254A93426E
:104940001DD1224BDB6C214A43F00803D3641F4B7B
:10495000DB6C03F00803FB60FB684FF480537B6162
:104960000223BB610023FB6100233B6202237B62C5
:1049700007F114031946184802F0BAFE20E07B68DC
:104980001B68164A93421BD1104BDB6C0F4A43F055
:104990000403D3640D4BDB6C03F00403BB60BB6802
:1049A00080237B610223BB610023FB6102233B6206
:1049B00004237B6207F114031946054802F098FEB0
:1049C00000BF2837BD4680BD002C014000100240CA
:1049D0000008004800080040000C00480034014076
:1049E00080B59EB000AF786007F1640300221A60C2
:1049F0005A609A60DA601A6107F1100354220021AC
:104A000018460DF0D6FD7B681B681F4A934236D1CD
:104A100008233B6180233B6207F11003184605F031
:104A20004BFB0346002B01D0FFF7B0FB174B9B6DF0
:104A3000164A43F400239365144B9B6D03F4002343
:104A4000FB60FB68114BDB6C104A43F00403D3643A
:104A50000E4BDB6C03F00403BB60BB684FF4406398
:104A60007B660223BB660023FB6600233B670523AE
:104A70007B6707F164031946054802F039FE00BF61
:104A80007837BD4680BD00BF004C0040001002409A
:104A90000008004880B400AF00BFFDE780B400AF5D
:104AA00000BFFDE780B400AF00BFFDE780B400AFFA
:104AB00000BFFDE780B400AF00BFFDE780B400AFEA
:104AC00000BFBD465DF8047B704780B400AF00BFF7
:104AD000BD465DF8047B704780B400AF00BFBD46A3
:104AE0005DF8047B704780B500AF00F0B9F900BFF6
:104AF00080BD000080B500AF024802F0AAFC00BFF4
:104B000080BD00BFA405002080B500AF024802F0C0
:104B1000A0FC00BF80BD00BF0406002080B500AF30
:104B2000024802F096FC00BF80BD00BF6406002072
:104B300080B500AF024802F08CFC00BF80BD00BF12
:104B40001407002080B500AF024802F082FC00BFCD
:104B500080BD00BF7407002080B500AF024803F09D
:104B600083F800BF80BD00BFC420002080B500AF27
:104B7000034806F063F8034806F060F800BF80BD04
:104B8000D40700205009002080B500AF024806F08D
:104B900055F800BF80BD00BF0409002080B500AFFC
:104BA000034806F04BF8034802F0E0F800BF80BD70
:104BB0006C080020EC06002080B400AF01231846EA
:104BC000BD465DF8047B704780B582B000AF786069
:104BD00039600DF053FD034616221A604FF0FF3383
:104BE00018460837BD4680BD80B582B000AF7860FA
:104BF0004FF0FF317868FFF7E7FF00BFFDE780B5B2
:104C000086B000AFF860B9607A6000237B610AE08B
:104C1000AFF300800146BB685A1CBA60CAB21A7072
:104C20007B6901337B617A697B689A42F0DB7B6840
:104C300018461837BD4680BD80B586B000AFF86015
:104C4000B9607A6000237B6109E0BB685A1CBA60D6
:104C50001B781846AFF300807B6901337B617A696A
:104C60007B689A42F1DB7B6818461837BD4680BDE9
:104C700080B483B000AF78604FF0FF3318460C3734
:104C8000BD465DF8047B704780B483B000AF7860A8
:104C900039603B684FF400525A60002318460C37C5
:104CA000BD465DF8047B704780B483B000AF786088
:104CB000012318460C37BD465DF8047B704780B46D
:104CC00085B000AFF860B9607A60002318461437E9
:104CD000BD465DF8047B704780B586B000AF786054
:104CE000144A154BD31A7B617B693B61134B1B68DC
:104CF000002B02D1114B124A1A60104B1A687B68C4
:104D000013443A699A4207D20DF0B8FC03460C22CC
:104D10001A604FF0FF3309E0084B1B68FB60074B3C
:104D20001A687B681344054A1360FB6818461837F5
:104D3000BD4680BD0000022000040000E80B0020FA
:104D40001027002080B400AF064BD3F88830054A06
:104D500043F47003C2F8883000BFBD465DF8047BA1
:104D6000704700BF00ED00E00D488546FFF7EAFF01
:104D70000C480D490D4A002302E0D458C4500433B6
:104D8000C4188C42F9D30A4A0A4C002301E013608C
:104D90000432A242FBD30DF077FCFCF779F9FEE771
:104DA0000000022000000020D8030020B87F010886
:104DB000D80300200C270020FEE780B582B000AFAA
:104DC0000023FB71032001F003FF002000F00EF828
:104DD0000346002B02D00123FB7101E0FFF7DCF951
:104DE000FB7918460837BD4680BD000080B584B009
:104DF00000AF78600023FB73164B1B68002B22D09A
:104E0000154B1A68134B1B684FF47A71B1FBF3F31F
:104E1000B2FBF3F3184601F00EFF0346002B0FD14F
:104E20007B680F2B09D8002279684FF0FF3001F022
:104E3000DAFE0A4A7B68136007E00123FB7304E093
:104E40000123FB7301E00123FB73FB7B1846103742
:104E5000BD4680BD940000208C0000209000002002
:104E600080B400AF054B1A68054B1B681344034A16
:104E7000136000BFBD465DF8047B7047EC0B00205B
:104E80009400002080B400AF034B1B681846BD4659
:104E90005DF8047B704700BFEC0B002080B584B048
:104EA00000AF7860FFF7EEFFB8607B68FB60FB68DF
:104EB000B3F1FF3F04D0094B1B68FA681344FB6051
:104EC00000BFFFF7DFFF0246BB68D31AFA689A42B9
:104ED000F7D800BF00BF1037BD4680BD940000204A
:104EE00080B483B000AF786039607B689B6823F43E
:104EF0007C123B681A437B689A6000BF0C37BD4642
:104F00005DF8047B704780B483B000AF786039608F
:104F10007B689B6823F0E0723B681A437B689A6069
:104F200000BF0C37BD465DF8047B704780B483B08A
:104F300000AF78607B689B6803F0E07318460C371D
:104F4000BD465DF8047B704780B487B000AFF86061
:104F5000B9607A603B60FB6860331A46BB689B00AF
:104F600013447B617B691A68084B13407A6802F02E
:104F7000F8413A680A43134343F000427B691A60E0
:104F800000BF1C37BD465DF8047B704700F0FF038F
:104F900080B485B000AF786039607B6860331A46B2
:104FA0003B689B001344FB60FB681B6803F0F843FD
:104FB00018461437BD465DF8047B704780B487B04F
:104FC00000AFF860B9607A60FB6860331A46BB686E
:104FD0009B0013447B617B691B6823F000427B6864
:104FE0001A437B691A6000BF1C37BD465DF8047B1D
:104FF000704780B487B000AFF860B9607A60FB6832
:1050000060331A46BB689B0013447B617B691B6855
:1050100023F080727B681A437B691A6000BF1C37DB
:10502000BD465DF8047B704780B487B000AFF86080
:10503000B9607A60FB6860331A46BB689B00134412
:105040007B617B691B6823F000727B681A437B6974
:105050001A6000BF1C37BD465DF8047B704780B402
:1050600083B000AF786039607B685B6923F00042F1
:105070003B681A437B685A6100BF0C37BD465DF838
:10508000047B704780B483B000AF78607B68DB68D6
:1050900003F44063002B01D1012300E000231846F4
:1050A0000C37BD465DF8047B704780B487B000AF15
:1050B000F860B9607A60FB6830331A46BB681B0A37
:1050C0009B0003F00C0313447B617B691A68BB6887
:1050D00003F01F031F2101FA03F3DB431A407B682F
:1050E0009B0E03F01F01BB6803F01F0301FA03F3DB
:1050F0001A437B691A6000BF1C37BD465DF8047B0C
:10510000704780B487B000AFF860B9607A60FB6820
:1051100014331A46BB685B0E9B0003F00403134470
:105120007B617B691A68BB681B0D03F01F030721B5
:1051300001FA03F3DB431A40BB681B0D03F01F03A6
:10514000796801FA03F31A437B691A6000BF1C37C0
:10515000BD465DF8047B704780B485B000AFF86051
:10516000B9607A60FB68D3F8B020BB68C3F3120360
:10517000DB431A407B6803F018030849D940BB6839
:105180000B40C3F312031A43FB68C3F8B02000BFFF
:105190001437BD465DF8047B704700BFFFFF070072
:1051A00080B483B000AF78607B689B6803F01F0316
:1051B00018460C37BD465DF8047B704780B483B059
:1051C00000AF78607B689B6823F0204323F03F03A7
:1051D0007A68936000BF0C37BD465DF8047B70476A
:1051E00080B483B000AF78607B689B6803F00053A5
:1051F000B3F1005F01D1012300E0002318460C3712
:10520000BD465DF8047B704780B483B000AF786022
:105210007B689B6823F0104323F03F0343F08052E8
:105220007B689A6000BF0C37BD465DF8047B704711
:1052300080B483B000AF78607B689B6803F08053D4
:10524000B3F1805F01D1012300E0002318460C3741
:10525000BD465DF8047B704780B483B000AF7860D2
:105260007B689B6823F0004323F03F0343F0010277
:105270007B689A6000BF0C37BD465DF8047B7047C1
:1052800080B483B000AF78607B689B6823F00043F4
:1052900023F03F0343F002027B689A6000BF0C37A3
:1052A000BD465DF8047B704780B483B000AF786082
:1052B0007B689B6803F00103012B01D1012300E00F
:1052C000002318460C37BD465DF8047B704780B458
:1052D00083B000AF78607B689B6803F00203022B09
:1052E00001D1012300E0002318460C37BD465DF8CC
:1052F000047B704780B483B000AF78607B689B68A4
:1053000023F0004323F03F0343F004027B689A60DC
:1053100000BF0C37BD465DF8047B704780B483B096
:1053200000AF78607B689B6803F00403042B01D115
:10533000012300E0002318460C37BD465DF8047BCE
:10534000704780B483B000AF78607B689B6803F0DF
:105350000803082B01D1012300E0002318460C3775
:10536000BD465DF8047B704790B589B000AF7860AA
:105370000023FB770023FB607B68002B01D1012316
:10538000A9E17B685B69002B7B68DB6D002B09D191
:105390007868FEF725FF7B6800221A667B6800228A
:1053A00083F858207B681B681846FFF719FF0346EF
:1053B000002B04D07B681B681846FFF7FFFE7B6854
:1053C0001B681846FFF734FF0346002B15D17B6896
:1053D0001B681846FFF718FF9C4B1B689B099C4AEB
:1053E000A2FB03239B0901335B00FB6002E0FB6827
:1053F000013BFB60FB68002BF9D17B681B681846FA
:10540000FFF716FF0346002B0DD17B68DB6D43F0E1
:1054100010027B68DA657B681B6E43F001027B68D3
:105420001A660123FB777B681B681846FFF776FF37
:1054300078617B68DB6D03F01003002B40F0428144
:105440007B69002B40F03E817B68DB6D23F4817328
:1054500043F002027B68DA657B681B681846FFF739
:1054600023FF0346002B41D17B681B68B3F1A04F9B
:1054700004D07B681B68774A93420FD14FF0A0405D
:10548000FFF712FF04467348FFF70EFF034623435E
:10549000002B0CBF01230023DBB212E06E48FFF7A4
:1054A00003FF04466D48FFF7FFFE03461C436C48AC
:1054B000FFF7FAFE03462343002B0CBF0123002312
:1054C000DBB2002B12D07B681B68B3F1A04F04D075
:1054D0007B681B685F4A934201D1624A00E0624ADE
:1054E0007B685B6819461046FFF7FAFC7B685B7FB8
:1054F0005A037B68DB6B1A437B68DB681A437B6863
:105500009B681A437B6893F824301B041343BB61E8
:105510007B6893F82430012B06D17B689B6A013BA2
:105520005B04BA691343BB617B68DB6A002B09D05B
:105530007B68DB6A03F478727B681B6B1343BA6980
:105540001343BB617B681B68DA68484B13407A6879
:105550001268B9690B43D3607B681B681B6923F031
:1055600040617B685A6B7B681B680A431A617B68E1
:105570001B681846FFF7E5FE38617B69002B7FD179
:105580003B69002B7CD17B681B7F9A037B6893F877
:1055900038305B001343BB617B681B68DB6823F416
:1055A000804323F002037A681268B9690B43D36021
:1055B0007B681B69002B17D07B681B681A697B68A6
:1055C0001B6842F480321A617B681B68D3F8C030D4
:1055D00023F47F5323F03F037A6811697A681268D5
:1055E0000B43C2F8C03013E07B681B681A697B6804
:1055F0001B6822F480321A617B681B68D3F8C030C4
:105600007A68126823F47F5323F03F03C2F8C03056
:105610007B6893F84030012B2AD17B681B681B699B
:1056200023F4FF6323F004037A68516C7A68926C68
:1056300011437A68D26C11437A68126D0A431A4397
:105640007B681B6842F001021A6119E08C0000209F
:10565000632D3E050001005000040050000500507D
:105660000006005000030050000700500740F0FF04
:105670007B681B681A697B681B6822F001021A614B
:105680007B685B69012B0CD17B681B681B6B23F06B
:105690000F017B681B6A5A1E7B681B680A431A63EA
:1056A00007E07B681B681A6B7B681B6822F00F029F
:1056B0001A637B68DB6D23F0030343F001027B6810
:1056C000DA6507E07B68DB6D43F010027B68DA6522
:1056D0000123FB77FB7F18462437BD4690BD00BFF2
:1056E00080B586B000AFF860B9607A60FB681B686F
:1056F000B3F1A04F04D0FB681B685A4A934201D112
:10570000594B00E0594B1846FFF74AFD3861FB68DA
:105710001B681846FFF702FE0346002B40F09B80F3
:10572000FB6893F85830012B01D1022396E0FB6807
:10573000012283F85820FB681B684D4A934208D029
:105740003B69002B05D03B69052B02D03B69092B37
:105750007AD1F86800F0ECFC0346FB75FB7D002B6A
:105760006DD1FB68DB6D23F4706323F0010343F418
:105770008072FB68DA65FB681B683A4A934209D07D
:10578000FB681B683B4A934202D0FB681B6803E03E
:10579000394B01E04FF0A043FA681268934202D0FF
:1057A0003B69002B05D1FB68DB6D23F48012FB689D
:1057B000DA65FB68DB6D03F48053002B06D0FB68D1
:1057C0001B6E23F00602FB681A6602E0FB680022EB
:1057D0001A66FB685B6D294ADA62FB685B6D284AD2
:1057E0001A63FB685B6D274A5A63FB681B681C22BF
:1057F0001A60FB68002283F85820FB681B685A680F
:10580000FB681B6842F010025A60FB681B68DA688C
:10581000FB681B6842F00102DA60FB68586DFB68A8
:105820001B6840331946BA687B6801F097FD034650
:10583000FB75FB681B681846FFF75CFD0DE0FB6815
:10584000002283F8582008E00123FB75FB68002242
:1058500083F8582001E00223FB75FB7D18461837BA
:10586000BD4680BD000100500003005000070050FD
:105870000006005000050050000400501B630008A3
:10588000F36300080F64000880B483B000AF786051
:1058900000BF0C37BD465DF8047B704780B483B011
:1058A00000AF786000BF0C37BD465DF8047B7047E1
:1058B00080B5B6B000AF78603960002387F8D73084
:1058C0000023FB607B6893F85830012B02D1022340
:1058D00000F013BC7B68012283F858207B681B68AA
:1058E0001846FFF71BFD0346002B40F0F3837B684F
:1058F00018683B6859683B681B681A46FFF7D5FB78
:105900007B681B681846FFF709FDC7F8D0007B6865
:105910001B681846FFF715FDC7F8CC00D7F8D03044
:10592000002B40F0D981D7F8CC30002B40F0D48147
:105930003B689B68B3F1004F0FD17B6818683B68E8
:105940001B6800221946FFF7DCFB7B681B684FF0E1
:1059500000411846FFF783FB0EE07B6818683B6840
:1059600019683B689B681A46FFF7CBFB7B681B688E
:1059700000211846FFF773FB3B685A697B681B6878
:10598000DB68DB0803F003035B0002FA03F3C7F8EC
:10599000C8303B681B69042B22D07B6818683B68C1
:1059A00019693B681A68D7F8C830FFF7CDFA7B68E9
:1059B00018683B6819693B689B691A46FFF719FB31
:1059C0007B6818683B6819693B681B7F012B02D113
:1059D0004FF0007300E000231A46FFF725FB7BE140
:1059E0007B681B6800211846FFF7D2FA0346C3F311
:1059F0001203002B0AD17B681B6800211846FFF7B1
:105A0000C7FA03469B0E03F01F021EE07B681B686B
:105A100000211846FFF7BCFA0346C7F8BC30D7F898
:105A2000BC3093FAA3F3C7F8C030D7F8C030C7F83A
:105A3000B830D7F8B830002B01D1202304E0D7F8D4
:105A4000B830B3FA83F3DBB21A463B681B68C3F382
:105A50001203002B05D13B681B689B0E03F01F034C
:105A600018E03B681B68C7F8B030D7F8B03093FA3D
:105A7000A3F3C7F8AC30D7F8AC30C7F8B430D7F8D8
:105A8000B430002B01D1202304E0D7F8B430B3FAAE
:105A900083F3DBB29A4206D17B681B6800220021A7
:105AA0001846FFF78BFA7B681B6801211846FFF741
:105AB0006FFA0346C3F31203002B0AD17B681B68FD
:105AC00001211846FFF764FA03469B0E03F01F02FC
:105AD0001EE07B681B6801211846FFF759FA034650
