:020000040800F2
:1000000000000220E1470008194500081F450008CC
:10001000254500082B450008314500080000000078
:10002000000000000000000000000000374500084C
:1000300045450008000000005345000861450008E0
:1000400031480008314800083148000831480008AC
:10005000314800083148000831480008314800089C
:100060003148000831480008314800086D45000853
:100070008145000895450008A9450008BD450008D0
:10008000314800083148000831480008314800086C
:10009000D1450008314800083148000831480008BF
:1000A000E54500083148000831480008314800089B
:1000B000314800083148000831480008314800083C
:1000C000314800083148000831480008314800082C
:1000D000314800083148000831480008314800081C
:1000E000314800083148000831480008014600083E
:1000F00031480008314800083148000831480008FC
:1001000031480008314800083148000831480008EB
:1001100031480008314800081546000831480008F9
:1001200031480008314800083148000831480008CB
:1001300031480008314800083148000831480008BB
:1001400031480008314800083148000831480008AB
:10015000314800083148000831480008314800089B
:10016000314800083148000831480008314800088B
:10017000314800083148000831480008314800087B
:10018000314800083148000831480008314800086B
:1001900031480008000000003148000831480008DC
:1001A000314800083148000831480008314800084B
:1001B000314800083148000831480008314800083B
:1001C000314800083148000831480008314800082B
:0801D000314800083148000825
:1001E00010B5054C237833B9044B13B10448AFF371
:1001F00000800123237010BDD00300200000000008
:10020000806F010808B5034B1BB103490348AFF3E6
:10021000008008BD00000000D4030020806F0108AA
:1002200001F0FF01102A2BDB10F0070F08D010F8A7
:10023000013B013A8B422DD010F0070F42B3F6D1AB
:10024000F0B441EA012141EA014122F007047FF0C4
:1002500000070023F0E80256083C85EA010586EA1B
:10026000010685FA47F5A3FA87F586FA47F6A5FA57
:1002700087F68EB9EED1F0BC01F0FF0102F0070263
:1002800032B110F8013B013A83EA010313B1F8D10E
:100290000020704701387047002D06BF35460338EF
:1002A000073815F0010F07D1013015F4807F02BF28
:1002B000013015F4C03F0130F0BC0138704700BF79
:1002C000034613F8012B002AFBD1181A0138704796
:1002D00081F0004102E000BF83F0004330B54FEAF7
:1002E00041044FEA430594EA050F08BF90EA020F64
:1002F0001FBF54EA000C55EA020C7FEA645C7FEAF7
:10030000655C00F0E2804FEA5454D4EB5555B8BF19
:100310006D420CDD2C4480EA020281EA030382EA8A
:10032000000083EA010180EA020281EA0303362D1C
:1003300088BF30BD11F0004F4FEA01314FF4801CEF
:100340004CEA113102D0404261EB410113F0004F01
:100350004FEA03334CEA133302D0524263EB4303B8
:1003600094EA050F00F0A780A4F10104D5F1200E56
:100370000DDB02FA0EFC22FA05F2801841F10001B1
:1003800003FA0EF2801843FA05F359410EE0A5F185
:1003900020050EF1200E012A03FA0EFC28BF4CF0B6
:1003A000020C43FA05F3C01851EBE37101F000456C
:1003B00007D54FF0000EDCF1000C7EEB00006EEB79
:1003C0000101B1F5801F1BD3B1F5001F0CD3490803
:1003D0005FEA30004FEA3C0C04F101044FEA44525A
:1003E00012F5800F80F09A80BCF1004F08BF5FEAE1
:1003F000500C50F1000041EB045141EA050130BDC1
:100400005FEA4C0C404141EB0101013C28BFB1F5D2
:10041000801FE9D291F0000F04BF01460020B1FA1D
:1004200081F308BF2033A3F10B03B3F120020CDAF0
:100430000C3208DD02F1140CC2F10C0201FA0CF0CE
:1004400021FA02F10CE002F11402D8BFC2F1200C33
:1004500001FA02F120FA0CFCDCBF41EA0C019040E9
:10046000E41AA2BF01EB0451294330BD6FEA040432
:100470001F3C1CDA0C340EDC04F11404C4F120021D
:1004800020FA04F001FA02F340EA030021FA04F32F
:1004900045EA030130BDC4F10C04C4F1200220FA86
:1004A00002F001FA04F340EA0300294630BD21FAC4
:1004B00004F0294630BD94F0000F83F4801306BF8A
:1004C00081F480110134013D4EE77FEA645C18BF7E
:1004D0007FEA655C29D094EA050F08BF90EA020F15
:1004E00005D054EA000C04BF1946104630BD91EA0D
:1004F000030F1EBF0021002030BD5FEA545C05D110
:100500004000494128BF41F0004130BD14F580044E
:100510003CBF01F5801130BD01F0004545F0FE41C2
:1005200041F470014FF0000030BD7FEA645C1ABFF7
:10053000194610467FEA655C1CBF0B46024650EA2E
:10054000013406BF52EA033591EA030F41F400215A
:1005500030BD00BF90F0000F04BF0021704730B5E0
:100560004FF4806404F132044FF000054FF00001B5
:1005700050E700BF90F0000F04BF0021704730B576
:100580004FF4806404F1320410F0004548BF40424B
:100590004FF000013EE700BF42004FEAE2014FEAA0
:1005A00031014FEA02701FBF12F07F4393F07F4F7B
:1005B00081F06051704732F07F4208BF704793F07E
:1005C0007F4F04BF41F40021704730B54FF4607491
:1005D00001F0004521F000411CE700BF50EA010294
:1005E00008BF704730B54FF000050AE050EA01023D
:1005F00008BF704730B511F0004502D5404261EBAD
:1006000041014FF4806404F132045FEA915C3FF4ED
:10061000D8AE4FF003025FEADC0C18BF03325FEA8A
:10062000DC0C18BF033202EBDC02C2F1200300FA3B
:1006300003FC20FA02F001FA03FE40EA0E0021FA60
:1006400002F11444BDE600BF70B54FF0FF0C4CF44E
:10065000E06C1CEA11541DBF1CEA135594EA0C0F00
:1006600095EA0C0F00F0DEF82C4481EA030621EA3B
:100670004C5123EA4C5350EA013518BF52EA033576
:1006800041F4801143F4801338D0A0FB02CE4FF028
:100690000005E1FB02E506F00042E0FB03E54FF058
:1006A0000006E1FB03569CF0000F18BF4EF0010E50
:1006B000A4F1FF04B6F5007F64F5407404D25FEA4C
:1006C0004E0E6D4146EB060642EAC62141EA5551FF
:1006D0004FEAC52040EA5E504FEACE2EB4F1FD0C41
:1006E00088BFBCF5E06F1ED8BEF1004F08BF5FEABF
:1006F000500E50F1000041EB045170BD06F0004671
:1007000046EA010140EA020081EA0301B4EB5C041D
:10071000C2BFD4EB0C0541EA045170BD41F4801115
:100720004FF0000E013C00F3AB8014F1360FDEBF3A
:10073000002001F0004170BDC4F10004203C35DA16
:100740000C341BDC04F11404C4F1200500FA05F399
:1007500020FA04F001FA05F240EA020001F000423A
:1007600021F0004110EBD37021FA04F642EB0601B0
:100770005EEA430E08BF20EAD37070BDC4F10C04DA
:10078000C4F1200500FA04F320FA05F001FA04F29E
:1007900040EA020001F0004110EBD37041F100018A
:1007A0005EEA430E08BF20EAD37070BDC4F1200595
:1007B00000FA05F24EEA020E20FA04F301FA05F2FD
:1007C00043EA020321FA04F001F0004121FA04F2A5
:1007D00020EA020000EBD3705EEA430E08BF20EA75
:1007E000D37070BD94F0000F0FD101F000464000AF
:1007F00041EB010111F4801F08BF013CF7D041EA31
:10080000060195F0000F18BF704703F00046520034
:1008100043EB030313F4801F08BF013DF7D043EA05
:100820000603704794EA0C0F0CEA135518BF95EABB
:100830000C0F0CD050EA410618BF52EA4306D1D142
:1008400081EA030101F000414FF0000070BD50EA61
:10085000410606BF1046194652EA430619D094EAEB
:100860000C0F02D150EA013613D195EA0C0F05D1D5
:1008700052EA03361CBF104619460AD181EA030129
:1008800001F0004141F0FE4141F470014FF00000E1
:1008900070BD41F0FE4141F4780170BD70B54FF07C
:1008A000FF0C4CF4E06C1CEA11541DBF1CEA1355FC
:1008B00094EA0C0F95EA0C0F00F0A7F8A4EB0504DE
:1008C00081EA030E52EA03354FEA013100F08880D5
:1008D0004FEA03334FF0805545EA131343EA12639E
:1008E0004FEA022245EA111545EA10654FEA002653
:1008F0000EF000419D4208BF964244F1FD0404F50C
:10090000407402D25B084FEA3202B61A65EB030567
:100910005B084FEA32024FF480104FF4002CB6EB24
:10092000020E75EB030E22BFB61A754640EA0C00A4
:100930005B084FEA3202B6EB020E75EB030E22BFE4
:10094000B61A754640EA5C005B084FEA3202B6EB25
:10095000020E75EB030E22BFB61A754640EA9C00E4
:100960005B084FEA3202B6EB020E75EB030E22BFB4
:10097000B61A754640EADC0055EA060E18D04FEA72
:10098000051545EA16754FEA06164FEAC30343EA12
:1009900052734FEAC2025FEA1C1CC0D111F4801FDF
:1009A0000BD141EA00014FF000004FF0004CB6E7D8
:1009B00011F4801F04BF01430020B4F1FD0C88BF77
:1009C000BCF5E06F3FF6AFAEB5EB030C04BFB6EB82
:1009D000020C5FEA500C50F1000041EB045170BD75
:1009E0000EF0004E4EEA113114EB5C04C2BFD4EBA2
:1009F0000C0541EA045170BD41F480114FF0000E26
:100A0000013C90E645EA060E8DE60CEA135594EAA1
:100A10000C0F08BF95EA0C0F3FF43BAF94EA0C0FA4
:100A20000AD150EA01347FF434AF95EA0C0F7FF419
:100A300025AF104619462CE795EA0C0F06D152EA6D
:100A400003353FF4FDAE1046194622E750EA410651
:100A500018BF52EA43067FF4C5AE50EA41047FF462
:100A60000DAF52EA43057FF4EBAE12E74FF0FF3CC7
:100A700006E000BF4FF0010C02E000BF4FF0010C98
:100A80004DF804CD4FEA410C7FEA6C5C4FEA430C11
:100A900018BF7FEA6C5C1BD001B050EA410C0CBF60
:100AA00052EA430C91EA030F02BF90EA020F0020C2
:100AB000704710F1000F91EA030F58BF994208BF29
:100AC00090422CBFD8176FEAE37040F001007047E6
:100AD0004FEA410C7FEA6C5C02D150EA013C07D13D
:100AE0004FEA430C7FEA6C5CD6D152EA033CD3D088
:100AF0005DF8040B704700BF8446104662468C4682
:100B00001946634600E000BF01B5FFF7B7FF0028B4
:100B100048BF10F1000F01BD4DF808EDFFF7F4FFDD
:100B20000CBF012000205DF808FB00BF4DF808ED68
:100B3000FFF7EAFF34BF012000205DF808FB00BF8B
:100B40004DF808EDFFF7E0FF94BF012000205DF8AD
:100B500008FB00BF4DF808EDFFF7CEFF94BF012062
:100B600000205DF808FB00BF4DF808EDFFF7C4FF5B
:100B700034BF012000205DF808FB00BF4FEA410CA4
:100B80007FEA6C5C02D150EA013C0AD14FEA430C87
:100B90007FEA6C5C02D152EA033C02D14FF00000C4
:100BA00070474FF0010070474FEA410212F5001202
:100BB00015D211D56FF47873B3EB625212D94FEAA4
:100BC000C12343F0004343EA505311F0004F23FA8E
:100BD00002F018BF404270474FF00000704750EAE3
:100BE000013005D111F0004008BF6FF000407047A0
:100BF0004FF00000704700BF4A0011D212F50012FA
:100C000011D20DD56FF47873B3EB62520ED44FEA64
:100C1000C12343F0004343EA505323FA02F07047E4
:100C20004FF00000704750EA013002D14FF0FF3022
:100C300070474FF0000070474FEA4102B2F1E043C5
:100C400024BFB3F5001CDCF1FE5C0DD901F0004CB3
:100C50004FEAC0024CEA5070B2F1004F40EB830003
:100C600008BF20F00100704711F0804F21D113F12F
:100C70003872BCBF01F00040704741F480114FEA68
:100C80005252C2F11802C2F1200C10FA0CF320FAF1
:100C900002F018BF40F001004FEAC1234FEAD3230E
:100CA00003FA0CFC40EA0C0023FA02F34FEA430378
:100CB000CCE77FEA625307D150EA01331EBF4FF001
:100CC000FE4040F44000704701F0004040F0FE401C
:100CD00040F40000704700BF53B94AB9002908BF6B
:100CE00000281CBF4FF0FF314FF0FF3000F0A6B9D5
:100CF000ADF1080C6DE904CE00F03CF8DDF804E03D
:100D0000DDE9022304B0704738B500220023044611
:100D10000D46FFF70BFF28B920462946BDE83840AD
:100D200000F00AB8204605F1004100F005F8404205
:100D300061EB410138BD00BFD0B50C4B0022064627
:100D40000F46FFF781FCFFF757FF0446FFF702FC51
:100D5000074B0022FFF778FC02460B463046394627
:100D6000FFF7BAFAFFF748FF2146D0BD0000F03D7B
:100D70000000F0412DE9F047089E0D4604460F465D
:100D8000002B4AD18A42944665D9B2FA82F343B124
:100D900002FA03FCC3F120029F4020FA02F217433B
:100DA0009C404FEA1C4E1FFA8CF5B7FBFEF1220C5B
:100DB0000EFB117742EA074201FB05F090420AD987
:100DC0001CEB020201F1FF3780F01C81904240F2DF
:100DD000198102396244121AA4B2B2FBFEF00EFB72
:100DE000102244EA024400FB05F5A5420AD91CEB97
:100DF000040400F1FF3280F00781A54240F2048133
:100E00006444023840EA0140641B00211EB1DC400A
:100E10000023C6E90043BDE8F0878B4208D9002EC5
:100E200000F0ED800021C6E900050846BDE8F08726
:100E3000B3FA83F1002949D1AB4202D3824200F2D6
:100E4000F880841A65EB030201201746002EE2D0D9
:100E5000C6E90047DFE702B9FFDEB2FA82F3002BF2
:100E600040F090808A1A4FEA1C471FFA8CFE01213D
:100E7000B2FBF7F507FB1520220C42EA00420EFBFD
:100E800005F0904208D91CEB020205F1FF3802D2AE
:100E9000904200F2CB804546121AA4B2B2FBF7F0A2
:100EA00007FB102244EA02440EFB00FEA64508D9C7
:100EB0001CEB040400F1FF3202D2A64500F2BB8015
:100EC0001046A4EB0E0440EA05409FE7C1F120075D
:100ED0008B4022FA07FC4CEA030C05FA01F420FAD5
:100EE00007F3FD404FEA1C492343B5FBF9F81FFA0D
:100EF0008CFE09FB18551C0C44EA054408FB0EF552
:100F0000A54202FA01F200FA01F00BD91CEB04042D
:100F100008F1FF3A80F08880A54240F28580A8F170
:100F200002086444641B9DB2B4FBF9F309FB13444B
:100F300045EA044403FB0EFEA64508D91CEB040455
:100F400003F1FF356CD2A6456AD9023B644443EAFB
:100F50000843A3FB0295A4EB0E04AC42C846AE4680
:100F600056D353D056B1B0EB080264EB0E0404FA2A
:100F700007F7CA40CC401743C6E900741846002161
:100F8000BDE8F087C3F1200102FA03FC20FA01F268
:100F900025FA01F19D402A434FEA1C471FFA8CFEB7
:100FA000B1FBF7F007FB1015110C41EA054100FBFE
:100FB0000EF58D4204FA03F408D91CEB010100F18F
:100FC000FF382FD28D422DD902386144491B92B28D
:100FD000B1FBF7F507FB151142EA014205FB0EF1E3
:100FE000914208D91CEB020205F1FF3816D291425A
:100FF00014D9023D6244521A45EA004138E73146AD
:10100000304608E73946E6E61046FBE64845A9D2F1
:10101000B9EB020865EB0C0E013BA3E74546EAE796
:101020002B4694E74046D1E7D0467BE7023D624439
:1010300032E708460AE76444023842E7704700BFD7
:10104000B0B584B002AF03F0F4FB00F0ABFD01F0EB
:10105000DDFB01F091FB00F06BFE00F035FF00F0CE
:1010600099FF01F01DF801F067F801F09FF801F019
:1010700025FA01F035FB00F0E3FD01F031F90FF046
:10108000F9FA01F0B5FA01F005FB01F0E1F901F020
:101090009FF900F0F1FFB04B09221A60AE4B6022BD
:1010A0009A61AD4B00225A60AB4B00221A61AA4BE9
:1010B00000225A61A84B00229A60A74B0022DA60F6
:1010C000A549A64805F0E8F80346002B01D002F038
:1010D0009FFD01F041FE03461A46A14B1A70A14B39
:1010E0001B78DBB2002B04D002F090F99D4B00225C
:1010F0001A7004219C4806F0B9F903461A469B4B26
:101100001A709A4B1B78002B0ED0994B1B78002B32
:101110000AD0934B1B78002B06D1964B00221A70F5
:10112000934B00221A7019E0904B1B78002B0ED0C5
:10113000914B1B78002B0AD0894B1B78002B06D1D2
:101140008C4B03221A708C4B00221A7006E08B4BDA
:101150001B78002B02D0874B02221A70834B1B781E
:10116000002B03D07E4B1B78002B02D0814B012239
:101170001A70834B1B787F4A12781146184601F08B
:1011800091FC03461A467E4B1A707D4B1B78042B4C
:1011900000F2BF8401A252F823F000BFB111000891
:1011A00071120008D5130008E91900085D1A00083B
:1011B00001220421734806F071F9002220216A48B7
:1011C00006F06CF9012220216F4806F067F94FF410
:1011D0007A7003F09FFB002220216B4806F05EF935
:1011E00000216A4809F0B8F80421694809F0B4F808
:1011F0000021684805F08AFA1021664805F086FA51
:101200000021654805F082FA0021644809F0A4F83D
:10121000634808F0A3FF7F21624804F0A1FE7F210C
:10122000614804F09DFE7F21604804F099FE05228C
:101230005F495C4803F090FF02225E495A4803F080
:101240008BFF0A225C49594803F086FF142001F005
:1012500083FC574B1B889AB2584B1A80544B5B88BF
:101260009AB2574B1A80464B01221A7000F058BCB4
:1012700001F0ACFD03461A46524B1A703C4B1B78EA
:10128000002B00F04984394B1B78002B00F044847C
:10129000334B1B78002B40F03F844A4B1B78002BCC
:1012A00000F03A84364B02221A70414B9B889BB265
:1012B0001846FFF75FF924A3D3E90023FFF7C4F929
:1012C00002460B46104619464FF000023E4BFFF710
:1012D00003F802460B46104619461DA3D3E9002326
:1012E000FFF7B2F902460B4610461946FFF75CFCC1
:1012F00003461A46354B1A602E4B5B889BB2184644
:10130000FFF738F910A3D3E90023FFF79DF9024650
:101310000B46104619464FF000022B4BFEF7DCFF40
:1013200002460B461046194609A3D3E90023FFF7EE
:101330008BF902460B4610461946FFF735FC03466B
:101340001A46234B1A60E7E30F0BB5A679C7E93FAE
:1013500066666666665C8140A40B0020BC060020C1
:10136000980B0020840B002000080048A00B0020F0
:10137000940B002040000020950B0020960B0020CD
:10138000970B00200014004800100048CC070020F4
:10139000FC080020E4060020F806002018080020C1
:1013A0006408002058040020C404002030050020F8
:1013B000900A00209C0A0020AC0A0020740A002039
:1013C000760A0020990B002000006940840A002062
:1013D000040000209E4B1B68002B0FD1002204212B
:1013E0009C4806F05BF89C4808F0B8FE00219B483A
:1013F00008F0B2FF04219A4808F0AEFF994B1B7821
:10140000002B00F08C83984B1B6807EE903AF8EEA7
:10141000677A964B1B6807EE103AB8EE477A944B02
:101420001B6806EE903AF8EE666A924B1B6806EE71
:10143000103AB8EE466AF0EE461AB0EE661AF0EED2
:10144000470AB0EE670A01F0E3FEF0EE407AFDEEE7
:10145000E77A17EE902A854B1A60874B1B6807EED8
:10146000903AF8EE677A854B1B6807EE103AB8EEB3
:10147000477A834B1B6806EE903AF8EE666A814B1A
:101480001B6806EE103AB8EE466AF0EE461AB0EE69
:10149000661AF0EE470AB0EE670A01F0B9FEF0EE08
:1014A000407AFDEEE77A17EE902A744B1A60734B80
:1014B0001A68754B1B68D31A07EE903AF8EE676A04
:1014C000714B1B6807EE903AB8EE677AC6EE877AE2
:1014D000C7ED017A7868FFF75FF857A3D3E90023D7
:1014E000FFF742FB0346002B04D1684B1B78002B0F
:1014F00040F02282614B1B6807EE903AF8EE676A73
:101500005A4B1B6807EE903AB8EE677AC6EE877AB8
:101510005F4BC3ED007A5E4BD3ED007AB0EE007AFC
:10152000F4EEC77AF1EE10FA40F1C480584BD3EDD7
:10153000007AB7EE007A77EE677AB0EE670A02F0CB
:101540001FFA10EE103A1846FFF726F83CA3D3E92D
:101550000023FFF779F802460B4614461D464D4B13
:101560001B681846FFF718F802460B462046294626
:10157000FFF76AF802460B4610461946FFF75CFB78
:101580000346454A1360424BD3ED007AB0EE007A31
:1015900037EE677A3E4BD3ED007AC7EE276A2021FB
:1015A0006420B0EE660A02F0EDF803463B4A136091
:1015B0006423009301233A4A38493A4804F0A8FECC
:1015C000374B1868202301220A2102F061F9F0EE5E
:1015D000407A354BC3ED007A284B1B6807EE903AF2
:1015E000B8EE677A314BD3ED007A27EE277A2E4B8F
:1015F000D3ED007A67EE277A17EE900AFEF7CCFF5C
:1016000011A3D3E90023FFF71FF802460B4610464B
:101610001946FFF7C9FA03461A46254B1A60244BB0
:101620001B68B3F57A6F40F28E80214B4FF47A62DB
:101630001A6088E0AFF300807B14AE47E17A943FF4
:101640003A950BDB2F94A53E3956A30304067C3F45
:101650009C0B00200014004848090020CC07002003
:10166000FC080020A10B0020840A00204C00002070
:1016700054000020580000200400002050000020EA
:101680005C0000206000002000000020A00A002074
:101690003000002010000020180000206C00002006
:1016A00064000020BC0600206800002048000020E4
:1016B000800A0020AA4BD3ED007AB0EE007AF4EE57
:1016C000C77AF1EE10FA3EDBA54BD3ED007AB7EE08
:1016D000007A77EEC77AF7EE006A86EEA77AB0EE68
:1016E000470A02F04DF910EE103A1846FEF754FF83
:1016F00002460B4694A1D1E90001FEF7EDFD02463A
:101700000B461046194692A3D3E90023FEF79CFF2F
:1017100002460B4614461D46924B1B681846FEF7C0
:101720003BFF02460B4620462946FEF78DFF024648
:101730000B4610461946FFF77FFA03468A4A1360A4
:101740008A4B00221A60884B1B681846FEF724FF5C
:1017500081A3D3E90023FFF7E9F90346002B3ED02C
:10176000814B93ED007AF7EE006AC6EE877AFDEEC4
:10177000E77A17EE902A7E4B1A607D4B1B687D4AF4
:10178000934202DD7A4B7B4A1A607B4B93ED007AE1
:10179000774B1B6807EE903AF8EEE77A77EE677AB8
:1017A000FDEEE77A17EE903A002BB8BF5B4244F6A5
:1017B0001F62934213DD714B1B78002B06D16C4BDB
:1017C0001B681A4600216E4801F056FA684B1B68E8
:1017D00007EE903AF8EEE77A674BC3ED007A694B73
:1017E0001B68002B68DD684B1B6807EE903AF8EE2B
:1017F000677A9FED667A27EE877A624B1B6807EE61
:10180000903AF8EEE76AB7EE006AC6EE267A27EE5F
:10181000277A5F4BD3ED007A67EE277A5D4BC3EDF5
:10182000007A5C4B93ED007AF7EE006AC6EE877A99
:10183000FDEEE77A17EE902A574B1A60564B1B685D
:101840004C4A934202DD544B4A4A1A60534B93ED83
:10185000007A514B1B6807EE903AF8EEE77A77EE84
:10186000677AFDEEE77A17EE903A002BB8BF5B423D
:101870004B4A934220DD4B4B9B681A464A4B1A60F9
:10188000454B1B681A460421484801F0F5F9454BC1
:101890009B681A46464B1A60434B1A68444B1B68B8
:1018A000D31A444A13603C4B1B6807EE903AF8EE9B
:1018B000E77A3A4BC3ED007A304B1B78002B0DD101
:1018C0003D4B1B683D4A126811469FED3D0A3D4A5B
:1018D000184601F0CFFB0346374A1360364B1B68AE
:1018E000002B1CDD284B1B681C46334B1968364BFC
:1018F0001B68364A12683648D0ED007A354890EDBC
:10190000007A019200939FED2E1AF0EE470AB0EE96
:10191000670A0B46224630491A4801F0FDFB2F4B5F
:101920001B68002B0CD1012220212D4805F0B6FDAB
:101930002A4B01221A6003E02A4B00221A70EEE0C3
:10194000EDE000BFAFF30080182D4454FB210940A7
:101950003A950BDB2F94A53EFCA9F1D24D62503F86
:10196000300000201000002018000020800A002015
:1019700020000020002D310128000020A00A0020B6
:10198000CC070020780A002050000020CF2E97318D
:10199000140000201C000020240000202C00002047
:1019A0009F86010010E000E0C00B0020FC08002032
:1019B000C40B0020C80B00200C00002000000020F9
:1019C00017B75138007102003C000020880B00203E
:1019D00034000020380000208C0B00209C0B0020DD
:1019E00000080048A10B0020002220214D4805F0EE
:1019F00055FD4D4808F02AFC002280214B4805F097
:101A00004DFD00224FF48071494805F047FD00224A
:101A10000121484805F042FD00224021414805F0DF
:101A20003DFD00220221424805F038FD00224FF41E
:101A30000071414805F032FD012220213C4805F0AB
:101A40002DFD3E4808F01AFB3D4B00221A603D4B2D
:101A500000221A703C4B04221A7061E000222021FF
:101A6000304805F01BFD01220421334805F016FD26
:101A70002D4808F0EBFB354B00221A70304B00224A
:101A80001A60334B01221A60324B01221A60324B2A
:101A900001221A80314B01221A60314B01221A6057
:101AA000304B4FF07E521A602F4B4FF07E521A602F
:101AB0002E4B4FF07E521A602D4B01221A602D4B97
:101AC00001221A602C4B01221A602C4B01221A6051
:101AD0002B4B01221A602B4B01221A602A4B012248
:101AE0001A602A4B01221A60294B01221A60294BE5
:101AF00001221A60284B01221A600421274808F0AD
:101B00003DFD0021264808F039FD0F4B01221A70D7
:101B100006E000BFFFF7DDBA00BFFFF7DABA00BF8B
:101B2000FFF7D7BA00080048480900200004004821
:101B300000100048000C004800140048B0080020C5
:101B40009C0B0020940B0020970B0020A00A002083
:101B5000780A00207C0A0020A80A00200800002043
:101B60000C000020180000201C0000203000002085
:101B70008C0B0020900B00204C000020840A0020D9
:101B800050000020040000205400002058000020D5
:101B90005C00002060000020800A0020FC0800207B
:101BA000CC07002080B594B000AF07F118033822AD
:101BB0000021184610F047FA3B1D00221A605A60B7
:101BC0009A60DA601A614FF4007007F0CFF92223AF
:101BD000BB614FF480737B624023BB6201233B6394
:101BE00002237B630223BB630423FB634B233B641D
:101BF00002237B640223BB640223FB6407F1180306
:101C0000184607F067FA0346002B01D002F000F8EF
:101C10000F237B600323BB600023FB6000233B6139
:101C200000237B613B1D0421184607F065FD034638
:101C3000002B01D001F0ECFF00BF5037BD4680BD46
:101C400080B58CB000AF07F1240300221A605A60FF
:101C50009A603B1D20220021184610F0F4F9324B07
:101C60004FF0A0421A60304B4FF440325A602E4B76
:101C700000229A602C4B0022DA602B4B00221A6162
:101C8000294B00225A61284B04229A61264B0022DC
:101C90001A77254B00225A77234B01221A62224BD6
:101CA000002283F82420204B0022DA621E4B0022FF
:101CB0001A631D4B002283F838201B4B0022DA6385
:101CC000194B002283F84020174803F089F8034697
:101CD000002B01D001F09CFF00237B6207F124035D
:101CE0001946114804F09EF90346002B01D001F07B
:101CF0008FFF0E4B7B600623BB600723FB607F23B7
:101D00003B6104237B610023BB613B1D19460648F0
:101D100003F00AFB0346002B01D001F079FF00BF5E
:101D20003037BD4680BD00BFEC030020000084CBEF
:101D300080B58CB000AF07F1240300221A605A600E
:101D40009A603B1D20220021184610F07CF9574B69
:101D5000574A1A60554B4FF4A0125A60534B002259
:101D60009A60524B0022DA60504B00221A614F4BAE
:101D700001225A614D4B04229A614C4B00221A7782
:101D80004A4B01225A77494B05221A62474B0022DF
:101D900083F82420454B0022DA62444B00221A6368
:101DA000424B012283F83820404B4FF48052DA63D3
:101DB0003E4B002283F840203C4803F011F80346D4
:101DC000002B01D001F024FF00237B6207F12403E4
:101DD0001946364804F026F90346002B01D001F0DD
:101DE00017FF344B7B600623BB600023FB607F231F
:101DF0003B6100237B612623BB614FF08073FB6155
:101E0000002387F820303B1D1946284803F08CFA40
:101E10000346002B01D001F0FBFE274B7B600C2317
:101E2000BB6001237B612523BB613B1D19461F4815
:101E300003F07AFA0346002B01D001F0E9FE1F4BB4
:101E40007B601223BB6002237B610823BB613B1DC7
:101E50001946164803F068FA0346002B01D001F03A
:101E6000D7FE174B7B601823BB6004237B610023E4
:101E7000BB613B1D19460D4803F056FA0346002B83
:101E800001D001F0C5FE0F4B7B604FF48073BB6047
:101E90003B1D1946054803F047FA0346002B01D0C5
:101EA00001F0B6FE00BF3037BD4680BD58040020AB
:101EB0000004005002003004040060080800900C88
:101EC0001000C0102000F01480B588B000AF3B4671
:101ED00020220021184610F0B6F82B4B2B4A1A602E
:101EE000294B4FF4A0125A60274B00229A60264BD0
:101EF0000022DA60244B00221A61234B00225A612F
:101F0000214B04229A61204B00221A771E4B01229A
:101F10005A771D4B01221A621B4B002283F82420A2
:101F2000194B0022DA62184B00221A63164B012269
:101F300083F83820144B4FF48052DA63124B00229E
:101F400083F84020104802F04BFF0346002B01D0DD
:101F500001F05EFE0E4B3B6006237B600723BB60F7
:101F60007F23FB6004233B6100237B613B461946D2
:101F7000054803F0D9F90346002B01D001F048FED3
:101F800000BF2037BD4680BDC404002000050050BE
:101F90000200300480B588B000AF3B46202200210B
:101FA000184610F050F8314B314A1A602F4B4FF45D
:101FB000A0125A602D4B00229A602C4B0022DA604E
:101FC0002A4B00221A61294B00225A61274B042216
:101FD0009A61264B00221A77244B01225A77234B11
:101FE00001221A62214B002283F824201F4B002279
:101FF000DA621E4B00221A631C4B012283F8382040
:102000001A4B0022DA63194B012283F84020174B48
:102010001C225A64154B4FF480729A64134B0022B1
:10202000DA64124B01221A65104802F0D9FE034609
:10203000002B01D001F0ECFD0E4B3B6006237B60D2
:102040000023BB607F23FB6004233B6100237B6193
:102050003B461946054803F067F90346002B01D0BB
:1020600001F0D6FD00BF2037BD4680BD3005002001
:10207000000600500200300480B500AF064B074A4E
:102080001A60054804F0D6F80346002B01D001F091
:10209000BFFD00BF80BD00BFBC060020000C024099
:1020A00080B58CB000AF3B463022002118460FF0BF
:1020B000CAFF1E4B1E4A1A601C4804F004FB03466C
:1020C000002B01D001F0A4FD02233B6000233B71F3
:1020D00000237B710023BB600023FB6000233B6176
:1020E00000237B610123BB610023FB613B4600228F
:1020F00019460E4804F004FC0346002B01D001F001
:1021000087FD3B4610221946084804F0F9FB0346B8
:10211000002B01D001F07CFD044B064A9A60054B70
:10212000024A9A6200BF3037BD4680BDE4060020F7
:10213000000800500C07002080B58CB000AF3B4673
:102140003022002118460FF07EFF164B164A1A6007
:10215000144804F0B8FA0346002B01D001F058FDF2
:1021600002233B6000233B7100237B710023BB6093
:102170000023FB6000233B6100237B610123BB61E3
:102180000023FB613B4600221946064804F0B8FBD9
:102190000346002B01D001F03BFD00BF3037BD46A8
:1021A00080BD00BFF8060020000C005080B598B03C
:1021B00000AF07F1540300221A605A609A6007F1D9
:1021C000380300221A605A609A60DA601A615A6114
:1021D0009A613B1D3422002118460FF034FF3E4B1C
:1021E0003E4A1A603C4B00225A603B4B00229A60E8
:1021F000394BD222DA60384B00221A61364B00226A
:102200005A61354B00229A61334808F04EF8034674
:10221000002B01D001F0FCFC00237B650023BB6593
:102220000023FB6507F1540319462B4809F084FA93
:102230000346002B01D001F0EBFC6023BB630023BD
:10224000FB6300233B6400237B640023BB64002307
:10225000FB6400233B6507F13803002219461E4842
:1022600008F078FB0346002B01D001F0D1FC1A4B9B
:102270001B689A69184B1B6822F008029A610023B8
:102280007B600023BB600023FB6000233B610023D5
:102290007B614FF40053BB610023FB6100233B6271
:1022A00000237B624FF00073BB620023FB620023BC
:1022B0003B6300237B633B1D1946074809F0D2FAB4
:1022C0000346002B01D001F0A3FC034802F048F8BC
:1022D00000BF6037BD4680BDCC070020002C014008
:1022E00080B58EB000AF07F1280300221A605A6053
:1022F0009A60DA6007F11C0300221A605A609A6043
:102300003B4600221A605A609A60DA601A615A618C
:102310009A612D4B2D4A1A602B4B00225A602A4B92
:1023200000229A60284B40F2A722DA60264B002256
:102330001A61254B00229A61234807F047FE0346A5
:10234000002B01D001F064FC4FF48053BB6207F115
:10235000280319461C4808F011FC0346002B01D045
:1023600001F056FC184807F0A0FF0346002B01D0EF
:1023700001F04EFC0023FB6100237B6207F11C038C
:102380001946114809F0D8F90346002B01D001F095
:102390003FFC60233B6000237B600023BB60002385
:1023A0003B613B4600221946074808F0D3FA034632
:1023B000002B01D001F02CFC034801F0D1FF00BF3D
:1023C0003837BD4680BD00BF180800200008004017
:1023D00080B584B000AF3B1D00221A605A609A603D
:1023E000194B1A4A1A60184B42F61D525A60164B86
:1023F00000229A60144B4FF6A652DA60124B00226C
:102400009A61114807F0E2FD0346002B01D001F06C
:10241000FFFB00237B600023FB603B1D19460A483D
:1024200009F08AF90346002B01D001F0F1FB0022EC
:102430000021362004F013F9362004F02AF900BFF9
:102440001037BD4680BD00BF64080020001000406A
:1024500080B584B000AF3B1D00221A605A609A60BC
:10246000144B154A1A60134B43F697225A60114BCE
:1024700000229A600F4B0922DA600E4B00229A610B
:102480000C4807F0A3FD0346002B01D001F0C0FB70
:1024900000237B600023FB603B1D1946054809F0C3
:1024A0004BF90346002B01D001F0B2FB00BF1037FF
:1024B000BD4680BDB00800200014004080B598B033
:1024C00000AF07F1540300221A605A609A6007F1C6
:1024D000380300221A605A609A60DA601A615A6101
:1024E0009A613B1D3422002118460FF0ACFD3E4B93
:1024F0003E4A1A603C4B00225A603B4B00229A60D5
:10250000394BD222DA60384B00221A61364B002256
:102510005A61354B00229A61334807F0C6FE0346E4
:10252000002B01D001F074FB00237B650023BB6509
:102530000023FB6507F1540319462B4809F0FCF80A
:102540000346002B01D001F063FB6023BB63002333
:10255000FB6300233B6400237B640023BB640023F4
:10256000FB6400233B6507F13803042219461E482B
:1025700008F0F0F90346002B01D001F049FB1A4B9B
:102580001B689A69184B1B6822F400629A61002349
:102590007B600023BB600023FB6000233B610023C2
:1025A0007B614FF40053BB610023FB6100233B625E
:1025B00000237B624FF00073BB620023FB620023A9
:1025C0003B6300237B633B1D1946074809F04AF92A
:1025D0000346002B01D001F01BFB034801F0C0FEB5
:1025E00000BF6037BD4680BDFC08002000340140BC
:1025F00080B588B000AF07F1100300221A605A605E
:102600009A60DA603B1D00221A605A609A601F4B84
:102610001F4A1A601D4B40F2DB525A601B4B0022CE
:102620009A601A4B0422DA60184B00221A61174B89
:1026300000225A61154B00229A61144807F0C6FC2B
:102640000346002B01D001F0E3FA4FF480533B61C5
:1026500007F1100319460D4808F090FA0346002BC5
:1026600001D001F0D5FA00237B600023FB603B1D05
:102670001946064809F060F80346002B01D001F026
:10268000C7FA00BF2037BD4680BD00BF4809002003
:102690000040014080B500AF0F4B104A1A600E4B4E
:1026A00043F697225A600C4B00229A600A4B09228B
:1026B000DA60094B00221A61074B00225A61064B6F
:1026C00000229A61044807F081FC0346002B01D0E8
:1026D00001F09EFA00BF80BD940900200044014033
:1026E00080B500AF224B234A1A60214B4FF4E132F0
:1026F0005A601F4B00229A601D4B0022DA601C4B6F
:1027000000221A611A4B0C225A61194B00229A615D
:10271000174B0022DA61164B00221A62144B00227A
:102720005A62134B00229A62114809F075F9034668
:10273000002B01D001F06CFA00210D4809F010FFC8
:102740000346002B01D001F063FA0021084809F08C
:1027500045FF0346002B01D001F05AFA044809F066
:10276000C6FE0346002B01D001F052FA00BF80BD27
:10277000E0090020004C004080B582B000AF224B41
:102780009B6C214A43F0040393641F4B9B6C03F042
:1027900004037B607B681C4B9B6C1B4A43F001036A
:1027A0009364194B9B6C03F001033B603B68002270
:1027B00000210B2003F053FF0B2003F06AFF0022DF
:1027C00000210C2003F04BFF0C2003F062FF0022DD
:1027D00000210D2003F043FF0D2003F05AFF0022DB
:1027E00000210E2003F03BFF0E2003F052FF0022D9
:1027F00000210F2003F033FF0F2003F04AFF00BF3A
:102800000837BD4680BD00BF0010024080B58CB0C7
:1028100000AF07F11C0300221A605A609A60DA6068
:102820001A619A4BDB6C994A43F01003D364974BBF
:10283000DB6C03F01003BB61BB69944BDB6C934A08
:1028400043F00403D364914BDB6C03F004037B611E
:102850007B698E4BDB6C8D4A43F02003D3648B4B3A
:10286000DB6C03F020033B613B69884BDB6C874AE0
:1028700043F00103D364854BDB6C03F00103FB6081
:10288000FB68824BDB6C814A43F00203D3647F4BCD
:10289000DB6C03F00203BB60BB687C4BDB6C7B4AE8
:1028A00043F00803D364794BDB6C03F008037B60CF
:1028B0007B6800222021764804F0F0FD01224FF4CD
:1028C0000071744804F0EAFD00222821724804F0E7
:1028D000E5FD002204216F4804F0E0FD01224FF4E1
:1028E00081716B4804F0DAFD012240216A4804F04E
:1028F000D5FD01220121694804F0D0FD012280218B
:10290000674804F0CBFD40F61503FB6100233B62F2
:1029100000237B6207F11C0319465D4804F024FC88
:102920002023FB6101233B6200237B620023BB6207
:1029300007F11C031946564804F016FC4FF40073C7
:10294000FB6111233B6200237B620023BB6207F122
:102950001C0319464F4804F007FC4FF48063FB61E9
:1029600000233B6200237B6207F11C0319464948A0
:1029700004F0FAFB4FF40173FB6100233B62002378
:102980007B6207F11C031946434804F0EDFB282342
:10299000FB6101233B6200237B620023BB6207F1E2
:1029A0001C0319463C4804F0DFFB0423FB610123B0
:1029B0003B6200237B620023BB6207F11C031946C4
:1029C000344804F0D1FB0123FB6100233B62002368
:1029D0007B6207F11C031946314804F0C5FB4FF434
:1029E0008173FB6111233B6200237B620023BB6286
:1029F00007F11C031946264804F0B6FB4023FB618F
:102A000011233B6200237B620023BB6207F11C039E
:102A10001946214804F0A8FB4FF48063FB610023B2
:102A20003B6200237B6207F11C0319464FF0904084
:102A300004F09AFB0123FB6111233B6200237B62BC
:102A40000023BB6207F11C031946144804F08CFBF9
:102A50007023FB6100233B6200237B6207F11C03B0
:102A600019460E4804F080FB8023FB6111233B6272
:102A700000237B620023BB6207F11C031946084850
:102A800004F072FB00BF3037BD4680BD001002402D
:102A9000001000480014004800080048000C0048DE
:102AA0000004004880B483B000AF03460A46FB71BF
:102AB0001346BB71FB79042B39D801A252F823F0DD
:102AC000D52A0008E32A0008F12A00080D2B000887
:102AD0001B2B0008BB79002B2BD10123FB71012399
:102AE00031E0BB79002B26D10223FB7102232AE0BF
:102AF000BB79012B03D10323FB71032323E0BB79B3
:102B0000032B1AD10423FB7104231CE0BB79022B95
:102B100015D10123FB71012315E0BB79002B10D1E6
:102B20000C4B00221A600223FB7102230BE000BF52
:102B300008E000BF06E000BF04E000BF02E000BF05
:102B400000E000BFFB7918460C37BD465DF8047BFA
:102B5000704700BF9C0B002080B485B000AF786048
:102B60007B68642B01D964237B600B4BDB680133EA
:102B70007A6802FB03F3094AA2FB03235B09013BCA
:102B8000FB60054B1B68FA685A6300BF1437BD46EB
:102B90005DF8047B704700BF180800201F85EB51CB
:102BA00080B584B000AF78607B681B682C4A934284
:102BB0004ED12C4B1B78002B4AD00023FB60002306
:102BC000BB600BE0284ABB6832F813309BB21A4650
:102BD000FB681344FB60BB680133BB60BB68092B17
:102BE000F0DDFB68214AA2FB0323DB0840F6E44248
:102BF00002FB03F31B0B9AB21D4B1A801C4B1B8864
:102C0000A3F2AA531846FDF7B5FC13A3D3E900239A
:102C1000FDF71AFD02460B4610461946FDF7C4FFA4
:102C200003461AB2134B1A80124BB3F9003013F556
:102C30007A7F03DA0F4B4FF618421A800D4BB3F927
:102C40000030B3F57A7F03DD0A4B4FF47A721A80B5
:102C500000BF1037BD4680BDFA7E6ABC7493D83F72
:102C600000060050A10B0020AC0A0020CDCCCCCC3B
:102C7000C00A0020A80A002080B489B000AFF86024
:102C8000B9607A60334BBB61FB685B6801337B6181
:102C90007B697A6802FB03F3BA69B2FBF3F3013B89
:102CA000FB61FB69B3F5803F14D3FB691B0C7A69A8
:102CB00002FB03F301337B617B697A6802FB03F358
:102CC000BA69B2FBF3F3013BFB61FB681B687A69ED
:102CD000013A9A62FB681B68FA69DA62FB68FA6972
:102CE000DA60FB695B083B61BB68002B04D1FB68C1
:102CF0001B683A695A6323E0BB68042B04D1FB6864
:102D00001A683B6993631BE0BB68082B04D1FB681E
:102D10001A683B69D36313E0BB680C2B04D1FB68D2
:102D20001A683B6913640BE0BB68102B04D1FB6885
:102D30001A683B69936403E0FB681A683B69D364D3
:102D4000FB681B6801225A6100BF2437BD465DF84D
:102D5000047B704780D1F00880B500AF012118488E
:102D600004F084FB0346002B26D01021144804F005
:102D70007DFB0346002B1FD00421114804F076FB95
:102D80000346002B18D04FF400610D4804F06EFB91
:102D90000346002B10D040210A4804F067FB03468D
:102DA000002B09D04FF40071074804F05FFB034685
:102DB000002B01D0002300E00123184680BD00BF96
:102DC00000100048000C00480008004880B500AF23
:102DD0001021114804F04AFB0346002B19D00121B1
:102DE0000E4804F043FB0346002B12D04FF48061E1
:102DF0000B4804F03BFB0346002B0AD04FF48061E4
:102E00004FF0904004F032FB0346002B01D0012329
:102E100000E00023184680BD000C00480004004874
:102E20000014004800000000B0B582B000AF786028
:102E30007B681B687A4A934240F0C180794B1B78CB
:102E4000022B40F0B580784B9B889BB21846FDF76B
:102E500091FB6BA3D3E90023FDF7F6FB02460B467B
:102E6000104619464FF00002704BFDF735FA024646
:102E70000B461046194664A3D3E90023FDF7E4FB93
:102E800002460B4610461946FDF7B6FE0346684A51
:102E90001360684B5B889BB21846FDF76BFB58A329
:102EA000D3E90023FDF7D0FB02460B461046194636
:102EB00057A3D3E90023FDF70FFA02460B4610464D
:102EC000194651A3D3E90023FDF7BEFB02460B468A
:102ED00010461946FDF790FE0346574A1360574BBC
:102EE0001B881846FDF746FB04460D46544B1B68ED
:102EF0001846FDF73FFB48A3D3E90023FDF7A4FBE9
:102F000002460B4620462946FDF7E8F902460B46E5
:102F100010461946FDF770FE03460022002149487D
:102F200003F0B6FC484B1B881846FDF723FB04460C
:102F30000D46434B1B681846FDF71CFB36A3D3E92F
:102F40000023FDF781FB02460B4620462946FDF78C
:102F5000C5F902460B4610461946FDF74DFE0346DD
:102F600000221021374803F093FC344B1B8818468D
:102F7000FDF700FB04460D46344B1B681846FDF771
:102F8000F9FA4FF00002324BFDF75EFB02460B46AA
:102F900020462946FDF7A0F902460B461046194681
:102FA000FDF72AFE0346002200212A4803F070FCA8
:102FB0000821294804F08AFA284B01221A707B68FC
:102FC0001B68274A934201D100F05EF97B681B68B9
:102FD000244A934210D10221234804F077FA4FF497
:102FE0000071224804F072FA002220211E4804F0E9
:102FF00055FA1F4807F02AF900BF0837BD46B0BD93
:10300000D3BCE3141DC9E93F000000000020744058
:103010000000000000C066409A9999999999993FDB
:1030200000400140970B0020900A002000406840BB
:10303000840A00209C0A002004000020740A00205A
:10304000780A0020E4060020760A0020800A00208A
:103050000000D03FF806002000080048A10B002027
:103060000010004000140040001000480014004808
:10307000B008002080B485B000AFF860B9607A6015
:1030800087ED000ABA68FB68D31A0A2B15DDFB68C6
:1030900007EE903AB8EEE77A7B6807EE903AF8EEE2
:1030A000E76AD7ED007A66EEA77A77EE277AFDEE2B
:1030B000E77A17EE903AFB601AE0BA68FB68D31A19
:1030C00013F10A0F14DAFB6807EE903AB8EEE77ACC
:1030D0007B6807EE903AF8EEE76AD7ED007A66EE85
:1030E000A77A77EE677AFDEEE77A17EE903AFB6003
:1030F000BB68323BFA689A4204DBBB68FB60054B55
:1031000001221A70FB6818461437BD465DF8047B2F
:10311000704700BFA00A002080B489B000AFF861FA
:10312000B9617A613B6187ED030AC7ED020A87ED59
:10313000011A3A697B69D31A324A1360BB691B686A
:10314000304A1168304A12680A4407EE902AB8EEF5
:10315000E77A97ED036AD7ED027AC6EE276AD7EDD4
:10316000017A66EEA77AF6EE006A67EEA67A67EE57
:10317000277AFDEEE77A17EE902A1A44BB691A60A7
:10318000204B1B68204A1360BB691B68BA6A9A42CD
:1031900002DCBB69BA6A1A60BB691B68FA6A9A42A8
:1031A00002DBBB69FA6A1A60164B1B6807EE903A9D
:1031B000B8EEE77AD7ED037A27EE277ABB691B686A
:1031C00007EE903AF8EEE77A77EE277AFDEEE77AA7
:1031D00017EE902AFB691A60FB691B68BA6A9A426B
:1031E00002DCFB69BA6A1A60FB691B68FA6A9A42D8
:1031F00002DBFB69FA6A1A6000BF2437BD465DF83E
:10320000047B7047A40A0020900B002000000000FF
:10321000B0B584B000AF87ED030AC7ED020A87EDB1
:10322000011AC7ED001AB868FDF7B6F912A3D3E981
:103230000023FDF709FA02460B4614461D46F868BE
:10324000FDF7AAF90EA3D3E90023FDF7FDF9024625
:103250000B4620462946FDF741F802460B4610462C
:103260001946FDF7E9FC034607EE903AB0EE670A0F
:103270001037BD46B0BD00BFCDCCCCCCCCCCEC3FE4
:103280009A9999999999B93F80B582B000AF444B0A
:10329000DB889BB21A4640F6E44302FB03F3002BA3
:1032A00001DA03F6FF731B131A463E4B1A603C4BC0
:1032B0001B899BB21A4640F6E44302FB03F3002B42
:1032C00001DA03F6FF731B131A46374B1A601423F7
:1032D0003B60344B1B68A3F5C873344AA2FB03233D
:1032E0001B09304A1360304B1B68A3F5FA732F4A51
:1032F000A2FB0323DB082C4A13602B4B1A68294BD3
:103300001B68934238BF13463B603B68642202FB54
:1033100003F3A3F5FA63254AA2FB03239B097B6011
:103320007B68642B01D964237B607868FDF712F910
:1033300002460B469FED161B43EC102B12F0C8FE05
:1033400051EC100B14A3D3E90023FDF77DF90246DD
:103350000B4610461946FDF727FC0346144A82FB2C
:1033600003129214DB17D31A1433124A13603B680A
:10337000132B03D80F4B14221A6005E03B68642B13
:1033800002D90C4B63221A6000BF0837BD4680BDCE
:1033900000000000000008400000000000C0534092
:1033A000900A0020880A00208C0A0020CDCCCCCCCA
:1033B00083DE1B434400002080B584B000AF7860FA
:1033C0007868FCF77DFF0346FB81FB897F2B01D9E1
:1033D0007F23FB81FB891A4679680B480EF0C5FEF6
:1033E000FB89094A0021D154FB89194678680DF000
:1033F00015FA03467B737B7B012BF5D000BF00BF22
:103400001037BD4680BD00BF040B002080B500AF63
:10341000A74B1B78DBB2002B00F047810622A549A1
:10342000A5480EF018FE0346002B08D1A34AA44974
:10343000A1480EF097FDA348FFF7BEFF2DE106223D
:10344000A1499D480EF007FE0346002B08D19F4A74
:103450009F4999480EF086FD9E48FFF7ADFF1CE19D
:1034600008229D4994480EF0F6FD0346002B08D132
:103470009A4A9B4990480EF075FD9A48FFF79CFFC9
:103480000BE10C2298498C480EF0E5FD0346002B19
:1034900008D1964A964988480EF064FD9548FFF792
:1034A0008BFFFAE00C22944983480EF0D4FD0346CA
:1034B000002B08D1914A92497F480EF053FD914864
:1034C000FFF77AFFE9E00D228F497B480EF0C3FD3C
:1034D0000346002B08D18D4A8D4977480EF042FDF6
:1034E0008C48FFF769FFD8E00C228B4972480EF038
:1034F000B2FD0346002B08D1884A89496E480EF078
:1035000031FD8848FFF758FFC7E00C2286496A481A
:103510000EF0A1FD0346002B08D1844A8449664879
:103520000EF020FD8348FFF747FFB6E006228249F0
:1035300061480EF090FD0346002B0ED15F4B1B68D7
:103540001846FDF729F802460B467C497C480EF0E8
:10355000E9FC7B48FFF730FF9FE006227949564897
:103560000EF079FD0346002B0ED1584B1B68184610
:10357000FDF712F802460B46734971480EF0D2FC73
:103580006F48FFF719FF88E0082270494A480EF09B
:1035900062FD0346002B0AD1504B1B681A466C494A
:1035A00067480EF0BFFC6648FFF706FF75E00C2287
:1035B000684941480EF04FFD0346002B0AD14B4BA2
:1035C0001B881A4664495E480EF0ACFC5C48FFF765
:1035D000F3FE62E00C22614937480EF03CFD0346E1
:1035E000002B0AD1454B1B881A465D4954480EF002
:1035F00099FC5348FFF7E0FE4FE00D2259492E4851
:103600000EF029FD0346002B0BD1404BB3F90030DF
:103610001A4655494A480EF085FC4948FFF7CCFE4A
:103620003BE00C22514924480EF015FD0346002BC7
:103630000ED13A4B1B681846FCF7AEFF02460B460C
:103640004B493F480EF06EFC3D48FFF7B5FE24E0C5
:103650000C22484918480EF0FEFC0346002B0ED100
:10366000324B1B681846FCF797FF02460B4642494F
:1036700033480EF057FC3248FFF79EFE0DE00B2258
:103680003E490D480EF0E7FC0346002B02D100F046
:10369000C3F902E03A48FFF78FFE402200210648B6
:1036A0000EF0D1FC024B00221A7000BF80BD00BF9B
:1036B000840B0020986F0108C40A00203400002009
:1036C000A06F0108AC6F0108B86F01083800002036
:1036D000C06F0108CC6F0108D86F010800000020FE
:1036E000E46F0108F46F010804700108740A0020F7
:1036F000147001082470010844700108760A002043
:10370000547001086470010884700108A80A002040
:1037100094700108A8700108BC700108180000200E
:10372000CC700108DC700108F07001081C0000205A
:103730000071010810710108247101082C71010841
:10374000040B002038710108407101084C71010818
:1037500058710108647101087471010890710108C1
:10376000A0710108BC710108CC710108DC7101086D
:10377000EC710108FC7101080C7201081C7201084F
:103780002872010880B487B000AF87ED030AB860E3
:103790000B46FB71FB79202B35D1D7ED037AB7EEC1
:1037A000007AF4EEC77AF1EE10FA11D8BB6807EE92
:1037B000903AB8EEE77AD7ED037A67EE277A9FED75
:1037C000327A67EE877AFCEEE77A17EE903A7B6101
:1037D000D7ED037AB7EE007AF4EEC77AF1EE10FA7D
:1037E00011DDBB6807EE903AB8EEE77AD7ED036AD1
:1037F000C6EE877A9FED247A67EE877AFCEEE77A49
:1038000017EE903A7B61FB79102B35D1D7ED037A17
:10381000B7EE007AF4EEC77AF1EE10FA11D8BB6871
:1038200007EE903AB8EEE77AD7ED037A67EE277A9B
:103830009FED167A67EE877AFCEEE77A17EE903AFC
:103840007B61D7ED037AB7EE007AF4EEC77AF1EE3A
:1038500010FA11DDBB6807EE903AB8EEE77AD7EDC3
:10386000036AC6EE877A9FED097A67EE877AFCEEE7
:10387000E77A17EE903A7B617B6918461C37BD46A4
:103880005DF8047B704700BF0000004F00FEFF465C
:1038900080B487B000AFF860B96011461A460B4695
:1038A000FB711346BB71BB79202B2BD197F90730E5
:1038B000002B11D0FB6807EE903AF8EEE77A9FED07
:1038C0002E7AC7EE876ABB6807EE903AB8EEE77AC1
:1038D000C6EE877AC7ED057A97F90730002B11D12C
:1038E000FB6807EE903AF8EEE77ADFED236A87EEA1
:1038F000A67ABB6807EE903AF8EEE77A67EE277A89
:10390000C7ED057ABB79102B2BD197F90730002B27
:1039100011D0FB6807EE903AF8EEE77A9FED177A40
:10392000C7EE876ABB6807EE903AB8EEE77AC6EE54
:10393000877AC7ED057A97F90730002B11D1FB681C
:1039400007EE903AF8EEE77ADFED0C6A87EEA67A9A
:10395000BB6807EE903AF8EEE77A67EE277AC7ED94
:10396000057A7B6907EE903AB0EE670A1C37BD46D0
:103970005DF8047B704700BF0000004F00FEFF466B
:1039800080B584B000AF87ED010AD7ED017ABFEEB4
:10399000007AF4EEC77AF1EE10FA02D51A4B7B608A
:1039A0000BE0D7ED017AB7EE007AF4EEC77AF1EECC
:1039B00010FA02DD4FF07E537B60B7EE007AD7ED50
:1039C000017A77EE677AB0EE670A12F0F1FB87EDC5
:1039D000030AD7ED017A9FED0D7A67EE877A9FEDA6
:1039E0000C7A37EEC77AD7ED017A67EE277A9FED2A
:1039F000097A37EE877AD7ED037A67EE277AB0EE49
:103A0000670A1037BD4680BD000080BF9E3AB63DB4
:103A1000CABF5B3EDA0FC93F80B5A0B000AF5E4BB6
:103A20001B681846FCF7B8FD02460B4638465B4952
:103A30000EF078FA3B461846FFF7BEFC584B1B6861
:103A40001846FCF7A9FD02460B46384655490EF0CC
:103A500069FA3B461846FFF7AFFC534B1A683B46E2
:103A6000524918460EF05EFA3B461846FFF7A4FC92
:103A70004F4B1A683B464F4918460EF053FA3B46E7
:103A80001846FFF799FC4C4B1A683B464B491846C1
:103A90000EF048FA3B461846FFF78EFC484B1A6872
:103AA0003B46484918460EF03DFA3B461846FFF79C
:103AB00083FC454B1A683B46444918460EF032FADF
:103AC0003B461846FFF778FC414B1A683B46414994
:103AD00018460EF027FA3B461846FFF76DFC3E4BA2
:103AE0001A683B463D4918460EF01CFA3B461846FC
:103AF000FFF762FC3A4B1A683B463A4918460EF00B
:103B000011FA3B461846FFF757FC374B1B881A46FD
:103B10003B46364918460EF005FA3B461846FFF775
:103B20004BFC334B1B881A463B46324918460EF075
:103B3000F9F93B461846FFF73FFC2F4BB3F900302D
:103B40001A463B462D4918460EF0ECF93B461846FE
:103B5000FFF732FC2A4B1B681846FCF71DFD024696
:103B60000B46384627490EF0DDF93B461846FFF76D
:103B700023FC254B1B681846FCF70EFD02460B463E
:103B8000384622490EF0CEF93B461846FFF714FCA2
:103B900000BF8037BD4680BD340000202C71010875
:103BA0003800002040710108000000205871010811
:103BB000780A00203C7201087C0A00204872010843
:103BC000800A002054720108840A002060720108F3
:103BD0000400002074720108880A00208C72010819
:103BE0008C0A00209C720108740A0020747101087C
:103BF000760A0020A0710108A80A0020CC710108F3
:103C000018000020EC7101081C0000200C72010853
:103C100080B400AF72B600BFFEE7000080B582B08E
:103C200000AF0F4B1B6E0E4A43F0010313660C4BA3
:103C30001B6E03F001037B607B68094B9B6D084A98
:103C400043F080539365064B9B6D03F080533B60BC
:103C50003B6805F02FFA00BF0837BD4680BD00BFA6
:103C60000010024080B5A4B000AF786007F17C037B
:103C700000221A605A609A60DA601A6107F128031C
:103C80005422002118460EF0DEF97B681B68B3F160
:103C9000A04F1CD14FF40043BB624FF00053FB66B2
:103CA00007F12803184605F043FF0346002B01D017
:103CB000FFF7AEFF864BDB6C854A43F40053D364B9
:103CC000834BDB6C03F400537B627B6A85E17B688A
:103CD0001B68804A934240F087804FF48033BB6278
:103CE0004FF080433B6707F12803184605F020FF9B
:103CF0000346002B01D0FFF78BFF774B1B68013386
:103D0000754A1360744B1B68012B0BD1704BDB6C35
:103D10006F4A43F48043D3646D4BDB6C03F4804300
:103D20003B623B6A6A4BDB6C694A43F00203D36433
:103D3000674BDB6C03F00203FB61FB69644BDB6CDC
:103D4000634A43F01003D364614BDB6C03F0100350
:103D5000BB61BB6942F20203FB670323C7F88030F3
:103D60000023C7F8843007F17C0319465B4803F051
:103D7000FBF94FF40A53FB670323C7F88030002395
:103D8000C7F8843007F17C031946554803F0ECF975
:103D9000544B554A1A60534B25225A60514B00220E
:103DA0009A60504B0022DA604E4B80221A614D4BD4
:103DB0004FF480725A614B4B4FF480629A61494BC9
:103DC0002022DA61474B00221A62464802F05AFF6D
:103DD0000346002B01D0FFF71BFF7B68414A5A6561
:103DE000404A7B689362F8E07B681B683F4A9342D5
:103DF00040F082804FF48033BB624FF080433B67DA
:103E000007F12803184605F093FE0346002B01D066
:103E1000FFF7FEFE304B1B6801332F4A13602E4B19
:103E20001B68012B0BD12A4BDB6C294A43F48043DE
:103E3000D364274BDB6C03F480437B617B69244BA9
:103E4000DB6C234A43F01003D364214BDB6C03F09B
:103E500010033B613B694FF48043FB670323C7F8C2
:103E600080300023C7F8843007F17C0319461C48D2
:103E700003F07AF91E4B1F4A1A601D4B26225A6026
:103E80001B4B00229A601A4B0022DA60184B8022EA
:103E90001A61174B4FF480725A61154B4FF48062D0
:103EA0009A61134B2022DA61114B4FF440521A628F
:103EB0000F4802F0E7FE0346002B01D0FFF7A8FEF3
:103EC0007B680B4A5A650A4A7B68936285E000BFAB
:103ED0000010024000040050CC0B002000040048F9
:103EE000001000489C05002008000240000500501A
:103EF000FC0500201C0002407B681B68394A934285
:103F00006BD14FF48033BB624FF080433B6707F1C6
:103F10002803184605F00CFE0346002B01D0FFF7DE
:103F200077FE314B1B6801332F4A13602E4B1B6801
:103F3000012B0BD12D4BDB6C2C4A43F48043D36413
:103F40002A4BDB6C03F48043FB60FB68274BDB6C84
:103F5000264A43F00103D364244BDB6C03F00103D6
:103F6000BB60BB684FF48073FB670323C7F88030E6
:103F70000023C7F8843007F17C0319464FF09040C6
:103F800003F0F2F81A4B1B4A1A60194B27225A60A9
:103F9000174B00229A60164B0022DA60144B8022E5
:103FA0001A61134B4FF480725A61114B4FF48062C7
:103FB0009A610F4B2022DA610D4B00221A620C48E5
:103FC00002F060FE0346002B01D0FFF721FE7B6864
:103FD000074A5A65064A7B68936200BF9037BD4620
:103FE00080BD00BF00060050CC0B00200010024036
:103FF0005C0600203000024080B485B000AF7860DD
:104000007B681B680A4A93420BD10A4B9B6C094A96
:1040100043F008039364074B9B6C03F00803FB60B9
:10402000FB6800BF1437BD465DF8047B704700BFD6
:10403000000C02400010024080B58CB000AF7860E8
:1040400007F11C0300221A605A609A60DA601A6154
:104050007B681B685B4A934259D15B4BDB6C5A4AC5
:1040600043F48033D364584BDB6C03F48033BB617F
:10407000BB69554BDB6C544A43F00103D364524B8C
:10408000DB6C03F001037B617B693023FB6103235D
:104090003B6200237B6207F11C0319464FF09040FE
:1040A00003F062F8494B4A4A1A60484B06225A60AC
:1040B000464B10229A60454B0022DA60434B802227
:1040C0001A61424B4FF400725A61404B4FF4006248
:1040D0009A613E4B2022DA613C4B4FF400521A6247
:1040E0003A4802F0CFFD0346002B01D0FFF790FDC8
:1040F0007B68364A9A60354A7B68936200220021C9
:10410000362002F0ACFA362002F0C3FA55E07B68A4
:104110001B68304A934250D12B4BDB6C2A4A43F444
:104120000033D364284BDB6C03F400333B613B6901
:10413000254BDB6C244A43F00103D364224BDB6C38
:1041400003F00103FB60FB684023FB6103233B6238
:1041500000237B6207F11C0319464FF0904003F0E7
:1041600003F81D4B1D4A1A601B4B29225A601A4B3B
:1041700010229A60184B0022DA60174B80221A61D5
:10418000154B4FF400725A61134B4FF400629A6161
:10419000114B2022DA61104B4FF400521A620E4884
:1041A00002F070FD0346002B01D0FFF731FD7B6864
:1041B000094A9A60084A7B68936200BF3037BD465F
:1041C00080BD00BF00080050001002400C07002016
:1041D00044000240000C00506C07002058000240D0
:1041E00080B584B000AF78607B681B681A4A934240
:1041F00014D11A4B1B6E194A43F400631366174B14
:104200001B6E03F40063FB60FB6800220021182092
:1042100002F025FA182002F03CFA18E07B681B68CF
:104220000F4A934213D10D4B1B6E0C4A43F40053BB
:1042300013660A4B1B6E03F40053BB60BB6800227D
:1042400000212B2002F00BFA2B2002F022FA00BFF3
:104250001037BD4680BD00BF002C01400010024059
:104260000034014080B588B000AF78607B681B687F
:10427000354A93420CD1354B9B6D344A43F00403CD
:104280009365324B9B6D03F00403FB61FB6956E0C1
:104290007B681B682E4A934214D12C4B9B6D2B4A92
:1042A00043F010039365294B9B6D03F01003BB6132
:1042B000BB6900220021362002F0D1F9362002F03D
:1042C000E8F93CE07B681B68224A93420CD11F4B03
:1042D0009B6D1E4A43F0200393651C4B9B6D03F0BE
:1042E00020037B617B692AE07B681B681A4A934242
:1042F00014D1164B1B6E154A43F480331366134BCF
:104300001B6E03F480333B613B69002200211820BF
:1043100002F0A5F9182002F0BCF910E07B681B68D8
:104320000E4A93420BD1094B1B6E084A43F40033EB
:104330001366064B1B6E03F40033FB60FB6800BF83
:104340002037BD4680BD00BF00080040001002407D
:1043500000100040001400400040014000440140B3
:1043600080B58AB000AF786007F1140300221A60AC
:104370005A609A60DA601A617B681B68334A93421C
:104380001CD1334BDB6C324A43F00403D364304B13
:10439000DB6C03F004033B613B6901237B61022377
:1043A000BB610023FB6102233B6202237B6207F1B6
:1043B00014031946274802F0D7FE43E07B681B68C8
:1043C000254A93421DD1224BDB6C214A43F008035E
:1043D000D3641F4BDB6C03F00803FB60FB684FF4F6
:1043E00080537B610223BB610023FB6100233B629E
:1043F00002237B6207F114031946184802F0B4FE49
:1044000020E07B681B68164A93421BD1104BDB6C83
:104410000F4A43F00403D3640D4BDB6C03F0040339
:10442000BB60BB6880237B610223BB610023FB610F
:1044300002233B6204237B6207F1140319460548FB
:1044400002F092FE00BF2837BD4680BD002C01401F
:10445000001002400008004800080040000C00481E
:104460000034014080B59EB000AF786007F164036E
:1044700000221A605A609A60DA601A6107F110032C
:104480005422002118460DF0DEFD7B681B681F4A90
:10449000934236D108233B6180233B6207F110032E
:1044A000184605F045FB0346002B01D0FFF7B0FB93
:1044B000174B9B6D164A43F400239365144B9B6D79
:1044C00003F40023FB60FB68114BDB6C104A43F0E4
:1044D0000403D3640E4BDB6C03F00403BB60BB68C6
:1044E0004FF440637B660223BB660023FB66002318
:1044F0003B6705237B6707F164031946054802F013
:1045000033FE00BF7837BD4680BD00BF004C004081
:10451000001002400008004880B400AFFEE780B4FD
:1045200000AFFEE780B400AFFEE780B400AFFEE767
:1045300080B400AFFEE780B400AF00BFBD465DF8B9
:10454000047B704780B400AF00BFBD465DF8047BBC
:10455000704780B400AF00BFBD465DF8047B704774
:1045600080B500AF00F0B8F900BF80BD80B500AFE6
:10457000024802F0AAFC00BF80BD00BF9C050020DD
:1045800080B500AF024802F0A0FC00BF80BD00BFB4
:10459000FC05002080B500AF024802F096FC00BF89
:1045A00080BD00BF5C06002080B500AF024802F06D
:1045B0008CFC00BF80BD00BF0C07002080B500AFA1
:1045C000024802F082FC00BF80BD00BF6C070020E3
:1045D00080B500AF024803F083F800BF80BD00BF84
:1045E000AC20002080B500AF034806F063F8034814
:1045F00006F060F800BF80BDCC070020480900200D
:1046000080B500AF024806F055F800BF80BD00BF7E
:10461000FC08002080B500AF034806F04BF80348C3
:1046200002F0E0F800BF80BD64080020E40600202E
:1046300080B400AF01231846BD465DF8047B704787
:1046400080B582B000AF786039600DF061FD03463F
:1046500016221A604FF0FF3318460837BD4680BD5A
:1046600080B582B000AF78604FF0FF317868FFF717
:10467000E7FFFEE780B586B000AFF860B9607A600A
:1046800000237B610AE0AFF300800146BB685A1C3F
:10469000BA60CAB21A707B6901337B617A697B6840
:1046A0009A42F0DB7B6818461837BD4680BD80B55E
:1046B00086B000AFF860B9607A6000237B6109E0E2
:1046C000BB685A1CBA601B781846AFF300807B6940
:1046D00001337B617A697B689A42F1DB7B6818461B
:1046E0001837BD4680BD80B483B000AF78604FF00E
:1046F000FF3318460C37BD465DF8047B704780B425
:1047000083B000AF786039603B684FF400525A6064
:10471000002318460C37BD465DF8047B704780B413
:1047200083B000AF7860012318460C37BD465DF8B2
:10473000047B704780B485B000AFF860B9607A60E0
:10474000002318461437BD465DF8047B704700000F
:1047500080B586B000AF7860144A154BD31A7B61E0
:104760007B693B61134B1B68002B02D1114B124A32
:104770001A60104B1A687B6813443A699A4207D250
:104780000DF0C6FC03460C221A604FF0FF3309E01F
:10479000084B1B68FB60074B1A687B681344054A8B
:1047A0001360FB6818461837BD4680BD0000022024
:1047B00000040000D00B0020F826002080B400AFD9
:1047C000064BD3F88830054A43F47003C2F88830AA
:1047D00000BFBD465DF8047B704700BF00ED00E000
:1047E0000D488546FFF7EAFF0C480D490D4A0023A6
:1047F00002E0D458C4500433C4188C42F9D30A4A96
:104800000A4C002301E013600432A242FBD30DF0F6
:1048100085FCFCF715FCFEE70000022000000020EC
:10482000D0030020D0770108D0030020F426002018
:10483000FEE780B582B000AF0023FB71032001F0DA
:1048400003FF002000F00EF80346002B02D00123E6
:10485000FB7101E0FFF7E2F9FB7918460837BD4626
:1048600080BD000080B584B000AF78600023FB738A
:10487000164B1B68002B22D0154B1A68134B1B6874
:104880004FF47A71B1FBF3F3B2FBF3F3184601F086
:104890000EFF0346002B0FD17B680F2B09D8002297
:1048A00079684FF0FF3001F0DAFE0A4A7B68136046
:1048B00007E00123FB7304E00123FB7301E0012304
:1048C000FB73FB7B18461037BD4680BD7800002087
:1048D000700000207400002080B400AF054B1A68FF
:1048E000054B1B681344034A136000BFBD465DF8C7
:1048F000047B7047D40B00207800002080B400AF08
:10490000034B1B681846BD465DF8047B704700BF2B
:10491000D40B002080B584B000AF7860FFF7EEFFC5
:10492000B8607B68FB60FB68B3F1FF3F04D0094BC4
:104930001B68FA681344FB6000BFFFF7DFFF024605
:10494000BB68D31AFA689A42F7D800BF00BF103785
:10495000BD4680BD7800002080B483B000AF786091
:1049600039607B689B6823F47C123B681A437B6840
:104970009A6000BF0C37BD465DF8047B704780B479
:1049800083B000AF786039607B689B6823F0E07289
:104990003B681A437B689A6000BF0C37BD465DF8E0
:1049A000047B704780B483B000AF78607B689B68FD
:1049B00003F0E07318460C37BD465DF8047B704782
:1049C00080B487B000AFF860B9607A603B60FB6884
:1049D00060331A46BB689B0013447B617B691A688D
:1049E000084B13407A6802F0F8413A680A431343CF
:1049F00043F000427B691A6000BF1C37BD465DF87A
:104A0000047B704700F0FF0380B485B000AF78608E
:104A100039607B6860331A463B689B001344FB6037
:104A2000FB681B6803F0F84318461437BD465DF871
:104A3000047B704780B487B000AFF860B9607A60DB
:104A4000FB6860331A46BB689B0013447B617B693B
:104A50001B6823F000427B681A437B691A6000BF21
:104A60001C37BD465DF8047B704780B487B000AF4B
:104A7000F860B9607A60FB6860331A46BB689B00D7
:104A800013447B617B691B6823F080727B681A4347
:104A90007B691A6000BF1C37BD465DF8047B704718
:104AA00080B487B000AFF860B9607A60FB686033AB
:104AB0001A46BB689B0013447B617B691B6823F02B
:104AC00000727B681A437B691A6000BF1C37BD46C1
:104AD0005DF8047B704780B483B000AF78603960C4
:104AE0007B685B6923F000423B681A437B685A612C
:104AF00000BF0C37BD465DF8047B704780B483B0BF
:104B000000AF78607B68DB6803F44063002B01D161
:104B1000012300E0002318460C37BD465DF8047BF6
:104B2000704780B487B000AFF860B9607A60FB6806
:104B300030331A46BB681B0A9B0003F00C03134476
:104B40007B617B691A68BB6803F01F031F2101FAB0
:104B500003F3DB431A407B689B0E03F01F01BB6825
:104B600003F01F0301FA03F31A437B691A6000BFC5
:104B70001C37BD465DF8047B704780B487B000AF3A
:104B8000F860B9607A60FB6814331A46BB685B0E44
:104B90009B0003F0040313447B617B691A68BB68C4
:104BA0001B0D03F01F03072101FA03F3DB431A4037
:104BB000BB681B0D03F01F03796801FA03F31A4366
:104BC0007B691A6000BF1C37BD465DF8047B7047E7
:104BD00080B485B000AFF860B9607A60FB68D3F844
:104BE000B020BB68C3F31203DB431A407B6803F0B9
:104BF00018030849D940BB680B40C3F312031A439A
:104C0000FB68C3F8B02000BF1437BD465DF8047BD5
:104C1000704700BFFFFF070080B483B000AF78602B
:104C20007B689B6803F01F0318460C37BD465DF890
:104C3000047B704780B483B000AF78607B689B686A
:104C400023F0204323F03F037A68936000BF0C37C2
:104C5000BD465DF8047B704780B483B000AF7860D8
:104C60007B689B6803F00053B3F1005F01D101231F
:104C700000E0002318460C37BD465DF8047B704702
:104C800080B483B000AF78607B689B6823F01043EA
:104C900023F03F0343F080527B689A6000BF0C37DB
:104CA000BD465DF8047B704780B483B000AF786088
:104CB0007B689B6803F08053B3F1805F01D10123CF
:104CC00000E0002318460C37BD465DF8047B7047B2
:104CD00080B483B000AF78607B689B6823F00043AA
:104CE00023F03F0343F001027B689A6000BF0C375A
:104CF000BD465DF8047B704780B483B000AF786038
:104D00007B689B6823F0004323F03F0343F00202DB
:104D10007B689A6000BF0C37BD465DF8047B704726
:104D200080B483B000AF78607B689B6803F00103B8
:104D3000012B01D1012300E0002318460C37BD46AA
:104D40005DF8047B704780B483B000AF78607B6807
:104D50009B6803F00203022B01D1012300E0002332
:104D600018460C37BD465DF8047B704780B483B0AD
:104D700000AF78607B689B6823F0004323F03F031B
:104D800043F004027B689A6000BF0C37BD465DF8B3
:104D9000047B704780B483B000AF78607B689B6809
:104DA00003F00403042B01D1012300E00023184683
:104DB0000C37BD465DF8047B704780B483B000AF0C
:104DC00078607B689B6803F00803082B01D10123FE
:104DD00000E0002318460C37BD465DF8047B7047A1
:104DE00090B589B000AF78600023FB770023FB60AB
:104DF0007B68002B01D10123A9E17B685B69002B53
:104E00007B68DB6D002B09D17868FEF72BFF7B6890
:104E100000221A667B68002283F858207B681B6892
:104E20001846FFF719FF0346002B04D07B681B6868
:104E30001846FFF7FFFE7B681B681846FFF734FF34
:104E40000346002B15D17B681B681846FFF718FF37
:104E50009C4B1B689B099C4AA2FB03239B090133C3
:104E60005B00FB6002E0FB68013BFB60FB68002B22
:104E7000F9D17B681B681846FFF716FF0346002B25
:104E80000DD17B68DB6D43F010027B68DA657B68CF
:104E90001B6E43F001027B681A660123FB777B6877
:104EA0001B681846FFF776FF78617B68DB6D03F0BF
:104EB0001003002B40F042817B69002B40F03E81C3
:104EC0007B68DB6D23F4817343F002027B68DA6553
:104ED0007B681B681846FFF723FF0346002B41D170
:104EE0007B681B68B3F1A04F04D07B681B68774ACE
:104EF00093420FD14FF0A040FFF712FF04467348D2
:104F0000FFF70EFF03462343002B0CBF01230023B2
:104F1000DBB212E06E48FFF703FF04466D48FFF76F
:104F2000FFFE03461C436C48FFF7FAFE034623438B
:104F3000002B0CBF01230023DBB2002B12D07B68B7
:104F40001B68B3F1A04F04D07B681B685F4A934293
:104F500001D1624A00E0624A7B685B6819461046EC
:104F6000FFF7FAFC7B685B7F5A037B68DB6B1A43B5
:104F70007B68DB681A437B689B681A437B6893F8FD
:104F800024301B041343BB617B6893F82430012B4E
:104F900006D17B689B6A013B5B04BA691343BB6122
:104FA0007B68DB6A002B09D07B68DB6A03F47872CC
:104FB0007B681B6B1343BA691343BB617B681B6837
:104FC000DA68484B13407A681268B9690B43D360BA
:104FD0007B681B681B6923F040617B685A6B7B68A8
:104FE0001B680A431A617B681B681846FFF7E5FED9
:104FF00038617B69002B7FD13B69002B7CD17B68BA
:105000001B7F9A037B6893F838305B001343BB61C6
:105010007B681B68DB6823F4804323F002037A6813
:105020001268B9690B43D3607B681B69002B17D0EA
:105030007B681B681A697B681B6842F480321A61BE
:105040007B681B68D3F8C03023F47F5323F03F0301
:105050007A6811697A6812680B43C2F8C03013E0AD
:105060007B681B681A697B681B6822F480321A61AE
:105070007B681B68D3F8C0307A68126823F47F53CA
:1050800023F03F03C2F8C0307B6893F84030012B17
:105090002AD17B681B681B6923F4FF6323F0040398
:1050A0007A68516C7A68926C11437A68D26C1143B9
:1050B0007A68126D0A431A437B681B6842F001024A
:1050C0001A6119E070000020632D3E0500010050B8
:1050D000000400500005005000060050000300507E
:1050E000000700500740F0FF7B681B681A697B6867
:1050F0001B6822F001021A617B685B69012B0CD1ED
:105100007B681B681B6B23F00F017B681B6A5A1EB0
:105110007B681B680A431A6307E07B681B681A6B8D
:105120007B681B6822F00F021A637B68DB6D23F03B
:10513000030343F001027B68DA6507E07B68DB6DFF
:1051400043F010027B68DA650123FB77FB7F18468A
:105150002437BD4690BD00BF80B586B000AFF86073
:10516000B9607A60FB681B68B3F1A04F04D0FB689C
:105170001B685A4A934201D1594B00E0594B1846DB
:10518000FFF74AFD3861FB681B681846FFF702FE0F
:105190000346002B40F09B80FB6893F85830012BAE
:1051A00001D1022396E0FB68012283F85820FB68B6
:1051B0001B684D4A934208D03B69002B05D03B69E0
:1051C000052B02D03B69092B7AD1F86800F0ECFC82
:1051D0000346FB75FB7D002B6DD1FB68DB6D23F473
:1051E000706323F0010343F48072FB68DA65FB68A7
:1051F0001B683A4A934209D0FB681B683B4A9342BA
:1052000002D0FB681B6803E0394B01E04FF0A0437C
:10521000FA681268934202D03B69002B05D1FB6803
:10522000DB6D23F48012FB68DA65FB68DB6D03F449
:105230008053002B06D0FB681B6E23F00602FB6830
:105240001A6602E0FB6800221A66FB685B6D294A59
:10525000DA62FB685B6D284A1A63FB685B6D274A5C
:105260005A63FB681B681C221A60FB68002283F8E3
:105270005820FB681B685A68FB681B6842F01002E4
:105280005A60FB681B68DA68FB681B6842F0010221
:10529000DA60FB68586DFB681B6840331946BA68D2
:1052A0007B6801F097FD0346FB75FB681B68184699
:1052B000FFF75CFD0DE0FB68002283F8582008E052
:1052C0000123FB75FB68002283F8582001E00223CC
:1052D000FB75FB7D18461837BD4680BD00010050A8
:1052E0000003005000070050000600500005005069
:1052F00000040050935D00086B5E0008875E0008A4
:1053000080B483B000AF786000BF0C37BD465DF855
:10531000047B704780B483B000AF786000BF0C3767
:10532000BD465DF8047B704780B5B6B000AF7860CD
:105330003960002387F8D7300023FB607B6893F83F
:105340005830012B02D1022300F013BC7B680122EC
:1053500083F858207B681B681846FFF71BFD03463F
:10536000002B40F0F3837B6818683B6859683B6802
:105370001B681A46FFF7D5FB7B681B681846FFF7CA
:1053800009FDC7F8D0007B681B681846FFF715FDBC
:10539000C7F8CC00D7F8D030002B40F0D981D7F82F
:1053A000CC30002B40F0D4813B689B68B3F1004FB8
:1053B0000FD17B6818683B681B6800221946FFF70D
:1053C000DCFB7B681B684FF000411846FFF783FB4E
:1053D0000EE07B6818683B6819683B689B681A4652
:1053E000FFF7CBFB7B681B6800211846FFF773FBB8
:1053F0003B685A697B681B68DB68DB0803F00303C2
:105400005B0002FA03F3C7F8C8303B681B69042B42
:1054100022D07B6818683B6819693B681A68D7F81E
:10542000C830FFF7CDFA7B6818683B6819693B689C
:105430009B691A46FFF719FB7B6818683B68196976
:105440003B681B7F012B02D14FF0007300E000236B
:105450001A46FFF725FB7BE17B681B680021184695
:10546000FFF7D2FA0346C3F31203002B0AD17B687D
:105470001B6800211846FFF7C7FA03469B0E03F08E
:105480001F021EE07B681B6800211846FFF7BCFA6C
:105490000346C7F8BC30D7F8BC3093FAA3F3C7F87B
:1054A000B830D7F8B830C7F8C030D7F8C030002BC4
:1054B00001D1202304E0D7F8C030B3FA83F3DBB284
:1054C0001A463B681B68C3F31203002B05D13B68E7
:1054D0001B689B0E03F01F0318E03B681B68C7F8AE
:1054E000B030D7F8B03093FAA3F3C7F8AC30D7F8A0
:1054F000AC30C7F8B430D7F8B430002B01D120233A
:1055000004E0D7F8B430B3FA83F3DBB29A4206D1A1
:105510007B681B68002200211846FFF78BFA7B6826
:105520001B6801211846FFF76FFA0346C3F3120305
:10553000002B0AD17B681B6801211846FFF764FA2B
:1055400003469B0E03F01F021EE07B681B680121CF
:105550001846FFF759FA0346C7F8A430D7F8A43025
:1055600093FAA3F3C7F8A030D7F8A030C7F8A83053
:10557000D7F8A830002B01D1202304E0D7F8A830B9
:10558000B3FA83F3DBB21A463B681B68C3F312031A
:10559000002B05D13B681B689B0E03F01F0318E02E
:1055A0003B681B68C7F89830D7F8983093FAA3F394
:1055B000C7F89430D7F89430C7F89C30D7F89C30AF
:1055C000002B01D1202304E0D7F89C30B3FA83F3F9
:1055D000DBB29A4206D17B681B6800220121184683
:1055E000FFF728FA7B681B6802211846FFF70CFAC0
:1055F0000346C3F31203002B0AD17B681B68022108
:105600001846FFF701FA03469B0E03F01F021EE047
:105610007B681B6802211846FFF7F6F90346C7F8B6
:105620008C30D7F88C3093FAA3F3C7F88830D7F8CA
:105630008830C7F89030D7F89030002B01D1202364
:1056400004E0D7F89030B3FA83F3DBB21A463B6834
:105650001B68C3F31203002B05D13B681B689B0E2C
:1056600003F01F0316E03B681B68C7F88030D7F8CB
:10567000803093FAA3F3FB67FB6FC7F88430D7F849
:105680008430002B01D1202304E0D7F88430B3FA12
:1056900083F3DBB29A4206D17B681B6800220221A9
:1056A0001846FFF7C7F97B681B6803211846FFF708
:1056B000ABF90346C3F31203002B0AD17B681B68C6
:1056C00003211846FFF7A0F903469B0E03F01F02C3
:1056D00017E07B681B6803211846FFF795F903461E
:1056E0007B677B6F93FAA3F33B673B6FBB67BB6F33
:1056F000002B01D1202303E0BB6FB3FA83F3DBB2AD
:105700001A463B681B68C3F31203002B05D13B68A4
:105710001B689B0E03F01F0311E03B681B68BB6610
:10572000BB6E93FAA3F37B667B6EFB66FB6E002B6E
:1057300001D1202303E0FB6EB3FA83F3DBB29A427C
:1057400006D17B681B68002203211846FFF772F917
:105750007B681B681846FFF7E3FA0346002B40F00E
:105760003D817B6818683B6819683B68DB681A46AE
:10577000FFF72EFA3B68DB68A24A934240F02E8185
:105780007B6818683B681B68C3F31203002B0BD1BE
:105790003B681B689B0E013303F01F03092B94BF6A
:1057A00001230023DBB219E03B681B68FB65FB6D3E
:1057B00093FAA3F3BB65BB6D3B663B6E002B01D137
:1057C000202303E03B6EB3FA83F3DBB2013303F033
:1057D0001F03092B94BF01230023DBB2002B79D0D8
:1057E0003B681B68C3F31203002B07D13B681B689F
:1057F0009B0E01339B0603F0F84215E03B681B68E3
:105800003B653B6D93FAA3F3FB64FB6C7B657B6D9F
:10581000002B01D1202303E07B6DB3FA83F3DBB2CD
:1058200001339B0603F0F8423B681B68C3F3120385
:10583000002B09D13B681B689B0E013303F01F034B
:10584000012101FA03F317E03B681B687B647B6C62
:1058500093FAA3F33B643B6CBB64BB6C002B01D19C
:10586000202303E0BB6CB3FA83F3DBB2013303F014
:105870001F03012101FA03F342EA03013B681B689D
:10588000C3F31203002B0AD13B681B689B0E013344
:1058900003F01F0213465B0013441B0518E03B682E
:1058A0001B68BB63BB6B93FAA3F37B637B6BFB63EC
:1058B000FB6B002B01D1202303E0FB6BB3FA83F3D6
:1058C000DBB2013303F01F0213465B0013441B05D8
:1058D0000B437EE03B681B68C3F31203002B07D128
:1058E0003B681B689B0E01339B0603F0F84215E0F2
:1058F0003B681B68FB62FB6A93FAA3F3BB62BB6A5B
:105900003B633B6B002B01D1202303E03B6BB3FADD
:1059100083F3DBB201339B0603F0F8423B681B685C
:10592000C3F31203002B09D13B681B689B0E0133A4
:1059300003F01F03012101FA03F317E03B681B6822
:105940003B623B6A93FAA3F3FB61FB697B627B6A70
:10595000002B01D1202303E07B6AB3FA83F3DBB28F
:10596000013303F01F03012101FA03F342EA0301AB
:105970003B681B68C3F31203002B0DD13B681B6807
:105980009B0E013303F01F0213465B0013441E3BC2
:105990001B0543F000731BE03B681B687B617B6960
:1059A00093FAA3F33B613B69BB61BB69002B01D157
:1059B000202303E0BB69B3FA83F3DBB2013303F0C6
:1059C0001F0213465B0013441E3B1B0543F000738C
:1059D0000B433A6892681946FFF7CFF83B681A689C
:1059E000094B1340002B00F0BE807B681B68B3F1AD
:1059F000A04F04D07B681B68044A93420AD1044B31
:105A000009E000BF00007F40000008800001005056
:105A100000030050594B1846FEF7C4FFC7F8C400F6
:105A20003B681B68564A934204D03B681B68554A42
:105A300093423AD1D7F8C43003F40003002B34D199
:105A40007B681B68B3F1A04F05D07B681B684E4A8A
:105A5000934240F085807B681B68B3F1A04F04D06F
:105A60007B681B68494A934201D1494A00E0434A96
:105A7000D7F8C43043F4000319461046FEF77FFF01
:105A8000444B1B689B09444AA2FB03239B095A1CF5
:105A900013465B0013449B00FB6002E0FB68013B84
:105AA000FB60FB68002BF9D15AE03B681B683B4A5E
:105AB000934225D1D7F8C43003F08073002B1FD157
:105AC0007B681B68314A934204D17B681B68344A67
:105AD000934247D07B681B68B3F1A04F04D07B682A
