:020000040800F2
:1000000000000220254B000851480008594800080C
:1000100061480008694800087148000800000000B5
:100020000000000000000000000000007948000807
:10003000874800080000000095480008A348000811
:10004000754B0008754B0008754B0008754B000890
:10005000754B0008754B0008754B0008754B000880
:10006000754B0008754B0008754B0008B148000837
:10007000C5480008D9480008ED48000801490008B3
:10008000754B0008754B0008754B0008754B000850
:1000900015490008754B0008754B0008754B0008A2
:1000A00029490008754B0008754B0008754B00087E
:1000B000754B0008754B0008754B0008754B000820
:1000C000754B0008754B0008754B0008754B000810
:1000D000754B0008754B0008754B0008754B000800
:1000E000754B0008754B0008754B00084549000822
:1000F000754B0008754B0008754B0008754B0008E0
:10010000754B0008754B0008754B0008754B0008CF
:10011000754B0008754B000859490008754B0008DD
:10012000754B0008754B0008754B0008754B0008AF
:10013000754B0008754B0008754B0008754B00089F
:10014000754B0008754B0008754B0008754B00088F
:10015000754B0008754B0008754B0008754B00087F
:10016000754B0008754B0008754B0008754B00086F
:10017000754B0008754B0008754B0008754B00085F
:10018000754B0008754B0008754B0008754B00084F
:10019000754B000800000000754B0008754B000807
:1001A000754B0008754B0008754B0008754B00082F
:1001B000754B0008754B0008754B0008754B00081F
:1001C000754B0008754B0008754B0008754B00080F
:0801D000754B0008754B000897
:1001E00010B5054C237833B9044B13B10448AFF371
:1001F00000800123237010BDC00300200000000018
:100200002C72010808B5034B1BB103490348AFF337
:10021000008008BD00000000C40300202C7201080B
:1002200001F0FF01102A2BDB10F0070F08D010F8A7
:10023000013B013A8B422DD010F0070F42B3F6D1AB
:10024000F0B441EA012141EA014122F007047FF0C4
:1002500000070023F0E80256083C85EA010586EA1B
:10026000010685FA47F5A3FA87F586FA47F6A5FA57
:1002700087F68EB9EED1F0BC01F0FF0102F0070263
:1002800032B110F8013B013A83EA010313B1F8D10E
:100290000020704701387047002D06BF35460338EF
:1002A000073815F0010F07D1013015F4807F02BF28
:1002B000013015F4C03F0130F0BC0138704700BF79
:1002C000034613F8012B002AFBD1181A0138704796
:1002D00081F0004102E000BF83F0004330B54FEAF7
:1002E00041044FEA430594EA050F08BF90EA020F64
:1002F0001FBF54EA000C55EA020C7FEA645C7FEAF7
:10030000655C00F0E2804FEA5454D4EB5555B8BF19
:100310006D420CDD2C4480EA020281EA030382EA8A
:10032000000083EA010180EA020281EA0303362D1C
:1003300088BF30BD11F0004F4FEA01314FF4801CEF
:100340004CEA113102D0404261EB410113F0004F01
:100350004FEA03334CEA133302D0524263EB4303B8
:1003600094EA050F00F0A780A4F10104D5F1200E56
:100370000DDB02FA0EFC22FA05F2801841F10001B1
:1003800003FA0EF2801843FA05F359410EE0A5F185
:1003900020050EF1200E012A03FA0EFC28BF4CF0B6
:1003A000020C43FA05F3C01851EBE37101F000456C
:1003B00007D54FF0000EDCF1000C7EEB00006EEB79
:1003C0000101B1F5801F1BD3B1F5001F0CD3490803
:1003D0005FEA30004FEA3C0C04F101044FEA44525A
:1003E00012F5800F80F09A80BCF1004F08BF5FEAE1
:1003F000500C50F1000041EB045141EA050130BDC1
:100400005FEA4C0C404141EB0101013C28BFB1F5D2
:10041000801FE9D291F0000F04BF01460020B1FA1D
:1004200081F308BF2033A3F10B03B3F120020CDAF0
:100430000C3208DD02F1140CC2F10C0201FA0CF0CE
:1004400021FA02F10CE002F11402D8BFC2F1200C33
:1004500001FA02F120FA0CFCDCBF41EA0C019040E9
:10046000E41AA2BF01EB0451294330BD6FEA040432
:100470001F3C1CDA0C340EDC04F11404C4F120021D
:1004800020FA04F001FA02F340EA030021FA04F32F
:1004900045EA030130BDC4F10C04C4F1200220FA86
:1004A00002F001FA04F340EA0300294630BD21FAC4
:1004B00004F0294630BD94F0000F83F4801306BF8A
:1004C00081F480110134013D4EE77FEA645C18BF7E
:1004D0007FEA655C29D094EA050F08BF90EA020F15
:1004E00005D054EA000C04BF1946104630BD91EA0D
:1004F000030F1EBF0021002030BD5FEA545C05D110
:100500004000494128BF41F0004130BD14F580044E
:100510003CBF01F5801130BD01F0004545F0FE41C2
:1005200041F470014FF0000030BD7FEA645C1ABFF7
:10053000194610467FEA655C1CBF0B46024650EA2E
:10054000013406BF52EA033591EA030F41F400215A
:1005500030BD00BF90F0000F04BF0021704730B5E0
:100560004FF4806404F132044FF000054FF00001B5
:1005700050E700BF90F0000F04BF0021704730B576
:100580004FF4806404F1320410F0004548BF40424B
:100590004FF000013EE700BF42004FEAE2014FEAA0
:1005A00031014FEA02701FBF12F07F4393F07F4F7B
:1005B00081F06051704732F07F4208BF704793F07E
:1005C0007F4F04BF41F40021704730B54FF4607491
:1005D00001F0004521F000411CE700BF50EA010294
:1005E00008BF704730B54FF000050AE050EA01023D
:1005F00008BF704730B511F0004502D5404261EBAD
:1006000041014FF4806404F132045FEA915C3FF4ED
:10061000D8AE4FF003025FEADC0C18BF03325FEA8A
:10062000DC0C18BF033202EBDC02C2F1200300FA3B
:1006300003FC20FA02F001FA03FE40EA0E0021FA60
:1006400002F11444BDE600BF70B54FF0FF0C4CF44E
:10065000E06C1CEA11541DBF1CEA135594EA0C0F00
:1006600095EA0C0F00F0DEF82C4481EA030621EA3B
:100670004C5123EA4C5350EA013518BF52EA033576
:1006800041F4801143F4801338D0A0FB02CE4FF028
:100690000005E1FB02E506F00042E0FB03E54FF058
:1006A0000006E1FB03569CF0000F18BF4EF0010E50
:1006B000A4F1FF04B6F5007F64F5407404D25FEA4C
:1006C0004E0E6D4146EB060642EAC62141EA5551FF
:1006D0004FEAC52040EA5E504FEACE2EB4F1FD0C41
:1006E00088BFBCF5E06F1ED8BEF1004F08BF5FEABF
:1006F000500E50F1000041EB045170BD06F0004671
:1007000046EA010140EA020081EA0301B4EB5C041D
:10071000C2BFD4EB0C0541EA045170BD41F4801115
:100720004FF0000E013C00F3AB8014F1360FDEBF3A
:10073000002001F0004170BDC4F10004203C35DA16
:100740000C341BDC04F11404C4F1200500FA05F399
:1007500020FA04F001FA05F240EA020001F000423A
:1007600021F0004110EBD37021FA04F642EB0601B0
:100770005EEA430E08BF20EAD37070BDC4F10C04DA
:10078000C4F1200500FA04F320FA05F001FA04F29E
:1007900040EA020001F0004110EBD37041F100018A
:1007A0005EEA430E08BF20EAD37070BDC4F1200595
:1007B00000FA05F24EEA020E20FA04F301FA05F2FD
:1007C00043EA020321FA04F001F0004121FA04F2A5
:1007D00020EA020000EBD3705EEA430E08BF20EA75
:1007E000D37070BD94F0000F0FD101F000464000AF
:1007F00041EB010111F4801F08BF013CF7D041EA31
:10080000060195F0000F18BF704703F00046520034
:1008100043EB030313F4801F08BF013DF7D043EA05
:100820000603704794EA0C0F0CEA135518BF95EABB
:100830000C0F0CD050EA410618BF52EA4306D1D142
:1008400081EA030101F000414FF0000070BD50EA61
:10085000410606BF1046194652EA430619D094EAEB
:100860000C0F02D150EA013613D195EA0C0F05D1D5
:1008700052EA03361CBF104619460AD181EA030129
:1008800001F0004141F0FE4141F470014FF00000E1
:1008900070BD41F0FE4141F4780170BD70B54FF07C
:1008A000FF0C4CF4E06C1CEA11541DBF1CEA1355FC
:1008B00094EA0C0F95EA0C0F00F0A7F8A4EB0504DE
:1008C00081EA030E52EA03354FEA013100F08880D5
:1008D0004FEA03334FF0805545EA131343EA12639E
:1008E0004FEA022245EA111545EA10654FEA002653
:1008F0000EF000419D4208BF964244F1FD0404F50C
:10090000407402D25B084FEA3202B61A65EB030567
:100910005B084FEA32024FF480104FF4002CB6EB24
:10092000020E75EB030E22BFB61A754640EA0C00A4
:100930005B084FEA3202B6EB020E75EB030E22BFE4
:10094000B61A754640EA5C005B084FEA3202B6EB25
:10095000020E75EB030E22BFB61A754640EA9C00E4
:100960005B084FEA3202B6EB020E75EB030E22BFB4
:10097000B61A754640EADC0055EA060E18D04FEA72
:10098000051545EA16754FEA06164FEAC30343EA12
:1009900052734FEAC2025FEA1C1CC0D111F4801FDF
:1009A0000BD141EA00014FF000004FF0004CB6E7D8
:1009B00011F4801F04BF01430020B4F1FD0C88BF77
:1009C000BCF5E06F3FF6AFAEB5EB030C04BFB6EB82
:1009D000020C5FEA500C50F1000041EB045170BD75
:1009E0000EF0004E4EEA113114EB5C04C2BFD4EBA2
:1009F0000C0541EA045170BD41F480114FF0000E26
:100A0000013C90E645EA060E8DE60CEA135594EAA1
:100A10000C0F08BF95EA0C0F3FF43BAF94EA0C0FA4
:100A20000AD150EA01347FF434AF95EA0C0F7FF419
:100A300025AF104619462CE795EA0C0F06D152EA6D
:100A400003353FF4FDAE1046194622E750EA410651
:100A500018BF52EA43067FF4C5AE50EA41047FF462
:100A60000DAF52EA43057FF4EBAE12E74FF0FF3CC7
:100A700006E000BF4FF0010C02E000BF4FF0010C98
:100A80004DF804CD4FEA410C7FEA6C5C4FEA430C11
:100A900018BF7FEA6C5C1BD001B050EA410C0CBF60
:100AA00052EA430C91EA030F02BF90EA020F0020C2
:100AB000704710F1000F91EA030F58BF994208BF29
:100AC00090422CBFD8176FEAE37040F001007047E6
:100AD0004FEA410C7FEA6C5C02D150EA013C07D13D
:100AE0004FEA430C7FEA6C5CD6D152EA033CD3D088
:100AF0005DF8040B704700BF8446104662468C4682
:100B00001946634600E000BF01B5FFF7B7FF0028B4
:100B100048BF10F1000F01BD4DF808EDFFF7F4FFDD
:100B20000CBF012000205DF808FB00BF4DF808ED68
:100B3000FFF7EAFF34BF012000205DF808FB00BF8B
:100B40004DF808EDFFF7E0FF94BF012000205DF8AD
:100B500008FB00BF4DF808EDFFF7CEFF94BF012062
:100B600000205DF808FB00BF4DF808EDFFF7C4FF5B
:100B700034BF012000205DF808FB00BF4FEA410CA4
:100B80007FEA6C5C02D150EA013C0AD14FEA430C87
:100B90007FEA6C5C02D152EA033C02D14FF00000C4
:100BA00070474FF0010070474FEA410212F5001202
:100BB00015D211D56FF47873B3EB625212D94FEAA4
:100BC000C12343F0004343EA505311F0004F23FA8E
:100BD00002F018BF404270474FF00000704750EAE3
:100BE000013005D111F0004008BF6FF000407047A0
:100BF0004FF00000704700BF4A0011D212F50012FA
:100C000011D20DD56FF47873B3EB62520ED44FEA64
:100C1000C12343F0004343EA505323FA02F07047E4
:100C20004FF00000704750EA013002D14FF0FF3022
:100C300070474FF0000070474FEA4102B2F1E043C5
:100C400024BFB3F5001CDCF1FE5C0DD901F0004CB3
:100C50004FEAC0024CEA5070B2F1004F40EB830003
:100C600008BF20F00100704711F0804F21D113F12F
:100C70003872BCBF01F00040704741F480114FEA68
:100C80005252C2F11802C2F1200C10FA0CF320FAF1
:100C900002F018BF40F001004FEAC1234FEAD3230E
:100CA00003FA0CFC40EA0C0023FA02F34FEA430378
:100CB000CCE77FEA625307D150EA01331EBF4FF001
:100CC000FE4040F44000704701F0004040F0FE401C
:100CD00040F40000704700BF53B94AB9002908BF6B
:100CE00000281CBF4FF0FF314FF0FF3000F0BEB9BD
:100CF000ADF1080C6DE904CE00F03CF8DDF804E03D
:100D0000DDE9022304B0704738B500220023044611
:100D10000D46FFF70BFF28B920462946BDE83840AD
:100D200000F00AB8204605F1004100F005F8404205
:100D300061EB410138BD00BFD0B50C4B0022064627
:100D40000F46FFF781FCFFF757FF0446FFF702FC51
:100D5000074B0022FFF778FC02460B463046394627
:100D6000FFF7BAFAFFF748FF2146D0BD0000F03D7B
:100D70000000F0412DE9F047089D8E460446884664
:100D8000002B4AD18A42174662D9B2FA82F64EB196
:100D9000C6F1200301FA06F820FA03F3B74043EA4C
:100DA0000808B4404FEA174E1FFA87FCB8FBFEF163
:100DB000230C0EFB118843EA084301FB0CF29A4214
:100DC00009D9FB1801F1FF3080F0EA809A4240F225
:100DD000E78002393B449A1AA3B2B2FBFEF00EFB45
:100DE000102243EA024300FB0CFC9C4509D9FB1886
:100DF00000F1FF3280F0D6809C4540F2D3803B4426
:100E0000023840EA0140A3EB0C0300211DB1F3407E
:100E10000022C5E90032BDE8F0878B4205D90DB14B
:100E2000C5E9000100210846F5E7B3FA83F100297E
:100E300046D1734502D3824200F20581841A6EEBDB
:100E4000030201209046002DE5D0C5E90048E2E705
:100E5000002A00F09080B2FA82F6002E40F0A480C2
:100E60008A1A030C4FEA174E80B2BCB20121B2FBC2
:100E7000FEFC0EFB1C2243EA024304FB0CF29A42E6
:100E800007D9FB180CF1FF3802D29A4200F2E08039
:100E9000C4469B1AB3FBFEF20EFB123340EA034337
:100EA00002FB04F49C4207D9FB1802F1FF3002D286
:100EB0009C4200F2CA8002461B1B42EA0C40A5E796
:100EC000C1F120068B4022FA06F71F430EFA01F407
:100ED00020FA06F32EFA06FE4FEA1749234300FADA
:100EE00001F81FFA87FCBEFBF9F01C0C09FB10EEA1
:100EF00044EA0E4400FB0CFEA64502FA01F209D9B1
:100F00003C1900F1FF3A80F09C80A64540F29980A0
:100F100002383C44A4EB0E041FFA83FEB4FBF9F341
:100F200009FB13444EEA044403FB0CFCA44508D916
:100F30003C1903F1FF3E80F08280A4457FD9023B3B
:100F40003C4443EA0040A4EB0C04A0FB02EC6445E3
:100F50007346E14662D35FD05DB1B8EB030264EB48
:100F6000090404FA06F622FA01F31E43CC40C5E94F
:100F7000006400214FE7B1FBF2FC010C41EA0E4195
:100F800080B240EA01423B4638463C46B846BE463F
:100F90002026B1FBF7F1A2EB080241EA0C4166E71B
:100FA000014618E710462CE7C6F120022EFA02F39C
:100FB000B740B14020FA02F24FEA174E0A43B3FBA2
:100FC000FEF8BCB20EFB1833110C41EA034108FBDA
:100FD00004F9B04089454FEA104380B23ED97918F0
:100FE00008F1FF3C01D289451FD8A1EB0901B1FBF3
:100FF000FEF909FB04F80EFB191192B242EA014214
:10100000424529D2BA1809F1FF31C4D24245C2D2B1
:10101000A9F102013A44BEE7F0459DD2BEEB0203BE
:101020006CEB070C0138E14696E7A7EB0909494448
:10103000A8F1020CB1FBFEF909FB04F8DBE77346EB
:101040007FE7504666E70846FDE63B44023A33E751
:10105000ACF1020C3B441CE749469CE7A1EB0901BB
:10106000C446B1FBFEF909FB04F8C4E7704700BFB2
:10107000B0B586B004AF03F07EFD00F003FE01F0D2
:1010800035FC01F0E9FB00F0C3FE00F08DFF00F03D
:10109000F1FF01F075F801F0BFF801F0F7F801F089
:1010A0007DFA01F08DFB00F03BFE01F089F90FF0B5
:1010B00085FC01F00DFB01F05DFB01F039FA01F058
:1010C000F7F901F049F8874B09221A60854B602235
:1010D0009A61844B00225A60824B00221A61814B34
:1010E00000225A617F4B00229A607E4B0022DA6018
:1010F0007C497D4805F072FA0346002B01D002F0CE
:1011000023FF01F09DFE03461A46784B1A70784B78
:101110001B78DBB2002B04D002F058FA744B00228B
:101120001A700421734806F043FB03461A46724BBB
:101130001A70714B1B78002B0ED0704B1B78002B54
:101140000AD06A4B1B78002B06D16D4B00221A7017
:101150006A4B00221A7019E0674B1B78002B0ED0E7
:10116000684B1B78002B0AD0604B1B78002B06D1F4
:10117000634B03221A70634B00221A7006E0624B25
:101180001B78002B02D05E4B02221A705A4B1B7840
:10119000002B03D0554B1B78002B02D0584B01225B
:1011A0001A705A4B1B78564A12781146184601F0AD
:1011B000E9FC03461A46554B1A70544B1B78042B16
:1011C00000F2F28401A252F823F000BFE1110008FE
:1011D000A712000855130008871A0008FB1A000818
:1011E000012204214A4806F0FBFA0022202141484E
:1011F00006F0F6FA01222021464806F0F1FA4FF4F3
:101200007A7003F029FD00222021424806F0E8FA16
:101210000021414809F042FA0421404809F03EFA11
:1012200000213F4805F014FC10213D4805F010FC5A
:1012300000213C4805F00CFC00213B4809F02EFA47
:101240003A4809F02DF97F21394805F02BF87F2124
:10125000384805F027F87F21374805F023F80522A4
:101260003649334804F01AF902223549314804F06E
:1012700015F90A223349304804F010F9142001F01E
:10128000DBFC322003F0E8FC2C4B1B889AB22E4B7F
:101290001A802A4B5B889AB22C4B1A801B4B012276
:1012A0001A7000F088BC01F005FE03461A46284B70
:1012B0001A70124B1B78002B00F079840E4B1B78B0
:1012C000002B00F07484094B1B78002B40F06F84D6
:1012D0001F4B1B78002B00F06A840C4B02221A7003
:1012E00000F065BCA40B0020AC060020980B002089
:1012F000740B002000080048A00B0020940B002075
:1013000054000020950B0020960B0020970B002026
:101310000014004800100048BC070020EC08002022
:10132000D4060020E8060020080800205408002009
:1013300048040020B404002020050020800A00207A
:101340008C0A00209C0A0020640A0020660A002003
:10135000990B0020A64B1B68002B24D1A54B002223
:101360001A70A54B00221A60A44B00221A60A44BED
:1013700000221A60A34B00221A60A34BA34A1A60F2
:10138000A34BA24A1A6000220421A24806F028FAC0
:10139000A14809F085F80021A04809F07FF904214F
:1013A0009F4809F07BF99F4B1B78DBB2002B00F0C4
:1013B00001849C4B00221A709B4B1B6807EE903AED
:1013C000F8EE677A994B1B6807EE103AB8EE477A49
:1013D000F0EE470AB0EE670A01F0FEFFF0EE407A49
:1013E000FDEEE77A17EE902A904B1A60904B1B683F
:1013F00007EE903AF8EE677A8E4B1B6807EE103ACC
:10140000B8EE477AF0EE470AB0EE670A01F0E4FF63
:10141000F0EE407AFDEEE77A17EE902A854B1A60DF
:10142000854B1B685A00834B1B689A4204D3814B3F
:101430001B68824A934202D9814B03221A707D4B6A
:101440001A687D4B1B68D31A07EE903AF8EE676A6C
:10145000794B1B6807EE903AB8EE677AC6EE877A4A
:10146000C7ED017A7868FFF797F85BA3D3E900230B
:10147000FFF77AFB0346002B05D15E4B1B78DBB2EE
:10148000002B40F0FB826B4B1B6807EE903AF8EEA6
:10149000676A664B1B6807EE903AB8EE677AC6EE4D
:1014A000877A684BC3ED007A524B1B78DBB2002B76
:1014B00000F0C781634BD3ED007AB0EE007AF4EE12
:1014C000C77AF1EE10FA40F1CF805E4BD3ED007A8F
:1014D000B7EE007A77EE677AB0EE670A02F0ECFBBF
:1014E00010EE103A1846FFF757F83DA3D3E9002352
:1014F000FFF7AAF802460B4614461D46524B1B68DE
:101500001846FFF749F802460B4620462946FFF7E2
:101510009BF802460B4610461946FFF78DFB034623
:101520004A4A1360474BD3ED007AB0EE007A37EEAB
:10153000677A444BD3ED007AC7EE276A20216420F6
:10154000B0EE660A02F0BAFA0346414A1360642319
:10155000009301233F4A3E493F4805F07BF83D4B4D
:101560001868202301220A2102F02EFBF0EE407AB7
:101570003A4BC3ED007A2F4B1B6807EE903AB8EE5A
:10158000677A374BD3ED007A27EE277A334BD3EDCA
:10159000007A67EE277A17EE900AFEF7FDFF12A396
:1015A000D3E90023FFF750F802460B4610461946D0
:1015B000FFF7FAFA03461A462A4B1A60294B1B68B2
:1015C000B3F57A6F40F29980264B4FF47A621A6035
:1015D00093E000BFAFF300807B14AE47E17A943F05
:1015E0003A950BDB2F94A53E3956A30304067C3FA6
:1015F0009C0B0020900A00207C0B0020800B002018
:10160000880B00208C0B00201C0000208096980086
:10161000200000200014004838090020BC070020EA
:10162000EC080020A10B0020740A002060000020BC
:1016300004000020640000200000002040420F0051
:10164000970B00202C0000200C000020140000202C
:101650007000002068000020AC0600206C00002014
:101660005C000020700A0020A14BD3ED007AB0EEA0
:10167000007AF4EEC77AF1EE10FA3EDB9C4BD3ED24
:10168000007AB7EE007A77EEC77AF7EE006A86EE58
:10169000A77AB0EE470A02F00FFB10EE103A184698
:1016A000FEF77AFF02460B468BA1D1E90001FEF757
:1016B00013FE02460B461046194689A3D3E90023C0
:1016C000FEF7C2FF02460B4614461D46894B1B68B7
:1016D0001846FEF761FF02460B4620462946FEF7F4
:1016E000B3FF02460B4610461946FFF7A5FA03461C
:1016F000814A1360814B00221A607F4B1B68184699
:10170000FEF74AFF78A3D3E90023FFF70FFA034659
:10171000002B3AD0784B93ED007AF7EE006AC6EED4
:10172000877AFDEEE77A17EE902A754B1A60744BB4
:101730001B68744A934202DD714B724A1A60724B05
:1017400093ED007A6E4B1B6807EE903AF8EEE77A5D
:1017500077EE677AFDEEE77A17EE903A002BB8BF86
:101760005B4244F61F6293420FDD654B1B681A46CD
:101770000021664801F0F4FA614B1B6807EE903ACD
:10178000F8EEE77A604BC3ED007A614B1B68002BE3
:1017900057DD604B1B6807EE903AF8EE677A9FEDD5
:1017A0005E7A27EE877A5A4B1B6807EE903AF8EE7E
:1017B000E76AB7EE006AC6EE267A27EE277A574B1D
:1017C000D3ED007A67EE277A554BC3ED007A544B80
:1017D00093ED007AF7EE006AC6EE877AFDEEE77ABF
:1017E00017EE902A4F4B1A604E4B1B68454A9342A6
:1017F00002DD4C4B434A1A604B4B93ED007A494B48
:101800001B6807EE903AF8EEE77A77EE677AFDEE1E
:10181000E77A17EE903A002BB8BF5B42434A9342F7
:101820000FDD404B1B681A460421414801F098FA2D
:101830003C4B1B6807EE903AF8EEE77A3A4BC3ED63
:10184000007A3C4B1B78DBB2002B40F085803A4B92
:101850001B68002B13D1394B1B6803F59C530833CD
:1018600007EE903AF8EE677A354BC3ED007A334BCA
:101870001B6803F59C5308331A46324B1A602E4BF3
:101880001B68002B06D11E4B1B681A4604212848F2
:1018900001F066FA284B1B68002B06D1214B1B6810
:1018A0001A460021194801F05BFA264B1B68264AAC
:1018B000126811469FED250A42F21072184601F097
:1018C00039FC03461F4A1360214B1B68214A1360F1
:1018D00046E000BFAFF30080182D4454FB210940BF
:1018E0003A950BDB2F94A53EFCA9F1D24D62503FF7
:1018F0002C0000200C00002014000020700A0020A2
:101900001C000020002D310124000020BC07002015
:10191000680A002064000020CF2E973110000020BC
:101920001800002020000020280000209F860100D1
:10193000EC080020900A00209C0B002004000020EE
:10194000840B0020080000200000002017B7513849
:1019500038000020400000209B4B1B689B4A13600E
:101960009B4B1B68002B1CDD9A4B1B681C46984B3D
:101970001968964B1B68984A12689848D0ED007A0F
:10198000974890ED007A019200939FED961AF0EE41
:10199000470AB0EE670A0B4622469349934801F086
:1019A0002DFC934BB3F900301846924B1B68924ABA
:1019B00012689249D1ED007A914991ED007A029234
:1019C0000193002300939FED871AF0EE470AB0EED3
:1019D000670A03468B4A8C498C4801F089FC834B8B
:1019E0001A688A4B1B681344894A1360894B1B6829
:1019F000002B47D1884B1B687C4A1360874B1B88A0
:101A00001C467A4B1B681846FEF7B4FD6CA3D3E95D
:101A10000023FEF719FE02460B4610461946FFF753
:101A2000C3F803462344002200217D4805F0D2F884
:101A30007C4B1B881C466D4B1B681846FEF79AFDB5
:101A40005FA3D3E90023FEF7FFFD02460B461046D5
:101A50001946FFF7A9F803462344002210217048D5
:101A600005F0B8F8322003F0F7F8012220216E4883
:101A700005F0B6FE674B01221A6003E06B4B0022B3
:101A80001A7097E096E000222021674805F0A8FE32
:101A9000674808F07DFD00228021664805F0A0FE21
:101AA00000224FF48071644805F09AFE0022012163
:101AB000624805F095FE002240215B4805F090FE4B
:101AC000002202215C4805F08BFE00224FF40071D9
:101AD0005B4805F085FE01222021574805F080FE75
:101AE000584808F06DFC4B4B00221A60564B002200
:101AF0001A70564B04221A705DE0002220214A48D9
:101B000005F06EFE012204214D4805F069FE4848AB
:101B100008F03EFD454B00221A704D4B00221A7012
:101B20003C4B00221A60314B01221A60384B0122D3
:101B30001A602F4B01221A80464B4FF07E521A60DA
:101B4000454B464A1A60464B444A1A60454B4FF093
:101B50007E521A60244B00221A60434B00221A6006
:101B6000294B00221A60274B00221A60274B0022C3
:101B70001A603E4B01221A603D4B01221A60154B40
:101B800001221A603B4B01221A603B4B01221A6072
:101B900004213A4808F094FE0021394808F090FEEC
:101BA0002A4B01221A7006E000BFFFF7AABA00BF55
:101BB000FFF7A7BA00BFFFF7A4BA00BFAFF30080DA
:101BC0009A9999999999993F3C00002040000020EA
:101BD0000800002064000020780B00203000002066
:101BE0003400002017B751387C0B0020680A002011
:101BF000980A00204C0000205000002044000020E3
:101C0000480000208C0B0020880B0020900B002047
:101C10006C0A00209C0B002038000020640A002081
:101C2000D4060020660A002000080048A10B00200E
:101C3000380900200004004800100048000C00484B
:101C400000140048A0080020940B0020970B0020EF
:101C5000900A0020840B0020140000200024744906
:101C6000180000202C000020800B002060000020C5
:101C7000740A002004000020700A0020EC080020F4
:101C8000BC07002080B594B000AF07F118033822DC
:101C90000021184610F06BFB3B1D00221A605A60B1
:101CA0009A60DA601A614FF4007007F001FB22239A
:101CB000BB614FF480737B624023BB6201233B63B3
:101CC00002237B630223BB630423FB634B233B643C
:101CD00002237B640223BB640223FB6407F1180325
:101CE000184607F099FB0346002B01D002F02CF9AF
:101CF0000F237B600323BB600023FB6000233B6159
:101D000000237B613B1D0421184607F097FE034624
:101D1000002B01D002F018F900BF5037BD4680BD3E
:101D200080B58CB000AF07F1240300221A605A601E
:101D30009A603B1D20220021184610F018FB324B00
:101D40004FF0A0421A60304B4FF440325A602E4B95
:101D500000229A602C4B0022DA602B4B00221A6181
:101D6000294B00225A61284B04229A61264B0022FB
:101D70001A77254B00225A77234B01221A62224BF5
:101D8000002283F82420204B0022DA621E4B00221E
:101D90001A631D4B002283F838201B4B0022DA63A4
:101DA000194B002283F84020174803F0BBF9034683
:101DB000002B01D002F0C8F800237B6207F1240356
:101DC0001946114804F0D0FA0346002B01D002F066
:101DD000BBF80E4B7B600623BB600723FB607F23B1
:101DE0003B6104237B610023BB613B1D1946064810
:101DF00003F03CFC0346002B01D002F0A5F800BF25
:101E00003037BD4680BD00BFDC030020000084CB1E
:101E100080B58CB000AF07F1240300221A605A602D
:101E20009A603B1D20220021184610F0A0FA574B63
:101E3000574A1A60554B4FF4A0125A60534B002278
:101E40009A60524B0022DA60504B00221A614F4BCD
:101E500001225A614D4B04229A614C4B00221A77A1
:101E60004A4B01225A77494B05221A62474B0022FE
:101E700083F82420454B0022DA62444B00221A6387
:101E8000424B012283F83820404B4FF48052DA63F2
:101E90003E4B002283F840203C4803F043F90346C0
:101EA000002B01D002F050F800237B6207F12403DD
:101EB0001946364804F058FA0346002B01D002F0C8
:101EC00043F8344B7B600623BB600023FB607F2319
:101ED0003B6100237B612623BB614FF08073FB6174
:101EE000002387F820303B1D1946284803F0BEFB2D
:101EF0000346002B01D002F027F8274B7B600C2310
:101F0000BB6001237B612523BB613B1D19461F4834
:101F100003F0ACFB0346002B01D002F015F81F4B79
:101F20007B601223BB6002237B610823BB613B1DE6
:101F30001946164803F09AFB0346002B01D002F025
:101F400003F8174B7B601823BB6004237B610023DD
:101F5000BB613B1D19460D4803F088FB0346002B6F
:101F600001D001F0F1FF0F4B7B604FF48073BB6039
:101F70003B1D1946054803F079FB0346002B01D0B1
:101F800001F0E2FF00BF3037BD4680BD48040020AD
:101F90000004005002003004040060080800900CA7
:101FA0001000C0102000F01480B588B000AF3B4690
:101FB00020220021184610F0DAF92B4B2B4A1A6028
:101FC000294B4FF4A0125A60274B00229A60264BEF
:101FD0000022DA60244B00221A61234B00225A614E
:101FE000214B04229A61204B00221A771E4B0122BA
:101FF0005A771D4B01221A621B4B002283F82420C2
:10200000194B0022DA62184B00221A63164B012288
:1020100083F83820144B4FF48052DA63124B0022BD
:1020200083F84020104803F07DF80346002B01D0D0
:1020300001F08AFF0E4B3B6006237B600723BB60E9
:102040007F23FB6004233B6100237B613B461946F1
:10205000054803F00BFB0346002B01D001F074FF91
:1020600000BF2037BD4680BDB404002000050050ED
:102070000200300480B588B000AF3B46202200212A
:10208000184610F074F9314B314A1A602F4B4FF457
:10209000A0125A602D4B00229A602C4B0022DA606D
:1020A0002A4B00221A61294B00225A61274B042235
:1020B0009A61264B00221A77244B01225A77234B30
:1020C00001221A62214B002283F824201F4B002298
:1020D000DA621E4B00221A631C4B012283F838205F
:1020E0001A4B0022DA63194B012283F84020174B68
:1020F0001C225A64154B4FF480729A64134B0022D1
:10210000DA64124B01221A65104803F00BF80346FB
:10211000002B01D001F018FF0E4B3B6006237B60C3
:102120000023BB607F23FB6004233B6100237B61B2
:102130003B461946054803F099FA0346002B01D0A7
:1021400001F002FF00BF2037BD4680BD2005002002
:10215000000600500200300480B500AF064B074A6D
:102160001A60054804F008FA0346002B01D001F07C
:10217000EBFE00BF80BD00BFAC060020000C02409B
:1021800080B58CB000AF3B4630220021184610F0DD
:10219000EEF81E4B1E4A1A601C4804F036FC03463B
:1021A000002B01D001F0D0FE02233B6000233B71E5
:1021B00000237B710023BB600023FB6000233B6195
:1021C00000237B610123BB610023FB613B460022AE
:1021D00019460E4804F036FD0346002B01D001F0ED
:1021E000B3FE3B4610221946084804F02BFD034677
:1021F000002B01D001F0A8FE044B064A9A60054B63
:10220000024A9A6200BF3037BD4680BDD406002026
:1022100000080050FC06002080B58CB000AF3B46A3
:1022200030220021184610F0A2F8164B164A1A6008
:10223000144804F0EAFB0346002B01D001F084FEB1
:1022400002233B6000233B7100237B710023BB60B2
:102250000023FB6000233B6100237B610123BB6102
:102260000023FB613B4600221946064804F0EAFCC5
:102270000346002B01D001F067FE00BF3037BD469A
:1022800080BD00BFE8060020000C005080B598B06B
:1022900000AF07F1540300221A605A609A6007F1F8
:1022A000380300221A605A609A60DA601A615A6133
:1022B0009A613B1D34220021184610F058F83E4B1D
:1022C0003E4A1A603C4B00225A603B4B00229A6007
:1022D000394BD222DA60384B00221A61364B002289
:1022E0005A61354B00229A61334808F080F9034661
:1022F000002B01D001F028FE00237B650023BB6585
:102300000023FB6507F1540319462B4809F0B6FB7F
:102310000346002B01D001F017FE6023BB630023AE
:10232000FB6300233B6400237B640023BB64002326
:10233000FB6400233B6507F13803002219461E4861
:1023400008F0AAFC0346002B01D001F0FDFD1A4B5A
:102350001B689A69184B1B6822F008029A610023D7
:102360007B600023BB600023FB6000233B610023F4
:102370007B614FF40053BB610023FB6100233B6290
:1023800000237B624FF00073BB620023FB620023DB
:102390003B6300237B633B1D1946074809F004FC9F
:1023A0000346002B01D001F0CFFD034802F074F981
:1023B00000BF6037BD4680BDBC070020002C014037
:1023C00080B58EB000AF07F1280300221A605A6072
:1023D0009A60DA6007F11C0300221A605A609A6062
:1023E0003B4600221A605A609A60DA601A615A61AC
:1023F0009A612D4B2D4A1A602B4B00225A602A4BB2
:1024000000229A60284B40F2A722DA60264B002275
:102410001A61254B00229A61234807F079FF034691
:10242000002B01D001F090FD4FF48053BB6207F107
:10243000280319461C4808F043FD0346002B01D031
:1024400001F082FD184808F0D2F80346002B01D0B5
:1024500001F07AFD0023FB6100237B6207F11C037E
:102460001946114809F00AFB0346002B01D001F080
:102470006BFD60233B6000237B600023BB60002377
:102480003B613B4600221946074808F005FC03461D
:10249000002B01D001F058FD034802F0FDF800BF09
:1024A0003837BD4680BD00BF080800200008004046
:1024B00080B584B000AF3B1D00221A605A609A605C
:1024C000194B1A4A1A60184B42F61D525A60164BA5
:1024D00000229A60144B4FF6A652DA60124B00228B
:1024E0009A61114807F014FF0346002B01D001F058
:1024F0002BFD00237B600023FB603B1D19460A482F
:1025000009F0BCFA0346002B01D001F01DFD0022AA
:102510000021362004F045FA362004F05CFA00BFB2
:102520001037BD4680BD00BF540800200010004099
:1025300080B584B000AF3B1D00221A605A609A60DB
:10254000144B154A1A60134B43F697225A60114BED
:1025500000229A600F4B0922DA600E4B00229A612A
:102560000C4807F0D5FE0346002B01D001F0ECFC2F
:1025700000237B600023FB603B1D1946054809F0E2
:102580007DFA0346002B01D001F0DEFC00BF1037BE
:10259000BD4680BDA00800200014004080B598B062
:1025A00000AF07F1540300221A605A609A6007F1E5
:1025B000380300221A605A609A60DA601A615A6120
:1025C0009A613B1D3422002118460FF0D0FE3E4B8D
:1025D0003E4A1A603C4B00225A603B4B00229A60F4
:1025E000394BD222DA60384B00221A61364B002276
:1025F0005A61354B00229A61334807F0F8FF0346D1
:10260000002B01D001F0A0FC00237B650023BB65FB
:102610000023FB6507F1540319462B4809F02EFAF5
:102620000346002B01D001F08FFC6023BB63002325
:10263000FB6300233B6400237B640023BB64002313
:10264000FB6400233B6507F13803042219461E484A
:1026500008F022FB0346002B01D001F075FC1A4B59
:102660001B689A69184B1B6822F400629A61002368
:102670007B600023BB600023FB6000233B610023E1
:102680007B614FF40053BB610023FB6100233B627D
:1026900000237B624FF00073BB620023FB620023C8
:1026A0003B6300237B633B1D1946074809F07CFA16
:1026B0000346002B01D001F047FC034801F0ECFF7A
:1026C00000BF6037BD4680BDEC08002000340140EB
:1026D00080B588B000AF07F1100300221A605A607D
:1026E0009A60DA603B1D00221A605A609A601F4BA4
:1026F0001F4A1A601D4B40F2DB525A601B4B0022EE
:102700009A601A4B0422DA60184B00221A61174BA8
:1027100000225A61154B00229A61144807F0F8FD17
:102720000346002B01D001F00FFC4FF480533B61B6
:1027300007F1100319460D4808F0C2FB0346002BB1
:1027400001D001F001FC00237B600023FB603B1DF6
:102750001946064809F092F90346002B01D001F012
:10276000F3FB00BF2037BD4680BD00BF3809002005
:102770000040014080B500AF0F4B104A1A600E4B6D
:1027800043F697225A600C4B00229A600A4B0922AA
:10279000DA60094B00221A61074B00225A61064B8E
:1027A00000229A61044807F0B3FD0346002B01D0D4
:1027B00001F0CAFB00BF80BD840900200044014035
:1027C00080B500AF224B234A1A60214B4FF4E1320F
:1027D0005A601F4B00229A601D4B0022DA601C4B8E
:1027E00000221A611A4B0C225A61194B00229A617D
:1027F000174B0022DA61164B00221A62144B00229A
:102800005A62134B00229A62114809F0A7FA034654
:10281000002B01D001F098FB00210D480AF042F88E
:102820000346002B01D001F08FFB002108480AF07D
:1028300077F80346002B01D001F086FB044809F02D
:10284000F8FF0346002B01D001F07EFB00BF80BDE6
:10285000D0090020004C004080B582B000AF224B70
:102860009B6C214A43F0040393641F4B9B6C03F061
:1028700004037B607B681C4B9B6C1B4A43F0010389
:102880009364194B9B6C03F001033B603B6800228F
:1028900000210B2004F085F80B2004F09CF80022A6
:1028A00000210C2004F07DF80C2004F094F80022A4
:1028B00000210D2004F075F80D2004F08CF80022A2
:1028C00000210E2004F06DF80E2004F084F80022A0
:1028D00000210F2004F065F80F2004F07CF800BF01
:1028E0000837BD4680BD00BF0010024080B58CB0E7
:1028F00000AF07F11C0300221A605A609A60DA6088
:102900001A619A4BDB6C994A43F01003D364974BDE
:10291000DB6C03F01003BB61BB69944BDB6C934A27
:1029200043F00403D364914BDB6C03F004037B613D
:102930007B698E4BDB6C8D4A43F02003D3648B4B59
:10294000DB6C03F020033B613B69884BDB6C874AFF
:1029500043F00103D364854BDB6C03F00103FB60A0
:10296000FB68824BDB6C814A43F00203D3647F4BEC
:10297000DB6C03F00203BB60BB687C4BDB6C7B4A07
:1029800043F00803D364794BDB6C03F008037B60EE
:102990007B6800222021764804F022FF01224FF4B8
:1029A0000071744804F01CFF00222821724804F0D2
:1029B00017FF002204216F4804F012FF01224FF498
:1029C00081716B4804F00CFF012240216A4804F039
:1029D00007FF01220121694804F002FF0122802142
:1029E000674804F0FDFE40F61503FB6100233B62DF
:1029F00000237B6207F11C0319465D4804F056FD75
:102A00002023FB6101233B6200237B620023BB6226
:102A100007F11C031946564804F048FD4FF40073B3
:102A2000FB6111233B6200237B620023BB6207F141
:102A30001C0319464F4804F039FD4FF48063FB61D5
:102A400000233B6200237B6207F11C0319464948BF
:102A500004F02CFD4FF40173FB6100233B62002363
:102A60007B6207F11C031946434804F01FFD28232D
:102A7000FB6101233B6200237B620023BB6207F101
:102A80001C0319463C4804F011FD0423FB6101239B
:102A90003B6200237B620023BB6207F11C031946E3
:102AA000344804F003FD0123FB6100233B62002353
:102AB0007B6207F11C031946314804F0F7FC4FF420
:102AC0008173FB6111233B6200237B620023BB62A5
:102AD00007F11C031946264804F0E8FC4023FB617B
:102AE00011233B6200237B620023BB6207F11C03BE
:102AF0001946214804F0DAFC4FF48063FB6100239F
:102B00003B6200237B6207F11C0319464FF09040A3
:102B100004F0CCFC0123FB6111233B6200237B62A8
:102B20000023BB6207F11C031946144804F0BEFCE5
:102B30007023FB6100233B6200237B6207F11C03CF
:102B400019460E4804F0B2FC8023FB6111233B625E
:102B500000237B620023BB6207F11C03194608486F
:102B600004F0A4FC00BF3037BD4680BD0010024019
:102B7000001000480014004800080048000C0048FD
:102B80000004004880B483B000AF03460A46FB71DE
:102B90001346BB71FB79042B39D801A252F823F0FC
:102BA000B52B0008C32B0008D12B0008ED2B000823
:102BB000FB2B0008BB79002B2BD10123FB710123D8
:102BC00031E0BB79002B26D10223FB7102232AE0DE
:102BD000BB79012B03D10323FB71032323E0BB79D2
:102BE000032B1AD10423FB7104231CE0BB79022BB5
:102BF00015D10123FB71012315E0BB79002B10D106
:102C00000C4B00221A600223FB7102230BE000BF71
:102C100008E000BF06E000BF04E000BF02E000BF24
:102C200000E000BFFB7918460C37BD465DF8047B19
:102C3000704700BF9C0B002080B485B000AF786067
:102C40007B68642B01D964237B600B4BDB68013309
:102C50007A6802FB03F3094AA2FB03235B09013BE9
:102C6000FB60054B1B68FA685A6300BF1437BD460A
:102C70005DF8047B704700BF080800201F85EB51FA
:102C800080B584B000AF78607B681B682E4A9342A1
:102C90004FD12E4B1B78DBB2002B4AD00023FB60B8
:102CA0000023BB600BE02A4ABB6832F813309BB2AA
:102CB0001A46FB681344FB60BB680133BB60BB680A
:102CC000092BF0DDFB68234AA2FB0323DB0840F657
:102CD000E44202FB03F31B0B9AB21F4B1A801E4BFC
:102CE0001B88A3F2AA531846FDF744FC14A3D3E9AA
:102CF0000023FDF7A9FC02460B4610461946FDF7D6
:102D000053FF03461AB2154B1A80144BB3F9003027
:102D100013F57A7F03DA114B4FF618421A800F4BE6
:102D2000B3F90030B3F57A7F03DD0C4B4FF47A72C0
:102D30001A8000BF1037BD4680BD00BFAFF30080D2
:102D4000FA7E6ABC7493D83F00060050A10B0020A5
:102D50009C0A0020CDCCCCCCB00A0020980A0020E0
:102D600080B489B000AFF860B9607A60334BBB6162
:102D7000FB685B6801337B617B697A6802FB03F364
:102D8000BA69B2FBF3F3013BFB61FB69B3F5803F2A
:102D900014D3FB691B0C7A6902FB03F301337B61DB
:102DA0007B697A6802FB03F3BA69B2FBF3F3013B78
:102DB000FB61FB681B687A69013A9A62FB681B68D1
:102DC000FA69DA62FB68FA69DA60FB695B083B6101
:102DD000BB68002B04D1FB681B683A695A6323E087
:102DE000BB68042B04D1FB681A683B6993631BE042
:102DF000BB68082B04D1FB681A683B69D36313E0F6
:102E0000BB680C2B04D1FB681A683B6913640BE0A8
:102E1000BB68102B04D1FB681A683B69936403E01C
:102E2000FB681A683B69D364FB681B6801225A611E
:102E300000BF2437BD465DF8047B704780D1F008A1
:102E400080B500AF0121184804F0B2FC0346002B06
:102E500026D01021144804F0ABFC0346002B1FD0F1
:102E60000421114804F0A4FC0346002B18D04FF4B1
:102E700000610D4804F09CFC0346002B10D040215B
:102E80000A4804F095FC0346002B09D04FF400716A
:102E9000074804F08DFC0346002B01D0002300E01E
:102EA0000123184680BD00BF00100048000C0048F8
:102EB0000008004880B500AF1021114804F078FCEC
:102EC0000346002B19D001210E4804F071FC034683
:102ED000002B12D04FF480610B4804F069FC0346CC
:102EE000002B0AD04FF480614FF0904004F060FC5A
:102EF0000346002B01D0012300E00023184680BDCB
:102F0000000C0048000400480014004800000000C5
:102F1000B0B582B000AF78607B681B68704A93429E
:102F200040F0B1806F4B1B78022B40F0A5806E4BB8
:102F30009B889BB2F03B1846FDF71CFB62A3D3E9CC
:102F40000023FDF781FB02460B461046194660A39D
:102F5000D3E90023FDF778FB02460B4610461946DD
:102F6000FDF74AFE0346614A1360614B5B889BB2E2
:102F7000EE3B1846FDF7FEFA53A3D3E90023FDF715
:102F800063FB02460B461046194651A3D3E90023C2
:102F9000FDF75AFB02460B4610461946FDF72CFE7C
:102FA0000346544A1360544B1B881846FDF7E2FA57
:102FB00004460D46514B1B681846FDF7DBFA46A345
:102FC000D3E90023FDF740FB02460B462046294685
:102FD000FDF784F902460B4610461946FDF70CFE34
:102FE000034600220021464803F0F4FD454B1B88B0
:102FF0001846FDF7BFFA04460D46434B1B681846BA
:10300000FDF7B8FA34A3D3E90023FDF71DFB024610
:103010000B4620462946FDF761F902460B4610464D
:103020001946FDF7E9FD034600221021344803F05C
:10303000D1FD314B1B881846FDF79CFA04460D461E
:10304000324B1B681846FDF795FA4FF00002304BE3
:10305000FDF7FAFA02460B4620462946FDF73CF9F1
:1030600002460B4610461946FDF7C6FD03460022F0
:103070000021284803F0AEFD0821274804F0C8FBD2
:10308000264B01221A707B681B68254A934201D1A6
:1030900000F0DAF97B681B68224A934210D10221C2
:1030A000214804F0B5FB4FF40071204804F0B0FB58
:1030B000002220211C4804F093FB1D4807F068FA09
:1030C00000BF0837BD46B0BDD3BCE3141DC9E93FFE
:1030D0000000000000A077409A9999999999993F2A
:1030E00000400140970B0020800A0020740A002055
:1030F0008C0A002004000020640A0020680A0020D6
:10310000D4060020660A00206C0A0020700A002005
:103110000000D03FE806002000080048A10B002076
:103120000010004000140040001000480014004847
:10313000A008002080B485B000AFF860B9607A6064
:1031400087ED000ABA68FB68D31A0A2B19DD7B6881
:1031500007EE903AB8EEE77AD7ED007A27EE277AB5
:10316000244BD3ED007A77EE277A224BC3ED007A19
:10317000204BD3ED007AFDEEE77A17EE903AFB6034
:103180001EE0BA68FB68D31A13F10A0F18DA194B5C
:1031900093ED007A7B6807EE903AF8EEE76AD7ED98
:1031A000007A66EEA77A77EE677A124BC3ED007A63
:1031B000104BD3ED007AFDEEE77A17EE903AFB6004
:1031C000BB68323BFA689A420CDBBB68FB60BB68A9
:1031D00007EE903AF8EEE77A064BC3ED007A064B1D
:1031E00001221A70FB6818461437BD465DF8047B4F
:1031F000704700BF840B0020900A002080B489B083
:1032000000AFF861B9617A613B6187ED030AC7EDF0
:10321000020A87ED011A3A697B69D31A324A1360B0
:10322000BB691B68304A1168304A12680A4407EECD
:10323000902AB8EEE77A97ED036AD7ED027AC6EEE8
:10324000276AD7ED017A66EEA77AF6EE006A67EE96
:10325000A67A67EE277AFDEEE77A17EE902A1A44EF
:10326000BB691A60204B1B68204A1360BB691B684E
:10327000BA6A9A4202DCBB69BA6A1A60BB691B6807
:10328000FA6A9A4202DBBB69FA6A1A60164B1B683B
:1032900007EE903AB8EEE77AD7ED037A27EE277A71
:1032A000BB691B6807EE903AF8EEE77A77EE277A6B
:1032B000FDEEE77A17EE902AFB691A60FB691B683E
:1032C000BA6A9A4202DCFB69BA6A1A60FB691B6837
:1032D000FA6A9A4202DBFB69FA6A1A6000BF243775
:1032E000BD465DF8047B7047940A0020800B0020E7
:1032F00080B48BB000AFF861B9617A613B6187ED52
:10330000030AC7ED020A87ED011A3A6B3B69D31A2B
:103310007B62BB691B687A6911687A6A0A4407EEA6
:10332000902AB8EEE77A97ED036AD7ED027AC6EEF7
:10333000276AD7ED017A66EEA77AF6EE006A67EEA5
:10334000A67A67EE277AFDEEE77A17EE902A1A44FE
:10335000BB691A607B697A6A1A60BB691B687A6B01
:103360009A4202DCBB697A6B1A60BB691B68BA6B54
:103370009A4202DBBB69BA6B1A607B6A07EE903A2D
:10338000B8EEE77AD7ED037A27EE277ABB691B6898
:1033900007EE903AF8EEE77A77EE277AFDEEE77AD5
:1033A00017EE902AFB691A60FB691B687A6B9A42D8
:1033B00002DCFB697A6B1A60FB691B68BA6B9A4284
:1033C00002DBFB69BA6B1A6000BF2C37BD465DF8A3
:1033D000047B704700000000B0B582B000AF87EDFD
:1033E000010AC7ED000A3868FDF7D6F812A3D3E941
:1033F0000023FDF729F902460B4614461D4678685E
:10340000FDF7CAF80EA3D3E90023FDF71DF9024624
:103410000B4620462946FCF761FF02460B46104644
:103420001946FDF709FC034607EE903AB0EE670A2D
:103430000837BD46B0BD00BFCDCCCCCCCCCCEC3F2A
:103440009A9999999999B93F80B582B000AF444B48
:10345000DB889BB21A4640F6E44302FB03F3002BE1
:1034600001DA03F6FF731B131A463E4B1A603C4BFE
:103470001B899BB21A4640F6E44302FB03F3002B80
:1034800001DA03F6FF731B131A46374B1A60142335
:103490003B60344B1B68A3F5C873344AA2FB03237B
:1034A0001B09304A1360304B1B68A3F5FA732F4A8F
:1034B000A2FB0323DB082C4A13602B4B1A68294B11
:1034C0001B68934238BF13463B603B68642202FB93
:1034D00003F3A3F5FA63254AA2FB03239B097B6050
:1034E0007B68642B01D964237B607868FDF732F830
:1034F00002460B469FED161B43EC102B12F018FFF3
:1035000051EC100B14A3D3E90023FDF79DF80246FC
:103510000B4610461946FDF747FB0346144A82FB4B
:1035200003129214DB17D31A1433124A13603B6848
:10353000132B03D80F4B14221A6005E03B68642B51
:1035400002D90C4B63221A6000BF0837BD4680BD0C
:1035500000000000000008400000000000C05340D0
:10356000800A0020780A00207C0A0020CDCCCCCC38
:1035700083DE1B435800002080B584B000AF786024
:103580007868FCF79DFE0346FB81FB897F2B01D900
:103590007F23FB81FB891A4679680B480EF079FF7F
:1035A000FB89094A0021D154FB89194678680DF03E
:1035B000D9FA03467B737B7B012BF5D000BF00BF9C
:1035C0001037BD4680BD00BFF40A002080B582B030
:1035D00002AFA14B1B78DBB2002B00F03F8206222A
:1035E0009E499F480EF0CBFE0346002B08D19D4A12
:1035F0009D499B480EF04AFE9C48FFF7BDFF25E21F
:1036000006229B4996480EF0BAFE0346002B08D1CD
:10361000984A994992480EF039FE9848FFF7ACFF56
:1036200014E2082296498E480EF0A9FE0346002BAC
:1036300008D1944A94498A480EF028FE9348FFF72F
:103640009BFF03E20C22924985480EF098FE034648
:10365000002B08D18F4A904981480EF017FE8F4801
:10366000FFF78AFFF2E10C228D497D480EF087FEBC
:103670000346002B08D18B4A8B4979480EF006FE91
:103680008A48FFF779FFE1E10D22894974480EF07D
:1036900076FE0346002B08D1864A874970480EF013
:1036A000F5FD8648FFF768FFD0E10C2284496C489D
:1036B0000EF065FE0346002B08D1824A8249684815
:1036C0000EF0E4FD8148FFF757FFBFE10C2280496F
:1036D00063480EF054FE0346002B08D17D4A7E4914
:1036E0005F480EF0D3FD7D48FFF746FFAEE10D22A7
:1036F0007B495B480EF043FE0346002B0DD1794A0F
:10370000794957480EF0C2FD764B1B685B42774AF9
:1037100013607748FFF730FF98E10C227549504855
:103720000EF02DFE0346002B08D1734A73494C4816
:103730000EF0ACFD7248FFF71FFF87E10C227149C4
:1037400047480EF01CFE0346002B08D16E4A6F4915
:1037500043480EF09BFD6E48FFF70EFF76E1062210
:103760006C493F480EF00BFE0346002B0ED13D4B3B
:103770001B681846FCF710FF02460B46664967486F
:103780000EF062FD6548FFF7F7FE5FE1062264492F
:1037900033480EF0F4FD0346002B0ED1354B1B6869
:1037A0001846FCF7F9FE02460B465E495B480EF0F0
:1037B0004BFD5A48FFF7E0FE48E108225A492848E5
:1037C0000EF0DDFD0346002B0AD12E4B1B681A4676
:1037D000564952480EF038FD5048FFF7CDFE35E10E
:1037E0000C2253491E480EF0CAFD0346002B0AD195
:1037F000284B1B881A464F4948480EF025FD47487C
:10380000FFF7BAFE22E10C224B4915480EF0B7FD36
:103810000346002B0AD1234B1B881A4647493F48D1
:103820000EF012FD3D48FFF7A7FE0FE10D224449BF
:103830000B480EF0A4FD0346002B40F085801D4B85
:10384000B3F900301A463F4934480EF0FDFC3348C6
:10385000FFF792FEFAE000BF740B002048720108E7
:10386000B40A002030000020507201085C72010888
:103870006872010834000020707201087C7201082F
:10388000887201080000002094720108A4720108E7
:10389000B4720108640A0020C4720108D4720108DD
:1038A000F4720108660A0020047301081473010809
:1038B00034730108980A0020447301085873010802
:1038C0006C730108440000207C7301088C730108AC
:1038D000A073010848000020B0730108C0730108FC
:1038E000D47301084C000020E4730108500000204C
:1038F000F87301080C740108140000201C740108FE
:103900002C7401084074010818000020507401084C
:1039100060740108747401087C740108F40A0020C2
:1039200088740108907401089C740108A874010847
:10393000B4740108C4740108E0740108F07401084B
:103940000C7501081C7501080C22464946480EF00A
:1039500016FD0346002B0ED1444B1B681846FCF79E
:103960001BFE02460B46424942480EF06DFC4148A0
:10397000FFF702FE6AE00C223F493B480EF0FFFCD5
:103980000346002B0ED13D4B1B681846FCF704FE86
:1039900002460B463A4937480EF056FC3548FFF7C9
:1039A000EBFD53E00E2237492F480EF0E8FC0346AA
:1039B000002B0FD1344B1A68344B1968344B1B68F9
:1039C00000930B4633492B480EF03EFC2948FFF785
:1039D000D3FD3BE00C22304923480EF0D0FC0346D7
:1039E000002B0ED12D4B1B681846FCF7D5FD024667
:1039F0000B462B491F480EF027FC1E48FFF7BCFD65
:103A000024E00C22274918480EF0B9FC0346002B8D
:103A10000ED1254B1B681846FCF7BEFD02460B462F
:103A2000224914480EF010FC1248FFF7A5FD0DE0E6
:103A30000B221F490C480EF0A2FC0346002B02D1BA
:103A400000F086F902E01B48FFF796FD40220021B6
:103A500005480EF08CFC184B00221A7000BFBD46C2
:103A600080BD00BF2C750108B40A0020440000206E
:103A70003C750108F40A00204C750108480000203C
:103A80005C7501086C750108900B0020680A002025
:103A90006C0A00207C750108B07501081400002034
:103AA000C0750108D075010818000020E0750108F4
:103AB000F0750108FC750108740B002080B487B014
:103AC00000AF87ED030AB8600B46FB71FB79202B32
:103AD00035D1D7ED037AB7EE007AF4EEC77AF1EE7E
:103AE00010FA11D8BB6807EE903AB8EEE77AD7ED36
:103AF000037A67EE277A9FED327A67EE877AFCEEDB
:103B0000E77A17EE903A7B61D7ED037AB7EE007A49
:103B1000F4EEC77AF1EE10FA11DDBB6807EE903AC9
:103B2000B8EEE77AD7ED036AC6EE877A9FED247A7E
:103B300067EE877AFCEEE77A17EE903A7B61FB79C5
:103B4000102B35D1D7ED037AB7EE007AF4EEC77AB1
:103B5000F1EE10FA11D8BB6807EE903AB8EEE77AAA
:103B6000D7ED037A67EE277A9FED167A67EE877AAC
:103B7000FCEEE77A17EE903A7B61D7ED037AB7EE69
:103B8000007AF4EEC77AF1EE10FA11DDBB6807EEA9
:103B9000903AB8EEE77AD7ED036AC6EE877A9FEDE2
:103BA000097A67EE877AFCEEE77A17EE903A7B6146
:103BB0007B6918461C37BD465DF8047B704700BF23
:103BC0000000004F00FEFF4680B487B000AFF860F1
:103BD000B96011461A460B46FB711346BB71BB799F
:103BE000202B2BD197F90730002B11D0FB6807EE63
:103BF000903AF8EEE77A9FED2E7AC7EE876ABB68B7
:103C000007EE903AB8EEE77AC6EE877AC7ED057A06
:103C100097F90730002B11D1FB6807EE903AF8EEC8
:103C2000E77ADFED236A87EEA67ABB6807EE903A63
:103C3000F8EEE77A67EE277AC7ED057ABB79102BA5
:103C40002BD197F90730002B11D0FB6807EE903A83
:103C5000F8EEE77A9FED177AC7EE876ABB6807EE42
:103C6000903AB8EEE77AC6EE877AC7ED057A97F90B
:103C70000730002B11D1FB6807EE903AF8EEE77A97
:103C8000DFED0C6A87EEA67ABB6807EE903AF8EE95
:103C9000E77A67EE277AC7ED057A7B6907EE903AF7
:103CA000B0EE670A1C37BD465DF8047B704700BF65
:103CB0000000004F00FEFF4680B584B000AF87EDE6
:103CC000010AD7ED017ABFEE007AF4EEC77AF1EE81
:103CD00010FA02D51A4B7B600BE0D7ED017AB7EEF4
:103CE000007AF4EEC77AF1EE10FA02DD4FF07E535F
:103CF0007B60B7EE007AD7ED017A77EE677AB0EEA7
:103D0000670A12F085FB87ED030AD7ED017A9FED74
:103D10000D7A67EE877A9FED0C7A37EEC77AD7ED8A
:103D2000017A67EE277A9FED097A37EE877AD7ED29
:103D3000037A67EE277AB0EE670A1037BD4680BD7A
:103D4000000080BF9E3AB63DCABF5B3EDA0FC93F56
:103D500080B5A0B000AF5E4B1B681846FCF71CFC9A
:103D600002460B4638465B490EF06EFA3B46184653
:103D7000FFF702FC584B1B681846FCF70DFC024687
:103D80000B46384655490EF05FFA3B461846FFF79A
:103D9000F3FB534B1A683B46524918460EF054FA4F
:103DA0003B461846FFF7E8FB4F4B1A683B464F4926
:103DB00018460EF049FA3B461846FFF7DDFB4C4B20
:103DC0001A683B464B4918460EF03EFA3B461846E9
:103DD000FFF7D2FB484B1A683B46484918460EF09D
:103DE00033FA3B461846FFF7C7FB454B1A683B467C
:103DF000444918460EF028FA3B461846FFF7BCFB2C
:103E0000414B1A683B46414918460EF01DFA3B46A5
:103E10001846FFF7B1FB3E4B1A683B463D49184632
:103E20000EF012FA3B461846FFF7A6FB3A4B1A680B
:103E30003B463A4918460EF007FA3B461846FFF74C
:103E40009BFB374B1B881A463B46364918460EF0FB
:103E5000FBF93B461846FFF78FFB334B1B881A468E
:103E60003B46324918460EF0EFF93B461846FFF73D
:103E700083FB2F4BB3F900301A463B462D491846B9
:103E80000EF0E2F93B461846FFF776FB2A4B1B681B
:103E90001846FCF781FB02460B46384627490EF0D0
:103EA000D3F93B461846FFF767FB254B1B681846BE
:103EB000FCF772FB02460B46384622490EF0C4F965
:103EC0003B461846FFF758FB00BF8037BD4680BD14
:103ED000300000207C740108340000209074010838
:103EE00000000020A8740108680A0020107601086C
:103EF0006C0A00201C760108700A00202876010850
:103F0000740A002034760108040000204876010875
:103F1000780A0020607601087C0A0020707601088B
:103F2000640A0020C4740108660A0020F0740108C5
:103F3000980A00201C75010814000020C0750108B3
:103F400018000020E075010880B400AF72B600BF11
:103F500000BFFDE780B582B000AF0F4B1B6E0E4A6D
:103F600043F0010313660C4B1B6E03F001037B60EF
:103F70007B68094B9B6D084A43F080539365064B61
:103F80009B6D03F080533B603B6805F035FA00BF42
:103F90000837BD4680BD00BF0010024080B5A4B008
:103FA00000AF786007F17C0300221A605A609A60C3
:103FB000DA601A6107F128035422002118460EF036
:103FC000D6F97B681B68B3F1A04F1CD14FF40043B6
:103FD000BB624FF00053FB6607F12803184605F05B
:103FE00049FF0346002B01D0FFF7AEFF864BDB6C89
:103FF000854A43F40053D364834BDB6C03F40053D2
:104000007B627B6A85E17B681B68804A934240F053
:1040100087804FF48033BB624FF080433B6707F1EA
:104020002803184605F026FF0346002B01D0FFF7B2
:104030008BFF774B1B680133754A1360744B1B6809
:10404000012B0BD1704BDB6C6F4A43F48043D3647C
:104050006D4BDB6C03F480433B623B6A6A4BDB6C69
:10406000694A43F00203D364674BDB6C03F002033D
:10407000FB61FB69644BDB6C634A43F01003D36460
:10408000614BDB6C03F01003BB61BB6942F20203BE
:10409000FB670323C7F880300023C7F8843007F19B
:1040A0007C0319465B4803F001FA4FF40A53FB679F
:1040B0000323C7F880300023C7F8843007F17C035E
:1040C0001946554803F0F2F9544B554A1A60534BC0
:1040D00025225A60514B00229A60504B0022DA6030
:1040E0004E4B80221A614D4B4FF480725A614B4BFC
:1040F0004FF480629A61494B2022DA61474B0022DB
:104100001A62464802F060FF0346002B01D0FFF719
:104110001BFF7B68414A5A65404A7B689362F8E01E
:104120007B681B683F4A934240F082804FF48033A3
:10413000BB624FF080433B6707F12803184605F048
:1041400099FE0346002B01D0FFF7FEFE304B1B68A3
:1041500001332F4A13602E4B1B68012B0BD12A4BC6
:10416000DB6C294A43F48043D364274BDB6C03F4B4
:1041700080437B617B69244BDB6C234A43F0100353
:10418000D364214BDB6C03F010033B613B694FF4BC
:104190008043FB670323C7F880300023C7F88430CF
:1041A00007F17C0319461C4803F080F91E4B1F4A97
:1041B0001A601D4B26225A601B4B00229A601A4B34
:1041C0000022DA60184B80221A61174B4FF480727C
:1041D0005A61154B4FF480629A61134B2022DA61C9
:1041E000114B4FF440521A620F4802F0EDFE0346A5
:1041F000002B01D0FFF7A8FE7B680B4A5A650A4ADC
:104200007B68936285E000BF00100240000400500C
:10421000C00B002000040048001000488C0500205E
:104220000800024000050050EC0500201C00024080
:104230007B681B68394A93426BD14FF48033BB6271
:104240004FF080433B6707F12803184605F012FE44
:104250000346002B01D0FFF777FE314B1B6801337B
:104260002F4A13602E4B1B68012B0BD12D4BDB6C9F
:104270002C4A43F48043D3642A4BDB6C03F4804321
:10428000FB60FB68274BDB6C264A43F00103D364D9
:10429000244BDB6C03F00103BB60BB684FF48073FD
:1042A000FB670323C7F880300023C7F8843007F189
:1042B0007C0319464FF0904003F0F8F81A4B1B4A64
:1042C0001A60194B27225A60174B00229A60164B2E
:1042D0000022DA60144B80221A61134B4FF4807273
:1042E0005A61114B4FF480629A610F4B2022DA61C0
:1042F0000D4B00221A620C4802F066FE0346002BAA
:1043000001D0FFF721FE7B68074A5A65064A7B68A1
:10431000936200BF9037BD4680BD00BF00060050CD
:10432000C00B0020001002404C060020300002406C
:1043300080B485B000AF78607B681B680A4A9342FE
:104340000BD10A4B9B6C094A43F008039364074B5B
:104350009B6C03F00803FB60FB6800BF1437BD468D
:104360005DF8047B704700BF000C02400010024063
:1043700080B58CB000AF786007F11C0300221A6092
:104380005A609A60DA601A617B681B685B4A9342E4
:1043900059D15B4BDB6C5A4A43F48033D364584B9E
:1043A000DB6C03F48033BB61BB69554BDB6C544A57
:1043B00043F00103D364524BDB6C03F001037B61D8
:1043C0007B693023FB6103233B6200237B6207F19F
:1043D0001C0319464FF0904003F068F8494B4A4AD5
:1043E0001A60484B06225A60464B10229A60454B91
:1043F0000022DA60434B80221A61424B4FF4007274
:104400005A61404B4FF400629A613E4B2022DA61C0
:104410003C4B4FF400521A623A4802F0D5FD034675
:10442000002B01D0FFF790FD7B68364A9A60354A31
:104430007B68936200220021362002F0B2FA362017
:1044400002F0C9FA55E07B681B68304A934250D1AC
:104450002B4BDB6C2A4A43F40033D364284BDB6CD0
:1044600003F400333B613B69254BDB6C244A43F08A
:104470000103D364224BDB6C03F00103FB60FB6898
:104480004023FB6103233B6200237B6207F11C0393
:1044900019464FF0904003F009F81D4B1D4A1A6071
:1044A0001B4B29225A601A4B10229A60184B00228B
:1044B000DA60174B80221A61154B4FF400725A6173
:1044C000134B4FF400629A61114B2022DA61104BBA
:1044D0004FF400521A620E4802F076FD0346002B9C
:1044E00001D0FFF731FD7B68094A9A60084A7B6872
:1044F000936200BF3037BD4680BD00BF000800504A
:1045000000100240FC06002044000240000C005055
:104510005C0700205800024080B584B000AF78608E
:104520007B681B681A4A934214D11A4B1B6E194AB6
:1045300043F400631366174B1B6E03F40063FB60C8
:10454000FB6800220021182002F02BFA182002F04C
:1045500042FA18E07B681B680F4A934213D10D4B57
:104560001B6E0C4A43F4005313660A4B1B6E03F494
:104570000053BB60BB68002200212B2002F011FA1F
:104580002B2002F028FA00BF1037BD4680BD00BFC7
:10459000002C0140001002400034014080B588B07A
:1045A00000AF78607B681B68354A93420CD1354B6D
:1045B0009B6D344A43F004039365324B9B6D03F0CB
:1045C0000403FB61FB6956E07B681B682E4A93423B
:1045D00014D12C4B9B6D2B4A43F010039365294B50
:1045E0009B6D03F01003BB61BB69002200213620E4
:1045F00002F0D7F9362002F0EEF93CE07B681B6848
:10460000224A93420CD11F4B9B6D1E4A43F020035C
:1046100093651C4B9B6D03F020037B617B692AE053
:104620007B681B681A4A934214D1164B1B6E154ABD
:1046300043F480331366134B1B6E03F480333B61EA
:104640003B6900220021182002F0ABF9182002F08B
:10465000C2F910E07B681B680E4A93420BD1094BEC
:104660001B6E084A43F400331366064B1B6E03F4BB
:104670000033FB60FB6800BF2037BD4680BD00BF34
:1046800000080040001002400010004000140040EC
:10469000004001400044014080B58AB000AF78601E
:1046A00007F1140300221A605A609A60DA601A61F6
:1046B0007B681B68334A93421CD1334BDB6C324A14
:1046C00043F00403D364304BDB6C03F004033B6121
:1046D0003B6901237B610223BB610023FB61022351
:1046E0003B6202237B6207F114031946274802F05C
:1046F000DDFE43E07B681B68254A93421DD1224BB7
:10470000DB6C214A43F00803D3641F4BDB6C03F0DE
:104710000803FB60FB684FF480537B610223BB619D
:104720000023FB6100233B6202237B6207F1140339
:104730001946184802F0BAFE20E07B681B68164A4A
:1047400093421BD1104BDB6C0F4A43F00403D3643C
:104750000D4BDB6C03F00403BB60BB6880237B6103
:104760000223BB610023FB6102233B6204237B62C3
:1047700007F114031946054802F098FE00BF2837D8
:10478000BD4680BD002C01400010024000080048DA
:1047900000080040000C00480034014080B59EB085
:1047A00000AF786007F1640300221A605A609A60D3
:1047B000DA601A6107F110035422002118460DF047
:1047C000D6FD7B681B681F4A934236D108233B61A4
:1047D00080233B6207F11003184605F04BFB0346AC
:1047E000002B01D0FFF7B0FB174B9B6D164A43F42B
:1047F00000239365144B9B6D03F40023FB60FB685F
:10480000114BDB6C104A43F00403D3640E4BDB6C9A
:1048100003F00403BB60BB684FF440637B66022374
:10482000BB660023FB6600233B6705237B6707F11C
:1048300064031946054802F039FE00BF7837BD46CB
:1048400080BD00BF004C004000100240000800483E
:1048500080B400AF00BFFDE780B400AF00BFFDE74C
:1048600080B400AF00BFFDE780B400AF00BFFDE73C
:1048700080B400AF00BFFDE780B400AF00BFBD460D
:104880005DF8047B704780B400AF00BFBD465DF8A3
:10489000047B704780B400AF00BFBD465DF8047B69
:1048A000704780B500AF00F0B9F900BF80BD0000CF
:1048B00080B500AF024802F0AAFC00BF80BD00BF77
:1048C0008C05002080B500AF024802F0A0FC00BFBC
:1048D00080BD00BFEC05002080B500AF024802F0AB
:1048E00096FC00BF80BD00BF4C06002080B500AF25
:1048F000024802F08CFC00BF80BD00BFFC06002017
:1049000080B500AF024802F082FC00BF80BD00BF4E
:104910005C07002080B500AF024803F083F800BFB9
:1049200080BD00BFA020002080B500AF034806F086
:1049300063F8034806F060F800BF80BDBC070020A4
:104940003809002080B500AF024806F055F800BFD6
:1049500080BD00BFEC08002080B500AF034806F022
:104960004BF8034802F0E0F800BF80BD5408002077
:10497000D406002080B400AF01231846BD465DF880
:10498000047B704780B582B000AF786039600DF06D
:1049900053FD034616221A604FF0FF3318460837BE
:1049A000BD4680BD80B582B000AF78604FF0FF316A
:1049B0007868FFF7E7FF00BFFDE780B586B000AF7E
:1049C000F860B9607A6000237B610AE0AFF3008091
:1049D0000146BB685A1CBA60CAB21A707B690133BF
:1049E0007B617A697B689A42F0DB7B6818461837EE
:1049F000BD4680BD80B586B000AFF860B9607A6012
:104A000000237B6109E0BB685A1CBA601B7818461A
:104A1000AFF300807B6901337B617A697B689A42DE
:104A2000F1DB7B6818461837BD4680BD80B483B083
:104A300000AF78604FF0FF3318460C37BD465DF885
:104A4000047B704780B483B000AF786039603B6806
:104A50004FF400525A60002318460C37BD465DF8EB
:104A6000047B704780B483B000AF786001231846A0
:104A70000C37BD465DF8047B704780B485B000AF4D
:104A8000F860B9607A60002318461437BD465DF8B7
:104A9000047B704780B586B000AF7860144A154B30
:104AA000D31A7B617B693B61134B1B68002B02D1DE
:104AB000114B124A1A60104B1A687B6813443A690A
:104AC0009A4207D20DF0B8FC03460C221A604FF050
:104AD000FF3309E0084B1B68FB60074B1A687B68D3
:104AE0001344054A1360FB6818461837BD4680BD5D
:104AF0000000022000040000C40B0020E826002073
:104B000080B400AF064BD3F88830054A43F47003F5
:104B1000C2F8883000BFBD465DF8047B704700BF17
:104B200000ED00E00D488546FFF7EAFF0C480D490F
:104B30000D4A002302E0D458C4500433C4188C42F8
:104B4000F9D30A4A0A4C002301E013600432A2425E
:104B5000FBD30DF077FCFCF78BFAFEE70000022098
:104B600000000020C0030020B07B0108C00300202B
:104B7000E8260020FEE780B582B000AF0023FB717D
:104B8000032001F003FF002000F00EF80346002B85
:104B900002D00123FB7101E0FFF7DCF9FB79184635
:104BA0000837BD4680BD000080B584B000AF786096
:104BB0000023FB73164B1B68002B22D0154B1A6881
:104BC000134B1B684FF47A71B1FBF3F3B2FBF3F3B1
:104BD000184601F00EFF0346002B0FD17B680F2B08
:104BE00009D8002279684FF0FF3001F0DAFE0A4A56
:104BF0007B68136007E00123FB7304E00123FB7370
:104C000001E00123FB73FB7B18461037BD4680BDD6
:104C10007C000020740000207800002080B400AFE9
:104C2000054B1A68054B1B681344034A136000BF09
:104C3000BD465DF8047B7047C80B00207C00002057
:104C400080B400AF034B1B681846BD465DF8047B7B
:104C5000704700BFC80B002080B584B000AF7860FB
:104C6000FFF7EEFFB8607B68FB60FB68B3F1FF3FC6
:104C700004D0094B1B68FA681344FB6000BFFFF7C0
:104C8000DFFF0246BB68D31AFA689A42F7D800BF22
:104C900000BF1037BD4680BD7C00002080B483B0CB
:104CA00000AF786039607B689B6823F47C123B68B6
:104CB0001A437B689A6000BF0C37BD465DF8047BE1
:104CC000704780B483B000AF786039607B689B68C0
:104CD00023F0E0723B681A437B689A6000BF0C3790
:104CE000BD465DF8047B704780B483B000AF786048
:104CF0007B689B6803F0E07318460C37BD465DF88F
:104D0000047B704780B487B000AFF860B9607A6008
:104D10003B60FB6860331A46BB689B0013447B61B1
:104D20007B691A68084B13407A6802F0F8413A68C8
:104D30000A43134343F000427B691A6000BF1C37EB
:104D4000BD465DF8047B704700F0FF0380B485B07A
:104D500000AF786039607B6860331A463B689B001F
:104D60001344FB60FB681B6803F0F84318461437D4
:104D7000BD465DF8047B704780B487B000AFF86033
:104D8000B9607A60FB6860331A46BB689B001344C5
:104D90007B617B691B6823F000427B681A437B6957
:104DA0001A6000BF1C37BD465DF8047B704780B4B5
:104DB00087B000AFF860B9607A60FB6860331A466C
:104DC000BB689B0013447B617B691B6823F0807286
:104DD0007B681A437B691A6000BF1C37BD465DF8CB
:104DE000047B704780B487B000AFF860B9607A6028
:104DF000FB6860331A46BB689B0013447B617B6988
:104E00001B6823F000727B681A437B691A6000BF3D
:104E10001C37BD465DF8047B704780B483B000AF9B
:104E2000786039607B685B6923F000423B681A4315
:104E30007B685A6100BF0C37BD465DF8047B704744
:104E400080B483B000AF78607B68DB6803F44063B4
:104E5000002B01D1012300E0002318460C37BD468A
:104E60005DF8047B704780B487B000AFF860B9602C
:104E70007A60FB6830331A46BB681B0A9B0003F05C
:104E80000C0313447B617B691A68BB6803F01F0342
:104E90001F2101FA03F3DB431A407B689B0E03F0EA
:104EA0001F01BB6803F01F0301FA03F31A437B6978
:104EB0001A6000BF1C37BD465DF8047B704780B4A4
:104EC00087B000AFF860B9607A60FB6814331A46A7
:104ED000BB685B0E9B0003F0040313447B617B699A
:104EE0001A68BB681B0D03F01F03072101FA03F3C7
:104EF000DB431A40BB681B0D03F01F03796801FAFE
:104F000003F31A437B691A6000BF1C37BD465DF886
:104F1000047B704780B485B000AFF860B9607A60F8
:104F2000FB68D3F8B020BB68C3F31203DB431A401D
:104F30007B6803F018030849D940BB680B40C3F3F2
:104F400012031A43FB68C3F8B02000BF1437BD46F4
:104F50005DF8047B704700BFFFFF070080B483B09B
:104F600000AF78607B689B6803F01F0318460C371E
:104F7000BD465DF8047B704780B483B000AF7860B5
:104F80007B689B6823F0204323F03F037A6893609B
:104F900000BF0C37BD465DF8047B704780B483B01A
:104FA00000AF78607B689B6803F00053B3F1005F4B
:104FB00001D1012300E0002318460C37BD465DF8FF
:104FC000047B704780B483B000AF78607B689B68D7
:104FD00023F0104323F03F0343F080527B689A6034
:104FE00000BF0C37BD465DF8047B704780B483B0CA
:104FF00000AF78607B689B6803F08053B3F1805FFB
:1050000001D1012300E0002318460C37BD465DF8AE
:10501000047B704780B483B000AF78607B689B6886
:1050200023F0004323F03F0343F001027B689A60C2
:1050300000BF0C37BD465DF8047B704780B483B079
:1050400000AF78607B689B6823F0004323F03F0348
:1050500043F002027B689A6000BF0C37BD465DF8E2
:10506000047B704780B483B000AF78607B689B6836
:1050700003F00103012B01D1012300E000231846B6
:105080000C37BD465DF8047B704780B483B000AF39
:1050900078607B689B6803F00203022B01D1012337
:1050A00000E0002318460C37BD465DF8047B7047CE
:1050B00080B483B000AF78607B689B6823F00043C6
:1050C00023F03F0343F004027B689A6000BF0C3773
:1050D000BD465DF8047B704780B483B000AF786054
:1050E0007B689B6803F00403042B01D1012300E0DB
:1050F000002318460C37BD465DF8047B704780B42A
:1051000083B000AF78607B689B6803F00803082BCE
:1051100001D1012300E0002318460C37BD465DF89D
:10512000047B704790B589B000AF78600023FB77AF
:105130000023FB607B68002B01D10123A9E17B6880
:105140005B69002B7B68DB6D002B09D17868FEF76B
:1051500025FF7B6800221A667B68002283F85820AE
:105160007B681B681846FFF719FF0346002B04D025
:105170007B681B681846FFF7FFFE7B681B681846B4
:10518000FFF734FF0346002B15D17B681B681846D8
:10519000FFF718FF9C4B1B689B099C4AA2FB03234B
:1051A0009B0901335B00FB6002E0FB68013BFB6095
:1051B000FB68002BF9D17B681B681846FFF716FFC8
:1051C0000346002B0DD17B68DB6D43F010027B683A
:1051D000DA657B681B6E43F001027B681A66012367
:1051E000FB777B681B681846FFF776FF78617B6862
:1051F000DB6D03F01003002B40F042817B69002B34
:1052000040F03E817B68DB6D23F4817343F0020242
:105210007B68DA657B681B681846FFF723FF034647
:10522000002B41D17B681B68B3F1A04F04D07B6891
:105230001B68774A93420FD14FF0A040FFF712FF4F
:1052400004467348FFF70EFF03462343002B0CBFB1
:1052500001230023DBB212E06E48FFF703FF044690
:105260006D48FFF7FFFE03461C436C48FFF7FAFE4C
:1052700003462343002B0CBF01230023DBB2002B8A
:1052800012D07B681B68B3F1A04F04D07B681B6809
:105290005F4A934201D1624A00E0624A7B685B68E0
:1052A00019461046FFF7FAFC7B685B7F5A037B6860
:1052B000DB6B1A437B68DB681A437B689B681A4385
:1052C0007B6893F824301B041343BB617B6893F81D
:1052D0002430012B06D17B689B6A013B5B04BA69D1
:1052E0001343BB617B68DB6A002B09D07B68DB6AF8
:1052F00003F478727B681B6B1343BA691343BB6179
:105300007B681B68DA68484B13407A681268B96991
:105310000B43D3607B681B681B6923F040617B688B
:105320005A6B7B681B680A431A617B681B681846C6
:10533000FFF7E5FE38617B69002B7FD13B69002BCD
:105340007CD17B681B7F9A037B6893F838305B00C5
:105350001343BB617B681B68DB6823F4804323F045
:1053600002037A681268B9690B43D3607B681B69D2
:10537000002B17D07B681B681A697B681B6842F496
:1053800080321A617B681B68D3F8C03023F47F53E6
:1053900023F03F037A6811697A6812680B43C2F8F8
:1053A000C03013E07B681B681A697B681B6822F4B5
:1053B00080321A617B681B68D3F8C0307A68126843
:1053C00023F47F5323F03F03C2F8C0307B6893F887
:1053D0004030012B2AD17B681B681B6923F4FF63D3
:1053E00023F004037A68516C7A68926C11437A68EE
:1053F000D26C11437A68126D0A431A437B681B68AA
:1054000042F001021A6119E074000020632D3E058C
:10541000000100500004005000050050000600503C
:1054200000030050000700500740F0FF7B681B6836
:105430001A697B681B6822F001021A617B685B694C
:10544000012B0CD17B681B681B6B23F00F017B6861
:105450001B6A5A1E7B681B680A431A6307E07B6855
:105460001B681A6B7B681B6822F00F021A637B684B
:10547000DB6D23F0030343F001027B68DA6507E08C
:105480007B68DB6D43F010027B68DA650123FB77F4
:10549000FB7F18462437BD4690BD00BF80B586B05F
:1054A00000AFF860B9607A60FB681B68B3F1A04F89
:1054B00004D0FB681B685A4A934201D1594B00E063
:1054C000594B1846FFF74AFD3861FB681B681846C0
:1054D000FFF702FE0346002B40F09B80FB6893F829
:1054E0005830012B01D1022396E0FB68012283F89A
:1054F0005820FB681B684D4A934208D03B69002B3B
:1055000005D03B69052B02D03B69092B7AD1F8689D
:1055100000F0ECFC0346FB75FB7D002B6DD1FB68B6
:10552000DB6D23F4706323F0010343F48072FB68A6
:10553000DA65FB681B683A4A934209D0FB681B682E
:105540003B4A934202D0FB681B6803E0394B01E001
:105550004FF0A043FA681268934202D03B69002BD7
:1055600005D1FB68DB6D23F48012FB68DA65FB680C
:10557000DB6D03F48053002B06D0FB681B6E23F019
:105580000602FB681A6602E0FB6800221A66FB68E6
:105590005B6D294ADA62FB685B6D284A1A63FB6817
:1055A0005B6D274A5A63FB681B681C221A60FB6804
:1055B000002283F85820FB681B685A68FB681B6848
:1055C00042F010025A60FB681B68DA68FB681B68CF
:1055D00042F00102DA60FB68586DFB681B684033DB
:1055E0001946BA687B6801F097FD0346FB75FB68B6
:1055F0001B681846FFF75CFD0DE0FB68002283F88E
:10560000582008E00123FB75FB68002283F858202E
:1056100001E00223FB75FB7D18461837BD4680BDAF
:105620000001005000030050000700500006005029
:105630000005005000040050D7600008AF6100086A
:10564000CB61000880B483B000AF786000BF0C3736
:10565000BD465DF8047B704780B483B000AF7860CE
:1056600000BF0C37BD465DF8047B704780B5B6B00F
:1056700000AF78603960002387F8D7300023FB60E3
:105680007B6893F85830012B02D1022300F013BC41
:105690007B68012283F858207B681B681846FFF757
:1056A0001BFD0346002B40F0F3837B6818683B68C2
:1056B00059683B681B681A46FFF7D5FB7B681B6877
:1056C0001846FFF709FDC7F8D0007B681B6818462D
:1056D000FFF715FDC7F8CC00D7F8D030002B40F00D
:1056E000D981D7F8CC30002B40F0D4813B689B683F
:1056F000B3F1004F0FD17B6818683B681B6800222C
:105700001946FFF7DCFB7B681B684FF00041184629
:10571000FFF783FB0EE07B6818683B6819683B68FD
:105720009B681A46FFF7CBFB7B681B680021184675
:10573000FFF773FB3B685A697B681B68DB68DB0813
:1057400003F003035B0002FA03F3C7F8C8303B68B9
:105750001B69042B22D07B6818683B6819693B6879
:105760001A68D7F8C830FFF7CDFA7B6818683B682D
:1057700019693B689B691A46FFF719FB7B68186833
:105780003B6819693B681B7F012B02D14FF0007306
:1057900000E000231A46FFF725FB7BE17B681B68CE
:1057A00000211846FFF7D2FA0346C3F31203002B79
:1057B0000AD17B681B6800211846FFF7C7FA034629
:1057C0009B0E03F01F021EE07B681B680021184639
:1057D000FFF7BCFA0346C7F8BC30D7F8BC3093FAE1
:1057E000A3F3C7F8C030D7F8C030C7F8B830D7F83F
:1057F000B830002B01D1202304E0D7F8B830B3FA39
:1058000083F3DBB21A463B681B68C3F31203002B19
:1058100005D13B681B689B0E03F01F0318E03B6833
:105820001B68C7F8B030D7F8B03093FAA3F3C7F8C5
:10583000AC30D7F8AC30C7F8B430D7F8B430002B60
:1058400001D1202304E0D7F8B430B3FA83F3DBB2FC
:105850009A4206D17B681B68002200211846FFF798
:105860008BFA7B681B6801211846FFF76FFA034625
:10587000C3F31203002B0AD17B681B680121184671
:10588000FFF764FA03469B0E03F01F021EE07B68DD
:105890001B6801211846FFF759FA0346C7F8A430E0
:1058A000D7F8A43093FAA3F3C7F8A030D7F8A03004
:1058B000C7F8A830D7F8A830002B01D1202304E086
:1058C000D7F8A830B3FA83F3DBB21A463B681B68FB
:1058D000C3F31203002B05D13B681B689B0E03F03A
:1058E0001F0318E03B681B68C7F89830D7F898305A
:1058F00093FAA3F3C7F89430D7F89430C7F89C30E4
:10590000D7F89C30002B01D1202304E0D7F89C303D
:10591000B3FA83F3DBB29A4206D17B681B6800229C
:1059200001211846FFF728FA7B681B6802211846F8
:10593000FFF70CFA0346C3F31203002B0AD17B686E
:105940001B6802211846FFF701FA03469B0E03F07D
:105950001F021EE07B681B6802211846FFF7F6F95C
:105960000346C7F88C30D7F88C3093FAA3F3C7F806
:105970008830D7F88830C7F89030D7F89030002BAF
:1059800001D1202304E0D7F89030B3FA83F3DBB2DF
:105990001A463B681B68C3F31203002B05D13B6812
:1059A0001B689B0E03F01F0316E03B681B68C7F8DB
:1059B0008030D7F8803093FAA3F3FB67FB6FC7F80A
:1059C0008430D7F88430002B01D1202304E0D7F8AD
:1059D0008430B3FA83F3DBB29A4206D17B681B684A
:1059E000002202211846FFF7C7F97B681B680321D4
:1059F0001846FFF7ABF90346C3F31203002B0AD195
:105A00007B681B6803211846FFF7A0F903469B0E2D
:105A100003F01F0217E07B681B6803211846FFF79D
:105A200095F903467B677B6F93FAA3F33B673B6F64
:105A3000BB67BB6F002B01D1202303E0BB6FB3FA20
:105A400083F3DBB21A463B681B68C3F31203002BD7
:105A500005D13B681B689B0E03F01F0311E03B68F8
:105A60001B68BB66BB6E93FAA3F37B667B6EFB661B
:105A7000FB6E002B01D1202303E0FB6EB3FA83F30E
:105A8000DBB29A4206D17B681B68002203211846CC
:105A9000FFF772F97B681B681846FFF7E3FA0346C5
:105AA000002B40F03D817B6818683B6819683B68B3
:105AB000DB681A46FFF72EFA3B68DB68A24A93427E
:105AC00040F02E817B6818683B681B68C3F31203A3
:105AD000002B0BD13B681B689B0E013303F01F03A7
