:020000040800F2
:10000000000002209D460008DD430008E54300088B
:10001000ED430008F5430008FD4300080000000020
:10002000000000000000000000000000054400087F
:100030001344000800000000214400082F44000879
:10004000ED460008ED460008ED460008ED460008C4
:10005000ED460008ED460008ED460008ED460008B4
:10006000ED460008ED460008ED4600083D44000856
:100070005144000865440008794400088D44000894
:10008000ED460008ED460008ED460008ED46000884
:10009000A1440008ED460008ED460008ED460008C2
:1000A000B5440008ED460008ED460008ED4600089E
:1000B000ED460008ED460008ED460008ED46000854
:1000C000ED460008ED460008ED460008ED46000844
:1000D000ED460008ED460008ED460008ED46000834
:1000E000ED460008ED460008ED460008ED46000824
:1000F000ED460008ED460008ED460008ED46000814
:10010000ED460008ED460008ED460008ED46000803
:10011000ED460008ED460008D1440008ED46000811
:10012000ED460008ED460008ED460008ED460008E3
:10013000ED460008ED460008ED460008ED460008D3
:10014000ED460008ED460008ED460008ED460008C3
:10015000ED460008ED460008ED460008ED460008B3
:10016000ED460008ED460008ED460008ED460008A3
:10017000ED460008ED460008ED460008ED46000893
:10018000ED460008ED460008ED460008ED46000883
:10019000ED46000800000000ED460008ED460008AE
:1001A000ED460008ED460008ED460008ED46000863
:1001B000ED460008ED460008ED460008ED46000853
:1001C000ED460008ED460008ED460008ED46000843
:0801D000ED460008ED460008B1
:1001E00010B5054C237833B9044B13B10448AFF371
:1001F00000800123237010BDB00300200000000028
:100200005C6C010808B5034B1BB103490348AFF30D
:10021000008008BD00000000B40300205C6C0108F1
:1002200001F0FF01102A2BDB10F0070F08D010F8A7
:10023000013B013A8B422DD010F0070F42B3F6D1AB
:10024000F0B441EA012141EA014122F007047FF0C4
:1002500000070023F0E80256083C85EA010586EA1B
:10026000010685FA47F5A3FA87F586FA47F6A5FA57
:1002700087F68EB9EED1F0BC01F0FF0102F0070263
:1002800032B110F8013B013A83EA010313B1F8D10E
:100290000020704701387047002D06BF35460338EF
:1002A000073815F0010F07D1013015F4807F02BF28
:1002B000013015F4C03F0130F0BC0138704700BF79
:1002C000034613F8012B002AFBD1181A0138704796
:1002D00081F0004102E000BF83F0004330B54FEAF7
:1002E00041044FEA430594EA050F08BF90EA020F64
:1002F0001FBF54EA000C55EA020C7FEA645C7FEAF7
:10030000655C00F0E2804FEA5454D4EB5555B8BF19
:100310006D420CDD2C4480EA020281EA030382EA8A
:10032000000083EA010180EA020281EA0303362D1C
:1003300088BF30BD11F0004F4FEA01314FF4801CEF
:100340004CEA113102D0404261EB410113F0004F01
:100350004FEA03334CEA133302D0524263EB4303B8
:1003600094EA050F00F0A780A4F10104D5F1200E56
:100370000DDB02FA0EFC22FA05F2801841F10001B1
:1003800003FA0EF2801843FA05F359410EE0A5F185
:1003900020050EF1200E012A03FA0EFC28BF4CF0B6
:1003A000020C43FA05F3C01851EBE37101F000456C
:1003B00007D54FF0000EDCF1000C7EEB00006EEB79
:1003C0000101B1F5801F1BD3B1F5001F0CD3490803
:1003D0005FEA30004FEA3C0C04F101044FEA44525A
:1003E00012F5800F80F09A80BCF1004F08BF5FEAE1
:1003F000500C50F1000041EB045141EA050130BDC1
:100400005FEA4C0C404141EB0101013C28BFB1F5D2
:10041000801FE9D291F0000F04BF01460020B1FA1D
:1004200081F308BF2033A3F10B03B3F120020CDAF0
:100430000C3208DD02F1140CC2F10C0201FA0CF0CE
:1004400021FA02F10CE002F11402D8BFC2F1200C33
:1004500001FA02F120FA0CFCDCBF41EA0C019040E9
:10046000E41AA2BF01EB0451294330BD6FEA040432
:100470001F3C1CDA0C340EDC04F11404C4F120021D
:1004800020FA04F001FA02F340EA030021FA04F32F
:1004900045EA030130BDC4F10C04C4F1200220FA86
:1004A00002F001FA04F340EA0300294630BD21FAC4
:1004B00004F0294630BD94F0000F83F4801306BF8A
:1004C00081F480110134013D4EE77FEA645C18BF7E
:1004D0007FEA655C29D094EA050F08BF90EA020F15
:1004E00005D054EA000C04BF1946104630BD91EA0D
:1004F000030F1EBF0021002030BD5FEA545C05D110
:100500004000494128BF41F0004130BD14F580044E
:100510003CBF01F5801130BD01F0004545F0FE41C2
:1005200041F470014FF0000030BD7FEA645C1ABFF7
:10053000194610467FEA655C1CBF0B46024650EA2E
:10054000013406BF52EA033591EA030F41F400215A
:1005500030BD00BF90F0000F04BF0021704730B5E0
:100560004FF4806404F132044FF000054FF00001B5
:1005700050E700BF90F0000F04BF0021704730B576
:100580004FF4806404F1320410F0004548BF40424B
:100590004FF000013EE700BF42004FEAE2014FEAA0
:1005A00031014FEA02701FBF12F07F4393F07F4F7B
:1005B00081F06051704732F07F4208BF704793F07E
:1005C0007F4F04BF41F40021704730B54FF4607491
:1005D00001F0004521F000411CE700BF50EA010294
:1005E00008BF704730B54FF000050AE050EA01023D
:1005F00008BF704730B511F0004502D5404261EBAD
:1006000041014FF4806404F132045FEA915C3FF4ED
:10061000D8AE4FF003025FEADC0C18BF03325FEA8A
:10062000DC0C18BF033202EBDC02C2F1200300FA3B
:1006300003FC20FA02F001FA03FE40EA0E0021FA60
:1006400002F11444BDE600BF70B54FF0FF0C4CF44E
:10065000E06C1CEA11541DBF1CEA135594EA0C0F00
:1006600095EA0C0F00F0DEF82C4481EA030621EA3B
:100670004C5123EA4C5350EA013518BF52EA033576
:1006800041F4801143F4801338D0A0FB02CE4FF028
:100690000005E1FB02E506F00042E0FB03E54FF058
:1006A0000006E1FB03569CF0000F18BF4EF0010E50
:1006B000A4F1FF04B6F5007F64F5407404D25FEA4C
:1006C0004E0E6D4146EB060642EAC62141EA5551FF
:1006D0004FEAC52040EA5E504FEACE2EB4F1FD0C41
:1006E00088BFBCF5E06F1ED8BEF1004F08BF5FEABF
:1006F000500E50F1000041EB045170BD06F0004671
:1007000046EA010140EA020081EA0301B4EB5C041D
:10071000C2BFD4EB0C0541EA045170BD41F4801115
:100720004FF0000E013C00F3AB8014F1360FDEBF3A
:10073000002001F0004170BDC4F10004203C35DA16
:100740000C341BDC04F11404C4F1200500FA05F399
:1007500020FA04F001FA05F240EA020001F000423A
:1007600021F0004110EBD37021FA04F642EB0601B0
:100770005EEA430E08BF20EAD37070BDC4F10C04DA
:10078000C4F1200500FA04F320FA05F001FA04F29E
:1007900040EA020001F0004110EBD37041F100018A
:1007A0005EEA430E08BF20EAD37070BDC4F1200595
:1007B00000FA05F24EEA020E20FA04F301FA05F2FD
:1007C00043EA020321FA04F001F0004121FA04F2A5
:1007D00020EA020000EBD3705EEA430E08BF20EA75
:1007E000D37070BD94F0000F0FD101F000464000AF
:1007F00041EB010111F4801F08BF013CF7D041EA31
:10080000060195F0000F18BF704703F00046520034
:1008100043EB030313F4801F08BF013DF7D043EA05
:100820000603704794EA0C0F0CEA135518BF95EABB
:100830000C0F0CD050EA410618BF52EA4306D1D142
:1008400081EA030101F000414FF0000070BD50EA61
:10085000410606BF1046194652EA430619D094EAEB
:100860000C0F02D150EA013613D195EA0C0F05D1D5
:1008700052EA03361CBF104619460AD181EA030129
:1008800001F0004141F0FE4141F470014FF00000E1
:1008900070BD41F0FE4141F4780170BD70B54FF07C
:1008A000FF0C4CF4E06C1CEA11541DBF1CEA1355FC
:1008B00094EA0C0F95EA0C0F00F0A7F8A4EB0504DE
:1008C00081EA030E52EA03354FEA013100F08880D5
:1008D0004FEA03334FF0805545EA131343EA12639E
:1008E0004FEA022245EA111545EA10654FEA002653
:1008F0000EF000419D4208BF964244F1FD0404F50C
:10090000407402D25B084FEA3202B61A65EB030567
:100910005B084FEA32024FF480104FF4002CB6EB24
:10092000020E75EB030E22BFB61A754640EA0C00A4
:100930005B084FEA3202B6EB020E75EB030E22BFE4
:10094000B61A754640EA5C005B084FEA3202B6EB25
:10095000020E75EB030E22BFB61A754640EA9C00E4
:100960005B084FEA3202B6EB020E75EB030E22BFB4
:10097000B61A754640EADC0055EA060E18D04FEA72
:10098000051545EA16754FEA06164FEAC30343EA12
:1009900052734FEAC2025FEA1C1CC0D111F4801FDF
:1009A0000BD141EA00014FF000004FF0004CB6E7D8
:1009B00011F4801F04BF01430020B4F1FD0C88BF77
:1009C000BCF5E06F3FF6AFAEB5EB030C04BFB6EB82
:1009D000020C5FEA500C50F1000041EB045170BD75
:1009E0000EF0004E4EEA113114EB5C04C2BFD4EBA2
:1009F0000C0541EA045170BD41F480114FF0000E26
:100A0000013C90E645EA060E8DE60CEA135594EAA1
:100A10000C0F08BF95EA0C0F3FF43BAF94EA0C0FA4
:100A20000AD150EA01347FF434AF95EA0C0F7FF419
:100A300025AF104619462CE795EA0C0F06D152EA6D
:100A400003353FF4FDAE1046194622E750EA410651
:100A500018BF52EA43067FF4C5AE50EA41047FF462
:100A60000DAF52EA43057FF4EBAE12E74FF0FF3CC7
:100A700006E000BF4FF0010C02E000BF4FF0010C98
:100A80004DF804CD4FEA410C7FEA6C5C4FEA430C11
:100A900018BF7FEA6C5C1BD001B050EA410C0CBF60
:100AA00052EA430C91EA030F02BF90EA020F0020C2
:100AB000704710F1000F91EA030F58BF994208BF29
:100AC00090422CBFD8176FEAE37040F001007047E6
:100AD0004FEA410C7FEA6C5C02D150EA013C07D13D
:100AE0004FEA430C7FEA6C5CD6D152EA033CD3D088
:100AF0005DF8040B704700BF8446104662468C4682
:100B00001946634600E000BF01B5FFF7B7FF0028B4
:100B100048BF10F1000F01BD4DF808EDFFF7F4FFDD
:100B20000CBF012000205DF808FB00BF4DF808ED68
:100B3000FFF7EAFF34BF012000205DF808FB00BF8B
:100B40004DF808EDFFF7E0FF94BF012000205DF8AD
:100B500008FB00BF4DF808EDFFF7CEFF94BF012062
:100B600000205DF808FB00BF4DF808EDFFF7C4FF5B
:100B700034BF012000205DF808FB00BF4FEA410CA4
:100B80007FEA6C5C02D150EA013C0AD14FEA430C87
:100B90007FEA6C5C02D152EA033C02D14FF00000C4
:100BA00070474FF0010070474FEA410212F5001202
:100BB00015D211D56FF47873B3EB625212D94FEAA4
:100BC000C12343F0004343EA505311F0004F23FA8E
:100BD00002F018BF404270474FF00000704750EAE3
:100BE000013005D111F0004008BF6FF000407047A0
:100BF0004FF00000704700BF4A0011D212F50012FA
:100C000011D20DD56FF47873B3EB62520ED44FEA64
:100C1000C12343F0004343EA505323FA02F07047E4
:100C20004FF00000704750EA013002D14FF0FF3022
:100C300070474FF0000070474FEA4102B2F1E043C5
:100C400024BFB3F5001CDCF1FE5C0DD901F0004CB3
:100C50004FEAC0024CEA5070B2F1004F40EB830003
:100C600008BF20F00100704711F0804F21D113F12F
:100C70003872BCBF01F00040704741F480114FEA68
:100C80005252C2F11802C2F1200C10FA0CF320FAF1
:100C900002F018BF40F001004FEAC1234FEAD3230E
:100CA00003FA0CFC40EA0C0023FA02F34FEA430378
:100CB000CCE77FEA625307D150EA01331EBF4FF001
:100CC000FE4040F44000704701F0004040F0FE401C
:100CD00040F40000704700BF53B94AB9002908BF6B
:100CE00000281CBF4FF0FF314FF0FF3000F0A0B9DB
:100CF000ADF1080C6DE904CE00F03CF8DDF804E03D
:100D0000DDE9022304B0704738B500220023044611
:100D10000D46FFF70BFF28B920462946BDE83840AD
:100D200000F00AB8204605F1004100F005F8404205
:100D300061EB410138BD00BFD0B50C4B0022064627
:100D40000F46FFF781FCFFF757FF0446FFF702FC51
:100D5000074B0022FFF778FC02460B463046394627
:100D6000FFF7BAFAFFF748FF2146D0BD0000F03D7B
:100D70000000F0412DE9F047089D0C46002B4ED1B4
:100D800094468C458646B2FA82F262D94AB1C2F1E3
:100D90002003914020FA03F30CFA02FC194300FAF5
:100DA00002FE4FEA1C471FFA8CF6B1FBF7F44FEA3C
:100DB0001E4307FB141143EA014304FB06F1994269
:100DC0000AD91CEB030304F1FF3080F01281994231
:100DD00040F20F81023C6344591A1FFA8EF3B1FBB3
:100DE000F7F007FB101143EA014300FB06F69E42B1
:100DF0000AD91CEB030300F1FF3180F0FC809E4216
:100E000040F2F980634402389B1B40EA0440002111
:100E10001DB1D3400022C5E90032BDE8F0878B4206
:100E200005D90DB1C5E9000100210846F5E7B3FA7F
:100E300083F1002946D1A34202D39042C0F0F08052
:100E4000861A64EB03030120002DE6D0C5E9006398
:100E5000E3E7002A40F09080A1EB0C044FEA1C4825
:100E60001FFA8CF70121B4FBF8F64FEA1E4308FB8A
:100E7000164443EA044307FB06F0984208D91CEBEA
:100E8000030306F1FF3402D2984200F2CD802646D9
:100E90001C1A1FFA8EF3B4FBF8F008FB104443EA67
:100EA000044300FB07F79F4208D91CEB030300F142
:100EB000FF3402D29F4200F2B0802046DB1B40EAA2
:100EC0000640A5E7C1F120068B4022FA06F71F4332
:100ED00020FA06FC04FA01F343EA0C03F44000FA9A
:100EE00001F8380C4FEA1349B4FBF0FE1FFA87FCF7
:100EF00000FB1E4449EA04440EFB0CF9A14502FA2A
:100F000001F20AD93C190EF1FF3A80F08480A14524
:100F100040F28180AEF1020E3C44A4EB09041FFABA
:100F200083F9B4FBF0F300FB134449EA044403FBE8
:100F30000CFCA44507D93C1903F1FF3067D2A44546
:100F400065D9023B3C4443EA0E40A0FB0293A4EB6C
:100F50000C049C42CE469C4651D34ED055B1B8EBC2
:100F60000E0364EB0C0404FA06F6CB401E43CC409F
:100F7000C5E90064002150E7C2F1200320FA03F123
:100F80000CFA02FC24FA03F394400C434FEA1C4889
:100F900000FA02FE1FFA8CF7B3FBF8F008FB1031E1
:100FA000230C43EA014300FB07F1994208D91CEBEB
:100FB000030300F1FF362CD299422AD90238634448
:100FC0005B1AA4B2B3FBF8F108FB113344EA034403
:100FD00001FB07F3A34208D91CEB040401F1FF361F
:100FE00013D2A34211D902396444E41A41EA004100
:100FF00039E70446F0E6084606E7C845AED2B9EB45
:10100000020E63EB070C0138A8E73146EDE7034613
:1010100099E73046D4E7D6467FE7634402384DE788
:101020000646234608460FE7023E634430E700BF0A
:10103000704700BF00000000B0B584B002AF03F0FD
:1010400056FB00F0F5FC01F027FB01F0DBFA00F0A5
:10105000B5FD00F07FFE00F0E3FE00F067FF00F05A
:10106000B1FF00F0E9FF01F06FF901F07FFA00F045
:101070002DFD01F07BF80FF0BDF901F0FFF901F053
:101080004FFA01F02BF901F0E9F800F03BFF854B36
:1010900009221A60834B60229A61824B00225A60B7
:1010A000804B00221A617F4B00225A617D4B002247
:1010B0009A607C4B0022DA607A497B4805F04AF856
:1010C0000346002B01D002F00DFD01F073FD034635
:1010D0001A46764B1A70764B1B78DBB2002B04D085
:1010E00002F000F9724B00221A700421714806F0D8
:1010F0001BF903461A46704B1A706F4B1B78002B76
:101100000ED06E4B1B78002B0AD0684B1B78002B3F
:1011100006D16B4B00221A70684B00221A7019E03E
:10112000654B1B78002B0ED0664B1B78002B0AD02A
:101130005E4B1B78002B06D1614B03221A70614B6A
:1011400000221A7006E0604B1B78002B02D05C4B2B
:1011500002221A70584B1B78002B03D0534B1B787C
:10116000002B02D0564B01221A70584B1B78544A60
:1011700012781146184601F0DBFB03461A46534B22
:101180001A70524B1B78042B00F20E8401A252F805
:1011900023F000BFA911000867120008151300080A
:1011A000951800080919000801220421484806F092
:1011B000D3F8002220213F4806F0CEF8012220215A
:1011C000444806F0C9F84FF47A7003F001FB00229E
:1011D0002021404806F0C0F800213F4809F01AF8E5
:1011E00004213E4809F016F800213D4805F0ECF9CD
:1011F00010213B4805F0E8F900213A4805F0E4F9F0
:101200000021394809F006F8384808F005FF7F2129
:10121000374804F003FE7F21364804F0FFFD7F21AC
:10122000354804F0FBFD05223449314803F0F2FE55
:10123000022233492F4803F0EDFE0A2231492E489D
:1012400003F0E8FE142001F0CDFB2C4B1B889AB272
:101250002D4B1A80294B5B889AB22C4B1A801B4B62
:1012600001221A70A7E301F0DFFC03461A46284B5F
:101270001A70124B1B78002B00F099830E4B1B78D1
:10128000002B00F09483094B1B78002B40F08F83D8
:101290001F4B1B78002B00F08A830C4B02221A7024
:1012A00085E300BF880B00209C0600207C0B0020FB
:1012B000680B002000080048840B0020780B0020F9
:1012C00024000020790B00207A0B00207B0B0020EB
:1012D0000014004800100048AC070020DC08002083
:1012E000C4060020D8060020F8070020440800208B
:1012F00038040020A404002010050020700A0020FB
:10130000840A0020900A0020540A0020560A002077
:101310007D0B0020864B1B68002B07D10022042187
:10132000844806F019F8844808F076FE834B1B7851
:10133000002B00F03F83824B1B6807EE903AF8EEDB
:10134000677A804B1B6807EE103AB8EE477A7E4BFF
:101350001B6806EE903AF8EE666A7C4B1B6806EE58
:10136000103AB8EE466AF0EE461AB0EE661AF0EEA3
:10137000470AB0EE670A01F0A7FEF0EE407AFCEEF5
:10138000E77A17EE902A6F4B1A60714B1B6807EED5
:10139000903AF8EE677A6F4B1B6807EE103AB8EE9A
:1013A000477A6D4B1B6806EE903AF8EE666A6B4B17
:1013B0001B6806EE103AB8EE466AF0EE461AB0EE3A
:1013C000661AF0EE470AB0EE670A01F07DFEF0EE15
:1013D000407AFCEEE77A17EE902A5E4B1A60584B83
:1013E0001B68594A1360574B1B68584A1360584B87
:1013F0001B68594A1360574B1B68584A1360544B7B
:101400001B6807EE903AF8EE676A4D4B1B6807EED3
:10141000903AB8EE677AC6EE877A514BC3ED007A00
:101420004F4BD3ED007AB0EE007AF4EEC77AF1EECE
:1014300010FA40F1A5804A4BD3ED007AB7EE007A5E
:1014400077EE677AB0EE670A02F004FA10EE103A0F
:101450001846FFF7A1F832A3D3E90023FFF7F4F809
:1014600002460B4610461946FFF7E6FB03463D4A87
:1014700013603B4BD3ED007AB0EE007A37EE677A1B
:10148000374BD3ED007AC7EE276A20216420B0EEF7
:10149000660A02F0E1F80346334A136064230093BE
:1014A0000123324A3049324804F090FE2F4B18682D
:1014B000202301220A2102F055F9F0EE407A2D4B4B
:1014C000C3ED007A234B1B6807EE903AB8EE677ABB
:1014D000294BD3ED007A27EE277A264BD3ED007AFD
:1014E00067EE277A17EE900AFFF756F80EA3D3E9B6
:1014F0000023FFF7A9F802460B4610461946FFF7EE
:1015000053FB03461A461D4B1A601C4B1B68B3F570
:101510007A6F6FD9194B4FF47A621A606AE000BF94
:10152000F7055F1582B54E3EA8991D41249E7C3F6C
:10153000800B00200014004828090020850B0020A3
:10154000640A002030000020380000203C00002009
:101550007C0A0020340000204000002044000020CD
:10156000140000200400002050000020480000204B
:101570009C0600204C0000202C000020600A002067
:10158000A54BD3ED007AB0EE007AF4EEC77AF1EE17
:1015900010FA2FDBA04BD3ED007AB7EE007A77EE8E
:1015A000C77AF7EE006A86EEA77AB0EE470A02F035
:1015B00051F910EE103A1846FEF7EEFF02460B46C0
:1015C0008DA1D1E90001FEF787FE02460B461046C9
:1015D00019468BA3D3E90023FFF736F802460B46E2
:1015E00010461946FFF728FB03468C4A13608C4BC4
:1015F00000221A60894B1B681846FEF7CDFF82A3B4
:10160000D3E90023FFF792FA0346002B34D0834B33
:1016100093ED007AF7EE006AC6EE877AFDEEE77A80
:1016200017EE903A7B607B687E4A934201DD7E4BE9
:101630007B607E4B93ED007A7B6807EE903AF8EE84
:10164000E77A77EE677AFDEEE77A17EE903A002BAD
:10165000B8BF5B4242F20F7293420DDD7B681A46BF
:101660000021734801F036FA7B6807EE903AF8EEF5
:10167000E77A6E4BC3ED007A6E4B1B78002B01D1DD
:1016800001F00AFC6C4B1B6807EE903AF8EE677AA3
:101690006A4B1B8807EE103AB8EE477A684B1B6816
:1016A00006EE903AF8EE666A664B1B6806EE103A54
:1016B000B8EE466A644BD3ED005A644B93ED005A82
:1016C0009FED633AF0EE452AB0EE652AF0EE461A39
:1016D000B0EE661AF0EE470AB0EE670A5D495E4862
:1016E00001F014FC5D4B1B6849F6404293425BD904
:1016F0005A4B1B681846FEF72DFF45A3D3E900237C
:10170000FEF7A2FF02460B4614461D46524B1B68CD
:10171000012B03D14FF00000514903E04FF00000CE
:101720004FF0000122462B46FEF78EFF02460B4685
:1017300010461946FFF780FA03464A4A1360494BA0
:1017400093ED007AF7EE006AC6EE877AFDEEE77A4F
:1017500017EE903A3B603B68324A934201DD324BD0
:101760003B60414B93ED007A3B6807EE903AF8EE10
:10177000E77A77EE677AFDEEE77A17EE903A002B7C
:10178000B8BF5B4242F20F7293420DDD3B681A46CE
:101790000421364801F09EF93B6807EE903AF8EED6
:1017A000E77A314BC3ED007A2B4B1A68304B1B683C
:1017B0001344304A1360304B1B68002B0BD14FF49D
:1017C000FA7003F005F8012220212C4805F0C4FD31
:1017D000294B01221A602A4B00221A70294B9B6860
:1017E0001A46294B1A60294B1A68274B1B68D31AD3
:1017F000274A1360DEE000BF182D4454FB21094046
:10180000F7055F1582B54E3EFCA9F1D24D62503FFF
:101810007052C4E5D9E5323E1400002004000020D7
:10182000600A00208096980040420F000C000020C3
:10183000AC070020880A00207C0A0020820A0020D1
:10184000200000206C0B0020180000201C0000204D
:1018500017B75138700B0020580A002034000020C0
:101860000000F03F0800002010000020DC080020ED
:101870008C0A00205C0A0020800B00200008004831
:10188000850B002010E000E0A80B0020A40B002036
:10189000AC0B002000222021484805F05DFD48489F
:1018A00008F032FC00228021464805F055FD002258
:1018B0004FF48071444805F04FFD00220121434858
:1018C00005F04AFD002240213C4805F045FD00227C
:1018D00002213D4805F040FD00224FF400713C48D4
:1018E00005F03AFD01222021374805F035FD394841
:1018F00008F022FB384B00221A60384B00221A7085
:10190000374B04221A7056E0002220212B4805F0A4
:1019100023FD012204212E4805F01EFD284808F071
:10192000F3FB304B00221A702B4B00221A602E4B17
:1019300001221A602D4B01221A602D4B01221A80C0
:101940002C4B01221A802C4B4FF07E521A602B4BED
:101950004FF07E521A602A4B4FF07E521A60294B8C
:1019600001221A60284B01221A60284B01221A60BA
:10197000274B01221A60274B01221A60264B0122B5
:101980001A60264B01221A60254B01221A60254B52
:1019900001221A60244B01221A60244B01221A6092
:1019A0000F4B01221A7006E000BFFFF78EBB00BF8D
:1019B000FFF78BBB00BFFFF788BB00BF00080048E4
:1019C000280900200004004800100048000C0048CE
:1019D0000014004890080020800B0020780B0020A5
:1019E0007B0B0020880A0020580A00205C0A002097
:1019F000800A0020820A0020040000200800002045
:101A000014000020700B0020740B00203000002018
:101A1000640A0020340000207C0A002038000020E6
:101A20003C0000204000002044000020600A00200C
:101A300080B594B000AF07F1180338220021184692
:101A400010F0B5F93B1D00221A605A609A60DA6006
:101A50001A614FF4007007F0E7F92223BB614FF4DD
:101A600080737B624023BB6201233B6302237B6361
:101A70000223BB630423FB634B233B6402237B648D
:101A80000223BB640223FB6407F11803184607F026
:101A90007FFA0346002B01D002F024F80F237B606D
:101AA0000323BB600023FB6000233B6100237B61B9
:101AB0003B1D0421184607F07DFD0346002B01D095
:101AC00002F010F800BF5037BD4680BD80B58CB025
:101AD00000AF07F1240300221A605A609A603B1D90
:101AE00020220021184610F062F9324B4FF0A0423C
:101AF0001A60304B4FF440325A602E4B00229A60ED
:101B00002C4B0022DA602B4B00221A61294B002259
:101B10005A61284B04229A61264B00221A77254BE2
:101B200000225A77234B01221A62224B002283F8AB
:101B30002420204B0022DA621E4B00221A631D4B28
:101B4000002283F838201B4B0022DA63194B002255
:101B500083F84020174803F0A1F80346002B01D07A
:101B600001F0C0FF00237B6207F1240319461148EE
:101B700004F0B6F90346002B01D001F0B3FF0E4B81
:101B80007B600623BB600723FB607F233B6104234C
:101B90007B610023BB613B1D1946064803F022FB15
:101BA0000346002B01D001F09DFF00BF3037BD463A
:101BB00080BD00BFCC030020000084CB80B58CB07A
:101BC00000AF07F1240300221A605A609A603B1D9F
:101BD00020220021184610F0EAF8574B574A1A60A5
:101BE000554B4FF4A0125A60534B00229A60524B4F
:101BF0000022DA60504B00221A614F4B01225A61D9
:101C00004D4B04229A614C4B00221A774A4B012219
:101C10005A77494B05221A62474B002283F8242049
:101C2000454B0022DA62444B00221A63424B0122E8
:101C300083F83820404B4FF48052DA633E4B002249
:101C400083F840203C4803F029F80346002B01D0DC
:101C500001F048FF00237B6207F124031946364850
:101C600004F03EF90346002B01D001F03BFF344B5A
:101C70007B600623BB600023FB607F233B61002366
:101C80007B612623BB614FF08073FB61002387F8E3
:101C900020303B1D1946284803F0A4FA0346002BC8
:101CA00001D001F01FFF274B7B600C23BB60012399
:101CB0007B612523BB613B1D19461F4803F092FA47
:101CC0000346002B01D001F00DFF1F4B7B60122358
:101CD000BB6002237B610823BB613B1D194616488C
:101CE00003F080FA0346002B01D001F0FBFE174BF6
:101CF0007B601823BB6004237B610023BB613B1D19
:101D000019460D4803F06EFA0346002B01D001F08E
:101D1000E9FE0F4B7B604FF48073BB603B1D19469F
:101D2000054803F05FFA0346002B01D001F0DAFE0C
:101D300000BF3037BD4680BD38040020000400508D
:101D400002003004040060080800900C1000C0106D
:101D50002000F01480B588B000AF3B46202200215F
:101D6000184610F024F82B4B2B4A1A60294B4FF4DD
:101D7000A0125A60274B00229A60264B0022DA609C
:101D8000244B00221A61234B00225A61214B04226A
:101D90009A61204B00221A771E4B01225A771D4B65
:101DA00001221A621B4B002283F82420194B0022C7
:101DB000DA62184B00221A63164B012283F838208E
:101DC000144B4FF48052DA63124B002283F8402008
:101DD000104802F063FF0346002B01D001F082FEA1
:101DE0000E4B3B6006237B600723BB607F23FB60B9
:101DF00004233B6100237B613B461946054803F001
:101E0000F1F90346002B01D001F06CFE00BF203732
:101E1000BD4680BDA404002000050050020030042F
:101E200080B588B000AF3B462022002118460FF055
:101E3000BEFF314B314A1A602F4B4FF4A0125A604B
:101E40002D4B00229A602C4B0022DA602A4B002294
:101E50001A61294B00225A61274B04229A61264BB2
:101E600000221A77244B01225A77234B01221A624F
:101E7000214B002283F824201F4B0022DA621E4BE4
:101E800000221A631C4B012283F838201A4B0022CF
:101E9000DA63194B012283F84020174B1C225A6445
:101EA000154B4FF480729A64134B0022DA64124B84
:101EB00001221A65104802F0F1FE0346002B01D002
:101EC00001F010FE0E4B3B6006237B600023BB60DD
:101ED0007F23FB6004233B6100237B613B46194663
:101EE000054803F07FF90346002B01D001F0FAFD0D
:101EF00000BF2037BD4680BD100500200006005001
:101F00000200300480B500AF064B074A1A6005484E
:101F100004F0EEF80346002B01D001F0E3FD00BF12
:101F200080BD00BF9C060020000C024080B58CB034
:101F300000AF3B463022002118460FF038FF1E4B01
:101F40001E4A1A601C4804F01CFB0346002B01D0FB
:101F500001F0C8FD02233B6000233B7100237B712D
:101F60000023BB600023FB6000233B6100237B61F7
:101F70000123BB610023FB613B46002219460E484A
:101F800004F01CFC0346002B01D001F0ABFD3B46E6
:101F900010221946084804F011FC0346002B01D01A
:101FA00001F0A0FD044B064A9A60054B024A9A6272
:101FB00000BF3037BD4680BDC40600200008005079
:101FC000EC06002080B58CB000AF3B4630220021EB
:101FD00018460FF0ECFE164B164A1A60144804F02F
:101FE000D0FA0346002B01D001F07CFD02233B60B8
:101FF00000233B7100237B710023BB600023FB6047
:1020000000233B6100237B610123BB610023FB6153
:102010003B4600221946064804F0D0FB0346002B3D
:1020200001D001F05FFD00BF3037BD4680BD00BF6D
:10203000D8060020000C005080B598B000AF07F122
:10204000540300221A605A609A6007F13803002294
:102050001A605A609A60DA601A615A619A613B1D8F
:102060003422002118460FF0A2FE3E4B3E4A1A6071
:102070003C4B00225A603B4B00229A60394BD222E3
:10208000DA60384B00221A61364B00225A61354B18
:1020900000229A61334808F066F80346002B01D00D
:1020A00001F020FD00237B650023BB650023FB6559
:1020B00007F1540319462B4809F000FA0346002B98
:1020C00001D001F00FFD6023BB630023FB630023FD
:1020D0003B6400237B640023BB640023FB64002378
:1020E0003B6507F13803002219461E4808F0F4FA50
:1020F0000346002B01D001F0F5FC1A4B1B689A69CE
:10210000184B1B6822F008029A6100237B600023B1
:10211000BB600023FB6000233B6100237B614FF425
:102120000053BB610023FB6100233B6200237B6201
:102130004FF00073BB620023FB6200233B6300236C
:102140007B633B1D1946074809F04EFA0346002BF6
:1021500001D001F0C7FC034802F064F800BF60370B
:10216000BD4680BDAC070020002C014080B58EB07C
:1021700000AF07F1280300221A605A609A60DA6003
:1021800007F11C0300221A605A609A603B46002245
:102190001A605A609A60DA601A615A619A612D4B2E
:1021A0002D4A1A602B4B00225A602A4B00229A605B
:1021B000284B40F2A722DA60264B00221A61254BF9
:1021C00000229A61234807F05FFE0346002B01D0EE
:1021D00001F088FC4FF48053BB6207F128031946D5
:1021E0001C4808F08DFB0346002B01D001F07AFC5F
:1021F000184807F0B8FF0346002B01D001F072FC2D
:102200000023FB6100237B6207F11C031946114880
:1022100009F054F90346002B01D001F063FC602360
:102220003B6000237B600023BB6000233B613B4697
:1022300000221946074808F04FFA0346002B01D048
:1022400001F050FC034801F0EDFF00BF3837BD46F8
:1022500080BD00BFF80700200008004080B584B0B2
:1022600000AF3B1D00221A605A609A60194B1A4A4F
:102270001A60184B42F61D525A60164B00229A60A3
:10228000144B4FF6A652DA60124B00229A611148A5
:1022900007F0FAFD0346002B01D001F023FC0023D8
:1022A0007B600023FB603B1D19460A4809F006F9D4
:1022B0000346002B01D001F015FC0022002136203E
:1022C00004F02BF9362004F042F900BF1037BD4668
:1022D00080BD00BF440800200010004080B584B0DD
:1022E00000AF3B1D00221A605A609A60144B154AD9
:1022F0001A60134B43F697225A60114B00229A60E2
:102300000F4B0922DA600E4B00229A610C4807F04D
:10231000BBFD0346002B01D001F0E4FB00237B60F2
:102320000023FB603B1D1946054809F0C7F803462A
:10233000002B01D001F0D6FB00BF1037BD4680BD99
:10234000900800200014004080B598B000AF07F15D
:10235000540300221A605A609A6007F13803002281
:102360001A605A609A60DA601A615A619A613B1D7C
:102370003422002118460FF01AFD3E4B3E4A1A60E7
:102380003C4B00225A603B4B00229A60394BD222D0
:10239000DA60384B00221A61364B00225A61354B05
:1023A00000229A61334807F0DEFE0346002B01D07D
:1023B00001F098FB00237B650023BB650023FB65D0
:1023C00007F1540319462B4809F078F80346002B0F
:1023D00001D001F087FB6023BB630023FB63002374
:1023E0003B6400237B640023BB640023FB64002365
:1023F0003B6507F13803042219461E4808F06CF9C2
:102400000346002B01D001F06DFB1A4B1B689A6943
:10241000184B1B6822F400629A6100237B60002342
:10242000BB600023FB6000233B6100237B614FF412
:102430000053BB610023FB6100233B6200237B62EE
:102440004FF00073BB620023FB6200233B63002359
:102450007B633B1D1946074809F0C6F80346002B6D
:1024600001D001F03FFB034801F0DCFE00BF603704
:10247000BD4680BDDC0800200034014080B588B036
:1024800000AF07F1100300221A605A609A60DA6008
:102490003B1D00221A605A609A601F4B1F4A1A6047
:1024A0001D4B40F2DB525A601B4B00229A601A4BC4
:1024B0000422DA60184B00221A61174B00225A617D
:1024C000154B00229A61144807F0DEFC0346002BEE
:1024D00001D001F007FB4FF480533B6107F110037B
:1024E00019460D4808F00CFA0346002B01D001F004
:1024F000F9FA00237B600023FB603B1D1946064868
:1025000008F0DCFF0346002B01D001F0EBFA00BF1E
:102510002037BD4680BD00BF280900200040014093
:1025200080B500AF0F4B104A1A600E4B43F697224E
:102530005A600C4B00229A600A4B0922DA60094B60
:1025400000221A61074B00225A61064B00229A6151
:10255000044807F099FC0346002B01D001F0C2FAB1
:1025600000BF80BD740900200044014080B500AF69
:10257000224B234A1A60214B4FF4E1325A601F4B21
:1025800000229A601D4B0022DA601C4B00221A6167
:102590001A4B0C225A61194B00229A61174B0022E8
:1025A000DA61164B00221A62144B00225A62134B56
:1025B00000229A62114809F0F1F80346002B01D07D
:1025C00001F090FA00210D4809F08CFE0346002B23
:1025D00001D001F087FA0021084809F0C1FE034646
:1025E000002B01D001F07EFA044809F042FE0346B8
:1025F000002B01D001F076FA00BF80BDC009002099
:10260000004C004080B582B000AF224B9B6C214A49
:1026100043F0040393641F4B9B6C03F004037B6043
:102620007B681C4B9B6C1B4A43F001039364194B62
:102630009B6C03F001033B603B68002200210B20F0
:1026400003F06BFF0B2003F082FF002200210C201F
:1026500003F063FF0C2003F07AFF002200210D201D
:1026600003F05BFF0D2003F072FF002200210E201B
:1026700003F053FF0E2003F06AFF002200210F2019
:1026800003F04BFF0F2003F062FF00BF0837BD4689
:1026900080BD00BF0010024080B58CB000AF07F1D4
:1026A0001C0300221A605A609A60DA601A619A4B21
:1026B000DB6C994A43F01003D364974BDB6C03F057
:1026C0001003BB61BB69944BDB6C934A43F004037A
:1026D000D364914BDB6C03F004037B617B698E4B0D
:1026E000DB6C8D4A43F02003D3648B4BDB6C03F02F
:1026F00020033B613B69884BDB6C874A43F0010355
:10270000D364854BDB6C03F00103FB60FB68824BF9
:10271000DB6C814A43F00203D3647F4BDB6C03F034
:102720000203BB60BB687C4BDB6C7B4A43F0080355
:10273000D364794BDB6C03F008037B607B68002279
:102740002021764804F008FE01224FF400717448FD
:1027500004F002FE00220421714804F0FDFD002275
:102760002021704804F0F8FD01224FF481716B487C
:1027700004F0F2FD012240216A4804F0EDFD01223F
:102780000121694804F0E8FD01228021674804F036
:10279000E3FD40F61503FB6100233B6200237B62EF
:1027A00007F11C0319465D4804F03CFC2023FB6143
:1027B00001233B6200237B620023BB6207F11C0301
:1027C0001946564804F02EFC4FF40073FB611123A8
:1027D0003B6200237B620023BB6207F11C031946A6
:1027E0004F4804F01FFC4FF48063FB6100233B6201
:1027F00000237B6207F11C031946494804F012FCD0
:102800004FF40173FB6100233B6200237B6207F1FD
:102810001C031946434804F005FC0423FB61012313
:102820003B6200237B620023BB6207F11C03194655
:102830003B4804F0F7FB2023FB6101233B620023AC
:102840007B620023BB6207F11C031946354804F084
:10285000E9FB0123FB6100233B6200237B6207F15C
:102860001C031946314804F0DDFB4FF48173FB6112
:1028700011233B6200237B620023BB6207F11C0330
:102880001946264804F0CEFB4023FB6111233B622E
:1028900000237B620023BB6207F11C031946214819
:1028A00004F0C0FB4FF48063FB6100233B62002314
:1028B0007B6207F11C0319464FF0904004F0B2FB15
:1028C0000123FB6111233B6200237B620023BB6277
:1028D00007F11C031946144804F0A4FB7023FB61A4
:1028E00000233B6200237B6207F11C0319460E485C
:1028F00004F098FB8023FB6111233B6200237B6281
:102900000023BB6207F11C031946084804F08AFB48
:1029100000BF3037BD4680BD0010024000100048A7
:102920000014004800080048000C0048000400485B
:1029300080B483B000AF03460A46FB711346BB71F7
:10294000FB79042B39D801A252F823F06129000841
:102950006F2900087D29000899290008A729000887
:10296000BB79002B2BD10123FB71012331E0BB7913
:10297000002B26D10223FB7102232AE0BB79012B15
:1029800003D10323FB71032323E0BB79032B1AD16B
:102990000423FB7104231CE0BB79022B15D1012316
:1029A000FB71012315E0BB79002B10D10C4B0022E9
:1029B0001A600223FB7102230BE000BF08E000BF96
:1029C00006E000BF04E000BF02E000BF00E000BF7F
:1029D000FB7918460C37BD465DF8047B704700BF95
:1029E000800B002080B485B000AF78607B68642BDA
:1029F00001D964237B600B4BDB6801337A6802FBEF
:102A000003F3094AA2FB03235B09013BFB60054B6F
:102A10001B68FA685A6300BF1437BD465DF8047B33
:102A2000704700BFF80700201F85EB510000000031
:102A300080B584B000AF78607B681B68204A934201
:102A400035D10023FB600023BB600BE01D4ABB684F
:102A500032F813309BB21A46FB681344FB60BB6824
:102A60000133BB60BB68092BF0DDFB68164AA2FB93
:102A70000323DB0840F6E44202FB03F31B0B9AB28C
:102A8000124B1A80114B1B88A3F2AA531846FDF76C
:102A900071FD09A3D3E90023FDF7D6FD02460B46DD
:102AA00010461946FEF7A8F80346094A136000BF0E
:102AB0001037BD4680BD00BFFA7E6ABC7493D83F14
:102AC00000060050900A0020CDCCCCCCA40A0020F7
:102AD0008C0A002080B489B000AFF860B9607A60D9
:102AE000334BBB61FB685B6801337B617B697A6850
:102AF00002FB03F3BA69B2FBF3F3013BFB61FB6931
:102B0000B3F5803F14D3FB691B0C7A6902FB03F316
:102B100001337B617B697A6802FB03F3BA69B2FB1C
:102B2000F3F3013BFB61FB681B687A69013A9A6227
:102B3000FB681B68FA69DA62FB68FA69DA60FB69AC
:102B40005B083B61BB68002B04D1FB681B683A69DA
:102B50005A6323E0BB68042B04D1FB681A683B6905
:102B600093631BE0BB68082B04D1FB681A683B69C0
:102B7000D36313E0BB680C2B04D1FB681A683B6974
:102B800013640BE0BB68102B04D1FB681A683B6927
:102B9000936403E0FB681A683B69D364FB681B68B5
:102BA00001225A6100BF2437BD465DF8047B70479F
:102BB00080D1F00880B500AF0121184804F0B4FBC3
:102BC0000346002B26D01021144804F0ADFB034629
:102BD000002B1FD00421114804F0A6FB0346002B54
:102BE00018D04FF400610D4804F09EFB0346002B03
:102BF00010D040210A4804F097FB0346002B09D06F
:102C00004FF40071074804F08FFB0346002B01D0FE
:102C1000002300E00123184680BD00BF00100048DB
:102C2000000C00480008004880B500AF1021114892
:102C300004F07AFB0346002B19D001210E4804F062
:102C400073FB0346002B12D04FF480610B4804F055
:102C50006BFB0346002B0AD04FF480614FF090408D
:102C600004F062FB0346002B01D0012300E00023A7
:102C7000184680BD000C00480004004800140048BD
:102C8000B0B582B000AF78607B681B686E4A934233
:102C900040F0B1806D4B1B78022B40F0A9806C4B4B
:102CA0009B889BB21A4640F6E44302FB03F3002BD9
:102CB00001DA03F6FF731B13C83B1846FDF75AFCF5
:102CC0005DA3D3E90023FDF7BFFC02460B46104687
:102CD0001946FDF769FF03461A465E4B1A605E4BC4
:102CE0005B889BB21A4640F6E44302FB03F3002BD9
:102CF00001DA03F6FF731B13C83B1846FDF73AFCD5
:102D00004DA3D3E90023FDF79FFC02460B46104676
:102D10001946FDF749FF03461A46504B1A60504BBF
:102D20001B881846FDF726FC04460D464D4B1B68D4
:102D30001846FDF71FFC42A3D3E90023FDF784FCEE
:102D400002460B4620462946FDF7C8FA02460B46C6
:102D500010461946FDF750FF034600220021424865
:102D600003F0F4FC414B1B881846FDF703FC0446B6
:102D70000D463F4B1B681846FDF7FCFB30A3D3E91B
:102D80000023FDF761FC02460B4620462946FDF76D
:102D9000A5FA02460B4610461946FDF72DFF0346DD
:102DA00000221021304803F0D1FC2D4B1B8818461F
:102DB000FDF7E0FB04460D462E4B1B681846FDF759
:102DC000D9FB4FF000022C4BFDF73EFC02460B46B0
:102DD00020462946FDF780FA02460B461046194662
:102DE000FDF70AFF034600220021244803F0AEFC51
:102DF000234B01221A707B681B68224A934201D13F
:102E000000F0AEF97B681B681F4A934210D1022183
:102E10001E4804F0B9FA4FF400711D4804F0B4FAEA
:102E200000222021194804F097FA1A4807F06CF99B
:102E300000BF0837BD46B0BD8FC2F5285CCF324019
:102E40009A9999999999993F004001407B0B0020EC
:102E5000700A0020640A0020840A00207C0A0020F6
:102E6000540A0020580A0020C4060020560A0020F8
:102E70005C0A0020600A00200000D03FD806002035
:102E8000850B002000100040001400400010004896
:102E9000001400489008002080B500AF154B1B8837
:102EA0001A46154B1B68D31A642B13D9134B1B6896
:102EB0001846FDF74FFB4FF00002114BFDF70EFADD
:102EC00002460B4610461946FDF796FE03469AB297
:102ED0000C4B1A800B4B1B884BF67F32934206D962
:102EE000084B4BF680321A80074B01221A7000BF44
:102EF00080BD00BF00000020340000207C0A0020BC
:102F000000003440820A0020880A0020B0B58CB04E
:102F100000AF7862396287ED070AC7ED060A87EDD0
:102F2000051AC7ED041A87ED032AC7ED022A87EDBB
:102F3000013A97ED067AD7ED077A77EE677AC7ED13
:102F40000B7A3B6A1B681846FDF704FB04460D46E6
:102F50005A4B1B6807EE903AB8EE677AD7ED0B7ABA
:102F600037EE277A97ED036AD7ED026AC6EE267A26
:102F700027EE277AD7ED017A67EE277A17EE900AC7
:102F8000FDF70AFB4FF000024D4BFDF75DFB0246DB
:102F90000B4620462946FDF7A1F902460B4610468E
:102FA0001946FDF729FE02463B6A1A60D7ED0B7AF7
:102FB000FCEEE77A17EE902A404B1A607B6A1B689A
:102FC000BB623B6A1B6807EE903AF8EE677A97EDB2
:102FD000057AB4EEE77AF1EE10FA07D8D7ED057A64
:102FE000FCEEE77A17EE902A3B6A1A603B6A1B6890
:102FF00007EE903AF8EE677A97ED047AB4EEE77A46
:10300000F1EE10FA07DBD7ED047AFCEEE77A17EE63
:10301000902A3B6A1A6097ED0B7AD7ED037A27EE78
:10302000277A3B6A1B6807EE903AF8EE677A77EEEC
:10303000277AFCEEE77A17EE902A7B6A1A607B6AA1
:103040001B6807EE903AF8EE677A97ED057AB4EED2
:10305000E77AF1EE10FA07D8D7ED057AFCEEE77AB9
:1030600017EE902A7B6A1A607B6A1B6807EE903A1B
:10307000F8EE677A97ED047AB4EEE77AF1EE10FA9B
:1030800007DBD7ED047AFCEEE77A17EE902A7B6A2D
:103090001A607B6A1A68BB6AD31A312B06D97B6A1D
:1030A0001A68BB6AD31A13F1320F02D97B6ABA6A63
:1030B0001A6000BF3037BD46B0BD00BF740B0020A2
:1030C0000000E03F00000000B0B586B000AF87ED23
:1030D000030AC7ED020A87ED011AC7ED001A4FF087
:1030E00000037B6197ED037AD7ED017A77EE277ABB
:1030F00017EE900AFDF750FA04460D463868FDF7C2
:103100004BFA13A3D3E90023FDF79EFA02460B46C0
:1031100020462946FDF7E2F802460B4610461946BE
:103120000DA3D3E90023FDF78FFA02460B461046A4
:103130001946FDF781FD03467B617B6907EE903AF6
:10314000B0EE670A1837BD46B0BD00BFAFF30080D0
:10315000666666666666E63F343333333333C33FB1
:1031600080B582B000AF444BDB889BB21A4640F674
:10317000E44302FB03F3002B01DA03F6FF731B1396
:103180001A463E4B1A603C4B1B899BB21A4640F6CE
:10319000E44302FB03F3002B01DA03F6FF731B1376
:1031A0001A46374B1A6014233B60344B1B68A3F557
:1031B000C873344AA2FB03231B09304A1360304B07
:1031C0001B68A3F5FA732F4AA2FB0323DB082C4AE2
:1031D00013602B4B1A68294B1B68934238BF134668
:1031E0003B603B68642202FB03F3A3F5FA63254AC4
:1031F000A2FB03239B097B607B68642B01D96423BA
:103200007B607868FDF7A6F902460B469FED161B1A
:1032100043EC102B12F0A4FD51EC100B14A3D3E9D6
:103220000023FDF711FA02460B4610461946FDF73A
:10323000BBFC0346144A82FB03129214DB17D31A19
:103240001433124A13603B68132B03D80F4B14221C
:103250001A6005E03B68642B02D90C4B63221A60AC
:1032600000BF0837BD4680BD0000000000000840D8
:103270000000000000C05340700A0020680A0020CF
:103280006C0A0020CDCCCCCC83DE1B432800002070
:1032900080B584B000AF78607868FDF711F8034618
:1032A000FB81FB897F2B01D97F23FB81FB891A4698
:1032B00079680B480EF00DFEFB89094A0021D154B4
:1032C000FB89194678680DF069F903467B737B7BAF
:1032D000012BF5D000BF00BF1037BD4680BD00BF39
:1032E000E80A002080B500AFA64B1B78DBB2002BAC
:1032F00000F046810622A449A4480EF060FD034672
:10330000002B08D1A24AA349A0480EF0E1FCA24834
:10331000FFF7BEFF2CE10622A0499C480EF04FFDAE
:103320000346002B08D19E4A9E4998480EF0D0FCD7
:103330009D48FFF7ADFF1BE108229C4993480EF022
:103340003EFD0346002B08D1994A9A498F480EF05A
:10335000BFFC9948FFF79CFF0AE10C2297498B4874
:103360000EF02DFD0346002B08D1954A954987485C
:103370000EF0AEFC9448FFF78BFFF9E00C22934966
:1033800082480EF01CFD0346002B08D1904A91495B
:103390007E480EF09DFC9048FFF77AFFE8E00D2292
:1033A0008E497A480EF00BFD0346002B08D18C4A5B
:1033B0008C4976480EF08CFC8B48FFF769FFD7E00C
:1033C0000C228A4971480EF0FAFC0346002B08D102
:1033D000874A88496D480EF07BFC8748FFF758FF05
:1033E000C6E00C22854969480EF0E9FC0346002B33
:1033F00008D1834A834965480EF06AFC8248FFF78A
:1034000047FFB5E00622814960480EF0D8FC03462C
:10341000002B0ED15E4B1B681846FDF7BDF8024627
:103420000B467B497B480EF033FC7A48FFF730FFB0
:103430009EE00622784955480EF0C1FC0346002B59
:103440000ED1574B1B681846FDF7A6F802460B46EF
:10345000724970480EF01CFC6E48FFF719FF87E0B8
:1034600008226F4949480EF0AAFC0346002B0AD1F6
:103470004F4B1B881A466B4966480EF009FC65489D
:10348000FFF706FF74E00C22674940480EF097FCF6
:103490000346002B0AD14A4B1B881A4663495D48F4
:1034A0000EF0F6FB5B48FFF7F3FE61E00C2260498B
:1034B00036480EF084FC0346002B0AD1444B1B888F
:1034C0001A465C4953480EF0E3FB5248FFF7E0FE12
:1034D0004EE00D2258492D480EF071FC0346002B9A
:1034E0000AD13F4B1B681A4654494A480EF0D0FB9C
:1034F0004848FFF7CDFE3BE00C22514923480EF02F
:103500005EFC0346002B0ED1394B1B681846FDF7B5
:1035100043F802460B464B493E480EF0B9FB3D4886
:10352000FFF7B6FE24E00C22474918480EF047FC8E
:103530000346002B0ED1324B1B681846FDF72CF8C2
:1035400002460B46414933480EF0A2FB3148FFF7D3
:103550009FFE0DE00B223E490C480EF030FC034666
:10356000002B02D100F0C2F902E03A48FFF790FECA
:103570004022002105480EF01AFC024B00221A706E
:1035800000BF80BD680B0020786C0108A80A0020ED
:1035900018000020806C01088C6C0108986C0108F0
:1035A0001C000020A06C0108AC6C0108B86C01087C
:1035B00000000020C46C0108D46C0108E46C010810
:1035C000540A0020F46C0108046D0108246D010800
:1035D000560A0020346D0108446D0108646D01082D
:1035E0008C0A0020746D0108886D01089C6D01082B
:1035F00004000020AC6D0108BC6D0108D06D01080D
:1036000008000020E06D0108F06D0108046E01085B
:103610000C6E0108E80A0020186E0108206E0108EF
:103620002C6E0108386E0108446E0108546E0108C2
:10363000706E0108806E01089C6E0108AC6E010876
:10364000BC6E0108CC6E0108DC6E0108EC6E01084E
:10365000FC6E0108086F010880B487B000AF87EDE9
:10366000030AB8600B46FB71FB79202B35D1D7EDEF
:10367000037AB7EE007AF4EEC77AF1EE10FA11D8B9
:10368000BB6807EE903AB8EEE77AD7ED037A67EEBB
:10369000277A9FED327A67EE877AFCEEE77A17EEAB
:1036A000903A7B61D7ED037AB7EE007AF4EEC77AF1
:1036B000F1EE10FA11DDBB6807EE903AB8EEE77A4A
:1036C000D7ED036AC6EE877A9FED247A67EE877A94
:1036D000FCEEE77A17EE903A7B61FB79102B35D13F
:1036E000D7ED037AB7EE007AF4EEC77AF1EE10FA6E
:1036F00011D8BB6807EE903AB8EEE77AD7ED037AB7
:1037000067EE277A9FED167A67EE877AFCEEE77A06
:1037100017EE903A7B61D7ED037AB7EE007AF4EEBC
:10372000C77AF1EE10FA11DDBB6807EE903AB8EEF9
:10373000E77AD7ED036AC6EE877A9FED097A67EEDE
:10374000877AFCEEE77A17EE903A7B617B69184640
:103750001C37BD465DF8047B704700BF0000004F7A
:1037600000FEFF4680B487B000AFF860B960114634
:103770001A460B46FB711346BB71BB79202B2BD12C
:1037800097F90730002B11D0FB6807EE903AF8EE5E
:10379000E77A9FED2E7AC7EE876ABB6807EE903A0C
:1037A000B8EEE77AC6EE877AC7ED057A97F9073063
:1037B000002B11D1FB6807EE903AF8EEE77ADFEDC7
:1037C000236A87EEA67ABB6807EE903AF8EEE77AAE
:1037D00067EE277AC7ED057ABB79102B2BD197F9C5
:1037E0000730002B11D0FB6807EE903AF8EEE77A2D
:1037F0009FED177AC7EE876ABB6807EE903AB8EE7E
:10380000E77AC6EE877AC7ED057A97F90730002B7D
:1038100011D1FB6807EE903AF8EEE77ADFED0C6A1B
:1038200087EEA67ABB6807EE903AF8EEE77A67EE85
:10383000277AC7ED057A7B6907EE903AB0EE670A02
:103840001C37BD465DF8047B704700BF0000004F89
:1038500000FEFF4680B584B000AF87ED010AD7EDCA
:10386000017ABFEE007AF4EEC77AF1EE10FA02D5D3
:103870001A4B7B600BE0D7ED017AB7EE007AF4EEDD
:10388000C77AF1EE10FA02DD4FF07E537B60B7EE9F
:10389000007AD7ED017A77EE677AB0EE670A12F018
:1038A000CFFA87ED030AD7ED017A9FED0D7A67EE27
:1038B000877A9FED0C7A37EEC77AD7ED017A67EEFB
:1038C000277A9FED097A37EE877AD7ED037A67EE8C
:1038D000277AB0EE670A1037BD4680BD000080BF72
:1038E0009E3AB63DCABF5B3EDA0FC93F80B5A0B075
:1038F00000AF5E4B1B681846FCF74EFE02460B46B7
:1039000038465B490EF0C4F93B461846FFF7C0FC49
:10391000584B1B681846FCF73FFE02460B463846DC
:1039200055490EF0B5F93B461846FFF7B1FC534B2D
:103930001B881A463B46524918460EF0A9F93B46E9
:103940001846FFF7A5FC4F4B1A683B464E491846F0
:103950000EF09EF93B461846FFF79AFC4B4B1A684F
:103960003B464B4918460EF093F93B461846FFF785
:103970008FFC484B1A683B46474918460EF088F9B9
:103980003B461846FFF784FC444B1A683B464449C3
:1039900018460EF07DF93B461846FFF779FC414B7F
:1039A0001A683B46404918460EF072F93B461846E5
:1039B000FFF76EFC3D4B1A683B463D4918460EF03A
:1039C00067F93B461846FFF763FC3A4B1A683B46DB
:1039D000394918460EF05CF93B461846FFF758FC8B
:1039E000364B1B881A463B46354918460EF050F9AF
:1039F0003B461846FFF74CFC324B1B881A463B46A9
:103A0000314918460EF044F93B461846FFF740FC92
:103A10002E4B1A683B462E4918460EF039F93B46A4
:103A20001846FFF735FC2B4B1B681846FCF7B4FD16
:103A300002460B46384628490EF02AF93B461846FE
:103A4000FFF726FC254B1B681846FCF7A5FD024630
:103A50000B46384622490EF01BF93B461846FFF745
:103A600017FC00BF8037BD4680BD00BF1800002096
:103A70000C6E01081C000020206E010800000020D0
:103A8000386E0108580A00201C6F01085C0A0020EB
:103A9000286F0108600A0020346F0108640A0020C2
:103AA000406F01087C0A0020546F0108680A00205A
:103AB0006C6F01086C0A00207C6F0108540A00201A
:103AC000546E0108560A0020806E01088C0A0020FE
:103AD000AC6E010804000020CC6E01080800002034
:103AE000EC6E010880B400AF72B600BF00BFFDE706
:103AF00080B582B000AF0F4B1B6E0E4A43F001033E
:103B000013660C4B1B6E03F001037B607B68094B53
:103B10009B6D084A43F080539365064B9B6D03F001
:103B200080533B603B6805F023FA00BF0837BD4671
:103B300080BD00BF0010024080B5A4B000AF786027
:103B400007F17C0300221A605A609A60DA601A61F9
:103B500007F128035422002118460EF028F97B684B
:103B60001B68B3F1A04F1CD14FF40043BB624FF070
:103B70000053FB6607F12803184605F037FF03469C
:103B8000002B01D0FFF7AEFF864BDB6C854A43F478
:103B90000053D364834BDB6C03F400537B627B6A7A
:103BA00085E17B681B68804A934240F087804FF430
:103BB0008033BB624FF080433B6707F12803184610
:103BC00005F014FF0346002B01D0FFF78BFF774B66
:103BD0001B680133754A1360744B1B68012B0BD1B2
:103BE000704BDB6C6F4A43F48043D3646D4BDB6CEA
:103BF00003F480433B623B6A6A4BDB6C694A43F0E7
:103C00000203D364674BDB6C03F00203FB61FB69C7
:103C1000644BDB6C634A43F01003D364614BDB6C91
:103C200003F01003BB61BB6942F20203FB6703238D
:103C3000C7F880300023C7F8843007F17C031946A9
:103C40005B4803F0EFF94FF40A53FB670323C7F80F
:103C500080300023C7F8843007F17C0319465548AB
:103C600003F0E0F9544B554A1A60534B25225A6031
:103C7000514B00229A60504B0022DA604E4B80225A
:103C80001A614D4B4FF480725A614B4B4FF4806276
:103C90009A61494B2022DA61474B00221A6246485A
:103CA00002F04EFF0346002B01D0FFF71BFF7B689D
:103CB000414A5A65404A7B689362F8E07B681B681A
:103CC0003F4A934240F082804FF48033BB624FF012
:103CD00080433B6707F12803184605F087FE03463B
:103CE000002B01D0FFF7FEFE304B1B6801332F4A3B
:103CF00013602E4B1B68012B0BD12A4BDB6C294A1E
:103D000043F48043D364274BDB6C03F480437B6133
:103D10007B69244BDB6C234A43F01003D364214BB3
:103D2000DB6C03F010033B613B694FF48043FB679E
:103D30000323C7F880300023C7F8843007F17C03E1
:103D400019461C4803F06EF91E4B1F4A1A601D4BA2
:103D500026225A601B4B00229A601A4B0022DA601E
:103D6000184B80221A61174B4FF480725A61154B21
:103D70004FF480629A61134B2022DA61114B4FF4A9
:103D800040521A620F4802F0DBFE0346002B01D0BE
:103D9000FFF7A8FE7B680B4A5A650A4A7B68936264
:103DA00085E000BF0010024000040050B00B00206E
:103DB00000040048001000487C0500200800024074
:103DC00000050050DC0500201C0002407B681B68D9
:103DD000394A93426BD14FF48033BB624FF080433A
:103DE0003B6707F12803184605F000FE0346002B49
:103DF00001D0FFF777FE314B1B6801332F4A136068
:103E00002E4B1B68012B0BD12D4BDB6C2C4A43F442
:103E10008043D3642A4BDB6C03F48043FB60FB6874
:103E2000274BDB6C264A43F00103D364244BDB6C45
:103E300003F00103BB60BB684FF48073FB6703238F
:103E4000C7F880300023C7F8843007F17C03194697
:103E50004FF0904003F0E6F81A4B1B4A1A60194BDA
:103E600027225A60174B00229A60164B0022DA6014
:103E7000144B80221A61134B4FF480725A61114B1C
:103E80004FF480629A610F4B2022DA610D4B0022C1
:103E90001A620C4802F054FE0346002B01D0FFF7D3
:103EA00021FE7B68074A5A65064A7B68936200BF19
:103EB0009037BD4680BD00BF00060050B00B00200B
:103EC000001002403C0600203000024080B485B063
:103ED00000AF78607B681B680A4A93420BD10A4B9B
:103EE0009B6C094A43F008039364074B9B6C03F0F7
:103EF0000803FB60FB6800BF1437BD465DF8047B18
:103F0000704700BF000C02400010024080B58CB02A
:103F100000AF786007F11C0300221A605A609A60B3
:103F2000DA601A617B681B685B4A934259D15B4B2C
:103F3000DB6C5A4A43F48033D364584BDB6C03F494
:103F40008033BB61BB69554BDB6C544A43F00103C2
:103F5000D364524BDB6C03F001037B617B6930233C
:103F6000FB6103233B6200237B6207F11C031946BC
:103F70004FF0904003F056F8494B4A4A1A60484BBC
:103F800006225A60464B10229A60454B0022DA60A6
:103F9000434B80221A61424B4FF400725A61404BEE
:103FA0004FF400629A613E4B2022DA613C4B4FF4A1
:103FB00000521A623A4802F0C3FD0346002B01D0BA
:103FC000FFF790FD7B68364A9A60354A7B689362BA
:103FD00000220021362002F0A0FA362002F0B7FAC3
:103FE00055E07B681B68304A934250D12B4BDB6C09
:103FF0002A4A43F40033D364284BDB6C03F40033C8
:104000003B613B69254BDB6C244A43F00103D364DD
:10401000224BDB6C03F00103FB60FB684023FB6178
:1040200003233B6200237B6207F11C0319464FF018
:10403000904002F0F7FF1D4B1D4A1A601B4B2922CE
:104040005A601A4B10229A60184B0022DA60174B04
:1040500080221A61154B4FF400725A61134B4FF4D2
:1040600000629A61114B2022DA61104B4FF400522A
:104070001A620E4802F064FD0346002B01D0FFF7E0
:1040800031FD7B68094A9A60084A7B68936200BFE9
:104090003037BD4680BD00BF000800500010024010
:1040A000EC06002044000240000C00504C070020A9
:1040B0005800024080B584B000AF78607B681B6810
:1040C000164A934214D1164B1B6E154A43F40063F3
:1040D0001366134B1B6E03F40063FB60FB68002246
:1040E0000021182002F019FA182002F030FA10E02E
:1040F0007B681B680B4A93420BD1094B1B6E084A25
:1041000043F400531366064B1B6E03F40053BB606D
:10411000BB6800BF1037BD4680BD00BF002C01400A
:10412000001002400034014080B588B000AF7860D4
:104130007B681B68354A93420CD1354B9B6D344AE2
:1041400043F004039365324B9B6D03F00403FB6162
:10415000FB6956E07B681B682E4A934214D12C4BB6
:104160009B6D2B4A43F010039365294B9B6D03F025
:104170001003BB61BB6900220021362002F0CDF99B
:10418000362002F0E4F93CE07B681B68224A934247
:104190000CD11F4B9B6D1E4A43F0200393651C4BB3
:1041A0009B6D03F020037B617B692AE07B681B68C1
:1041B0001A4A934214D1164B1B6E154A43F48033AE
:1041C0001366134B1B6E03F480333B613B69002283
:1041D0000021182002F0A1F9182002F0B8F910E02F
:1041E0007B681B680E4A93420BD1094B1B6E084A31
:1041F00043F400331366064B1B6E03F40033FB607D
:10420000FB6800BF2037BD4680BD00BF00080040EE
:104210000010024000100040001400400040014027
:104220000044014080B58AB000AF786007F1140304
:1042300000221A605A609A60DA601A617B681B6813
:10424000334A93421CD1334BDB6C324A43F00403B4
:10425000D364304BDB6C03F004033B613B69012307
:104260007B610223BB610023FB6102233B620223CB
:104270007B6207F114031946274802F0D3FE43E09E
:104280007B681B68254A93421DD1224BDB6C214A77
:1042900043F00803D3641F4BDB6C03F00803FB609F
:1042A000FB684FF480537B610223BB610023FB61F9
:1042B00000233B6202237B6207F11403194618486E
:1042C00002F0B0FE20E07B681B68164A93421BD1C7
:1042D000104BDB6C0F4A43F00403D3640D4BDB6CD3
:1042E00003F00403BB60BB6880237B610223BB61D6
:1042F0000023FB6102233B6204237B6207F114036A
:104300001946054802F08EFE00BF2837BD4680BD25
:10431000002C014000100240000800480008004046
:10432000000C00480034014080B59EB000AF7860BA
:1043300007F1640300221A605A609A60DA601A6119
:1043400007F110035422002118460DF030FD7B6860
:104350001B681F4A934236D108233B6180233B628E
:1043600007F11003184605F041FB0346002B01D06E
:10437000FFF7B8FB174B9B6D164A43F40023936578
:10438000144B9B6D03F40023FB60FB68114BDB6C4B
:10439000104A43F00403D3640E4BDB6C03F00403B8
:1043A000BB60BB684FF440637B660223BB6600239F
:1043B000FB6600233B6705237B6707F1640319460F
:1043C000054802F02FFE00BF7837BD4680BD00BF14
:1043D000004C0040001002400008004880B400AFCC
:1043E00000BFFDE780B400AF00BFFDE780B400AFC1
:1043F00000BFFDE780B400AF00BFFDE780B400AFB1
:1044000000BFFDE780B400AF00BFBD465DF8047B90
:10441000704780B400AF00BFBD465DF8047B7047B5
:1044200080B400AF00BFBD465DF8047B704780B527
:1044300000AF00F0AFF900BF80BD000080B500AF55
:10444000024802F0A0FC00BF80BD00BF7C05002038
:1044500080B500AF024802F096FC00BF80BD00BFEF
:10446000DC05002080B500AF024802F08CFC00BFE4
:1044700080BD00BF3C06002080B500AF024802F0BE
:1044800082FC00BF80BD00BFEC06002080B500AFFD
:10449000024802F078FC00BF80BD00BF4C0700203E
:1044A00080B500AF024803F079F800BF80BD00BFBF
:1044B0009020002080B500AF034805F0BDFF034801
:1044C00005F0BAFF00BF80BDAC070020280900201E
:1044D00080B500AF034805F0AFFF034802F0E0F8F5
:1044E00000BF80BD44080020C406002080B400AF97
:1044F00001231846BD465DF8047B704780B582B045
:1045000000AF786039600DF0B7FC034616221A60E0
:104510004FF0FF3318460837BD4680BD80B582B0E6
:1045200000AF78604FF0FF317868FFF7E7FF00BF1A
:10453000FDE780B586B000AFF860B9607A6000230F
:104540007B610AE0AFF300800146BB685A1CBA6089
:10455000CAB21A707B6901337B617A697B689A42BF
:10456000F0DB7B6818461837BD4680BD80B586B045
:1045700000AFF860B9607A6000237B6109E0BB6836
:104580005A1CBA601B781846AFF300807B69013370
:104590007B617A697B689A42F1DB7B681846183741
:1045A000BD4680BD80B483B000AF78604FF0FF336C
:1045B00018460C37BD465DF8047B704780B483B065
:1045C00000AF786039603B684FF400525A600023B6
:1045D00018460C37BD465DF8047B704780B483B045
:1045E00000AF7860012318460C37BD465DF8047BA8
:1045F000704780B485B000AFF860B9607A6000237E
:1046000018461437BD465DF8047B704780B586B008
:1046100000AF7860144A154BD31A7B617B693B610C
:10462000134B1B68002B02D1114B124A1A60104B1E
:104630001A687B6813443A699A4207D20DF01CFC51
:1046400003460C221A604FF0FF3309E0084B1B6849
:10465000FB60074B1A687B681344054A1360FB68CC
:1046600018461837BD4680BD000002200004000037
:10467000B40B0020D826002080B400AF064BD3F83E
:104680008830054A43F47003C2F8883000BFBD4645
:104690005DF8047B704700BF00ED00E00D488546E3
:1046A000FFF7EAFF0C480D490D4A002302E0D458F9
:1046B000C4500433C4188C42F9D30A4A0A4C00236C
:1046C00001E013600432A242FBD30DF0DBFBFCF7E8
:1046D000B3FCFEE70000022000000020B003002031
:1046E000B8740108B0030020D8260020FEE780B58A
:1046F00082B000AF0023FB71032001F003FF002014
:1047000000F00EF80346002B02D00123FB7101E0FC
:10471000FFF7EEF9FB7918460837BD4680BD00006B
:1047200080B584B000AF78600023FB73164B1B6824
:10473000002B22D0154B1A68134B1B684FF47A716B
:10474000B1FBF3F3B2FBF3F3184601F00EFF03469F
:10475000002B0FD17B680F2B09D8002279684FF00E
:10476000FF3001F0DAFE0A4A7B68136007E001239C
:10477000FB7304E00123FB7301E00123FB73FB7B6C
:1047800018461037BD4680BD5C0000205400002054
:104790005800002080B400AF054B1A68054B1B6819
:1047A0001344034A136000BFBD465DF8047B7047A5
:1047B000B80B00205C00002080B400AF034B1B68E6
:1047C0001846BD465DF8047B704700BFB80B00205B
:1047D00080B584B000AF7860FFF7EEFFB8607B680B
:1047E000FB60FB68B3F1FF3F04D0094B1B68FA681C
:1047F0001344FB6000BFFFF7DFFF0246BB68D31A1C
:10480000FA689A42F7D800BF00BF1037BD4680BD96
:104810005C00002080B483B000AF786039607B68B2
:104820009B6823F47C123B681A437B689A6000BF44
:104830000C37BD465DF8047B704780B483B000AF91
:10484000786039607B689B6823F0E0723B681A43AC
:104850007B689A6000BF0C37BD465DF8047B7047EB
:1048600080B483B000AF78607B689B6803F0E0732E
:1048700018460C37BD465DF8047B704780B487B09E
:1048800000AFF860B9607A603B60FB6860331A463D
:10489000BB689B0013447B617B691A68084B13401B
:1048A0007A6802F0F8413A680A43134343F0004241
:1048B0007B691A6000BF1C37BD465DF8047B7047FA
:1048C00000F0FF0380B485B000AF786039607B688A
:1048D00060331A463B689B001344FB60FB681B680F
:1048E00003F0F84318461437BD465DF8047B704763
:1048F00080B487B000AFF860B9607A60FB6860335D
:104900001A46BB689B0013447B617B691B6823F0DC
:1049100000427B681A437B691A6000BF1C37BD46A2
:104920005DF8047B704780B487B000AFF860B96071
:104930007A60FB6860331A46BB689B0013447B6156
:104940007B691B6823F080727B681A437B691A605D
:1049500000BF1C37BD465DF8047B704780B487B04C
:1049600000AFF860B9607A60FB6860331A46BB68D4
:104970009B0013447B617B691B6823F000727B689A
:104980001A437B691A6000BF1C37BD465DF8047B83
:10499000704780B483B000AF786039607B685B6932
:1049A00023F000423B681A437B685A6100BF0C3712
:1049B000BD465DF8047B704780B483B000AF78607B
:1049C0007B68DB6803F44063002B01D1012300E026
:1049D000002318460C37BD465DF8047B704780B451
:1049E00087B000AFF860B9607A60FB6830331A4670
:1049F000BB681B0A9B0003F00C0313447B617B69BB
:104A00001A68BB6803F01F031F2101FA03F3DB439D
:104A10001A407B689B0E03F01F01BB6803F01F0365
:104A200001FA03F31A437B691A6000BF1C37BD46C5
:104A30005DF8047B704780B487B000AFF860B96060
:104A40007A60FB6814331A46BB685B0E9B0003F068
:104A5000040313447B617B691A68BB681B0D03F078
:104A60001F03072101FA03F3DB431A40BB681B0D48
:104A700003F01F03796801FA03F31A437B691A6094
:104A800000BF1C37BD465DF8047B704780B485B01D
:104A900000AFF860B9607A60FB68D3F8B020BB68FB
:104AA000C3F31203DB431A407B6803F01803084981
:104AB000D940BB680B40C3F312031A43FB68C3F829
:104AC000B02000BF1437BD465DF8047B704700BFBF
:104AD000FFFF070080B483B000AF78607B689B68FD
:104AE00003F01F0318460C37BD465DF8047B704782
:104AF00080B483B000AF78607B689B6823F020436C
:104B000023F03F037A68936000BF0C37BD465DF821
:104B1000047B704780B483B000AF78607B689B688B
:104B200003F00053B3F1005F01D1012300E0002343
:104B300018460C37BD465DF8047B704780B483B0DF
:104B400000AF78607B689B6823F0104323F03F033D
:104B500043F080527B689A6000BF0C37BD465DF819
:104B6000047B704780B483B000AF78607B689B683B
:104B700003F08053B3F1805F01D1012300E00023F3
:104B800018460C37BD465DF8047B704780B483B08F
:104B900000AF78607B689B6823F0004323F03F03FD
:104BA00043F001027B689A6000BF0C37BD465DF898
:104BB000047B704780B483B000AF78607B689B68EB
:104BC00023F0004323F03F0343F002027B689A6026
:104BD00000BF0C37BD465DF8047B704780B483B0DE
:104BE00000AF78607B689B6803F00103012B01D163
:104BF000012300E0002318460C37BD465DF8047B16
:104C0000704780B483B000AF78607B689B6803F026
:104C10000203022B01D1012300E0002318460C37C8
:104C2000BD465DF8047B704780B483B000AF786008
:104C30007B689B6823F0004323F03F0343F00402AA
:104C40007B689A6000BF0C37BD465DF8047B7047F7
:104C500080B483B000AF78607B689B6803F0040386
:104C6000042B01D1012300E0002318460C37BD4678
:104C70005DF8047B704780B483B000AF78607B68D8
:104C80009B6803F00803082B01D1012300E00023F7
:104C900018460C37BD465DF8047B704790B589B067
:104CA00000AF78600023FB770023FB607B68002B5C
:104CB00001D10123A9E17B685B69002B7B68DB6D77
:104CC000002B09D17868FEF737FF7B6800221A664F
:104CD0007B68002283F858207B681B681846FFF722
:104CE00019FF0346002B04D07B681B681846FFF7AA
:104CF000FFFE7B681B681846FFF734FF0346002B56
:104D000015D17B681B681846FFF718FF9C4B1B6882
:104D10009B099C4AA2FB03239B0901335B00FB60B8
:104D200002E0FB68013BFB60FB68002BF9D17B686C
:104D30001B681846FFF716FF0346002B0DD17B6852
:104D4000DB6D43F010027B68DA657B681B6E43F015
:104D500001027B681A660123FB777B681B68184693
:104D6000FFF776FF78617B68DB6D03F01003002BA3
:104D700040F042817B69002B40F03E817B68DB6D17
:104D800023F4817343F002027B68DA657B681B6859
:104D90001846FFF723FF0346002B41D17B681B68B1
:104DA000B3F1A04F04D07B681B68774A93420FD1C0
:104DB0004FF0A040FFF712FF04467348FFF70EFFC5
:104DC00003462343002B0CBF01230023DBB212E078
:104DD0006E48FFF703FF04466D48FFF7FFFE0346EA
:104DE0001C436C48FFF7FAFE03462343002B0CBF1D
:104DF00001230023DBB2002B12D07B681B68B3F1C8
:104E0000A04F04D07B681B685F4A934201D1624A7D
:104E100000E0624A7B685B6819461046FFF7FAFCBF
:104E20007B685B7F5A037B68DB6B1A437B68DB68BC
:104E30001A437B689B681A437B6893F824301B04F1
:104E40001343BB617B6893F82430012B06D17B6848
:104E50009B6A013B5B04BA691343BB617B68DB6AF5
:104E6000002B09D07B68DB6A03F478727B681B6BCC
:104E70001343BA691343BB617B681B68DA68484B0C
:104E800013407A681268B9690B43D3607B681B686A
:104E90001B6923F040617B685A6B7B681B680A437F
:104EA0001A617B681B681846FFF7E5FE38617B696D
:104EB000002B7FD13B69002B7CD17B681B7F9A0341
:104EC0007B6893F838305B001343BB617B681B68D9
:104ED000DB6823F4804323F002037A681268B9691F
:104EE0000B43D3607B681B69002B17D07B681B6862
:104EF0001A697B681B6842F480321A617B681B6800
:104F0000D3F8C03023F47F5323F03F037A6811694C
:104F10007A6812680B43C2F8C03013E07B681B68E4
:104F20001A697B681B6822F480321A617B681B68EF
:104F3000D3F8C0307A68126823F47F5323F03F031C
:104F4000C2F8C0307B6893F84030012B2AD17B68CF
:104F50001B681B6923F4FF6323F004037A68516C18
:104F60007A68926C11437A68D26C11437A68126D38
:104F70000A431A437B681B6842F001021A6119E078
:104F800054000020632D3E05000100500004005035
:104F900000050050000600500003005000070050BC
:104FA0000740F0FF7B681B681A697B681B6822F06A
:104FB00001021A617B685B69012B0CD17B681B685D
:104FC0001B6B23F00F017B681B6A5A1E7B681B68F2
:104FD0000A431A6307E07B681B681A6B7B681B68CF
:104FE00022F00F021A637B68DB6D23F0030343F0AA
:104FF00001027B68DA6507E07B68DB6D43F0100235
:105000007B68DA650123FB77FB7F18462437BD46B2
:1050100090BD00BF80B586B000AFF860B9607A601F
:10502000FB681B68B3F1A04F04D0FB681B685A4AA9
:10503000934201D1594B00E0594B1846FFF74AFD06
:105040003861FB681B681846FFF702FE0346002B19
:1050500040F09B80FB6893F85830012B01D102236C
:1050600096E0FB68012283F85820FB681B684D4AD4
:10507000934208D03B69002B05D03B69052B02D039
:105080003B69092B7AD1F86800F0ECFC0346FB750C
:10509000FB7D002B6DD1FB68DB6D23F4706323F087
:1050A000010343F48072FB68DA65FB681B683A4AC7
:1050B000934209D0FB681B683B4A934202D0FB68CD
:1050C0001B6803E0394B01E04FF0A043FA68126817
:1050D000934202D03B69002B05D1FB68DB6D23F4C2
:1050E0008012FB68DA65FB68DB6D03F48053002BEC
:1050F00006D0FB681B6E23F00602FB681A6602E00E
:10510000FB6800221A66FB685B6D294ADA62FB685D
:105110005B6D284A1A63FB685B6D274A5A63FB681C
:105120001B681C221A60FB68002283F85820FB6869
:105130001B685A68FB681B6842F010025A60FB68E3
:105140001B68DA68FB681B6842F00102DA60FB68E2
:10515000586DFB681B6840331946BA687B6801F0DC
:1051600097FD0346FB75FB681B681846FFF75CFD5F
:105170000DE0FB68002283F8582008E00123FB754E
:10518000FB68002283F8582001E00223FB75FB7DB9
:1051900018461837BD4680BD00010050000300507E
:1051A00000070050000600500005005000040050A9
:1051B0004F5C0008275D0008435D000880B483B0A1
:1051C00000AF786000BF0C37BD465DF8047B7047C8
:1051D00080B483B000AF786000BF0C37BD465DF887
:1051E000047B704780B5B6B000AF786039600023AB
:1051F00087F8D7300023FB607B6893F85830012B89
:1052000002D1022300F013BC7B68012283F85820EE
:105210007B681B681846FFF71BFD0346002B40F018
:10522000F3837B6818683B6859683B681B681A46BB
:10523000FFF7D5FB7B681B681846FFF709FDC7F829
:10524000D0007B681B681846FFF715FDC7F8CC0037
:10525000D7F8D030002B40F0D981D7F8CC30002BD4
:1052600040F0D4813B689B68B3F1004F0FD17B685D
:1052700018683B681B6800221946FFF7DCFB7B6857
:105280001B684FF000411846FFF783FB0EE07B6878
:1052900018683B6819683B689B681A46FFF7CBFBA8
:1052A0007B681B6800211846FFF773FB3B685A694F
:1052B0007B681B68DB68DB0803F003035B0002FA12
:1052C00003F3C7F8C8303B681B69042B22D07B6806
:1052D00018683B6819693B681A68D7F8C830FFF747
:1052E000CDFA7B6818683B6819693B689B691A4668
:1052F000FFF719FB7B6818683B6819693B681B7FDF
:10530000012B02D14FF0007300E000231A46FFF793
:1053100025FB7BE17B681B6800211846FFF7D2FA6A
:105320000346C3F31203002B0AD17B681B680021DC
:105330001846FFF7C7FA03469B0E03F01F021EE054
:105340007B681B6800211846FFF7BCFA0346C7F8C4
:10535000BC30D7F8BC3093FAA3F3C7F8B830D7F80D
:10536000B830C7F8C030D7F8C030002B01D12023A7
:1053700004E0D7F8C030B3FA83F3DBB21A463B68D7
:105380001B68C3F31203002B05D13B681B689B0EFF
:1053900003F01F0318E03B681B68C7F8B030D7F86C
:1053A000B03093FAA3F3C7F8AC30D7F8AC30C7F8F5
:1053B000B430D7F8B430002B01D1202304E0D7F863
:1053C000B430B3FA83F3DBB29A4206D17B681B6830
:1053D000002200211846FFF78BFA7B681B68012129
:1053E0001846FFF76FFA0346C3F31203002B0AD1E6
:1053F0007B681B6801211846FFF764FA03469B0E81
:1054000003F01F021EE07B681B6801211846FFF7AE
:1054100059FA0346C7F8A430D7F8A43093FAA3F397
:10542000C7F8A030D7F8A030C7F8A830D7F8A83010
:10543000002B01D1202304E0D7F8A830B3FA83F37E
:10544000DBB21A463B681B68C3F31203002B05D17D
:105450003B681B689B0E03F01F0318E03B681B684A
:10546000C7F89830D7F8983093FAA3F3C7F8943078
:10547000D7F89430C7F89C30D7F89C30002B01D176
:10548000202304E0D7F89C30B3FA83F3DBB29A42CE
:1054900006D17B681B68002201211846FFF728FA15
:1054A0007B681B6802211846FFF70CFA0346C3F31A
:1054B0001203002B0AD17B681B6802211846FFF7F4
:1054C00001FA03469B0E03F01F021EE07B681B6877
:1054D00002211846FFF7F6F90346C7F88C30D7F8D3
:1054E0008C3093FAA3F3C7F88830D7F88830C7F820
:1054F0009030D7F89030002B01D1202304E0D7F86A
:105500009030B3FA83F3DBB21A463B681B68C3F3EF
:105510001203002B05D13B681B689B0E03F01F0391
:1055200016E03B681B68C7F88030D7F8803093FAE4
:10553000A3F3FB67FB6FC7F88430D7F88430002BE8
:1055400001D1202304E0D7F88430B3FA83F3DBB22F
:105550009A4206D17B681B68002202211846FFF799
:10556000C7F97B681B6803211846FFF7ABF90346B0
:10557000C3F31203002B0AD17B681B680321184672
:10558000FFF7A0F903469B0E03F01F0217E07B68AC
:105590001B6803211846FFF795F903467B677B6F6D
:1055A00093FAA3F33B673B6FBB67BB6F002B01D143
:1055B000202303E0BB6FB3FA83F3DBB21A463B68E8
:1055C0001B68C3F31203002B05D13B681B689B0EBD
:1055D00003F01F0311E03B681B68BB66BB6E93FAC8
:1055E000A3F37B667B6EFB66FB6E002B01D1202351
:1055F00003E0FB6EB3FA83F3DBB29A4206D17B6819
:105600001B68002203211846FFF772F97B681B68AC
:105610001846FFF7E3FA0346002B40F03D817B6814
:1056200018683B6819683B68DB681A46FFF72EFA72
:105630003B68DB68A24A934240F02E817B68186881
:105640003B681B68C3F31203002B0BD13B681B683C
:105650009B0E013303F01F03092B94BF012300238A
:10566000DBB219E03B681B68FB65FB6D93FAA3F3A3
:10567000BB65BB6D3B663B6E002B01D1202303E075
:105680003B6EB3FA83F3DBB2013303F01F03092B44
:1056900094BF01230023DBB2002B79D03B681B6849
:1056A000C3F31203002B07D13B681B689B0E013329
:1056B0009B0603F0F84215E03B681B683B653B6DB9
:1056C00093FAA3F3FB64FB6C7B657B6D002B01D12C
:1056D000202303E07B6DB3FA83F3DBB201339B0637
:1056E00003F0F8423B681B68C3F31203002B09D197
:1056F0003B681B689B0E013303F01F03012101FA75
:1057000003F317E03B681B687B647B6C93FAA3F39D
:105710003B643B6CBB64BB6C002B01D1202303E0DA
:10572000BB6CB3FA83F3DBB2013303F01F03012137
:1057300001FA03F342EA03013B681B68C3F3120357
:10574000002B0AD13B681B689B0E013303F01F023C
:1057500013465B0013441B0518E03B681B68BB63E2
:10576000BB6B93FAA3F37B637B6BFB63FB6B002B3D
:1057700001D1202303E0FB6BB3FA83F3DBB20133E7
:1057800003F01F0213465B0013441B050B437EE02E
:105790003B681B68C3F31203002B07D13B681B68EF
:1057A0009B0E01339B0603F0F84215E03B681B6833
:1057B000FB62FB6A93FAA3F3BB62BB6A3B633B6B7E
:1057C000002B01D1202303E03B6BB3FA83F3DBB260
:1057D00001339B0603F0F8423B681B68C3F31203D6
:1057E000002B09D13B681B689B0E013303F01F039C
:1057F000012101FA03F317E03B681B683B623B6A37
:1058000093FAA3F3FB61FB697B627B6A002B01D1F6
:10581000202303E07B6AB3FA83F3DBB2013303F0A6
:105820001F03012101FA03F342EA03013B681B68ED
:10583000C3F31203002B0DD13B681B689B0E013391
:1058400003F01F0213465B0013441E3B1B0543F08D
:1058500000731BE03B681B687B617B6993FAA3F3D1
:105860003B613B69BB61BB69002B01D1202303E095
:10587000BB69B3FA83F3DBB2013303F01F021346B3
:105880005B0013441E3B1B0543F000730B433A6857
:1058900092681946FFF7CFF83B681A68094B134026
:1058A000002B00F0BE807B681B68B3F1A04F04D0D2
:1058B0007B681B68044A93420AD1044B09E000BF8D
:1058C00000007F40000008800001005000030050ED
:1058D000594B1846FEF7C4FFC7F8C4003B681B6865
:1058E000564A934204D03B681B68554A93423AD1CA
:1058F000D7F8C43003F40003002B34D17B681B6855
:10590000B3F1A04F05D07B681B684E4A934240F02C
:1059100085807B681B68B3F1A04F04D07B681B684F
:10592000494A934201D1494A00E0434AD7F8C4307A
:1059300043F4000319461046FEF77FFF444B1B68F3
:105940009B09444AA2FB03239B095A1C13465B0094
:1059500013449B00FB6002E0FB68013BFB60FB68BB
:10596000002BF9D15AE03B681B683B4A934225D192
:10597000D7F8C43003F08073002B1FD17B681B68FD
:10598000314A934204D17B681B68344A934247D022
:105990007B681B68B3F1A04F04D07B681B682A4A60
:1059A000934201D1294A00E0234AD7F8C43043F09A
:1059B000807319461046FEF740FF31E03B681B68D4
:1059C000274A93422DD1D7F8C43003F48003002B2B
:1059D00027D17B681B681C4A934222D07B681B68D6
:1059E000B3F1A04F04D07B681B68174A934201D1E2
:1059F000164A00E0104AD7F8C43043F48003194631
:105A00001046FEF71AFF0CE07B68DB6D43F02002C6
:105A10007B68DA65012387F8D73002E000BF00E039
:105A200000BF7B68002283F8582097F8D7301846CB
:105A3000D837BD4680BD00BF00070050000021C31D
:105A40001000C090000600500001005000030050FC
:105A500054000020632D3E05000052C70005005091
:105A6000000084CB80B584B000AF78600023BB60B9
:105A70007B681B681846FFF7B1F80346002B76D108
:105A80007B681B689A683C4B1340002B0DD07B68E9
:105A9000DB6D43F010027B68DA657B681B6E43F0B8
:105AA00001027B681A66012362E07B681B68184666
:105AB000FFF76CF87B681B68B3F1A04F04D07B68DC
:105AC0001B682E4A934201D12D4B00E02D4B184606
:105AD000FEF7C6FE034603F40003002B13D02A4B47
