:020000040800F2
:1000000000000220C5340008AD330008B5330008F5
:10001000BD330008C5330008CD33000800000000E0
:10002000000000000000000000000000D5330008C0
:10003000E333000800000000F1330008FF3300083C
:100040001535000815350008153500081535000868
:100050001535000815350008153500081535000858
:100060001535000815350008153500080D34000851
:100070002134000835340008493400085D34000894
:100080001535000815350008153500081535000828
:1000900071340008153500081535000815350008BD
:1000A0008534000815350008153500081535000899
:1000B00015350008153500081535000815350008F8
:1000C00015350008153500081535000815350008E8
:1000D00015350008153500081535000815350008D8
:1000E00015350008153500081535000815350008C8
:1000F00015350008153500081535000815350008B8
:1001000015350008153500081535000815350008A7
:100110001535000815350008153500081535000897
:100120001535000815350008153500081535000887
:100130001535000815350008153500081535000877
:100140001535000815350008153500081535000867
:100150001535000815350008153500081535000857
:100160001535000815350008153500081535000847
:100170001535000815350008153500081535000837
:100180001535000815350008153500081535000827
:100190001535000800000000153500081535000869
:1001A0001535000815350008153500081535000807
:1001B00015350008153500081535000815350008F7
:1001C00015350008153500081535000815350008E7
:0801D000153500081535000883
:1001D80010B5054C237833B9044B13B10448AFF379
:1001E80000800123237010BDF801002000000000EA
:1001F800E800010808B5034B1BB103490348AFF3F6
:10020800008008BD00000000FC010020E800010893
:1002180081F0004102E000BF83F0004330B54FEAAF
:1002280041044FEA430594EA050F08BF90EA020F1C
:100238001FBF54EA000C55EA020C7FEA645C7FEAAF
:10024800655C00F0E2804FEA5454D4EB5555B8BFD2
:100258006D420CDD2C4480EA020281EA030382EA43
:10026800000083EA010180EA020281EA0303362DD5
:1002780088BF30BD11F0004F4FEA01314FF4801CA8
:100288004CEA113102D0404261EB410113F0004FBA
:100298004FEA03334CEA133302D0524263EB430371
:1002A80094EA050F00F0A780A4F10104D5F1200E0F
:1002B8000DDB02FA0EFC22FA05F2801841F100016A
:1002C80003FA0EF2801843FA05F359410EE0A5F13E
:1002D80020050EF1200E012A03FA0EFC28BF4CF06F
:1002E800020C43FA05F3C01851EBE37101F0004525
:1002F80007D54FF0000EDCF1000C7EEB00006EEB32
:100308000101B1F5801F1BD3B1F5001F0CD34908BB
:100318005FEA30004FEA3C0C04F101044FEA445212
:1003280012F5800F80F09A80BCF1004F08BF5FEA99
:10033800500C50F1000041EB045141EA050130BD79
:100348005FEA4C0C404141EB0101013C28BFB1F58B
:10035800801FE9D291F0000F04BF01460020B1FAD6
:1003680081F308BF2033A3F10B03B3F120020CDAA9
:100378000C3208DD02F1140CC2F10C0201FA0CF087
:1003880021FA02F10CE002F11402D8BFC2F1200CEC
:1003980001FA02F120FA0CFCDCBF41EA0C019040A2
:1003A800E41AA2BF01EB0451294330BD6FEA0404EB
:1003B8001F3C1CDA0C340EDC04F11404C4F12002D6
:1003C80020FA04F001FA02F340EA030021FA04F3E8
:1003D80045EA030130BDC4F10C04C4F1200220FA3F
:1003E80002F001FA04F340EA0300294630BD21FA7D
:1003F80004F0294630BD94F0000F83F4801306BF43
:1004080081F480110134013D4EE77FEA645C18BF36
:100418007FEA655C29D094EA050F08BF90EA020FCD
:1004280005D054EA000C04BF1946104630BD91EAC5
:10043800030F1EBF0021002030BD5FEA545C05D1C8
:100448004000494128BF41F0004130BD14F5800407
:100458003CBF01F5801130BD01F0004545F0FE417B
:1004680041F470014FF0000030BD7FEA645C1ABFB0
:10047800194610467FEA655C1CBF0B46024650EAE7
:10048800013406BF52EA033591EA030F41F4002113
:1004980030BD00BF90F0000F04BF0021704730B599
:1004A8004FF4806404F132044FF000054FF000016E
:1004B80050E700BF90F0000F04BF0021704730B52F
:1004C8004FF4806404F1320410F0004548BF404204
:1004D8004FF000013EE700BF42004FEAE2014FEA59
:1004E80031014FEA02701FBF12F07F4393F07F4F34
:1004F80081F06051704732F07F4208BF704793F037
:100508007F4F04BF41F40021704730B54FF4607449
:1005180001F0004521F000411CE700BF50EA01024C
:1005280008BF704730B54FF000050AE050EA0102F5
:1005380008BF704730B511F0004502D5404261EB65
:1005480041014FF4806404F132045FEA915C3FF4A6
:10055800D8AE4FF003025FEADC0C18BF03325FEA43
:10056800DC0C18BF033202EBDC02C2F1200300FAF4
:1005780003FC20FA02F001FA03FE40EA0E0021FA19
:1005880002F11444BDE600BF70B54FF0FF0C4CF407
:10059800E06C1CEA11541DBF1CEA135594EA0C0FB9
:1005A80095EA0C0F00F0DEF82C4481EA030621EAF4
:1005B8004C5123EA4C5350EA013518BF52EA03352F
:1005C80041F4801143F4801338D0A0FB02CE4FF0E1
:1005D8000005E1FB02E506F00042E0FB03E54FF011
:1005E8000006E1FB03569CF0000F18BF4EF0010E09
:1005F800A4F1FF04B6F5007F64F5407404D25FEA05
:100608004E0E6D4146EB060642EAC62141EA5551B7
:100618004FEAC52040EA5E504FEACE2EB4F1FD0CF9
:1006280088BFBCF5E06F1ED8BEF1004F08BF5FEA77
:10063800500E50F1000041EB045170BD06F0004629
:1006480046EA010140EA020081EA0301B4EB5C04D6
:10065800C2BFD4EB0C0541EA045170BD41F48011CE
:100668004FF0000E013C00F3AB8014F1360FDEBFF3
:10067800002001F0004170BDC4F10004203C35DACF
:100688000C341BDC04F11404C4F1200500FA05F352
:1006980020FA04F001FA05F240EA020001F00042F3
:1006A80021F0004110EBD37021FA04F642EB060169
:1006B8005EEA430E08BF20EAD37070BDC4F10C0493
:1006C800C4F1200500FA04F320FA05F001FA04F257
:1006D80040EA020001F0004110EBD37041F1000143
:1006E8005EEA430E08BF20EAD37070BDC4F120054E
:1006F80000FA05F24EEA020E20FA04F301FA05F2B6
:1007080043EA020321FA04F001F0004121FA04F25D
:1007180020EA020000EBD3705EEA430E08BF20EA2D
:10072800D37070BD94F0000F0FD101F00046400067
:1007380041EB010111F4801F08BF013CF7D041EAE9
:10074800060195F0000F18BF704703F000465200ED
:1007580043EB030313F4801F08BF013DF7D043EABE
:100768000603704794EA0C0F0CEA135518BF95EA74
:100778000C0F0CD050EA410618BF52EA4306D1D1FB
:1007880081EA030101F000414FF0000070BD50EA1A
:10079800410606BF1046194652EA430619D094EAA4
:1007A8000C0F02D150EA013613D195EA0C0F05D18E
:1007B80052EA03361CBF104619460AD181EA0301E2
:1007C80001F0004141F0FE4141F470014FF000009A
:1007D80070BD41F0FE4141F4780170BD70B54FF035
:1007E800FF0C4CF4E06C1CEA11541DBF1CEA1355B5
:1007F80094EA0C0F95EA0C0F00F0A7F8A4EB050497
:1008080081EA030E52EA03354FEA013100F088808D
:100818004FEA03334FF0805545EA131343EA126356
:100828004FEA022245EA111545EA10654FEA00260B
:100838000EF000419D4208BF964244F1FD0404F5C4
:10084800407402D25B084FEA3202B61A65EB030520
:100858005B084FEA32024FF480104FF4002CB6EBDD
:10086800020E75EB030E22BFB61A754640EA0C005D
:100878005B084FEA3202B6EB020E75EB030E22BF9D
:10088800B61A754640EA5C005B084FEA3202B6EBDE
:10089800020E75EB030E22BFB61A754640EA9C009D
:1008A8005B084FEA3202B6EB020E75EB030E22BF6D
:1008B800B61A754640EADC0055EA060E18D04FEA2B
:1008C800051545EA16754FEA06164FEAC30343EACB
:1008D80052734FEAC2025FEA1C1CC0D111F4801F98
:1008E8000BD141EA00014FF000004FF0004CB6E791
:1008F80011F4801F04BF01430020B4F1FD0C88BF30
:10090800BCF5E06F3FF6AFAEB5EB030C04BFB6EB3A
:10091800020C5FEA500C50F1000041EB045170BD2D
:100928000EF0004E4EEA113114EB5C04C2BFD4EB5A
:100938000C0541EA045170BD41F480114FF0000EDE
:10094800013C90E645EA060E8DE60CEA135594EA5A
:100958000C0F08BF95EA0C0F3FF43BAF94EA0C0F5D
:100968000AD150EA01347FF434AF95EA0C0F7FF4D2
:1009780025AF104619462CE795EA0C0F06D152EA26
:1009880003353FF4FDAE1046194622E750EA41060A
:1009980018BF52EA43067FF4C5AE50EA41047FF41B
:1009A8000DAF52EA43057FF4EBAE12E74FF0FF3C80
:1009B80006E000BF4FF0010C02E000BF4FF0010C51
:1009C8004DF804CD4FEA410C7FEA6C5C4FEA430CCA
:1009D80018BF7FEA6C5C1BD001B050EA410C0CBF19
:1009E80052EA430C91EA030F02BF90EA020F00207B
:1009F800704710F1000F91EA030F58BF994208BFE2
:100A080090422CBFD8176FEAE37040F0010070479E
:100A18004FEA410C7FEA6C5C02D150EA013C07D1F5
:100A28004FEA430C7FEA6C5CD6D152EA033CD3D040
:100A38005DF8040B704700BF8446104662468C463A
:100A48001946634600E000BF01B5FFF7B7FF00286D
:100A580048BF10F1000F01BD4DF808EDFFF7F4FF96
:100A68000CBF012000205DF808FB00BF4DF808ED21
:100A7800FFF7EAFF34BF012000205DF808FB00BF44
:100A88004DF808EDFFF7E0FF94BF012000205DF866
:100A980008FB00BF4DF808EDFFF7CEFF94BF01201B
:100AA80000205DF808FB00BF4DF808EDFFF7C4FF14
:100AB80034BF012000205DF808FB00BF4FEA410C5D
:100AC8007FEA6C5C02D150EA013C0AD14FEA430C40
:100AD8007FEA6C5C02D152EA033C02D14FF000007D
:100AE80070474FF0010070474A0011D212F500120A
:100AF80011D20DD56FF47873B3EB62520ED44FEA6E
:100B0800C12343F0004343EA505323FA02F07047ED
:100B18004FF00000704750EA013002D14FF0FF302B
:100B280070474FF0000070474FEA4102B2F1E043CE
:100B380024BFB3F5001CDCF1FE5C0DD901F0004CBC
:100B48004FEAC0024CEA5070B2F1004F40EB83000C
:100B580008BF20F00100704711F0804F21D113F138
:100B68003872BCBF01F00040704741F480114FEA71
:100B78005252C2F11802C2F1200C10FA0CF320FAFA
:100B880002F018BF40F001004FEAC1234FEAD32317
:100B980003FA0CFC40EA0C0023FA02F34FEA430381
:100BA800CCE77FEA625307D150EA01331EBF4FF00A
:100BB800FE4040F44000704701F0004040F0FE4025
:100BC80040F40000704700BF53B94AB9002908BF74
:100BD80000281CBF4FF0FF314FF0FF3000F06AB91A
:100BE800ADF1080C6DE904CE00F006F8DDF804E07C
:100BF800DDE9022304B070472DE9F047089D0C4653
:100C0800002B4ED194468C458646B2FA82F262D9C0
:100C18004AB1C2F12003914020FA03F30CFA02FC16
:100C2800194300FA02FE4FEA1C471FFA8CF6B1FB83
:100C3800F7F44FEA1E4307FB141143EA014304FB90
:100C480006F199420AD91CEB030304F1FF3080F046
:100C58001281994240F20F81023C6344591A1FFAEB
:100C68008EF3B1FBF7F007FB101143EA014300FBD9
:100C780006F69E420AD91CEB030300F1FF3180F00F
:100C8800FC809E4240F2F980634402389B1B40EA94
:100C9800044000211DB1D3400022C5E90032BDE85F
:100CA800F0878B4205D90DB1C5E90001002108463E
:100CB800F5E7B3FA83F1002946D1A34202D3904263
:100CC800C0F0F080861A64EB03030120002DE6D003
:100CD800C5E90063E3E7002A40F09080A1EB0C042B
:100CE8004FEA1C481FFA8CF70121B4FBF8F64FEACB
:100CF8001E4308FB164443EA044307FB06F09842E8
:100D080008D91CEB030306F1FF3402D2984200F223
:100D1800CD8026461C1A1FFA8EF3B4FBF8F008FBA8
:100D2800104443EA044300FB07F79F4208D91CEB31
:100D3800030300F1FF3402D29F4200F2B080204644
:100D4800DB1B40EA0640A5E7C1F120068B4022FAEA
:100D580006F71F4320FA06FC04FA01F343EA0C03E2
:100D6800F44000FA01F8380C4FEA1349B4FBF0FEDE
:100D78001FFA87FC00FB1E4449EA04440EFB0CF9E9
:100D8800A14502FA01F20AD93C190EF1FF3A80F0A6
:100D98008480A14540F28180AEF1020E3C44A4EB70
:100DA80009041FFA83F9B4FBF0F300FB134449EA82
:100DB800044403FB0CFCA44507D93C1903F1FF309C
:100DC80067D2A44565D9023B3C4443EA0E40A0FBE8
:100DD8000293A4EB0C049C42CE469C4651D34ED0C1
:100DE80055B1B8EB0E0364EB0C0404FA06F6CB40DD
:100DF8001E43CC40C5E90064002150E7C2F120033E
:100E080020FA03F10CFA02FC24FA03F394400C4391
:100E18004FEA1C4800FA02FE1FFA8CF7B3FBF8F001
:100E280008FB1031230C43EA014300FB07F1994208
:100E380008D91CEB030300F1FF362CD299422AD9BA
:100E4800023863445B1AA4B2B3FBF8F108FB113310
:100E580044EA034401FB07F3A34208D91CEB04044A
:100E680001F1FF3613D2A34211D902396444E41ABE
:100E780041EA004139E70446F0E6084606E7C84576
:100E8800AED2B9EB020E63EB070C0138A8E7314686
:100E9800EDE7034699E73046D4E7D6467FE7634453
:100EA80002384DE70646234608460FE7023E6344EC
:100EB80030E700BF704700BF80B582B000AF02F0D6
:100EC80026FB00F025F900F03DFF00F0F1FE00F0F0
:100ED800E5F900F0ADFA00F011FB00F075FB00F049
:100EE800BFFB00F0F7FB00F087FC00F08DFD00F081
:100EF80093FE00F05BF900F0D9FC0EF031F800F039
:100F080015FE00F063FE00F049FD04216B4804F073
:100F180055FF0346012B10D1694B1B78002B0CD0D1
:100F280001F096F80346002B07D001F0CBF80346F2
:100F3800002B02D00023FB710FE004215F4804F06E
:100F48003DFF0346002B02D00123FB7105E05D4BFA
:100F58001B78002B01D00223FB715B4B1B78FA79BD
:100F68001146184600F0D0FF03461A46564B1A7031
:100F7800554B1B78052B00F29D8001A252F823F0F7
:100F8800A10F00083F1000084F100008BD1000080E
:100F980061100008BD100008012202214B4804F02E
:100FA80025FF01224FF40071494804F01FFF00217A
:100FB800484807F079FE0421474807F075FE0021EC
:100FC800464807F071FE0021454804F0B1F81021A9
:100FD800434804F0ADF80021424804F0A9F8002184
:100FE800414807F061FE7F21404803F005FE7F215C
:100FF8003F4803F001FE7F213E4803F0FDFD052236
:101008003D493A4802F0F4FE3C4B1B889BB2012252
:101018001946374802F0ECFE394B1B889BB2012277
:101028001946344802F0E4FE142000F0B9FF264BBC
:1010380001221A7041E0224B1B78002B3CD0224B36
:1010480002221A7038E0012204212E4804F0CEFE54
:101058002D4807F02BFD30E000220421294804F038
:10106800C5FE002280211A4804F0C0FE002240215B
:10107800174804F0BBFE00222021154804F0B6FEF4
:10108800002240210D4804F0B1FE002202210F4841
:1010980004F0ACFE00224FF400710D4804F0A6FEE7
:1010A8001A4807F093FC184807F078FD044B002213
:1010B8001A7002E000BF28E700BF26E700080048D2
:1010C800C0080020C1080020C20800200010004805
:1010D80000040048CC050020FC06002094070020EE
:1010E800E4040020F80400206406002080020020A8
:1010F800EC0200205803002094080020A6080020D5
:10110800B40800200014004848070020B00600205A
:1011180080B594B000AF07F11803382200211846B3
:101128000EF002FC3B1D00221A605A609A60DA60D9
:101138001A614FF4007006F0C1FB2223BB614FF423
:1011480080737B624023BB6201233B6302237B6382
:101158000223BB630423FB634B233B6402237B64AE
:101168000223BB640223FB6407F11803184606F048
:1011780059FC0346002B01D001F0A8FC0F237B602B
:101188000323BB600023FB6000233B6100237B61DA
:101198003B1D0421184606F057FF0346002B01D0DB
:1011A80001F094FC00BF5037BD4680BD80B58CB0BF
:1011B80000AF07F1240300221A605A609A603B1DB1
:1011C8002022002118460EF0AFFB324B4FF0A04210
:1011D8001A60304B4FF440325A602E4B00229A600E
:1011E8002C4B0022DA602B4B00221A61294B00227B
:1011F8005A61284B04229A61264B00221A77254B04
:1012080000225A77234B01221A62224B002283F8CC
:101218002420204B0022DA621E4B00221A631D4B49
:10122800002283F838201B4B0022DA63194B002276
:1012380083F84020174802F01FFC0346002B01D01A
:1012480001F044FC00237B6207F12403194611488E
:1012580003F034FD0346002B01D001F037FC0E4BA0
:101268007B600623BB600723FB607F233B6104236D
:101278007B610023BB613B1D1946064802F0A0FEB6
:101288000346002B01D001F021FC00BF3037BD46DA
:1012980080BD00BF14020020000084CB80B58CB054
:1012A80000AF07F1240300221A605A609A603B1DC0
:1012B8002022002118460EF037FB564B564A1A607A
:1012C800544B4FF400225A60524B00229A60514B03
:1012D8000022DA604F4B00221A614E4B01225A61FC
:1012E8004C4B04229A614B4B00221A77494B01223E
:1012F8005A77484B05221A62464B002283F824206D
:10130800444B0022DA62434B00221A63414B01220C
:1013180083F838203F4B4FF48052DA633D4B00226C
:1013280083F840203B4802F0A7FB0346002B01D07E
:1013380001F0CCFB00237B6207F1240319463548F2
:1013480003F0BCFC0346002B01D001F0BFFB334B7C
:101358007B600623BB600023FB607F233B61012386
:101368007B612523BB614FF08073FB61002387F805
:1013780020303B1D1946274802F022FE0346002B69
:1013880001D001F0A3FB264B7B600C23BB6000233C
:101398007B613B1D19461F4802F012FE0346002BD5
:1013A80001D001F093FB1F4B7B601223BB6001232C
:1013B8007B610823BB613B1D1946164802F000FEFD
:1013C8000346002B01D001F081FB174B7B601823EB
:1013D800BB6004237B610023BB613B1D19460D489C
:1013E80002F0EEFD0346002B01D001F06FFB0F4B1E
:1013F8007B604FF48073BB603B1D1946054802F0C3
:10140800DFFD0346002B01D001F060FB00BF303741
:10141800BD4680BD80020020000400500200300458
:10142800040060080800900C1000C0102000F014A0
:1014380080B588B000AF3B462022002118460EF048
:1014480073FA2B4B2B4A1A60294B4FF400225A602F
:10145800274B00229A60264B0022DA60244B002298
:101468001A61234B00225A61214B04229A61204BB6
:1014780000221A771E4B01225A771D4B01221A624D
:101488001B4B002283F82420194B0022DA62184BE8
:1014980000221A63164B012283F83820144B0022CD
:1014A800DA63134B002283F84020114802F0E4FA73
:1014B8000346002B01D001F009FB0F4B3B600623CC
:1014C8007B600723BB607F23FB6004233B61002311
:1014D8007B613B461946064802F072FD0346002B25
:1014E80001D001F0F3FA00BF2037BD4680BD00BF30
:1014F800EC020020000500500200300480B588B0DE
:1015080000AF3B462022002118460EF00DFA2B4B67
:101518002B4A1A60294B4FF400225A60274B0022AD
:101528009A60264B0022DA60244B00221A61234B72
:1015380000225A61214B04229A61204B00221A771B
:101548001E4B01225A771D4B01221A621B4B0022A7
:1015580083F82420194B0022DA62184B00221A6300
:10156800164B012283F83820144B0022DA63134B00
:10157800002283F84020114802F07EFA0346002B2F
:1015880001D001F0A3FA0F4B3B6006237B600023D8
:10159800BB607F23FB6004233B6100237B613B46E8
:1015A8001946064802F00CFD0346002B01D001F055
:1015B8008DFA00BF2037BD4680BD00BF580300200C
:1015C800000600500200300480B58CB000AF3B46E6
:1015D8003022002118460EF0A7F91E4B1E4A1A6049
:1015E8001C4803F082FD0346002B01D001F06EFA7F
:1015F80002233B6000233B7100237B710023BB6007
:101608000023FB6000233B6100237B610123BB6156
:101618000023FB613B46002219460E4803F022FED8
:101628000346002B01D001F051FA3B46102219461F
:10163800084803F017FE0346002B01D001F046FAD4
:10164800044B064A9A60054B024A9A6200BF30373B
:10165800BD4680BDE4040020000800500C050020B1
:1016680080B58CB000AF3B463022002118460EF002
:101678005BF9164B164A1A60144803F036FD034608
:10168800002B01D001F022FA02233B6000233B71BA
:1016980000237B710023BB600023FB6000233B61B8
:1016A80000237B610123BB610023FB613B460022D1
:1016B8001946064803F0D6FD0346002B01D001F079
:1016C80005FA00BF3037BD4680BD00BFF8040020D2
:1016D800000C005080B598B000AF07F15403002209
:1016E8001A605A609A6007F1380300221A605A603B
:1016F8009A60DA601A615A619A613B1D34220021AE
:1017080018460EF011F93A4B3A4A1A60384B002243
:101718005A60374B00229A60354BD222DA60344B3C
:1017280000221A61324B00225A61314B00229A6121
:101738002F4807F062FA0346002B01D001F0C6F9E2
:1017480000237B650023BB650023FB6507F1540379
:101758001946274808F098FC0346002B01D001F0F1
:10176800B5F96023BB630023FB6300233B640023BC
:101778007B640023BB640023FB6400233B6507F103
:101788003803002219461A4807F08CFD0346002B3F
:1017980001D001F09BF900237B600023BB6000238C
:1017A800FB6000233B6100237B614FF40053BB6166
:1017B8000023FB6100233B6200237B624FF0007330
:1017C800BB620023FB6200233B6300237B633B1D5A
:1017D8001946074808F0EEFC0346002B01D001F03B
:1017E80075F9034801F0DEFC00BF6037BD4680BDD7
:1017F800CC050020002C014080B58AB000AF07F16D
:101808001C0300221A605A609A603B4600221A6044
:101818005A609A60DA601A615A619A61224B4FF0F5
:1018280080421A60204B00225A601F4B00229A60A7
:101838001D4B4FF0FF32DA601B4B00221A611A4B26
:1018480000229A61184807F0D8F90346002B01D006
:1018580001F03CF90023FB6100237B6207F11C03C4
:101868001946114808F010FC0346002B01D001F07E
:101878002DF960233B6000237B600023BB600023BD
:101888003B613B4600221946074807F00BFD03461B
:10189800002B01D001F01AF9034801F083FC00BFC6
:1018A8002837BD4680BD00BF1806002080B58EB021
:1018B80000AF07F1280300221A605A609A60DA60C4
:1018C80007F11C0300221A605A609A603B46002206
:1018D8001A605A609A60DA601A615A619A612D4BEF
:1018E8002D4A1A602B4B00225A602A4B00229A601C
:1018F800284B40F2A722DA60264B00221A61254BBA
:1019080000229A61234807F009F80346002B01D00A
:1019180001F0DCF84FF48053BB6207F12803194645
:101928001C4807F0D3FD0346002B01D001F0CEF888
:10193800184807F062F90346002B01D001F0C6F8F9
:101948000023FB6100237B6207F11C031946114841
:1019580008F09AFB0346002B01D001F0B7F860238A
:101968003B6000237B600023BB6000233B613B4658
:1019780000221946074807F095FC0346002B01D0C2
:1019880001F0A4F8034801F00DFC00BF3837BD464C
:1019980080BD00BF640600200008004080B584B008
:1019A80000AF3B1D00221A605A609A60144B154A1A
:1019B8001A60134B09225A60114B00229A60104B8F
:1019C8006322DA600E4B00229A610D4806F0A6FFEA
:1019D8000346002B01D001F079F800237B60002337
:1019E800FB603B1D1946064808F04EFB0346002BDA
:1019F80001D001F06BF800BF1037BD4680BD00BFB5
:101A0800B00600200014004080B598B000AF07F180
:101A1800540300221A605A609A6007F138030022C2
:101A28001A605A609A60DA601A615A619A613B1DBD
:101A38003422002118460DF077FF3A4B3A4A1A60D3
:101A4800384B00225A60374B00229A60354BD2221D
:101A5800DA60344B00221A61324B00225A61314B52
:101A680000229A612F4807F0C8F80346002B01D0DE
:101A780001F02CF800237B650023BB650023FB6580
:101A880007F154031946274808F0FEFA0346002BCD
:101A980001D001F01BF86023BB630023FB63002324
:101AA8003B6400237B640023BB640023FB640023A6
:101AB8003B6507F13803042219461A4807F0F2FB80
:101AC8000346002B01D001F001F800237B600023BE
:101AD800BB600023FB6000233B6100237B614FF464
:101AE8000053BB610023FB6100233B6200237B6240
:101AF8004FF00073BB620023FB6200233B630023AB
:101B08007B633B1D1946074808F054FB0346002B2E
:101B180001D000F0DBFF034801F044FB00BF603751
:101B2800BD4680BDFC0600200034014080B588B069
:101B380000AF07F1100300221A605A609A60DA6059
:101B48003B1D00221A605A609A601E4B1E4A1A609A
:101B58001C4B00225A601B4B00229A60194B06222C
:101B6800DA60184B00221A61164B00225A61154B95
:101B780000229A61134806F0D1FE0346002B01D0DB
:101B880000F0A4FF4FF480533B6107F1100319469E
:101B98000C4807F09BFC0346002B01D000F096FF91
:101BA80000237B600023FB603B1D1946054808F0B5
:101BB8006BFA0346002B01D000F088FF00BF2037E6
:101BC800BD4680BD480700200040014080B500AFF9
:101BD8000F4B104A1A600E4B43F697225A600C4B73
:101BE80000229A600A4B0922DA60094B00221A6126
:101BF800074B00225A61064B00229A61044806F0FE
:101C08008DFE0346002B01D000F060FF00BF80BDB1
:101C1800940700200044014080B500AF224B234ABE
:101C28001A60214B4FF4E1325A601F4B00229A6030
:101C38001D4B0022DA601C4B00221A611A4B0C2241
:101C48005A61194B00229A61174B0022DA61164B30
:101C580000221A62144B00225A62134B00229A6225
:101C6800114808F081FB0346002B01D000F02EFF3D
:101C780000210D4809F01CF90346002B01D000F0A3
:101C880025FF0021084809F051F90346002B01D02F
:101C980000F01CFF044809F0D2F80346002B01D0DD
:101CA80000F014FF00BF80BDE0070020004C00409A
:101CB80080B582B000AF224B9B6C214A43F00403ED
:101CC80093641F4B9B6C03F004037B607B681C4B85
:101CD8009B6C1B4A43F001039364194B9B6C03F004
:101CE80001033B603B68002200210B2003F0C9F987
:101CF8000B2003F0E0F9002200210C2003F0C1F9C9
:101D08000C2003F0D8F9002200210D2003F0B9F9C6
:101D18000D2003F0D0F9002200210E2003F0B1F9C4
:101D28000E2003F0C8F9002200210F2003F0A9F9C2
:101D38000F2003F0C0F900BF0837BD4680BD00BFC3
:101D48000010024080B58CB000AF07F11C030022E0
:101D58001A605A609A60DA601A61654BDB6C644AF3
:101D680043F01003D364624BDB6C03F01003BB61D8
:101D7800BB695F4BDB6C5E4A43F00403D3645C4B86
:101D8800DB6C03F004037B617B69594BDB6C584ABD
:101D980043F02003D364564BDB6C03F020033B6114
:101DA8003B69534BDB6C524A43F00103D364504BFD
:101DB800DB6C03F00103FB60FB684D4BDB6C4C4AAA
:101DC80043F00203D3644A4BDB6C03F00203BB60AD
:101DD800BB68474BDB6C464A43F00803D364444B6B
:101DE800DB6C03F008037B607B68002222214148FA
:101DF80003F0FCFF002204213F4803F0F7FF002214
:101E080040213E4803F0F2FF00224FF438713C486D
:101E180003F0ECFF2223FB6101233B6200237B627A
:101E28000023BB6207F11C031946324803F044FE45
:101E38000423FB6100233B6200237B6207F11C0340
:101E480019462E4803F038FE0423FB6101233B6248
:101E580000237B620023BB6207F11C031946264856
:101E680003F02AFE4023FB6101233B6200237B62CF
:101E78000023BB6207F11C031946204803F01CFE2F
:101E8800FE23FB6100233B6200237B6207F11C03F6
:101E980019461C4803F010FE4FF48473FB610023BD
:101EA8003B6200237B6207F11C031946144803F0C8
:101EB80003FE4FF43873FB6101233B6200237B620E
:101EC8000023BB6207F11C0319460D4803F0F4FD1B
:101ED8000123FB6100233B6200237B6207F11C03A3
:101EE8001946044803F0E8FD00BF3037BD4680BD01
:101EF8000010024000100048001400480008004884
:101F080000040048000C004880B483B000AF0346CA
:101F18000A46FB711346BB71FB79052B30D801A229
:101F280052F823F0451F00084F1F0008591F0008EA
:101F3800671F00087B1F0008851F0008BB79002B5E
:101F480020D1022326E0BB79002B1DD1022321E0FA
:101F5800BB79012B01D104231CE003231AE0BB79D0
:101F6800012B01D1042315E0BB79032B0ED10523E6
:101F780010E0BB79022B0BD101230BE0012309E010
:101F880000BF06E000BF04E000BF02E000BF00E0C1
:101F980000BFFB7918460C37BD465DF8047B7047D7
:101FA80080B485B000AF78607B68642B01D9642366
:101FB8007B600B4BDB6801337A6802FB03F3094A49
:101FC800A2FB03235B09013BFB60054B1B68FA6816
:101FD8005A6300BF1437BD465DF8047B704700BFE5
:101FE800640600201F85EB5180B483B000AF786091
:101FF80000BF0C37BD465DF8047B704780B588B0DC
:1020080000AFF860B9607A60104BFB61FB685B68F1
:102018000133BB61BB697A6802FB03F3FA69B2FB5F
:10202800F3F3013B7B61FB681B687A69DA62FB6842
:102038007A69DA60B968F86806F048FFB968F8683C
:1020480006F032FE00BF2037BD4680BD80D1F008C3
:1020580080B500AF0121174803F0B0FE0346002BFE
:1020680023D14FF48071144803F0A8FE0346002BD7
:102078001BD10821104803F0A1FE0346002B14D100
:1020880080210E4803F09AFE0346002B0DD1402113
:102098000A4803F093FE0346002B06D14021084866
:1020A80003F08CFE0346002B01D0002300E001233F
:1020B800184680BD0010004800040048000C004885
:1020C8000008004880B500AF1021104803F076FEE4
:1020D8000346002B16D008210C4803F06FFE034678
:1020E800002B0FD00421094803F068FE0346002B9B
:1020F80008D00221054803F061FE0346002B01D0F9
:10210800012300E00023184680BD00BF000C0048F2
:10211800B0B586B000AF78607B681B68D04A934240
:1021280040F0AE82CF4B1B78022B04D0CD4B1B78EE
:10213800032B40F0A582CC4B1B889BB207EE903A4C
:10214800F8EE677AC94B93ED007AF0EE470AB0EEE5
:10215800670A00F0BDFBF0EE407A9FEDC57AC7EE46
:10216800876A16EE900AFEF7B7F9B7A3D3E90023FA
:10217800FEF70AFA02460B4610461946FEF7D4FC4B
:102188000346BC4A1360B84B5B889BB207EE903A93
:10219800F8EE677AB54B93ED007AF0EE470AB0EEA9
:1021A800670A00F095FBF0EE407A9FEDB17AC7EE32
:1021B800876A16EE900AFEF78FF9A3A3D3E90023E6
:1021C800FEF7E2F902460B4610461946FEF7ACFC4C
:1021D8000346A94A1360A44BDB889BB207EE903AEA
:1021E800F8EE677AA14B93ED007AF0EE470AB0EE6D
:1021F800670A00F06DFBF0EE407A9FED9D7AC7EE1E
:10220800876A16EE900AFEF767F98FA3D3E90023D1
:10221800FEF7BAF902460B4610461946FEF784FC4B
:102228000346924A1360904B1B899BB207EE903A83
:10223800F8EE677A914B93ED007AF0EE470AB0EE2C
:10224800670A00F045FBF0EE407A9FED897AC7EE09
:10225800876A16EE900AFEF73FF97BA3D3E90023BD
:10226800FEF792F902460B4610461946FEF75CFC4B
:102278000346824A13607C4B9B889BB207EE903AD8
:10228800F8EE677A7E4B93ED007AF0EE470AB0EEEF
:10229800670A00F01DFBF0EE407A9FED757AC7EEF5
:1022A800876A16EE900AFEF717F967A3D3E90023A9
:1022B800FEF76AF902460B4610461946FEF734FC4B
:1022C80003466F4A13606F4B1B889BB207EE903A28
:1022D800F8EE677A6C4B1B8807EE103AB8EE477A2F
:1022E800F0EE470AB0EE670A00F0F2FAF0EE407A34
:1022F8009FED5F7AC7EE876A16EE900AFEF7ECF854
:1023080051A3D3E90023FEF73FF902460B461046D6
:102318001946FEF7E9FB03469AB25B4B1A805B4B02
:102328001B889BB207EE903AF8EE677A584B93ED0C
:10233800007AF0EE470AB0EE670A00F0C9FAF0EE4C
:10234800407A9FED4B7AC7EE876A16EE900AFEF741
:10235800C3F83DA3D3E90023FEF716F902460B465E
:1023680010461946FEF7E0FB0346494A1360464B00
:102378001B8807EE903AF8EEE76A414B93ED007A36
:10238800C6EE877AC7ED057AD7ED057AB0EE007A02
:10239800F4EEC77AF1EE10FA40F18080B7EE007AD9
:1023A800D7ED057A77EE677A17EE900AFEF794F87C
:1023B80002460B4643EC102B0DF0E8FA51EC100BDB
:1023C80023A3D3E90023FEF709FA02460B46104679
:1023D8001946FEF7A9FB03462E4A13602A4B1B88B1
:1023E8001846FEF767F804460D46B0EE007AD7EDBA
:1023F800057A37EE677AD7ED057AC7EE276A16EEC3
:10240800900AFEF769F802460B4643EC102B0DF0D4
:10241800F1FA53EC102B20462946FEF7B5F8024690
:102428000B46104619460CA3D3E90023FEF7D6F94C
:1024380002460B4610461946FEF776FB0346164A37
:10244800136065E0AFF300806666666666660A40FC
:1024580097CC167097849E3E1B2CBDAE37456240C4
:1024680000400140C2080020940800208C08002089
:10247800000080457408002078080020900800209B
:1024880088080020A6080020A0080020B408002022
:10249800B0080020A808002084080020D7ED057A9D
:1024A800B0EE007AF4EEC77AF1EE10FA30DBD7ED31
:1024B800057AB7EE007A77EEC77AB7EE007AC7EEFC
:1024C800276A16EE900AFEF707F802460B4643EC19
:1024D800102B0DF05BFA53EC102B8DA1D1E9000104
:1024E800FDF79AFE02460B46104619468AA3D3E921
:1024F8000023FEF773F902460B4610461946FEF70D
:1025080013FB03466C4A13606C4B4FF000021A60D1
:10251800694B93ED007AF7EE006AC6EE877AFDEE16
:10252800E77A17EE903A3B613B691A460021644806
:10253800FFF764FD00F008FA00F0F2F8614B1B8821
:1025480007EE903AF8EE677A5F4B1B8807EE103A71
:10255800B8EE477A5D4BD3ED006A5D4B93ED006AA8
:102568005C4BD3ED005A5C4B93ED005A9FED5B3A00
:10257800F0EE452AB0EE652AF0EE461AB0EE661A7D
:10258800F0EE470AB0EE670A5549564800F002F9DE
:102598004C4B1B881846FDF78DFF45A3D3E9002354
:1025A800FDF7F2FF02460B4614461D464D4B1B68CD
:1025B8001846FDF791FF02460B4620462946FEF7CE
:1025C8000DF902460B4610461946FEF7ADFA0346CA
:1025D800454A1360444B93ED007AF7EE006AC6EE65
:1025E800877AFDEEE77A17EE903AFB60FB681A46A9
:1025F80000213E48FFF702FD3A4B93ED007A3C4B31
:10260800D3ED007A77EE277A3A4BC3ED007A354B53
:10261800D3ED007AFDEEE77A17EE902A13469B0079
:1026280013449A00134403F5006300220021324842
:1026380002F0EAFD2F4BD3ED007AFDEEE77A17EEB4
:10264800902A13469B0013449A00134403F5006331
:1026580000221021284802F0D7FD184BD3ED007A4C
:10266800FDEEE77A17EE902A13469B0013449A0072
:10267800134403F5006300220021204802F0C4FD42
:102688007B681B681E4A93420BD102211D4803F048
:10269800C5FB4FF400711C4803F0C0FB1B4806F053
:1026A8007DFA00BF1837BD46B0BD00BFAFF300804C
:1026B8007052C4E5D9E5323EA808002084080020FD
:1026C800CC050020A0080020A40800200C00002051
:1026D80010000020040000200800002017B7D1389F
:1026E800B80800207C080020AC080020FC06002068
:1026F800B008002080080020E4040020F80400202E
:10270800001400400010004800040048B0060020F3
:102718006E861BF0F921094097CC167097849E3E6F
:1027280080B400AF174B1B881A46174B1B88D31A67
:10273800002B0DDC144B1A88144B1B8812FB03F377
:102748009AB2104B1B8813449AB2114B1A8014E0AA
:102758000C4B1B881A460C4B1B88D31A012B0CDD1B
:10276800084B1A88084B1988084B1B8811FB03F380
:102778009BB2D31A9AB2064B1A8000BFBD465DF8C9
:10278800047B7047A2080020000000209E0800205B
:10279800A4080020B0B58CB000AF7862396287ED2C
:1027A800070AC7ED060A87ED051AC7ED041A87ED73
:1027B800032AC7ED022A87ED013A97ED067AD7ED8D
:1027C800077A77EE677AC7ED0B7A3B6A1B6818467B
:1027D800FDF782FE04460D463A4B93ED007AD7ED9D
:1027E8000B7A37EE277A97ED036AD7ED026AC6EEC1
:1027F800267A27EE277AD7ED017A67EE277A17EE41
:10280800900AFDF769FE4FF000022F4BFDF7BCFE62
:1028180002460B4620462946FDF700FD02460B46B8
:1028280010461946FEF780F902463B6A1A60254AA7
:10283800FB6A13603B6AD3ED007A97ED057AB4EE34
:10284800E77AF1EE10FA02D83B6A7A691A603B6AB5
:10285800D3ED007A97ED047AB4EEE77AF1EE10FA48
:1028680002DB3B6A3A691A6097ED0B7AD7ED037A77
:1028780027EE277A3B6AD3ED007A77EE277A7B6AD0
:10288800C3ED007A7B6AD3ED007A97ED057AB4EE52
:10289800E77AF1EE10FA02D87B6A7A691A607B6AE5
:1028A800D3ED007A97ED047AB4EEE77AF1EE10FAF8
:1028B80000DA02E07B6A3A691A6000BF3037BD4629
:1028C800B0BD00BFBC0800200000E03F00000000D1
:1028D800B0B584B000AF87ED010AC7ED000A4FF02C
:1028E8000003FB607868FDF7F7FD13A3D3E9002325
:1028F800FDF74AFE02460B4614461D463868FDF7AA
:10290800EBFD0FA3D3E90023FDF73EFE02460B467D
:1029180020462946FDF782FC02460B46104619461A
:10292800FEF702F90346FB60FB6807EE903AB0EE4B
:10293800670A1037BD46B0BD9A9999999999B93FD8
:10294800CDCCCCCCCCCCEC3F80B582B000AF14233E
:102958007B60574B3B60574B1B681846FDF7BCFD27
:102968004DA3D3E90023FDF757FC02460B4610465A
:1029780019464BA3D3E90023FDF730FF02460B4667
:1029880010461946FEF7D0F803464A4A13604A4BE8
:102998001B681846FDF7A0FD4FF00002474BFDF7F6
:1029A8003BFC02460B46104619463FA3D3E90023D9
:1029B800FDF714FF02460B4610461946FEF7B4F819
:1029C80003463D4A13603B4B93ED007A3A4BD3EDF7
:1029D800007AB4EEE77AF1EE10FA02DD354B1B68A7
:1029E8003B60344B93ED007A334BD3ED007AB4EE71
:1029F800E77AF1EE10FA02D52F4B1B683B60D7ED52
:102A0800007AB3EE047A37EEC77ADFED2D6AC7EEA7
:102A1800267A9FED2C7A67EE877AB3EE047A77EE02
:102A2800877AFDEEE77A17EE903A7B60214BD3ED7B
:102A3800007AB3EE047AF4EEC77AF1EE10FA09D40C
:102A48001D4BD3ED007AB3EE047AF4EEC77AF1EEBB
:102A580010FA02D514237B6015E0164BD3ED007AEB
:102A68009FED197AF4EEC77AF1EE10FA09DC124BF1
:102A7800D3ED007A9FED147AF4EEC77AF1EE10FAEE
:102A880001DD63237B607B681846FFF789FA00BF86
:102A98000837BD4680BD00BF9A9999999999D93F41
:102AA8002B8716D9CEF7933F7B14AE47E17A843F44
:102AB8000000A0418C080020900800200000E03FA2
:102AC8000000A04200009E420000C84280B400AF4F
:102AD80072B600BF00BFFDE780B582B000AF0F4BF4
:102AE8001B6E0E4A43F0010313660C4B1B6E03F07A
:102AF80001037B607B68094B9B6D084A43F0805358
:102B08009365064B9B6D03F080533B603B6804F074
:102B180079FF00BF0837BD4680BD00BF00100240E6
:102B280080B5A4B000AF786007F17C0300221A607A
:102B38005A609A60DA601A6107F12803542200216A
:102B480018460CF0F1FE7B681B68B3F1A04F1CD14E
:102B58004FF40043BB624FF00053FB6607F12803B4
:102B6800184605F08DFC0346002B01D0FFF7AEFF99
:102B7800854BDB6C844A43F40053D364824BDB6C93
:102B880003F400537B627B6A83E17B681B687F4A9E
:102B9800934240F087804FF48033BB624FF080430C
:102BA8003B6707F12803184605F06AFC0346002B2B
:102BB80001D0FFF78BFF764B1B680133744A136013
:102BC800734B1B68012B0BD16F4BDB6C6E4A43F4C4
:102BD8008043D3646C4BDB6C03F480433B623B6AF9
:102BE800694BDB6C684A43F00203D364664BDB6CC9
:102BF80003F00203FB61FB69634BDB6C624A43F041
:102C08001003D364604BDB6C03F01003BB61BB693A
:102C180042F20203FB670323C7F880300023C7F89A
:102C2800843007F17C0319465A4802F045FF4FF4F7
:102C38000A53FB670323C7F880300023C7F88430A2
:102C480007F17C031946544802F036FF534B544AA7
:102C58001A60524B25225A60504B00229A604F4B03
:102C68000022DA604D4B80221A614C4B4FF480727F
:102C78005A614A4B4FF480629A61484B2022DA61CC
:102C8800464B00221A62454802F0A4FC0346002B7A
:102C980001D0FFF71BFF7B68404A5A653F4A7B68B3
:102CA8009362F6E07B681B683E4A934240F080805E
:102CB8004FF48033BB624FF080433B6707F1280332
:102CC800184605F0DDFB0346002B01D0FFF7FEFE9A
:102CD8002F4B1B6801332E4A13602D4B1B68012BA9
:102CE8000BD1294BDB6C284A43F48043D364264B31
:102CF800DB6C03F480437B617B69234BDB6C224AEA
:102D080043F01003D364204BDB6C03F010033B61EA
:102D18003B694FF48043FB670323C7F880300023E7
:102D2800C7F8843007F17C0319461B4802F0C4FE3B
:102D38001D4B1E4A1A601C4B26225A601A4B002251
:102D48009A60194B0022DA60174B80221A61164BE1
:102D58004FF480725A61144B4FF480629A61124B9F
:102D68002022DA61104B00221A620F4802F032FC6E
:102D78000346002B01D0FFF7A9FE7B680A4A5A6573
:102D8800094A7B68936284E0001002400004005006
:102D9800C40800200004004800100048C4030020B4
:102DA8000800024000050050240400201C000240D6
:102DB8007B681B68394A93426BD14FF48033BB62FE
:102DC8004FF080433B6707F12803184605F058FB8E
:102DD8000346002B01D0FFF779FE314B1B68013306
:102DE8002F4A13602E4B1B68012B0BD12D4BDB6C2C
:102DF8002C4A43F48043D3642A4BDB6C03F48043AE
:102E0800FB60FB68274BDB6C264A43F00103D36465
:102E1800244BDB6C03F00103BB60BB684FF4807389
:102E2800FB670323C7F880300023C7F8843007F115
:102E38007C0319464FF0904002F03EFE1A4B1B4AA5
:102E48001A60194B27225A60174B00229A60164BBA
:102E58000022DA60144B80221A61134B4FF48072FF
:102E68005A61114B4FF480629A610F4B2022DA614C
:102E78000D4B00221A620C4802F0ACFB0346002BF3
:102E880001D0FFF723FE7B68074A5A65064A7B682C
:102E9800936200BF9037BD4680BD00BF000600505A
:102EA800C4080020001002408404002030000240C2
:102EB80080B58CB000AF786007F11C0300221A605F
:102EC8005A609A60DA601A617B681B68574A9342B5
:102ED80051D1574BDB6C564A43F48033D364544B7F
:102EE800DB6C03F48033BB61BB69514BDB6C504A2C
:102EF80043F00103D3644E4BDB6C03F001037B61A9
:102F08007B693023FB6103233B6200237B6207F16B
:102F18001C0319464FF0904002F0CEFD454B464A3F
:102F28001A60444B06225A60424B10229A60414B69
:102F38000022DA603F4B80221A613E4B4FF4007248
:102F48005A613C4B4FF400629A613A4B2022DA6195
:102F5800384B4FF400521A62364802F03BFB0346E6
:102F6800002B01D0FFF7B2FD7B68324A9A60314AE4
:102F78007B68936255E07B681B68304A934250D166
:102F88002B4BDB6C2A4A43F40033D364284BDB6CAD
:102F980003F400333B613B69254BDB6C244A43F067
:102FA8000103D364224BDB6C03F00103FB60FB6875
:102FB8004023FB6103233B6200237B6207F11C0370
:102FC80019464FF0904002F077FD1D4B1D4A1A60DC
:102FD8001B4B29225A601A4B10229A60184B002268
:102FE800DA60174B80221A61154B4FF400725A6150
:102FF800134B4FF400629A61114B2022DA61104B97
:103008004FF400521A620E4802F0E4FA0346002B0D
:1030180001D0FFF75BFD7B68094A9A60084A7B6824
:10302800936200BF3037BD4680BD00BF0008005026
:10303800001002400C05002044000240000C005023
:103048006C0500205800024080B586B000AF78605B
:103058007B681B681F4A934214D11F4B1B6E1E4A84
:1030680043F4006313661C4B1B6E03F400637B611F
:103078007B6900220021182002F003F8182002F0D2
:103088001AF822E07B681B68B3F1804F0CD1124B11
:103098009B6D114A43F0010393650F4B9B6D03F041
:1030A80001033B613B6910E07B681B680B4A934254
:1030B8000BD1094B1B6E084A43F400531366064BA9
:1030C8001B6E03F40053FB60FB6800BF1837BD4656
:1030D80080BD00BF002C01400010024000340140B8
:1030E80080B586B000AF78607B681B68284A934239
:1030F8000CD1284B9B6D274A43F004039365254B5D
:103108009B6D03F004037B617B693CE07B681B6873
:10311800214A93420CD11F4B9B6D1E4A43F020035A
:1031280093651C4B9B6D03F020033B613B692AE0D0
:103138007B681B68194A934214D1164B1B6E154ABB
:1031480043F480331366134B1B6E03F48033FB6028
:10315800FB6800220021182001F093FF182001F0DD
:10316800AAFF10E07B681B680D4A93420BD1094BFC
:103178001B6E084A43F400331366064B1B6E03F4B8
:103188000033BB60BB6800BF1837BD4680BD00BFB9
:1031980000080040001002400014004000400140B8
:1031A8000044014080B58CB000AF786007F11C0383
:1031B80000221A605A609A60DA601A617B681B689C
:1031C800454A93421CD1454BDB6C444A43F0040307
:1031D800D364424BDB6C03F00403BB61BB6901237E
:1031E800FB6102233B6200237B620023BB62022354
:1031F800FB6207F11C031946394802F05DFC67E0E1
:103208007B681B68B3F1804F1ED1344BDB6C334AAB
:1032180043F00103D364314BDB6C03F001037B61A2
:103228007B694FF40043FB6102233B6200237B620E
:103238000023BB620123FB6207F11C0319464FF010
:10324800904002F039FC43E07B681B68254A9342B2
:103258001DD1224BDB6C214A43F00803D3641F4B7A
:10326800DB6C03F008033B613B694FF48053FB615F
:1032780002233B6200237B620023BB620223FB62C2
:1032880007F11C031946184802F016FC20E07B6879
:103298001B68164A93421BD1104BDB6C0F4A43F054
:1032A8000403D3640D4BDB6C03F00403FB60FB6881
:1032B8008023FB6102233B6200237B620023BB6205
:1032C8000423FB6207F11C031946054802F0F4FBCE
:1032D80000BF3037BD4680BD002C014000100240C1
:1032E8000008004800080040000C00480034014075
:1032F80080B59EB000AF786007F1640300221A60C1
:103308005A609A60DA601A6107F1100354220021AA
:1033180018460CF009FB7B681B681F4A934236D19C
:1033280008233B6180233B6207F11003184605F030
:10333800A7F80346002B01D0FFF7C8FB174B9B6D7E
:10334800164A43F400239365144B9B6D03F4002342
:10335800FB60FB68114BDB6C104A43F00403D36439
:103368000E4BDB6C03F00403BB60BB684FF4406397
:103378007B660223BB660023FB6600233B670523AD
:103388007B6707F164031946054802F095FB00BF07
:103398007837BD4680BD00BF004C00400010024099
:1033A8000008004880B400AF00BFFDE780B400AF5C
:1033B80000BFFDE780B400AF00BFFDE780B400AFF9
:1033C80000BFFDE780B400AF00BFFDE780B400AFE9
:1033D80000BFBD465DF8047B704780B400AF00BFF6
:1033E800BD465DF8047B704780B400AF00BFBD46A2
:1033F8005DF8047B704780B500AF00F0DBF800BFD4
:1034080080BD000080B500AF024802F006FA00BF98
:1034180080BD00BFC403002080B500AF024802F0A1
:10342800FCF900BF80BD00BF2404002080B500AFB8
:10343800024802F0F2F900BF80BD00BF84040020FA
:1034480080B500AF024802F0E8F900BF80BD00BFB8
:103458000C05002080B500AF024802F0DEF900BF7D
:1034680080BD00BF6C05002080B500AF024802F0A7
:10347800DFFD00BF80BD00BFA01D002080B500AFEC
:10348800034805F0BFFD034805F0BCFD00BF80BD43
:10349800CC0500204807002080B400AF064BD3F8C5
:1034A8008830054A43F47003C2F8883000BFBD462F
:1034B8005DF8047B704700BF00ED00E00D488546CD
:1034C800FFF7EAFF0C480D490D4A002302E0D458E3
:1034D800C4500433C4188C42F9D30A4A0A4C002356
:1034E80001E013600432A242FBD30CF02BFAFDF783
:1034F800E3FCFEE70000022000000020F8010020A5
:103508009C010108F8010020D4230020FEE780B5C3
:1035180082B000AF0023FB71032001F0A7FD0F204C
:1035280000F00EF80346002B02D00123FB7101E0E6
:10353800FFF7D2FAFB7918460837BD4680BD000070
:1035480080B584B000AF78600023FB73164B1B680E
:10355800002B22D0154B1A68134B1B684FF47A7155
:10356800B1FBF3F3B2FBF3F3184601F0B2FD0346E7
:10357800002B0FD17B680F2B09D8002279684FF0F8
:10358800FF3001F07EFD0A4A7B68136007E00123E3
:10359800FB7304E00123FB7301E00123FB73FB7B56
:1035A80018461037BD4680BD1C00002014000020BE
:1035B8001800002080B400AF054B1A68054B1B6843
:1035C8001344034A136000BFBD465DF8047B70478F
:1035D800C80800201C00002080B400AF034B1B6803
:1035E8001846BD465DF8047B704700BFC808002038
:1035F80080B483B000AF786039607B689B6823F43F
:103608007C123B681A437B689A6000BF0C37BD4642
:103618005DF8047B704780B483B000AF7860396090
:103628007B689B6823F0E0723B681A437B689A606A
:1036380000BF0C37BD465DF8047B704780B483B08B
:1036480000AF78607B689B6803F0E07318460C371E
:10365800BD465DF8047B704780B487B000AFF86062
:10366800B9607A603B60FB6860331A46BB689B00B0
:1036780013447B617B691A68084B13407A6802F02F
:10368800F8413A680A43134343F000427B691A60E1
:1036980000BF1C37BD465DF8047B704700F0FF0390
:1036A80080B485B000AF786039607B6860331A46B3
:1036B8003B689B001344FB60FB681B6803F0F843FE
:1036C80018461437BD465DF8047B704780B487B050
:1036D80000AFF860B9607A60FB6860331A46BB686F
:1036E8009B0013447B617B691B6823F000427B6865
:1036F8001A437B691A6000BF1C37BD465DF8047B1E
:10370800704780B487B000AFF860B9607A60FB6832
:1037180060331A46BB689B0013447B617B691B6856
:1037280023F080727B681A437B691A6000BF1C37DC
:10373800BD465DF8047B704780B487B000AFF86081
:10374800B9607A60FB6860331A46BB689B00134413
:103758007B617B691B6823F000727B681A437B6975
:103768001A6000BF1C37BD465DF8047B704780B403
:1037780083B000AF786039607B685B6923F00042F2
:103788003B681A437B685A6100BF0C37BD465DF839
:10379800047B704780B483B000AF78607B68DB68D7
:1037A80003F44063002B01D1012300E000231846F5
:1037B8000C37BD465DF8047B704780B487B000AF16
:1037C800F860B9607A60FB6830331A46BB681B0A38
:1037D8009B0003F00C0313447B617B691A68BB6888
:1037E80003F01F031F2101FA03F3DB431A407B6830
:1037F8009B0E03F01F01BB6803F01F0301FA03F3DC
:103808001A437B691A6000BF1C37BD465DF8047B0C
:10381800704780B487B000AFF860B9607A60FB6821
:1038280014331A46BB685B0E9B0003F00403134471
:103838007B617B691A68BB681B0D03F01F030721B6
:1038480001FA03F3DB431A40BB681B0D03F01F03A7
:10385800796801FA03F31A437B691A6000BF1C37C1
:10386800BD465DF8047B704780B485B000AFF86052
:10387800B9607A60FB68D3F8B020BB68C3F3120361
:10388800DB431A407B6803F018030849D940BB683A
:103898000B40C3F312031A43FB68C3F8B02000BF00
:1038A8001437BD465DF8047B704700BFFFFF070073
:1038B80080B483B000AF78607B689B6803F01F0317
:1038C80018460C37BD465DF8047B704780B483B05A
:1038D80000AF78607B689B6823F0204323F03F03A8
:1038E8007A68936000BF0C37BD465DF8047B70476B
:1038F80080B483B000AF78607B689B6803F00053A6
:10390800B3F1005F01D1012300E0002318460C3712
:10391800BD465DF8047B704780B483B000AF786023
:103928007B689B6823F0104323F03F0343F08052E9
:103938007B689A6000BF0C37BD465DF8047B704712
:1039480080B483B000AF78607B689B6803F08053D5
:10395800B3F1805F01D1012300E0002318460C3742
:10396800BD465DF8047B704780B483B000AF7860D3
:103978007B689B6823F0004323F03F0343F0010278
:103988007B689A6000BF0C37BD465DF8047B7047C2
:1039980080B483B000AF78607B689B6823F00043F5
:1039A80023F03F0343F002027B689A6000BF0C37A4
:1039B800BD465DF8047B704780B483B000AF786083
:1039C8007B689B6803F00103012B01D1012300E010
:1039D800002318460C37BD465DF8047B704780B459
:1039E80083B000AF78607B689B6803F00203022B0A
:1039F80001D1012300E0002318460C37BD465DF8CD
:103A0800047B704780B483B000AF78607B689B68A4
:103A180023F0004323F03F0343F004027B689A60DD
:103A280000BF0C37BD465DF8047B704780B483B097
:103A380000AF78607B689B6803F00403042B01D116
:103A4800012300E0002318460C37BD465DF8047BCF
:103A5800704780B483B000AF78607B689B6803F0E0
:103A68000803082B01D1012300E0002318460C3776
:103A7800BD465DF8047B704790B589B000AF7860AB
:103A88000023FB770023FB607B68002B01D1012317
:103A9800A9E17B685B69002B7B68DB6D002B09D192
:103AA8007868FFF73DF87B6800221A667B68002279
:103AB80083F858207B681B681846FFF719FF0346F0
:103AC800002B04D07B681B681846FFF7FFFE7B6855
:103AD8001B681846FFF734FF0346002B15D17B6897
:103AE8001B681846FFF718FF9C4B1B689B099C4AEC
:103AF800A2FB03239B0901335B00FB6002E0FB6828
:103B0800013BFB60FB68002BF9D17B681B681846FA
:103B1800FFF716FF0346002B0DD17B68DB6D43F0E2
:103B280010027B68DA657B681B6E43F001027B68D4
:103B38001A660123FB777B681B681846FFF776FF38
:103B480078617B68DB6D03F01003002B40F0428145
:103B58007B69002B40F03E817B68DB6D23F4817329
:103B680043F002027B68DA657B681B681846FFF73A
:103B780023FF0346002B41D17B681B68B3F1A04F9C
:103B880004D07B681B68774A93420FD14FF0A0405E
:103B9800FFF712FF04467348FFF70EFF034623435F
:103BA800002B0CBF01230023DBB212E06E48FFF7A5
:103BB80003FF04466D48FFF7FFFE03461C436C48AD
:103BC800FFF7FAFE03462343002B0CBF0123002313
:103BD800DBB2002B12D07B681B68B3F1A04F04D076
:103BE8007B681B685F4A934201D1624A00E0624ADF
:103BF8007B685B6819461046FFF7FAFC7B685B7FB9
:103C08005A037B68DB6B1A437B68DB681A437B6863
:103C18009B681A437B6893F824301B041343BB61E9
:103C28007B6893F82430012B06D17B689B6A013BA3
:103C38005B04BA691343BB617B68DB6A002B09D05C
:103C48007B68DB6A03F478727B681B6B1343BA6981
:103C58001343BB617B681B68DA68484B13407A687A
:103C68001268B9690B43D3607B681B681B6923F032
:103C780040617B685A6B7B681B680A431A617B68E2
:103C88001B681846FFF7E5FE38617B69002B7FD17A
:103C98003B69002B7CD17B681B7F9A037B6893F878
:103CA80038305B001343BB617B681B68DB6823F417
:103CB800804323F002037A681268B9690B43D36022
:103CC8007B681B69002B17D07B681B681A697B68A7
:103CD8001B6842F480321A617B681B68D3F8C030D5
:103CE80023F47F5323F03F037A6811697A681268D6
:103CF8000B43C2F8C03013E07B681B681A697B6805
:103D08001B6822F480321A617B681B68D3F8C030C4
:103D18007A68126823F47F5323F03F03C2F8C03057
:103D28007B6893F84030012B2AD17B681B681B699C
:103D380023F4FF6323F004037A68516C7A68926C69
:103D480011437A68D26C11437A68126D0A431A4398
:103D58007B681B6842F001021A6119E01400002018
:103D6800632D3E050001005000040050000500507E
:103D78000006005000030050000700500740F0FF05
:103D88007B681B681A697B681B6822F001021A614C
:103D98007B685B69012B0CD17B681B681B6B23F06C
:103DA8000F017B681B6A5A1E7B681B680A431A63EB
:103DB80007E07B681B681A6B7B681B6822F00F02A0
:103DC8001A637B68DB6D23F0030343F001027B6811
:103DD800DA6507E07B68DB6D43F010027B68DA6523
:103DE8000123FB77FB7F18462437BD4690BD00BFF3
:103DF80080B586B000AFF860B9607A60FB681B6870
:103E0800B3F1A04F04D0FB681B685A4A934201D112
:103E1800594B00E0594B1846FFF74AFD3861FB68DB
:103E28001B681846FFF702FE0346002B40F09B80F4
:103E3800FB6893F85830012B01D1022396E0FB6808
:103E4800012283F85820FB681B684D4A934208D02A
:103E58003B69002B05D03B69052B02D03B69092B38
:103E68007AD1F86800F0ECFC0346FB75FB7D002B6B
:103E78006DD1FB68DB6D23F4706323F0010343F419
:103E88008072FB68DA65FB681B683A4A934209D07E
:103E9800FB681B683B4A934202D0FB681B6803E03F
:103EA800394B01E04FF0A043FA681268934202D000
:103EB8003B69002B05D1FB68DB6D23F48012FB689E
:103EC800DA65FB68DB6D03F48053002B06D0FB68D2
:103ED8001B6E23F00602FB681A6602E0FB680022EC
:103EE8001A66FB685B6D294ADA62FB685B6D284AD3
:103EF8001A63FB685B6D274A5A63FB681B681C22C0
:103F08001A60FB68002283F85820FB681B685A680F
:103F1800FB681B6842F010025A60FB681B68DA688D
:103F2800FB681B6842F00102DA60FB68586DFB68A9
:103F38001B6840331946BA687B6801F0F3FB0346F7
:103F4800FB75FB681B681846FFF75CFD0DE0FB6816
:103F5800002283F8582008E00123FB75FB68002243
:103F680083F8582001E00223FB75FB7D18461837BB
:103F7800BD4680BD000100500003005000070050FE
:103F8800000600500005005000040050334A0008A5
:103F98000B4B0008274B000880B483B000AF786053
:103FA80000BF0C37BD465DF8047B704780B483B012
:103FB80000AF786000BF0C37BD465DF8047B7047E2
:103FC80080B5B6B000AF78603960002387F8D73085
:103FD8000023FB607B6893F85830012B02D1022341
:103FE80000F013BC7B68012283F858207B681B68AB
:103FF8001846FFF71BFD0346002B40F0F3837B6850
:1040080018683B6859683B681B681A46FFF7D5FB78
:104018007B681B681846FFF709FDC7F8D0007B6866
:104028001B681846FFF715FDC7F8CC00D7F8D03045
:10403800002B40F0D981D7F8CC30002B40F0D48148
:104048003B689B68B3F1004F0FD17B6818683B68E9
:104058001B6800221946FFF7DCFB7B681B684FF0E2
:1040680000411846FFF783FB0EE07B6818683B6841
:1040780019683B689B681A46FFF7CBFB7B681B688F
:1040880000211846FFF773FB3B685A697B681B6879
:10409800DB68DB0803F003035B0002FA03F3C7F8ED
:1040A800C8303B681B69042B22D07B6818683B68C2
:1040B80019693B681A68D7F8C830FFF7CDFA7B68EA
:1040C80018683B6819693B689B691A46FFF719FB32
:1040D8007B6818683B6819693B681B7F012B02D114
:1040E8004FF0007300E000231A46FFF725FB7BE141
:1040F8007B681B6800211846FFF7D2FA0346C3F312
:104108001203002B0AD17B681B6800211846FFF7B1
:10411800C7FA03469B0E03F01F021EE07B681B686C
:1041280000211846FFF7BCFA0346C7F8BC30D7F899
:10413800BC3093FAA3F3C7F8B830D7F8B830C7F84B
:10414800C030D7F8C030002B01D1202304E0D7F8C5
:10415800C030B3FA83F3DBB21A463B681B68C3F37B
:104168001203002B05D13B681B689B0E03F01F034D
:1041780018E03B681B68C7F8B030D7F8B03093FA3E
:10418800A3F3C7F8AC30D7F8AC30C7F8B430D7F8D9
:10419800B430002B01D1202304E0D7F8B430B3FAAF
:1041A80083F3DBB29A4206D17B681B6800220021A8
:1041B8001846FFF78BFA7B681B6801211846FFF742
:1041C8006FFA0346C3F31203002B0AD17B681B68FE
:1041D80001211846FFF764FA03469B0E03F01F02FD
:1041E8001EE07B681B6801211846FFF759FA034651
:1041F800C7F8A430D7F8A43093FAA3F3C7F8A030CF
:10420800D7F8A030C7F8A830D7F8A830002B01D1CC
:10421800202304E0D7F8A830B3FA83F3DBB21A46B8
:104228003B681B68C3F31203002B05D13B681B686E
:104238009B0E03F01F0318E03B681B68C7F8983013
:10424800D7F8983093FAA3F3C7F89430D7F8943096
:10425800C7F89C30D7F89C30002B01D1202304E00C
:10426800D7F89C30B3FA83F3DBB29A4206D17B6865
:104278001B68002201211846FFF728FA7B681B6893
:1042880002211846FFF70CFA0346C3F31203002B6A
:104298000AD17B681B6802211846FFF701FA03461A
:1042A8009B0E03F01F021EE07B681B680221184664
:1042B800FFF7F6F90346C7F88C30D7F88C3093FA35
:1042C800A3F3C7F88830D7F88830C7F89030D7F804
:1042D8009030002B01D1202304E0D7F89030B3FAB6
:1042E80083F3DBB21A463B681B68C3F31203002B47
:1042F80005D13B681B689B0E03F01F0316E03B6863
:104308001B68C7F88030D7F8803093FAA3F3FB67AF
:10431800FB6FC7F88430D7F88430002B01D12023F5
:1043280004E0D7F88430B3FA83F3DBB29A4206D1BB
:104338007B681B68002202211846FFF7C7F97B68D3
:104348001B6803211846FFF7ABF90346C3F31203B2
:10435800002B0AD17B681B6803211846FFF7A0F9D8
:1043680003469B0E03F01F0217E07B681B680321BE
:104378001846FFF795F903467B677B6F93FAA3F31B
:104388003B673B6FBB67BB6F002B01D1202303E06A
:10439800BB6FB3FA83F3DBB21A463B681B68C3F3FF
:1043A8001203002B05D13B681B689B0E03F01F030B
:1043B80011E03B681B68BB66BB6E93FAA3F37B6690
:1043C8007B6EFB66FB6E002B01D1202303E0FB6EA6
:1043D800B3FA83F3DBB29A4206D17B681B680022EA
:1043E80003211846FFF772F97B681B681846FFF728
:1043F800E3FA0346002B40F03D817B6818683B6870
:1044080019683B68DB681A46FFF72EFA3B68DB68D9
:10441800A24A934240F02E817B6818683B681B686B
:10442800C3F31203002B0BD13B681B689B0E0133AF
:1044380003F01F03092B94BF01230023DBB219E00B
:104448003B681B68FB65FB6D93FAA3F3BB65BB6D0B
:104458003B663B6E002B01D1202303E03B6EB3FA91
:1044680083F3DBB2013303F01F03092B94BF01234D
:104478000023DBB2002B79D03B681B68C3F312031F
:10448800002B07D13B681B689B0E01339B0603F08A
:10449800F84215E03B681B683B653B6D93FAA3F354
:1044A800FB64FB6C7B657B6D002B01D1202303E053
:1044B8007B6DB3FA83F3DBB201339B0603F0F8425A
:1044C8003B681B68C3F31203002B09D13B681B68C8
:1044D8009B0E013303F01F03012101FA03F317E0D8
:1044E8003B681B687B647B6C93FAA3F33B643B6C6F
:1044F800BB64BB6C002B01D1202303E0BB6CB3FA77
:1045080083F3DBB2013303F01F03012101FA03F344
:1045180042EA03013B681B68C3F31203002B0AD16C
:104528003B681B689B0E013303F01F0213465B00B8
:1045380013441B0518E03B681B68BB63BB6B93FA0D
:10454800A3F37B637B6BFB63FB6B002B01D1202305
:1045580003E0FB6BB3FA83F3DBB2013303F01F0212
:1045680013465B0013441B050B437EE03B681B6846
:10457800C3F31203002B07D13B681B689B0E013362
:104588009B0603F0F84215E03B681B68FB62FB6A78
:1045980093FAA3F3BB62BB6A3B633B6B002B01D16D
:1045A800202303E03B6BB3FA83F3DBB201339B06B2
:1045B80003F0F8423B681B68C3F31203002B09D1D0
:1045C8003B681B689B0E013303F01F03012101FAAE
:1045D80003F317E03B681B683B623B6A93FAA3F35B
:1045E800FB61FB697B627B6A002B01D1202303E01E
:1045F8007B6AB3FA83F3DBB2013303F01F030121B3
:1046080001FA03F342EA03013B681B68C3F3120390
:10461800002B0DD13B681B689B0E013303F01F0272
:1046280013465B0013441E3B1B0543F000731BE05D
:104638003B681B687B617B6993FAA3F33B613B6929
:10464800BB61BB69002B01D1202303E0BB69B3FA2E
:1046580083F3DBB2013303F01F0213465B001344FC
:104668001E3B1B0543F000730B433A6892681946DA
:10467800FFF7CFF83B681A68094B1340002B00F08E
:10468800BE807B681B68B3F1A04F04D07B681B68B1
:10469800044A93420AD1044B09E000BF00007F405E
:1046A800000008800001005000030050594B1846D4
:1046B800FEF7C4FFC7F8C4003B681B68564A93421C
:1046C80004D03B681B68554A93423AD1D7F8C430A6
:1046D80003F40003002B34D17B681B68B3F1A04FAF
:1046E80005D07B681B684E4A934240F085807B6802
:1046F8001B68B3F1A04F04D07B681B68494A9342FA
:1047080001D1494A00E0434AD7F8C43043F40003D2
:1047180019461046FEF77FFF444B1B689B09444A25
:10472800A2FB03239B095A1C13465B0013449B00FE
:10473800FB6002E0FB68013BFB60FB68002BF9D1E2
:104748005AE03B681B683B4A934225D1D7F8C430EE
:1047580003F08073002B1FD17B681B68314A93429A
:1047680004D17B681B68344A934247D07B681B6836
:10477800B3F1A04F04D07B681B682A4A934201D149
:10478800294A00E0234AD7F8C43043F08073194619
:104798001046FEF740FF31E03B681B68274A93420A
:1047A8002DD1D7F8C43003F48003002B27D17B68C0
:1047B8001B681C4A934222D07B681B68B3F1A04F48
:1047C80004D07B681B68174A934201D1164A00E05F
:1047D800104AD7F8C43043F4800319461046FEF750
:1047E8001AFF0CE07B68DB6D43F020027B68DA651A
:1047F800012387F8D73002E000BF00E000BF7B68E4
:10480800002283F8582097F8D7301846D837BD4685
:1048180080BD00BF00070050000021C31000C090F9
:104828000006005000010050000300501400002052
:10483800632D3E05000052C700050050000084CBE0
:1048480080B584B000AF78600023BB607B681B68CC
:104858001846FFF7B1F80346002B76D17B681B6832
:104868009A683C4B1340002B0DD07B68DB6D43F0FE
:1048780010027B68DA657B681B6E43F001027B6877
:104888001A66012362E07B681B681846FFF76CF81C
:104898007B681B68B3F1A04F04D07B681B682E4A65
:1048A800934201D12D4B00E02D4B1846FEF7C6FE72
:1048B800034603F40003002B13D02A4B1B689B0903
:1048C800294AA2FB03239B095A1C13465B00134485
:1048D8009B00BB6002E0BB68013BBB60BB68002B70
:1048E800F9D1FEF779FEF86028E07B681B68184666
:1048F800FFF762F80346002B04D17B681B68184653
:10490800FFF732F8FEF768FE0246FB68D31A022B5F
:1049180014D97B681B681B6803F00103012B0DD0B9
:104928007B68DB6D43F010027B68DA657B681B6E81
:1049380043F001027B681A66012307E07B681B6865
:104948001B6803F00103012BCFD100231846103751
:10495800BD4680BD3F0000800001005000030050AC
:104968000007005014000020632D3E0580B584B078
:1049780000AF78607B681B681846FFF730F8F8606E
:104988007B681B681846FFF717F80346002B47D0CB
:10499800FB68002B44D17B681B689B6803F00D0300
:1049A800012B0CD17B681B681846FEF7F1FF7B686A
:1049B8001B6803221A60FEF70FFEB86029E07B68C7
:1049C800DB6D43F010027B68DA657B681B6E43F091
:1049D80001027B681A66012323E0FEF7FDFD02460B
:1049E800BB68D31A022B14D97B681B689B6803F039
:1049F8000103002B0DD07B68DB6D43F010027B6850
:104A0800DA657B681B6E43F001027B681A66012336
:104A180007E07B681B689B6803F00103002BDCD16F
:104A2800002318461037BD4680BD80B584B000AF5E
:104A380078607B689B6AFB60FB68DB6D03F0500362
:104A4800002B4BD1FB68DB6D43F40072FB68DA6521
:104A5800FB681B681B6803F00803002B21D0FB6868
:104A68001B681846FEF796FE0346002B32D0FB68FB
:104A78001B68DB6803F40053002B2BD1FB68DB6D4C
:104A880023F48072FB68DA65FB68DB6D03F48053FE
:104A9800002B1FD1FB68DB6D43F00102FB68DA6570
:104AA80018E0FB681B68DB6803F00203002B11D1D8
:104AB800FB68DB6D23F48072FB68DA65FB68DB6DED
:104AC80003F48053002B05D1FB68DB6D43F0010232
:104AD800FB68DA65F868FDF787FA0EE0FB68DB6DBE
:104AE80003F01003002B03D0F868FFF75FFA04E027
:104AF800FB685B6D5B6B7868984700BF1037BD46F5
:104B080080BD80B584B000AF78607B689B6AFB602D
:104B1800F868FFF741FA00BF1037BD4680BD80B581
:104B280084B000AF78607B689B6AFB60FB68DB6DD4
:104B380043F04002FB68DA65FB681B6E43F0040231
:104B4800FB681A66F868FFF731FA00BF1037BD46F0
:104B580080BD80B483B000AF78607B689B6803F049
:104B68000103012B01D1012300E0002318460C3773
:104B7800BD465DF8047B704780B483B000AF7860B1
:104B880039607B689B6823F0404323F03F033A6811
:104B980002F08042134343F000427B689A6000BFF2
:104BA8000C37BD465DF8047B704780B483B000AF16
:104BB80078607B689B6803F00043B3F1004F01D134
:104BC800012300E0002318460C37BD465DF8047B3E
:104BD800704780B483B000AF78607B689B6803F04F
:104BE8000403042B01D1012300E0002318460C37ED
:104BF800BD465DF8047B704780B584B000AF78602F
:104C080039600023BB607B6893F85830012B01D1D1
:104C180002234DE07B68012283F858207868FFF76B
:104C2800A5FE0346FB73FB7B002B36D17B68DB6D4F
:104C380023F4885323F0020343F002027B68DA6509
:104C48007B681B6839681846FFF796FF14E0BB6855
:104C58000133BB60BB68184A93420DD97B68DB6D92
:104C680023F0120343F010027B68DA657B680022A8
:104C780083F8582001231BE07B681B681846FFF760
:104C880094FF0346002BE2D17B68DB6D23F003031E
:104C980043F001027B68DA6505E07B68DB6D43F071
:104CA80010027B68DA657B68002283F85820FB7B5A
:104CB80018461037BD4680BD01DE040090B5A1B08E
:104CC80000AF78603960002387F87F307B6893F8FD
:104CD8005830012B01D10223E7E07B68012283F8D9
:104CE800582000237B660023BB667B681B68B3F1F2
:104CF800A04F02D16F4BBB6009E07B681B686E4A0E
:104D0800934202D16D4BBB6001E00023BB60BB68DE
:104D1800002B0BD17B68DB6D43F020027B68DA65E2
:104D28007B68002283F858200123BEE0BB68184640
:104D3800FFF74FFFB8677B681B681846FFF749FF06
:104D48000346002B40F0A080BB6F002B40F09C80F6
:104D58007B681B68B3F1A04F04D07B681B68554A79
:104D6800934201D1564B00E0564B7B673B681B686A
:104D7800002B4BD07B6F9B6823F460423B685968DB
:104D88007B6893F838305B030B431A437B6F9A6058
:104D98007B681B68B3F1A04F04D07B681B68454A49
:104DA80093420FD14FF0A040FFF7D3FE044641488D
:104DB800FFF7CFFE03462343002B0CBF012300233C
:104DC800DBB212E03C48FFF7C4FE04463B48FFF75D
:104DD800C0FE03461C433C48FFF7BBFE0346234383
:104DE800002B0CBF01230023DBB2002B56D07B6FB6
:104DF8009B6823F4716323F00F033A6811683A68DB
:104E080092680A431A437B6F9A6047E07B6F9B68FE
:104E180023F460427B6F9A607B681B68B3F1A04FF4
:104E280004D07B681B68234A93420FD14FF0A040FF
:104E3800FFF78FFE04461F48FFF78BFE0346234308
:104E4800002B0CBF01230023DBB212E01A48FFF746
:104E580080FE04461948FFF77CFE03461C431A48A7
:104E6800FFF777FE03462343002B0CBF01230023E3
:104E7800DBB2002B12D07B6F9B6823F4716323F0A5
:104E88000F037A6F936009E07B68DB6D43F02002C3
:104E98007B68DA65012387F87F3000E000BF7B6814
:104EA800002283F8582097F87F3018468437BD468B
:104EB80090BD00BF000100500004005000050050E4
:104EC80000030050000700500006005080B485B071
:104ED80000AF78607B6803F00703FB600C4BDB686E
:104EE800BB60BA684FF6FF031340BB60FB681A0249
:104EF800BB68134343F0BF6343F40033BB60044A09
:104F0800BB68D36000BF1437BD465DF8047B7047AB
:104F180000ED00E080B400AF044BDB681B0A03F02F
:104F280007031846BD465DF8047B704700ED00E0B6
:104F380080B483B000AF0346FB7197F90730002BAC
:104F48000BDBFB7903F01F02074997F907305B0970
:104F5800012000FA02F241F8232000BF0C37BD46B9
:104F68005DF8047B704700BF00E100E080B483B0C7
:104F780000AF03463960FB7197F90730002B0ADB55
:104F88003B68DAB20C4997F907301201D2B20B44E8
:104F980083F800230AE03B68DAB20849FB7903F09A
:104FA8000F03043B1201D2B20B441A7600BF0C3730
:104FB800BD465DF8047B704700E100E000ED00E0CD
:104FC80080B489B000AFF860B9607A60FB6803F01C
:104FD8000703FB61FB69C3F10703042B28BF042304
:104FE800BB61FB690433062B02D9FB69033B00E074
:104FF80000237B614FF0FF32BB6902FA03F3DA4307
:10500800BB681A407B699A404FF0FF317B6901FA0F
:1050180003F3D9437B680B40134318462437BD4636
:105028005DF8047B7047000080B582B000AF7860FF
:105038007B68013BB3F1807F01D301230FE00A4A6B
:105048007B68013B53600F214FF0FF30FFF78EFF65
:10505800054B00229A60044B07221A600023184669
:105068000837BD4680BD00BF10E000E080B582B0C3
:1050780000AF78607868FFF729FF00BF0837BD46A2
:1050880080BD80B586B000AF0346B9607A60FB7317
:10509800FFF740FF78617A68B9687869FFF790FF91
:1050A800024697F90F3011461846FFF75FFF00BF19
:1050B8001837BD4680BD80B582B000AF0346FB718E
:1050C80097F907301846FFF733FF00BF0837BD468A
:1050D80080BD80B582B000AF78607868FFF7A4FF24
:1050E800034618460837BD4680BD80B582B000AF7C
:1050F80078607B68002B01D1012314E07B681B7961
:10510800DBB2002B05D17B6800225A717868FDF765
:10511800CFFE7B6802221A717B6800221A617B68C5
:1051280001221A71002318460837BD4680BD0000C9
:1051380080B485B000AF786039607B68002B01D1FE
:10514800012356E07B685B79012B01D1022350E0F3
:105158007B6801225A717B6802221A717B681B687E
:1051680019683B6803F0100301229A407B681B68AA
:105178000A431A60224B1B689B09224AA2FB03239D
:105188009B090133FB6002E0FB68013BFB60FB68A5
:10519800002BF9D13B68002B0FD17B681B681B687B
:1051A80003F03E03022B1DD17B681B685A687B689D
:1051B8001B6842F001025A6014E07B681B681B6898
:1051C80003F478123B6803F01003022101FA03F399
:1051D8009A4207D17B681B685A687B681B6842F053
:1051E80002025A607B6801221A717B6800225A7198
:1051F800002318461437BD465DF8047B704700BF8E
:1052080014000020632D3E0580B487B000AFF8601D
:10521800B9607A603B6000237B61FB68002B01D199
:10522800012318E0FB681B68DB6BFB681B687B616C
:10523800BB68002B05D17A697B68134408337B610E
:1052480004E07A697B68134414337B617B691A46EE
:105258003B681360002318461C37BD465DF8047B85
:105268007047000080B58AB000AFF860B9607A6016
:105278000023FB77FB68002B02D0BB68002B01D111
:1052880001239EE1FB685B79012B01D1022398E1A0
:10529800FB6801225A71FB6802221A71BB689B687D
:1052A800042B7AD1FEF798F9B8617B68002B3DD1C1
:1052B80018E0FEF791F90246BB69D31A012B11D900
:1052C800FB681B685B6B03F40043002B0AD0FB6888
:1052D8001B6943F00802FB681A61FB6803221A7114
:1052E80003236EE1FB681B685B6B03F40043002B30
:1052F800DFD1FB681B68BA68526A1A6420E0FEF7BF
:105308006BF90246BB69D31A012B0FD9FB681B68DE
:105318005B6B002B0ADAFB681B6943F00802FB6829
:105328001A61FB6803221A7103234AE1FB681B68B0
:105338005B6B002BE3DBFB681B68BA68526A5A6434
:10534800FB681B689A6C7B6803F0100340F2FF311E
:1053580001FA03F3DB4302EA0301BB689A6A7B683C
:1053680003F010039A40FB681B680A439A64FB68C1
:105378001B68DA6C7B6803F01003FF2101FA03F362
:10538800DB4302EA0301BB68DA6A7B6803F01003B7
:105398009A40FB681B680A43DA64BB68DB69012B27
:1053A8001DD1FB681B689B6B7B627B6803F0100355
:1053B8001F2202FA03F3DB437A6A13407B62BB685D
:1053C8001B6A7B617B6803F010037A6902FA03F3B6
:1053D8007A6A13437B62FB681B687A6A9A63FB6884
:1053E8001B68DB6B7B627B6803F01003072202FA01
:1053F80003F3DB437A6A13407B62BB689B69012B2A
:1054080002D100233B620FE0BB689B69022B02D1EB
:1054180001233B6208E0BB685B69002B02D10123D2
:105428003B6201E000233B62BB689A68BB685B692A
:1054380013433A6A13437B617B6803F010034FF40C
:10544800807202FA03F3DB437A6A13407B62BB681B
:105458001B79012B02D14FF4807300E000237A6995
:1054680013437B617B6803F010034FF4007202FA68
:1054780003F3DB437A6A13407B62BB685B79012BD9
:1054880002D14FF4007300E000237A6913437B6173
:105498007B6A23F440437B62BB681B68022B14D1F0
:1054A80002F070FF38613B69484A934204D97B6A2D
:1054B80043F400437B620FE03B69454A93420AD9B3
:1054C8007B6A43F480437B6206E0BB681B687A6AA8
:1054D80013437B6200E000BF7B6803F010037A6926
:1054E80002FA03F37A6A13437B62FB681B687A6AE1
:1054F800DA63FB681B6819687B6803F010034FF4D4
:10550800804202FA03F3DA43FB681B680A401A6018
:10551800FB681B681B687B627B6803F0100340F61E
:10552800FE7202FA03F3DB437A6A13407B62BB68BC
:10553800DB687B617B6803F010037A6902FA03F386
:105548007A6A13437B62FB681B687A6A1A60FB6895
:105558001B6819687B6803F01003C02202FA03F382
:10556800DA43FB681B680A401A60BB68DB689B0863
:1055780003F00F037B61BB681B699B081B0203F4E4
:1055880070637A6913437B61FB681B681A6E7B68DA
:1055980003F0100340F60F7101FA03F3DB4302EA4C
:1055A80003017B6803F010037A699A40FB681B6863
:1055B8000A431A66FB6801221A71FB6800225A71B5
:1055C800FB7F18462837BD4680BD00BF00688909A3
:1055D80000B4C40480B584B000AF78607B68002B49
:1055E80001D101238DE07B681B681A46474B9A421C
:1055F8000FD87B681B681A46454B1344454AA2FBE3
:1056080003231B099A007B685A647B68424A1A6420
:105618000EE07B681B681A46404B13443D4AA2FBC8
:1056280003231B099A007B685A647B683C4A1A6406
:105638007B68022283F825207B681B681B68FB6057
:10564800FB6823F4FF4323F07003FB607B689A68D0
:105658007B68DB681A437B681B691A437B685B6954
:105668001A437B689B691A437B68DB691A437B682A
:105678001B6A1343FA681343FB607B681B68FA686C
:105688001A60786800F0B6F97B689B68B3F5804FBC
:1056980002D17B6800225A607B685A687B689B6CE1
:1056A800D2B21A607B68DB6C7A68126D5A607B68CC
:1056B8005B68002B10D07B685B68042B0CD878687B
:1056C80000F0D6F97B685B6D00221A607B689B6DE1
:1056D8007A68D26D5A6008E07B6800225A657B6858
:1056E80000229A657B680022DA657B680022DA630B
:1056F8007B68012283F825207B68002283F8242018
:10570800002318461037BD4680BD00BF070402407D
:10571800F8FFFDBFCDCCCCCC00000240F8FBFDBFAC
:105728000004024080B586B000AFF860B9607A60C6
:105738003B600023FB75FB6893F82430012B01D1F3
:10574800022366E0FB68012283F82420FB6893F8B3
:105758002530DBB2012B55D1FB68022283F82520C6
:10576800FB680022DA63FB681B681A68FB681B6821
:1057780022F001021A603B687A68B968F86800F09C
:10578800FBF8FB681B6B002B08D0FB681B681A68CA
:10579800FB681B6842F00E021A600FE0FB681B688A
:1057A8001A68FB681B6822F004021A60FB681B6811
:1057B8001A68FB681B6842F00A021A60FB689B6C57
:1057C8001B6803F48033002B07D0FB689B6C1A68B6
:1057D800FB689B6C42F480721A60FB685B6D002B5F
:1057E80007D0FB685B6D1A68FB685B6D42F48072DA
:1057F8001A60FB681B681A68FB681B6842F00102A4
:105808001A6005E0FB68002283F824200223FB7558
:10581800FB7D18461837BD4680BD80B584B000AF03
:1058280078607B681B6C1B68FB607B681B681B6867
:10583800BB607B685B6C03F01F0304229A40FB6823
:105848001340002B26D0BB6803F00403002B21D0A3
:105858007B681B681B6803F02003002B07D17B685B
:105868001B681A687B681B6822F004021A607B6850
:105878005B6C03F01F027B681B6C042101FA02F2C7
:105888005A607B681B6B002B71D07B681B6B786838
:1058980098476CE07B685B6C03F01F0302229A4018
:1058A800FB681340002B2ED0BB6803F00203002BCB
:1058B80029D07B681B681B6803F02003002B0BD1E1
:1058C8007B681B681A687B681B6822F00A021A60EA
:1058D8007B68012283F825207B685B6C03F01F023C
:1058E8007B681B6C022101FA02F25A607B68002275
:1058F80083F824207B68DB6A002B38D07B68DB6A5E
:105908007868984733E07B685B6C03F01F030822D4
:105918009A40FB681340002B2AD0BB6803F00803A9
:10592800002B25D07B681B681A687B681B6822F0EF
:105938000E021A607B685B6C03F01F027B681B6CAD
:10594800012101FA02F25A607B680122DA637B685E
:10595800012283F825207B68002283F824207B68B5
:105968005B6B002B04D07B685B6B7868984700BF43
:1059780000BF1037BD4680BD80B485B000AFF86069
:10598800B9607A603B60FB68DB6CFA68126D5A603C
:10599800FB685B6D002B04D0FB689B6DFA68D26DC9
:1059A8005A60FB685B6C03F01F02FB681B6C0121EB
:1059B80001FA02F25A60FB681B683A685A60FB6891
:1059C8009B68102B08D1FB681B687A689A60FB6893
:1059D8001B68BA68DA6007E0FB681B68BA689A60F7
:1059E800FB681B687A68DA6000BF1437BD465DF84B
:1059F800047B704780B487B000AF78607B681B6811
:105A08001A46164B9A4202D8154B7B6101E0154B9A
:105A18007B617B693B617B681B68DBB2083B124A90
:105A2800A2FB03231B09FB607B685B6C9B089A0045
:105A38003B6913441A467B689A647B680B4ADA64AC
:105A4800FB6803F01F0301229A407B681A6500BFB8
:105A58001C37BD465DF8047B704700BF0704024051
:105A68000008024020080240CDCCCCCC800802407F
:105A780080B485B000AF78607B685B68DBB2FB60A0
:105A8800FA680B4B13449B001A467B685A657B687F
:105A9800084A9A65FB68013B03F01F0301229A40FC
:105AA8007B68DA6500BF1437BD465DF8047B704734
:105AB8003F8200104009024080B487B000AF786090
:105AC800396000237B615AE13B681A6801217B69D0
