:020000040800F2
:1000000000000220613B0008BD380008C538000828
:10001000CD380008D5380008DD38000800000000A1
:10002000000000000000000000000000E5380008AB
:10003000F338000800000000013900080F390008FB
:10004000B13B0008B13B0008B13B0008B13B0008E0
:10005000B13B0008B13B0008B13B0008B13B0008D0
:10006000B13B0008B13B0008B13B00081D39000856
:100070003139000845390008593900086D39000840
:10008000B13B0008B13B0008B13B0008B13B0008A0
:1000900081390008B13B0008B13B0008B13B0008C2
:1000A00095390008B13B0008B13B0008B13B00089E
:1000B000B13B0008B13B0008B13B0008B13B000870
:1000C000B13B0008B13B0008B13B0008B13B000860
:1000D000B13B0008B13B0008B13B0008B13B000850
:1000E000B13B0008B13B0008B13B0008B13B000840
:1000F000B13B0008B13B0008B13B0008B13B000830
:10010000B13B0008B13B0008B13B0008B13B00081F
:10011000B13B0008B13B0008B13B0008B13B00080F
:10012000B13B0008B13B0008B13B0008B13B0008FF
:10013000B13B0008B13B0008B13B0008B13B0008EF
:10014000B13B0008B13B0008B13B0008B13B0008DF
:10015000B13B0008B13B0008B13B0008B13B0008CF
:10016000B13B0008B13B0008B13B0008B13B0008BF
:10017000B13B0008B13B0008B13B0008B13B0008AF
:10018000B13B0008B13B0008B13B0008B13B00089F
:10019000B13B000800000000B13B0008B13B000883
:1001A000B13B0008B13B0008B13B0008B13B00087F
:1001B000B13B0008B13B0008B13B0008B13B00086F
:1001C000B13B0008B13B0008B13B0008B13B00085F
:0801D000B13B0008B13B00083F
:1001E00010B5054C237833B9044B13B10448AFF371
:1001F00000800123237010BD780300200000000060
:10020000D062010808B5034B1BB103490348AFF3A3
:10021000008008BD000000007C030020D0620108BF
:1002200001F0FF01102A2BDB10F0070F08D010F8A7
:10023000013B013A8B422DD010F0070F42B3F6D1AB
:10024000F0B441EA012141EA014122F007047FF0C4
:1002500000070023F0E80256083C85EA010586EA1B
:10026000010685FA47F5A3FA87F586FA47F6A5FA57
:1002700087F68EB9EED1F0BC01F0FF0102F0070263
:1002800032B110F8013B013A83EA010313B1F8D10E
:100290000020704701387047002D06BF35460338EF
:1002A000073815F0010F07D1013015F4807F02BF28
:1002B000013015F4C03F0130F0BC0138704700BF79
:1002C000034613F8012B002AFBD1181A0138704796
:1002D00081F0004102E000BF83F0004330B54FEAF7
:1002E00041044FEA430594EA050F08BF90EA020F64
:1002F0001FBF54EA000C55EA020C7FEA645C7FEAF7
:10030000655C00F0E2804FEA5454D4EB5555B8BF19
:100310006D420CDD2C4480EA020281EA030382EA8A
:10032000000083EA010180EA020281EA0303362D1C
:1003300088BF30BD11F0004F4FEA01314FF4801CEF
:100340004CEA113102D0404261EB410113F0004F01
:100350004FEA03334CEA133302D0524263EB4303B8
:1003600094EA050F00F0A780A4F10104D5F1200E56
:100370000DDB02FA0EFC22FA05F2801841F10001B1
:1003800003FA0EF2801843FA05F359410EE0A5F185
:1003900020050EF1200E012A03FA0EFC28BF4CF0B6
:1003A000020C43FA05F3C01851EBE37101F000456C
:1003B00007D54FF0000EDCF1000C7EEB00006EEB79
:1003C0000101B1F5801F1BD3B1F5001F0CD3490803
:1003D0005FEA30004FEA3C0C04F101044FEA44525A
:1003E00012F5800F80F09A80BCF1004F08BF5FEAE1
:1003F000500C50F1000041EB045141EA050130BDC1
:100400005FEA4C0C404141EB0101013C28BFB1F5D2
:10041000801FE9D291F0000F04BF01460020B1FA1D
:1004200081F308BF2033A3F10B03B3F120020CDAF0
:100430000C3208DD02F1140CC2F10C0201FA0CF0CE
:1004400021FA02F10CE002F11402D8BFC2F1200C33
:1004500001FA02F120FA0CFCDCBF41EA0C019040E9
:10046000E41AA2BF01EB0451294330BD6FEA040432
:100470001F3C1CDA0C340EDC04F11404C4F120021D
:1004800020FA04F001FA02F340EA030021FA04F32F
:1004900045EA030130BDC4F10C04C4F1200220FA86
:1004A00002F001FA04F340EA0300294630BD21FAC4
:1004B00004F0294630BD94F0000F83F4801306BF8A
:1004C00081F480110134013D4EE77FEA645C18BF7E
:1004D0007FEA655C29D094EA050F08BF90EA020F15
:1004E00005D054EA000C04BF1946104630BD91EA0D
:1004F000030F1EBF0021002030BD5FEA545C05D110
:100500004000494128BF41F0004130BD14F580044E
:100510003CBF01F5801130BD01F0004545F0FE41C2
:1005200041F470014FF0000030BD7FEA645C1ABFF7
:10053000194610467FEA655C1CBF0B46024650EA2E
:10054000013406BF52EA033591EA030F41F400215A
:1005500030BD00BF90F0000F04BF0021704730B5E0
:100560004FF4806404F132044FF000054FF00001B5
:1005700050E700BF90F0000F04BF0021704730B576
:100580004FF4806404F1320410F0004548BF40424B
:100590004FF000013EE700BF42004FEAE2014FEAA0
:1005A00031014FEA02701FBF12F07F4393F07F4F7B
:1005B00081F06051704732F07F4208BF704793F07E
:1005C0007F4F04BF41F40021704730B54FF4607491
:1005D00001F0004521F000411CE700BF50EA010294
:1005E00008BF704730B54FF000050AE050EA01023D
:1005F00008BF704730B511F0004502D5404261EBAD
:1006000041014FF4806404F132045FEA915C3FF4ED
:10061000D8AE4FF003025FEADC0C18BF03325FEA8A
:10062000DC0C18BF033202EBDC02C2F1200300FA3B
:1006300003FC20FA02F001FA03FE40EA0E0021FA60
:1006400002F11444BDE600BF70B54FF0FF0C4CF44E
:10065000E06C1CEA11541DBF1CEA135594EA0C0F00
:1006600095EA0C0F00F0DEF82C4481EA030621EA3B
:100670004C5123EA4C5350EA013518BF52EA033576
:1006800041F4801143F4801338D0A0FB02CE4FF028
:100690000005E1FB02E506F00042E0FB03E54FF058
:1006A0000006E1FB03569CF0000F18BF4EF0010E50
:1006B000A4F1FF04B6F5007F64F5407404D25FEA4C
:1006C0004E0E6D4146EB060642EAC62141EA5551FF
:1006D0004FEAC52040EA5E504FEACE2EB4F1FD0C41
:1006E00088BFBCF5E06F1ED8BEF1004F08BF5FEABF
:1006F000500E50F1000041EB045170BD06F0004671
:1007000046EA010140EA020081EA0301B4EB5C041D
:10071000C2BFD4EB0C0541EA045170BD41F4801115
:100720004FF0000E013C00F3AB8014F1360FDEBF3A
:10073000002001F0004170BDC4F10004203C35DA16
:100740000C341BDC04F11404C4F1200500FA05F399
:1007500020FA04F001FA05F240EA020001F000423A
:1007600021F0004110EBD37021FA04F642EB0601B0
:100770005EEA430E08BF20EAD37070BDC4F10C04DA
:10078000C4F1200500FA04F320FA05F001FA04F29E
:1007900040EA020001F0004110EBD37041F100018A
:1007A0005EEA430E08BF20EAD37070BDC4F1200595
:1007B00000FA05F24EEA020E20FA04F301FA05F2FD
:1007C00043EA020321FA04F001F0004121FA04F2A5
:1007D00020EA020000EBD3705EEA430E08BF20EA75
:1007E000D37070BD94F0000F0FD101F000464000AF
:1007F00041EB010111F4801F08BF013CF7D041EA31
:10080000060195F0000F18BF704703F00046520034
:1008100043EB030313F4801F08BF013DF7D043EA05
:100820000603704794EA0C0F0CEA135518BF95EABB
:100830000C0F0CD050EA410618BF52EA4306D1D142
:1008400081EA030101F000414FF0000070BD50EA61
:10085000410606BF1046194652EA430619D094EAEB
:100860000C0F02D150EA013613D195EA0C0F05D1D5
:1008700052EA03361CBF104619460AD181EA030129
:1008800001F0004141F0FE4141F470014FF00000E1
:1008900070BD41F0FE4141F4780170BD70B54FF07C
:1008A000FF0C4CF4E06C1CEA11541DBF1CEA1355FC
:1008B00094EA0C0F95EA0C0F00F0A7F8A4EB0504DE
:1008C00081EA030E52EA03354FEA013100F08880D5
:1008D0004FEA03334FF0805545EA131343EA12639E
:1008E0004FEA022245EA111545EA10654FEA002653
:1008F0000EF000419D4208BF964244F1FD0404F50C
:10090000407402D25B084FEA3202B61A65EB030567
:100910005B084FEA32024FF480104FF4002CB6EB24
:10092000020E75EB030E22BFB61A754640EA0C00A4
:100930005B084FEA3202B6EB020E75EB030E22BFE4
:10094000B61A754640EA5C005B084FEA3202B6EB25
:10095000020E75EB030E22BFB61A754640EA9C00E4
:100960005B084FEA3202B6EB020E75EB030E22BFB4
:10097000B61A754640EADC0055EA060E18D04FEA72
:10098000051545EA16754FEA06164FEAC30343EA12
:1009900052734FEAC2025FEA1C1CC0D111F4801FDF
:1009A0000BD141EA00014FF000004FF0004CB6E7D8
:1009B00011F4801F04BF01430020B4F1FD0C88BF77
:1009C000BCF5E06F3FF6AFAEB5EB030C04BFB6EB82
:1009D000020C5FEA500C50F1000041EB045170BD75
:1009E0000EF0004E4EEA113114EB5C04C2BFD4EBA2
:1009F0000C0541EA045170BD41F480114FF0000E26
:100A0000013C90E645EA060E8DE60CEA135594EAA1
:100A10000C0F08BF95EA0C0F3FF43BAF94EA0C0FA4
:100A20000AD150EA01347FF434AF95EA0C0F7FF419
:100A300025AF104619462CE795EA0C0F06D152EA6D
:100A400003353FF4FDAE1046194622E750EA410651
:100A500018BF52EA43067FF4C5AE50EA41047FF462
:100A60000DAF52EA43057FF4EBAE12E74FF0FF3CC7
:100A700006E000BF4FF0010C02E000BF4FF0010C98
:100A80004DF804CD4FEA410C7FEA6C5C4FEA430C11
:100A900018BF7FEA6C5C1BD001B050EA410C0CBF60
:100AA00052EA430C91EA030F02BF90EA020F0020C2
:100AB000704710F1000F91EA030F58BF994208BF29
:100AC00090422CBFD8176FEAE37040F001007047E6
:100AD0004FEA410C7FEA6C5C02D150EA013C07D13D
:100AE0004FEA430C7FEA6C5CD6D152EA033CD3D088
:100AF0005DF8040B704700BF8446104662468C4682
:100B00001946634600E000BF01B5FFF7B7FF0028B4
:100B100048BF10F1000F01BD4DF808EDFFF7F4FFDD
:100B20000CBF012000205DF808FB00BF4DF808ED68
:100B3000FFF7EAFF34BF012000205DF808FB00BF8B
:100B40004DF808EDFFF7E0FF94BF012000205DF8AD
:100B500008FB00BF4DF808EDFFF7CEFF94BF012062
:100B600000205DF808FB00BF4DF808EDFFF7C4FF5B
:100B700034BF012000205DF808FB00BF4FEA410CA4
:100B80007FEA6C5C02D150EA013C0AD14FEA430C87
:100B90007FEA6C5C02D152EA033C02D14FF00000C4
:100BA00070474FF0010070474FEA410212F5001202
:100BB00015D211D56FF47873B3EB625212D94FEAA4
:100BC000C12343F0004343EA505311F0004F23FA8E
:100BD00002F018BF404270474FF00000704750EAE3
:100BE000013005D111F0004008BF6FF000407047A0
:100BF0004FF00000704700BF4A0011D212F50012FA
:100C000011D20DD56FF47873B3EB62520ED44FEA64
:100C1000C12343F0004343EA505323FA02F07047E4
:100C20004FF00000704750EA013002D14FF0FF3022
:100C300070474FF0000070474FEA4102B2F1E043C5
:100C400024BFB3F5001CDCF1FE5C0DD901F0004CB3
:100C50004FEAC0024CEA5070B2F1004F40EB830003
:100C600008BF20F00100704711F0804F21D113F12F
:100C70003872BCBF01F00040704741F480114FEA68
:100C80005252C2F11802C2F1200C10FA0CF320FAF1
:100C900002F018BF40F001004FEAC1234FEAD3230E
:100CA00003FA0CFC40EA0C0023FA02F34FEA430378
:100CB000CCE77FEA625307D150EA01331EBF4FF001
:100CC000FE4040F44000704701F0004040F0FE401C
:100CD00040F40000704700BF53B94AB9002908BF6B
:100CE00000281CBF4FF0FF314FF0FF3000F0A0B9DB
:100CF000ADF1080C6DE904CE00F03CF8DDF804E03D
:100D0000DDE9022304B0704738B500220023044611
:100D10000D46FFF70BFF28B920462946BDE83840AD
:100D200000F00AB8204605F1004100F005F8404205
:100D300061EB410138BD00BFD0B50C4B0022064627
:100D40000F46FFF781FCFFF757FF0446FFF702FC51
:100D5000074B0022FFF778FC02460B463046394627
:100D6000FFF7BAFAFFF748FF2146D0BD0000F03D7B
:100D70000000F0412DE9F047089D0C46002B4ED1B4
:100D800094468C458646B2FA82F262D94AB1C2F1E3
:100D90002003914020FA03F30CFA02FC194300FAF5
:100DA00002FE4FEA1C471FFA8CF6B1FBF7F44FEA3C
:100DB0001E4307FB141143EA014304FB06F1994269
:100DC0000AD91CEB030304F1FF3080F01281994231
:100DD00040F20F81023C6344591A1FFA8EF3B1FBB3
:100DE000F7F007FB101143EA014300FB06F69E42B1
:100DF0000AD91CEB030300F1FF3180F0FC809E4216
:100E000040F2F980634402389B1B40EA0440002111
:100E10001DB1D3400022C5E90032BDE8F0878B4206
:100E200005D90DB1C5E9000100210846F5E7B3FA7F
:100E300083F1002946D1A34202D39042C0F0F08052
:100E4000861A64EB03030120002DE6D0C5E9006398
:100E5000E3E7002A40F09080A1EB0C044FEA1C4825
:100E60001FFA8CF70121B4FBF8F64FEA1E4308FB8A
:100E7000164443EA044307FB06F0984208D91CEBEA
:100E8000030306F1FF3402D2984200F2CD802646D9
:100E90001C1A1FFA8EF3B4FBF8F008FB104443EA67
:100EA000044300FB07F79F4208D91CEB030300F142
:100EB000FF3402D29F4200F2B0802046DB1B40EAA2
:100EC0000640A5E7C1F120068B4022FA06F71F4332
:100ED00020FA06FC04FA01F343EA0C03F44000FA9A
:100EE00001F8380C4FEA1349B4FBF0FE1FFA87FCF7
:100EF00000FB1E4449EA04440EFB0CF9A14502FA2A
:100F000001F20AD93C190EF1FF3A80F08480A14524
:100F100040F28180AEF1020E3C44A4EB09041FFABA
:100F200083F9B4FBF0F300FB134449EA044403FBE8
:100F30000CFCA44507D93C1903F1FF3067D2A44546
:100F400065D9023B3C4443EA0E40A0FB0293A4EB6C
:100F50000C049C42CE469C4651D34ED055B1B8EBC2
:100F60000E0364EB0C0404FA06F6CB401E43CC409F
:100F7000C5E90064002150E7C2F1200320FA03F123
:100F80000CFA02FC24FA03F394400C434FEA1C4889
:100F900000FA02FE1FFA8CF7B3FBF8F008FB1031E1
:100FA000230C43EA014300FB07F1994208D91CEBEB
:100FB000030300F1FF362CD299422AD90238634448
:100FC0005B1AA4B2B3FBF8F108FB113344EA034403
:100FD00001FB07F3A34208D91CEB040401F1FF361F
:100FE00013D2A34211D902396444E41A41EA004100
:100FF00039E70446F0E6084606E7C845AED2B9EB45
:10100000020E63EB070C0138A8E73146EDE7034613
:1010100099E73046D4E7D6467FE7634402384DE788
:101020000646234608460FE7023E634430E700BF0A
:10103000704700BF80B582B000AF02F0BAFD00F08B
:101040003BF900F007FF00F0BBFE00F0FBF900F0F9
:10105000C3FA00F027FB00F097FB00F0E1FB00F083
:1010600019FC00F057FD00F05FFE00F073F900F08E
:10107000A3FC0EF05BFA00F0DFFD00F02FFE00F0A5
:1010800013FD764B1B78DBB2002B04D001F0F2FC91
:10109000724B00221A700421714805F0E1F90346F1
:1010A000FB71FB79012B11D16E4B1B78002B0DD0FE
:1010B00001F07AF80346002B08D001F0AFF80346A0
:1010C000002B03D0684B00221A7011E00421644801
:1010D00005F0C6F90346002B03D0634B01221A70BA
:1010E00006E0624B1B78002B02D05F4B02221A7085
:1010F0005F4B1B785C4A12781146184600F08CFF53
:1011000003461A465A4B1A70594B1B78052B00F2AE
:10111000A08001A252F823F031110008CB11000881
:10112000DB11000853120008E311000853120008F5
:10113000012202214F4805F0ABF901224FF4007162
:101140004D4805F0A5F9012220214A4805F0A0F9F3
:1011500000214A4808F0FAF80421494808F0F6F856
:101160000021484808F0F2F80021474804F032FB1B
:101170001021454804F02EFB0021444804F02AFBCE
:101180000021434808F0E2F87F21424804F086F845
:101190007F21414804F082F87F21404804F07EF826
:1011A00005223F493B4803F075F93E4B1B6801227D
:1011B0001946394803F06EF901223B49374803F0DC
:1011C00069F92B4B01221A7046E0264B1B78002B45
:1011D00041D0274B02221A703DE0344807F0B8FF97
:1011E0003AE001220421324805F052F90022202180
:1011F0001B4805F04DF9002280211F4805F048F9F1
:10120000002240211C4805F043F9002220211A4801
:1012100005F03EF900224021114805F039F900227D
:101220000221144805F034F900224FF400711248ED
:1012300005F02EF9012220210E4805F029F91D485C
:1012400007F016FF194807F0FBFF064B00221A7043
:1012500002E000BF15E700BF13E700BFE40A00206B
:1012600000080048F00A002014000020F10A0020C5
:10127000F20A002000100048000400484C0700203B
:1012800030080020C80800206406002078060020EE
:1012900098070020000400206C040020D8040020DF
:1012A000C8090020E8090020F80900207C08002077
:1012B00000140048E407002080B594B000AF07F1A7
:1012C00018033822002118460FF00DFE3B1D0022A6
:1012D0001A605A609A60DA601A614FF4007006F082
:1012E0003FFE2223BB614FF480737B624023BB62CD
:1012F00001233B6302237B630223BB630423FB6361
:101300004B233B6402237B640223BB640223FB6404
:1013100007F11803184606F0D7FE0346002B01D04C
:1013200001F096FE0F237B600323BB600023FB606C
:1013300000233B6100237B613B1D0421184607F01D
:10134000D5F90346002B01D001F082FE00BF5037D3
:10135000BD4680BD80B58CB000AF07F124030022EC
:101360001A605A609A603B1D2022002118460FF037
:10137000BAFD324B4FF0A0421A60304B4FF440326E
:101380005A602E4B00229A602C4B0022DA602B4BC5
:1013900000221A61294B00225A61284B04229A61CB
:1013A000264B00221A77254B00225A77234B012225
:1013B0001A62224B002283F82420204B0022DA629A
:1013C0001E4B00221A631D4B002283F838201B4B52
:1013D0000022DA63194B002283F84020174802F0FC
:1013E0009DFE0346002B01D001F032FE00237B62FC
:1013F00007F124031946114803F0B2FF0346002BFE
:1014000001D001F025FE0E4B7B600623BB60072355
:10141000FB607F233B6104237B610023BB613B1D99
:101420001946064803F01EF90346002B01D001F0CF
:101430000FFE00BF3037BD4680BD00BF94030020C3
:10144000000084CB80B58CB000AF07F124030022EC
:101450001A605A609A603B1D2022002118460FF046
:1014600042FD564B564A1A60544B4FF4A0125A6034
:10147000524B00229A60514B0022DA604F4B0022FF
:101480001A614E4B01225A614C4B04229A614B4B1C
:1014900000221A77494B01225A77484B05221A62DB
:1014A000464B002283F82420444B0022DA62434B4F
:1014B00000221A63414B012283F838203F4B4FF43E
:1014C0008052DA633D4B002283F840203B4802F013
:1014D00025FE0346002B01D001F0BAFD00237B62FC
:1014E00007F124031946354803F03AFF0346002B61
:1014F00001D001F0ADFD334B7B600623BB600023C0
:10150000FB607F233B6101237B612523BB614FF09F
:101510008073FB61002387F820303B1D1946274864
:1015200003F0A0F80346002B01D001F091FD264BFB
:101530007B600C23BB6000237B613B1D19461F4869
:1015400003F090F80346002B01D001F081FD1F4B02
:101550007B601223BB6001237B610823BB613B1DC1
:101560001946164803F07EF80346002B01D001F01F
:101570006FFD174B7B601823BB6004237B61002346
:10158000BB613B1D19460D4803F06CF80346002B68
:1015900001D001F05DFD0F4B7B604FF48073BB60A9
:1015A0003B1D1946054803F05DF80346002B01D0AA
:1015B00001F04EFD00BF3037BD4680BD0004002065
:1015C0000004005002003004040060080800900C81
:1015D0001000C0102000F01480B588B000AF3B466A
:1015E0002022002118460FF07EFC2B4B2B4A1A605C
:1015F000294B4FF4A0125A60274B00229A60264BC9
:101600000022DA60244B00221A61234B00225A6127
:10161000214B04229A61204B00221A771E4B012293
:101620005A771D4B01221A621B4B002283F824209B
:10163000194B0022DA62184B00221A63164B012262
:1016400083F83820144B0022DA63134B002283F80E
:101650004020114802F062FD0346002B01D001F04A
:10166000F7FC0F4B3B6006237B600723BB607F23A7
:10167000FB6004233B6100237B613B46194606481F
:1016800002F0F0FF0346002B01D001F0E1FC00BFA7
:101690002037BD4680BD00BF6C040020000500500F
:1016A0000200300480B588B000AF3B462022002104
:1016B00018460FF018FC314B314A1A602F4B4FF48B
:1016C000A0125A602D4B00229A602C4B0022DA6047
:1016D0002A4B00221A61294B00225A61274B04220F
:1016E0009A61264B00221A77244B01225A77234B0A
:1016F00001221A62214B002283F824201F4B002272
:10170000DA621E4B00221A631C4B012283F8382038
:101710001A4B0022DA63194B012283F84020174B41
:101720001C225A64154B4FF480729A64134B0022AA
:10173000DA64124B01221A65104802F0EFFC0346EE
:10174000002B01D001F084FC0E4B3B6006237B6034
:101750000023BB607F23FB6004233B6100237B618C
:101760003B461946054802F07DFF0346002B01D099
:1017700001F06EFC00BF2037BD4680BDD8040020BC
:10178000000600500200300480B58CB000AF3B462C
:101790003022002118460FF0A6FB1E4B1E4A1A608D
:1017A0001C4803F0F4FF0346002B01D001F050FC6D
:1017B00002233B6000233B7100237B710023BB604D
:1017C0000023FB6000233B6100237B610123BB619D
:1017D0000023FB613B46002219460E4804F094F8B2
:1017E0000346002B01D001F033FC3B461022194682
:1017F000084804F089F80346002B01D001F028FCCA
:10180000044B064A9A60054B024A9A6200BF303781
:10181000BD4680BD64060020000800508C060020F4
:1018200080B58CB000AF3B463022002118460FF047
:101830005AFB164B164A1A60144803F0A8FF0346D9
:10184000002B01D001F004FC02233B6000233B711C
:1018500000237B710023BB600023FB6000233B61FE
:1018600000237B610123BB610023FB613B46002217
:101870001946064804F048F80346002B01D001F051
:10188000E7FB00BF3037BD4680BD00BF78060020B3
:10189000000C005080B598B000AF07F1540300224F
:1018A0001A605A609A6007F1380300221A605A6081
:1018B0009A60DA601A615A619A613B1D34220021F4
:1018C00018460FF010FB3A4B3A4A1A60384B002288
:1018D0005A60374B00229A60354BD222DA60344B83
:1018E00000221A61324B00225A61314B00229A6168
:1018F0002F4807F0D4FC0346002B01D001F0A8FBD1
:1019000000237B650023BB650023FB6507F15403BF
:101910001946274808F06EFE0346002B01D001F05F
:1019200097FB6023BB630023FB6300233B6400231E
:101930007B640023BB640023FB6400233B6507F149
:101940003803002219461A4807F062FF0346002BAD
:1019500001D001F07DFB00237B600023BB600023EE
:10196000FB6000233B6100237B614FF40053BB61AC
:101970000023FB6100233B6200237B624FF0007376
:10198000BB620023FB6200233B6300237B633B1DA0
:101990001946074808F0C4FE0346002B01D001F0A9
:1019A00057FB034801F0AEFE00BF6037BD4680BD67
:1019B0004C070020002C014080B58EB000AF07F12D
:1019C000280300221A605A609A60DA6007F11C034B
:1019D00000221A605A609A603B4600221A605A60E0
:1019E0009A60DA601A615A619A612D4B2D4A1A6029
:1019F0002B4B00225A602A4B00229A60284B40F25F
:101A0000A722DA60264B00221A61254B00229A6138
:101A1000234807F0D5FA0346002B01D001F018FB4C
:101A20004FF48053BB6207F1280319461C4808F0A5
:101A300003F80346002B01D001F00AFB184807F019
:101A40002EFC0346002B01D001F002FB0023FB61BA
:101A500000237B6207F11C031946114808F0CAFDF8
:101A60000346002B01D001F0F3FA60233B60002312
:101A70007B600023BB6000233B613B46002219468C
:101A8000074807F0C5FE0346002B01D001F0E0FA3D
:101A9000034801F037FE00BF3837BD4680BD00BFA8
:101AA000980700200008004080B584B000AF3B1DBF
:101AB00000221A605A609A60144B154A1A60134B40
:101AC00009225A60114B00229A60104B6322DA609F
:101AD0000E4B00229A610D4807F072FA0346002B64
:101AE00001D001F0B5FA00237B600023FB603B1DB1
:101AF0001946064808F07EFD0346002B01D001F090
:101B0000A7FA00BF1037BD4680BD00BFE407002024
:101B10000014004080B598B000AF07F154030022D4
:101B20001A605A609A6007F1380300221A605A60FE
:101B30009A60DA601A615A619A613B1D3422002171
:101B400018460FF0D0F93A4B3A4A1A60384B002247
:101B50005A60374B00229A60354BD222DA60344B00
:101B600000221A61324B00225A61314B00229A61E5
:101B70002F4807F094FB0346002B01D001F068FAD0
:101B800000237B650023BB650023FB6507F154033D
:101B90001946274808F02EFD0346002B01D001F01E
:101BA00057FA6023BB630023FB6300233B640023DD
:101BB0007B640023BB640023FB6400233B6507F1C7
:101BC0003803042219461A4807F022FE0346002B68
:101BD00001D001F03DFA00237B600023BB600023AD
:101BE000FB6000233B6100237B614FF40053BB612A
:101BF0000023FB6100233B6200237B624FF00073F4
:101C0000BB620023FB6200233B6300237B633B1D1D
:101C10001946074808F084FD0346002B01D001F067
:101C200017FA034801F06EFD00BF6037BD4680BD66
:101C3000300800200034014080B588B000AF07F1C3
:101C4000100300221A605A609A60DA603B1D00227D
:101C50001A605A609A601F4B1F4A1A601D4B40F26F
:101C6000DB525A601B4B00229A601A4B0422DA6046
:101C7000184B00221A61174B00225A61154B0022A3
:101C80009A61144807F09CF90346002B01D001F03B
:101C9000DFF94FF480533B6107F1100319460D48FB
:101CA00007F0CAFE0346002B01D001F0D1F9002352
:101CB0007B600023FB603B1D1946064808F09AFC38
:101CC0000346002B01D001F0C3F900BF2037BD4609
:101CD00080BD00BF7C0800200040014080B500AFFF
:101CE0000F4B104A1A600E4B43F697225A600C4B6A
:101CF00000229A600A4B0922DA60094B00221A611D
:101D0000074B00225A61064B00229A61044807F0F3
:101D100057F90346002B01D001F09AF900BF80BDAE
:101D2000C80800200044014080B500AF224B234A80
:101D30001A60214B4FF4E1325A601F4B00229A6027
:101D40001D4B0022DA601C4B00221A611A4B0C2238
:101D50005A61194B00229A61174B0022DA61164B27
:101D600000221A62144B00225A62134B00229A621C
:101D7000114808F0AFFD0346002B01D001F068F9CF
:101D800000210D4809F04AFB0346002B01D001F069
:101D90005FF90021084809F07FFB0346002B01D0C2
:101DA00001F056F9044809F000FB0346002B01D06E
:101DB00001F04EF900BF80BD14090020004C004026
:101DC00080B582B000AF224B9B6C214A43F00403E4
:101DD00093641F4B9B6C03F004037B607B681C4B7C
:101DE0009B6C1B4A43F001039364194B9B6C03F0FB
:101DF00001033B603B68002200210B2003F093FCB1
:101E00000B2003F0AAFC002200210C2003F08BFC25
:101E10000C2003F0A2FC002200210D2003F083FC23
:101E20000D2003F09AFC002200210E2003F07BFC21
:101E30000E2003F092FC002200210F2003F073FC1F
:101E40000F2003F08AFC00BF0837BD4680BD00BFED
:101E50000010024080B58CB000AF07F11C030022D7
:101E60001A605A609A60DA601A61654BDB6C644AEA
:101E700043F01003D364624BDB6C03F01003BB61CF
:101E8000BB695F4BDB6C5E4A43F00403D3645C4B7D
:101E9000DB6C03F004037B617B69594BDB6C584AB4
:101EA00043F02003D364564BDB6C03F020033B610B
:101EB0003B69534BDB6C524A43F00103D364504BF4
:101EC000DB6C03F00103FB60FB684D4BDB6C4C4AA1
:101ED00043F00203D3644A4BDB6C03F00203BB60A4
:101EE000BB68474BDB6C464A43F00803D364444B62
:101EF000DB6C03F008037B607B68002222214148F1
:101F000004F0C6FA002204213F4804F0C1FA00227E
:101F100060213E4804F0BCFA00224FF438713C487E
:101F200004F0B6FA2223FB6101233B6200237B62AB
:101F30000023BB6207F11C031946324804F00EF976
:101F40000423FB6100233B6200237B6207F11C0337
:101F500019462E4804F002F90423FB6101233B6279
:101F600000237B620023BB6207F11C03194626484D
:101F700004F0F4F86023FB6101233B6200237B62E1
:101F80000023BB6207F11C031946204804F0E6F861
:101F9000FE23FB6100233B6200237B6207F11C03ED
:101FA00019461C4804F0DAF84FF48473FB610023EF
:101FB0003B6200237B6207F11C031946144804F0BE
:101FC000CDF84FF43873FB6101233B6200237B6241
:101FD0000023BB6207F11C0319460D4804F0BEF84C
:101FE0000123FB6100233B6200237B6207F11C039A
:101FF0001946044804F0B2F800BF3037BD4680BD32
:10200000001002400010004800140048000800487A
:1020100000040048000C004880B582B000AF0346C1
:102020000A46FB711346BB71FB79052B35D801A21B
:1020300052F823F04D2000085720000861200008C6
:10204000792000088D20000897200008BB79002B1C
:1020500025D102232DE0BB79002B22D1022328E0D9
:10206000BB79012B01D1042323E000F039FB0346A7
:10207000002B18D003231CE0BB79012B01D10423D2
:1020800017E0BB79032B10D1052312E0BB79022B9B
:102090000DD101230DE001230BE000BF08E000BFDC
:1020A00006E000BF04E000BF02E000BF00E000BFA8
:1020B000FB7918460837BD4680BD00BF80B485B0A7
:1020C00000AF78607B68642B01D964237B600B4B85
:1020D000DB6801337A6802FB03F3094AA2FB03239E
:1020E0005B09013BFB60054B1B68FA685A6300BF44
:1020F0001437BD465DF8047B704700BF9807002089
:102100001F85EB510000000080B584B000AF7860FF
:102110007B681B68204A934235D10023FB60002373
:10212000BB6009E01D4ABB6852F82330FA681344CB
:10213000FB60BB680133BB60BB68092BF2DDFB6849
:1021400007EE903AB8EE677AF2EE046AC7EE267AA6
:102150009FED137AC7EE876A16EE900AFEF71CFA17
:102160000BA3D3E90023FEF76FFA02460B46104695
:102170001946FEF761FD03460A4A13600A22074921
:10218000786802F087F900BF1037BD4680BD00BFF8
:102190006666666666660A4000060050F80900201A
:1021A00000008045200A002080B500AF01211748BB
:1021B00004F056F90346002B23D14FF480711448E4
:1021C00004F04EF90346002B1BD10821104804F0FF
:1021D00047F90346002B14D180210E4804F040F942
:1021E0000346002B0DD140210A4804F039F903467B
:1021F000002B06D14021084804F032F90346002B99
:1022000001D0002300E00123184680BD00100048E3
:1022100000040048000C00480008004880B500AFEA
:102220001021104804F01CF90346002B16D0082199
:102230000C4804F015F90346002B0FD0042109487F
:1022400004F00EF90346002B08D00221054804F0E3
:1022500007F90346002B01D0012300E000231846B4
:1022600080BD00BF000C0048B0B584B000AF7860FE
:102270007B681B68904A934240F0E7818F4B1B7844
:10228000022B04D08D4B1B78032B40F0DE818C4B4E
:102290001B681B0B1846FEF75DF97DA3D3E90023ED
:1022A000FEF7D2F902460B4610461946FEF7C4FC6B
:1022B0000346844A1360824B5B681B0B1846FEF78B
:1022C00049F973A3D3E90023FEF7BEF902460B4692
:1022D00010461946FEF7B0FC03467B4A1360784B64
:1022E000DB681B0B1846FEF735F969A3D3E9002319
:1022F000FEF7AAF902460B4610461946FEF79CFC6B
:102300000346724A13606E4B1B691B0B1846FEF79F
:1023100021F95FA3D3E90023FEF796F902460B46A5
:1023200010461946FEF788FC0346694A1360644B61
:102330009B681B0B1846FEF70DF955A3D3E9002344
:10234000FEF782F902460B4610461946FEF774FC6A
:102350000346604A1360604B1B681B0B1846FEF770
:10236000F9F84BA3D3E90023FEF76EF902460B46BA
:1023700010461946FEF760FC0346584A1360584B56
:102380001B681846FEF708F943A3D3E90023FDF7BD
:10239000A3FF02460B461046194641A3D3E900238A
:1023A000FEF752F902460B4610461946FEF744FC6A
:1023B00003464C4A1360474BD3ED007AF7EE006AB0
:1023C00086EEA77A454BD3ED007A67EE277AC7ED04
:1023D000037AD7ED037AB0EE007AF4EEC77AF1EE25
:1023E00010FA40F18580B7EE007AD7ED037A77EEE8
:1023F000677A17EE900AFEF7CFF802460B4643ECD9
:10240000102B12F049FD51EC100B27A3D3E9002348
:10241000FEF744FA02460B4610461946FEF70CFC3E
:102420000346314A13602D4B1B681846FEF7B4F87B
:1024300004460D46B0EE007AD7ED037A37EE677AA0
:10244000D7ED037AC7EE276A16EE900AFEF7A4F8D6
:1024500002460B4643EC102B12F0C2FD53EC102B3E
:1024600020462946FEF7F0F802460B46104619466C
:102470000FA3D3E90023FEF711FA02460B461046DC
:102480001946FEF7D9FB0346184A13606AE000BFFD
:102490006666666666660A40333333333333F73F26
:1024A000FA7E6ABC7493D83F97CC167097849E3E90
:1024B0001B2CBDAE3745624000400140F20A0020AF
:1024C000C8090020A8090020AC090020C00900208C
:1024D000C4090020BC090020E8090020E009002010
:1024E000200A0020F4090020EC090020B80900208F
:1024F000D7ED037AB0EE007AF4EEC77AF1EE10FA77
:1025000030DBD7ED037AB7EE007A77EEC77AB7EE15
:10251000007AC7EE276A16EE900AFEF73DF80246EB
:102520000B4643EC102B12F0B7FC53EC102B68A1B8
:10253000D1E90001FDF7D0FE02460B4610461946D0
:1025400065A3D3E90023FEF7A9F902460B4610461E
:102550001946FEF771FB0346494A1360494B4FF099
:1025600000021A6000F090F9474B1B78022B01D152
:1025700000F0B6F8454BD3ED007A454B1B8807EECB
:10258000103AB8EE477A434BD3ED006A424B93EDD5
:10259000006A424BD3ED005A414B93ED005A9FED38
:1025A000413AF0EE452AB0EE652AF0EE461AB0EE5A
:1025B000661AF0EE470AB0EE670A3B493B4800F066
:1025C000C5F83A4B93ED007A394BD3ED007A77EEAC
:1025D000277A384BC3ED007A344BD3ED007AFDEE09
:1025E000E77A17EE902A13469B0013449A0013448F
:1025F00003F50063002200212F4803F057F92D4B0B
:10260000D3ED007AFDEEE77A17EE902A13469B0091
:1026100013449A00134403F5006300221021264856
:1026200003F044F9174BD3ED007AFDEEE77A17EE8D
:10263000902A13469B0013449A00134403F5006349
:10264000002200211D4803F031F97B681B681C4AF9
:10265000934210D102211B4803F032FF4FF4007166
:10266000194803F02DFF00222021164803F010FF27
:10267000164806F0E5FD00BF1037BD46B0BD00BFEF
:10268000EC090020B8090020F20A0020E00900202F
:10269000E60900200C0000201000002004000020AB
:1026A0000800002017B75138E80A0020B0090020C0
:1026B000F4090020B40900206406002078060020F8
:1026C000001400400010004800040048E407002007
:1026D000182D4454FB21094097CC167097849E3ED8
:1026E00080B400AF154B1B881A46154B1B88D31AB4
:1026F000002B0EDC124B1A88124B1B8812FB03F3C3
:102700009AB20E4B1B8813449AB20F4B1A800023C7
:102710000EE00A4B1B881A46094B1B88D31A012B63
:1027200005DD074B1A88084B1A80012300E00023BF
:102730001846BD465DF8047B704700BFE4090020E1
:1027400000000020DC090020E6090020B0B58CB0B4
:1027500000AF7862396287ED070AC7ED060A87ED98
:10276000051AC7ED041A87ED032AC7ED022A87ED83
:10277000013A97ED067AD7ED077A77EE677AC7EDDB
:102780000B7A3B6A1B681846FDF706FF04460D46A8
:102790003A4B93ED007AD7ED0B7A37EE277A97ED27
:1027A000036AD7ED026AC6EE267A27EE277AD7EDBE
:1027B000017A67EE277A17EE900AFDF7EDFE4FF0EB
:1027C00000022F4BFDF740FF02460B4620462946EC
:1027D000FDF784FD02460B4610461946FEF72CFA1B
:1027E00002463B6A1A60254AFB6A13603B6AD3EDD6
:1027F000007A97ED057AB4EEE77AF1EE10FA02D896
:102800003B6A7A691A603B6AD3ED007A97ED047AE5
:10281000B4EEE77AF1EE10FA02DB3B6A3A691A602D
:1028200097ED0B7AD7ED037A27EE277A3B6AD3ED43
:10283000007A77EE277A7B6AC3ED007A7B6AD3ED64
:10284000007A97ED057AB4EEE77AF1EE10FA02D845
:102850007B6A7A691A607B6AD3ED007A97ED047A15
:10286000B4EEE77AF1EE10FA00DA02E07B6A3A6938
:102870001A6000BF3037BD46B0BD00BFEC0A002073
:102880000000E03F0000000080B584B000AF1423DA
:10289000FB605D4B7B605D4B1B681846FDF77CFE63
:1028A0004FA3D3E90023FDF717FD02460B46104660
:1028B00019464DA3D3E90023FDF7F0FF02460B466E
:1028C00010461946FEF7B8F90346504A1360504BBC
:1028D0001B681846FDF760FE4FF000024D4BFDF7F8
:1028E000FBFC02460B461046194641A3D3E90023E0
:1028F000FDF7D4FF02460B4610461946FEF79CF939
:102900000346434A1360414B93ED007A404BD3EDAD
:10291000007AB4EEE77AF1EE10FA02DD3B4B1B6869
:1029200001E03B4B1B687B60D7ED017AB3EE047A84
:1029300037EEC77ADFED386AC7EE267AC7ED027A3E
:10294000D7ED027AB7EE007AF4EEC77AF1EE10FA1C
:1029500002DD4FF07E53BB60D7ED027AF5EEC07A10
:10296000F1EE10FA02D54FF00003BB60B868FDF736
:1029700013FE02460B469FED201B43EC102B12F07A
:10298000BFFA51EC100B1EA3D3E90023FDF75CFE48
:1029900002460B4610461946FEF706F90346143365
:1029A000FB60D7ED017AB3EE047AF4EEC77AF1EE6C
:1029B00010FA02D51423FB600AE0D7ED017A9FEDEF
:1029C000177AF4EEC77AF1EE10FA01DD6323FB60AB
:1029D000FB681846FFF772FB00BF1037BD4680BD8D
:1029E0009A9999999999D93F2B8716D9CEF7933F00
:1029F0007B14AE47E17A843F0000000000000840ED
:102A00000000000000C053400000A041C0090020A9
:102A1000C40900200000E03F0000A0420000C842BE
:102A200080B584B000AF78607868FDF749FC034654
:102A3000FB81FB897F2B01D97F23FB81FB891A4610
:102A400079680B480EF0E1FAFB89094A0021D1545C
:102A5000FB89194678680CF03DFE03467B737B7B4F
:102A6000012BF5D000BF00BF1037BD4680BD00BFB1
:102A7000640A002080B500AFA64B1B78DBB2002BA8
:102A800000F0BB810622A449A4480EF034FA0346A4
:102A9000002B08D1A24AA349A0480EF0B5F9A248DC
:102AA000FFF7BEFFA1E10622A0499C480EF023FAE1
:102AB0000346002B08D19E4A9E4998480EF0A4F97F
:102AC0009D48FFF7ADFF90E108229C4993480EF026
:102AD00012FA0346002B08D1994A9A498F480EF002
:102AE00093F99948FFF79CFF7FE10C2297498B48A7
:102AF0000EF001FA0346002B08D1954A9549874804
:102B00000EF082F99448FFF78BFF6EE10C22934997
:102B100082480EF0F0F90346002B08D1904A914903
:102B20007E480EF071F99048FFF77AFF5DE10D22C3
:102B30008E497A480EF0DFF90346002B08D18C4A03
:102B40008C4976480EF060F98B48FFF769FF4CE13D
:102B50000C228A4971480EF0CEF90346002B08D1A9
:102B6000874A88496D480EF04FF98748FFF758FFAC
:102B70003BE10C22854969480EF0BDF90346002B64
:102B800008D1834A834965480EF03EF98248FFF731
:102B900047FF2AE10622814960480EF0ACF903465E
:102BA000002B0ED15E4B1B681846FDF7F5FC024664
:102BB0000B467B497B480EF007F97A48FFF730FF58
:102BC00013E10622784955480EF095F90346002B8B
:102BD0000ED1574B1B681846FDF7DEFC02460B462C
:102BE000724970480EF0F0F86E48FFF719FFFCE0EC
:102BF00008226F4949480EF07EF90346002B0AD19E
:102C00004F4B1B881A466B4966480EF0DDF8654845
:102C1000FFF706FFE9E00C22674940480EF06BF928
:102C20000346002B0ED14A4B1B681846FDF7B4FC37
:102C300002460B4661495B480EF0C6F85948FFF75B
:102C4000EFFED2E00C225E4934480EF054F9034600
:102C5000002B0ED1424B1B681846FDF79DFC024627
:102C60000B4658494F480EF0AFF84E48FFF7D8FED4
:102C7000BBE00D22544929480EF03DF90346002BD4
:102C80000ED13B4B1B681846FDF786FC02460B46EF
:102C90004E4944480EF098F84248FFF7C1FEA4E0C0
:102CA0000C224B491D480EF026F90346002B0ED18D
:102CB000334B1B681846FDF76FFC02460B4645492F
:102CC00038480EF081F83748FFF7AAFE8DE00C2255
:102CD000414912480EF00FF90346002B0ED12C4B40
:102CE0001B681846FDF758FC02460B463B492D4829
:102CF0000EF06AF82B48FFF793FE76E00B22384976
:102D000006480EF0F8F80346002B6BD100F07EF871
:102D10006BE000BFE40A0020E8620108240A0020FA
:102D200004000020F0620108FC6201080863010849
:102D300008000020106301081C63010828630108D3
:102D40000000002034630108446301085463010853
:102D5000A8090020646301087463010894630108F2
:102D6000AC090020A4630108B4630108D46301081E
:102D7000F4090020E4630108F86301080C64010809
:102D8000EC0900201C6401082C640108406401085F
:102D9000F0090020506401086064010874640108AF
:102DA0007C640108640A00208864010890640108BA
:102DB0009C640108A8640108B4640108C4640108A3
:102DC000E0640108F06401080C6501081C65010855
:102DD0002C6501083C6501084C6501085C6501082B
:102DE0006C6501080648FFF71BFE402200210548DC
:102DF0000EF079F8044B00221A7000BF80BD00BFAE
:102E000078650108240A0020E40A002080B5A0B0FB
:102E100000AF714B1B681846FDF7BEFB02460B4620
:102E200038466E490DF0D0FF3B461846FFF7F8FDD7
:102E30006B4B1B681846FDF7AFFB02460B46384646
:102E400068490DF0C1FF3B461846FFF7E9FD664BA8
:102E50001B881A463B46654918460DF0B5FF3B46B0
:102E60001846FFF7DDFD624B1B681846FDF794FB23
:102E700002460B4638465F490DF0A6FF3B46184612
:102E8000FFF7CEFD5C4B1B681846FDF785FB02463D
:102E90000B46384659490DF097FF3B461846FFF759
:102EA000BFFD574B1B681846FDF776FB02460B46E5
:102EB000384654490DF088FF3B461846FFF7B0FDF1
:102EC000514B1B681846FDF767FB02460B46384618
:102ED0004E490DF079FF3B461846FFF7A1FD4C4BDC
:102EE0001B681846FDF758FB02460B463846494911
:102EF0000DF06AFF3B461846FFF792FD464B1B68F4
:102F00001846FDF749FB02460B46384643490DF08B
:102F10005BFF3B461846FFF783FD414B1B68184695
:102F2000FDF73AFB02460B4638463E490DF04CFF92
:102F30003B461846FFF774FD3B4B1B681846FDF7F0
:102F40002BFB02460B46384638490DF03DFF3B4609
:102F50001846FFF765FD364B1B681846FDF71CFB4E
:102F600002460B46384633490DF02EFF3B461846C5
:102F7000FFF756FD304B1B681846FDF70DFB024668
:102F80000B4638462D490DF01FFF3B461846FFF70C
:102F900047FD2B4B1B681846FDF7FEFA02460B4611
:102FA000384628490DF010FF3B461846FFF738FD1C
:102FB000254B1B681846FDF7EFFA02460B463846CC
:102FC00022490DF001FF3B461846FFF729FD00BFDF
:102FD0008037BD4680BD00BF040000207C6401082E
:102FE000080000209064010800000020A864010887
:102FF000B00900208C650108B4090020986501081B
:10300000B8090020A4650108BC090020B0650108CA
:10301000E0090020C4650108C0090020DC65010842
:10302000C4090020EC650108A8090020C464010857
:10303000AC090020F0640108F40900201C650108B7
:10304000EC0900203C650108F00900205C650108DE
:1030500080B400AF72B600BF00BFFDE780B582B09C
:1030600000AF0F4B1B6E0E4A43F0010313660C4B6F
:103070001B6E03F001037B607B68094B9B6D084A64
:1030800043F080539365064B9B6D03F080533B6088
:103090003B6805F009F800BF0837BD4680BD00BF9A
:1030A0000010024080B5A4B000AF786007F17C0347
:1030B00000221A605A609A60DA601A6107F12803E8
:1030C0005422002118460DF00EFF7B681B68B3F1F7
:1030D000A04F1CD14FF40043BB624FF00053FB667E
:1030E00007F12803184605F01DFD0346002B01D00B
:1030F000FFF7AEFF854BDB6C844A43F40053D36487
:10310000824BDB6C03F400537B627B6A83E17B6858
:103110001B687F4A934240F087804FF48033BB6244
:103120004FF080433B6707F12803184605F0FAFC8F
:103130000346002B01D0FFF78BFF764B1B68013352
:10314000744A1360734B1B68012B0BD16F4BDB6C04
:103150006E4A43F48043D3646C4BDB6C03F48043CE
:103160003B623B6A694BDB6C684A43F00203D36401
:10317000664BDB6C03F00203FB61FB69634BDB6CAA
:10318000624A43F01003D364604BDB6C03F010031E
:10319000BB61BB6942F20203FB670323C7F88030BF
:1031A0000023C7F8843007F17C0319465A4802F01F
:1031B000D5FF4FF40A53FB670323C7F88030002381
:1031C000C7F8843007F17C031946544802F0C6FF63
:1031D000534B544A1A60524B25225A60504B0022DE
:1031E0009A604F4B0022DA604D4B80221A614C4BA3
:1031F0004FF480725A614A4B4FF480629A61484B97
:103200002022DA61464B00221A62454802F034FD62
:103210000346002B01D0FFF71BFF7B68404A5A652D
:103220003F4A7B689362F6E07B681B683E4A9342A4
:1032300040F080804FF48033BB624FF080433B67A7
:1032400007F12803184605F06DFC0346002B01D05A
:10325000FFF7FEFE2F4B1B6801332E4A13602D4BE8
:103260001B68012B0BD1294BDB6C284A43F48043AC
:10327000D364264BDB6C03F480437B617B69234B77
:10328000DB6C224A43F01003D364204BDB6C03F069
:1032900010033B613B694FF48043FB670323C7F88E
:1032A00080300023C7F8843007F17C0319461B489F
:1032B00002F054FF1D4B1E4A1A601C4B26225A6016
:1032C0001A4B00229A60194B0022DA60174B8022B9
:1032D0001A61164B4FF480725A61144B4FF480629E
:1032E0009A61124B2022DA61104B00221A620F48B9
:1032F00002F0C2FC0346002B01D0FFF7A9FE7B6859
:103300000A4A5A65094A7B68936284E000100240C9
:1033100000040050F40A0020000400480010004897
:10332000440500200800024000050050A4050020CC
:103330001C0002407B681B68394A93426BD14FF4F2
:103340008033BB624FF080433B6707F12803184688
:1033500005F0E8FB0346002B01D0FFF779FE314B67
:103360001B6801332F4A13602E4B1B68012B0BD1B6
:103370002D4BDB6C2C4A43F48043D3642A4BDB6C2B
:1033800003F48043FB60FB68274BDB6C264A43F069
:103390000103D364244BDB6C03F00103BB60BB6807
:1033A0004FF48073FB670323C7F880300023C7F80E
:1033B000843007F17C0319464FF0904002F0CEFEB6
:1033C0001A4B1B4A1A60194B27225A60174B0022CE
:1033D0009A60164B0022DA60144B80221A61134B5C
:1033E0004FF480725A61114B4FF480629A610F4B17
:1033F0002022DA610D4B00221A620C4802F03CFCDC
:103400000346002B01D0FFF723FE7B68074A5A656D
:10341000064A7B68936200BF9037BD4680BD00BFFF
:1034200000060050F40A00200010024004060020AC
:103430003000024080B58CB000AF786007F11C030B
:1034400000221A605A609A60DA601A617B681B6811
:10345000574A934251D1574BDB6C564A43F4803361
:10346000D364544BDB6C03F48033BB61BB69514BB9
:10347000DB6C504A43F00103D3644E4BDB6C03F02A
:1034800001037B617B693023FB6103233B620023E3
:103490007B6207F11C0319464FF0904002F05EFE7C
:1034A000454B464A1A60444B06225A60424B102252
:1034B0009A60414B0022DA603F4B80221A613E4BFA
:1034C0004FF400725A613C4B4FF400629A613A4BE0
:1034D0002022DA61384B4FF400521A62364802F06B
:1034E000CBFB0346002B01D0FFF7B2FD7B68324ACD
:1034F0009A60314A7B68936255E07B681B68304A6A
:10350000934250D12B4BDB6C2A4A43F40033D364F3
:10351000284BDB6C03F400333B613B69254BDB6CD0
:10352000244A43F00103D364224BDB6C03F0010314
:10353000FB60FB684023FB6103233B6200237B624B
:1035400007F11C0319464FF0904002F007FE1D4B97
:103550001D4A1A601B4B29225A601A4B10229A608E
:10356000184B0022DA60174B80221A61154B4FF47A
:1035700000725A61134B4FF400629A61114B202282
:10358000DA61104B4FF400521A620E4802F074FBDD
:103590000346002B01D0FFF75BFD7B68094A9A6068
:1035A000084A7B68936200BF3037BD4680BD00BFCC
:1035B00000080050001002408C0600204400024029
:1035C000000C0050EC0600205800024080B584B08A
:1035D00000AF78607B681B68164A934214D1164B83
:1035E0001B6E154A43F400631366134B1B6E03F402
:1035F0000063FB60FB6800220021182002F093F8B2
:10360000182002F0AAF810E07B681B680B4A93426E
:103610000BD1094B1B6E084A43F400531366064B4B
:103620001B6E03F40053BB60BB6800BF1037BD4680
:1036300080BD00BF002C014000100240003401405A
:1036400080B586B000AF78607B681B68284A9342DB
:103650000CD1284B9B6D274A43F004039365254BFF
:103660009B6D03F004037B617B693CE07B681B6816
:10367000214A93420CD11F4B9B6D1E4A43F02003FD
:1036800093651C4B9B6D03F020033B613B692AE073
:103690007B681B68194A934214D1164B1B6E154A5E
:1036A00043F480331366134B1B6E03F48033FB60CB
:1036B000FB6800220021182002F035F8182002F0E3
:1036C0004CF810E07B681B680D4A93420BD1094B04
:1036D0001B6E084A43F400331366064B1B6E03F45B
:1036E0000033BB60BB6800BF1837BD4680BD00BF5C
:1036F000000800400010024000140040004001405B
:103700000044014080B58AB000AF786007F114032F
:1037100000221A605A609A60DA601A617B681B683E
:10372000334A93421CD1334BDB6C324A43F00403DF
:10373000D364304BDB6C03F004033B613B69012332
:103740007B610223BB610023FB6100233B620223F8
:103750007B6207F114031946274802F0FFFC43E09F
:103760007B681B68254A93421DD1224BDB6C214AA2
:1037700043F00803D3641F4BDB6C03F00803FB60CA
:10378000FB684FF480537B610223BB610023FB6124
:1037900000233B6202237B6207F114031946184899
:1037A00002F0DCFC20E07B681B68164A93421BD1C8
:1037B000104BDB6C0F4A43F00403D3640D4BDB6CFE
:1037C00003F00403BB60BB6880237B610223BB6101
:1037D0000023FB6100233B6204237B6207F1140397
:1037E0001946054802F0BAFC00BF2837BD4680BD27
:1037F000002C014000100240000800480008004072
:10380000000C00480034014080B59EB000AF7860E5
:1038100007F1640300221A605A609A60DA601A6144
:1038200007F110035422002118460DF05CFB7B6861
:103830001B681F4A934236D108233B6180233B62B9
:1038400007F11003184605F06DF90346002B01D06F
:10385000FFF7FEFB174B9B6D164A43F4002393655D
:10386000144B9B6D03F40023FB60FB68114BDB6C76
:10387000104A43F00403D3640E4BDB6C03F00403E3
:10388000BB60BB684FF440637B660223BB660023CA
:10389000FB6600233B6705237B6707F1640319463A
:1038A000054802F05BFC00BF7837BD4680BD00BF15
:1038B000004C0040001002400008004880B400AFF7
:1038C00000BFFDE780B400AF00BFFDE780B400AFEC
:1038D00000BFFDE780B400AF00BFFDE780B400AFDC
:1038E00000BFFDE780B400AF00BFBD465DF8047BBC
:1038F000704780B400AF00BFBD465DF8047B7047E1
:1039000080B400AF00BFBD465DF8047B704780B552
:1039100000AF00F0A1F900BF80BD000080B500AF8E
:10392000024802F0CCFA00BF80BD00BF4405002071
:1039300080B500AF024802F0C2FA00BF80BD00BFF0
:10394000A405002080B500AF024802F0B8FA00BF1D
:1039500080BD00BF0406002080B500AF024802F021
:10396000AEFA00BF80BD00BF8C06002080B500AF5E
:10397000024802F0A4FA00BF80BD00BFEC060020A0
:1039800080B500AF024802F0A5FE00BF80BD00BFB9
:10399000D41F002080B500AF034805F0E9FD0348BF
:1039A00005F0E6FD00BF80BD4C0700207C0800202C
:1039B00080B400AF01231846BD465DF8047B704714
:1039C00080B582B000AF786039600DF0F1FA03463F
:1039D00016221A604FF0FF3318460837BD4680BDE7
:1039E00080B582B000AF78604FF0FF317868FFF7A4
:1039F000E7FF00BFFDE780B586B000AFF860B960B3
:103A00007A6000237B610AE0AFF300800146BB6867
:103A10005A1CBA60CAB21A707B6901337B617A6939
:103A20007B689A42F0DB7B6818461837BD4680BD3C
:103A300080B586B000AFF860B9607A6000237B6122
:103A400009E0BB685A1CBA601B781846AFF30080C7
:103A50007B6901337B617A697B689A42F1DB7B6821
:103A600018461837BD4680BD80B483B000AF78607B
:103A70004FF0FF3318460C37BD465DF8047B7047A6
:103A800080B483B000AF786039603B684FF4005277
:103A90005A60002318460C37BD465DF8047B70471A
:103AA00080B483B000AF7860012318460C37BD4660
:103AB0005DF8047B704780B485B000AFF860B960F2
:103AC0007A60002318461437BD465DF8047B7047C2
:103AD00080B586B000AF7860144A154BD31A7B616D
:103AE0007B693B61134B1B68002B02D1114B124ABF
:103AF0001A60104B1A687B6813443A699A4207D2DD
:103B00000DF056FA03460C221A604FF0FF3309E01D
:103B1000084B1B68FB60074B1A687B681344054A17
:103B20001360FB6818461837BD4680BD00000220B0
:103B300000040000F80A00202026002080B400AF16
:103B4000064BD3F88830054A43F47003C2F8883036
:103B500000BFBD465DF8047B704700BF00ED00E08C
:103B60000D488546FFF7EAFF0C480D490D4A002332
:103B700002E0D458C4500433C4188C42F9D30A4A22
:103B80000A4C002301E013600432A242FBD30DF083
:103B900015FAFDF74FFAFEE70000022000000020B2
:103BA00078030020286B0108780300201C260020E1
:103BB000FEE780B582B000AF0023FB71032001F067
:103BC000A7FD0F2000F00EF80346002B02D00123C2
:103BD000FB7101E0FFF742FAFB7918460837BD4652
:103BE00080BD000080B584B000AF78600023FB7317
:103BF000164B1B68002B22D0154B1A68134B1B6801
:103C00004FF47A71B1FBF3F3B2FBF3F3184601F012
:103C1000B2FD0346002B0FD17B680F2B09D8002281
:103C200079684FF0FF3001F07EFD0A4A7B6813602F
:103C300007E00123FB7304E00123FB7301E0012390
:103C4000FB73FB7B18461037BD4680BD200000206B
:103C5000180000201C00002080B400AF054B1A683B
:103C6000054B1B681344034A136000BFBD465DF853
:103C7000047B7047FC0A00202000002080B400AFC5
:103C8000034B1B681846BD465DF8047B704700BFB8
:103C9000FC0A002080B483B000AF786039607B6894
:103CA0009B6823F47C123B681A437B689A6000BFD0
:103CB0000C37BD465DF8047B704780B483B000AF1D
:103CC000786039607B689B6823F0E0723B681A4338
:103CD0007B689A6000BF0C37BD465DF8047B704777
:103CE00080B483B000AF78607B689B6803F0E073BA
:103CF00018460C37BD465DF8047B704780B487B02A
:103D000000AFF860B9607A603B60FB6860331A46C8
:103D1000BB689B0013447B617B691A68084B1340A6
:103D20007A6802F0F8413A680A43134343F00042CC
:103D30007B691A6000BF1C37BD465DF8047B704785
:103D400000F0FF0380B485B000AF786039607B6815
:103D500060331A463B689B001344FB60FB681B689A
:103D600003F0F84318461437BD465DF8047B7047EE
:103D700080B487B000AFF860B9607A60FB686033E8
:103D80001A46BB689B0013447B617B691B6823F068
:103D900000427B681A437B691A6000BF1C37BD462E
:103DA0005DF8047B704780B487B000AFF860B960FD
:103DB0007A60FB6860331A46BB689B0013447B61E2
:103DC0007B691B6823F080727B681A437B691A60E9
:103DD00000BF1C37BD465DF8047B704780B487B0D8
:103DE00000AFF860B9607A60FB6860331A46BB6860
:103DF0009B0013447B617B691B6823F000727B6826
:103E00001A437B691A6000BF1C37BD465DF8047B0E
:103E1000704780B483B000AF786039607B685B69BD
:103E200023F000423B681A437B685A6100BF0C379D
:103E3000BD465DF8047B704780B483B000AF786006
:103E40007B68DB6803F44063002B01D1012300E0B1
:103E5000002318460C37BD465DF8047B704780B4DC
:103E600087B000AFF860B9607A60FB6830331A46FB
:103E7000BB681B0A9B0003F00C0313447B617B6946
:103E80001A68BB6803F01F031F2101FA03F3DB4329
:103E90001A407B689B0E03F01F01BB6803F01F03F1
:103EA00001FA03F31A437B691A6000BF1C37BD4651
:103EB0005DF8047B704780B487B000AFF860B960EC
:103EC0007A60FB6814331A46BB685B0E9B0003F0F4
:103ED000040313447B617B691A68BB681B0D03F004
:103EE0001F03072101FA03F3DB431A40BB681B0DD4
:103EF00003F01F03796801FA03F31A437B691A6020
:103F000000BF1C37BD465DF8047B704780B485B0A8
:103F100000AFF860B9607A60FB68D3F8B020BB6886
:103F2000C3F31203DB431A407B6803F0180308490C
:103F3000D940BB680B40C3F312031A43FB68C3F8B4
:103F4000B02000BF1437BD465DF8047B704700BF4A
:103F5000FFFF070080B483B000AF78607B689B6888
:103F600003F01F0318460C37BD465DF8047B70470D
:103F700080B483B000AF78607B689B6823F02043F7
:103F800023F03F037A68936000BF0C37BD465DF8AD
:103F9000047B704780B483B000AF78607B689B6817
:103FA00003F00053B3F1005F01D1012300E00023CF
:103FB00018460C37BD465DF8047B704780B483B06B
:103FC00000AF78607B689B6823F0104323F03F03C9
:103FD00043F080527B689A6000BF0C37BD465DF8A5
:103FE000047B704780B483B000AF78607B689B68C7
:103FF00003F08053B3F1805F01D1012300E000237F
:1040000018460C37BD465DF8047B704780B483B01A
:1040100000AF78607B689B6823F0004323F03F0388
:1040200043F001027B689A6000BF0C37BD465DF823
:10403000047B704780B483B000AF78607B689B6876
:1040400023F0004323F03F0343F002027B689A60B1
:1040500000BF0C37BD465DF8047B704780B483B069
:1040600000AF78607B689B6803F00103012B01D1EE
:10407000012300E0002318460C37BD465DF8047BA1
:10408000704780B483B000AF78607B689B6803F0B2
:104090000203022B01D1012300E0002318460C3754
:1040A000BD465DF8047B704780B483B000AF786094
:1040B0007B689B6823F0004323F03F0343F0040236
:1040C0007B689A6000BF0C37BD465DF8047B704783
:1040D00080B483B000AF78607B689B6803F0040312
:1040E000042B01D1012300E0002318460C37BD4604
:1040F0005DF8047B704780B483B000AF78607B6864
:104100009B6803F00803082B01D1012300E0002382
:1041100018460C37BD465DF8047B704790B589B0F2
:1041200000AF78600023FB770023FB607B68002BE7
:1041300001D10123A9E17B685B69002B7B68DB6D02
:10414000002B09D17868FEF7ADFF7B6800221A6664
:104150007B68002283F858207B681B681846FFF7AD
:1041600019FF0346002B04D07B681B681846FFF735
:10417000FFFE7B681B681846FFF734FF0346002BE1
:1041800015D17B681B681846FFF718FF9C4B1B680E
:104190009B099C4AA2FB03239B0901335B00FB6044
:1041A00002E0FB68013BFB60FB68002BF9D17B68F8
:1041B0001B681846FFF716FF0346002B0DD17B68DE
:1041C000DB6D43F010027B68DA657B681B6E43F0A1
:1041D00001027B681A660123FB777B681B6818461F
:1041E000FFF776FF78617B68DB6D03F01003002B2F
:1041F00040F042817B69002B40F03E817B68DB6DA3
:1042000023F4817343F002027B68DA657B681B68E4
:104210001846FFF723FF0346002B41D17B681B683C
:10422000B3F1A04F04D07B681B68774A93420FD14B
:104230004FF0A040FFF712FF04467348FFF70EFF50
:1042400003462343002B0CBF01230023DBB212E003
:104250006E48FFF703FF04466D48FFF7FFFE034675
:104260001C436C48FFF7FAFE03462343002B0CBFA8
:1042700001230023DBB2002B12D07B681B68B3F153
:10428000A04F04D07B681B685F4A934201D1624A09
:1042900000E0624A7B685B6819461046FFF7FAFC4B
:1042A0007B685B7F5A037B68DB6B1A437B68DB6848
:1042B0001A437B689B681A437B6893F824301B047D
:1042C0001343BB617B6893F82430012B06D17B68D4
:1042D0009B6A013B5B04BA691343BB617B68DB6A81
:1042E000002B09D07B68DB6A03F478727B681B6B58
:1042F0001343BA691343BB617B681B68DA68484B98
:1043000013407A681268B9690B43D3607B681B68F5
:104310001B6923F040617B685A6B7B681B680A430A
:104320001A617B681B681846FFF7E5FE38617B69F8
:10433000002B7FD13B69002B7CD17B681B7F9A03CC
:104340007B6893F838305B001343BB617B681B6864
:10435000DB6823F4804323F002037A681268B969AA
:104360000B43D3607B681B69002B17D07B681B68ED
:104370001A697B681B6842F480321A617B681B688B
:10438000D3F8C03023F47F5323F03F037A681169D8
:104390007A6812680B43C2F8C03013E07B681B6870
:1043A0001A697B681B6822F480321A617B681B687B
:1043B000D3F8C0307A68126823F47F5323F03F03A8
:1043C000C2F8C0307B6893F84030012B2AD17B685B
:1043D0001B681B6923F4FF6323F004037A68516CA4
:1043E0007A68926C11437A68D26C11437A68126DC4
:1043F0000A431A437B681B6842F001021A6119E004
:1044000018000020632D3E050001005000040050FC
:104410000005005000060050000300500007005047
:104420000740F0FF7B681B681A697B681B6822F0F5
:1044300001021A617B685B69012B0CD17B681B68E8
:104440001B6B23F00F017B681B6A5A1E7B681B687D
:104450000A431A6307E07B681B681A6B7B681B685A
:1044600022F00F021A637B68DB6D23F0030343F035
:1044700001027B68DA6507E07B68DB6D43F01002C0
:104480007B68DA650123FB77FB7F18462437BD463E
:1044900090BD00BF80B586B000AFF860B9607A60AB
:1044A000FB681B68B3F1A04F04D0FB681B685A4A35
:1044B000934201D1594B00E0594B1846FFF74AFD92
:1044C0003861FB681B681846FFF702FE0346002BA5
:1044D00040F09B80FB6893F85830012B01D10223F8
:1044E00096E0FB68012283F85820FB681B684D4A60
:1044F000934208D03B69002B05D03B69052B02D0C5
:104500003B69092B7AD1F86800F0ECFC0346FB7597
:10451000FB7D002B6DD1FB68DB6D23F4706323F012
:10452000010343F48072FB68DA65FB681B683A4A52
:10453000934209D0FB681B683B4A934202D0FB6858
:104540001B6803E0394B01E04FF0A043FA681268A2
:10455000934202D03B69002B05D1FB68DB6D23F44D
:104560008012FB68DA65FB68DB6D03F48053002B77
:1045700006D0FB681B6E23F00602FB681A6602E099
:10458000FB6800221A66FB685B6D294ADA62FB68E9
:104590005B6D284A1A63FB685B6D274A5A63FB68A8
:1045A0001B681C221A60FB68002283F85820FB68F5
:1045B0001B685A68FB681B6842F010025A60FB686F
:1045C0001B68DA68FB681B6842F00102DA60FB686E
:1045D000586DFB681B6840331946BA687B6801F068
:1045E000F3FB0346FB75FB681B681846FFF75CFD91
:1045F0000DE0FB68002283F8582008E00123FB75DA
:10460000FB68002283F8582001E00223FB75FB7D44
:1046100018461837BD4680BD000100500003005009
:104620000007005000060050000500500004005034
:10463000CF500008A7510008C351000880B483B0D0
:1046400000AF786000BF0C37BD465DF8047B704753
:1046500080B483B000AF786000BF0C37BD465DF812
:10466000047B704780B5B6B000AF78603960002336
:1046700087F8D7300023FB607B6893F85830012B14
:1046800002D1022300F013BC7B68012283F858207A
:104690007B681B681846FFF71BFD0346002B40F0A4
:1046A000F3837B6818683B6859683B681B681A4647
:1046B000FFF7D5FB7B681B681846FFF709FDC7F8B5
:1046C000D0007B681B681846FFF715FDC7F8CC00C3
:1046D000D7F8D030002B40F0D981D7F8CC30002B60
:1046E00040F0D4813B689B68B3F1004F0FD17B68E9
:1046F00018683B681B6800221946FFF7DCFB7B68E3
:104700001B684FF000411846FFF783FB0EE07B6803
:1047100018683B6819683B689B681A46FFF7CBFB33
:104720007B681B6800211846FFF773FB3B685A69DA
:104730007B681B68DB68DB0803F003035B0002FA9D
:1047400003F3C7F8C8303B681B69042B22D07B6891
:1047500018683B6819693B681A68D7F8C830FFF7D2
:10476000CDFA7B6818683B6819693B689B691A46F3
:10477000FFF719FB7B6818683B6819693B681B7F6A
:10478000012B02D14FF0007300E000231A46FFF71F
:1047900025FB7BE17B681B6800211846FFF7D2FAF6
:1047A0000346C3F31203002B0AD17B681B68002168
:1047B0001846FFF7C7FA03469B0E03F01F021EE0E0
:1047C0007B681B6800211846FFF7BCFA0346C7F850
:1047D000BC30D7F8BC3093FAA3F3C7F8B830D7F899
:1047E000B830C7F8C030D7F8C030002B01D1202333
:1047F00004E0D7F8C030B3FA83F3DBB21A463B6863
:104800001B68C3F31203002B05D13B681B689B0E8A
:1048100003F01F0318E03B681B68C7F8B030D7F8F7
:10482000B03093FAA3F3C7F8AC30D7F8AC30C7F880
:10483000B430D7F8B430002B01D1202304E0D7F8EE
:10484000B430B3FA83F3DBB29A4206D17B681B68BB
:10485000002200211846FFF78BFA7B681B680121B4
:104860001846FFF76FFA0346C3F31203002B0AD171
:104870007B681B6801211846FFF764FA03469B0E0C
:1048800003F01F021EE07B681B6801211846FFF73A
:1048900059FA0346C7F8A430D7F8A43093FAA3F323
:1048A000C7F8A030D7F8A030C7F8A830D7F8A8309C
:1048B000002B01D1202304E0D7F8A830B3FA83F30A
:1048C000DBB21A463B681B68C3F31203002B05D109
:1048D0003B681B689B0E03F01F0318E03B681B68D6
:1048E000C7F89830D7F8983093FAA3F3C7F8943004
:1048F000D7F89430C7F89C30D7F89C30002B01D102
:10490000202304E0D7F89C30B3FA83F3DBB29A4259
:1049100006D17B681B68002201211846FFF728FAA0
:104920007B681B6802211846FFF70CFA0346C3F3A5
:104930001203002B0AD17B681B6802211846FFF77F
:1049400001FA03469B0E03F01F021EE07B681B6802
:1049500002211846FFF7F6F90346C7F88C30D7F85E
:104960008C3093FAA3F3C7F88830D7F88830C7F8AB
:104970009030D7F89030002B01D1202304E0D7F8F5
:104980009030B3FA83F3DBB21A463B681B68C3F37B
:104990001203002B05D13B681B689B0E03F01F031D
:1049A00016E03B681B68C7F88030D7F8803093FA70
:1049B000A3F3FB67FB6FC7F88430D7F88430002B74
:1049C00001D1202304E0D7F88430B3FA83F3DBB2BB
:1049D0009A4206D17B681B68002202211846FFF725
:1049E000C7F97B681B6803211846FFF7ABF903463C
:1049F000C3F31203002B0AD17B681B6803211846FE
:104A0000FFF7A0F903469B0E03F01F0217E07B6837
:104A10001B6803211846FFF795F903467B677B6FF8
:104A200093FAA3F33B673B6FBB67BB6F002B01D1CE
:104A3000202303E0BB6FB3FA83F3DBB21A463B6873
:104A40001B68C3F31203002B05D13B681B689B0E48
:104A500003F01F0311E03B681B68BB66BB6E93FA53
:104A6000A3F37B667B6EFB66FB6E002B01D12023DC
:104A700003E0FB6EB3FA83F3DBB29A4206D17B68A4
:104A80001B68002203211846FFF772F97B681B6838
:104A90001846FFF7E3FA0346002B40F03D817B68A0
:104AA00018683B6819683B68DB681A46FFF72EFAFE
:104AB0003B68DB68A24A934240F02E817B6818680D
:104AC0003B681B68C3F31203002B0BD13B681B68C8
:104AD0009B0E013303F01F03092B94BF0123002316
:104AE000DBB219E03B681B68FB65FB6D93FAA3F32F
:104AF000BB65BB6D3B663B6E002B01D1202303E001
:104B00003B6EB3FA83F3DBB2013303F01F03092BCF
:104B100094BF01230023DBB2002B79D03B681B68D4
:104B2000C3F31203002B07D13B681B689B0E0133B4
:104B30009B0603F0F84215E03B681B683B653B6D44
:104B400093FAA3F3FB64FB6C7B657B6D002B01D1B7
:104B5000202303E07B6DB3FA83F3DBB201339B06C2
:104B600003F0F8423B681B68C3F31203002B09D122
:104B70003B681B689B0E013303F01F03012101FA00
:104B800003F317E03B681B687B647B6C93FAA3F329
:104B90003B643B6CBB64BB6C002B01D1202303E066
:104BA000BB6CB3FA83F3DBB2013303F01F030121C3
:104BB00001FA03F342EA03013B681B68C3F31203E3
:104BC000002B0AD13B681B689B0E013303F01F02C8
:104BD00013465B0013441B0518E03B681B68BB636E
:104BE000BB6B93FAA3F37B637B6BFB63FB6B002BC9
:104BF00001D1202303E0FB6BB3FA83F3DBB2013373
:104C000003F01F0213465B0013441B050B437EE0B9
:104C10003B681B68C3F31203002B07D13B681B687A
:104C20009B0E01339B0603F0F84215E03B681B68BE
:104C3000FB62FB6A93FAA3F3BB62BB6A3B633B6B09
:104C4000002B01D1202303E03B6BB3FA83F3DBB2EB
:104C500001339B0603F0F8423B681B68C3F3120361
:104C6000002B09D13B681B689B0E013303F01F0327
:104C7000012101FA03F317E03B681B683B623B6AC2
:104C800093FAA3F3FB61FB697B627B6A002B01D182
:104C9000202303E07B6AB3FA83F3DBB2013303F032
:104CA0001F03012101FA03F342EA03013B681B6879
:104CB000C3F31203002B0DD13B681B689B0E01331D
:104CC00003F01F0213465B0013441E3B1B0543F019
:104CD00000731BE03B681B687B617B6993FAA3F35D
:104CE0003B613B69BB61BB69002B01D1202303E021
:104CF000BB69B3FA83F3DBB2013303F01F0213463F
:104D00005B0013441E3B1B0543F000730B433A68E2
:104D100092681946FFF7CFF83B681A68094B1340B1
:104D2000002B00F0BE807B681B68B3F1A04F04D05D
:104D30007B681B68044A93420AD1044B09E000BF18
:104D400000007F4000000880000100500003005078
:104D5000594B1846FEF7C4FFC7F8C4003B681B68F0
:104D6000564A934204D03B681B68554A93423AD155
:104D7000D7F8C43003F40003002B34D17B681B68E0
:104D8000B3F1A04F05D07B681B684E4A934240F0B8
:104D900085807B681B68B3F1A04F04D07B681B68DB
:104DA000494A934201D1494A00E0434AD7F8C43006
:104DB00043F4000319461046FEF77FFF444B1B687F
:104DC0009B09444AA2FB03239B095A1C13465B0020
:104DD00013449B00FB6002E0FB68013BFB60FB6847
:104DE000002BF9D15AE03B681B683B4A934225D11E
:104DF000D7F8C43003F08073002B1FD17B681B6889
:104E0000314A934204D17B681B68344A934247D0AD
:104E10007B681B68B3F1A04F04D07B681B682A4AEB
:104E2000934201D1294A00E0234AD7F8C43043F025
:104E3000807319461046FEF740FF31E03B681B685F
:104E4000274A93422DD1D7F8C43003F48003002BB6
:104E500027D17B681B681C4A934222D07B681B6861
:104E6000B3F1A04F04D07B681B68174A934201D16D
:104E7000164A00E0104AD7F8C43043F480031946BC
:104E80001046FEF71AFF0CE07B68DB6D43F0200252
:104E90007B68DA65012387F8D73002E000BF00E0C5
:104EA00000BF7B68002283F8582097F8D730184657
:104EB000D837BD4680BD00BF00070050000021C3A9
:104EC0001000C09000060050000100500003005088
:104ED00018000020632D3E05000052C70005005059
:104EE000000084CB80B584B000AF78600023BB6045
:104EF0007B681B681846FFF7B1F80346002B76D194
:104F00007B681B689A683C4B1340002B0DD07B6874
:104F1000DB6D43F010027B68DA657B681B6E43F043
:104F200001027B681A66012362E07B681B681846F1
:104F3000FFF76CF87B681B68B3F1A04F04D07B6867
:104F40001B682E4A934201D12D4B00E02D4B184691
:104F5000FEF7C6FE034603F40003002B13D02A4BD2
:104F60001B689B09294AA2FB03239B095A1C134671
:104F70005B0013449B00BB6002E0BB68013BBB606D
:104F8000BB68002BF9D1FEF779FEF86028E07B685A
:104F90001B681846FFF762F80346002B04D17B68B4
:104FA0001B681846FFF732F8FEF768FE0246FB68FA
:104FB000D31A022B14D97B681B681B6803F001030A
:104FC000012B0DD07B68DB6D43F010027B68DA6546
:104FD0007B681B6E43F001027B681A66012307E0C1
:104FE0007B681B681B6803F00103012BCFD10023F2
:104FF00018461037BD4680BD3F00008000010050BC
:10500000000300500007005018000020632D3E05EB
:1050100080B584B000AF78607B681B681846FFF7E6
:1050200030F8F8607B681B681846FFF717F80346EE
:10503000002B47D0FB68002B44D17B681B689B6822
:1050400003F00D03012B0CD17B681B681846FEF79B
:10505000F1FF7B681B6803221A60FEF70FFEB86041
:1050600029E07B68DB6D43F010027B68DA657B68C2
:105070001B6E43F001027B681A66012323E0FEF7F2
:10508000FDFD0246BB68D31A022B14D97B681B684E
:105090009B6803F00103002B0DD07B68DB6D43F0B0
:1050A00010027B68DA657B681B6E43F001027B6847
:1050B0001A66012307E07B681B689B6803F0010305
:1050C000002BDCD1002318461037BD4680BD80B5CB
:1050D00084B000AF78607B689B6AFB60FB68DB6D27
:1050E00003F05003002B4BD1FB68DB6D43F40072DF
:1050F000FB68DA65FB681B681B6803F00803002B7C
:1051000021D0FB681B681846FEF796FE0346002B6D
:1051100032D0FB681B68DB6803F40053002B2BD1F3
:10512000FB68DB6D23F48072FB68DA65FB68DB6D7E
:1051300003F48053002B1FD1FB68DB6D43F00102A9
:10514000FB68DA6518E0FB681B68DB6803F00203A4
:10515000002B11D1FB68DB6D23F48072FB68DA65EC
:10516000FB68DB6D03F48053002B05D1FB68DB6D1E
:1051700043F00102FB68DA65F868FCF7C5FF0EE052
:10518000FB68DB6D03F01003002B03D0F868FFF71A
:105190005FFA04E0FB685B6D5B6B7868984700BF63
:1051A0001037BD4680BD80B584B000AF78607B68A5
:1051B0009B6AFB60F868FFF741FA00BF1037BD46F5
:1051C00080BD80B584B000AF78607B689B6AFB606F
:1051D000FB68DB6D43F04002FB68DA65FB681B6E21
:1051E00043F00402FB681A66F868FFF731FA00BF63
:1051F0001037BD4680BD80B483B000AF78607B6857
:105200009B6803F00103012B01D1012300E000237F
:1052100018460C37BD465DF8047B704780B483B0F8
:1052200000AF786039607B689B6823F0404323F0CF
:105230003F033A6802F08042134343F000427B6828
:105240009A6000BF0C37BD465DF8047B704780B4A0
:1052500083B000AF78607B689B6803F00043B3F1D4
:10526000004F01D1012300E0002318460C37BD4652
:105270005DF8047B704780B483B000AF78607B68D2
:105280009B6803F00403042B01D1012300E00023F9
:1052900018460C37BD465DF8047B704780B584B076
:1052A00000AF786039600023BB607B6893F85830AA
:1052B000012B01D102234DE07B68012283F85820A5
:1052C0007868FFF7A5FE0346FB73FB7B002B36D106
:1052D0007B68DB6D23F4885323F0020343F0020262
:1052E0007B68DA657B681B6839681846FFF796FFAC
:1052F00014E0BB680133BB60BB68184A93420DD908
:105300007B68DB6D23F0120343F010027B68DA65E3
:105310007B68002283F8582001231BE07B681B6810
:105320001846FFF794FF0346002BE2D17B68DB6D44
:1053300023F0030343F001027B68DA6505E07B6834
:10534000DB6D43F010027B68DA657B68002283F82E
:105350005820FB7B18461037BD4680BD01DE040097
:1053600090B5A1B000AF78603960002387F87F3036
:105370007B6893F85830012B01D10223E7E07B686A
:10538000012283F8582000237B660023BB667B68DC
:105390001B68B3F1A04F02D16F4BBB6009E07B6883
:1053A0001B686E4A934202D16D4BBB6001E0002343
:1053B000BB60BB68002B0BD17B68DB6D43F0200228
:1053C0007B68DA657B68002283F858200123BEE001
:1053D000BB681846FFF74FFFB8677B681B68184625
:1053E000FFF749FF0346002B40F0A080BB6F002B66
:1053F00040F09C807B681B68B3F1A04F04D07B68B1
:105400001B68554A934201D1564B00E0564B7B67CF
:105410003B681B68002B4BD07B6F9B6823F460427A
:105420003B6859687B6893F838305B030B431A4339
:105430007B6F9A607B681B68B3F1A04F04D07B68D8
:105440001B68454A93420FD14FF0A040FFF7D3FEAF
:1054500004464148FFF7CFFE03462343002B0CBF11
:1054600001230023DBB212E03C48FFF7C4FE0446F0
:105470003B48FFF7C0FE03461C433C48FFF7BBFE1A
:1054800003462343002B0CBF01230023DBB2002B78
:1054900056D07B6F9B6823F4716323F00F033A6847
:1054A00011683A6892680A431A437B6F9A6047E032
:1054B0007B6F9B6823F460427B6F9A607B681B68FC
:1054C000B3F1A04F04D07B681B68234A93420FD1ED
:1054D0004FF0A040FFF78FFE04461F48FFF78BFEFA
:1054E00003462343002B0CBF01230023DBB212E051
:1054F0001A48FFF780FE04461948FFF77CFE034672
:105500001C431A48FFF777FE03462343002B0CBFCA
:1055100001230023DBB2002B12D07B6F9B6823F4A6
:10552000716323F00F037A6F936009E07B68DB6D92
:1055300043F020027B68DA65012387F87F3000E0C2
:1055400000BF7B68002283F8582097F87F30184608
:105550008437BD4690BD00BF0001005000040050DC
:1055600000050050000300500007005000060050E6
:1055700080B485B000AF78607B6803F00703FB6000
:105580000C4BDB68BB60BA684FF6FF031340BB608F
:10559000FB681A02BB68134343F0BF6343F4003354
:1055A000BB60044ABB68D36000BF1437BD465DF8DA
:1055B000047B704700ED00E080B400AF044BDB6873
:1055C0001B0A03F007031846BD465DF8047B7047CD
:1055D00000ED00E080B483B000AF0346FB7197F9A3
:1055E0000730002B0BDBFB7903F01F02074997F90B
:1055F00007305B09012000FA02F241F8232000BFC6
:105600000C37BD465DF8047B704700BF00E100E049
:1056100080B483B000AF03463960FB7197F907305F
:10562000002B0ADB3B68DAB20C4997F9073012010C
:10563000D2B20B4483F800230AE03B68DAB208498F
:10564000FB7903F00F03043B1201D2B20B441A762C
:1056500000BF0C37BD465DF8047B704700E100E0F9
:1056600000ED00E080B489B000AFF860B9607A6006
:10567000FB6803F00703FB61FB69C3F10703042B1D
:1056800028BF0423BB61FB690433062B02D9FB69E5
:10569000033B00E000237B614FF0FF32BB6902FA5D
:1056A00003F3DA43BB681A407B699A404FF0FF313D
:1056B0007B6901FA03F3D9437B680B401343184617
:1056C0002437BD465DF8047B7047000080B582B08A
:1056D00000AF78607B68013BB3F1807F01D3012389
:1056E0000FE00A4A7B68013B53600F214FF0FF3007
:1056F000FFF78EFF054B00229A60044B07221A60C9
:10570000002318460837BD4680BD00BF10E000E00A
:1057100080B582B000AF78607868FFF729FF00BFDE
:105720000837BD4680BD80B586B000AF0346B9607E
:105730007A60FB73FFF740FF78617A68B96878692F
:10574000FFF790FF024697F90F3011461846FFF712
:105750005FFF00BF1837BD4680BD80B582B000AF87
:105760000346FB7197F907301846FFF733FF00BF78
:105770000837BD4680BD80B582B000AF78607868DC
:10578000FFF7A4FF034618460837BD4680BD80B525
:1057900082B000AF78607B68002B01D1012314E058
:1057A0007B681B79DBB2002B05D17B6800225A7124
:1057B0007868FDF73FFE7B6802221A717B68002241
:1057C0001A617B6801221A71002318460837BD460A
:1057D00080BD000080B485B000AF786039607B6820
:1057E000002B01D1012356E07B685B79012B01D1AD
:1057F000022350E07B6801225A717B6802221A71F1
:105800007B681B6819683B6803F0100301229A400B
:105810007B681B680A431A60224B1B689B09224A5B
:10582000A2FB03239B090133FB6002E0FB68013B01
:10583000FB60FB68002BF9D13B68002B0FD17B6824
:105840001B681B6803F03E03022B1DD17B681B689D
:105850005A687B681B6842F001025A6014E07B685A
:105860001B681B6803F478123B6803F010030221E5
:1058700001FA03F39A4207D17B681B685A687B6878
:105880001B6842F002025A607B6801221A717B6831
:1058900000225A71002318461437BD465DF8047B78
:1058A000704700BF18000020632D3E0580B487B00C
:1058B00000AFF860B9607A603B6000237B61FB68F1
:1058C000002B01D1012318E0FB681B68DB6BFB6830
:1058D0001B687B61BB68002B05D17A697B68134428
:1058E00008337B6104E07A697B68134414337B617D
:1058F0007B691A463B681360002318461C37BD4677
:105900005DF8047B7047000080B58AB000AFF86096
:10591000B9607A600023FB77FB68002B02D0BB687C
:10592000002B01D101239EE1FB685B79012B01D1A2
:10593000022398E1FB6801225A71FB6802221A7166
:10594000BB689B68042B7AD1FEF798F9B8617B6835
:10595000002B3DD118E0FEF791F90246BB69D31A3E
:10596000012B11D9FB681B685B6B03F40043002B10
:105970000AD0FB681B6943F00802FB681A61FB68E8
:1059800003221A7103236EE1FB681B685B6B03F44F
:105990000043002BDFD1FB681B68BA68526A1A64A7
:1059A00020E0FEF76BF90246BB69D31A012B0FD931
:1059B000FB681B685B6B002B0ADAFB681B6943F012
:1059C0000802FB681A61FB6803221A7103234AE18B
:1059D000FB681B685B6B002BE3DBFB681B68BA682A
:1059E000526A5A64FB681B689A6C7B6803F0100368
:1059F00040F2FF3101FA03F3DB4302EA0301BB6823
:105A00009A6A7B6803F010039A40FB681B680A439C
:105A10009A64FB681B68DA6C7B6803F01003FF2153
:105A200001FA03F3DB4302EA0301BB68DA6A7B682D
:105A300003F010039A40FB681B680A43DA64BB68F2
:105A4000DB69012B1DD1FB681B689B6B7B627B684C
:105A500003F010031F2202FA03F3DB437A6A1340B8
:105A60007B62BB681B6A7B617B6803F010037A6909
:105A700002FA03F37A6A13437B62FB681B687A6A53
:105A80009A63FB681B68DB6B7B627B6803F0100327
:105A9000072202FA03F3DB437A6A13407B62BB6896
:105AA0009B69012B02D100233B620FE0BB689B691D
:105AB000022B02D101233B6208E0BB685B69002B2B
:105AC00002D101233B6201E000233B62BB689A687C
:105AD000BB685B6913433A6A13437B617B6803F0DD
