:020000040800F2
:1000000000000220FD450008294300083143000894
:10001000394300084143000849430008000000003C
:100020000000000000000000000000005143000834
:100030005F430008000000006D4300087B43000898
:100040004D4600084D4600084D4600084D46000844
:100050004D4600084D4600084D4600084D46000834
:100060004D4600084D4600084D46000889430008EB
:100070009D430008B1430008C5430008D943000868
:100080004D4600084D4600084D4600084D46000804
:10009000ED4300084D4600084D4600084D46000857
:1000A000014400084D4600084D4600084D46000832
:1000B0004D4600084D4600084D4600084D460008D4
:1000C0004D4600084D4600084D4600084D460008C4
:1000D0004D4600084D4600084D4600084D460008B4
:1000E0004D4600084D4600084D4600081D440008D6
:1000F0004D4600084D4600084D4600084D46000894
:100100004D4600084D4600084D4600084D46000883
:100110004D4600084D460008314400084D46000891
:100120004D4600084D4600084D4600084D46000863
:100130004D4600084D4600084D4600084D46000853
:100140004D4600084D4600084D4600084D46000843
:100150004D4600084D4600084D4600084D46000833
:100160004D4600084D4600084D4600084D46000823
:100170004D4600084D4600084D4600084D46000813
:100180004D4600084D4600084D4600084D46000803
:100190004D460008000000004D4600084D4600088E
:1001A0004D4600084D4600084D4600084D460008E3
:1001B0004D4600084D4600084D4600084D460008D3
:1001C0004D4600084D4600084D4600084D460008C3
:0801D0004D4600084D460008F1
:1001E00010B5054C237833B9044B13B10448AFF371
:1001F00000800123237010BDB00300200000000028
:10020000F46C010808B5034B1BB103490348AFF375
:10021000008008BD00000000B4030020F46C010859
:1002200001F0FF01102A2BDB10F0070F08D010F8A7
:10023000013B013A8B422DD010F0070F42B3F6D1AB
:10024000F0B441EA012141EA014122F007047FF0C4
:1002500000070023F0E80256083C85EA010586EA1B
:10026000010685FA47F5A3FA87F586FA47F6A5FA57
:1002700087F68EB9EED1F0BC01F0FF0102F0070263
:1002800032B110F8013B013A83EA010313B1F8D10E
:100290000020704701387047002D06BF35460338EF
:1002A000073815F0010F07D1013015F4807F02BF28
:1002B000013015F4C03F0130F0BC0138704700BF79
:1002C000034613F8012B002AFBD1181A0138704796
:1002D00081F0004102E000BF83F0004330B54FEAF7
:1002E00041044FEA430594EA050F08BF90EA020F64
:1002F0001FBF54EA000C55EA020C7FEA645C7FEAF7
:10030000655C00F0E2804FEA5454D4EB5555B8BF19
:100310006D420CDD2C4480EA020281EA030382EA8A
:10032000000083EA010180EA020281EA0303362D1C
:1003300088BF30BD11F0004F4FEA01314FF4801CEF
:100340004CEA113102D0404261EB410113F0004F01
:100350004FEA03334CEA133302D0524263EB4303B8
:1003600094EA050F00F0A780A4F10104D5F1200E56
:100370000DDB02FA0EFC22FA05F2801841F10001B1
:1003800003FA0EF2801843FA05F359410EE0A5F185
:1003900020050EF1200E012A03FA0EFC28BF4CF0B6
:1003A000020C43FA05F3C01851EBE37101F000456C
:1003B00007D54FF0000EDCF1000C7EEB00006EEB79
:1003C0000101B1F5801F1BD3B1F5001F0CD3490803
:1003D0005FEA30004FEA3C0C04F101044FEA44525A
:1003E00012F5800F80F09A80BCF1004F08BF5FEAE1
:1003F000500C50F1000041EB045141EA050130BDC1
:100400005FEA4C0C404141EB0101013C28BFB1F5D2
:10041000801FE9D291F0000F04BF01460020B1FA1D
:1004200081F308BF2033A3F10B03B3F120020CDAF0
:100430000C3208DD02F1140CC2F10C0201FA0CF0CE
:1004400021FA02F10CE002F11402D8BFC2F1200C33
:1004500001FA02F120FA0CFCDCBF41EA0C019040E9
:10046000E41AA2BF01EB0451294330BD6FEA040432
:100470001F3C1CDA0C340EDC04F11404C4F120021D
:1004800020FA04F001FA02F340EA030021FA04F32F
:1004900045EA030130BDC4F10C04C4F1200220FA86
:1004A00002F001FA04F340EA0300294630BD21FAC4
:1004B00004F0294630BD94F0000F83F4801306BF8A
:1004C00081F480110134013D4EE77FEA645C18BF7E
:1004D0007FEA655C29D094EA050F08BF90EA020F15
:1004E00005D054EA000C04BF1946104630BD91EA0D
:1004F000030F1EBF0021002030BD5FEA545C05D110
:100500004000494128BF41F0004130BD14F580044E
:100510003CBF01F5801130BD01F0004545F0FE41C2
:1005200041F470014FF0000030BD7FEA645C1ABFF7
:10053000194610467FEA655C1CBF0B46024650EA2E
:10054000013406BF52EA033591EA030F41F400215A
:1005500030BD00BF90F0000F04BF0021704730B5E0
:100560004FF4806404F132044FF000054FF00001B5
:1005700050E700BF90F0000F04BF0021704730B576
:100580004FF4806404F1320410F0004548BF40424B
:100590004FF000013EE700BF42004FEAE2014FEAA0
:1005A00031014FEA02701FBF12F07F4393F07F4F7B
:1005B00081F06051704732F07F4208BF704793F07E
:1005C0007F4F04BF41F40021704730B54FF4607491
:1005D00001F0004521F000411CE700BF50EA010294
:1005E00008BF704730B54FF000050AE050EA01023D
:1005F00008BF704730B511F0004502D5404261EBAD
:1006000041014FF4806404F132045FEA915C3FF4ED
:10061000D8AE4FF003025FEADC0C18BF03325FEA8A
:10062000DC0C18BF033202EBDC02C2F1200300FA3B
:1006300003FC20FA02F001FA03FE40EA0E0021FA60
:1006400002F11444BDE600BF70B54FF0FF0C4CF44E
:10065000E06C1CEA11541DBF1CEA135594EA0C0F00
:1006600095EA0C0F00F0DEF82C4481EA030621EA3B
:100670004C5123EA4C5350EA013518BF52EA033576
:1006800041F4801143F4801338D0A0FB02CE4FF028
:100690000005E1FB02E506F00042E0FB03E54FF058
:1006A0000006E1FB03569CF0000F18BF4EF0010E50
:1006B000A4F1FF04B6F5007F64F5407404D25FEA4C
:1006C0004E0E6D4146EB060642EAC62141EA5551FF
:1006D0004FEAC52040EA5E504FEACE2EB4F1FD0C41
:1006E00088BFBCF5E06F1ED8BEF1004F08BF5FEABF
:1006F000500E50F1000041EB045170BD06F0004671
:1007000046EA010140EA020081EA0301B4EB5C041D
:10071000C2BFD4EB0C0541EA045170BD41F4801115
:100720004FF0000E013C00F3AB8014F1360FDEBF3A
:10073000002001F0004170BDC4F10004203C35DA16
:100740000C341BDC04F11404C4F1200500FA05F399
:1007500020FA04F001FA05F240EA020001F000423A
:1007600021F0004110EBD37021FA04F642EB0601B0
:100770005EEA430E08BF20EAD37070BDC4F10C04DA
:10078000C4F1200500FA04F320FA05F001FA04F29E
:1007900040EA020001F0004110EBD37041F100018A
:1007A0005EEA430E08BF20EAD37070BDC4F1200595
:1007B00000FA05F24EEA020E20FA04F301FA05F2FD
:1007C00043EA020321FA04F001F0004121FA04F2A5
:1007D00020EA020000EBD3705EEA430E08BF20EA75
:1007E000D37070BD94F0000F0FD101F000464000AF
:1007F00041EB010111F4801F08BF013CF7D041EA31
:10080000060195F0000F18BF704703F00046520034
:1008100043EB030313F4801F08BF013DF7D043EA05
:100820000603704794EA0C0F0CEA135518BF95EABB
:100830000C0F0CD050EA410618BF52EA4306D1D142
:1008400081EA030101F000414FF0000070BD50EA61
:10085000410606BF1046194652EA430619D094EAEB
:100860000C0F02D150EA013613D195EA0C0F05D1D5
:1008700052EA03361CBF104619460AD181EA030129
:1008800001F0004141F0FE4141F470014FF00000E1
:1008900070BD41F0FE4141F4780170BD70B54FF07C
:1008A000FF0C4CF4E06C1CEA11541DBF1CEA1355FC
:1008B00094EA0C0F95EA0C0F00F0A7F8A4EB0504DE
:1008C00081EA030E52EA03354FEA013100F08880D5
:1008D0004FEA03334FF0805545EA131343EA12639E
:1008E0004FEA022245EA111545EA10654FEA002653
:1008F0000EF000419D4208BF964244F1FD0404F50C
:10090000407402D25B084FEA3202B61A65EB030567
:100910005B084FEA32024FF480104FF4002CB6EB24
:10092000020E75EB030E22BFB61A754640EA0C00A4
:100930005B084FEA3202B6EB020E75EB030E22BFE4
:10094000B61A754640EA5C005B084FEA3202B6EB25
:10095000020E75EB030E22BFB61A754640EA9C00E4
:100960005B084FEA3202B6EB020E75EB030E22BFB4
:10097000B61A754640EADC0055EA060E18D04FEA72
:10098000051545EA16754FEA06164FEAC30343EA12
:1009900052734FEAC2025FEA1C1CC0D111F4801FDF
:1009A0000BD141EA00014FF000004FF0004CB6E7D8
:1009B00011F4801F04BF01430020B4F1FD0C88BF77
:1009C000BCF5E06F3FF6AFAEB5EB030C04BFB6EB82
:1009D000020C5FEA500C50F1000041EB045170BD75
:1009E0000EF0004E4EEA113114EB5C04C2BFD4EBA2
:1009F0000C0541EA045170BD41F480114FF0000E26
:100A0000013C90E645EA060E8DE60CEA135594EAA1
:100A10000C0F08BF95EA0C0F3FF43BAF94EA0C0FA4
:100A20000AD150EA01347FF434AF95EA0C0F7FF419
:100A300025AF104619462CE795EA0C0F06D152EA6D
:100A400003353FF4FDAE1046194622E750EA410651
:100A500018BF52EA43067FF4C5AE50EA41047FF462
:100A60000DAF52EA43057FF4EBAE12E74FF0FF3CC7
:100A700006E000BF4FF0010C02E000BF4FF0010C98
:100A80004DF804CD4FEA410C7FEA6C5C4FEA430C11
:100A900018BF7FEA6C5C1BD001B050EA410C0CBF60
:100AA00052EA430C91EA030F02BF90EA020F0020C2
:100AB000704710F1000F91EA030F58BF994208BF29
:100AC00090422CBFD8176FEAE37040F001007047E6
:100AD0004FEA410C7FEA6C5C02D150EA013C07D13D
:100AE0004FEA430C7FEA6C5CD6D152EA033CD3D088
:100AF0005DF8040B704700BF8446104662468C4682
:100B00001946634600E000BF01B5FFF7B7FF0028B4
:100B100048BF10F1000F01BD4DF808EDFFF7F4FFDD
:100B20000CBF012000205DF808FB00BF4DF808ED68
:100B3000FFF7EAFF34BF012000205DF808FB00BF8B
:100B40004DF808EDFFF7E0FF94BF012000205DF8AD
:100B500008FB00BF4DF808EDFFF7CEFF94BF012062
:100B600000205DF808FB00BF4DF808EDFFF7C4FF5B
:100B700034BF012000205DF808FB00BF4FEA410CA4
:100B80007FEA6C5C02D150EA013C0AD14FEA430C87
:100B90007FEA6C5C02D152EA033C02D14FF00000C4
:100BA00070474FF0010070474FEA410212F5001202
:100BB00015D211D56FF47873B3EB625212D94FEAA4
:100BC000C12343F0004343EA505311F0004F23FA8E
:100BD00002F018BF404270474FF00000704750EAE3
:100BE000013005D111F0004008BF6FF000407047A0
:100BF0004FF00000704700BF4A0011D212F50012FA
:100C000011D20DD56FF47873B3EB62520ED44FEA64
:100C1000C12343F0004343EA505323FA02F07047E4
:100C20004FF00000704750EA013002D14FF0FF3022
:100C300070474FF0000070474FEA4102B2F1E043C5
:100C400024BFB3F5001CDCF1FE5C0DD901F0004CB3
:100C50004FEAC0024CEA5070B2F1004F40EB830003
:100C600008BF20F00100704711F0804F21D113F12F
:100C70003872BCBF01F00040704741F480114FEA68
:100C80005252C2F11802C2F1200C10FA0CF320FAF1
:100C900002F018BF40F001004FEAC1234FEAD3230E
:100CA00003FA0CFC40EA0C0023FA02F34FEA430378
:100CB000CCE77FEA625307D150EA01331EBF4FF001
:100CC000FE4040F44000704701F0004040F0FE401C
:100CD00040F40000704700BF53B94AB9002908BF6B
:100CE00000281CBF4FF0FF314FF0FF3000F0A0B9DB
:100CF000ADF1080C6DE904CE00F03CF8DDF804E03D
:100D0000DDE9022304B0704738B500220023044611
:100D10000D46FFF70BFF28B920462946BDE83840AD
:100D200000F00AB8204605F1004100F005F8404205
:100D300061EB410138BD00BFD0B50C4B0022064627
:100D40000F46FFF781FCFFF757FF0446FFF702FC51
:100D5000074B0022FFF778FC02460B463046394627
:100D6000FFF7BAFAFFF748FF2146D0BD0000F03D7B
:100D70000000F0412DE9F047089D0C46002B4ED1B4
:100D800094468C458646B2FA82F262D94AB1C2F1E3
:100D90002003914020FA03F30CFA02FC194300FAF5
:100DA00002FE4FEA1C471FFA8CF6B1FBF7F44FEA3C
:100DB0001E4307FB141143EA014304FB06F1994269
:100DC0000AD91CEB030304F1FF3080F01281994231
:100DD00040F20F81023C6344591A1FFA8EF3B1FBB3
:100DE000F7F007FB101143EA014300FB06F69E42B1
:100DF0000AD91CEB030300F1FF3180F0FC809E4216
:100E000040F2F980634402389B1B40EA0440002111
:100E10001DB1D3400022C5E90032BDE8F0878B4206
:100E200005D90DB1C5E9000100210846F5E7B3FA7F
:100E300083F1002946D1A34202D39042C0F0F08052
:100E4000861A64EB03030120002DE6D0C5E9006398
:100E5000E3E7002A40F09080A1EB0C044FEA1C4825
:100E60001FFA8CF70121B4FBF8F64FEA1E4308FB8A
:100E7000164443EA044307FB06F0984208D91CEBEA
:100E8000030306F1FF3402D2984200F2CD802646D9
:100E90001C1A1FFA8EF3B4FBF8F008FB104443EA67
:100EA000044300FB07F79F4208D91CEB030300F142
:100EB000FF3402D29F4200F2B0802046DB1B40EAA2
:100EC0000640A5E7C1F120068B4022FA06F71F4332
:100ED00020FA06FC04FA01F343EA0C03F44000FA9A
:100EE00001F8380C4FEA1349B4FBF0FE1FFA87FCF7
:100EF00000FB1E4449EA04440EFB0CF9A14502FA2A
:100F000001F20AD93C190EF1FF3A80F08480A14524
:100F100040F28180AEF1020E3C44A4EB09041FFABA
:100F200083F9B4FBF0F300FB134449EA044403FBE8
:100F30000CFCA44507D93C1903F1FF3067D2A44546
:100F400065D9023B3C4443EA0E40A0FB0293A4EB6C
:100F50000C049C42CE469C4651D34ED055B1B8EBC2
:100F60000E0364EB0C0404FA06F6CB401E43CC409F
:100F7000C5E90064002150E7C2F1200320FA03F123
:100F80000CFA02FC24FA03F394400C434FEA1C4889
:100F900000FA02FE1FFA8CF7B3FBF8F008FB1031E1
:100FA000230C43EA014300FB07F1994208D91CEBEB
:100FB000030300F1FF362CD299422AD90238634448
:100FC0005B1AA4B2B3FBF8F108FB113344EA034403
:100FD00001FB07F3A34208D91CEB040401F1FF361F
:100FE00013D2A34211D902396444E41A41EA004100
:100FF00039E70446F0E6084606E7C845AED2B9EB45
:10100000020E63EB070C0138A8E73146EDE7034613
:1010100099E73046D4E7D6467FE7634402384DE788
:101020000646234608460FE7023E634430E700BF0A
:10103000704700BF0000000090B585B002AF03F01C
:1010400006FB00F0EFFC01F021FB01F0D5FA00F007
:10105000AFFD00F079FE00F0DDFE00F061FF00F072
:10106000ABFF00F0E3FF01F069F901F079FA00F05D
:1010700027FD01F075F80FF009FA01F0F9F901F018
:1010800049FA01F025F901F0E3F800F035FF894B4A
:1010900009221A60874B60229A61864B00225A60AF
:1010A000844B00221A61834B00225A61814B00223B
:1010B0009A60804B0022DA607E497F4804F0FAFF94
:1010C0000346002B01D002F0ABFC01F06BFD0346A0
:1010D0001A467A4B1A707A4B1B78DBB2002B04D07D
:1010E00002F0A0F8764B00221A700421754806F031
:1010F000CBF803461A46744B1A70734B1B78002BBF
:101100000ED0724B1B78002B0AD06C4B1B78002B37
:1011100006D16F4B00221A706C4B00221A7019E036
:10112000694B1B78002B0ED06A4B1B78002B0AD022
:10113000624B1B78002B06D1654B03221A70654B5E
:1011400000221A7006E0644B1B78002B02D0604B23
:1011500002221A705C4B1B78002B03D0574B1B7874
:10116000002B02D05A4B01221A705C4B1B78584A54
:1011700012781146184601F0D5FB03461A46574B24
:101180001A70564B1B78042B00F2048401A252F80B
:1011900023F000BFA91100086712000825130008FA
:1011A00071180008E5180008012204214C4806F0D7
:1011B00083F800222021434806F07EF801222021F6
:1011C000484806F079F84FF47A7003F0B1FA00223B
:1011D0002021444806F070F80021434808F0CAFF77
:1011E0000421424808F0C6FF0021414805F09CF95F
:1011F00010213F4805F098F900213E4805F094F988
:1012000000213D4808F0B6FF3C4808F0B5FE7F21BC
:101210003B4804F0B3FD7F213A4804F0AFFD7F2145
:10122000394804F0ABFD05223849354803F0A2FEE9
:1012300002223749334803F09DFE0A2235493248DD
:1012400003F098FE142001F0C7FB304B1B889AB2C4
:10125000314B1A802D4B5B889AB2304B1A801F4B52
:1012600001221A709DE301F0D7FC03461A462C4B6D
:101270001A70164B1B78002B00F08F83124B1B78D3
:10128000002B00F08A830D4B1B78002B40F08583E8
:10129000234B1B78002B00F08083104B02221A7026
:1012A0000021114808F066FF0421104808F062FF91
:1012B00073E300BF940B00209C060020880B0020E5
:1012C000740B002000080048900B0020840B0020C5
:1012D00024000020850B0020860B0020870B0020B7
:1012E0000014004800100048AC070020DC08002073
:1012F000C4060020D8060020F8070020440800207B
:1013000038040020A404002010050020700A0020EA
:10131000880A00209C0A0020540A0020560A002057
:10132000890B00207E4B1B68002B07D10022042173
:101330007C4805F0C1FF7C4808F01EFE7B4B1B7803
:10134000002B00F02D837A4B1B6807EE903AF8EEE5
:10135000677A784B1B6807EE103AB8EE477A764BFF
:101360001B6806EE903AF8EE666A744B1B6806EE50
:10137000103AB8EE466AF0EE461AB0EE661AF0EE93
:10138000470AB0EE670A01F04FFEF0EE407AFDEE3C
:10139000E77A17EE902A674B1A60694B1B6807EED5
:1013A000903AF8EEE77A674B1B6807EE103AB8EE12
:1013B000477A654B1B6806EE903AF8EE666A634B17
:1013C0001B6806EE103AB8EE466AF0EE461AB0EE2A
:1013D000661AF0EE470AB0EE670A01F025FEF0EE5D
:1013E000407AFDEEE77A17EE902A564B1A60554B7D
:1013F0001B6807EE903AF8EE676A4E4B1B6807EEE3
:10140000903AB8EE677AC6EE877A514BC3ED007A10
:101410004F4BD3ED007AB0EE007AF4EEC77AF1EEDE
:1014200010FA40F1A5804A4BD3ED007AB7EE007A6E
:1014300077EE677AB0EE670A02F0ACF910EE103A78
:101440001846FFF7A9F832A3D3E90023FFF7FCF809
:1014500002460B4610461946FFF7EEFB03463D4A8F
:1014600013603B4BD3ED007AB0EE007A37EE677A2B
:10147000374BD3ED007AC7EE276A20216420B0EE07
:10148000660A02F089F80346334A13606423009326
:101490000123324A3049324804F048FE2F4B186885
:1014A000202301220A2102F0FDF8F0EE407A2D4BB4
:1014B000C3ED007A234B1B6807EE903AB8EE677ACB
:1014C000294BD3ED007A27EE277A264BD3ED007A0D
:1014D00067EE277A17EE900AFFF75EF80EA3D3E9BE
:1014E0000023FFF7B1F802460B4610461946FFF7F6
:1014F0005BFB03461A461D4B1A601C4B1B68B3F579
:101500007A6F6FD9194B4FF47A621A606AE000BFA4
:10151000F7055F1582B54E3E3956A30304067C3F9E
:101520008C0B00200014004828090020910B00209B
:10153000640A002030000020380000203C00002019
:101540007C0A0020340000204000002044000020DD
:10155000140000200400002050000020480000205B
:101560009C0600204C0000202C000020600A002077
:10157000A14BD3ED007AB0EE007AF4EEC77AF1EE2B
:1015800010FA2FDB9C4BD3ED007AB7EE007A77EEA2
:10159000C77AF7EE006A86EEA77AB0EE470A02F045
:1015A000F9F810EE103A1846FEF7F6FF02460B4621
:1015B0008BA1D1E90001FEF78FFE02460B461046D3
:1015C000194689A3D3E90023FFF73EF802460B46EC
:1015D00010461946FFF730FB0346884A1360884BD4
:1015E00000221A60854B1B681846FEF7D5FF80A3C2
:1015F000D3E90023FFF79AFA0346002B33D07F4B41
:1016000093ED007AF7EE006AC6EE877AFDEEE77A90
:1016100017EE903A7B607B687A4A934201DD794B02
:101620007B60794B93ED007A7B6807EE903AF8EE99
:10163000E77A77EE677AFDEEE77A17EE903A002BBD
:10164000B8BF5B42714A93420DDD7B681A460021A8
:101650006F4801F037FA7B6807EE903AF8EEE77AC8
:10166000694BC3ED007A6B4B1B68002B67DD6A4B3F
:101670001B684BF29872934261D9684B1B78012B1F
:101680005DD1654B1B6807EE903AF8EE677A9FEDE7
:10169000647A27EE877A5F4B1B6807EE903AF8EE84
:1016A000E76AB7EE006AC6EE267A67EE277A5D4BE8
:1016B000C3ED007A5B4B93ED007AF7EE006AC6EE5D
:1016C000877AFDEEE77A17EE903A3B603B684D4A29
:1016D000934201DD4B4B3B60534B93ED007A3B68EB
:1016E00007EE903AF8EEE77A77EE677AFDEEE77A62
:1016F00017EE903A002BB8BF5B42444A93421EDD7E
:101700004A4B9B681A464A4B1A603B681A460421AA
:10171000484801F0D7F9454B9B681A46464B1A607A
:10172000434B1A68444B1B68D31A444A13603B6806
:1017300007EE903AF8EEE77A3B4BC3ED007A374B71
:101740001B78002B0DD13E4B1B689FED3E0A44F6E3
:1017500020624BF68031184601F096FB0346384A6A
:101760001360374B1B68002B1CDD2B4B1B681C4682
:10177000334B1968344B1B68344A12683448D0ED37
:10178000007A344890ED007A019200939FED2D1A73
:10179000F0EE470AB0EE670A0B4622462E491D4876
:1017A00001F0C4FB1B4B1B681A462C4B1B681344EF
:1017B0001A462B4B1A602B4B1B68002B0BD14FF496
:1017C000FA7002F0B5FF01222021274805F074FDD0
:1017D000244B01221A60254B00221A70E0E000BF62
:1017E000182D4454FB210940F7055F1582B54E3E84
:1017F000FCA9F1D24D62503F1400002004000020EB
:10180000600A0020002D31010C0000209F8601009D
:10181000AC070020580A0020340000208C0A002069
:10182000CF2E9731080000201000002010E000E0CB
:10183000B00B0020DC080020B40B0020B80B002007
:10184000840A002017B7513820000020780B0020B0
:10185000180000201C0000207C0B0020980A0020AB
:101860005C0A00208C0B002000080048910B00202F
:10187000002220214C4805F01FFD4C4808F0F4FBE5
:10188000002280214A4805F017FD00224FF48071A4
:10189000484805F011FD00220121474805F00CFDE4
:1018A00000224021404805F007FD00220221414866
:1018B00005F002FD00224FF40071404805F0FCFCE9
:1018C000012220213B4805F0F7FC3D4808F0E4FAEE
:1018D0003C4B00221A603C4B00221A703B4B042206
:1018E0001A705EE0002220212F4805F0E5FC01225D
:1018F0000421324805F0E0FC2C4808F0B5FB344BDD
:1019000000221A702F4B00221A60324B01221A60FB
:10191000314B01221A60314B01221A60304B0122F7
:101920001A60304B4FF07E521A602F4B4FF07E52B0
:101930001A602E4B4FF07E521A602D4B01221A6016
:101940002C4B01221A602C4B01221A602B4B0122D6
:101950001A602B4B01221A602A4B01221A602A4B73
:1019600001221A60294B01221A60294B01221A60B8
:10197000284B01221A60284B01221A6004212748B3
:1019800008F00AFD0021264808F006FD0F4B012251
:101990001A7006E000BFFFF798BB00BFFFF795BBCA
:1019A00000BFFFF792BB00BF0008004828090020D5
:1019B0000004004800100048000C004800140048D3
:1019C000900800208C0B0020840B0020870B002047
:1019D0008C0A0020580A00205C0A0020800A00209F
:1019E000840A0020040000200800002014000020C9
:1019F0007C0B0020800B002030000020640A0020B7
:101A0000340000207C0A0020380000203C00002028
:101A10004000002044000020600A0020DC08002074
:101A2000AC07002080B594B000AF07F1180338224E
:101A30000021184610F007FA3B1D00221A605A6078
:101A40009A60DA601A614FF4007007F09DF9222362
:101A5000BB614FF480737B624023BB6201233B6315
:101A600002237B630223BB630423FB634B233B649E
:101A700002237B640223BB640223FB6407F1180387
:101A8000184607F035FA0346002B01D001F0C8FFD5
:101A90000F237B600323BB600023FB6000233B61BB
:101AA00000237B613B1D0421184607F033FD0346EC
:101AB000002B01D001F0B4FF00BF5037BD4680BD00
:101AC00080B58CB000AF07F1240300221A605A6081
:101AD0009A603B1D20220021184610F0B4F9324BC9
:101AE0004FF0A0421A60304B4FF440325A602E4BF8
:101AF00000229A602C4B0022DA602B4B00221A61E4
:101B0000294B00225A61284B04229A61264B00225D
:101B10001A77254B00225A77234B01221A62224B57
:101B2000002283F82420204B0022DA621E4B002280
:101B30001A631D4B002283F838201B4B0022DA6306
:101B4000194B002283F84020174803F057F803464A
:101B5000002B01D001F064FF00237B6207F1240316
:101B60001946114804F06CF90346002B01D001F02E
:101B700057FF0E4B7B600623BB600723FB607F2370
:101B80003B6104237B610023BB613B1D1946064872
:101B900003F0D8FA0346002B01D001F041FF00BF4B
:101BA0003037BD4680BD00BFCC030020000084CB91
:101BB00080B58CB000AF07F1240300221A605A6090
:101BC0009A603B1D20220021184610F03CF9574B2B
:101BD000574A1A60554B4FF4A0125A60534B0022DB
:101BE0009A60524B0022DA60504B00221A614F4B30
:101BF00001225A614D4B04229A614C4B00221A7704
:101C00004A4B01225A77494B05221A62474B002260
:101C100083F82420454B0022DA62444B00221A63E9
:101C2000424B012283F83820404B4FF48052DA6354
:101C30003E4B002283F840203C4802F0DFFF034681
:101C4000002B01D001F0ECFE00237B6207F124039E
:101C50001946364804F0F4F80346002B01D001F091
:101C6000DFFE344B7B600623BB600023FB607F23D9
:101C70003B6100237B612623BB614FF08073FB61D6
:101C8000002387F820303B1D1946284803F05AFAF4
:101C90000346002B01D001F0C3FE274B7B600C23D1
:101CA000BB6001237B612523BB613B1D19461F4897
:101CB00003F048FA0346002B01D001F0B1FE1F4BA0
:101CC0007B601223BB6002237B610823BB613B1D49
:101CD0001946164803F036FA0346002B01D001F0EE
:101CE0009FFE174B7B601823BB6004237B6100239E
:101CF000BB613B1D19460D4803F024FA0346002B37
:101D000001D001F08DFE0F4B7B604FF48073BB6000
:101D10003B1D1946054803F015FA0346002B01D078
:101D200001F07EFE00BF3037BD4680BD3804002084
:101D30000004005002003004040060080800900C09
:101D40001000C0102000F01480B588B000AF3B46F2
:101D500020220021184610F076F82B4B2B4A1A60EF
:101D6000294B4FF4A0125A60274B00229A60264B51
:101D70000022DA60244B00221A61234B00225A61B0
:101D8000214B04229A61204B00221A771E4B01221C
:101D90005A771D4B01221A621B4B002283F8242024
:101DA000194B0022DA62184B00221A63164B0122EB
:101DB00083F83820144B4FF48052DA63124B002220
:101DC00083F84020104802F019FF0346002B01D091
:101DD00001F026FE0E4B3B6006237B600723BB60B1
:101DE0007F23FB6004233B6100237B613B46194654
:101DF000054803F0A7F90346002B01D001F010FEBF
:101E000000BF2037BD4680BDA4040020000500505F
:101E10000200300480B588B000AF3B46202200218C
:101E2000184610F010F8314B314A1A602F4B4FF41E
:101E3000A0125A602D4B00229A602C4B0022DA60CF
:101E40002A4B00221A61294B00225A61274B042297
:101E50009A61264B00221A77244B01225A77234B92
:101E600001221A62214B002283F824201F4B0022FA
:101E7000DA621E4B00221A631C4B012283F83820C1
:101E80001A4B0022DA63194B012283F84020174BCA
:101E90001C225A64154B4FF480729A64134B002233
:101EA000DA64124B01221A65104802F0A7FE0346BD
:101EB000002B01D001F0B4FD0E4B3B6006237B608C
:101EC0000023BB607F23FB6004233B6100237B6115
:101ED0003B461946054803F035F90346002B01D06F
:101EE00001F09EFD00BF2037BD4680BD10050020DB
:101EF000000600500200300480B500AF064B074AD0
:101F00001A60054804F0A4F80346002B01D001F044
:101F100087FD00BF80BD00BF9C060020000C024072
:101F200080B58CB000AF3B463022002118460FF040
:101F30008AFF1E4B1E4A1A601C4804F0D2FA034660
:101F4000002B01D001F06CFD02233B6000233B71AC
:101F500000237B710023BB600023FB6000233B61F7
:101F600000237B610123BB610023FB613B46002210
:101F700019460E4804F0D2FB0346002B01D001F0B5
:101F80004FFD3B4610221946084804F0C7FB0346A4
:101F9000002B01D001F044FD044B064A9A60054B2A
:101FA000024A9A6200BF3037BD4680BDC406002099
:101FB00000080050EC06002080B58CB000AF3B4616
:101FC0003022002118460FF03EFF164B164A1A60C9
:101FD000144804F086FA0346002B01D001F020FDDE
:101FE00002233B6000233B7100237B710023BB6015
:101FF0000023FB6000233B6100237B610123BB6165
:102000000023FB613B4600221946064804F086FB8C
:102010000346002B01D001F003FD00BF3037BD4661
:1020200080BD00BFD8060020000C005080B598B0DD
:1020300000AF07F1540300221A605A609A6007F15A
:10204000380300221A605A609A60DA601A615A6195
:102050009A613B1D3422002118460FF0F4FE3E4BDE
:102060003E4A1A603C4B00225A603B4B00229A6069
:10207000394BD222DA60384B00221A61364B0022EB
:102080005A61354B00229A61334808F01CF8034628
:10209000002B01D001F0C4FC00237B650023BB654D
:1020A0000023FB6507F1540319462B4809F052FA47
:1020B0000346002B01D001F0B3FC6023BB63002377
:1020C000FB6300233B6400237B640023BB64002389
:1020D000FB6400233B6507F13803002219461E48C4
:1020E00008F046FB0346002B01D001F099FC1A4B87
:1020F0001B689A69184B1B6822F008029A6100233A
:102100007B600023BB600023FB6000233B61002356
:102110007B614FF40053BB610023FB6100233B62F2
:1021200000237B624FF00073BB620023FB6200233D
:102130003B6300237B633B1D1946074809F0A0FA67
:102140000346002B01D001F06BFC034802F010F8AD
:1021500000BF6037BD4680BDAC070020002C0140A9
:1021600080B58EB000AF07F1280300221A605A60D4
:102170009A60DA6007F11C0300221A605A609A60C4
:102180003B4600221A605A609A60DA601A615A610E
:102190009A612D4B2D4A1A602B4B00225A602A4B14
:1021A00000229A60284B40F2A722DA60264B0022D8
:1021B0001A61254B00229A61234807F015FE034659
:1021C000002B01D001F02CFC4FF48053BB6207F1CF
:1021D000280319461C4808F0DFFB0346002B01D0FA
:1021E00001F01EFC184807F06EFF0346002B01D0DB
:1021F00001F016FC0023FB6100237B6207F11C0346
:102200001946114809F0A6F90346002B01D001F048
:1022100007FC60233B6000237B600023BB6000233E
:102220003B613B4600221946074808F0A1FA0346E5
:10223000002B01D001F0F4FB034801F099FF00BF2F
:102240003837BD4680BD00BFF807002000080040B9
:1022500080B584B000AF3B1D00221A605A609A60BE
:10226000194B1A4A1A60184B42F61D525A60164B07
:1022700000229A60144B4FF6A652DA60124B0022ED
:102280009A61114807F0B0FD0346002B01D001F020
:10229000C7FB00237B600023FB603B1D19460A48F7
:1022A00009F058F90346002B01D001F0B9FB0022D8
:1022B0000021362004F0E1F8362004F0F8F800BFE1
:1022C0001037BD4680BD00BF44080020001000400C
:1022D00080B584B000AF3B1D00221A605A609A603E
:1022E000144B154A1A60134B43F697225A60114B50
:1022F00000229A600F4B0922DA600E4B00229A618D
:102300000C4807F071FD0346002B01D001F088FB5B
:1023100000237B600023FB603B1D1946054809F044
:1023200019F90346002B01D001F07AFB00BF1037EA
:10233000BD4680BD900800200014004080B598B0D4
:1023400000AF07F1540300221A605A609A6007F147
:10235000380300221A605A609A60DA601A615A6182
:102360009A613B1D3422002118460FF06CFD3E4B54
:102370003E4A1A603C4B00225A603B4B00229A6056
:10238000394BD222DA60384B00221A61364B0022D8
:102390005A61354B00229A61334807F094FE034698
:1023A000002B01D001F03CFB00237B650023BB65C3
:1023B0000023FB6507F1540319462B4809F0CAF8BE
:1023C0000346002B01D001F02BFB6023BB630023ED
:1023D000FB6300233B6400237B640023BB64002376
:1023E000FB6400233B6507F13803042219461E48AD
:1023F00008F0BEF90346002B01D001F011FB1A4B87
:102400001B689A69184B1B6822F400629A610023CA
:102410007B600023BB600023FB6000233B61002343
:102420007B614FF40053BB610023FB6100233B62DF
:1024300000237B624FF00073BB620023FB6200232A
:102440003B6300237B633B1D1946074809F018F9DD
:102450000346002B01D001F0E3FA034801F088FEA7
:1024600000BF6037BD4680BDDC080020003401405D
:1024700080B588B000AF07F1100300221A605A60DF
:102480009A60DA603B1D00221A605A609A601F4B06
:102490001F4A1A601D4B40F2DB525A601B4B002250
:1024A0009A601A4B0422DA60184B00221A61174B0B
:1024B00000225A61154B00229A61144807F094FCDF
:1024C0000346002B01D001F0ABFA4FF480533B617F
:1024D00007F1100319460D4808F05EFA0346002B79
:1024E00001D001F09DFA00237B600023FB603B1DBF
:1024F0001946064809F02EF80346002B01D001F0DA
:102500008FFA00BF2037BD4680BD00BF28090020DC
:102510000040014080B500AF0F4B104A1A600E4BCF
:1025200043F697225A600C4B00229A600A4B09220C
:10253000DA60094B00221A61074B00225A61064BF0
:1025400000229A61044807F04FFC0346002B01D09B
:1025500001F066FA00BF80BD74090020004401400C
:1025600080B500AF224B234A1A60214B4FF4E13271
:102570005A601F4B00229A601D4B0022DA601C4BF0
:1025800000221A611A4B0C225A61194B00229A61DF
:10259000174B0022DA61164B00221A62144B0022FC
:1025A0005A62134B00229A62114809F043F903461C
:1025B000002B01D001F034FA00210D4809F0DEFEB5
:1025C0000346002B01D001F02BFA0021084809F046
:1025D00013FF0346002B01D001F022FA044809F052
:1025E00094FE0346002B01D001F01AFA00BF80BD13
:1025F000C0090020004C004080B582B000AF224BE3
:102600009B6C214A43F0040393641F4B9B6C03F0C3
:1026100004037B607B681C4B9B6C1B4A43F00103EB
:102620009364194B9B6C03F001033B603B680022F1
:1026300000210B2003F021FF0B2003F038FF0022C4
:1026400000210C2003F019FF0C2003F030FF0022C2
:1026500000210D2003F011FF0D2003F028FF0022C0
:1026600000210E2003F009FF0E2003F020FF0022BE
:1026700000210F2003F001FF0F2003F018FF00BF1F
:102680000837BD4680BD00BF0010024080B58CB049
:1026900000AF07F11C0300221A605A609A60DA60EA
:1026A0001A619A4BDB6C994A43F01003D364974B41
:1026B000DB6C03F01003BB61BB69944BDB6C934A8A
:1026C00043F00403D364914BDB6C03F004037B61A0
:1026D0007B698E4BDB6C8D4A43F02003D3648B4BBC
:1026E000DB6C03F020033B613B69884BDB6C874A62
:1026F00043F00103D364854BDB6C03F00103FB6003
:10270000FB68824BDB6C814A43F00203D3647F4B4E
:10271000DB6C03F00203BB60BB687C4BDB6C7B4A69
:1027200043F00803D364794BDB6C03F008037B6050
:102730007B6800222021764804F0BEFD01224FF480
:102740000071744804F0B8FD00220421714804F0BF
:10275000B3FD00222021704804F0AEFD01224FF4A9
:1027600081716B4804F0A8FD012240216A4804F001
:10277000A3FD01220121694804F09EFD0122802170
:10278000674804F099FD40F61503FB6100233B62A6
:1027900000237B6207F11C0319465D4804F0F2FB3D
:1027A0002023FB6101233B6200237B620023BB6289
:1027B00007F11C031946564804F0E4FB4FF400737C
:1027C000FB6111233B6200237B620023BB6207F1A4
:1027D0001C0319464F4804F0D5FB4FF48063FB619E
:1027E00000233B6200237B6207F11C031946494822
:1027F00004F0C8FB4FF40173FB6100233B6200232C
:102800007B6207F11C031946434804F0BBFB042319
:10281000FB6101233B6200237B620023BB6207F163
:102820001C0319463B4804F0ADFB2023FB61012348
:102830003B6200237B620023BB6207F11C03194645
:10284000354804F09FFB0123FB6100233B6200231A
:102850007B6207F11C031946314804F093FB4FF4E7
:102860008173FB6111233B6200237B620023BB6207
:1028700007F11C031946264804F084FB4023FB6142
:1028800011233B6200237B620023BB6207F11C0320
:102890001946214804F076FB4FF48063FB61002366
:1028A0003B6200237B6207F11C0319464FF0904006
:1028B00004F068FB0123FB6111233B6200237B6270
:1028C0000023BB6207F11C031946144804F05AFBAD
:1028D0007023FB6100233B6200237B6207F11C0332
:1028E00019460E4804F04EFB8023FB6111233B6226
:1028F00000237B620023BB6207F11C0319460848D2
:1029000004F040FB00BF3037BD4680BD00100240E0
:10291000001000480014004800080048000C00485F
:102920000004004880B483B000AF03460A46FB7140
:102930001346BB71FB79042B39D801A252F823F05E
:102940005529000863290008712900088D2900080D
:102950009B290008BB79002B2BD10123FB7101239C
:1029600031E0BB79002B26D10223FB7102232AE040
:10297000BB79012B03D10323FB71032323E0BB7934
:10298000032B1AD10423FB7104231CE0BB79022B17
:1029900015D10123FB71012315E0BB79002B10D168
:1029A0000C4B00221A600223FB7102230BE000BFD4
:1029B00008E000BF06E000BF04E000BF02E000BF87
:1029C00000E000BFFB7918460C37BD465DF8047B7C
:1029D000704700BF8C0B002080B485B000AF7860DA
:1029E0007B68642B01D964237B600B4BDB6801336C
:1029F0007A6802FB03F3094AA2FB03235B09013B4C
:102A0000FB60054B1B68FA685A6300BF1437BD466C
:102A10005DF8047B704700BFF80700201F85EB516D
:102A200080B584B000AF78607B681B68204A934211
:102A300035D10023FB600023BB600BE01D4ABB685F
:102A400032F813309BB21A46FB681344FB60BB6834
:102A50000133BB60BB68092BF0DDFB68164AA2FBA3
:102A60000323DB0840F6E44202FB03F31B0B9AB29C
:102A7000124B1A80114B1B88A3F2AA531846FDF77C
:102A800079FD09A3D3E90023FDF7DEFD02460B46DD
:102A900010461946FEF7B0F80346094A136000BF16
:102AA0001037BD4680BD00BFFA7E6ABC7493D83F24
:102AB000000600509C0A0020CDCCCCCCB00A0020EF
:102AC000980A002080B489B000AFF860B9607A60DD
:102AD000334BBB61FB685B6801337B617B697A6860
:102AE00002FB03F3BA69B2FBF3F3013BFB61FB6941
:102AF000B3F5803F14D3FB691B0C7A6902FB03F327
:102B000001337B617B697A6802FB03F3BA69B2FB2C
:102B1000F3F3013BFB61FB681B687A69013A9A6237
:102B2000FB681B68FA69DA62FB68FA69DA60FB69BC
:102B30005B083B61BB68002B04D1FB681B683A69EA
:102B40005A6323E0BB68042B04D1FB681A683B6915
:102B500093631BE0BB68082B04D1FB681A683B69D0
:102B6000D36313E0BB680C2B04D1FB681A683B6984
:102B700013640BE0BB68102B04D1FB681A683B6937
:102B8000936403E0FB681A683B69D364FB681B68C5
:102B900001225A6100BF2437BD465DF8047B7047AF
:102BA00080D1F00880B500AF0121184804F06CFB1B
:102BB0000346002B26D01021144804F065FB034681
:102BC000002B1FD00421114804F05EFB0346002BAC
:102BD00018D04FF400610D4804F056FB0346002B5B
:102BE00010D040210A4804F04FFB0346002B09D0C7
:102BF0004FF40071074804F047FB0346002B01D057
:102C0000002300E00123184680BD00BF00100048EB
:102C1000000C00480008004880B500AF10211148A2
:102C200004F032FB0346002B19D001210E4804F0BA
:102C30002BFB0346002B12D04FF480610B4804F0AD
:102C400023FB0346002B0AD04FF480614FF09040E5
:102C500004F01AFB0346002B01D0012300E00023FF
:102C6000184680BD000C00480004004800140048CD
:102C7000B0B582B000AF78607B681B686E4A934243
:102C800040F0B0806D4B1B78022B40F0A8806C4B5D
:102C90009B889BB21A4640F6E44302FB03F3002BE9
:102CA00001DA03F6FF731B13C83B1846FDF762FCFD
:102CB0005DA3D3E90023FDF7C7FC02460B4610468F
:102CC0001946FDF771FF03461A465E4B1A605E4BCC
:102CD0005B889BB21A4640F6E44302FB03F3002BE9
:102CE00001DA03F6FF731B13C83B1846FDF742FCDD
:102CF0004DA3D3E90023FDF7A7FC02460B4610467F
:102D00001946FDF751FF0346504A1360504B1B888C
:102D10001846FDF72FFC04460D464E4B1B6818461F
:102D2000FDF728FC42A3D3E90023FDF78DFC024602
:102D30000B4620462946FDF7D1FA02460B461046BF
:102D40001946FDF759FF034600220021424803F0CF
:102D5000ADFC424B1B881846FDF70CFC04460D46A3
:102D60003F4B1B681846FDF705FC31A3D3E9002350
:102D7000FDF76AFC02460B4620462946FDF7AEFAEF
:102D800002460B4610461946FDF736FF0346002261
:102D90001021314803F08AFC2D4B1B881846FDF7A3
:102DA000E9FB04460D462F4B1B681846FDF7E2FB76
:102DB0004FF000022C4BFDF747FC02460B46204625
:102DC0002946FDF789FA02460B4610461946FDF7DB
:102DD00013FF034600220021244803F067FC244B24
:102DE00001221A707B681B68224A934201D100F0CD
:102DF00057F97B681B68204A934210D102211F4873
:102E000004F072FA4FF400711D4804F06DFA0022CC
:102E100020211A4804F050FA1A4807F025F900BF9B
:102E20000837BD46B0BD00BF8FC2F5285CCF324029
:102E30009A9999999999993F00400140870B0020F0
:102E4000700A0020640A0020880A00207C0A002002
:102E5000540A0020580A0020C4060020560A002008
:102E60005C0A0020600A00200000D03FD806002045
:102E7000910B00200010004000140040001000489A
:102E8000001400489008002080B485B000AFF860BE
:102E9000B9607A6087ED000ABA68FB68D31A0A2B1A
:102EA00015DDFB6807EE903AB8EEE77A7B6807EE2F
:102EB000903AF8EEE76AD7ED007A66EEA77A77EEF9
:102EC000277AFDEEE77A17EE903AFB601AE0BA68CF
:102ED000FB68D31A13F10A0F14DAFB6807EE903A75
:102EE000B8EEE77A7B6807EE903AF8EEE76AD7ED3E
:102EF000007A66EEA77A77EE677AFDEEE77A17EE4C
:102F0000903AFB60FB6841F28D22934205DD4BF65F
:102F10008033FB60044B01221A70FB68184614379B
:102F2000BD465DF8047B70478C0A002080B489B0F0
:102F300000AFF861B9617A613B6187ED030AC7EDC3
:102F4000020A87ED011A3A697B69D31A324A136083
:102F5000BB691B68304A1168304A12680A4407EEA0
:102F6000902AB8EEE77A97ED036AD7ED027AC6EEBB
:102F7000276AD7ED017A66EEA77AF6EE006A67EE69
:102F8000A67A67EE277AFDEEE77A17EE902A1A44C2
:102F9000BB691A60204B1B68204A1360FB691B68E1
:102FA0001F4A1360BB691B68BA6A9A4202DCBB699C
:102FB000BA6A1A60BB691B68FA6A9A4202DBBB698B
:102FC000FA6A1A60144B1B6807EE903AB8EEE77A7B
:102FD000D7ED037A67EE277AFDEEE77A17EE902AAF
:102FE000BB691B681A44FB691A60FB691B68BA6AF3
:102FF0009A4202DCFB69BA6A1A60FB691B68FA6ACA
:103000009A4202DBFB69FA6A1A6000BF2437BD46A8
:103010005DF8047B704700BF940A0020800B0020FD
:10302000900A002000000000B0B584B000AF87ED2A
:10303000030AC7ED020A87ED011AC7ED001AB86846
:10304000FDF7AAFA12A3D3E90023FDF7FDFA024621
:103050000B4614461D46F868FDF79EFA0EA3D3E909
:103060000023FDF7F1FA02460B4620462946FDF7FC
:1030700035F902460B4610461946FDF7DDFD0346BD
:1030800007EE903AB0EE670A1037BD46B0BD00BFFC
:10309000666666666666EE3F9A9999999999A93F20
:1030A00080B582B000AF444BDB889BB21A4640F635
:1030B000E44302FB03F3002B01DA03F6FF731B1357
:1030C0001A463E4B1A603C4B1B899BB21A4640F68F
:1030D000E44302FB03F3002B01DA03F6FF731B1337
:1030E0001A46374B1A6014233B60344B1B68A3F518
:1030F000C873344AA2FB03231B09304A1360304BC8
:103100001B68A3F5FA732F4AA2FB0323DB082C4AA2
:1031100013602B4B1A68294B1B68934238BF134628
:103120003B603B68642202FB03F3A3F5FA63254A84
:10313000A2FB03239B097B607B68642B01D964237A
:103140007B607868FDF706FA02460B469FED161B7A
:1031500043EC102B12F050FE51EC100B14A3D3E9EA
:103160000023FDF771FA02460B4610461946FDF79B
:103170001BFD0346144A82FB03129214DB17D31A79
:103180001433124A13603B68132B03D80F4B1422DD
:103190001A6005E03B68642B02D90C4B63221A606D
:1031A00000BF0837BD4680BD000000000000084099
:1031B0000000000000C05340700A0020680A002090
:1031C0006C0A0020CDCCCCCC83DE1B432800002031
:1031D00080B584B000AF78607868FDF771F8034679
:1031E000FB81FB897F2B01D97F23FB81FB891A4659
:1031F00079680B480EF0B9FEFB89094A0021D154C9
:10320000FB89194678680DF015FA03467B737B7BC2
:10321000012BF5D000BF00BF1037BD4680BD00BFF9
:10322000F40A002080B500AFA64B1B78DBB2002B60
:1032300000F046810622A449A4480EF00CFE034685
:10324000002B08D1A24AA349A0480EF08DFDA24848
:10325000FFF7BEFF2CE10622A0499C480EF0FBFDC3
:103260000346002B08D19E4A9E4998480EF07CFDEB
:103270009D48FFF7ADFF1BE108229C4993480EF0E3
:10328000EAFD0346002B08D1994A9A498F480EF06F
:103290006BFD9948FFF79CFF0AE10C2297498B4888
:1032A0000EF0D9FD0346002B08D1954A9549874871
:1032B0000EF05AFD9448FFF78BFFF9E00C2293497A
:1032C00082480EF0C8FD0346002B08D1904A914970
:1032D0007E480EF049FD9048FFF77AFFE8E00D22A6
:1032E0008E497A480EF0B7FD0346002B08D18C4A70
:1032F0008C4976480EF038FD8B48FFF769FFD7E020
:103300000C228A4971480EF0A6FD0346002B08D115
:10331000874A88496D480EF027FD8748FFF758FF18
:10332000C6E00C22854969480EF095FD0346002B46
:1033300008D1834A834965480EF016FD8248FFF79D
:1033400047FFB5E00622814960480EF084FD034640
:10335000002B0ED15E4B1B681846FDF71DF9024687
:103360000B467B497B480EF0DFFC7A48FFF730FFC5
:103370009EE00622784955480EF06DFD0346002B6D
:103380000ED1574B1B681846FDF706F902460B464F
:10339000724970480EF0C8FC6E48FFF719FF87E0CD
:1033A00008226F4949480EF056FD0346002B0AD10A
:1033B0004F4B1B681A466B4966480EF0B5FC6548D2
:1033C000FFF706FF74E00C22674940480EF043FD0A
:1033D0000346002B0AD14A4B1B881A4663495D48B5
:1033E0000EF0A2FC5B48FFF7F3FE61E00C2260499F
:1033F00036480EF030FD0346002B0AD1444B1B88A3
:103400001A465C4953480EF08FFC5248FFF7E0FE25
:103410004EE00D2258492D480EF01DFD0346002BAD
:103420000AD13F4B1B681A4654494A480EF07CFCAF
:103430004848FFF7CDFE3BE00C22514923480EF0EF
:103440000AFD0346002B0ED1394B1B681846FDF7C9
:10345000A3F802460B464B493E480EF065FC3D483A
:10346000FFF7B6FE24E00C22474918480EF0F3FCA3
:103470000346002B0ED1324B1B681846FDF78CF823
:1034800002460B46414933480EF04EFC3148FFF7E7
:103490009FFE0DE00B223E490C480EF0DCFC03467B
:1034A000002B02D100F0C2F902E03A48FFF790FE8B
:1034B0004022002105480EF0C6FC024B00221A7083
:1034C00000BF80BD740B0020106D0108B40A0020FD
:1034D00018000020186D0108246D0108306D0108E6
:1034E0001C000020386D0108446D0108506D010872
:1034F000000000205C6D01086C6D01087C6D010806
:10350000540A00208C6D01089C6D0108BC6D0108F7
:10351000560A0020CC6D0108DC6D0108FC6D010825
:10352000980A00200C6E0108206E0108346E010814
:1035300004000020446E0108546E0108686E010802
:1035400008000020786E0108886E01089C6E010852
:10355000A46E0108F40A0020B06E0108B86E0108DC
:10356000C46E0108D06E0108DC6E0108EC6E010823
:10357000086F0108186F0108346F0108446F0108D3
:10358000546F0108646F0108746F0108846F0108AB
:10359000946F0108A06F010880B487B000AF87ED79
:1035A000030AB8600B46FB71FB79202B35D1D7EDB0
:1035B000037AB7EE007AF4EEC77AF1EE10FA11D87A
:1035C000BB6807EE903AB8EEE77AD7ED037A67EE7C
:1035D000277A9FED327A67EE877AFCEEE77A17EE6C
:1035E000903A7B61D7ED037AB7EE007AF4EEC77AB2
:1035F000F1EE10FA11DDBB6807EE903AB8EEE77A0B
:10360000D7ED036AC6EE877A9FED247A67EE877A54
:10361000FCEEE77A17EE903A7B61FB79102B35D1FF
:10362000D7ED037AB7EE007AF4EEC77AF1EE10FA2E
:1036300011D8BB6807EE903AB8EEE77AD7ED037A77
:1036400067EE277A9FED167A67EE877AFCEEE77AC7
:1036500017EE903A7B61D7ED037AB7EE007AF4EE7D
:10366000C77AF1EE10FA11DDBB6807EE903AB8EEBA
:10367000E77AD7ED036AC6EE877A9FED097A67EE9F
:10368000877AFCEEE77A17EE903A7B617B69184601
:103690001C37BD465DF8047B704700BF0000004F3B
:1036A00000FEFF4680B487B000AFF860B9601146F5
:1036B0001A460B46FB711346BB71BB79202B2BD1ED
:1036C00097F90730002B11D0FB6807EE903AF8EE1F
:1036D000E77A9FED2E7AC7EE876ABB6807EE903ACD
:1036E000B8EEE77AC6EE877AC7ED057A97F9073024
:1036F000002B11D1FB6807EE903AF8EEE77ADFED88
:10370000236A87EEA67ABB6807EE903AF8EEE77A6E
:1037100067EE277AC7ED057ABB79102B2BD197F985
:103720000730002B11D0FB6807EE903AF8EEE77AED
:103730009FED177AC7EE876ABB6807EE903AB8EE3E
:10374000E77AC6EE877AC7ED057A97F90730002B3E
:1037500011D1FB6807EE903AF8EEE77ADFED0C6ADC
:1037600087EEA67ABB6807EE903AF8EEE77A67EE46
:10377000277AC7ED057A7B6907EE903AB0EE670AC3
:103780001C37BD465DF8047B704700BF0000004F4A
:1037900000FEFF4680B584B000AF87ED010AD7ED8B
:1037A000017ABFEE007AF4EEC77AF1EE10FA02D594
:1037B0001A4B7B600BE0D7ED017AB7EE007AF4EE9E
:1037C000C77AF1EE10FA02DD4FF07E537B60B7EE60
:1037D000007AD7ED017A77EE677AB0EE670A12F0D9
:1037E0007BFB87ED030AD7ED017A9FED0D7A67EE3B
:1037F000877A9FED0C7A37EEC77AD7ED017A67EEBC
:10380000277A9FED097A37EE877AD7ED037A67EE4C
:10381000277AB0EE670A1037BD4680BD000080BF32
:103820009E3AB63DCABF5B3EDA0FC93F80B5A0B035
:1038300000AF5D4B1B681846FCF7AEFE02460B4618
:1038400038465A490EF070FA3B461846FFF7C0FC5E
:10385000574B1B681846FCF79FFE02460B4638463E
:1038600054490EF061FA3B461846FFF7B1FC524B43
:103870001A683B46514918460EF056FA3B46184620
:10388000FFF7A6FC4E4B1A683B464E4918460EF011
:103890004BFA3B461846FFF79BFC4B4B1A683B46DE
:1038A0004A4918460EF040FA3B461846FFF790FC8E
:1038B000474B1A683B46474918460EF035FA3B46D7
:1038C0001846FFF785FC444B1A683B4643491846A7
:1038D0000EF02AFA3B461846FFF77AFC404B1A686E
:1038E0003B46404918460EF01FFA3B461846FFF784
:1038F0006FFC3D4B1A683B463C4918460EF014FAE3
:103900003B461846FFF764FC394B1A683B46394979
:1039100018460EF009FA3B461846FFF759FC364B9D
:103920001B881A463B46354918460EF0FDF93B46C2
:103930001846FFF74DFC324B1B881A463B4631496F
:1039400018460EF0F1F93B461846FFF741FC2E4BA6
:103950001A683B462D4918460EF0E6F93B461846D4
:10396000FFF736FC2A4B1B681846FCF715FE02468B
:103970000B46384627490EF0D7F93B461846FFF765
:1039800027FC254B1B681846FCF706FE02460B4633
:10399000384622490EF0C8F93B461846FFF718FC96
:1039A00000BF8037BD4680BD18000020A46E01080E
:1039B0001C000020B86E010800000020D06E010835
:1039C000580A0020B46F01085C0A0020C06F01088B
:1039D000600A0020CC6F0108640A0020D86F01083B
:1039E0007C0A0020EC6F0108680A002004700108BE
:1039F0006C0A002014700108540A0020EC6E0108C3
:103A0000560A0020186F0108980A0020446F010828
:103A100004000020646F010808000020846F010882
:103A200080B400AF72B600BF00BFFDE780B582B0C2
:103A300000AF0F4B1B6E0E4A43F0010313660C4B95
:103A40001B6E03F001037B607B68094B9B6D084A8A
:103A500043F080539365064B9B6D03F080533B60AE
:103A60003B6805F035FA00BF0837BD4680BD00BF92
:103A70000010024080B5A4B000AF786007F17C036D
:103A800000221A605A609A60DA601A6107F128030E
:103A90005422002118460EF0D6F97B681B68B3F15A
:103AA000A04F1CD14FF40043BB624FF00053FB66A4
:103AB00007F12803184605F049FF0346002B01D003
:103AC000FFF7AEFF864BDB6C854A43F40053D364AB
:103AD000834BDB6C03F400537B627B6A85E17B687C
:103AE0001B68804A934240F087804FF48033BB626A
:103AF0004FF080433B6707F12803184605F026FF87
:103B00000346002B01D0FFF78BFF774B1B68013377
:103B1000754A1360744B1B68012B0BD1704BDB6C27
:103B20006F4A43F48043D3646D4BDB6C03F48043F2
:103B30003B623B6A6A4BDB6C694A43F00203D36425
:103B4000674BDB6C03F00203FB61FB69644BDB6CCE
:103B5000634A43F01003D364614BDB6C03F0100342
:103B6000BB61BB6942F20203FB670323C7F88030E5
:103B70000023C7F8843007F17C0319465B4803F043
:103B800001FA4FF40A53FB670323C7F88030002380
:103B9000C7F8843007F17C031946554803F0F2F961
:103BA000544B554A1A60534B25225A60514B002200
:103BB0009A60504B0022DA604E4B80221A614D4BC6
:103BC0004FF480725A614B4B4FF480629A61494BBB
:103BD0002022DA61474B00221A62464802F060FF59
:103BE0000346002B01D0FFF71BFF7B68414A5A6553
:103BF000404A7B689362F8E07B681B683F4A9342C7
:103C000040F082804FF48033BB624FF080433B67CB
:103C100007F12803184605F099FE0346002B01D052
:103C2000FFF7FEFE304B1B6801332F4A13602E4B0B
:103C30001B68012B0BD12A4BDB6C294A43F48043D0
:103C4000D364274BDB6C03F480437B617B69244B9B
:103C5000DB6C234A43F01003D364214BDB6C03F08D
:103C600010033B613B694FF48043FB670323C7F8B4
:103C700080300023C7F8843007F17C0319461C48C4
:103C800003F080F91E4B1F4A1A601D4B26225A6012
:103C90001B4B00229A601A4B0022DA60184B8022DC
:103CA0001A61174B4FF480725A61154B4FF48062C2
:103CB0009A61134B2022DA61114B4FF440521A6281
:103CC0000F4802F0EDFE0346002B01D0FFF7A8FEDF
:103CD0007B680B4A5A650A4A7B68936285E000BF9D
:103CE0000010024000040050BC0B002000040048FB
:103CF000001000487C05002008000240000500502C
:103D0000DC0500201C0002407B681B68394A934296
:103D10006BD14FF48033BB624FF080433B6707F1B8
:103D20002803184605F012FE0346002B01D0FFF7CA
:103D300077FE314B1B6801332F4A13602E4B1B68F3
:103D4000012B0BD12D4BDB6C2C4A43F48043D36405
:103D50002A4BDB6C03F48043FB60FB68274BDB6C76
:103D6000264A43F00103D364244BDB6C03F00103C8
:103D7000BB60BB684FF48073FB670323C7F88030D8
:103D80000023C7F8843007F17C0319464FF09040B8
:103D900003F0F8F81A4B1B4A1A60194B27225A6095
:103DA000174B00229A60164B0022DA60144B8022D7
:103DB0001A61134B4FF480725A61114B4FF48062B9
:103DC0009A610F4B2022DA610D4B00221A620C48D7
:103DD00002F066FE0346002B01D0FFF721FE7B6850
:103DE000074A5A65064A7B68936200BF9037BD4612
:103DF00080BD00BF00060050BC0B00200010024038
:103E00003C0600203000024080B485B000AF7860EE
:103E10007B681B680A4A93420BD10A4B9B6C094A88
:103E200043F008039364074B9B6C03F00803FB60AB
:103E3000FB6800BF1437BD465DF8047B704700BFC8
:103E4000000C02400010024080B58CB000AF7860DA
:103E500007F11C0300221A605A609A60DA601A6146
:103E60007B681B685B4A934259D15B4BDB6C5A4AB7
:103E700043F48033D364584BDB6C03F48033BB6171
:103E8000BB69554BDB6C544A43F00103D364524B7E
:103E9000DB6C03F001037B617B693023FB6103234F
:103EA0003B6200237B6207F11C0319464FF09040F0
:103EB00003F068F8494B4A4A1A60484B06225A6098
:103EC000464B10229A60454B0022DA60434B802219
:103ED0001A61424B4FF400725A61404B4FF400623A
:103EE0009A613E4B2022DA613C4B4FF400521A6239
:103EF0003A4802F0D5FD0346002B01D0FFF790FDB4
:103F00007B68364A9A60354A7B68936200220021BA
:103F1000362002F0B2FA362002F0C9FA55E07B688A
:103F20001B68304A934250D12B4BDB6C2A4A43F436
:103F30000033D364284BDB6C03F400333B613B69F3
:103F4000254BDB6C244A43F00103D364224BDB6C2A
:103F500003F00103FB60FB684023FB6103233B622A
:103F600000237B6207F11C0319464FF0904003F0D9
:103F700009F81D4B1D4A1A601B4B29225A601A4B27
:103F800010229A60184B0022DA60174B80221A61C7
:103F9000154B4FF400725A61134B4FF400629A6153
:103FA000114B2022DA61104B4FF400521A620E4876
:103FB00002F076FD0346002B01D0FFF731FD7B6850
:103FC000094A9A60084A7B68936200BF3037BD4651
:103FD00080BD00BF0008005000100240EC06002029
:103FE00044000240000C00504C07002058000240E2
:103FF00080B584B000AF78607B681B681A4A934232
:1040000014D11A4B1B6E194A43F400631366174B05
:104010001B6E03F40063FB60FB6800220021182084
:1040200002F02BFA182002F042FA18E07B681B68B5
:104030000F4A934213D10D4B1B6E0C4A43F40053AD
:1040400013660A4B1B6E03F40053BB60BB6800226F
:1040500000212B2002F011FA2B2002F028FA00BFD9
:104060001037BD4680BD00BF002C0140001002404B
:104070000034014080B588B000AF78607B681B6871
:10408000354A93420CD1354B9B6D344A43F00403BF
:104090009365324B9B6D03F00403FB61FB6956E0B3
:1040A0007B681B682E4A934214D12C4B9B6D2B4A84
:1040B00043F010039365294B9B6D03F01003BB6124
:1040C000BB6900220021362002F0D7F9362002F029
:1040D000EEF93CE07B681B68224A93420CD11F4BEF
:1040E0009B6D1E4A43F0200393651C4B9B6D03F0B0
:1040F00020037B617B692AE07B681B681A4A934234
:1041000014D1164B1B6E154A43F480331366134BC0
:104110001B6E03F480333B613B69002200211820B1
:1041200002F0ABF9182002F0C2F910E07B681B68BE
:104130000E4A93420BD1094B1B6E084A43F40033DD
:104140001366064B1B6E03F40033FB60FB6800BF75
:104150002037BD4680BD00BF00080040001002406F
:1041600000100040001400400040014000440140A5
:1041700080B58AB000AF786007F1140300221A609E
:104180005A609A60DA601A617B681B68334A93420E
:104190001CD1334BDB6C324A43F00403D364304B05
:1041A000DB6C03F004033B613B6901237B61022369
:1041B000BB610023FB6102233B6202237B6207F1A8
:1041C00014031946274802F0DDFE43E07B681B68B4
:1041D000254A93421DD1224BDB6C214A43F0080350
:1041E000D3641F4BDB6C03F00803FB60FB684FF4E8
:1041F00080537B610223BB610023FB6100233B6290
:1042000002237B6207F114031946184802F0BAFE34
:1042100020E07B681B68164A93421BD1104BDB6C75
:104220000F4A43F00403D3640D4BDB6C03F004032B
:10423000BB60BB6880237B610223BB610023FB6101
:1042400002233B6204237B6207F1140319460548ED
:1042500002F098FE00BF2837BD4680BD002C01400B
:10426000001002400008004800080040000C004810
:104270000034014080B59EB000AF786007F1640360
:1042800000221A605A609A60DA601A6107F110031E
:104290005422002118460DF0D6FD7B681B681F4A8A
:1042A000934236D108233B6180233B6207F1100320
:1042B000184605F04BFB0346002B01D0FFF7B0FB7F
:1042C000174B9B6D164A43F400239365144B9B6D6B
:1042D00003F40023FB60FB68114BDB6C104A43F0D6
:1042E0000403D3640E4BDB6C03F00403BB60BB68B8
:1042F0004FF440637B660223BB660023FB6600230A
:104300003B6705237B6707F164031946054802F004
:1043100039FE00BF7837BD4680BD00BF004C00406D
:10432000001002400008004880B400AF00BFFDE765
:1043300080B400AF00BFFDE780B400AF00BFFDE771
:1043400080B400AF00BFFDE780B400AF00BFFDE761
:1043500080B400AF00BFBD465DF8047B704780B4F9
:1043600000AF00BFBD465DF8047B704780B400AF6E
:1043700000BFBD465DF8047B704780B500AF00F01C
:10438000B9F900BF80BD000080B500AF024802F05F
:10439000AAFC00BF80BD00BF7C05002080B500AF37
:1043A000024802F0A0FC00BF80BD00BFDC05002079
:1043B00080B500AF024802F096FC00BF80BD00BF90
:1043C0003C06002080B500AF024802F08CFC00BF24
:1043D00080BD00BFEC06002080B500AF024802F0AF
:1043E00082FC00BF80BD00BF4C07002080B500AF3D
:1043F000024803F083F800BF80BD00BF9C2000206E
:1044000080B500AF034806F063F8034806F060F893
:1044100000BF80BDAC0700202809002080B500AF98
:10442000024806F055F800BF80BD00BFDC08002040
:1044300080B500AF034806F04BF8034802F0E0F8FF
:1044400000BF80BD44080020C406002080B400AF37
:1044500001231846BD465DF8047B704780B582B0E5
:1044600000AF786039600DF053FD034616221A60E4
:104470004FF0FF3318460837BD4680BD80B582B087
:1044800000AF78604FF0FF317868FFF7E7FF00BFBB
:10449000FDE780B586B000AFF860B9607A600023B0
:1044A0007B610AE0AFF300800146BB685A1CBA602A
:1044B000CAB21A707B6901337B617A697B689A4260
:1044C000F0DB7B6818461837BD4680BD80B586B0E6
:1044D00000AFF860B9607A6000237B6109E0BB68D7
:1044E0005A1CBA601B781846AFF300807B69013311
:1044F0007B617A697B689A42F1DB7B6818461837E2
:10450000BD4680BD80B483B000AF78604FF0FF330C
:1045100018460C37BD465DF8047B704780B483B005
:1045200000AF786039603B684FF400525A60002356
:1045300018460C37BD465DF8047B704780B483B0E5
:1045400000AF7860012318460C37BD465DF8047B48
:10455000704780B485B000AFF860B9607A6000231E
:1045600018461437BD465DF8047B704780B586B0A9
:1045700000AF7860144A154BD31A7B617B693B61AD
:10458000134B1B68002B02D1114B124A1A60104BBF
:104590001A687B6813443A699A4207D20DF0B8FC56
:1045A00003460C221A604FF0FF3309E0084B1B68EA
:1045B000FB60074B1A687B681344054A1360FB686D
:1045C00018461837BD4680BD0000022000040000D8
:1045D000C00B0020E826002080B400AF064BD3F8C3
:1045E0008830054A43F47003C2F8883000BFBD46E6
:1045F0005DF8047B704700BF00ED00E00D48854684
:10460000FFF7EAFF0C480D490D4A002302E0D45899
:10461000C4500433C4188C42F9D30A4A0A4C00230C
:1046200001E013600432A242FBD30DF077FCFCF7EB
:1046300003FDFEE70000022000000020B003002080
:1046400050750108B0030020E4260020FEE780B585
:1046500082B000AF0023FB71032001F003FF0020B4
:1046600000F00EF80346002B02D00123FB7101E09D
:10467000FFF7DCF9FB7918460837BD4680BD00001E
:1046800080B584B000AF78600023FB73164B1B68C5
:10469000002B22D0154B1A68134B1B684FF47A710C
:1046A000B1FBF3F3B2FBF3F3184601F00EFF034640
:1046B000002B0FD17B680F2B09D8002279684FF0AF
:1046C000FF3001F0DAFE0A4A7B68136007E001233D
:1046D000FB7304E00123FB7301E00123FB73FB7B0D
:1046E00018461037BD4680BD5C00002054000020F5
:1046F0005800002080B400AF054B1A68054B1B68BA
:104700001344034A136000BFBD465DF8047B704745
:10471000C40B00205C00002080B400AF034B1B687A
:104720001846BD465DF8047B704700BFC40B0020EF
:1047300080B584B000AF7860FFF7EEFFB8607B68AB
:10474000FB60FB68B3F1FF3F04D0094B1B68FA68BC
:104750001344FB6000BFFFF7DFFF0246BB68D31ABC
:10476000FA689A42F7D800BF00BF1037BD4680BD37
:104770005C00002080B483B000AF786039607B6853
:104780009B6823F47C123B681A437B689A6000BFE5
:104790000C37BD465DF8047B704780B483B000AF32
:1047A000786039607B689B6823F0E0723B681A434D
:1047B0007B689A6000BF0C37BD465DF8047B70478C
:1047C00080B483B000AF78607B689B6803F0E073CF
:1047D00018460C37BD465DF8047B704780B487B03F
:1047E00000AFF860B9607A603B60FB6860331A46DE
:1047F000BB689B0013447B617B691A68084B1340BC
:104800007A6802F0F8413A680A43134343F00042E1
:104810007B691A6000BF1C37BD465DF8047B70479A
:1048200000F0FF0380B485B000AF786039607B682A
:1048300060331A463B689B001344FB60FB681B68AF
:1048400003F0F84318461437BD465DF8047B704703
:1048500080B487B000AFF860B9607A60FB686033FD
:104860001A46BB689B0013447B617B691B6823F07D
:1048700000427B681A437B691A6000BF1C37BD4643
:104880005DF8047B704780B487B000AFF860B96012
:104890007A60FB6860331A46BB689B0013447B61F7
:1048A0007B691B6823F080727B681A437B691A60FE
:1048B00000BF1C37BD465DF8047B704780B487B0ED
:1048C00000AFF860B9607A60FB6860331A46BB6875
:1048D0009B0013447B617B691B6823F000727B683B
:1048E0001A437B691A6000BF1C37BD465DF8047B24
:1048F000704780B483B000AF786039607B685B69D3
:1049000023F000423B681A437B685A6100BF0C37B2
:10491000BD465DF8047B704780B483B000AF78601B
:104920007B68DB6803F44063002B01D1012300E0C6
:10493000002318460C37BD465DF8047B704780B4F1
:1049400087B000AFF860B9607A60FB6830331A4610
:10495000BB681B0A9B0003F00C0313447B617B695B
:104960001A68BB6803F01F031F2101FA03F3DB433E
:104970001A407B689B0E03F01F01BB6803F01F0306
:1049800001FA03F31A437B691A6000BF1C37BD4666
:104990005DF8047B704780B487B000AFF860B96001
:1049A0007A60FB6814331A46BB685B0E9B0003F009
:1049B000040313447B617B691A68BB681B0D03F019
:1049C0001F03072101FA03F3DB431A40BB681B0DE9
:1049D00003F01F03796801FA03F31A437B691A6035
:1049E00000BF1C37BD465DF8047B704780B485B0BE
:1049F00000AFF860B9607A60FB68D3F8B020BB689C
:104A0000C3F31203DB431A407B6803F01803084921
:104A1000D940BB680B40C3F312031A43FB68C3F8C9
:104A2000B02000BF1437BD465DF8047B704700BF5F
:104A3000FFFF070080B483B000AF78607B689B689D
:104A400003F01F0318460C37BD465DF8047B704722
:104A500080B483B000AF78607B689B6823F020430C
:104A600023F03F037A68936000BF0C37BD465DF8C2
:104A7000047B704780B483B000AF78607B689B682C
:104A800003F00053B3F1005F01D1012300E00023E4
:104A900018460C37BD465DF8047B704780B483B080
:104AA00000AF78607B689B6823F0104323F03F03DE
:104AB00043F080527B689A6000BF0C37BD465DF8BA
:104AC000047B704780B483B000AF78607B689B68DC
:104AD00003F08053B3F1805F01D1012300E0002394
:104AE00018460C37BD465DF8047B704780B483B030
:104AF00000AF78607B689B6823F0004323F03F039E
:104B000043F001027B689A6000BF0C37BD465DF838
:104B1000047B704780B483B000AF78607B689B688B
:104B200023F0004323F03F0343F002027B689A60C6
:104B300000BF0C37BD465DF8047B704780B483B07E
:104B400000AF78607B689B6803F00103012B01D103
:104B5000012300E0002318460C37BD465DF8047BB6
:104B6000704780B483B000AF78607B689B6803F0C7
:104B70000203022B01D1012300E0002318460C3769
:104B8000BD465DF8047B704780B483B000AF7860A9
:104B90007B689B6823F0004323F03F0343F004024B
:104BA0007B689A6000BF0C37BD465DF8047B704798
:104BB00080B483B000AF78607B689B6803F0040327
:104BC000042B01D1012300E0002318460C37BD4619
:104BD0005DF8047B704780B483B000AF78607B6879
:104BE0009B6803F00803082B01D1012300E0002398
:104BF00018460C37BD465DF8047B704790B589B008
:104C000000AF78600023FB770023FB607B68002BFC
:104C100001D10123A9E17B685B69002B7B68DB6D17
:104C2000002B09D17868FEF725FF7B6800221A6601
:104C30007B68002283F858207B681B681846FFF7C2
:104C400019FF0346002B04D07B681B681846FFF74A
:104C5000FFFE7B681B681846FFF734FF0346002BF6
:104C600015D17B681B681846FFF718FF9C4B1B6823
:104C70009B099C4AA2FB03239B0901335B00FB6059
:104C800002E0FB68013BFB60FB68002BF9D17B680D
:104C90001B681846FFF716FF0346002B0DD17B68F3
:104CA000DB6D43F010027B68DA657B681B6E43F0B6
:104CB00001027B681A660123FB777B681B68184634
:104CC000FFF776FF78617B68DB6D03F01003002B44
:104CD00040F042817B69002B40F03E817B68DB6DB8
:104CE00023F4817343F002027B68DA657B681B68FA
:104CF0001846FFF723FF0346002B41D17B681B6852
:104D0000B3F1A04F04D07B681B68774A93420FD160
:104D10004FF0A040FFF712FF04467348FFF70EFF65
:104D200003462343002B0CBF01230023DBB212E018
:104D30006E48FFF703FF04466D48FFF7FFFE03468A
:104D40001C436C48FFF7FAFE03462343002B0CBFBD
:104D500001230023DBB2002B12D07B681B68B3F168
:104D6000A04F04D07B681B685F4A934201D1624A1E
:104D700000E0624A7B685B6819461046FFF7FAFC60
:104D80007B685B7F5A037B68DB6B1A437B68DB685D
:104D90001A437B689B681A437B6893F824301B0492
:104DA0001343BB617B6893F82430012B06D17B68E9
:104DB0009B6A013B5B04BA691343BB617B68DB6A96
:104DC000002B09D07B68DB6A03F478727B681B6B6D
:104DD0001343BA691343BB617B681B68DA68484BAD
:104DE00013407A681268B9690B43D3607B681B680B
:104DF0001B6923F040617B685A6B7B681B680A4320
:104E00001A617B681B681846FFF7E5FE38617B690D
:104E1000002B7FD13B69002B7CD17B681B7F9A03E1
:104E20007B6893F838305B001343BB617B681B6879
:104E3000DB6823F4804323F002037A681268B969BF
:104E40000B43D3607B681B69002B17D07B681B6802
:104E50001A697B681B6842F480321A617B681B68A0
:104E6000D3F8C03023F47F5323F03F037A681169ED
:104E70007A6812680B43C2F8C03013E07B681B6885
:104E80001A697B681B6822F480321A617B681B6890
:104E9000D3F8C0307A68126823F47F5323F03F03BD
:104EA000C2F8C0307B6893F84030012B2AD17B6870
:104EB0001B681B6923F4FF6323F004037A68516CB9
:104EC0007A68926C11437A68D26C11437A68126DD9
:104ED0000A431A437B681B6842F001021A6119E019
:104EE00054000020632D3E050001005000040050D6
:104EF000000500500006005000030050000700505D
:104F00000740F0FF7B681B681A697B681B6822F00A
:104F100001021A617B685B69012B0CD17B681B68FD
:104F20001B6B23F00F017B681B6A5A1E7B681B6892
:104F30000A431A6307E07B681B681A6B7B681B686F
:104F400022F00F021A637B68DB6D23F0030343F04A
:104F500001027B68DA6507E07B68DB6D43F01002D5
:104F60007B68DA650123FB77FB7F18462437BD4653
:104F700090BD00BF80B586B000AFF860B9607A60C0
:104F8000FB681B68B3F1A04F04D0FB681B685A4A4A
:104F9000934201D1594B00E0594B1846FFF74AFDA7
:104FA0003861FB681B681846FFF702FE0346002BBA
:104FB00040F09B80FB6893F85830012B01D102230D
:104FC00096E0FB68012283F85820FB681B684D4A75
:104FD000934208D03B69002B05D03B69052B02D0DA
:104FE0003B69092B7AD1F86800F0ECFC0346FB75AD
:104FF000FB7D002B6DD1FB68DB6D23F4706323F028
:10500000010343F48072FB68DA65FB681B683A4A67
:10501000934209D0FB681B683B4A934202D0FB686D
:105020001B6803E0394B01E04FF0A043FA681268B7
:10503000934202D03B69002B05D1FB68DB6D23F462
:105040008012FB68DA65FB68DB6D03F48053002B8C
:1050500006D0FB681B6E23F00602FB681A6602E0AE
:10506000FB6800221A66FB685B6D294ADA62FB68FE
:105070005B6D284A1A63FB685B6D274A5A63FB68BD
:105080001B681C221A60FB68002283F85820FB680A
:105090001B685A68FB681B6842F010025A60FB6884
:1050A0001B68DA68FB681B6842F00102DA60FB6883
:1050B000586DFB681B6840331946BA687B6801F07D
:1050C00097FD0346FB75FB681B681846FFF75CFD00
:1050D0000DE0FB68002283F8582008E00123FB75EF
:1050E000FB68002283F8582001E00223FB75FB7D5A
:1050F00018461837BD4680BD00010050000300501F
:105100000007005000060050000500500004005049
:10511000AF5B0008875C0008A35C000880B483B024
:1051200000AF786000BF0C37BD465DF8047B704768
:1051300080B483B000AF786000BF0C37BD465DF827
:10514000047B704780B5B6B000AF7860396000234B
:1051500087F8D7300023FB607B6893F85830012B29
:1051600002D1022300F013BC7B68012283F858208F
:105170007B681B681846FFF71BFD0346002B40F0B9
:10518000F3837B6818683B6859683B681B681A465C
:10519000FFF7D5FB7B681B681846FFF709FDC7F8CA
:1051A000D0007B681B681846FFF715FDC7F8CC00D8
:1051B000D7F8D030002B40F0D981D7F8CC30002B75
:1051C00040F0D4813B689B68B3F1004F0FD17B68FE
:1051D00018683B681B6800221946FFF7DCFB7B68F8
:1051E0001B684FF000411846FFF783FB0EE07B6819
:1051F00018683B6819683B689B681A46FFF7CBFB49
:105200007B681B6800211846FFF773FB3B685A69EF
:105210007B681B68DB68DB0803F003035B0002FAB2
:1052200003F3C7F8C8303B681B69042B22D07B68A6
:1052300018683B6819693B681A68D7F8C830FFF7E7
:10524000CDFA7B6818683B6819693B689B691A4608
:10525000FFF719FB7B6818683B6819693B681B7F7F
:10526000012B02D14FF0007300E000231A46FFF734
:1052700025FB7BE17B681B6800211846FFF7D2FA0B
:105280000346C3F31203002B0AD17B681B6800217D
:105290001846FFF7C7FA03469B0E03F01F021EE0F5
:1052A0007B681B6800211846FFF7BCFA0346C7F865
:1052B000BC30D7F8BC3093FAA3F3C7F8B830D7F8AE
:1052C000B830C7F8C030D7F8C030002B01D1202348
:1052D00004E0D7F8C030B3FA83F3DBB21A463B6878
:1052E0001B68C3F31203002B05D13B681B689B0EA0
:1052F00003F01F0318E03B681B68C7F8B030D7F80D
:10530000B03093FAA3F3C7F8AC30D7F8AC30C7F895
:10531000B430D7F8B430002B01D1202304E0D7F803
:10532000B430B3FA83F3DBB29A4206D17B681B68D0
:10533000002200211846FFF78BFA7B681B680121C9
:105340001846FFF76FFA0346C3F31203002B0AD186
:105350007B681B6801211846FFF764FA03469B0E21
:1053600003F01F021EE07B681B6801211846FFF74F
:1053700059FA0346C7F8A430D7F8A43093FAA3F338
:10538000C7F8A030D7F8A030C7F8A830D7F8A830B1
:10539000002B01D1202304E0D7F8A830B3FA83F31F
:1053A000DBB21A463B681B68C3F31203002B05D11E
:1053B0003B681B689B0E03F01F0318E03B681B68EB
:1053C000C7F89830D7F8983093FAA3F3C7F8943019
:1053D000D7F89430C7F89C30D7F89C30002B01D117
:1053E000202304E0D7F89C30B3FA83F3DBB29A426F
:1053F00006D17B681B68002201211846FFF728FAB6
:105400007B681B6802211846FFF70CFA0346C3F3BA
:105410001203002B0AD17B681B6802211846FFF794
:1054200001FA03469B0E03F01F021EE07B681B6817
:1054300002211846FFF7F6F90346C7F88C30D7F873
:105440008C3093FAA3F3C7F88830D7F88830C7F8C0
:105450009030D7F89030002B01D1202304E0D7F80A
:105460009030B3FA83F3DBB21A463B681B68C3F390
:105470001203002B05D13B681B689B0E03F01F0332
:1054800016E03B681B68C7F88030D7F8803093FA85
:10549000A3F3FB67FB6FC7F88430D7F88430002B89
:1054A00001D1202304E0D7F88430B3FA83F3DBB2D0
:1054B0009A4206D17B681B68002202211846FFF73A
:1054C000C7F97B681B6803211846FFF7ABF9034651
:1054D000C3F31203002B0AD17B681B680321184613
:1054E000FFF7A0F903469B0E03F01F0217E07B684D
:1054F0001B6803211846FFF795F903467B677B6F0E
:1055000093FAA3F33B673B6FBB67BB6F002B01D1E3
:10551000202303E0BB6FB3FA83F3DBB21A463B6888
:105520001B68C3F31203002B05D13B681B689B0E5D
:1055300003F01F0311E03B681B68BB66BB6E93FA68
:10554000A3F37B667B6EFB66FB6E002B01D12023F1
:1055500003E0FB6EB3FA83F3DBB29A4206D17B68B9
:105560001B68002203211846FFF772F97B681B684D
:105570001846FFF7E3FA0346002B40F03D817B68B5
:1055800018683B6819683B68DB681A46FFF72EFA13
:105590003B68DB68A24A934240F02E817B68186822
:1055A0003B681B68C3F31203002B0BD13B681B68DD
:1055B0009B0E013303F01F03092B94BF012300232B
:1055C000DBB219E03B681B68FB65FB6D93FAA3F344
:1055D000BB65BB6D3B663B6E002B01D1202303E016
:1055E0003B6EB3FA83F3DBB2013303F01F03092BE5
:1055F00094BF01230023DBB2002B79D03B681B68EA
:10560000C3F31203002B07D13B681B689B0E0133C9
:105610009B0603F0F84215E03B681B683B653B6D59
:1056200093FAA3F3FB64FB6C7B657B6D002B01D1CC
:10563000202303E07B6DB3FA83F3DBB201339B06D7
:1056400003F0F8423B681B68C3F31203002B09D137
:105650003B681B689B0E013303F01F03012101FA15
:1056600003F317E03B681B687B647B6C93FAA3F33E
:105670003B643B6CBB64BB6C002B01D1202303E07B
:10568000BB6CB3FA83F3DBB2013303F01F030121D8
:1056900001FA03F342EA03013B681B68C3F31203F8
:1056A000002B0AD13B681B689B0E013303F01F02DD
:1056B00013465B0013441B0518E03B681B68BB6383
:1056C000BB6B93FAA3F37B637B6BFB63FB6B002BDE
:1056D00001D1202303E0FB6BB3FA83F3DBB2013388
:1056E00003F01F0213465B0013441B050B437EE0CF
:1056F0003B681B68C3F31203002B07D13B681B6890
:105700009B0E01339B0603F0F84215E03B681B68D3
:10571000FB62FB6A93FAA3F3BB62BB6A3B633B6B1E
:10572000002B01D1202303E03B6BB3FA83F3DBB200
:1057300001339B0603F0F8423B681B68C3F3120376
:10574000002B09D13B681B689B0E013303F01F033C
:10575000012101FA03F317E03B681B683B623B6AD7
:1057600093FAA3F3FB61FB697B627B6A002B01D197
:10577000202303E07B6AB3FA83F3DBB2013303F047
:105780001F03012101FA03F342EA03013B681B688E
:10579000C3F31203002B0DD13B681B689B0E013332
:1057A00003F01F0213465B0013441E3B1B0543F02E
:1057B00000731BE03B681B687B617B6993FAA3F372
:1057C0003B613B69BB61BB69002B01D1202303E036
:1057D000BB69B3FA83F3DBB2013303F01F02134654
:1057E0005B0013441E3B1B0543F000730B433A68F8
:1057F00092681946FFF7CFF83B681A68094B1340C7
:10580000002B00F0BE807B681B68B3F1A04F04D072
:105810007B681B68044A93420AD1044B09E000BF2D
:1058200000007F400000088000010050000300508D
:10583000594B1846FEF7C4FFC7F8C4003B681B6805
:10584000564A934204D03B681B68554A93423AD16A
:10585000D7F8C43003F40003002B34D17B681B68F5
:10586000B3F1A04F05D07B681B684E4A934240F0CD
:1058700085807B681B68B3F1A04F04D07B681B68F0
:10588000494A934201D1494A00E0434AD7F8C4301B
:1058900043F4000319461046FEF77FFF444B1B6894
:1058A0009B09444AA2FB03239B095A1C13465B0035
:1058B00013449B00FB6002E0FB68013BFB60FB685C
:1058C000002BF9D15AE03B681B683B4A934225D133
:1058D000D7F8C43003F08073002B1FD17B681B689E
:1058E000314A934204D17B681B68344A934247D0C3
:1058F0007B681B68B3F1A04F04D07B681B682A4A01
:10590000934201D1294A00E0234AD7F8C43043F03A
:10591000807319461046FEF740FF31E03B681B6874
:10592000274A93422DD1D7F8C43003F48003002BCB
:1059300027D17B681B681C4A934222D07B681B6876
:10594000B3F1A04F04D07B681B68174A934201D182
:10595000164A00E0104AD7F8C43043F480031946D1
:105960001046FEF71AFF0CE07B68DB6D43F0200267
:105970007B68DA65012387F8D73002E000BF00E0DA
:1059800000BF7B68002283F8582097F8D73018466C
:10599000D837BD4680BD00BF00070050000021C3BE
:1059A0001000C0900006005000010050000300509D
:1059B00054000020632D3E05000052C70005005032
:1059C000000084CB80B584B000AF78600023BB605A
:1059D0007B681B681846FFF7B1F80346002B76D1A9
:1059E0007B681B689A683C4B1340002B0DD07B688A
:1059F000DB6D43F010027B68DA657B681B6E43F059
:105A000001027B681A66012362E07B681B68184606
:105A1000FFF76CF87B681B68B3F1A04F04D07B687C
:105A20001B682E4A934201D12D4B00E02D4B1846A6
:105A3000FEF7C6FE034603F40003002B13D02A4BE7
:105A40001B689B09294AA2FB03239B095A1C134686
:105A50005B0013449B00BB6002E0BB68013BBB6082
:105A6000BB68002BF9D1FEF757FEF86028E07B6891
:105A70001B681846FFF762F80346002B04D17B68C9
:105A80001B681846FFF732F8FEF746FE0246FB6831
:105A9000D31A022B14D97B681B681B6803F001031F
:105AA000012B0DD07B68DB6D43F010027B68DA655B
:105AB0007B681B6E43F001027B681A66012307E0D6
:105AC0007B681B681B6803F00103012BCFD1002307
:105AD00018461037BD4680BD3F00008000010050D1
